:020000040800F2
:100000004020002045010008BF370008B72B00083A
:10001000E5360008330C000809B8000800000000AD
:100020000000000000000000000000004153000834
:10003000111000080000000089390008DD55000893
:100040005F0100085F0100085F0100085F01000810
:100050005F0100085F0100085F0100085F01000800
:1000600023100008291000085F0100085F01000844
:100070005F0100085F0100085F0100085F010008E0
:100080005F0100085F0100085F0100085F010008D0
:100090005F0100085F0100085F01000831100008DF
:1000A0005F0100085F0100085F0100085F010008B0
:1000B0005F0100085F010008295600085F01000881
:1000C0005F0100085F0100085F0100085F01000890
:1000D0005F010008F9B4000825B500080DB6000856
:1000E000211000085F0100085F0100085F0100089F
:1000F0005F0100085F0100085F0100085F01000860
:100100005F0100085F0100085D5600085F010008FC
:1001100059AF0008A9B000085F0100085F0100089E
:100120005F0100085F0100085F0100085F0100082F
:10013000DFF80CD000F08CFB00480047D5D6000853
:10014000402000200648804706480047FEE7FEE7BB
:10015000FEE7FEE7FEE7FEE7FEE7FEE7FEE7FEE777
:10016000E155000831010008202A04DB203A00FA9A
:1001700002F1002070479140C2F1200320FA03F3FE
:1001800019439040704710B5431A934209D283181F
:10019000881803E010F8011D03F8011D521EF9D262
:1001A00010BD40EA01039B0703D009E008C9121FF4
:1001B00008C0042AFAD203E011F8013B00F8013B21
:1001C000521EF9D210BDD2B201E000F8012B491E37
:1001D000FBD270470022F6E710B513460A460446E4
:1001E0001946FFF7F0FF204610BD10B5044604E0A5
:1001F0000B7800F8013B03B1491C521EF8D220468F
:1002000010BD421C10F8011B0029FBD1801A704759
:1002100010B5002200E0521C835C8C5CA34201D12B
:10022000002BF8D1D8B2E1B2401A10BD30B5054666
:100230000020034600E05B1C934205D2EC5CC85CE6
:10024000201A01D1002CF6D130BD000070B50F4D41
:1002500000B92868002412E00A4602E09E4203D05A
:10026000521C1378002BF9D1DAB2224305D02BB1FE
:1002700024B1002100F8011B04E00446401C06786C
:10028000002EE9D12860204670BD000090040020B7
:10029000F0B480EA0102D40F4200B2EB410F02D267
:1002A0000246084611464A0042D0C30DDDB2C1F3F2
:1002B000C752AD1A202D35DAC1F3160141F4000200
:1002C00004B15242C5F1200602FA06F12A41104457
:1002D000B3EBD05F23D0C4B1012DA0EBC35009DC38
:1002E000F0BC4FF0004202EAC352DBB200F500005E
:1002F00000F022BA400000F1807000EBC350A0F182
:10030000807040EAD170490009E0490841EAC071B3
:10031000A0EBC35000F50000400800EBC350F0BC58
:1003200000F001BA6142012202EB4101001BF6E735
:10033000F0BC704781F00041AAE780F00040A7E7D9
:1003400080EA010210B502F00043400022D04A00CA
:100350001FD0010E01EB1261C0F35600C2F356022A
:1003600040F4000042F40002A0FB022000047F39A8
:10037000140400D0401C50EA124001D44000491E31
:10038000C2B20C0604EBD010401C4008802A02D0F8
:1003900003E0002010BD20F00100002900DA002059
:1003A000184310BD420005D0C0F3C75252429142DB
:1003B00001DC0020704700EBC15070472DE9FE4F73
:1003C000804681EA0300C00F0C46009021F00041F6
:1003D00023F00045B8EB0200A94105D24046214672
:1003E00090461C460B46024623F00040104347D07F
:1003F000270DC7F30A00C3F30A510290401A019077
:1004000040286BDAC3F3130040F4801B0098924637
:1004100020B10023D2EB030A63EB0B0B0198594682
:10042000C0F140025046FFF79FFE06460D4650467B
:100430005946019A00F065F910EB0800614100246B
:1004400087EA115284EAE7731A4340D0009A62B3F4
:10045000019A012A4FEA075215DC001B61EB0201E9
:100460004FF0004202EA0752CDE90042001C41F57C
:10047000801132462B4600F09CF903B0BDE8F08FA6
:1004800040462146F9E7001B61EB0201001C41F5E3
:10049000801300185B412018A2F5001747EB0301F9
:1004A00040EAD570B6196D4111E06D084FEA360685
:1004B00045EAC0754FEA0752001B61EB0201001CC0
:1004C00041F5801149084FEA300000195141324688
:1004D0002B4603B0BDE8F04F00F05CB90098012254
:1004E00040000023D0EB020263EBE073009821464A
:1004F0004FEAE074B8EB000061EB0401E9E783F038
:1005000000435BE781F0004158E72DE9FE4F81EAA7
:10051000030404F0004421F0004100944FF0000B6C
:1005200023F0004350EA01045ED052EA03045BD09A
:10053000C3F30A54C1F30A552C44A4F2F3340194D2
:10054000A0FB0254C1F3130141F48011C3F3130360
:1005500043F4801301FB024400FB034E840A970A14
:1005600044EA815447EA8357A4FB076802958D0A41
:1005700005FB07854FEA932C04FB0C542705029DCD
:100580004FEA065847EA1637B5EB08056EEB070C3D
:10059000870E920E47EA811742EA8312A7FB0201F7
:1005A000B6EB0B0164EB00042B0D43EA0C335E1831
:1005B00044EB1C50DA465146E7FB0201C5F3130435
:1005C0004FEA0B3343EA14534FEA0432019C43EAE7
:1005D0000603A4F10C040294009CCDE900B400F0E1
:1005E000E8F803B0BDE8F08F00200146F9E7C10F3D
:1005F00080EAE0700844CA079623002100F09CB806
:1006000096230022114600F097B80EB5C10F80EA7C
:10061000E0700844CA07002140F233438DE80E0021
:100620000A460B4600F0C5F803B000BD20F00040BC
:10063000C10DC0F3160040F400007F2901DA00204C
:100640007047962903DCC1F19601C840704796397E
:100650008840704701F0004330B421F0004150EA77
:10066000010206D00A0DA2F56072C1F31301002A3F
:1006700002DC30BC00207047440F44EAC104C100D2
:10068000E01830BC00EBC25000F04DB8002801DB90
:10069000C0F10040002901DBC1F1004188427047F0
:1006A0002DE9F05F0546002092469B4688460646A7
:1006B000814640241BE0284641464746224600F03A
:1006C000D9F853465A46C01A914110D311461846DC
:1006D0002246FFF749FD2D1A67EB01084F462246D7
:1006E00001200021FFF740FD17EB00094E41201EBD
:1006F000A4F10104DFDC484631462A464346BDE802
:10070000F09F202A06DBCB17203A41FA02F043EA99
:10071000E07306E041FA02F3D040C2F120029140BA
:100720000843194670470029A8BF7047401C49007C
:1007300008BF20F00100704710B4B0FA80FC00FA46
:100740000CF050EA010404BF10BC704749B1CCF171
:10075000200421FA04F411FA0CF118BF01212143FD
:100760000843A3EB0C01CB1D4FEA00614FEA1020B8
:1007700042BF002010BC704700EBC350104400295A
:10078000A4BF10BC7047401C490008BF20F0010006
:1007900010BC704710B5141E73F1000408DA401C39
:1007A00041F1000192185B411A4301D120F0010090
:1007B00010BD2DE9F04D92469B4611B1B1FA81F280
:1007C00002E0B0FA80F220329046FFF7CDFC0446FA
:1007D0000F4640EA0A0041EA0B0153465A460843D5
:1007E00013D0114653EA010019D0C8F14002504617
:1007F00000F040F805460E46504659464246FFF77F
:10080000B3FC084305D0012004E020463946BDE88A
:10081000F08D0020054346EAE0762C4337430A98E2
:100820006305E40AA0EB08000022FD0A44EA4754ED
:100830000A3002D500200146E9E701051019694197
:10084000DDE9084500196941BDE8F04DA2E7000067
:10085000064C074D06E0E06840F0010394E807000D
:1008600098471034AC42F6D3FFF766FCD00101087C
:10087000F0010108202A04DB203A21FA02F00021CD
:10088000704721FA02F3D040C2F1200291400843A0
:100890001946704770B58C1810F8015B15F0070306
:1008A00001D110F8013B2A1106D110F8012B03E009
:1008B00010F8016B01F8016B5B1EF9D12B0705D411
:1008C0000023521E0DD401F8013BFAE710F8013B5A
:1008D000CB1A921C03E013F8015B01F8015B521E76
:1008E000F9D5A142D8D3002070BD1CB50024034621
:1008F0000094032201A96846019404F07DFC9DF850
:1009000004009DF8062044EA8010C1B29DF805005D
:1009100041EA900144EA8010C0B240EA92024FF6E8
:10092000FF7000EA012010431CBD0000054840682C
:1009300018B1D0F8F40000B1004740F63D0000F0D7
:1009400035B800009C0100200346094810B54268F4
:10095000002432B1D2F884201AB1184690470446D8
:1009600003E040F6210000F021F8204610BD000011
:100970009C0100200549496819B1D1F8C41001B1A2
:10098000084740F6310000F011B800009C0100203B
:10099000054B5B681BB1D3F8903003B1184740F6A4
:1009A000240000F003B800009C01002003494968BE
:1009B00019B1D1F8F01001B10847FEE79C01002001
:1009C0000448406810B1406900B1004740F6050096
:1009D000FFF7ECBF9C0100200246084810B54168B3
:1009E000002429B1896B19B110468847044603E0F9
:1009F00040F60E00FFF7DAFF204610BD9C010020F4
:100A00000449496811B1896C01B1084740F61200E8
:100A1000FFF7CCBF9C01002070B504460D46C0B264
:100A200002F0B4FF0020FFF7EBFF29462046BDE8A7
:100A3000704000F067B90000054A0846526812B1DC
:100A4000126802B110474FF40060FFF7AFBF00001B
:100A50009C010020044B5B6813B1DB6C03B11847A9
:100A600040F61300FFF7A2BF9C01002070B50D46B1
:100A700014460646194600F045F9304602F086FF56
:100A800022462946BDE870400020FFF7E3BF000082
:100A90000346094810B54268002432B1D2F8A020BC
:100AA0001AB118469047044603E040F62800FFF7C5
:100AB0007DFF204610BD00009C010020044A5268C2
:100AC00012B1526E02B1104740F61900FFF76EBF27
:100AD0009C01002070B5264C0E460025A0F5C8519B
:100AE00020804A3921D0012825D0A0F5C0513E39B7
:100AF0001ED0B0F5C25F24D0DC2825D0A0F5C851A7
:100B000046391BD0A0F5C851483917D0A0F5C851B7
:100B100050391CD0A0F5C851523918D0F02819D03E
:100B2000FA2817D0002060601FE002F06BFA13E093
:100B300002F064FA10E003F06FFC0DE00CF0C5FD6C
:100B40000AE002F05DFA07E004F02EFD04E00CF08C
:100B5000BEFD01E004F02AFD606030B1D0F8441120
:100B600019B116B1304688470546284670BD0000C9
:100B70009C0100200449496811B1896F01B10847FF
:100B800040F61E00FFF712BF9C01002070B5012443
:100B900007250CF047FC01210846FFF79BFF0021C9
:100BA0000120FFF749FF0121204600F0ABF8641C4B
:100BB000AC42F8DD70BD70B50024052002F0E6FE01
:100BC0004AF6E03500212A460846FFF743FF062093
:100BD00002F0DCFE00212A460846FFF73BFF00201A
:100BE000FFF7C8FF052002F0D1FE0020FFF7C2FF8B
:100BF000062002F029FA00B91024042002F024FA99
:100C000008B944F02004204670BD10B5A0B0002300
:100C10006A4606E0CC1A044414F8014CD4545B1C18
:100C2000DBB28B42F6D30A466946FFF7ACFA20B036
:100C300010BDFEE70020704710B50024FFF7FAFF53
:100C400000B1802400F005F808B144F040042046CB
:100C500010BD0020704730B501784278C378114448
:100C600082781A44114402791144427911448279FC
:100C70001144C2791144027A1144427A1144827AB1
:100C80001144C27A1144C9B20A22B1FBF2F302FB49
:100C900013146423B1FBF3F503FB1515B5FBF2F256
:100CA000B1FBF3F13034303204734273303181736D
:100CB00030BD000010B52D22024903A00AF0D0FD7E
:100CC000002010BD87FD00085B25733A2564235D75
:100CD000796F7520686176652063686F6F73652032
:100CE000446566696E6520426F617264204F4B20D7
:100CF000696E205B636F6E6669672E685D2E200DDE
:100D00000A00000030B587B0054600F059F81822F7
:100D10000B496846FFF737FA094C103C94E80F007E
:100D20000CF090FBE8B202F031FEA4F1640003F095
:100D300095FB07B00020BDE83040FFF761BE000022
:100D4000AC08002070B50024062002F01FFE41F21E
:100D5000707500212A460846641CFFF77BFE0020C0
:100D6000FFF708FF052002F06FF9002801D1022CDF
:100D7000EFDB70BD70B50024052002F007FE41F2E4
:100D8000707500212A460846641CFFF763FE0020A8
:100D9000FFF7F0FE032002F057F9002801D1022CE2
:100DA000EFDB70BD10B54FF4AA710348FFF712FADC
:100DB00002490020087010BD2C140020FC02002005
:100DC0002DE9F84F064600200C4600902821644883
:100DD000FFF700FA624D0021624F2E70624BDFF880
:100DE0008CE1DFF88CA1DFF88CC16348634A4FF0D7
:100DF00008094FF07E5B69610C2E76D2DFE806F0C1
:100E0000AA061A415361616A7676829E85F804903B
:100E10005B49A960AA61E960C5E9072C6A62002CF8
:100E200005D0012C02D0022C02D095E0554880E07C
:100E300055487EE085F804905148A860AA61E860B2
:100E4000C5E9072C464E514828366A622861012CB4
:100E500001D054B180E03089FFF7D2FBA8607089DF
:100E6000FFF7CEFBE860F08808E07088FFF7C8FB6A
:100E7000A860B088FFF7C4FBE8603088FFF7C0FBCC
:100E800057E02971C5F818B0C5F820B0C5F81CB0F6
:100E9000C5F824B0AF60C5E903712CB3012C48D06C
:100EA000022C46D058E02971AB61C5E9073BAF6021
:100EB0006B62C5E903709CB3012C4DD1C5F810E0FD
:100EC0004AE02971AB61C5E9073BAF606B62C5E9D8
:100ED000037E41E029712E48AB61C5E907302D48FA
:100EE000A8606B62E8602C4823E033E085F804904A
:100EF000AA61C5E9072CC5F808A0C5F80CA02748C9
:100F00006A6216E085F804902548A861C5E9070CD7
:100F1000AF60EF60686224B1012C09D0022C0AD0C6
:100F20001AE02048A861C5E9070268621E4800E08F
:100F30001E48286110E0C5F810A00DE02971144981
:100F4000AB61C5E90731C5F808A06B62C5E903A22A
:100F500014B1A3E7012000900098BDE8F88F0000CD
:100F60009C08002000409C450000A0410000484330
:100F700000803B450000204100007A440000C84248
:100F800000606A460000FA440080BB4500007A45D4
:100F90000000A04000002F44000048420080BB44F5
:100FA000000016430000F042000016440000964482
:100FB00010B50021022000F079FA044C00212060D5
:100FC000022000F087FA606010BD0000E0020020FF
:100FD00010B50121022000F069FA044C01212060C3
:100FE000022000F077FA606010BD0000400300208E
:100FF00010B5044600F0D8F92CB100F00DFABDE8A8
:10100000104000F08FB900F0A9F8F8E70020704711
:10101000704700000148406806F053BCFC02002005
:101020007047042000F05ABB082000F057BB0000B6
:1010300010B505A00AF014FC802000F04FFBBDE8BD
:101040001040402000F04ABB45585449395F355F95
:1010500049525148616E646C65720D0A00000000CF
:1010600030B5A3B04C208DF880004F208DF8810062
:1010700046208DF882008DF883000D208DF88400C5
:101080000A208DF8850000202290FFF791FF124C76
:10109000062120A86268904764200BF04FFE22686A
:1010A00022A96846904700246D4606E02B5DDF22AA
:1010B0000A490BA00AF0D4FB641C22988442F5DB99
:1010C000E222064909A00AF0CBFBE42203490AA068
:1010D0000AF0C6FB23B030BDE0020020E0FF0008AC
:1010E0005B25733A2564235D256300005B25733A15
:1010F0002564235D0D0A00005B25733A2564235D9A
:101100005343414E20454E440D0A00004FF4165003
:1011100009F00CBE4FF4165009F008BE0D4810B58A
:10112000816986B041F04001816180690A4C00F01C
:101130004000049000222021204600F0D6FB202110
:1011400000910121019103916946204600F0D2FAF5
:1011500006B010BD0010024000180140F0B50FA00D
:10116000A5B007C820AB002683E847000E4F4FF418
:10117000FA740A217A6820A890470C4D04E0287878
:1011800020B901200BF0DAFD641EF8D23A6823A9D9
:10119000684690472E7025B00020F0BD23393939BC
:1011A00030303034303B0000D8020020A80100204D
:1011B0000EB508A10EC98DE80E0018B908A007C821
:1011C0008DE80700094A0A216846526890470020C6
:1011D0000EBD00002339393930303033323B000046
:1011E0002339393930303033313B0000D802002008
:1011F0002DE9F0411AA0A4B007C820AB4FF00008B9
:1012000083E8070019A04FF4FA7406688021684645
:10121000CDF88C80FEF7DEFF154F0A2120A87A68F2
:101220009047144D04E0287820B901200BF086FD8A
:10123000641EF8D23A6823A96846904785F8008072
:1012400023980A2808D19DF80000F1B2884203D102
:10125000002024B0BDE8F0814FF0FF30F9E7000036
:101260002339393930303131363B0000210000005C
:10127000D8020020A80100202DE9F043804620A0DC
:10128000A7B007C820AB4FF0000983E807001FA0F4
:1012900023AB07C883E807001FA04FF4FA74066861
:1012A00080216846CDF89890FEF794FF1B4D1C4FA7
:1012B000B8F1000F4FF00A0101D020A800E023A8E8
:1012C0006A68904704E0387820B901200BF036FDB9
:1012D000641EF8D22A6826A96846904787F80090CD
:1012E00026980A2808D19DF80000F1B2884203D15F
:1012F000002027B0BDE8F0834FF0FF30F9E7000091
:101300002339393930303033353B0000233939390E
:1013100030303033363B000021000000D80200207E
:10132000A8010020F0B517A087B00068049016A0AF
:1013300000260068154F00960396019602960590C8
:101340007A684FF4FA74042104A89047104D04E021
:10135000287820B901200BF0F1FC641EF8D23A681D
:1013600003A9684690472E700398042806D10422EA
:10137000694605A8FEF75AFF002801D04FF0FF305C
:1013800007B0F0BD252525255E5E5E5ED8020020F3
:10139000A701002010B500F007F8FFF729FFBDE80E
:1013A0001040FFF7BFBF0000F0B517A087B000687E
:1013B000049016A000260068154F0096039601962B
:1013C000029605907A684FF4FA74042104A89047B5
:1013D000104D04E0287820B901200BF0AFFC641E0A
:1013E000F8D23A6803A9684690472E7003980428FB
:1013F00006D10422694605A8FEF718FF002801D08F
:101400004FF0FF3007B0F0BD24242424404040407A
:10141000D8020020A6010020F0B50FA0A5B007C893
:1014200020AB002683E847000E4F4FF4FA740A21E0
:101430007A6820A890470C4D04E0287820B9012054
:101440000BF07CFC641EF8D23A6823A968469047EA
:101450002E7025B00020F0BD2339393930303034BA
:10146000313B0000D8020020A801002070B502F036
:1014700037F8044603F03EFE40EA040502F064F843
:1014800040EA050403F05CFE40EA040500F04CF875
:10149000284370BD0148C0687047000098020020D2
:1014A00001480078704700009802002010B50446FB
:1014B0000AF026F918B9022C03D0032C03D000201F
:1014C00010BD024810BD024810BD00007DAE0008EE
:1014D000E9AE000810B504460AF012F918B9022C5A
:1014E00003D0032C03D0002010BD024810BD0248D9
:1014F00010BD0000C9AE00081DAF000810B50F20D8
:1015000000F0A2F80446102000F09EF844EA4004DF
:10151000112000F099F844EA8004122000F094F8B9
:1015200044EAC000C0B210BD10B50024052001F08F
:101530008BFD08B94FF48054062001F085FD08B9F1
:1015400044F40054032001F07FFD08B944F48044C2
:10155000042001F079FD08B944F40044092001F0A9
:1015600073FD08B944F48034082001F06DFD08B91A
:1015700044F400340B2001F067FD08B944F48024E2
:101580000A2001F061FD08B944F40024102001F0A4
:101590005BFD08B944F48014204610BD2DE9F041EC
:1015A000A2B00F4606460024802101A8FEF712FED5
:1015B00001F086FE4FF47A701B4D00900523697888
:1015C0001A48AA6804F0ABF8184A2121686809F0A3
:1015D0003BFB00224FF4FA71686808F047FC804634
:1015E000686806F0BDFAC0B910496868383106F07D
:1015F00005FA0E4C804638340C4814F83F1F01AAF7
:10160000383009F0B5F820784400202C00DD202483
:10161000224601A93846FEF7B6FD3470FFF77AFD81
:1016200022B04046BDE8F081FC020020A01000205E
:101630000148006870470000580300201822014943
:10164000FEF7A1BDE819002070B5054600240BF097
:10165000EFFD0B490F2D06D0102D06D0112D06D011
:10166000122D0AD105E0096804E0496802E08968A2
:1016700000E0C968884200DB0124204670BD0000FC
:10168000B80100200BF0D4BD70B50C4601461D46D4
:1016900016460F2003F00CFF2146102003F008FF30
:1016A0003146112003F004FF2946BDE870401220A6
:1016B00003F0FEBE31B500F01DF9044600F01AF942
:1016C0000099001B8842F9D338BD082803D00428AC
:1016D00003D1FFF775B9FFF729B97047044910B571
:1016E0000A68024202D00860FFF7EFFF10BD000059
:1016F000140401402DE9F84FDFF8BC91002309F1F3
:10170000040A0AF1040B1C464FF00F080BF1040EFB
:1017100001270A68A7403A40BA4272D1DFF89CC15B
:101720004D68A5EB0C0665452BD00DDC032D34D0A0
:1017300005DC35B3012D19D0022D2FD11BE0112D61
:1017400016D0122D2AD119E0B6F5881F19D006DC63
:10175000B6F5803F15D0B6F5801F1FD111E0B6F564
:10176000001F0ED0B6F5041F18D10AE0CB6815E0B3
:10177000CB681B1D12E0CB6808330FE0CB680C333D
:101780000CE08B682BB1012B4FF0080303D04761AD
:1017900004E0042302E0076100E00023FF2A01D8EF
:1017A000064601E000F104064FEA840501D9A5F1DF
:1017B0002005376808FA05FC27EA0C0703FA05F547
:1017C00047EA050737604D68ED006ED53C4DAE69C0
:1017D00046F00106AE61AD6924F0030605F001058F
:1017E0000095384D7719BE68A5072D0F08FA05FC3E
:1017F00026EA0C06DFF8D0C0604503D14FF0000C9C
:1018000025E052E0DFF8C4C0604502D14FF0010C82
:101810001DE0DFF8BCC0604502D14FF0020C16E0BD
:10182000DFF8B0C0604502D14FF0030C0FE0DFF8E5
:10183000A8C0604502D14FF0040C08E0DFF89CC05E
:10184000604502D14FF0050C01E04FF0060C0CFA98
:1018500005FC4CEA060CC7F808C04D68D9F80060D2
:10186000ED034D4601D5164300E096432E604D68CA
:10187000DAF80060AD03554601D5164300E0964303
:101880002E604D68DBF80060ED025D4601D5164321
:1018900000E096432E604D68DEF80060AD027546AC
:1018A00001D5164300E096432E60641C102CFFF413
:1018B0002FAFBDE8F88F00000004014000001110B8
:1018C000001002400000014000080140000C0140EF
:1018D000001001400014014000180140001C0140AC
:1018E0008068084000D0012070470AB1016170474C
:1018F0000904FBE70148006870470000040000206D
:1019000002480168491C0160704700000400002083
:10191000074810B5016841F010010160052000F092
:1019200051F80F2000F006F800F015F8002010BD67
:101930000020024010B5044600F016F94FF47A7109
:10194000B0FBF1F000F06FFE00222146501E00F0C7
:1019500019F8002010BD704700F01F0201219140CE
:101960004009800000F1E020C0F88011704700F0CD
:101970001F02012191404009800000F1E020C0F8E1
:1019800000117047F0B40E4B1B68C3F30223C3F180
:101990000704042C00D904241D1D072D01D20023A7
:1019A00000E0DB1E012606FA04F56D1E0D409D4089
:1019B0009E40761E164045EA0601F0BC01F000BFCD
:1019C0000CED00E0064A00F0070110684FF6FF0337
:1019D000184040EA012003490843106070470000A6
:1019E0000CED00E00000FA052DE9F047DFF8688112
:1019F00004460E46D8F8000000F00700B0420CD2B2
:101A0000D8F8001021F007013143C8F80010D8F8C9
:101A1000000000F00700B04273D120784F4F8007DC
:101A200005D57868A16820F0F00008437860207838
:101A3000C00755D06068012201280CD0022828D0A8
:101A4000022393FAA3F1B1FA81F141F0200149098F
:101A500004D0396803E04FF40033F2E7796A93FA6F
:101A6000A3F3B3FA83F303F01F039A40114248D063
:101A7000796821F0030101437960FFF73BFF0546D8
:101A8000606841F2883101280CD00228894615D0BF
:101A900022E04FF00073D4E7FFF72CFF411B4945CC
:101AA00001D916E089467868C0F381000128F3D196
:101AB00016E0FFF71FFF411B49450AD87868C0F3BD
:101AC00081000228F5D10BE0FFF714FF411B4945C7
:101AD00002D90320BDE8F087786810F00C0FF3D12D
:101AE000D8F80010404601F00701B1420BD9016857
:101AF00021F0070131430160006800F00700B042A7
:101B000001D00120E6E72078400705D57868E16834
:101B100020F4E060084378602078000706D57868F4
:101B2000216920F4605040EAC100786000F052F86A
:101B30007968F02292FAA2F201F0F001B2FA82F290
:101B4000D140074A515CC840064908600F20FFF7A2
:101B5000F1FE0020BEE7000000200240001002401D
:101B6000B3FD000800000020014800687047000035
:101B70000000002008480949006849684FF4E06205
:101B800092FAA2F201F4E061B2FA82F2D140044A80
:101B9000515CC84070470000000000200010024067
:101BA000C3FD000808480949006849684FF46052BD
:101BB00092FAA2F201F46051B2FA82F2D140044AE0
:101BC000515CC84070470000000000200010024037
:101BD000C3FD000810B519A085B00FC88DE80F002F
:101BE0001AA01B4B0068049059681A4801F00C02B7
:101BF000042A1DD0082A1BD14FF4701494FAA4F4BF
:101C000001F47012B4FA84F4E240C9031DF8022012
:101C100010D559684FF4003393FAA3F301F400315F
:101C2000B3FA83F3D94004AB595CB0FBF1F05043F5
:101C300005B010BD08485043FAE700000203040550
:101C4000060708090A0B0C0D0E0F10100102000008
:101C50000010024000127A0000093D002DE9F84F03
:101C600004460078FE4EC0074FF001057FD0706833
:101C70004FF40038C0F38100012807D07068C0F32A
:101C8000810002281BD17068C00318D598FAA8F00B
:101C9000B0FA80F040F02000400901D0306800E048
:101CA000706A98FAA8F1B1FA81F101F01F0105FA02
:101CB00001F108425BD06068002879D057E0606885
:101CC000B0F5803F0BD010B1B0F5A02F11D0306827
:101CD00020F480303060306820F4802002E03068EA
:101CE00040F480303060606818B3FFF703FE0746A9
:101CF00009E0306840F480203060F0E7FFF7FAFD3B
:101D0000C01B642870D898FAA8F0B0FA80F040F0B0
:101D10002000400901D0306800E0706A98FAA8F10C
:101D2000B1FA81F101F01F0105FA01F10842E5D095
:101D30001DE0FFF7DFFD074604E0FFF7DBFDC01BFA
:101D40006428DFD898FAA8F0B0FA80F040F02000BC
:101D5000400901D0306800E0706A98FAA8F1B1FA41
:101D600081F101F01F0105FA01F10842E5D1207867
:101D7000DFF8F08280074FF0000A4FF002075AD5D3
:101D800070684FF0F80B10F00C0F07D07068C0F3BC
:101D9000810002281CD17068C00319D497FAA7F0FB
:101DA000B0FA80F040F02000400902D0306801E035
:101DB0008AE0706A97FAA7F1B1FA81F101F01F0188
:101DC00005FA01F108422BD0206901287CD127E0D7
:101DD000206988B395FAA5F0B0FA80F048F8205051
:101DE000FFF788FD814606E04DE1FFF783FDA0EB9C
:101DF0000900022886D897FAA7F0B0FA80F040F0E0
:101E00002000400901D0306800E0706A97FAA7F11D
:101E1000B1FA81F101F01F0105FA01F10842E4D0A5
:101E200030689BFAABF220F0F8016069B2FA82F2F6
:101E300090400143316025E0FFE795FAA5F1B1FA42
:101E400081F148F821A0FFF755FD814605E0FFF735
:101E500051FDA0EB09000228CCD897FAA7F0B0FA00
:101E600080F040F02000400901D0306800E0706A46
:101E700097FAA7F1B1FA81F101F01F0105FA01F11A
:101E80000842E4D1207800076DD5A069B8B395FA6F
:101E9000A5F0B0FA80F008EB8000C0F88054FFF79E
:101EA00029FD814605E0FFF725FDA0EB090002288A
:101EB000A0D897FAA7F0B0FA80F040F06000B5EB38
:101EC000501F02D130680CE063E197FAA7F0B0FA36
:101ED00080F040F06000B7EB501F01D1306A00E0A5
:101EE000706A97FAA7F1B1FA81F101F01F0105FAC2
:101EF00001F21042D7D00120FFF7DCFB33E0FFE70F
:101F000095FAA5F1B1FA81F108EB8101C1F880A43D
:101F1000FFF7F0FC814605E0FFF7ECFCA0EB0900C1
:101F2000022899D897FAA7F0B0FA80F040F0600044
:101F3000B5EB501F01D130680BE097FAA7F0B0FA6B
:101F400080F040F06000B7EB501F01D1306A00E034
:101F5000706A97FAA7F1B1FA81F101F01F0105FA51
:101F600001F21042D8D12078400763D5F06940F0E3
:101F70008050F061F069DFF8F0B000F08050009020
:101F8000DBF8001041F48071CBF80010FFF7B2FCD1
:101F9000814605E0FFF7AEFCA0EB0900642872D88B
:101FA000DBF80000C005F5D5E06801280AD008B1CB
:101FB000052813D0306A20F001003062306A20F02A
:101FC000040002E0306A40F001003062E06841F253
:101FD000883B80B3FFF78EFC81460AE0306A40F010
:101FE00004003062EEE7FFF785FCA0EB09015945DC
:101FF00049D897FAA7F0B0FA80F040F04000B5EB6E
:10200000501F01D130680BE097FAA7F0B0FA80F0CA
:1020100040F04000B7EB501F01D1306A00E0706A19
:1020200097FAA7F1B1FA81F101F01F0205FA02F166
:102030000842D8D033E0FFE7FFF75CFC814605E0BB
:10204000FFF758FCA0EB090159451CD897FAA7F0F7
:10205000B0FA80F040F04000B5EB501F08D105E029
:1020600000100240000042420070004030680CE066
:1020700097FAA7F0B0FA80F040F04000B7EB501F9D
:1020800002D1306A01E08AE0706A97FAA7F1B1FAEA
:1020900081F101F01F0205FA02F10842D0D1E06996
:1020A00098B37168C1F38101022972D002284FF000
:1020B00080714FF0007B50460AD091FAA1F1B1FA3D
:1020C00081F148F82100FFF715FC04465F4669E0FE
:1020D0008A4691FAA1F1B1FA81F1C14648F821008E
:1020E000FFF708FCA84607465D4604E0FFF702FC40
:1020F000C01B022853D895FAA5F0B0FA80F040F042
:102100002000400902D0306801E060E0706A95FA72
:10211000A5F1B1FA81F101F01F0208FA02F10842BB
:10212000E4D1206AB0F5803F05D17068A16820F441
:10213000003008437060D4E908010843716821F455
:102140007411084370609AFAAAF0B0FA80F047461A
:1021500049F82080FFF7CEFB044604E0FFF7CAFBF6
:10216000001B02281BD895FAA5F0B0FA80F040F0C9
:102170002000400901D0306800E0706A95FAA5F1AE
:10218000B1FA81F101F01F0107FA01F10842E5D02F
:102190001DE01EE0FFF7AEFB001B022802D9032062
:1021A000BDE8F88F97FAA7F0B0FA80F040F0200071
:1021B000400901D0306800E0706A97FAA7F1B1FADF
:1021C00081F101F01F0105FA01F10842E2D100207E
:1021D000E6E70120E4E7000010B5040003D094F81E
:1021E000510010B104E0012010BD204600F038F885
:1021F000022084F851002068016821F0400101604C
:10220000D4E901010843D4E9031211430843616989
:102210000843218B01F400710843E1690843216AF6
:102220000843A16A084321680860A069042101EA03
:102230001040616A0843216848602168E06A0861CB
:102240002068C16921F40061C1610449002008705F
:102250006065012084F85100002010BD08000020B6
:102260002DE9F041054600683649374C0226012722
:1022700086B0884237D1A06940F00400A061A0690F
:1022800000F004000490A06940F00400A061A0697F
:1022900000F004000490A06940F00400A061A0696F
:1022A00000F004000490A06940F48050A061A0698F
:1022B000DFF8988000F4805004902020CDE90006DB
:1022C0000020CDE9020769464046FFF713FA402097
:1022D000009069464046FFF70DFA8020009069465D
:1022E0004046FFF707FA1A492868884227D1A069B3
:1022F00040F00800A061A06900F008000490E069C7
:1023000040F40040E061E06900F400400490A069FE
:1023100040F00100A061A06900F0010004900D48A8
:10232000416821F0E06141F00071416038208DE8A2
:10233000C1000320039069460748FFF7DBF906B0A8
:10234000BDE8F0810030014000100240000801406B
:10235000003C004000000140000C01402DE9F84322
:102360000026DDF820800446ADF8006090F85100AA
:10237000012803D094F8510022287DD169B162B1BF
:102380005BB194F85000012876D0012784F8507092
:1023900094F85100012803D005E00120BDE8F8833E
:1023A000322084F851006665A263A387E387216326
:1023B000A386E386A664E664A06A4FF40055A842AB
:1023C00009D12068016821F400510160206801688A
:1023D00041F40051016020680168490603D4016896
:1023E00041F040010160E0684FF48271B0F5006F88
:1023F000606807D0002867D088426ED1E08E01283F
:1024000062D06AE020B188420CD1E08E012809D167
:10241000206B21680088C860206B801C2063E08EE0
:10242000401EE086E08E80B9A06AA84244D12068B0
:10243000016841F4805101603EE02068C068A16BF2
:102440000880A06B801CA0639EE04346002202210E
:10245000204602F0EAFE002874D1206B2168008833
:10246000C860206B801C2063E08E401E0004000CBE
:10247000E08609D1A06A00E0C7E0A84204D1206844
:10248000016841F480510160434600220121204649
:1024900002F0CBFE00286FD12068C068A16B0880D5
:1024A000A06B801CA063E08F401EE087E08E0028B8
:1024B000CBD1606800286AD1434600220121204622
:1024C00002F0B3FEF0BBB8E7206B411C216321682A
:1024D0000078C860E08E401EE086E08E98B9A06A61
:1024E000A84204D12068016841F48051016043464C
:1024F00000220121204602F098FE18BB2068C06827
:10250000A16B087040E0434600220221204602F001
:102510008CFEB8B9206B411C216321680078C8602B
:10252000E08E401E0004000CE08607D1A06AA8429D
:1025300004D12068016841F48051016000224346C3
:10254000012100E018E0204602F06FFEA0B92068EB
:10255000C168A06B421CA2630170E08F401EE0873F
:10256000E08E0028CFD1606888B94346002201215F
:10257000204602F05AFE08B103200FE72068C16828
:10258000A06B421CA2630170E08F401EE087A06A2E
:10259000A84210D1434600220121204602F045FE08
:1025A00018B1606D40F002000FE02068C068ADF81F
:1025B0000000BDF80000434601228021204602F0C1
:1025C00034FE20B1606D40F010006065D4E784F8FF
:1025D0005170A06AA84214D120688168C943C90615
:1025E0000FD4616D41F002016165016821F4005171
:1025F00001602068016841F40051016084F8506076
:10260000CBE684F850600020C8E60220C6E64FF012
:10261000E0210428086903D020F004000861704715
:1026200040F00400FAE710B5401EB0F1807F01D3FE
:10263000012010BD4FF0E02460610F21601701F010
:10264000BFF80020A06107202061002010BD10B558
:10265000040003D094F8390010B107E0012010BD48
:10266000002084F83800204600F00CF8022084F89E
:102670003900211D206803F005F8012084F8390095
:10268000002010BD70470168CA6842F00102CA60AC
:102690000068016841F001010160002070470000FE
:1026A00010B50268044631B1042908D0082920D0A9
:1026B0000C2908D121E0D06840F0020002E0D06887
:1026C00040F00400D0600122206803F01DF80D499D
:1026D0002068884202D00C49884203D1416C41F401
:1026E000004141642068016841F00101016000205F
:1026F00010BDD06840F00800E4E7D06840F010005A
:10270000E0E70000002C01400034014010B50268F1
:10271000044631B1042908D008292FD00C2908D14A
:1027200030E0D06820F0020002E0D06820F0040021
:10273000D0600022206802F0E7FF144841F2111235
:1027400021689310814202D01148814209D1086A60
:10275000104206D1086A184203D1486C20F40040A8
:1027600048642068016A114206D1016A194203D106
:10277000016821F001010160002010BDD06820F047
:102780000800D5E7D06820F01000D1E7002C014008
:1027900000340140704790F83900704738B504465E
:1027A00000680168C268C1F3000102F4807221B1BF
:1027B0001AB1E16B41F00101E1630168C1F340022C
:1027C000416901F0010122B119B1E26B42F004024A
:1027D000E2630268C2F3800222B119B1E26B42F0F7
:1027E0000202E2630268C2F3C00222B119B1E16BD6
:1027F00041F00801E1630168C068C1F3401100F0D5
:10280000200019B110B1204608F0EEFC20680168E4
:10281000C068C1F3C01100F0800019B110B12046AA
:1028200008F0EEFD21680868CA68C0F3801002F065
:102830004002012568B162B1CA68204622F0400218
:10284000CA6094F83910322910D080F8395000F05D
:10285000B1F9E06B002808D020680168406800905A
:1028600084F839502046FFF795FF38BD222180F8C3
:102870003910ECE770B5040004D094F83900002555
:1028800010B106E0012070BD84F83850204600F0F9
:1028900021F8022084F839002068C16821F4005131
:1028A000C160204608F0F4FC2068016921F49041E1
:1028B00001612068416921F02A0141612068C168F5
:1028C00041F40051C160E563012084F83900002023
:1028D00070BD000010B500681E4986B0884236D130
:1028E0001D48816941F004018161816901F00401A1
:1028F0000491816941F480418161816901F48041E1
:102900000491816941F0010181618069134C00F0FB
:10291000010004904FF4007000900220019001200B
:1029200002900320039069462046FEF7E3FE21153E
:1029300000910021019169462046FEF7DBFE25202B
:10294000FFF715F8032211462520FFF71BF806B004
:1029500010BD000000380140001002400008014096
:102960002DE9F047044690F8390099460D460128B4
:1029700001D0122857D125B31AB394F83800012892
:1029800051D0012684F838600027E76394F83900B5
:10299000122819D0222084F83900A285E2854FF44C
:1029A0008058E08D4B46401EE085A0684FF0000245
:1029B00040454FF02001204616D108F054FDB0B933
:1029C00004E00120BDE8F0873220E4E72069002818
:1029D0002068406803D0C1B225F8011B12E0C0F3A3
:1029E000080125F8021B0DE008F03DFD08B10320A9
:1029F000E8E7206900282068406801D000F07F00E7
:102A000005F8010BE08D0028CBD194F8390032286D
:102A100005D084F8396084F838700020D2E712209D
:102A200084F83900F7E70220CCE790F83930012B21
:102A300001D0122B2BD131B32AB390F83830012BAF
:102A400025D0012380F8383081628285C28500213B
:102A5000C16390F83920122A17D0222280F8392039
:102A600080F838100168CA6842F48072CA60016850
:102A70004A6942F001024A610068C16841F02001E0
:102A8000C16000207047012070473222E6E7022033
:102A90007047000030B50068114988420CD1114AD6
:102AA0005088010408D41146440409784FF000030B
:102AB00006D50A2901D0538030BD40F400400DE016
:102AC0000D2909D0C0F30D04074D401C80B22955D3
:102AD0005080C728EFD830BD40F48040508030BDD2
:102AE00000380140100000209C0400202DE9F04730
:102AF000044690F8390099460D46012801D0222855
:102B000056D125B31AB394F83800012850D00126C5
:102B100084F838600027E76394F83900222819D038
:102B2000122084F83900A284E2844FF48058E08CAB
:102B30004B46401EE084A0684FF0000240454FF035
:102B40008001204613D108F08EFC08BB04E0012070
:102B5000BDE8F0873220E4E728882168C0F3080048
:102B60004860206908B16D1C08E0AD1C06E008F063
:102B70007AFC68B9216815F8010B4860E08C0028E0
:102B8000D5D14B4600224021204608F06CFC08B10C
:102B90000320DDE794F83900322805D084F8396045
:102BA00084F838700020D3E7222084F83900F7E752
:102BB0000220CDE77047FEE710B500F07DFBFEF781
:102BC000F7F9FEF74DFABDE81040FEF79FBA000096
:102BD00010B53522144915A008F042FE08F06AFD30
:102BE000FEF79CFA00F04AFB08F010FE00F0C6FA6F
:102BF000FDF7CCFF4FF4E13008F074FA55220A4992
:102C000013A008F02DFE002002F09CFB164800687F
:102C10000168012088473C23BDE810405A22024940
:102C200012A008F01DBE0000A1FD00085B25733A4C
:102C30002564235D737461727420496E69745F4208
:102C40006F6172645F436F6E6669672E200D0A00C4
:102C50005B25733A2564235D696E69742073636133
:102C60006E2E200D0A000000E80200205B25733A5A
:102C70002564235D5B43616D656C5D2C70726F74C0
:102C80006F636F6C2073697A653A25640D0A0000E2
:102C90002DE9FF414A4C82B01F46A07890460E466F
:102CA00018B1002006B0BDE8F0810125A57040F6FE
:102CB000FF70ADF8040000F003FB4248606035226D
:102CC000414942A008F0CCFD45A1606807F068FDCD
:102CD000034639223C4945A008F0C2FD4A48012F6D
:102CE0000BD00221022F0AD005704170032FA06083
:102CF00009D0002060700120D4E7057000E0017069
:102D0000A060657000E06170606804F0A4FD034697
:102D10005D222D493DA008F0A3FD00966A462521BD
:102D2000606807F091FF6A462521606807F056FF4A
:102D3000642225493CA0009B08F092FDCDF800805C
:102D40006A462621606807F07FFF6A462621606890
:102D500007F044FF6B221C493CA0009B08F080FD5B
:102D600002AA3721606807F06FFF02AA3721606866
:102D700007F034FF9DF80830712213493CA008F099
:102D80006FFDD4E901010AF0B5FB05460346762242
:102D90000D493FA008F064FD606878220A49037875
:102DA00044A008F05DFD60680178022904D101AA01
:102DB000532107F049FF0546FEF7ACF9284671E7B5
:102DC000FC020020300B0020FAFF00085B25733A5C
:102DD0002564235D73746172742E200D0A00000057
:102DE000746D723A2F2F2F636F6D31005B25733A2C
:102DF0002564235D637265617465207265743A258C
:102E000064200D0A00000000801500205B25733A45
:102E10002564235D636F6E6E656374207265743A1A
:102E20002564200D0A0000005B25733A2564235DAC
:102E30002A2A2A2A2A2A2A2052656164506F776535
:102E40007264626D3A2564200D0A00005B25733AB6
:102E50002564235D2A2A2A2A2A2A2A20577269747D
:102E600065506F77657264626D3A2564200D0A00C3
:102E70005B25733A2564235D2A2A2A2A2A2A2A20D6
:102E8000726567696F6E3A2564200D0A00000000C4
:102E90005B25733A2564235D2A2A2A2A2A2A2A20B6
:102EA00067616E74656E6E614C6973743A25642057
:102EB0000D0A00005B25733A2564235D7265616429
:102EC00020747970653A2564200D0A0070B50546B6
:102ED00000210220FEF7EAFA094C002120600220BE
:102EE000FEF7F8FA60600020FEF762F9FEF752FA8A
:102EF00002F04FFB2846BDE87040FEF779B80000AD
:102F0000D802002018B500F52D7490F8AC120022FC
:102F100001230520182913D0192911D0202913D0F5
:102F200030291CD0FF218DF800108DF801108DF88C
:102F300002108DF80310694620460CF009FF18BDF9
:102F40008DF8003023210DE08DF800300B208DF836
:102F500001008DF8022014208DF80300EBE78DF8B6
:102F6000003009218DF801108DF80220F4E738B502
:102F700000F52D7290F8AC1201200723182919D002
:102F8000192917D00024022520291ED0302923D04A
:102F9000FF208DF800008DF801008DF802008DF8FB
:102FA000030000216B46505C5C5CA0421DD24FF0D8
:102FB000000038BD8DF800004FF021018DF80110A0
:102FC0008DF802008DF80330EBE78DF800004FF02C
:102FD00009008DF8010003E08DF800008DF8013044
:102FE0008DF802408DF80350DBE704D801F10101B0
:102FF00089B20429D7D3012038BD7047002070471B
:10300000002070470020704770B5002402230D4A4D
:1030100021460320FDF72AFD4FF448750320641C68
:1030200000F012F808B1AC4208DB01210320FDF7E3
:10303000F3FCBDE87040032000F006B80A2009F058
:103040007DFEEBE76067010008F04CBC2DE9F04124
:10305000444C0020444D2080A0704FF4004128468D
:10306000FEF73EFC2178414E084320700121304696
:10307000FEF736FC217841EA4000207002213046FC
:10308000FEF72EFC21783A4F41EA80002070802123
:103090003846FEF725FC217841EAC0002070A915CA
:1030A0003846FEF71DFC217841EA001020706915B2
:1030B0003846FEF715FC217841EA401020702915AA
:1030C0003846FEF70DFC2178EE1441EA801020709E
:1030D00031463846FEF704FC217841EAC0102070E2
:1030E00020212448FEF7FCFB6178234F08436070E1
:1030F00001213846FEF7F4FB617841EA4000607038
:1031000002213846FEF7ECFB617841EA80006070EE
:1031100004213846FEF7E4FB617841EAC0006070A4
:1031200031462846FEF7DCFB617841EA001060700A
:10313000A9142846FEF7D4FB617841EA401060707C
:1031400069142846FEF7CCFB617841EA8010607074
:10315000F1002846FEF7C4FB617841EAC0106070B8
:10316000BDE8F081B2010020001C014000200140B8
:103170000018014000100140000C0140F0B530483B
:1031800085B0816941F480718161816901F4807148
:103190000491816941F040018161816901F0400140
:1031A0000491816941F080018161816901F08001B0
:1031B0000491816941F010018161816901F0100180
:1031C0000491816941F0080181618069032400F064
:1031D0000800049007200025022603948DE8610072
:1031E00069461848FEF786FA202003948DE86100AE
:1031F00069461548FEF77EFA4FF4786003948DE82F
:10320000610069461148FEF775FA4FF4384003949F
:103210008DE861000E4F69463846FEF76BFA700381
:1032200003948DE8610069463846FEF763FA8DE83D
:103230007000694607480394FEF75CFA05B0F0BDDC
:1032400000100240000C0140001001400018014035
:10325000001C01400020014070B5074D04212846A4
:10326000FEF73EFB044608212846FEF739FB44EAF8
:103270004000C0B270BD0000001801400C4800B50D
:10328000816985B041F0400181618069694600F043
:10329000400004900C20009000200190012002903A
:1032A000032003900348FEF725FA05B000BD000097
:1032B00000100240001801404FF4165007F08ABD7C
:1032C0004FF4E13007F032BD034A01EB011102EB8C
:1032D00041012222FCF757BF2C14002010B50446F0
:1032E00000F00AF810B10021217010BD01490978E1
:1032F000FAE70000FC0200202DE9F041A2B0002412
:10330000FFF7DEFF4FF47A703B4D0090052369789C
:103310003A48AA6802F003FA384A2121686807F09F
:1033200093FC03469822364936A008F099FA9B226E
:1033300033493DA008F094FA00224FF4FA7168680E
:1033400006F094FD03469F222D493FA008F088FA1D
:10335000686804F005FC80460346A322284942A081
:1033600008F07EFAFDF71EFD244E383606F5557737
:1033700036E0A922224946A008F072FA1F4968687F
:10338000383104F03BFB80460346AD221C4947A080
:1033900008F066FA194816F83F1F01AA383007F0FE
:1033A000E7F93078009001ABB222154947A008F048
:1033B00057FA04EB0410012107F8101016F83F1912
:1033C000202902D9202186F83F10CAB207EB40001D
:1033D0000A4980F821203831401CFCF7D4FE641CD7
:1033E000686804F0BDFB0028C3D02C70FDF792FE86
:1033F00022B04046BDE8F081FC020020A010002071
:103400000A0001085B25733A2564235D2A2A2A2ACB
:103410007265616420706C616E3A7265743A3078DE
:1034200025780D0A000000005B25733A2564235DB2
:103430002A2A2A2A20737461727420544D525F72B2
:103440006561642E0D0A00005B25733A2564235DD7
:103450002A2A2A2A20726561643A7265743A3078A1
:1034600025580D0A000000005B25733A2564235D92
:103470002A2A2A2A20544D525F6861734D6F726563
:10348000546167733A7265743A307825580D0A00B2
:103490005B25733A2564235D7374617274206E65D5
:1034A0007874207461672E200D0A00005B25733A42
:1034B0002564235D6765744E6578745461673A725C
:1034C00065743A307825780D0A0000005B25733A60
:1034D0002564235D4550433A25732025640D0A0079
:1034E00070B500240220FFF7AFFD4FF4FA5520B964
:1034F0002A460021042000F041F90120FFF7A4FD35
:1035000020B92A460021032000F038F90F20FFF7E8
:103510009BFD28B949F640420021012000F02EF918
:103520000220FFF791FD08B94FF080640120FFF7FA
:103530008BFD08B944F000740F20FFF785FD08B932
:1035400044F08074204670BD10B500240720FFF7BA
:103550007BFD28B94FF416620021072000F00EF918
:103560000720FFF771FD08B94FF00064204610BD39
:1035700070B590B014460025039151220F95CDE906
:1035800001201E460FAA3C21684600F027F80028BB
:1035900008D10F9840B19DF80D00029921609DF867
:1035A0000C10317010B070BD01202560FAE700B535
:1035B00091B000220F9203915222CDE901200FAA6F
:1035C0003C21684600F00AF8002803D10F9818B192
:1035D0009DF8080011B000BD0120FBE72DE9F04F78
:1035E00089468BB09346054600F110014FF0000864
:1035F00014262C226846FCF7C6FD95E80F0009F05A
:103600001BFA0D2185F838100A2185F83910AA21F6
:103610002970DD21697085F83400000A85F83500CD
:1036200007F037FD1B4F0024494628463C6007F051
:10363000CBFDA246B9464C462820D9F8007009F0C7
:103640007DFB246884B1A7420AD13C2C08D01F22FC
:10365000114912A008F004F94FF00108C9F800A0C0
:10366000A74201D13C2C0ED0761EE4D14FF00108C8
:103670002F22094912A008F0F3F807F007FD0BB05C
:103680004046BDE8F08F5946284607F083FDC9F84B
:1036900000A0F2E754030020AC0001085B45525241
:1036A0004F522025733A2564235D7278206C656E35
:1036B000206973206572726F72200D0A000000008D
:1036C0005B4552524F522025733A2564235D747234
:1036D000616E73666572206572726F722021200DB3
:1036E0000A000000FEE7000070B500252C4601210D
:1036F0000220FDF707FB022000F048F94CF250369B
:10370000324601210020FDF7A5F90020FDF732FA2D
:10371000002132460846FDF79DF90020FDF72AFA00
:10372000641C052CECDB00230A4A19460220FDF735
:103730009DF90122084B0F21104601F01DFC08B134
:1037400045F08075022000F021F90020FDF758F9BE
:10375000284670BD400D0300C027090010B50024A5
:10376000054B22461021012001F006FC08B14FF460
:103770008014204610BD0000C027090070B5144613
:103780000D4600F003F9224629460020FDF762F9B4
:10379000BDE870400020FDF7EDB970B50D46144648
:1037A00006461946FDF7AEFA224629463046FFF78F
:1037B000E5FF3046BDE870400121FDF7A3BA704730
:1037C0000907090E002806DA00F00F0000F1E020DA
:1037D00080F8141D704700F1E02080F80014704755
:1037E00038B5084800244FF4FA4300880090224678
:1037F0000821042001F010FC08B14FF400342046E9
:1038000038BD00009002002038B50848002447F277
:1038100030530088009022460821042008F0AEF8BA
:1038200008B14FF40034204638BD0000900200205B
:1038300038B50848002447F23053408800902246AB
:103840000921042008F09AF808B14FF4803420468A
:1038500038BD0000900200202DE9FF4F4FF0000A14
:1038600089B002EB82008B46440099465646554685
:1038700051460220CDF820A0FDF718FE2C4F002164
:1038800038600220FDF726FE78604FF4CD7229499A
:1038900029A007F0E5FF01F04FFE1E212C48FCF7A0
:1038A00099FC20216846FCF795FCDFF8A88022E00F
:1038B00098F80000E0B140F2A1121E4926A007F0DE
:1038C000CFFF3A6808A92248904788F80060B9F10C
:1038D000000F12D0089AAA4204D11D496846FCF78D
:1038E000A5FC50B11A496846089AFCF74CFC089DA3
:1038F0000A2009F023FA641EDAD2089A052A06DDA6
:10390000921E134908920998FCF73DFC02E00896C4
:1039100001F03FFE0899CBF800104FF4DB72054927
:1039200013A007F09DFF0DB05046BDE8F08F0000DA
:10393000D80200206AFF00085B25733A2564235DE6
:103940007374617274207363616E2E200D0A00001F
:10395000100B0020A50100205B25733A2564235D30
:103960007363616E6E696E67202E2E2E200D0A0025
:103970005B25733A2564235D73746F7020736361F4
:103980006E2E200D0A00000070470000F0B5214A9D
:10399000214B56141515214C21494FF48047082816
:1039A00026D2DFE800F025040A11161A212F1D483F
:1039B0008860801588810A6004E080208A608881A0
:1039C00010200A60888013E008208A6088810B60DC
:1039D00008E08B608E810B6009E04FF400708B6013
:1039E00088810C608F8003E08C608E810C608D80FC
:1039F0000D488A6842608A8902800A6882608988E4
:103A00004180F0BD09484FF4004288608A81086017
:103A10008014D7E70020014000140140000C014051
:103A2000BC0500200010014090010020001801405A
:103A300010B5FCF7E5FDBDE810400149FCF780BC7E
:103A4000A5D4684110B50549FCF77AFC4FF07C51CC
:103A5000FCF71EFCFCF7EAFD80B210BDCCBC8C3D2F
:103A60000149886070470000180000200149086182
:103A700070470000180000200149C860704700002E
:103A80001800002010B50549FCF75AFC4FF07C5196
:103A9000FCF7FEFBFCF7CAFDC0B210BD00601F447E
:103AA00010B5FCF7ADFDBDE810400149FCF748BC7E
:103AB000679ACD3A08210148FDF712BF0014014072
:103AC0000248012201884068FDF70FBF90010020E5
:103AD0000248002201884068FDF707BF90010020DE
:103AE00072B6704762B6704704210148FDF7F8BE10
:103AF000001401402DE9F04F85B000287DD17A48AF
:103B0000816941F480718161816901F4807104915E
:103B1000816941F080018161816901F08001049136
:103B2000816941F040018161816901F040010491A6
:103B3000816941F020018161816901F020010491D6
:103B4000816941F010018161816901F010010491E6
:103B5000816941F004018161816901F004010491EE
:103B6000816941F00801816180694FF48077012407
:103B70000025009700F00800CDE90145CDE903409C
:103B80005A4E69463046FDF7B5FD012239463046AA
:103B9000FDF7ABFE80208DE83100DFF854B16946B7
:103BA00058460394FDF7A6FD012280215846FDF7F3
:103BB0009CFE08208DE83100694658460394FDF7C5
:103BC00099FD012208215846FDF78FFE49484168BA
:103BD00021F0E06141F0007141604614022000963E
:103BE000CDE90140DFF810A1694650460394FDF786
:103BF00081FD01223146504600E071E0FDF775FE7F
:103C00004FF40078CDF80080CDE901456946504673
:103C10000394FDF76FFD012241465046FDF765FE16
:103C20000096DFF8D890CDE90145694648460394EF
:103C3000FDF760FD012231464846FDF756FEE603DA
:103C40000096DFF8BC80CDE9014569464046039403
:103C5000FDF750FD012231464046FDF746FE009734
:103C6000CDE90145694658460394FDF743FD102010
:103C70008DE83100694658460394FDF73BFDA703E4
:103C80000097CDE90145694650460394FDF732FDA2
:103C9000A6020096CDE90145694650460394FDF71A
:103CA00029FD0097CDE90145694648460394FDF793
:103CB00021FD0096CDE90145694648460394FDF78C
:103CC00019FD20038DE83100694640460394FDF755
:103CD00011FD00F017F800F08DF8052009F02EF81E
:103CE00005B0BDE8F08F0000001002400010014058
:103CF000002001400000014000140140000C014080
:103D00000018014070B5012211021348FDF7EDFDC6
:103D1000124C012280212046FDF7E7FD01220821F7
:103D20002046FDF7E2FD01220D4D540321462846B1
:103D3000FDF7DBFD012251022846FDF7D6FD0122E9
:103D400021460848FDF7D1FDBDE870400122D103AE
:103D50000548FDF7CABD00000010014000200140E9
:103D600000140140000C01400018014002480122EB
:103D700041888068FDF7B9BD9001002070B5154CF1
:103D8000012211022046FDF7B0FD0122102120463C
:103D9000FDF7ABFD0122104E940321463046FDF79E
:103DA000A4FD0122950229463046FDF79EFD2146DD
:103DB0000A4C01222046FDF798FD012229462046A3
:103DC000FDF793FDBDE87040012211030448FDF7A3
:103DD0008CBD00000020014000140140000C014097
:103DE000001801400248002241888068FDF77DBD2F
:103DF0009001002070B5164C00224FF480712046CF
:103E0000FDF773FD002210212046FDF76EFD114ED7
:103E10004FF48044002221463046FDF766FD25110F
:103E2000002229463046FDF760FD21460A4C00225B
:103E30002046FDF75AFD002229462046FDF755FD94
:103E40000022A114BDE870400448FDF74EBD0000FB
:103E50000020014000140140000C01400018014006
:103E60000D480C49012201602021C16142610021FD
:103E70008160022202610722C0E90A12C1604FF488
:103E800000720162826141624FF482714160FEF70B
:103E9000A3B9000000300140CC0500202DE9F84313
:103EA00090460D460646FFF713FE00244FF4805956
:103EB0000CE001232A4631460848CDF80090FEF771
:103EC0004DFA070004D1641C6D1C761C4445F0D3E8
:103ED000FFF7F6FD3846BDE8F8830000CC0500206A
:103EE00010B50446FDF776FEA101B0FBF1F00749DD
:103EF000401E0A68D062C860096840088863BDE84F
:103F0000104004210148FEF7CBBB0000240600202E
:103F100004210148FEF7FABB2406002010B5054C29
:103F2000A068002804D001216170804700206070E3
:103F300010BD00001800002010B5FFF7BBFD08B150
:103F4000002010BD012010BD10B5FFF7CDFD08B158
:103F5000002010BD012010BD2DE9F05F3C4A8A46CB
:103F60000024917881426FD99178DFF8E8B0081A7F
:103F7000401EC4B20AF0FF01002041F02005904627
:103F80000BF10C090027464688F8007008B1FFF7CE
:103F9000A9FDB04600205E460CE031183754CF70C2
:103FA0008F714F7209F8007009EB0001401CCF704F
:103FB0008F714F7298F802108842EED35046BAF1D2
:103FC000070F2AD008DCBAF1070F15D2DFE80AF094
:103FD000142225222225250018281ED007DC0828B7
:103FE0001BD00D2819D0BAF1150F05D115E01A28EC
:103FF00013D0BAF11B0F10D0301901278571FFF7CC
:104000006FFD98F8001001200029BBD1C7F103050E
:104010004F460DE035550327F1E730190227C570EB
:10402000EDE705EB4500C119304400F0F1FE6D1CD1
:10403000042DF6D33919C8788A79000440EA02249D
:10404000487A0443FFF74EFD2046BDE8F09F00008C
:1040500018000020A40500202DE9F041234C002584
:10406000A17881423ED9A178214F081A401EC5B2DD
:104070000020804607F10C0684F8008008B1FFF7A5
:1040800031FD002012E0391807F8008081F8038024
:1040900081F8068081F8098006F800803118401CFC
:1040A00081F8038081F8068081F80980A178884230
:1040B000E9D3D0207855FFF713FD2178012000299E
:1040C000DAD1002404EB44008119384400F0A0FE4A
:1040D000641C032CF6D370198179C07841EA00255D
:1040E000FFF700FD2846BDE8F08100001800002021
:1040F000A40500200022702100F0B4BA002278212B
:1041000000F0B0BA0A46602100F0ACBA41F0680194
:1041100000F0A8BA114341F082011A4600F0A2BA99
:104120000022A82100F09EBA0022B82100F09ABA1D
:1041300041F0400100F096BA0022114600F092BA18
:10414000114341F09201002200F08CBA0022C021FC
:1041500000F088BA0022D82100F084BA41F0500162
:1041600000F080BA2DE9F05F8B46384916468A7810
:10417000824268D98A78DFF8D8A0101A401EC4B2EB
:104180000020C6F307280BF0FF058946002789F8B1
:10419000007008B1FFF7A6FC0020524605E0175456
:1041A0001118401CCF708F714F7299F8021088421D
:1041B000F5D35846BBF1070F32D008DCBBF1070F2F
:1041C00013D2DFE80BF012252D25122D2D00152816
:1041D00026D005DC082823D0BBF10D0F05D11FE048
:1041E00018281DD0BBF11A0F1AD01019012785719C
:1041F0000AEB04004672FFF773FC99F800100120E7
:104200000029C3D1124EC7F1030455460C3614E001
:10421000310C10191555C17080F806800327E7E7A7
:1042200010190227C57080F80680E1E704EB44000E
:104230008119284400F0ECFD641C042CF6D3BDE881
:10424000F05FFFF74FBCBDE8F09F000018000020B2
:10425000A40500200022A02100F004BA0022B02111
:1042600000F000BA41F05801002200F0FBB98102D1
:1042700004D5C043401CC0F3150040427047000005
:104280000249096901B10847FEE700001800002053
:1042900010B5FCF7B5F90449FBF7FAFFBDE810408B
:1042A0000249FCF74DB8000077BE7F3F00247441FF
:1042B00010B50349FCF744F8FCF7B8F980B210BD1B
:1042C000BD37863D70B50020104D014605F10C0646
:1042D000D0230F4C0BE02A182B54D17091715172DE
:1042E00031543218401CD17091715172C0B2A27811
:1042F0009042F0D3002404EB44008119284400F0DC
:1043000087FD641CE4B2032CF5D370BDA405002026
:104310001800002010B5054CE068002804D00121E9
:10432000617080470020607010BD00001800002000
:1043300070B50D4606461621FFF70EFE40F3C00489
:1043400029463046641CFFF707FE162D3FD2DFE8F2
:1043500005F03E0B3E0B13101016192C2C2C2C23A1
:10436000333535263E29291EFFF781FFFCF73FF93B
:104370002AE0FFF75DFB27E000F0C6FC24E000F038
:10438000D5F821E0C0F30B0000F0E8F81CE0C0F322
:104390000900FFF77DFF17E000F072F814E000F06D
:1043A000A0F811E000F0BAFC0EE014B100F0B4F88F
:1043B0000AE000F005FD07E03CB100E014B1FFF7B2
:1043C0006FFB01E000F0CEFC0646304670BDFCF706
:1043D00017F9F9E7084A0146002093788B4209D97A
:1043E0009078401A401E0549C0B208448179C078CF
:1043F00041EA00207047000018000020B0050020AE
:10440000004870470005010010B50321FFF7A4FD27
:10441000BDE81040FFF72BBF004870472C0000207C
:1044200001488078704700001800002010B5012175
:10443000FFF792FDBDE81040FFF719BF064810B521
:104440000079FFF757FBFFF70BFDFFF797FCBDE87F
:104450001040052008F072BC1800002010B550B1C3
:104460000146002000F048FA0020FFF759FEBDE8A1
:104470001040FFF727BF002000F076FBF4E70000B4
:1044800010B5FCF7BDF8BDE810400149FBF758BF77
:10449000D923743D10B50549FBF752FF4FF07C510D
:1044A000FBF7F6FEFCF7C2F880B210BDBD378641BF
:1044B00010B5FFF7D1FD800701D4012010BD002009
:1044C00010BD10B54FF07E51FBF734FF0521FBF70F
:1044D00069FF4FF07C51FBF7DBFEFCF7A7F8C0B299
:1044E00010BD10B5FCF78CF86FF00401FBF75AFF14
:1044F000BDE810404FF07E51FBF7CABE10B505492C
:10450000FBF71EFF4FF07C51FBF7C2FEFCF78EF865
:10451000C0B210BD0AD7234010B5FCF771F8BDE852
:1045200010400149FBF70CBF0000C83E10B5FCF776
:1045300067F8BDE810400149FBF702BF0024744151
:1045400010B50549FBF7FCFE4FF07C51FBF7A0FED0
:10455000FCF76CF880B210BDBD37863D10B5FCF796
:104560004FF8BDE810400149FBF7EABE0024743E55
:1045700010B50549FBF7E4FE4FF07C51FBF788FED0
:10458000FCF754F880B210BDBD378640144B10B50F
:104590009C7884421AD99B78124C181A401EC3B2D8
:1045A00001F0FA00682812D006DC40280FD050280D
:1045B0000DD0602804D10AE0822808D08A2806D0CD
:1045C0000022E018E254C2708271417210BDE154C1
:1045D000E018110CC170110A8171427210BD000007
:1045E00018000020A40500200148808870470000C2
:1045F0001800002010B51B21FFF7AEFC80B210BDE3
:10460000FFF7B4BBFFF7EEBB70B50546082927D20C
:10461000DFE801F00406080A0C0E101200240CE07A
:1046200001240AE0022408E0032406E0042404E054
:10463000052402E0062400E007242846FFF770FD69
:1046400016212846FFF788FC00F0F80222431621C5
:104650002846FFF787FD2846FFF77CFD012070BD47
:10466000002070BD2DE9F05F0E46304914468A786F
:10467000824258D98A784FF00009101A401EC5B2FC
:104680004846CB468A46D84657468AF800B008B115
:10469000FFF728FA4246B8460020254F05E03A5475
:1046A0003918401CCA708A714A7298F80210884200
:1046B000F5D306F0FA0068281CD006DC40281BD091
:1046C000502819D0602804D114E0822814D08A28F8
:1046D00012D078197A55C27082714672FFF700FACB
:1046E00098F8001001200029CDD1114DC9F1030423
:1046F0000C3512E0C4F3150478197E55210CC170F5
:10470000210A817144724FF00309E7E704EB44008A
:104710004119384400F07CFB641C042CF6D3BDE83E
:10472000F05FFFF7DFB9BDE8F09F00001800002040
:10473000A405002070B5074D0024A5F10C0604EB7C
:1047400044004119304400F063FB641CE4B2042CC3
:10475000F5D370BDB00500202DE9F0410E46154699
:10476000804601241621FFF7F7FB40F3C000594AA9
:10477000401C954204D3012E02D0032E00D0002409
:104780005549162E22D2DFE806F021290B29213DBA
:104790003D444B7D7D7D7D678B8E8E6E2177775876
:1047A0004E48854212DC15F0FF4F11D01621002033
:1047B000FFF7D2FB00F00700C0F10701012088409D
:1047C000FBF715FF2946FBF761FF01D2002477E0D4
:1047D0002846FBF72BFFC0F308026CE04FF40017EC
:1047E000954207D385F00040FBF720FFB842EDD893
:1047F000404204E02846FBF719FFB842E6D2C0F376
:10480000150258E036488542E0DC2846FFF71AF9E1
:1048100050E034488542D9DC2846FFF791FE49E054
:1048200031488542D2DC31464046FFF795FB00F423
:1048300080572846FFF79CFE0BE02C488542C5DCDC
:1048400031464046FFF788FB00F480672846FFF7B3
:104850002FFD47EA00022EE025488542B6DC2846B7
:10486000FFF718FE26E0A5F17E50B0F5701FADD819
:104870002846FFF726FE1DE08D42A7DC284600F003
:1048800059FA17E030B1B5F5000F9FDA2846FFF767
:1048900035FE0FE08D4299DC284600F07DFA09E0F4
:1048A000002893D000E070B1124885428EDC284683
:1048B000FFF7E8F802461CB131464046FFF752FCCC
:1048C0002046BDE8F081B5F1854F9DDC284600F01B
:1048D00053FAEFE70000808000007A440080FF4335
:1048E00000C6684700E873463313744400247446D6
:1048F00000207444CDCCCC3E70B50C460546002259
:104900000121FFF72FFC002202212846FFF72AFC95
:10491000002203212846FFF725FC6068FFF792F884
:10492000024605212846FFF71DFCA068FFF78AF81C
:10493000024606212846FFF715FCE068FFF700FE57
:10494000024607212846FFF70DFC2069FFF7F8FD16
:10495000A18A40EA010208212846FFF703FCA0696A
:10496000FFF7A6FCA18B40EA010215212846FFF7BC
:10497000F9FB206A00F0DEF9024613212846FFF712
:10498000F1FB94F8252020781621024394F82400A6
:1049900002432846FFF7E6FB94F826201721284615
:1049A000FFF7E0FB94F8272094F82A00A18D02433A
:1049B000208D0843024318212846FFF7D3FB94F8C3
:1049C0002E2094F82F00192102432846FFF7CAFB36
:1049D000207800284DD054F8300F00F0DDF9024661
:1049E00009212846FFF7BEFB606800F0D5F90246B2
:1049F0000A212846FFF7B6FBA06800F0CDF9024671
:104A00000B212846FFF7AEFBE06800F0C5F902462F
:104A10000C212846FFF7A6FB227C607C0E21024376
:104A20002846FFF79FFB606900F0A6F902460F21B8
:104A30002846FFF797FBA06900F09EF90246102177
:104A40002846FFF78FFB227F607F94F820100243F7
:104A5000A07F08430243608C0243A08C0243E08C99
:104A60000243208D02432846BDE870401A21FFF71B
:104A700079BB206CFFF70EFD02460D212846FFF79B
:104A800071FB206DFFF71DFD024611212846FFF73F
:104A900069FB606D00F04EF9024614212846FFF7CD
:104AA00061FB206BFFF72AFD024609212846FFF72C
:104AB00059FB606BFFF722FD02460A212846FFF7EB
:104AC00051FBA06BFFF71AFD02460B212846FFF7AA
:104AD00049FBE06BFFF712FD02460C212846FFF769
:104AE00041FB606CFEF7CEFF02460E212846FFF721
:104AF00039FBA06CFEF7C6FF02460F212846FFF7E0
:104B000031FBE06C3C34FEF7BDFF02461021284625
:104B1000FFF728FB227F607FE17F0243A07F0843ED
:104B20000243208C0243608C0243A08C0243E08C41
:104B300098E770B50D4604460121FFF70DFA421BB8
:104B40002046BDE870400121FFF70CBB0A46032157
:104B5000FFF708BB032803D802498870012070477B
:104B600000207047180000202DE9F14F002201219C
:104B70000098FFF7F7FA002202210098FFF7F2FAF7
:104B8000002203210098FFF7EDFA574E574FDFF848
:104B90006081DFF86091DFF860B1584C584D0098A3
:104BA0004FF07E5A18B1012801D002287ED130463C
:104BB000FEF748FF024605210098FFF7D3FA30467A
:104BC000FEF740FF024606210098FFF7CBFA384671
:104BD000FFF7B6FC024607210098FFF7C3FA002052
:104BE000FFF7C6FC024608210098FFF7BBFA4046D3
:104BF000FFF75EFB024615210098FFF7B3FA082283
:104C000013210098FFF7AEFA042216210098FFF74F
:104C1000A9FAEF2217210098FFF7A4FAC32218215E
:104C20000098FFF79FFA402219210098FFF79AFA9F
:104C30004846FFF72FFC02460D210098FFF792FA35
:104C40005046FFF73EFC024611210098FFF78AFA12
:104C5000584600F06FF8024614210098FFF782FAD8
:104C60002046FFF74BFC024609210098FFF77AFA2D
:104C70002046FFF743FC02460A210098FFF772FA2C
:104C80002046FFF73BFC02460B210098FFF76AFA2B
:104C90002046FFF733FC02460C210098FFF762FA2A
:104CA0001848FEF7EFFE02460E2100E01AE00098D9
:104CB000FFF758FA2846FEF7E5FE02460F21009856
:104CC000FFF750FA2846FEF7DDFE02461021009855
:104CD000FFF748FA0098BDE8F84F42F608621A213B
:104CE000FFF740BABDE8F88F008011440000484447
:104CF0000000C8434A0C764200D004440000204122
:104D0000751F803D2D431C3D10B5FBF779FCBDE8B8
:104D100010400149FBF714BB0024743C10B5401C43
:104D2000FBF76EFCBDE810400149FBF709BB000032
:104D30000000FA4110B50749FBF7FCFA0649FBF7FA
:104D4000FFFA4FF07C51FBF7A3FAFBF76FFCC0B200
:104D500010BD00000000FA416F12033DFFF7C0B81C
:104D6000FFF7D6B810B5401CFBF74AFCBDE8104071
:104D70004FF0FF31FBF716BB10B54FF07C542146C6
:104D8000FBF7D8FA0121FBF70DFB2146FBF780FA70
:104D9000FBF74CFCC0B210BD10B50749FBF7CAFACF
:104DA0000649FBF7CDFA4FF07C51FBF771FAFBF7A0
:104DB0003DFCC0B210BD00000000FA406F12033E7F
:104DC00010B5401CFBF71CFCBDE810400149FBF787
:104DD000B7BA00000000FA4070B5084E00252C4616
:104DE00005E02046FFF764FB0543641CE4B2B0789D
:104DF0008442F6D3002DF1D170BD000018000020D0
:104E000010B504462046FFF753FB0028FAD110BD29
:104E100010B5054CA278FFF741F86078002801D062
:104E20000120207010BD00001800002070B5002483
:104E30000620FEF7ABFD0021124A0846FBF70AFEEA
:104E40004FF4E1750620641CFEF7FEF828B1AC4271
:104E500014DB0020FBF7D4FD0BE00020FBF7D0FDB6
:104E6000002144F620620846FBF7F4FD0020FBF722
:104E700081FEBDE870400620FEF7E6B80A2007F084
:104E80005DFFDFE78038010070B500240520FEF7E4
:104E90007DFD002141F270720846FBF7DBFD4FF407
:104EA000E1760420641CFEF7CFF8050005D0B4427B
:104EB00011DB0020FBF7A4FD0BE00020FBF7A0FDB9
:104EC000002144F620620846FBF7C4FD0020FBF7F2
:104ED00051FE284670BD0A2007F030FFE1E70000D0
:104EE0002DE9FC41002200928DF80420032001AB43
:104EF0006A4600F0E9F9174C50B99DF80400607556
:104F00000098B0F5487F02D9B0F57A7F00D12060D3
:104F1000FEF7A2F920750F20FCF7B4FB074610201E
:104F2000FCF7B0FB06461120FCF7ACFB054612204F
:104F3000FCF7A8FB41F288318F4200D267608E42B5
:104F400000D2A6608D4200D2E560884200D2206186
:104F5000BDE8FC81E819002010B518210348FBF7D3
:104F600039F903480021016010BD0000E819002054
:104F700058030020002070472DE9F041002490469E
:104F80000E4605460B2802D10021FBF7BBFE164F4B
:104F9000E8B2FEF7FBFC3A4641460020FBF75AFD1B
:104FA00041F65837F0B2641CFEF74EF870B1BC42BF
:104FB0000EDB01244FF428720C490DA006F050FCC2
:104FC0000020FBF71DFD0B2D06D009E00024F7E7BC
:104FD000012007F0B3FEE5E701210B20FBF792FE6D
:104FE0002046BDE8F081000080841E0053FE0008CA
:104FF0005B4552524F522025733A2564235D6D6FF5
:10500000746F72206E6F2066696E64206C696768C9
:1050100074200D0A000000002DE9F0470024DDF89F
:10502000209090460E4605460B2802D10021FBF742
:1050300069FE174FE8B2FEF7A9FC3A464146002048
:10504000FBF708FD41F65837F0B2641CFDF7FCFF92
:1050500070B1BC4211DB012440F2C6220D490EA002
:1050600006F0FEFB0020FBF7CBFC0B2D09D00CE07B
:105070000024484607F062FEF4E7012007F05EFED8
:10508000E2E701210B20FBF73DFE2046BDE8F0875B
:1050900080841E0068FE00085B4552524F52202556
:1050A000733A2564235D6D6F746F72206E6F206696
:1050B000696E64206C69676874200D0A0000000046
:1050C0002DE9F0410F461C46164605460699FBF7AA
:1050D00019FE2346324639462846FFF74DFF04465F
:1050E00001212846FBF70EFE2046BDE8F081002096
:1050F0007047704738B50225002444F6206301222A
:10510000294604200095FFF7DBFF00B16C06012261
:1051100049F64043114603200095FFF7D1FF08B13F
:1051200044F000740122054B0F211046FFF724FFC5
:1051300008B144F08074204638BD0000C027090043
:1051400010B5072100244FF4FA5301220846FFF757
:1051500013FF08B14FF00064204610BD10B5104C8D
:105160000E48022120604FF4827060600020A06031
:10517000C4E90301012161614902A1612021C4E95F
:1051800007106062A0620720E0622046FDF724F865
:105190002068016841F04001016010BD003C004002
:1051A000D018002001B582B04FF47A70009001232E
:1051B00001AA02A90248FDF7D1F89DF804000EBD2E
:1051C000D01800200B4A10B511680B6823F040037B
:1051D0000B6011680B684FF6C77423400B601168B1
:1051E0000B6803430B601068016841F040010160E7
:1051F00010BD0000D01800202DE9F0410E460746F2
:10520000154698460021184600F03AF9002404E0BB
:10521000385DFFF7C7FF3055641CAC42F8DB4046F1
:10522000BDE8F041012100F02BB92DE9F0471D4602
:1052300090460F460446FCF75DFB06465FEA080011
:105240004FF000084FF4005A4FF0010926D034E027
:10525000681C23D025B1FCF74DFB801BA8421DD94B
:105260002068416821F0E00141602068016821F078
:1052700040010160A06A504509D12068016821F40D
:10528000005101602068016841F40051016084F818
:10529000519084F850800320BDE8F0872068806832
:1052A00037EA0000D4D10DE0681C06D0002DD7D01D
:1052B000FCF720FB801BA842D2D82068806837EA20
:1052C0000000F1D00020E7E770B50546204665F301
:1052D0000700FEF74DF9040004D02222024903A082
:1052E00006F0BEFA204670BD050101085B4552522A
:1052F0004F522025733A2564235D6661696C200D49
:105300000A00000010B50346104663F30700FEF7DD
:105310004EF9040004D01322024903A006F0A0FABB
:10532000204610BDD10001085B4552524F52202546
:10533000733A2564235D6661696C200D0A000000E4
:1053400070470000054928B1012802D101F10C0085
:105350008860704701481430FAE70000E00200203E
:105360002DE9F04782466420A2B002FB00F400273A
:1053700088463E46F2221F491FA0209706F070FA89
:10538000234DDFF890902E70C9F80060FDF794FF70
:1053900000F0A2F80BE0287830B11F4A2E7020A947
:1053A00012686846904704E00A2007F0C7FC641EB4
:1053B000F1D2209A42B169465046FAF7E4FE2098AD
:1053C000401EC8F8000008E04FF0FF37C8F8006042
:1053D000FBF746FE2E70C9F8006040F20F12054937
:1053E0000EA006F03DFAFBF791FE22B03846BDE86C
:1053F000F0870000EAFF00085B25733A2564235D0F
:105400007374617274207363616E200D0A00000072
:10541000C1020020C4020020E00200205B25733A94
:105420002564235D656E64207363616E200D0A0040
:105430000023024A19460220FBF718BB400D030067
:105440000A4910B50122C1E90102A0F26310FBF77D
:10545000DCF8074A074BFBF758F80022064BFBF72E
:1054600051F8FBF7F7F80549086310BD98020020D2
:105470005C8FC2F5285CEF3F000079409009002066
:105480000A4A0A2808D00B2809D00C280AD00D286F
:1054900001D1C2F8B4117047C2F8A8117047C2F820
:1054A000AC117047C2F8B0117047000000002442F0
:1054B000084A0F2807D0102807D0112807D0122833
:1054C00000D1D160704711607047516070479160A2
:1054D00070470000B80100201CB54C208DF800007A
:1054E0004F208DF801004E208DF802000D208DF820
:1054F00003000A208DF80400FBF75AFD064A052137
:10550000684652689047642007F018FCC52203499A
:1055100003A006F0A5F91CBDE0020020D4FF00089E
:105520005B25733A2564235D5343414E2053544118
:1055300052540D0A0000000010B5FBF735FF0120A2
:10554000FBF79AFEBDE81040FBF7ECBE30B58FB01C
:10555000012100910225090400240795CDE90114D9
:10556000CDE908106846FCF779FB00B1FEE70F2093
:10557000CDE90A054FF48060CDE90C4002210AA86C
:105580000E94FCF731FA002800D0FEE70FB030BDD2
:10559000704710B5FBF708FF04460020FBF76CFED0
:1055A000FBF7C0FE204610BD00207047002070476A
:1055B000401EB0F1807F01D3012070474FF0E02101
:1055C0004861054AF02082F8140D00208861072008
:1055D00008610020704700000FE000E0FCF790B980
:1055E0000D48016841F00101016041680B4A11401A
:1055F000416001680A4A11400160016821F480217C
:105600000160416821F4FE0141604FF41F01816097
:105610000449C00308607047001002400000FFF812
:10562000FFFFF6FE08ED00E010B50A4C2068C068E8
:10563000C043C00709D1084800698047216800209D
:10564000486221686420C862E06021686FF0010050
:10565000086110BD001A00209C030020084908685A
:10566000C268D243D20705D142620A6842F20F7083
:10567000D062C86009686FF00100086170470000DF
:10568000E0070020F0B502681A4D1B4E1B4FDFF8F3
:1056900070C01C4B4FF0804EA84209D0984207D0F2
:1056A000704505D0B04203D0B84201D0604503D167
:1056B00022F070044A682243A84209D0984207D0D9
:1056C000704505D0B04203D0B84201D0604503D147
:1056D00022F44074CA68224302608A68C2620A687F
:1056E0008262A84201D0984201D109690163012177
:1056F0004161F0BD002C0140000400400008004062
:10570000000C00400034014010B50123046A8B40B6
:105710009C430462036A8A401343036210BD30B5A0
:105720000125039C057001824182C260037500213E
:1057300081614460C16180F8201080F8241081628A
:1057400080F82C10C186016381860172084630BD45
:1057500030B58BB00446022202703948C4F868059F
:105760003848C4F864053848C4F860050020C4F817
:10577000C80204F52071C4F8CC02C4F8D002486510
:105780008865C8654FF4E131C4F8241284F8C30277
:10579000FF2184F8AC1284F8C00284F8C10205210C
:1057A00084F8C21241F28831C4F834124FF47A718D
:1057B000C4F8381284F83C02C4F8F80284F8FD03F7
:1057C000C4F8300284F8FF2384F80104A4F8040527
:1057D000A4F80605012184F80815C4F80C0584F81E
:1057E000100584F81115042184F8121584F81305A6
:1057F00084F8140504F5A461C4F818150825A4F864
:105800001C55A4F81E0584F8400584F84105C4F829
:10581000E80220220D496846FAF7B5FCADF824509D
:10582000CDF820D0ADF8265008AA0221204605F078
:105830000BFA0BB02046BDE8304005F008BA000076
:1058400075770008DD910008658800088C00010864
:1058500070B50D4604464FF486710948FAF7BAFC54
:105860000848C4E900500848A0600848E0600848BB
:105870002061084860610848A061002070BD0000F8
:105880009415002091E700083DE8000895E700081E
:1058900059E800085DE800088DE700082DE9F04FA1
:1058A0008FB00E461899DDE9195B09788DF818104C
:1058B0009BF800101C468DF81C100027337800F56B
:1058C000E271BA464FF0010E4FF01709052B7DD05B
:1058D00006DC052B0CD2DFE803F00F2C9AD1EB008D
:1058E000062B74D0072B73D01A2B48D03B2B70D0CB
:1058F000F7480FB0BDE8F08FD369C96E03F108080F
:10590000137D9269CDE90231CDE9009207AE04968C
:10591000ABB206AA214607F06DFFD8F80030074663
:10592000002293F83F00009006A9204602F0A4FC54
:105930002EE2D66916F8083F032B01D981F84FE310
:10594000CB6E117D0DF1080807AF926988E88A00D7
:10595000CDE90092ABB206AA214607F04BFF317A9F
:1059600072680092CDE9011A0746CDF80CA0337891
:105970004FF4FA6206A9204602F062FB08E2DFF863
:10598000548388F800E0D669737D0836022B28D04E
:105990007369CB66CB6E117D0DF1080C07AF926970
:1059A0008CE88A00CDE90092ABB206AA214607F046
:1059B00021FF0746317B307A726801AB0092554671
:1059C00083E8230033784FF4FA6203E08AE0A9E029
:1059D000CAE0E7E006A9204602F032FB88F8005052
:1059E000D6E196F8303063F3070796F8313063F369
:1059F0000F27738E4FEA132C6CF31747DBB263F358
:105A00001F673FBA27F0FF071F43CF66C2E7D6697B
:105A1000137DC96E9269CDE90231CDE9009207AFDD
:105A20000497ABB206AA2146083607F0E3FE716878
:105A3000CDE9001A07463378002206A9204602F075
:105A400051FB002016E0B1689DF8182031F81010C5
:105A5000090AA1549DF81810491CC9B28DF81810F4
:105A6000B26812F8102062549DF81810491C8DF885
:105A70001810401CF1898142E5DC89E1D669137D6B
:105A80009269F168CDE90092CDE9023107AF049740
:105A9000ABB206AA214607F0ADFE7189CDE9001A26
:105AA00007463389002206A9204602F099FB6FE1E0
:105AB000D36902AF03F10808CB6E117D07AE92697E
:105AC00087E84A00CDE90092ABB206AA214607F06A
:105AD00091FE0746002206A92046D8F8003002F0C1
