:020000040800F2
:10000000D024002045010008633600082F2A00088C
:10001000893500081D0B000839B6000800000000F3
:100020000000000000000000000000000552000871
:100030002F0F00080000000035380008B1540008F8
:100040005F0100085F0100085F0100085F01000810
:100050005F0100085F0100083D0F0008410F000824
:10006000430F0008490F00085F0100085F01000806
:100070005F0100085F0100085F0100085F010008E0
:100080005F0100085F0100085F0100085F010008D0
:100090005F0100085F0100085F0100084F0F0008C2
:1000A0005F0100085F0100085F0100085F010008B0
:1000B0005F010008FD5400083D5500085F0100087D
:1000C0005F0100085F0100085F0100085F01000890
:1000D0005F01000829B3000855B300083DB40008CB
:1000E0003F0F00085F0100085F0100085F01000882
:1000F0005F0100085F0100085F0100085F01000860
:100100005F0100085F0100087D5500085F010008DD
:1001100089AD0008D9AE00085F0100085F01000842
:100120005F0100085F0100085F0100085F0100082F
:10013000DFF80CD000F09CFB0048004785D7000892
:10014000D02400200648804706480047FEE7FEE727
:10015000FEE7FEE7FEE7FEE7FEE7FEE7FEE7FEE777
:10016000B554000831010008202A04DB203A00FAC7
:1001700002F1002070479140C2F1200320FA03F3FE
:1001800019439040704710B5431A934209D283181F
:10019000881803E010F8011D03F8011D521EF9D262
:1001A00010BD40EA01039B0703D009E008C9121FF4
:1001B00008C0042AFAD203E011F8013B00F8013B21
:1001C000521EF9D210BDD2B201E000F8012B491E37
:1001D000FBD270470022F6E710B513460A460446E4
:1001E0001946FFF7F0FF204610BD10B5044604E0A5
:1001F0000B7800F8013B03B1491C521EF8D220468F
:1002000010BD421C10F8011B0029FBD1801A704759
:1002100010B5002200E0521C835C8C5CA34201D12B
:10022000002BF8D1D8B2E1B2401A10BD30B5054666
:100230000020034600E05B1C934205D2EC5CC85CE6
:10024000201A01D1002CF6D130BD000070B50F4D41
:1002500000B92868002412E00A4602E09E4203D05A
:10026000521C1378002BF9D1DAB2224305D02BB1FE
:1002700024B1002100F8011B04E00446401C06786C
:10028000002EE9D12860204670BD000084030020C4
:10029000F0B480EA0102D40F4200B2EB410F02D267
:1002A0000246084611464A0042D0C30DDDB2C1F3F2
:1002B000C752AD1A202D35DAC1F3160141F4000200
:1002C00004B15242C5F1200602FA06F12A41104457
:1002D000B3EBD05F23D0C4B1012DA0EBC35009DC38
:1002E000F0BC4FF0004202EAC352DBB200F500005E
:1002F00000F032BA400000F1807000EBC350A0F172
:10030000807040EAD170490009E0490841EAC071B3
:10031000A0EBC35000F50000400800EBC350F0BC58
:1003200000F011BA6142012202EB4101001BF6E725
:10033000F0BC704781F00041AAE780F00040A7E7D9
:1003400080EA010210B502F00043400022D04A00CA
:100350001FD0010E01EB1261C0F35600C2F356022A
:1003600040F4000042F40002A0FB022000047F39A8
:10037000140400D0401C50EA124001D44000491E31
:10038000C2B20C0604EBD010401C4008802A02D0F8
:1003900003E0002010BD20F00100002900DA002059
:1003A000184310BD420005D0C0F3C75252429142DB
:1003B00001DC0020704700EBC15070472DE9FE4F73
:1003C000804681EA0300C00F0C46009021F00041F6
:1003D00023F00045B8EB0200A94105D24046214672
:1003E00090461C460B46024623F00040104347D07F
:1003F000270DC7F30A00C3F30A510290401A019077
:1004000040286BDAC3F3130040F4801B0098924637
:1004100020B10023D2EB030A63EB0B0B0198594682
:10042000C0F140025046FFF79FFE06460D4650467B
:100430005946019A00F075F910EB0800614100245B
:1004400087EA115284EAE7731A4340D0009A62B3F4
:10045000019A012A4FEA075215DC001B61EB0201E9
:100460004FF0004202EA0752CDE90042001C41F57C
:10047000801132462B4600F0ACF903B0BDE8F08F96
:1004800040462146F9E7001B61EB0201001C41F5E3
:10049000801300185B412018A2F5001747EB0301F9
:1004A00040EAD570B6196D4111E06D084FEA360685
:1004B00045EAC0754FEA0752001B61EB0201001CC0
:1004C00041F5801149084FEA300000195141324688
:1004D0002B4603B0BDE8F04F00F06CB90098012244
:1004E00040000023D0EB020263EBE073009821464A
:1004F0004FEAE074B8EB000061EB0401E9E783F038
:1005000000435BE781F0004158E72DE9FE4F81EAA7
:10051000030404F0004421F0004100944FF0000B6C
:1005200023F0004350EA01045ED052EA03045BD09A
:10053000C3F30A54C1F30A552C44A4F2F3340194D2
:10054000A0FB0254C1F3130141F48011C3F3130360
:1005500043F4801301FB024400FB034E840A970A14
:1005600044EA815447EA8357A4FB076802958D0A41
:1005700005FB07854FEA932C04FB0C542705029DCD
:100580004FEA065847EA1637B5EB08056EEB070C3D
:10059000870E920E47EA811742EA8312A7FB0201F7
:1005A000B6EB0B0164EB00042B0D43EA0C335E1831
:1005B00044EB1C50DA465146E7FB0201C5F3130435
:1005C0004FEA0B3343EA14534FEA0432019C43EAE7
:1005D0000603A4F10C040294009CCDE900B400F0E1
:1005E000F8F803B0BDE8F08F00200146F9E7C10F2D
:1005F00080EAE0700844CA079623002100F0ACB8F6
:1006000096230022114600F0A7B80EB5C10F80EA6C
:10061000E0700844CA07002140F233438DE80E0021
:100620000A460B4600F0D5F803B000BD20F00040AC
:10063000C10DC0F3160040F400007F2901DA00204C
:100640007047962903DCC1F19601C840704796397E
:100650008840704701F0004330B421F0004150EA77
:10066000010206D00A0DA2F56072C1F31301002A3F
:1006700002DC30BC00207047440F44EAC104C100D2
:10068000E01830BC00EBC25000F05DB8002801DB80
:10069000C0F10040002901DBC1F1004188427047F0
:1006A0002DE9F05F0546002092469B4688460646A7
:1006B000814640241BE0284641464746224600F03A
:1006C00020F853465A46C01A914110D31146184695
:1006D0002246FFF749FD2D1A67EB01084F462246D7
:1006E00001200021FFF740FD17EB00094E41201EBD
:1006F000A4F10104DFDC484631462A464346BDE802
:10070000F09F202A04DB203A21FA02F000217047F2
:1007100021FA02F3D040C2F1200291400843194669
:100720007047202A06DBCB17203A41FA02F043EA51
:10073000E07306E041FA02F3D040C2F1200291409A
:100740000843194670470029A8BF7047401C49005C
:1007500008BF20F00100704710B4B0FA80FC00FA26
:100760000CF050EA010404BF10BC704749B1CCF151
:10077000200421FA04F411FA0CF118BF01212143DD
:100780000843A3EB0C01CB1D4FEA00614FEA102098
:1007900042BF002010BC704700EBC350104400293A
:1007A000A4BF10BC7047401C490008BF20F00100E6
:1007B00010BC704710B5141E73F1000408DA401C19
:1007C00041F1000192185B411A4301D120F0010070
:1007D00010BD2DE9F04D92469B4611B1B1FA81F260
:1007E00002E0B0FA80F220329046FFF7BDFC0446EA
:1007F0000F4640EA0A0041EA0B0153465A460843B5
:1008000013D0114653EA010019D0C8F140025046F6
:10081000FFF777FF05460E46504659464246FFF71A
:10082000A3FC084305D0012004E020463946BDE87A
:10083000F08D0020054346EAE0762C4337430A98C2
:100840006305E40AA0EB08000022FD0A44EA4754CD
:100850000A3002D500200146E9E701051019694177
:10086000DDE9084500196941BDE8F04DA2E7000047
:10087000064C074D06E0E06840F0010394E80700ED
:1008800098471034AC42F6D3FFF756FC38F2000814
:1008900058F2000870B58C1810F8015B15F00703CA
:1008A00001D110F8013B2A1106D110F8012B03E009
:1008B00010F8016B01F8016B5B1EF9D12B0705D411
:1008C0000023521E0DD401F8013BFAE710F8013B5A
:1008D000CB1A921C03E013F8015B01F8015B521E76
:1008E000F9D5A142D8D3002070BD70B505460021CE
:1008F00004F028FD14200CF06DFA04F0DDFB044632
:100900000A200CF067FA0121284604F01BFD0A209A
:100910000CF060FA204670BD0349496819B1D1F85E
:10092000F01001B10847FEE79C0100200449496826
:1009300011B1896C01B1084740F61200FFF7ECBF16
:100940009C01002070B504460D46C0B202F074FF51
:100950000020FFF7EBFF29462046BDE8704000F07D
:1009600047B90000054A0846526812B1126802B140
:1009700010474FF40060FFF7CFBF00009C0100203C
:10098000044B5B6813B1DB6C03B1184740F61300EE
:10099000FFF7C2BF9C01002070B50D461446064605
:1009A000194600F025F9304602F046FF2246294656
:1009B000BDE870400020FFF7E3BF000070B5264C93
:1009C0000E460025A0F5C85120804A3921D00128C3
:1009D00025D0A0F5C0513E391ED0B0F5C25F24D05D
:1009E000DC2825D0A0F5C85146391BD0A0F5C85148
:1009F000483917D0A0F5C85150391CD0A0F5C851BE
:100A0000523918D0F02819D0FA2817D00020606089
:100A10001FE002F041FA13E002F03AFA10E003F0AE
:100A200047FC0DE00CF0A9FE0AE002F033FA07E003
:100A300004F024FD04E00CF0A2FE01E004F020FD2F
:100A4000606030B1D0F8441119B116B13046884712
:100A50000546284670BD00009C01002004494968F5
:100A600011B1896F01B1084740F61E00FFF754BF6E
:100A70009C01002070B5012407250CF02BFD0121FD
:100A80000846FFF79BFF00210120FFF76BFF0121C4
:100A9000204600F0ADF8641CAC42F8DD70BD2DE9D5
:100AA000F04105460E460024052002F0C5FE4AF638
:100AB000E03700213A460846FFF762FF062002F0C1
:100AC000BBFE00213A460846FFF75AFF0020FFF719
:100AD000C5FF052002F0B0FE0020FFF7BFFF062093
:100AE00002F0FCF92870042002F0F8F9307020467A
:100AF000BDE8F08110B5A0B000236A4606E0CC1A2C
:100B0000044414F8014CD4545B1CDBB28B42F6D382
:100B10000A466946FFF737FB20B010BDFEE700200C
:100B2000704710B50024FFF7FAFF08B1392010BD57
:100B300000F005F808B1382010BD204610BD002097
:100B4000704730B501784278C378114482781A44EE
:100B50001144027911444279114482791144C279D5
:100B60001144027A1144427A1144827A1144C27AC1
:100B70001144C9B20A22B1FBF2F302FB131464233D
:100B8000B1FBF3F503FB1515B5FBF2F2B1FBF3F185
:100B900030343032047342733031817330BD000021
:100BA00010B53022024903A00AF070FD002010BDEC
:100BB000A3EE00085B25733A2564235D796F7520E9
:100BC000686176652063686F6F7365204465666948
:100BD0006E6520426F617264204F4B20696E205B0E
:100BE000636F6E6669672E685D2E200D0A00000037
:100BF00030B587B0054600F059F818220B49684611
:100C0000FFF7C1FA094C103C94E80F000CF072FC9D
:100C1000E8B202F011FEA4F1640003F06BFB07B030
:100C20000020BDE83040FFF781BE0000A007002093
:100C300070B50024062002F0FFFD41F2707500211E
:100C40002A460846641CFFF79BFE0020FFF706FFBC
:100C5000052002F043F9002801D1022CEFDB70BD22
:100C600070B50024052002F0E7FD41F27075002107
:100C70002A460846641CFFF783FE0020FFF7EEFEBD
:100C8000032002F02BF9002801D1022CEFDB70BD0C
:100C900010B54FF4AA710348FFF79CFA02490020EF
:100CA000087010BD6C130020000300202DE9F84FE0
:100CB000064600200C46009028216C48FFF78AFA6F
:100CC0006A4D0021DFF8A8C12E706A4FDFF8A8E155
:100CD000DFF8A8A16A4A6B486B4B4FF008094FF048
:100CE0007E5B69610C2E75D2DFE806F0BB061A4107
:100CF000505F5F69758291AF85F804906349A96080
:100D0000AB61E960C5E907326B62002C05D0012CAC
:100D100002D0022C02D0A6E05D4891E05D488FE051
:100D200085F804905948A860AB61E860C5E90732CE
:100D30004E4E594828366B622861012C01D054B1BF
:100D400091E03089FFF75CFCA8607089FFF758FCE0
:100D5000E860F08808E07088FFF752FCA860B0886F
:100D6000FFF74EFCE8603088FFF74AFC68E0297125
:100D7000AA61C5E9072BC5F808C06A62C5E903C1C5
:100D80003CB3012C5CD0022C5AD06CE02971AF61CD
:100D9000C5E9077BC5F808C06F62C5E903C0ACB3FD
:100DA000012C60D1C5F810E05DE02971AF61C5E9A3
:100DB000077BC5F808C06F62C5E903CE53E029710F
:100DC0003648AF61C5E907703548A8606F62E860D2
:100DD000344835E045E085F804903348A861C5E91A
:100DE0000702C5F808A0C5F80CA068622F4827E0E4
:100DF00085F80490AB61C5E907322C48C5F808A016
:100E0000C5E903A02A486B62D4B1BAE72BE085F8A4
:100E100004902848A861C5E90702C5F808C0C5F8CC
:100E20000CC0686224B1012C09D0022C0AD01AE04F
:100E30002148A861C5E907036862204800E020480E
:100E4000286110E0C5F810A00DE029711349AF61C9
:100E5000C5E90771C5F808A06F62C5E903A314B11D
:100E60008FE7012000900098BDE8F88F90070020E0
:100E700000409C450000A0410000484300803B45E5
:100E80000000204100007A440000C84200606A4629
:100E90000000FA440080BB4500007A450000A040F5
:100EA00000002F440000484200003E430080BB4445
:100EB00000803B44000016430000F042000016444E
:100EC0000000964410B50021022000F06DFA044C99
:100ED00000212060022000F07BFA606010BD00005D
:100EE000E402002010B50121022000F05DFA044C5C
:100EF00001212060022000F06BFA606010BD00004C
:100F00004403002010B5044600F0C8F900280BD1B6
:100F10003CB100F0F9F9002806D1BDE8104000F01E
:100F200079B900F093F8F6E710BD002070477047DC
:100F30000148406806F013BC00030020704770476A
:100F40007047042000F036BB082000F033BB704728
:100F500030B5A3B04C208DF880004F208DF8810073
:100F600046208DF882008DF883000D208DF88400D6
:100F70000A208DF8850000202290FFF7A3FF124C75
:100F8000062120A86268904764200BF015FF2268B4
:100F900022A96846904700246D4606E02B5DDE22BC
:100FA0000A490BA00AF072FB641C22988442F5DB0C
:100FB000E122064909A00AF069FBE32203490AA0DD
:100FC0000AF064FB23B030BDE4020020DCF000082E
:100FD0005B25733A2564235D256300005B25733A26
:100FE0002564235D0D0A00005B25733A2564235DAB
:100FF0005343414E20454E440D0A00004FF4165015
:1010000009F0B8BD4FF4165009F0B4BD0D4810B545
:10101000816986B041F04001816180690A4C00F02D
:101020004000049000222021204600F0CAFB20212D
:1010300000910121019103916946204600F0C6FA12
:1010400006B010BD0010024000180140F0B511A01C
:10105000A5B007C820AB002683E84700104F322414
:101060000A217A6820A890470E4D04E0287820B91C
:1010700001200BF0A1FE641EF8D23A6823A968464D
:1010800090472E70239810B1002025B0F0BD0120AC
:10109000FBE700002339393930303034303B000071
:1010A000DC020020A80100200EB508A10EC98DE8C1
:1010B0000E0018B908A007C88DE80700094A0A21E0
:1010C00068465268904700200EBD00002339393928
:1010D00030303033323B000023393939303030334F
:1010E000313B0000DC0200202DE9F04119A0A4B042
:1010F00007C820AB4FF0000883E8070018A032248F
:10110000066880216846CDF88C80FFF763F8154F9C
:101110000A2120A87A689047134D04E0287820B966
:1011200001200BF049FE641EF8D23A6823A96846F4
:10113000904785F8008023980A2808D19DF8000080
:10114000F1B2884203D1002024B0BDE8F081012033
:10115000FAE700002339393930303131363B0000AD
:1011600021000000DC020020A80100202DE9F0434E
:1011700080461FA0A7B007C820AB4FF0000983E846
:1011800007001EA023AB07C883E807001EA0322477
:10119000066880216846CDF89890FFF71BF81B4D34
:1011A0001B4FB8F1000F4FF00A0101D020A800E05A
:1011B00023A86A68904704E0387820B901200BF032
:1011C000FBFD641EF8D22A6826A96846904787F876
:1011D000009026980A2808D19DF80000F1B28842B4
:1011E00003D1002027B0BDE8F0830120FAE700001A
:1011F0002339393930303033353B00002339393920
:1012000030303033363B000021000000DC0200208B
:10121000A8010020F0B516A087B00068049015A0C2
:1012200000260068144F00960396019602960590DA
:1012300032247A68042104A89047104D04E02878ED
:1012400020B901200BF0B8FD641EF8D23A6803A95A
:10125000684690472E700398042806D104226946F8
:1012600005A8FEF7E3FF002800D0012007B0F0BD7D
:10127000252525255E5E5E5EDC020020A70100209C
:1012800010B500F00BF8002807D1FFF72DFF00285C
:1012900003D1BDE81040FFF7BDBF10BDF0B516A0EB
:1012A00087B00068049015A000260068144F0096CF
:1012B000039601960296059032247A68042104A8C8
:1012C0009047104D04E0287820B901200BF074FD00
:1012D000641EF8D23A6803A9684690472E700398B6
:1012E000042806D10422694605A8FEF79FFF0028BE
:1012F00000D0012007B0F0BD242424244040404009
:10130000DC020020A6010020F0B511A0A5B007C89E
:1013100020AB002683E84700104F32240A217A6868
:1013200020A890470E4D04E0287820B901200BF04A
:1013300043FD641EF8D23A6823A9684690472E7090
:10134000239810B1002025B0F0BD0120FBE700007C
:101350002339393930303034313B0000DC02002091
:10136000A801002010B502F00DF800280FD103F0FD
:1013700025FE00280BD102F03BF8002807D103F02E
:1013800043FE002803D1BDE8104000F04BB810BD6B
:101390000148C06870470000A002002001480078A2
:1013A00070470000A002002010B504460AF0C0F803
:1013B00018B9022C03D0032C03D0002010BD024822
:1013C00010BD024810BD0000C5AC000819AD0008F2
:1013D00010B504460AF0ACF818B9022C03D0032C5F
:1013E00003D0002010BD024810BD024810BD00000F
:1013F000F9AC00084DAD000810B50F2000F098F8CA
:101400000446102000F094F844EA4004112000F053
:101410008FF844EA8004122000F08AF844EAC00001
:10142000C0B210BD10B50024092001F057FD88B1ED
:10143000082001F053FD78B10B2001F04FFD68B199
:101440000A2001F04BFD58B1102001F047FD48B1D2
:10145000204610BD432010BD442010BD452010BDC6
:101460004B2010BD4A2010BD2DE9F041A2B00F461F
:1014700006460024802101A8FEF7ACFE01F072FEB2
:101480004FF47A701B4D0090052369781A48AA68BA
:1014900004F093F8184A2121686809F023FB002220
:1014A0004FF4FA71686808F02FFC8046686806F00F
:1014B000A5FAC0B910496868383106F0EDF90E4C4C
:1014C000804638340C4814F83F1F01AA383009F020
:1014D0009DF820784400202C00DD2024224601A91C
:1014E0003846FEF750FE3470FFF78CFD22B04046C0
:1014F000BDE8F08100030020E00F002010B5044695
:1015000003F03AFC0248D0E90010C4E9001010BD15
:101510005C03002010B5044603F02EFC2046BDE815
:10152000104018220149FEF72EBE000028190020A5
:1015300070B5054600240BF0D3FE0B490F2D06D0E5
:10154000102D06D0112D06D0122D0AD105E0096804
:1015500004E0496802E0896800E0C968884200DB6D
:101560000124204670BD0000C00100200BF0B8BE71
:1015700070B50C4601461D4616460F2003F0FAFED4
:101580002146102003F0F6FE3146112003F0F2FE52
:101590002946BDE87040122003F0ECBE31B500F0E2
:1015A00015F9044600F012F90099001B8842F9D39E
:1015B00038BD7047044910B50A68024202D008607D
:1015C000FFF7F7FF10BD0000140401402DE9F84FAC
:1015D000DFF8BC91002309F1040A0AF1040B1C4650
:1015E0004FF00F080BF1040E01270A68A7403A409C
:1015F000BA4272D1DFF89CC14D68A5EB0C06654577
:101600002BD00DDC032D34D005DC35B3012D19D0E2
:10161000022D2FD11BE0112D16D0122D2AD119E049
:10162000B6F5881F19D006DCB6F5803F15D0B6F5A3
:10163000801F1FD111E0B6F5001F0ED0B6F5041FB4
:1016400018D10AE0CB6815E0CB681B1D12E0CB680F
:1016500008330FE0CB680C330CE08B682BB1012B07
:101660004FF0080303D0476104E0042302E0076160
:1016700000E00023FF2A01D8064601E000F104063D
:101680004FEA840501D9A5F12005376808FA05FC61
:1016900027EA0C0703FA05F547EA050737604D68A6
:1016A000ED006ED53C4DAE6946F00106AE61AD6908
:1016B00024F0030605F001050095384D7719BE6842
:1016C000A5072D0F08FA05FC26EA0C06DFF8D0C0A6
:1016D000604503D14FF0000C25E052E0DFF8C4C0B4
:1016E000604502D14FF0010C1DE0DFF8BCC0604541
:1016F00002D14FF0020C16E0DFF8B0C0604502D115
:101700004FF0030C0FE0DFF8A8C0604502D14FF0A6
:10171000040C08E0DFF89CC0604502D14FF0050CD6
:1017200001E04FF0060C0CFA05FC4CEA060CC7F879
:1017300008C04D68D9F80060ED034D4601D5164349
:1017400000E096432E604D68DAF80060AD03554620
:1017500001D5164300E096432E604D68DBF800602B
:10176000ED025D4601D5164300E096432E604D68BC
:10177000DEF80060AD02754601D5164300E09643E1
:101780002E60641C102CFFF42FAFBDE8F88F000012
:101790000004014000001110001002400000014050
:1017A00000080140000C01400010014000140140FD
:1017B00000180140001C01408068084000D0012052
:1017C00070470AB1016170470904FBE701480068EE
:1017D000704700000400002002480168491C0160B5
:1017E0007047000004000020074810B5016841F070
:1017F00010010160052000F051F80F2000F006F8FC
:1018000000F015F8002010BD0020024010B504467D
:1018100000F016F94FF47A71B0FBF1F000F067FEBA
:1018200000222146501E00F019F8002010BD70471C
:1018300000F01F02012191404009800000F1E020EA
:10184000C0F88011704700F01F020121914040094B
:10185000800000F1E020C0F800117047F0B40E4B9A
:101860001B68C3F30223C3F10704042C00D904242A
:101870001D1D072D01D2002300E0DB1E012606FA04
:1018800004F56D1E0D409D409E40761E164045EAB3
:101890000601F0BC01F0E6BE0CED00E0064A00F0E7
:1018A000070110684FF6FF03184040EA0120034982
:1018B00008431060704700000CED00E00000FA05DE
:1018C0002DE9F047DFF8688104460E46D8F800009D
:1018D00000F00700B0420CD2D8F8001021F0070148
:1018E0003143C8F80010D8F8000000F00700B042FB
:1018F00073D120784F4F800705D57868A16820F014
:10190000F000084378602078C00755D06068012255
:1019100001280CD0022828D0022393FAA3F1B1FAAF
:1019200081F141F02001490904D0396803E04FF406
:101930000033F2E7796A93FAA3F3B3FA83F303F07F
:101940001F039A40114248D0796821F003010143F6
:101950007960FFF73BFF0546606841F28831012856
:101960000CD00228894615D022E04FF00073D4E74E
:10197000FFF72CFF411B494501D916E089467868DD
:10198000C0F381000128F3D116E0FFF71FFF411BD0
:1019900049450AD87868C0F381000228F5D10BE0E8
:1019A000FFF714FF411B494502D90320BDE8F0872A
:1019B000786810F00C0FF3D1D8F80010404601F011
:1019C0000701B1420BD9016821F0070131430160E1
:1019D000006800F00700B04201D00120E6E720785F
:1019E000400705D57868E16820F4E0600843786036
:1019F0002078000706D57868216920F4605040EA15
:101A0000C100786000F052F87968F02292FAA2F2F0
:101A100001F0F001B2FA82F2D140074A515CC840AD
:101A2000064908600F20FFF7F1FE0020BEE7000026
:101A30000020024000100240CFEE0008000000200D
:101A4000014800687047000000000020084809496C
:101A5000006849684FF4E06292FAA2F201F4E06192
:101A6000B2FA82F2D140044A515CC840704700008B
:101A70000000002000100240DFEE0008084809497D
:101A8000006849684FF4605292FAA2F201F4605182
:101A9000B2FA82F2D140044A515CC840704700005B
:101AA0000000002000100240DFEE000810B519A071
:101AB00085B00FC88DE80F001AA01B4B006804907A
:101AC00059681A4801F00C02042A1DD0082A1BD1BB
:101AD0004FF4701494FAA4F401F47012B4FA84F47C
:101AE000E240C9031DF8022010D559684FF40033B5
:101AF00093FAA3F301F40031B3FA83F3D94004ABB2
:101B0000595CB0FBF1F0504305B010BD084850439C
:101B1000FAE7000002030405060708090A0B0C0D8A
:101B20000E0F1010010200000010024000127A0097
:101B300000093D002DE9F84F04460078FE4EC0072D
:101B40004FF001057FD070684FF40038C0F381007A
:101B5000012807D07068C0F3810002281BD170688B
:101B6000C00318D598FAA8F0B0FA80F040F0200031
:101B7000400901D0306800E0706A98FAA8F1B1FA23
:101B800081F101F01F0105FA01F108425BD06068A4
:101B9000002879D057E06068B0F5803F0BD010B1D5
:101BA000B0F5A02F11D0306820F48030306030685C
:101BB00020F4802002E0306840F4803030606068BB
:101BC00018B3FFF703FE074609E0306840F48020B1
:101BD0003060F0E7FFF7FAFDC01B642870D898FA70
:101BE000A8F0B0FA80F040F02000400901D0306841
:101BF00000E0706A98FAA8F1B1FA81F101F01F01D2
:101C000005FA01F10842E5D01DE0FFF7DFFD0746C8
:101C100004E0FFF7DBFDC01B6428DFD898FAA8F0CA
:101C2000B0FA80F040F02000400901D0306800E0B8
:101C3000706A98FAA8F1B1FA81F101F01F0105FA72
:101C400001F10842E5D12078DFF8F08280074FF0FB
:101C5000000A4FF002075AD570684FF0F80B10F0E9
:101C60000C0F07D07068C0F3810002281CD1706887
:101C7000C00319D497FAA7F0B0FA80F040F0200022
:101C8000400902D0306801E08AE0706A97FAA7F153
:101C9000B1FA81F101F01F0105FA01F108422BD0E0
:101CA000206901287CD127E0206988B395FAA5F046
:101CB000B0FA80F048F82050FFF788FD814606E032
:101CC0004DE1FFF783FDA0EB0900022886D897FAC3
:101CD000A7F0B0FA80F040F02000400901D0306851
:101CE00000E0706A97FAA7F1B1FA81F101F01F01E3
:101CF00005FA01F10842E4D030689BFAABF220F01B
:101D0000F8016069B2FA82F290400143316025E047
:101D1000FFE795FAA5F1B1FA81F148F821A0FFF7A4
:101D200055FD814605E0FFF751FDA0EB09000228B3
:101D3000CCD897FAA7F0B0FA80F040F02000400924
:101D400001D0306800E0706A97FAA7F1B1FA81F12A
:101D500001F01F0105FA01F10842E4D120780007E3
:101D60006DD5A069B8B395FAA5F0B0FA80F008EB8C
:101D70008000C0F88054FFF729FD814605E0FFF799
:101D800025FDA0EB09000228A0D897FAA7F0B0FA29
:101D900080F040F06000B5EB501F02D130680CE0DD
:101DA00063E197FAA7F0B0FA80F040F06000B7EB7B
:101DB000501F01D1306A00E0706A97FAA7F1B1FABA
:101DC00081F101F01F0105FA01F21042D7D0012084
:101DD000FFF7E4FB33E0FFE795FAA5F1B1FA81F1F3
:101DE00008EB8101C1F880A4FFF7F0FC814605E013
:101DF000FFF7ECFCA0EB0900022899D897FAA7F0AE
:101E0000B0FA80F040F06000B5EB501F01D13068AF
:101E10000BE097FAA7F0B0FA80F040F06000B7EB63
:101E2000501F01D1306A00E0706A97FAA7F1B1FA49
:101E300081F101F01F0105FA01F21042D8D120789A
:101E4000400763D5F06940F08050F061F069DFF839
:101E5000F0B000F080500090DBF8001041F4807189
:101E6000CBF80010FFF7B2FC814605E0FFF7AEFCAF
:101E7000A0EB0900642872D8DBF80000C005F5D596
:101E8000E06801280AD008B1052813D0306A20F094
:101E900001003062306A20F0040002E0306A40F055
:101EA00001003062E06841F2883B80B3FFF78EFCAE
:101EB00081460AE0306A40F004003062EEE7FFF746
:101EC00085FCA0EB0901594549D897FAA7F0B0FA6B
:101ED00080F040F04000B5EB501F01D130680BE0BE
:101EE00097FAA7F0B0FA80F040F04000B7EB501F2F
:101EF00001D1306A00E0706A97FAA7F1B1FA81F176
:101F000001F01F0205FA02F10842D8D033E0FFE7E2
:101F1000FFF75CFC814605E0FFF758FCA0EB0901E8
:101F200059451CD897FAA7F0B0FA80F040F040006D
:101F3000B5EB501F08D105E00010024000004242FE
:101F40000070004030680CE097FAA7F0B0FA80F01B
:101F500040F04000B7EB501F02D1306A01E08AE048
:101F6000706A97FAA7F1B1FA81F101F01F0205FA40
:101F700002F10842D0D1E06998B37168C1F38101E0
:101F8000022972D002284FF080714FF0007B50463A
:101F90000AD091FAA1F1B1FA81F148F82100FFF7D6
:101FA00015FC04465F4669E08A4691FAA1F1B1FA50
:101FB00081F1C14648F82100FFF708FCA846074612
:101FC0005D4604E0FFF702FCC01B022853D895FAD7
:101FD000A5F0B0FA80F040F02000400902D030684F
:101FE00001E060E0706A95FAA5F1B1FA81F101F0C3
:101FF0001F0208FA02F10842E4D1206AB0F5803FDE
:1020000005D17068A16820F4003008437060D4E9FD
:1020100008010843716821F47411084370609AFA4A
:10202000AAF0B0FA80F0474649F82080FFF7CEFBCF
:10203000044604E0FFF7CAFB001B02281BD895FAF0
:10204000A5F0B0FA80F040F02000400901D03068DF
:1020500000E0706A95FAA5F1B1FA81F101F01F0173
:1020600007FA01F10842E5D01DE01EE0FFF7AEFBE4
:10207000001B022802D90320BDE8F88F97FAA7F0C9
:10208000B0FA80F040F02000400901D0306800E054
:10209000706A97FAA7F1B1FA81F101F01F0105FA10
:1020A00001F10842E2D10020E6E70120E4E7000068
:1020B00010B5040003D094F8510010B104E00120E1
:1020C00010BD204600F038F8022084F85100206846
:1020D000016821F040010160D4E901010843D4E91D
:1020E00003121143084361690843218B01F4007115
:1020F0000843E1690843216A0843A16A084321684B
:102100000860A069042101EA1040616A084321685F
:1021100048602168E06A08612068C16921F40061B3
:10212000C1610449002008706065012084F85100F5
:10213000002010BD0800002070B5354B0168002557
:1021400034480224012286B0994233D1816941F09A
:1021500004018161816901F004010491816941F008
:1021600004018161816901F004010491816941F0F8
:1021700004018161816901F004010491816941F4E4
:10218000805181618069039200F480500490202086
:102190008DE83100204C69462046FFF717FA4021B0
:1021A000009169462046FFF711FA802100916946A7
:1021B000204629E0194B994228D1816941F0080154
:1021C0008161816901F008010491C16941F4004114
:1021D000C161C16901F400410491816941F00101CB
:1021E000816180690E4E00F0010004902820CDE945
:1021F0000004694603923046FFF7E8F91020CDE964
:102200000005694602943046FFF7E0F906B070BD5C
:10221000003001400010024000080140003C004036
:10222000000C01402DE9F8430026DDF8208004462B
:10223000ADF8006090F85100012803D094F85100E7
:1022400022287DD169B162B15BB194F850000128B8
:1022500076D0012784F8507094F85100012803D0FB
:1022600005E00120BDE8F883322084F8510066655E
:10227000A263A387E3872163A386E386A664E6645B
:10228000A06A4FF40055A84209D12068016821F4E2
:10229000005101602068016841F40051016020682C
:1022A0000168490603D4016841F040010160E0681B
:1022B0004FF48271B0F5006F606807D0002867D0D6
:1022C00088426ED1E08E012862D06AE020B1884257
:1022D0000CD1E08E012809D1206B21680088C860EC
:1022E000206B801C2063E08E401EE086E08E80B96B
:1022F000A06AA84244D12068016841F4805101607D
:102300003EE02068C068A16B0880A06B801CA063C1
:102310009EE0434600220221204602F0E7FE00280C
:1023200074D1206B21680088C860206B801C2063FA
:10233000E08E401E0004000CE08609D1A06A00E097
:10234000C7E0A84204D12068016841F480510160CF
:10235000434600220121204602F0C8FE00286FD12A
:102360002068C068A16B0880A06B801CA063E08F10
:10237000401EE087E08E0028CBD1606800286AD13B
:10238000434600220121204602F0B0FEF0BBB8E730
:10239000206B411C216321680078C860E08E401EDC
:1023A000E086E08E98B9A06AA84204D1206801684E
:1023B00041F480510160434600220121204602F091
:1023C00095FE18BB2068C068A16B087040E04346CA
:1023D00000220221204602F089FEB8B9206B411C80
:1023E000216321680078C860E08E401E0004000C64
:1023F000E08607D1A06AA84204D12068016841F4B0
:102400008051016000224346012100E018E020468F
:1024100002F06CFEA0B92068C168A06B421CA263E8
:102420000170E08F401EE087E08E0028CFD1606809
:1024300088B9434600220121204602F057FE08B128
:1024400003200FE72068C168A06B421CA2630170E3
:10245000E08F401EE087A06AA84210D143460022C8
:102460000121204602F042FE18B1606D40F00200EA
:102470000FE02068C068ADF80000BDF800004346DA
:1024800001228021204602F031FE20B1606D40F033
:1024900010006065D4E784F85170A06AA84214D196
:1024A00020688168C943C9060FD4616D41F00201FB
:1024B0006165016821F4005101602068016841F400
:1024C0000051016084F85060CBE684F85060002031
:1024D000C8E60220C6E64FF0E0210428086903D0D0
:1024E00020F004000861704740F00400FAE710B5DE
:1024F000401EB0F1807F01D3012010BD4FF0E024D9
:1025000060610F21601701F0ADF80020A061072085
:102510002061002010BD000010B50268044631B1F2
:10252000042908D0082920D00C2908D121E0D0683E
:1025300040F0020002E0D06840F00400D0600122C8
:10254000206803F02FF80D492068884202D00C491A
:10255000884203D1416C41F4004141642068016824
:1025600041F001010160002010BDD06840F008007A
:10257000E4E7D06840F01000E0E70000002C0140E4
:102580000034014010B50268044631B1042908D076
:1025900008292FD00C2908D130E0D06820F00200A3
:1025A00002E0D06820F00400D0600022206802F031
:1025B000F9FF144841F2111221689310814202D0B0
:1025C0001148814209D1086A104206D1086A1842AE
:1025D00003D1486C20F4004048642068016A11422D
:1025E00006D1016A194203D1016821F0010101609D
:1025F000002010BDD06820F00800D5E7D06820F09A
:102600001000D1E7002C014000340140704790F8E1
:102610003900704738B5044600680168C268C1F3E4
:10262000000102F4807221B11AB1E16B41F00101A5
:10263000E1630168C1F34002416901F0010122B187
:1026400019B1E26B42F00402E2630268C2F3800255
:1026500022B119B1E26B42F00202E2630268C2F3F6
:10266000C00222B119B1E16B41F00801E1630168D8
:10267000C068C1F3401100F0200019B110B120462C
:1026800008F0CAFC20680168C068C1F3C01100F0FE
:10269000800019B110B1204608F0CAFD2168086811
:1026A000CA68C0F3801002F04002012568B162B12F
:1026B000CA68204622F04002CA6094F839103229D4
:1026C00010D080F8395000F0B1F9E06B002808D044
:1026D000206801684068009084F839502046FFF770
:1026E00095FF38BD222180F83910ECE770B5040061
:1026F00004D094F83900002510B106E0012070BD27
:1027000084F83850204600F021F8022084F839007F
:102710002068C16821F40051C160204608F0D0FC57
:102720002068016921F4904101612068416921F02C
:102730002A0141612068C16841F40051C160E5632C
:10274000012084F83900002070BD000010B5006839
:102750001E4986B0884236D11D48816941F0040186
:102760008161816901F004010491816941F4804132
:102770008161816901F480410491816941F0010125
:1027800081618069134C00F0010004904FF40070E7
:1027900000900220019001200290032003906946DE
:1027A0002046FEF713FF2115009100210191694693
:1027B0002046FEF70BFF2520FFF745F803221146C0
:1027C0002520FFF74BF806B010BD0000003801408F
:1027D00000100240000801402DE9F047044690F83F
:1027E000390099460D46012801D0122857D125B34A
:1027F0001AB394F83800012851D0012684F83860C3
:102800000027E76394F83900122819D0222084F8B1
:102810003900A285E2854FF48058E08D4B46401E7A
:10282000E085A0684FF0000240454FF020012046AF
:1028300016D108F030FDB0B904E00120BDE8F08702
:102840003220E4E7206900282068406803D0C1B244
:1028500025F8011B12E0C0F3080125F8021B0DE06A
:1028600008F019FD08B10320E8E720690028206876
:10287000406801D000F07F0005F8010BE08D0028D2
:10288000CBD194F83900322805D084F8396084F827
:1028900038700020D2E7122084F83900F7E70220D0
:1028A000CCE790F83930012B01D0122B2BD131B36A
:1028B0002AB390F83830012B25D0012380F8383026
:1028C00081628285C2850021C16390F83920122A75
:1028D00017D0222280F8392080F838100168CA68A1
:1028E00042F48072CA6001684A6942F001024A619A
:1028F0000068C16841F02001C160002070470120DC
:1029000070473222E6E702207047000030B50068C9
:10291000114988420CD1114A5088010408D411464B
:10292000440409784FF0000306D50A2901D05380EA
:1029300030BD40F400400DE00D2909D0C0F30D0476
:10294000074D401C80B229555080C728EFD830BDB4
:1029500040F48040508030BD00380140100000201D
:10296000900300202DE9F047044690F8390099467D
:102970000D46012801D0222856D125B31AB394F868
:102980003800012850D0012684F838600027E7631A
:1029900094F83900222819D0122084F83900A28432
:1029A000E2844FF48058E08C4B46401EE084A068DF
:1029B0004FF0000240454FF08001204613D108F04F
:1029C0006AFC08BB04E00120BDE8F0873220E4E7A0
:1029D00028882168C0F308004860206908B16D1C90
:1029E00008E0AD1C06E008F056FC68B9216815F84F
:1029F000010B4860E08C0028D5D14B4600224021D5
:102A0000204608F048FC08B10320DDE794F83900BF
:102A1000322805D084F8396084F838700020D3E774
:102A2000222084F83900F7E70220CDE77047FEE75F
:102A300010B500F093FBFEF745FAFEF789FABDE802
:102A40001040FEF7DBBA000010B53A22174918A073
:102A500008F01CFE08F046FDFEF7D8FA00F060FB17
:102A600008F0ECFD00F0E4FA4FF4E13008F052FA1F
:102A700065220E4917A008F009FE002002F0C4FBF1
:102A80001A480068016801208847FDF7F3FF3C23DE
:102A90007022064916A008F0F9FD1E48416821F091
:102AA000E06141F00071416010BD0000BDEE000822
:102AB0005B25733A2564235D737461727420496EDB
:102AC00069745F426F6172645F436F6E6669672EFF
:102AD000200D0A005B25733A2564235D696E6974D5
:102AE000207363616E2E200D0A000000EC020020AE
:102AF0005B25733A2564235D5B43616D656C5D2CDA
:102B000070726F746F636F6C2073697A653A2564B5
:102B10000D0A0000000001402DE9FF414A4C82B03F
:102B20001F46A07890460E4618B1002006B0BDE8BA
:102B3000F0810125A57040F6FF70ADF8040000F0AB
:102B400011FB424860603522414942A008F09EFDD9
:102B500045A1606807F072FD034639223C4945A053
:102B600008F094FD4A48012F0BD00221022F0AD011
:102B700005704170032FA06009D000206070012013
:102B8000D4E7057000E00170A060657000E061703E
:102B9000606804F0AEFD03465D222D493DA008F0BB
:102BA00075FD00966A462521606807F09BFF6A461E
:102BB0002521606807F060FF642225493CA0009B46
:102BC00008F064FDCDF800806A462621606807F0B1
:102BD00089FF6A462621606807F04EFF6B221C4978
:102BE0003CA0009B08F052FD02AA3721606807F064
:102BF00079FF02AA3721606807F03EFF9DF8083090
:102C0000712213493CA008F041FDD4E901010AF00A
:102C1000C9FC0546034676220D493FA008F036FD63
:102C2000606878220A49037844A008F02FFD6068A4
:102C30000178022904D101AA532107F053FF054668
:102C4000FEF7E0F9284671E700030020700A002033
:102C5000F6F000085B25733A2564235D7374617296
:102C6000742E200D0A000000746D723A2F2F2F630E
:102C70006F6D31005B25733A2564235D6372656176
:102C80007465207265743A2564200D0A0000000006
:102C9000C01400205B25733A2564235D636F6E6E5C
:102CA000656374207265743A2564200D0A00000083
:102CB0005B25733A2564235D2A2A2A2A2A2A2A2098
:102CC00052656164506F77657264626D3A25642065
:102CD0000D0A00005B25733A2564235D2A2A2A2AFF
:102CE0002A2A2A205772697465506F776572646268
:102CF0006D3A2564200D0A005B25733A2564235D37
:102D00002A2A2A2A2A2A2A20726567696F6E3A259A
:102D100064200D0A000000005B25733A2564235DE2
:102D20002A2A2A2A2A2A2A2067616E74656E6E6111
:102D30004C6973743A2564200D0A00005B25733AD0
:102D40002564235D7265616420747970653A256439
:102D5000200D0A0070B5044600210220FEF724FB76
:102D60000C4D002128600220FEF732FB6860002035
:102D7000FEF79AF900280CD1FEF782FA002808D154
:102D80002046FEF7BFF8002803D1BDE8704002F0EE
:102D900067BB70BDDC02002018B500F52D7490F8FB
:102DA000AC12002201230520182913D0192911D0B3
:102DB000202913D030291CD0FF218DF800108DF868
:102DC00001108DF802108DF80310694620460CF0B2
:102DD0004FF818BD8DF8003023210DE08DF800303C
:102DE0000B208DF801008DF8022014208DF80300CF
:102DF000EBE78DF8003009218DF801108DF80220E5
:102E0000F4E738B500F52D7290F8AC1201200723D5
:102E1000182919D0192917D00024022520291ED0DD
:102E2000302923D0FF208DF800008DF801008DF8A7
:102E300002008DF8030000216B46505C5C5CA042F0
:102E40001DD24FF0000038BD8DF800004FF0210179
:102E50008DF801108DF802008DF80330EBE78DF846
:102E600000004FF009008DF8010003E08DF800002C
:102E70008DF801308DF802408DF80350DBE704D85F
:102E800001F1010189B20429D7D3012038BD70476F
:102E900000207047002070470020704770B5002464
:102EA00002230D4A21460320FDF776FD4FF4FA5523
:102EB0000320641C00F012F808B1AC4208DB0121C9
:102EC0000320FDF73FFDBDE87040032000F006B889
:102ED000012009F071FFEBE76067010010B50446BF
:102EE00008F074FD002807D0012009F065FF204696
:102EF000BDE8104008F06ABD10BD00002DE9F041AA
:102F000045480021454D018081704FF4004128461D
:102F1000FEF752FC404C424E2178084320700121BC
:102F20003046FEF749FC217841EA4000207002213A
:102F30003046FEF741FC21783A4F41EA800020708C
:102F400080213846FEF738FC217841EAC000207025
:102F5000A9153846FEF730FC217841EA00102070B0
:102F600069153846FEF728FC217841EA40102070A8
:102F700029153846FEF720FC2178EE1441EA80102E
:102F8000207031463846FEF717FC217841EAC01020
:102F9000207020212448FEF70FFC6178234F08435E
:102FA000607001213846FEF707FC617841EA400075
:102FB000607002213846FEF7FFFB617841EA80002D
:102FC000607004213846FEF7F7FB617841EAC000E3
:102FD000607031462846FEF7EFFB617841EA001049
:102FE0006070A9142846FEF7E7FB617841EA4010BB
:102FF000607069142846FEF7DFFB617841EA8010B3
:103000006070F1002846FEF7D7FB617841EAC010F6
:103010006070BDE8F0810000B4010020001C014098
:10302000002001400018014000100140000C014048
:1030300070B52C4886B0816941F4807181618169E5
:1030400001F480710491816941F0400181618169DD
:1030500001F040010491816941F080018161816941
:1030600001F080010491816941F010018161816961
:1030700001F010010491816941F0080181618069CA
:10308000032400F008000490072000250226039482
:103090008DE8610069461448FEF798FA20200394F1
:1030A0008DE8610069461148FEF790FA4FF47860A8
:1030B00003948DE8610069460D48FEF787FA4FF4E6
:1030C000784003948DE8610069460A48FEF77EFA6D
:1030D0008DE87000694608480394FEF777FA06B059
:1030E00070BD000000100240000C014000100140C3
:1030F00000180140001C01400020014070B5074D40
:1031000004212846FEF758FB044608212846FEF70E
:1031100053FB44EA4000C0B270BD000000180140FB
:103120000C4800B5816985B041F04001816180693A
:10313000694600F0400004900C20009000200190AF
:1031400001200290032003900348FEF73FFA05B0E8
:1031500000BD000000100240001801404FF416505E
:1031600007F05CBD4FF4E13007F004BD034A01EB0A
:10317000011102EB41012222FDF705B86C1300207A
:1031800010B5044600F00AF810B10021217010BDFE
:1031900001490978FAE70000000300202DE9F04119
:1031A000A2B00024FFF7DEFF4FF47A703B4D009091
:1031B000052369783A48AA6802F0FFF9384A2121C4
:1031C000686807F08FFC03469822364936A008F05D
:1031D0005DFA9B2233493DA008F058FA00224FF4D3
:1031E000FA71686806F090FD03469F222D493FA0C2
:1031F00008F04CFA686804F001FC80460346A322FC
:10320000284942A008F042FAFDF742FD244E383624
:1032100006F5557736E0A922224946A008F036FA8D
:103220001F496868383104F037FB80460346AD22F9
:103230001C4947A008F02AFA194816F83F1F01AAAE
:10324000383007F0E3F93078009001ABB22215492D
:1032500047A008F01BFA04EB0410012107F8101036
:1032600016F83F19202902D9202186F83F10CAB24A
:1032700007EB40000A4980F821203831401CFCF758
:1032800082FF641C686804F0B9FB0028C3D02C706E
:10329000FDF7B8FE22B04046BDE8F08100030020F3
:1032A000E00F002006F100085B25733A2564235DDA
:1032B0002A2A2A2A7265616420706C616E3A7265EE
:1032C000743A307825780D0A000000005B25733AC7
:1032D0002564235D2A2A2A2A20737461727420547B
:1032E0004D525F726561642E0D0A00005B25733AD2
:1032F0002564235D2A2A2A2A20726561643A726550
:10330000743A307825580D0A000000005B25733AA6
:103310002564235D2A2A2A2A20544D525F6861734E
:103320004D6F7265546167733A7265743A307825EF
:10333000580D0A005B25733A2564235D737461722E
:1033400074206E657874207461672E200D0A000069
:103350005B25733A2564235D6765744E6578745404
:1033600061673A7265743A307825780D0A0000007A
:103370005B25733A2564235D4550433A2573202528
:10338000640D0A0070B500240220FFF7A7FD4FF47A
:10339000FA5520B92A460021042000F041F9022004
:1033A000FFF79CFD20B10120FFF798FD10B106E06A
:1033B000412070BD2A460021032000F031F9012090
:1033C000FFF78CFD20B10F20FFF788FD10B107E05B
:1033D000402070BD49F640420021012000F020F954
:1033E0000F20FFF77BFD08B1204670BD3F2070BD68
:1033F00010B500240720FFF771FD28B94FF41662BD
:103400000021072000F00CF90720FFF767FD08B145
:10341000204610BD422010BD70B590B01446002566
:10342000039151220F95CDE901201E460FAA3C21A0
:10343000684600F027F8002808D10F9840B19DF8A1
:103440000D00029921609DF80C10317010B070BD14
:1034500001202560FAE700B591B000220F92039198
:103460005222CDE901200FAA3C21684600F00AF85B
:10347000002803D10F9818B19DF8080011B000BDC5
:103480000120FBE72DE9F0470D468CB0924604463B
:1034900000F1100100264FF0C8082C226846FCF706
:1034A00072FE94E80F0009F05BFB0D2184F83810E0
:1034B0000A2184F83910AA212170DD21617084F875
:1034C0003400000A84F8350007F0FBFC1A4FB146BF
:1034D00029462046C7F8009007F08EFD01203D6880
:1034E00009F06AFC386880B185420AD13C2808D0CE
:1034F0002122124912A008F0C9F80126C7F800904D
:103500000CE0854201D13C280ED0B8F1000FE5D186
:1035100001263222094913A008F0B8F807F0CEFCC2
:103520000CB03046BDE8F0875146204607F04AFD12
:10353000C7F80090F2E7000058030020A8F1000847
:103540005B4552524F522025733A2564235D7278B1
:10355000206C656E206973206572726F72200D0A8F
:10356000000000005B4552524F522025733A2564FB
:10357000235D7472616E73666572206572726F721C
:103580002021200D0A000000FEE7000070B5002693
:10359000344601210220FDF72BFB022000F04CF9FC
:1035A0004CF250352A4601210020FDF7E9F90020B0
:1035B000FDF754FA00212A460846FDF7E1F90020FC
:1035C000FDF74CFA641C052CECDB00230A4A194673
:1035D0000220FDF7E1F90122084B0F21104601F00E
:1035E00011FC08B13F2070BD022000F025F9002039
:1035F000FDF79CF9304670BD400D0300C02709005F
:1036000010B50024054B22461021012001F0FAFBE1
:1036100008B14A2010BD204610BD0000C027090097
:1036200070B514460D4600F007F9224629460020E1
:10363000FDF7A6F9BDE870400020FDF70FBA70B5A0
:103640000D46144606461946FDF7D2FA224629468B
:103650003046FFF7E5FF3046BDE870400121FDF739
:10366000C7BA70470907090E002806DA00F00F00F4
:1036700000F1E02080F8141D704700F1E02080F890
:103680000014704738B5084800244FF4FA43008806
:10369000009022460821042001F01AFC08B14420C1
:1036A00038BD204638BD00009802002038B50848D3
:1036B000002447F23053008800902246082104205D
:1036C00008F0D0F908B1442038BD204638BD0000CC
:1036D0009802002038B50848002447F2305340884B
:1036E000009022460921042008F0BCF908B14320CB
:1036F00038BD204638BD0000980200202DE9FF4F5C
:10370000002689B064208A4602FB00F499463546BB
:10371000314602200896FDF747FE2F4F0021386002
:103720000220FDF755FE786040F211222B492CA0B3
:1037300007F0ACFF01F062FE00284AD11E212E489E
:10374000FCF748FD20216846FCF744FDDFF8AC801B
:1037500040F21A2B21E098F80000D8B15A461F49D0
:1037600027A007F093FF3A6808A92348904788F8F4
:103770000060B9F1000F12D0089AAA4204D11E4984
:103780006846FCF753FD50B11B496846089AFCF7A0
:10379000FAFC089D012009F00FFB641EDBD2089A99
:1037A000052A06DD921E144908920998FCF7EBFCE5
:1037B00000E008960899CAF8001001F051FE0400D4
:1037C00007D10D4B40F23122044913A007F05EFFF0
:1037D00020460DB0BDE8F08FDC02002066F0000846
:1037E0005B25733A2564235D73746172742073637F
:1037F000616E2E200D0A0000500A0020A501002055
:103800005B25733A2564235D7363616E6E696E6731
:10381000202E2E2E200D0A005B25733A2564235D91
:1038200073746F70207363616E3A20202573200DCE
:103830000A00000070470000F0B5214A214B5614E1
:103840001515214C21494FF48047082826D2DFE87E
:1038500000F025040A11161A212F1D4888608015D2
:1038600088810A6004E080208A60888110200A60D4
:10387000888013E008208A6088810B6008E08B60F4
:103880008E810B6009E04FF400708B6088810C60C2
:103890008F8003E08C608E810C608D800D488A687B
:1038A00042608A8902800A68826089884180F0BD0E
:1038B00009484FF4004288608A8108608014D7E785
:1038C0000020014000140140000C0140B004002021
:1038D00000100140900100200018014010B5FCF7D5
:1038E0008FFEBDE810400149FCF72ABDA5D4684110
:1038F00010B50549FCF724FD4FF07C51FCF7C8FCDE
:10390000FCF794FE80B210BDCCBC8C3D01498860B0
:10391000704700001800002001490861704700004E
:10392000180000200149C8607047000018000020FE
:1039300010B50549FCF704FD4FF07C51FCF7A8FCDD
:10394000FCF774FEC0B210BD00601F4410B5FCF758
:1039500057FEBDE810400149FCF7F2BC679ACD3A2A
:1039600008210148FDF728BF001401400248012248
:1039700001884068FDF725BF900100200248002221
:1039800001884068FDF71DBF9001002072B67047A6
:1039900062B6704704210148FDF70EBF00140140D4
:1039A0002DE9F04F85B000287ED17648816941F439
:1039B00080718161816901F480710491816941F0B4
:1039C00080018161816901F080010491816941F088
:1039D00040018161816901F040010491816941F0F8
:1039E00020018161816901F020010491816941F028
:1039F00010018161816901F010010491816941F038
:103A000004018161816901F004010491816941F03F
:103A10000801816180694FF48077012400250097B7
:103A200000F00800CDE90145CDE90340564E694656
:103A30003046FDF7CBFD012239463046FDF7C1FE89
:103A400080208DE83100DFF84491694648460394B0
:103A5000FDF7BCFD012280214846FDF7B2FE08209B
:103A60008DE83100694648460394FDF7AFFD012219
:103A700008214846FDF7A5FE660302200096CDE921
:103A80000140DFF80CB1694658460394FDF79EFDEE
:103A9000012231465846FDF794FE4FF40078CDF8E8
:103AA0000080CDE9014500E069E06946584603948D
:103AB000FDF78CFD012241465846FDF782FE009637
:103AC000DFF8D0A0CDE90145694650460394FDF7E3
:103AD0007DFD012231465046FDF773FEE603009658
:103AE000DFF8B480CDE90145694640460394FDF70F
:103AF0006DFD012231464046FDF763FE0097CDE99A
:103B00000145694648460394FDF760FD10208DE8A5
:103B10003100694648460394FDF758FDA703009716
:103B2000CDE90145694658460394FDF74FFDA602CD
:103B30000096CDE90145694658460394FDF746FDD8
:103B40000097CDE90145694650460394FDF73EFDD7
:103B50000096CDE90145694650460394FDF736FDD0
:103B600020038DE83100694640460394FDF72EFDA1
:103B700000F014F800F08AF8052009F01DF905B0EE
:103B8000BDE8F08F0010024000100140002001400D
:103B900000140140000C01400018014070B50122E2
:103BA00011021348FDF70DFE124C01228021204620
:103BB000FDF707FE012208212046FDF702FE012243
:103BC0000D4D540321462846FDF7FBFD012251020D
:103BD0002846FDF7F6FD012221460848FDF7F1FDD4
:103BE000BDE870400122D1030548FDF7EABD0000A1
:103BF000001001400020014000140140000C014071
:103C0000001801400248012241888068FDF7D9BDB3
:103C10009001002070B5154C012211022046FDF7DD
:103C2000D0FD012210212046FDF7CBFD0122104ED0
:103C3000940321463046FDF7C4FD01229502294632
:103C40003046FDF7BEFD21460A4C01222046FDF715
:103C5000B8FD012229462046FDF7B3FDBDE87040BE
:103C6000012211030448FDF7ACBD00000020014013
:103C700000140140000C01400018014002480022DD
:103C800041888068FDF79DBD9001002070B5164CFD
:103C900000224FF480712046FDF793FD0022102191
:103CA0002046FDF78EFD114E4FF480440022214640
:103CB0003046FDF786FD2511002229463046FDF7E6
:103CC00080FD21460A4C00222046FDF77AFD0022A5
:103CD00029462046FDF775FD0022A114BDE870407D
:103CE0000448FDF76EBD00000020014000140140B3
:103CF000000C0140001801400D480C4901220160F0
:103D00002021C161426100218160022202610722FB
:103D1000C0E90A12C1604FF400720162826141621F
:103D20004FF482714160FEF7C3B9000000300140DA
:103D3000C00400202DE9F84390460D460646FFF7E3
:103D40001DFE00244FF480590CE001232A46314621
:103D50000848CDF80090FEF765FA070004D1641C0E
:103D60006D1C761C4445F0D3FFF700FE3846BDE8D5
:103D7000F8830000C004002010B50446FDF796FE4D
:103D8000A101B0FBF1F00749401E0A68D062C8608B
:103D9000096840088863BDE8104004210148FEF727
:103DA000BBBB00001805002004210148FEF7EABB58
:103DB0001805002010B5054CA068002804D001218A
:103DC000617080470020607010BD00001800002066
:103DD00010B5FFF7C5FD08B1002010BD012010BDD2
:103DE00010B5FFF7D7FD08B1002010BD012010BDB0
:103DF0002DE9F05F3C4A8A460024917881426FD9D0
:103E00009178DFF8E8B0081A401EC4B20AF0FF014A
:103E1000002041F0200590460BF10C090027464692
:103E200088F8007008B1FFF7B3FDB04600205E4689
:103E30000CE031183754CF708F714F7209F8007051
:103E400009EB0001401CCF708F714F7298F802107F
:103E50008842EED35046BAF1070F2AD008DCBAF1F7
:103E6000070F15D2DFE80AF01422252222252500AB
:103E700018281ED007DC08281BD00D2819D0BAF14D
:103E8000150F05D115E01A2813D0BAF11B0F10D069
:103E9000301901278571FFF779FD98F8001001208E
:103EA0000029BBD1C7F103054F460DE03555032767
:103EB000F1E730190227C570EDE705EB4500C119A0
:103EC000304400F0F1FE6D1C042DF6D33919C8788A
:103ED0008A79000440EA0224487A0443FFF758FD37
:103EE0002046BDE8F09F0000180000209804002044
:103EF0002DE9F041234C0025A17881423ED9A178DB
:103F0000214F081A401EC5B20020804607F10C065A
:103F100084F8008008B1FFF73BFD002012E039185B
:103F200007F8008081F8038081F8068081F8098015
:103F300006F800803118401C81F8038081F8068063
:103F400081F80980A1788842E9D3D0207855FFF71D
:103F50001DFD217801200029DAD1002404EB440062
:103F60008119384400F0A0FE641C032CF6D37019AC
:103F70008179C07841EA0025FFF70AFD2846BDE8AF
:103F8000F081000018000020980400200022702119
:103F900000F0B4BA0022782100F0B0BA0A466021DD
:103FA00000F0ACBA41F0680100F0A8BA114341F04A
:103FB00082011A4600F0A2BA0022A82100F09EBA9F
:103FC0000022B82100F09ABA41F0400100F096BA00
:103FD0000022114600F092BA114341F092010022F2
:103FE00000F08CBA0022C02100F088BA0022D8214B
:103FF00000F084BA41F0500100F080BA2DE9F05F82
:104000008B46384916468A78824268D98A78DFF822
:10401000D8A0101A401EC4B20020C6F307280BF027
:10402000FF058946002789F8007008B1FFF7B0FC4A
:104030000020524605E017541118401CCF708F71B4
:104040004F7299F802108842F5D35846BBF1070F1A
:1040500032D008DCBBF1070F13D2DFE80BF01225DA
:104060002D25122D2D00152826D005DC082823D05B
:10407000BBF10D0F05D11FE018281DD0BBF11A0FA1
:104080001AD01019012785710AEB04004672FFF758
:104090007DFC99F8001001200029C3D1124EC7F110
:1040A000030455460C3614E0310C10191555C17037
:1040B00080F806800327E7E710190227C57080F80B
:1040C0000680E1E704EB44008119284400F0ECFD90
:1040D000641C042CF6D3BDE8F05FFFF759BCBDE8C3
:1040E000F09F000018000020980400200022A0216A
:1040F00000F004BA0022B02100F000BA41F05801EB
:10410000002200F0FBB9810204D5C043401CC0F37B
:1041100015004042704700000249096901B1084793
:10412000FEE700001800002010B5FCF769FA04490A
:10413000FCF7AEF8BDE810400249FCF701B90000F9
:1041400077BE7F3F0024744110B50349FCF7F8F8AF
:10415000FCF76CFA80B210BDBD37863D70B500200B
:10416000104D014605F10C06D0230F4C0BE02A1828
:104170002B54D1709171517231543218401CD1704E
:1041800091715172C0B2A2789042F0D3002404EB36
:1041900044008119284400F087FD641CE4B2032C1C
:1041A000F5D370BD980400201800002010B5054C10
:1041B000E068002804D00121617080470020607011
:1041C00010BD00001800002070B50D4606461621EF
:1041D000FFF70EFE40F3C00429463046641CFFF78B
:1041E00007FE162D3FD2DFE805F03E0B3E0B131005
:1041F0001016192C2C2C2C23333535263E29291E3C
:10420000FFF781FFFCF7F3F92AE0FFF767FB27E0F0
:1042100000F0C6FC24E000F0D5F821E0C0F30B006C
:1042200000F0E8F81CE0C0F30900FFF77DFF17E09D
:1042300000F072F814E000F0A0F811E000F0BAFC11
:104240000EE014B100F0B4F80AE000F005FD07E05C
:104250003CB100E014B1FFF779FB01E000F0CEFCC7
:104260000646304670BDFCF7CBF9F9E7084A01462F
:10427000002093788B4209D99078401A401E054956
:10428000C0B208448179C07841EA0020704700003C
:1042900018000020A4040020004870470005010019
:1042A00010B50321FFF7A4FDBDE81040FFF72BBFB9
:1042B000004870472C0000200148807870470000BB
:1042C0001800002010B50121FFF792FDBDE8104055
:1042D000FFF719BF064810B50079FFF761FBFFF73C
:1042E0000BFDFFF797FCBDE81040052008F064BD0A
:1042F0001800002010B550B10146002000F048FA27
:104300000020FFF759FEBDE81040FFF727BF00204F
:1043100000F076FBF4E7000010B5FCF771F9BDE89A
:1043200010400149FCF70CB8D923743D10B505497C
:10433000FCF706F84FF07C51FBF7AAFFFCF776F983
:1043400080B210BDBD37864110B5FFF7D1FD8007A3
:1043500001D4012010BD002010BD10B54FF07E51DA
:10436000FBF7E8FF0521FCF71DF84FF07C51FBF748
:104370008FFFFCF75BF9C0B210BD10B5FCF740F938
:104380006FF00401FCF70EF8BDE810404FF07E51CD
:10439000FBF77EBF10B50549FBF7D2FF4FF07C510C
:1043A000FBF776FFFCF742F9C0B210BD0AD72340F5
:1043B00010B5FCF725F9BDE810400149FBF7C0BF77
:1043C0000000C83E10B5FCF71BF9BDE810400149DC
:1043D000FBF7B6BF0024744110B50549FBF7B0FFE9
:1043E0004FF07C51FBF754FFFCF720F980B210BD71
:1043F000BD37863D10B5FCF703F9BDE81040014913
:10440000FBF79EBF0024743E10B50549FBF798FFEB
:104410004FF07C51FBF73CFFFCF708F980B210BD70
:10442000BD378640144B10B59C7884421AD99B78CE
:10443000124C181A401EC3B201F0FA00682812D0BC
:1044400006DC40280FD050280DD0602804D10AE0A7
:10445000822808D08A2806D00022E018E254C270D0
:104460008271417210BDE154E018110CC170110A43
:104470008171427210BD00001800002098040020D5
:1044800001488088704700001800002010B51B21EB
:10449000FFF7AEFC80B210BDFFF7B4BBFFF7EEBB79
:1044A00070B50546082927D2DFE801F00406080A9E
:1044B0000C0E101200240CE001240AE0022408E093
:1044C000032406E0042404E0052402E0062400E0BE
:1044D00007242846FFF770FD16212846FFF788FCC1
:1044E00000F0F802224316212846FFF787FD2846F0
:1044F000FFF77CFD012070BD002070BD2DE9F05F4D
:104500000E46304914468A78824258D98A784FF04C
:104510000009101A401EC5B24846CB468A46D84606
:1045200057468AF800B008B1FFF732FA4246B8465B
:104530000020254F05E03A543918401CCA708A7192
:104540004A7298F802108842F5D306F0FA006828FB
:104550001CD006DC40281BD0502819D0602804D17C
:1045600014E0822814D08A2812D078197A55C270A3
:1045700082714672FFF70AFA98F8001001200029AC
:10458000CDD1114DC9F103040C3512E0C4F315046B
:1045900078197E55210CC170210A817144724FF047
:1045A0000309E7E704EB44004119384400F07CFBC1
:1045B000641C042CF6D3BDE8F05FFFF7E9B9BDE851
:1045C000F09F0000180000209804002070B5074DEF
:1045D0000024A5F10C0604EB44004119304400F01E
:1045E00063FB641CE4B2042CF5D370BDA40400206A
:1045F0002DE9F0410E461546804601241621FFF7AD
:10460000F7FB40F3C000594A401C954204D3012EE9
:1046100002D0032E00D000245549162E22D2DFE806
:1046200006F021290B29213D3D444B7D7D7D7D6791
:104630008B8E8E6E217777584E48854212DC15F0AE
:10464000FF4F11D016210020FFF7D2FB00F007002A
:10465000C0F1070101208840FBF7C9FF2946FCF79C
:1046600015F801D2002477E02846FBF7DFFFC0F3FE
:1046700008026CE04FF40017954207D385F0004024
:10468000FBF7D4FFB842EDD8404204E02846FBF7E0
:10469000CDFFB842E6D2C0F3150258E03648854255
:1046A000E0DC2846FFF724F950E034488542D9DCA5
:1046B0002846FFF791FE49E031488542D2DC314679
:1046C0004046FFF795FB00F480572846FFF79CFE15
:1046D0000BE02C488542C5DC31464046FFF788FB9D
:1046E00000F480672846FFF72FFD47EA00022EE01E
:1046F00025488542B6DC2846FFF718FE26E0A5F1DE
:104700007E50B0F5701FADD82846FFF726FE1DE09D
:104710008D42A7DC284600F059FA17E030B1B5F514
:10472000000F9FDA2846FFF735FE0FE08D4299DC37
:10473000284600F07DFA09E0002893D000E070B12F
:10474000124885428EDC2846FFF7F2F802461CB17B
:1047500031464046FFF752FC2046BDE8F081B5F1F6
:10476000854F9DDC284600F053FAEFE7000080807B
:1047700000007A440080FF4300C6684700E87346A3
:10478000331374440024744600207444CDCCCC3ED2
:1047900070B50C46054600220121FFF72FFC0022D0
:1047A00002212846FFF72AFC002203212846FFF7B2
:1047B00025FC6068FFF79CF8024605212846FFF7B4
:1047C0001DFCA068FFF794F8024606212846FFF773
:1047D00015FCE068FFF700FE024607212846FFF7B8
:1047E0000DFC2069FFF7F8FDA18A40EA01020821CB
:1047F0002846FFF703FCA069FFF7A6FCA18B40EA5F
:10480000010215212846FFF7F9FB206A00F0DEF9C6
:10481000024613212846FFF7F1FB94F82520207863
:104820001621024394F8240002432846FFF7E6FBD2
:1048300094F8262017212846FFF7E0FB94F827205C
:1048400094F82A00A18D0243208D084302431821C9
:104850002846FFF7D3FB94F82E2094F82F00192157
:1048600002432846FFF7CAFB207800284DD054F8B1
:10487000300F00F0DDF9024609212846FFF7BEFBA4
:10488000606800F0D5F902460A212846FFF7B6FB1A
:10489000A06800F0CDF902460B212846FFF7AEFBD9
:1048A000E06800F0C5F902460C212846FFF7A6FB98
:1048B000227C607C0E2102432846FFF79FFB606943
:1048C00000F0A6F902460F212846FFF797FBA069E2
:1048D00000F09EF9024610212846FFF78FFB227F49
:1048E000607F94F820100243A07F08430243608C4D
:1048F0000243A08C0243E08C0243208D02432846F1
:10490000BDE870401A21FFF779BB206CFFF70EFD60
:1049100002460D212846FFF771FB206DFFF71DFDB4
:10492000024611212846FFF769FB606D00F04EF941
:10493000024614212846FFF761FB206BFFF72AFD92
:10494000024609212846FFF759FB606BFFF722FD5D
:1049500002460A212846FFF751FBA06BFFF71AFD1C
:1049600002460B212846FFF749FBE06BFFF712FDDB
:1049700002460C212846FFF741FB606CFEF7D8FF8A
:1049800002460E212846FFF739FBA06CFEF7D0FF48
:1049900002460F212846FFF731FBE06C3C34FEF75E
:1049A000C7FF024610212846FFF728FB227F607FC1
:1049B000E17F0243A07F08430243208C0243608CC6
:1049C0000243A08C0243E08C98E770B50D46044684
:1049D0000121FFF70DFA421B2046BDE8704001217E
:1049E000FFF70CBB0A460321FFF708BB032803D8D7
:1049F000024988700120704700207047180000208D
:104A00002DE9F14F002201210098FFF7F7FA00226B
:104A100002210098FFF7F2FA002203210098FFF725
:104A2000EDFA574E574FDFF86081DFF86091DFF8FD
:104A300060B1584C584D00984FF07E5A18B101287B
:104A400001D002287ED13046FEF752FF02460521F2
:104A50000098FFF7D3FA3046FEF74AFF02460621D8
:104A60000098FFF7CBFA3846FFF7B6FC024607215D
:104A70000098FFF7C3FA0020FFF7C6FC02460821A2
:104A80000098FFF7BBFA4046FFF75EFB0246152190
:104A90000098FFF7B3FA082213210098FFF7AEFA47
:104AA000042216210098FFF7A9FAEF221721009897
:104AB000FFF7A4FAC32218210098FFF79FFA4022BB
:104AC00019210098FFF79AFA4846FFF72FFC024693
:104AD0000D210098FFF792FA5046FFF73EFC024680
:104AE00011210098FFF78AFA584600F06FF8024645
:104AF00014210098FFF782FA2046FFF74BFC02468C
:104B000009210098FFF77AFA2046FFF743FC024696
:104B10000A210098FFF772FA2046FFF73BFC024695
:104B20000B210098FFF76AFA2046FFF733FC024694
:104B30000C210098FFF762FA1848FEF7F9FE0246CA
:104B40000E2100E01AE00098FFF758FA2846FEF719
:104B5000EFFE02460F210098FFF750FA2846FEF7B5
:104B6000E7FE024610210098FFF748FA0098BDE8DA
:104B7000F84F42F608621A21FFF740BABDE8F88FF5
:104B800000801144000048440000C8434A0C7642AB
:104B900000D0044400002041751F803D2D431C3D82
:104BA00010B5FBF72DFDBDE810400149FBF7C8BB70
:104BB0000024743C10B5401CFBF722FDBDE81040FA
:104BC0000149FBF7BDBB00000000FA4110B50749E1
:104BD000FBF7B0FB0649FBF7B3FB4FF07C51FBF74B
:104BE00057FBFBF723FDC0B210BD00000000FA41E7
:104BF0006F12033DFFF7C0B8FFF7D6B810B5401CE1
:104C0000FBF7FEFCBDE810404FF0FF31FBF7CABBDD
:104C100010B54FF07C542146FBF78CFB0121FBF7CC
:104C2000C1FB2146FBF734FBFBF700FDC0B210BD12
:104C300010B50749FBF77EFB0649FBF781FB4FF0F8
:104C40007C51FBF725FBFBF7F1FCC0B210BD000067
:104C50000000FA406F12033E10B5401CFBF7D0FC79
:104C6000BDE810400149FBF76BBB00000000FA40B3
:104C700070B5084E00252C4605E02046FFF764FB82
:104C80000543641CE4B2B0788442F6D3002DF1D120
:104C900070BD00001800002010B504462046FFF744
:104CA00053FB0028FAD110BD10B5054CA278FFF7D0
:104CB00041F86078002801D00120207010BD00006C
:104CC0001800002070B500240620FEF7B5FD002175
:104CD000124A0846FBF754FE41F294150620641C64
:104CE000FEF7FCF828B1AC4214DB0020FBF71EFEF7
:104CF0000BE00020FBF71AFE002144F62062084674
:104D0000FBF73EFE0020FBF7A9FEBDE87040062041
:104D1000FEF7E4B8012008F04FF8DFE78038010023
:104D200070B500240520FEF787FD002141F2707266
:104D30000846FBF725FE41F294160420641CFEF79A
:104D4000CDF8050005D0B44211DB0020FBF7EEFDE5
:104D50000BE00020FBF7EAFD002144F62062084644
:104D6000FBF70EFE0020FBF779FE284670BD012000
:104D700008F022F8E1E700002DE9FC4103220025BC
:104D800062F3070000958DF8045001AB6A4600F00D
:104D9000FDF9134CC8B10120A075FEF7AFF92075DD
:104DA0000F20FCF7E3FB07461020FCF7DFFB06466D
:104DB0001120FCF7DBFB05461220FCF7D7FBC4E90A
:104DC0000350C4E90176BDE8FC819DF804006075DC
:104DD0000098B0F5487F00D82060A575DDE7000099
:104DE0002819002010B518210348FBF7F3F90348F0
:104DF00000210160416010BD281900205C030020E3
:104E0000002070472DE9F041044690460F460025EA
:104E1000C8B2FEF763F8002841D00B2C03D1002163
:104E20000B20FBF7E5FE204608F040FA0646E0B20C
:104E3000FEF702FD324641460020FBF7A1FD41F29C
:104E40008838F8B26D1CFEF749F8060009D04545D0
:104E50001CDB012640F24F32124913A006F016FC6B
:104E60000AE00B2C0ED0072C0CD0032C0CD0042CF9
:104E70000AD0642007F0A0FF0020FBF757FD0B2CA1
:104E800008D00BE01E20F5E70A20F3E7012007F029
:104E900093FFD6E701210B20FBF7AAFE3046BDE8C1
:104EA000F08100006FEF00085B4552524F52202501
:104EB000733A2564235D6D6F746F72206E6F206688
:104EC000696E64206C69676874200D0A0000000038
:104ED0002DE9F047054690460E460024C8B2DDF89D
:104EE0002090FDF7FBFF002835D00B2D03D10021CA
:104EF0000B20FBF77DFE284608F0D8F90746E8B2FC
:104F0000FEF79AFC3A4641460020FBF739FD41F294
:104F10008837F0B2641CFDF7E1FF70B1BC4211DBD1
:104F2000012440F293320D490DA006F0AFFB0020A2
:104F3000FBF7FCFC0B2D09D00CE00024484607F0E1
:104F40003BFFF4E7012007F037FFE2E701210B20E8
:104F5000FBF74EFE2046BDE8F087000084EF000816
:104F60005B4552524F522025733A2564235D6D6F85
:104F7000746F72206E6F2066696E64206C6967685A
:104F800074200D0A000000002DE9F0410F461C4678
:104F9000164605460699FBF72BFE23463246394650
:104FA0002846FFF72FFF044601212846FBF720FE85
:104FB0002046BDE8F08100207047704738B50125D4
:104FC000002444F620632A46022104200095FFF7BE
:104FD000DBFF08B1412038BD012249F640431146AC
:104FE00003200095FFF7D0FF08B1402038BD012213
:104FF000044B0F211046FFF705FF08B13F2038BDD5
:10500000204638BDC027090010B5072100244FF401
:10501000FA5301220846FFF7F5FE08B1422010BD01
:10502000204610BD10B5FEF7E3F9002819D1FFF7AF
:10503000EBFF040015D10F20FDF750FF28B942F215
:10504000107200210120FEF7EBFA0F20FDF746FF5A
:1050500030B10122044B0F211046FFF7D3FE08B1F7
:105060003F2010BD204610BDC027090010B5114CCF
:105070000F484FF4006120604FF4827060600020A0
:10508000C4E9020102212161012161614902A1619A
:105090003821C4E907106062A0620720E062204660
:1050A000FDF706F82068016841F04001016010BD7D
:1050B000003C0040101800200EB500200190029026
:1050C00001200346009002AA01A90748FDF7AAF8AB
:1050D0009DF809004FF6FF7101EA00209DF80810C5
:1050E000084480B20EBD0000101800202DE9F047E2
:1050F0001D4690460F460446FCF768FB06465FEAED
:1051000008004FF000084FF4005A4FF0010926D074
:1051100034E0681C23D025B1FCF758FB801BA84263
:105120001DD92068416821F0E001416020680168D4
:1051300021F040010160A06A504509D12068016852
:1051400021F4005101602068016841F400510160C0
:1051500084F8519084F850800320BDE8F0872068DF
:10516000806837EA0000D4D10DE0681C06D0002D1D
:10517000D7D0FCF72BFB801BA842D2D820688068D0
:1051800037EA0000F1D00020E7E7000070B50546DF
:10519000204665F30700FEF73FF9040004D0222201
:1051A000024903A006F072FA204670BD01F2000821
:1051B0005B4552524F522025733A2564235D666148
:1051C000696C200D0A00000010B50346104663F319
:1051D0000700FEF740F9040004D01322024903A09F
:1051E00006F054FA204610BDCDF100085B4552523E
:1051F0004F522025733A2564235D6661696C200D4A
:105200000A00000070470000054928B1012802D1BA
:1052100001F10C008860704701481430FAE7000083
:10522000E40200202DE9F04782466420A2B0002766
:1052300002FB00F488463E46F0221F491FA020973B
:1052400006F024FA234DDFF890902E70C9F8006024
:10525000FDF784FF00F0A2F80BE0287830B11F4A78
:105260002E7020A912686846904704E00A2007F0D3
:10527000A3FD641EF1D2209A42B169465046FAF766
:1052800082FF2098401EC8F8000008E04FF0FF376A
:10529000C8F80060FBF75CFE2E70C9F8006040F2B1
:1052A0000D1205490EA006F0F1F9FBF7A7FE22B09A
:1052B0003846BDE8F0870000E6F000085B25733A49
:1052C0002564235D7374617274207363616E200DB5
:1052D0000A000000C9020020CC020020E4020020E5
:1052E0005B25733A2564235D656E64207363616E8C
:1052F000200D0A000023024A19460220FBF74CBB8E
:10530000400D03000A4910B50122C1E90102A0F2D3
:105310006310FBF77AF9074A074BFBF7F6F8002210
:10532000064BFBF7EFF8FBF795F90549086310BD4D
:10533000A00200205C8FC2F5285CEF3F000079409E
:10534000D00800200A4A0A2808D00B2809D00C28C7
:105350000AD00D2801D1C2F8B4117047C2F8A811C3
:105360007047C2F8AC117047C2F8B0117047000026
:1053700000002442084A0F2807D0102807D011281F
:1053800007D0122800D1D16070471160704751607A
:105390007047916070470000C00100201CB54C2090
:1053A0008DF800004F208DF801004E208DF802008E
:1053B0000D208DF803000A208DF80400FBF782FD14
:1053C000064A0521684652689047642007F0F4FCBD
:1053D000C422034903A006F059F91CBDE4020020D1
:1053E000D0F000085B25733A2564235D5343414E9A
:1053F0002053544152540D0A0000000010B5FBF731
:105400004DFF002808D10120FBF7B0FE002803D192
:10541000BDE81040FBF7FEBE10BD30B58FB00121D6
:1054200000910225090400240795CDE90114CDE976
:1054300008106846FCF77EFB00B1FEE70F20CDE9BF
:105440000A054FF48060CDE90C4002210AA80E94B1
:10545000FCF736FA002800D0FEE70FB030BD7047E9
:1054600010B5FBF71BFF002807D1FBF77FFE0028D4
:1054700003D1BDE81040FBF7CDBE10BD0020704742
:1054800000207047401EB0F1807F01D3012070479B
:105490004FF0E0214861054AF02082F8140D002009
:1054A0008861072008610020704700000FE000E0DD
:1054B000FCF792B90D48016841F0010101604168B3
:1054C0000B4A1140416001680A4A114001600168BD
:1054D00021F480210160416821F4FE0141604FF414
:1054E0001F0181600449C00308607047001002403A
:1054F0000000FFF8FFFFF6FE08ED00E00D4810B5D4
:105500000068C168C943C9070FD18A1E02610A4CED
:1055100020466168491C6160A3680078994205D300
:105520000020C4E901020120607010BD06F0D2F82D
:10553000E06010BD40190020680300200D4810B540
:105540000068C168C943C9070FD18A1E02610A4CAD
:1055500020462169491C216163698078994205D3FD
:105560000020C4E904020120E07010BD06F0B2F88A
:10557000A06110BD7C19002068030020084908685C
:10558000C268D243D20705D142620A6842F20F7064
:10559000D062C86009686FF00100086170470000C0
:1055A000D406002010B50123046A8B409C4304629A
:1055B000036A8A401343036210BD30B50125039C82
:1055C000057001824182C2600375002181614460DF
:1055D000C16180F8201080F82410816280F82C10BE
:1055E000C186016381860172084630BD30B58BB03B
:1055F0000446022202703948C4F868053848C4F8E5
:1056000064053848C4F860050020C4F8C80204F5F1
:105610002071C4F8CC02C4F8D00248658865C8651A
:105620004FF4E131C4F8241284F8C302FF2184F856
:10563000AC1284F8C00284F8C102052184F8C212B9
:1056400041F28831C4F834124FF47A71C4F8381238
:1056500084F83C02C4F8F80284F8FD03C4F8300270
:1056600084F8FF2384F80104A4F80405A4F80605CF
:10567000012184F80815C4F80C0584F8100584F895
:105680001115042184F8121584F8130584F8140503
:1056900004F5A461C4F818150825A4F81C55A4F84D
:1056A0001E0584F8400584F84105C4F8E80220226C
:1056B0000D496846FAF767FDADF82450CDF820D0C3
:1056C000ADF8265008AA0221204605F00BFA0BB0CF
:1056D0002046BDE8304005F008BA00001176000809
:1056E000799000080187000888F1000870B50D4620
:1056F00004464FF486710948FAF76CFD0848C4E97E
:1057000000500848A0600848E06008482061084848
:1057100060610848A061002070BD0000D414002022
:10572000A5E7000851E80008A9E700086DE80008AF
:1057300071E80008A1E700082DE9F04F8FB00E4690
:105740001899DDE9195B09788DF818109BF800109D
:105750001C468DF81C100027337800F5E271BA461C
:105760004FF0010E4FF01709052B7DD006DC052BFD
:105770000CD2DFE803F00F2C9AD1EB00062B74D08B
:10578000072B73D01A2B48D03B2B70D0F7480FB0A3
:10579000BDE8F08FD369C96E03F10808137D9269E3
:1057A000CDE90231CDE9009207AE0496ABB206AA6C
:1057B000214608F06FF8D8F800300746002293F829
:1057C0003F00009006A9204602F0A4FC2EE2D66914
:1057D00016F8083F032B01D981F84FE3CB6E117DFA
:1057E0000DF1080807AF926988E88A00CDE90092B8
:1057F000ABB206AA214608F04DF8317A72680092E1
:10580000CDE9011A0746CDF80CA033784FF4FA62BF
:1058100006A9204602F062FB08E2DFF8548388F80C
:1058200000E0D669737D0836022B28D07369CB66F9
:10583000CB6E117D0DF1080C07AF92698CE88A00E0
:10584000CDE90092ABB206AA214608F023F807463C
:10585000317B307A726801AB0092554683E82300B1
:1058600033784FF4FA6203E08AE0A9E0CAE0E7E0A7
:1058700006A9204602F032FB88F80050D6E196F8DF
:10588000303063F3070796F8313063F30F27738ED8
:105890004FEA132C6CF31747DBB263F31F673FBA71
:1058A00027F0FF071F43CF66C2E7D669137DC96E95
:1058B0009269CDE90231CDE9009207AF0497ABB20E
:1058C00006AA2146083607F0E5FF7168CDE9001AFF
:1058D00007463378002206A9204602F051FB00203B
:1058E00016E0B1689DF8182031F81010090AA1548B
:1058F0009DF81810491CC9B28DF81810B26812F83A
:10590000102062549DF81810491C8DF81810401C86
:10591000F1898142E5DC89E1D669137D9269F168FC
:10592000CDE90092CDE9023107AF0497ABB206AAE8
:10593000214607F0AFFF7189CDE9001A0746338988
:10594000002206A9204602F099FB6FE1D36902AF5D
:1059500003F10808CB6E117D07AE926987E84A0013
:10596000CDE90092ABB206AA214607F093FF0746A5
:10597000002206A92046D8F8003002F047FB55E186
:10598000D669137DC96E9269CDE90231CDE90092E5
:1059900007AF0497ABB206AA214607F07BFFF28A55
:1059A0003169CDE9021A01920746CDF810A0F068DE
:1059B0000090337A002206A9204602F00AFA35E167
:1059C000D669137DC96E9269CDE90231CDE90092A5
:1059D00007AF0497ABB206AA214607F05BFFF28A35
:1059E00031690292CDE9031ACDF814A00746F16897
:1059F000707ACDE90001337A002206A9204602F030
:105A000073F913E1D669137DC96E9269CDE902314C
:105A1000CDE9009207AF0497ABB206AA214607F082
:105A200039FF317C327A0092CDE9011A0746CDF870
:105A30000CA0002206A92046F36802F0F1F8F5E078
:105A4000B389012B02D0022B0AD09BE0B168189ECB
:105A5000234609680096CDE9015BFFF76DFE96E6E7
:105A6000B3681E6896F800C0BCF1020F03D0BCF109
:105A7000000F7FD086E05B6893F800C0BCF1010F97
:105A800079D10093D6E9033896F808C07669CDF845
:105A900020C0CDE90936009B083393E848100593F0
:105AA000CDE90C6C80F85BE5137DC96E9269CDE998
:105AB0000231CDE9009207AE0496ABB206AA2146A8
:105AC00007F0E8FE099BCDE9003ADDF820C0AAB254
:105AD0000CF0FF0306A9204602F052FA0A9E0020AD
