:020000040800F2
:10000000D024002045010008114000089B3300085F
:10001000713F0008D10B0008C5C2000800000000B5
:10002000000000000000000000000000815B0008EC
:10003000D11500080000000029420008295E0008D0
:100040005F0100085F0100085F0100085F01000810
:100050005F0100085F010008E1150008151600089F
:100060001B160008211600085F0100085F01000848
:100070005F0100085F0100085F0100085F010008E0
:100080005F0100085F0100085F0100085F010008D0
:100090005F0100085F0100085F01000827160008E3
:1000A0005F0100085F0100085F0100085F010008B0
:1000B0005F010008755E00083D5F00085F010008F1
:1000C0005F0100085F0100085F0100085F01000890
:1000D0005F010008B5BF0008E1BF0008C9C0000803
:1000E000E71500085F0100085F0100085F010008D4
:1000F0005F0100085F0100085F0100085F01000860
:100100005F0100085F010008E55F00085F0100086B
:1001100015BA000865BB00085F0100085F01000810
:100120005F0100085F0100085F0100085F0100082F
:10013000DFF80CD000F080FC0048004731ED0008EB
:10014000D02400200648804706480047FEE7FEE727
:10015000FEE7FEE7FEE7FEE7FEE7FEE7FEE7FEE777
:100160002D5E000831010008202A04DB203A00FA45
:1001700002F1002070479140C2F1200320FA03F3FE
:1001800019439040704710B5431A934209D283181F
:10019000881803E010F8011D03F8011D521EF9D262
:1001A00010BD40EA01039B0703D009E008C9121FF4
:1001B00008C0042AFAD203E011F8013B00F8013B21
:1001C000521EF9D210BDD2B201E000F8012B491E37
:1001D000FBD270470022F6E710B513460A460446E4
:1001E0001946FFF7F0FF204610BD10B5044604E0A5
:1001F0000B7800F8013B03B1491C521EF8D220468F
:1002000010BD421C10F8011B0029FBD1801A704759
:1002100010B5002200E0521C835C8C5CA34201D12B
:10022000002BF8D1D8B2E1B2401A10BD30B5054666
:100230000020034600E05B1C934205D2EC5CC85CE6
:10024000201A01D1002CF6D130BD000070B50F4D41
:1002500000B92868002412E00A4602E09E4203D05A
:10026000521C1378002BF9D1DAB2224305D02BB1FE
:1002700024B1002100F8011B04E00446401C06786C
:10028000002EE9D12860204670BD000084030020C4
:10029000F0B480EA0102D40F4200B2EB410F02D267
:1002A0000246084611464A0042D0C30DDDB2C1F3F2
:1002B000C752AD1A202D35DAC1F3160141F4000200
:1002C00004B15242C5F1200602FA06F12A41104457
:1002D000B3EBD05F23D0C4B1012DA0EBC35009DC38
:1002E000F0BC4FF0004202EAC352DBB200F500005E
:1002F00000F0FEBA400000F1807000EBC350A0F1A6
:10030000807040EAD170490009E0490841EAC071B3
:10031000A0EBC35000F50000400800EBC350F0BC58
:1003200000F0DDBA6142012202EB4101001BF6E759
:10033000F0BC704781F00041AAE780F00040A7E7D9
:1003400080EA010210B502F00043400022D04A00CA
:100350001FD0010E01EB1261C0F35600C2F356022A
:1003600040F4000042F40002A0FB022000047F39A8
:10037000140400D0401C50EA124001D44000491E31
:10038000C2B20C0604EBD010401C4008802A02D0F8
:1003900003E0002010BD20F00100002900DA002059
:1003A000184310BD420005D0C0F3C75252429142DB
:1003B00001DC0020704700EBC15070472DE9FE4F73
:1003C000804681EA0300C00F0C46009021F00041F6
:1003D00023F00045B8EB0200A94105D24046214672
:1003E00090461C460B46024623F00040104347D07F
:1003F000270DC7F30A00C3F30A510290401A019077
:1004000040286BDAC3F3130040F4801B0098924637
:1004100020B10023D2EB030A63EB0B0B0198594682
:10042000C0F140025046FFF79FFE06460D4650467B
:100430005946019A00F041FA10EB0800614100248E
:1004400087EA115284EAE7731A4340D0009A62B3F4
:10045000019A012A4FEA075215DC001B61EB0201E9
:100460004FF0004202EA0752CDE90042001C41F57C
:10047000801132462B4600F078FA03B0BDE8F08FC9
:1004800040462146F9E7001B61EB0201001C41F5E3
:10049000801300185B412018A2F5001747EB0301F9
:1004A00040EAD570B6196D4111E06D084FEA360685
:1004B00045EAC0754FEA0752001B61EB0201001CC0
:1004C00041F5801149084FEA300000195141324688
:1004D0002B4603B0BDE8F04F00F038BA0098012277
:1004E00040000023D0EB020263EBE073009821464A
:1004F0004FEAE074B8EB000061EB0401E9E783F038
:1005000000435BE781F0004158E72DE9FE4F81EAA7
:10051000030404F0004421F0004100944FF0000B6C
:1005200023F0004350EA01045ED052EA03045BD09A
:10053000C3F30A54C1F30A552C44A4F2F3340194D2
:10054000A0FB0254C1F3130141F48011C3F3130360
:1005500043F4801301FB024400FB034E840A970A14
:1005600044EA815447EA8357A4FB076802958D0A41
:1005700005FB07854FEA932C04FB0C542705029DCD
:100580004FEA065847EA1637B5EB08056EEB070C3D
:10059000870E920E47EA811742EA8312A7FB0201F7
:1005A000B6EB0B0164EB00042B0D43EA0C335E1831
:1005B00044EB1C50DA465146E7FB0201C5F3130435
:1005C0004FEA0B3343EA14534FEA0432019C43EAE7
:1005D0000603A4F10C040294009CCDE900B400F0E1
:1005E000C4F903B0BDE8F08F00200146F9E72DE91A
:1005F000F04D81EA030404F0004B21F0004514465D
:100600004FF0000A23F0004150EA050220D054EADE
:1006100001021DD0C5F30A570246C5F31303C1F307
:100620001300C1F30A5640F4801543F48013A7EB7E
:100630000608101BD64608F2FD3873EB050002D3FE
:1006400008F1010801E092185B41B8F1000F03DAEC
:1006500000200146BDE8F08D00204FF480110646D1
:1006600084460EE0171B73EB050705D3121B63EBE3
:10067000050306434CEA010C49084FEA3000921882
:100680005B4150EA0107EDD152EA030012D082EA41
:10069000040083EA0501084305D0101BAB4106D2D4
:1006A0000122002306E000224FF0004302E06FF039
:1006B000010253101AEB06004CEB085110EB0A0034
:1006C00041EB0B01BDE8F04D00F040B970B521F0F1
:1006D000004303430CD0C1F30A550024D5EB0405B5
:1006E00064EB0403D617AD1AB34102DB00200146C8
:1006F00070BD201841EB025170BDC10F80EAE0705F
:100700000844CA079623002100F0F2B8962300227D
:10071000114600F0EDB80EB5C10F80EAE070084454
:10072000CA07002140F233438DE80E000A460B460B
:1007300000F01BF903B000BD0EB540F23341029149
:100740000021CDE900110A460B4600F00EF903B076
:1007500000BD20F00040C10DC0F3160040F40000C1
:100760007F2901DA00207047962903DCC1F1960148
:10077000C840704796398840704770B5C1F30A5237
:1007800001F000450024C1F3130140F2FF3341F4AE
:1007900080119A4201DA002070BD40F233439A4240
:1007A000A2F2334203DC524200F077F800E09040BE
:1007B0002C43F1D0404270BDC1F30A5210B5C1F3D1
:1007C000130140F2FF3341F480119A4201DA002014
:1007D00010BD40F233439A42A2F2334203DC52424C
:1007E00000F05BF810BD904010BD01F0004330B444
:1007F00021F0004150EA010206D00A0DA2F5607214
:10080000C1F31301002A02DC30BC00207047440F02
:1008100044EAC104C100E01830BC00EBC25000F053
:100820005EB80000002801DBC0F10040002901DBB8
:10083000C1F10041884270472DE9F05F0546002074
:1008400092469B4688460646814640241BE0284641
:1008500041464746224600F020F853465A46C01A01
:10086000914110D3114618462246FFF77DFC2D1A00
:1008700067EB01084F46224601200021FFF774FC78
:1008800017EB00094E41201EA4F10104DFDC4846AD
:1008900031462A464346BDE8F09F202A04DB203A31
:1008A00021FA02F00021704721FA02F3D040C2F190
:1008B00020029140084319467047202A06DBCB17D7
:1008C000203A41FA02F043EAE07306E041FA02F30B
:1008D000D040C2F1200291400843194670470029D8
:1008E000A8BF7047401C490008BF20F001007047B6
:1008F00010B4B0FA80FC00FA0CF050EA010404BF16
:1009000010BC704749B1CCF1200421FA04F411FA6B
:100910000CF118BF012121430843A3EB0C01CB1DAF
:100920004FEA00614FEA102042BF002010BC704720
:1009300000EBC35010440029A4BF10BC7047401CFA
:10094000490008BF20F0010010BC704710B5141E0C
:1009500073F1000408DA401C41F1000192185B4178
:100960001A4301D120F0010010BD2DE9F04D92464F
:100970009B4611B1B1FA81F202E0B0FA80F2203266
:100980009046FFF7F1FB04460F4640EA0A0041EAB1
:100990000B0153465A46084313D0114653EA01004F
:1009A00019D0C8F140025046FFF777FF05460E46C2
:1009B000504659464246FFF7D7FB084305D0012071
:1009C00004E020463946BDE8F08D0020054346EAA4
:1009D000E0762C4337430A986305E40AA0EB08004D
:1009E0000022FD0A44EA47540A3002D5002001469D
:1009F000E9E7010510196941DDE908450019694178
:100A0000BDE8F04DA2E7000030B5041E71F100040E
:100A100004DB4FF00044404264EB0101141E73F10B
:100A2000000405DB1C464FF00043524263EB040315
:100A3000994208BF904230BD064C074D06E0E06881
:100A400040F0010394E8070098471034AC42F6D315
:100A5000FFF772FB640701088407010870B58C1862
:100A600010F8015B15F0070301D110F8013B2A11C2
:100A700006D110F8012B03E010F8016B01F8016BAF
:100A80005B1EF9D12B0705D40023521E0DD401F8AB
:100A9000013BFAE710F8013BCB1A921C03E013F874
:100AA000015B01F8015B521EF9D5A142D8D30020A9
:100AB00070BD00001CB5002403460094032201A968
:100AC0006846019404F0B8FF9DF804009DF80620E4
:100AD00044EA8010C1B29DF8050041EA900144EA61
:100AE0008010C0B240EA92024FF6FF7000EA012087
:100AF0001043FFF721FE0022034BFFF706FDFFF72F
:100B00005BFE80B21CBD00000088A33F034949681A
:100B100019B1D1F8F01001B10847FEE79C0100209F
:100B20000449496811B1896C01B1084740F61200C7
:100B3000FFF7ECBF9C01002070B504460D46C0B223
:100B400000F030FBE0B22946BDE8704000F08ABCFE
:100B500070B50D4614460646194600F083FC224641
:100B600029463046BDE8704000F016BC70B5002440
:100B70004EF660252A462146052000F00DFC2A4647
:100B80000021062000F0DEFB052000F00BFB062014
:100B900002F0F4FE00B90224042002F0EFFE08B9CE
:100BA00044F00404204670BD10B5A0B000236A468E
:100BB00006E0CC1A044414F8014CD4545B1CDBB29C
:100BC0008B42F6D30A466946FFF7DDFA20B010BD26
:100BD000FEE70020704710B50024FFF7FAFF00B1D0
:100BE000102400F005F808B144F00804204610BDB8
:100BF0000020704730B501784278C378114482787C
:100C00001A44114402791144427911448279114401
:100C1000C2791144027A1144427A1144827A114411
:100C2000C27A1144C9B20A22B1FBF2F302FB1314D7
:100C30006423B1FBF3F503FB1515B5FBF2F2B1FB31
:100C4000F3F130343032047342733031817330BD8C
:100C500010B53022024903A00BF060FB002010BD4C
:100C6000CF0301085B25733A2564235D796F7520F6
:100C7000686176652063686F6F7365204465666997
:100C80006E6520426F617264204F4B20696E205B5D
:100C9000636F6E6669672E685D2E200D0A00000086
:100CA00030B587B0054600F04DF818220B4968466C
:100CB000FFF769FA094C103C94E80F000DF0F4FEC0
:100CC000E8B203F0B3FAA4F1640004F009F807B045
:100CD0000020BDE83040FFF723BF0000A007002040
:100CE00070B5002441F270752A4600210620641C6C
:100CF00000F028FB052002F041FE002801D1022C63
:100D0000F2DB70BD70B5002441F270752A460021F7
:100D10000520641C00F016FB032002F02FFE0028C3
:100D200001D1022CF2DB70BD10B54FF4AA7103485B
:100D3000FFF750FA02490020087010BD6C13002024
:100D4000040300202DE9F84F064600200C460090D1
:100D500028216C48FFF73EFA6A4D0021DFF8A8C150
:100D60002E706A4FDFF8A8E1DFF8A8A16A4A6B4845
:100D70006B4B4FF008094FF07E5B69610C2E75D20A
:100D8000DFE806F0BB061A41505F5F69758291AFDC
:100D900085F804906349A960AB61E960C5E9073251
:100DA0006B62002C05D0012C02D0022C02D0A6E0F0
:100DB0005D4891E05D488FE085F804905948A8604F
:100DC000AB61E860C5E907324E4E594828366B6280
:100DD0002861012C01D054B191E03089FFF796FCD5
:100DE000A8607089FFF792FCE860F08808E07088DE
:100DF000FFF78CFCA860B088FFF788FCE8603088BB
:100E0000FFF784FC68E02971AA61C5E9072BC5F8E2
:100E100008C06A62C5E903C13CB3012C5CD0022C56
:100E20005AD06CE02971AF61C5E9077BC5F808C0ED
:100E30006F62C5E903C0ACB3012C60D1C5F810E006
:100E40005DE02971AF61C5E9077BC5F808C06F6235
:100E5000C5E903CE53E029713648AF61C5E9077093
:100E60003548A8606F62E860344835E045E085F8B1
:100E700004903348A861C5E90702C5F808A0C5F881
:100E80000CA068622F4827E085F80490AB61C5E9A3
:100E900007322C48C5F808A0C5E903A02A486B62B0
:100EA000D4B1BAE72BE085F804902848A861C5E9D9
:100EB0000702C5F808C0C5F80CC0686224B1012C4F
:100EC00009D0022C0AD01AE02148A861C5E907031D
:100ED0006862204800E02048286110E0C5F810A0B2
:100EE0000DE029711349AF61C5E90771C5F808A084
:100EF0006F62C5E903A314B18FE701200090009849
:100F0000BDE8F88F9007002000409C450000A041FC
:100F10000000484300803B450000204100007A4427
:100F20000000C84200606A460000FA440080BB45E9
:100F300000007A450000A04000002F440000484215
:100F400000003E430080BB4400803B440000164349
:100F50000000F042000016440000964410B5002145
:100F6000022000F091FD044C00212060022000F0DE
:100F70009FFD606010BD0000E802002010B5012157
:100F8000022000F081FD044C01212060022000F0CD
:100F90008FFD606010BD00004803002010B50446BE
:100FA00000F0F0FC2CB100F025FDBDE8104000F091
:100FB000A7BC00F0C1FBF8E72DE9F04F564C85B017
:100FC000A06940F48070A061A06900F48070049072
:100FD000A06940F02000A061A06900F0200004900A
:100FE000A06940F00800A061A06900F0080004902A
:100FF000A06940F04000A061A069022600F0400016
:10100000CDE903604FF470480125CDE900856946BC
:10101000424800F0C3FE4FF4FE79CDE900956946E1
:101020003F48039600F0BAFE4FF47067CDE90075B3
:1010300069463C48039600F0B1FE4FF46C4ADFF875
:10104000E8B0CDE900A569465846039600F0A6FE33
:1010500000224946324800F09CFF002239463148C0
:1010600000F097FF00225146584600F092FF002200
:1010700041462A4800F08DFFA714CDE90075694666
:101080002848039600F08AFE00223946254800F0E1
:1010900080FFE06940F00200E061E069234F00F06A
:1010A00002000490786840F440607860A06940F0E5
:1010B0001000A061A0694FF0030800F01000049038
:1010C0004FF47070CDE90006CDE902586946184822
:1010D00000F064FEE06940F00400E061E06900F0C7
:1010E00004000490786840F480507860A06940F073
:1010F0002000A061A069CDE9025800F02000049012
:101100004FF46040CDE900066946064800F046FE0F
:1011100005B0BDE8F08F000000100240001801404B
:101120000020014000140140000C0140000001407B
:101130000010014010B5FFF73FFF40F2833401215A
:10114000204600F0D1F90121204600F00BFA1448A6
:101150000068C16841F00101C160012203211D2026
:1011600000F064FF1D2000F04BFF0D483C3000688C
:10117000C16841F00101C160022203211E2000F07C
:1011800055FF1E2000F03CFF0124E0B2012100F0D9
:1011900069F9E0B200F068F9641C0C2CF5DB10BDB5
:1011A0004019002010B5044600210BF0BBFA082CB2
:1011B0000BD2DFE804F00A04130F110615170C21F7
:1011C00000E00821094801F065FE2046BDE8104016
:1011D00000F04AB90421F5E70021F3E70C2102E011
:1011E000082100E0042101483C30ECE740190020D0
:1011F0002DE9F04106464F4C0C2E0AD2DFE806F0EE
:10120000090806080808060608080606A67000E091
:101210002670304600F0DCF830460BF041FA464DBF
:10122000082E05F13C077DD2DFE806F08104482650
:1012300037145869002120780BF0D4F8E06010B121
:101240002968C862E8602868C06A3C4940080860AC
:101250000C210FE0002120780BF0C4F8E06010B101
:101260002968C862E8602868C06A34494008091FD4
:1012700008600821304854E0002120780BF0B2F8D3
:10128000E06010B12968C862E8602868C06A2B492C
:101290004008083908600421ECE7002120780BF0B1
:1012A000A1F8E06010B12968C862E8602868C06AE7
:1012B000224940080C3908600021DBE70021A078B2
:1012C0000BF090F8A06110B13968C862F860386816
:1012D000C06A1B49400808600C2120E00021A0786A
:1012E0000BF080F8A06110B13968C862F860386806
:1012F000C06A13494008091F086008210FE0002157
:10130000A0780BF06FF8A06110B13968C862F8607E
:101310003868C06A0A49400808390860042106484C
:101320003C3000E003E0BDE8F04101F061BDBDE804
:10133000F0810000680300204019002040040040B4
:101340004008004070B5044600F034F8114D0A2CF6
:1013500007D00B2C05D0022C03D0062C01D0072C73
:1013600001D1E87868B9012C09D0052C07D0032CED
:1013700005D0042C03D0082C01D0092C06D16878A4
:1013800020B12046BDE87040FFF70CBF01200DF0F2
:1013900017F8DCE76803002070B50D4614460646D2
:1013A00000210BF0BFF9224629463046BDE87040C7
:1013B0000BF0CEB970B50D461446064601210BF070
:1013C000B1F9224629463046BDE870400BF0C0B95D
:1013D000F0B401221F4B204C204D214E082835D25D
:1013E000DFE800F034040B121920272EC3F89821EF
:1013F000C3F89C21C3F8A01128E0C4F8B421C4F8B4
:10140000B821C4F8BC1121E0C5F8AC21C5F8B02161
:10141000C3F888111AE0C5F8A021C5F8A421C5F8C1
:10142000A81113E0C3F88C21C3F89021C3F89411DC
:101430000CE0C6F8BC21C4F8A821C4F8AC1105E042
:10144000C6F8B021C6F8B421C6F8B811F0BC3220F5
:101450000CF0C4BF000024420080214200802242E0
:10146000000023420BF090B92DE9F04104463220F0
:101470000CF0B4FF002201211748184E184B194DEB
:10148000082C09D2DFE804F008040A0F14191E23FF
:10149000C0F89821C0F89C11BDE8F081C6F8B421CD
:1014A000C6F8B811F8E7C3F8AC21C3F8B011F3E7F8
:1014B000C3F8A021C3F8A411EEE7C0F88C21C0F84E
:1014C0009011E9E7C5F8BC21C6F8A811E4E7C5F812
:1014D000B021C5F8B411DFE70000244200802142AA
:1014E000008022420000234270B505461C4A1B487A
:1014F000002482E833001046146101F05CFC1849B6
:1015000070207831082208606808C1E90104144895
:1015100001F0E9FB12490C227831114801F0E3FB9C
:1015200008210F4801F0B6FC0C210D4801F0B2FC77
:101530000B49002278310A4801F0D5FB0849042202
:101540007831074801F0CFFB0021054801F0A2FCEB
:10155000BDE870400421024801F09CBC000400403A
:101560004019002070B50546174A1648002482E845
:1015700033001046146101F01EFC134970203C3109
:10158000042208606808C1E901040F4801F0ABFBC0
:101590000D4908223C310C4801F0A5FB0A490C22F8
:1015A0003C31094801F09FFB0421074801F072FC1F
:1015B0000821054801F06EFCBDE870400C2102488E
:1015C00001F068BC000800407C1900200020704732
:1015D000704700000148406806F0FBBE040300208D
:1015E000012000F0D1BB10B54FF4806000F0CCFBBF
:1015F0004FF4006000F0C8FB4FF4005000F0C4FB53
:101600004FF4804000F0C0FBBDE810404FF40040B4
:1016100000F0BABB022000F0B7BB042000F0A8BB6A
:10162000082000F0A5BB10B5202000F0ADFBBDE800
:1016300010404FF4807000F0A7BB000030B5A3B09D
:101640004C208DF880004F208DF8810046208DF8C9
:1016500082008DF883000D208DF884000A208DF81B
:10166000850000202290FFF779FC124C062120A86B
:101670006268904764200CF0A3FE226822A96846A5
:10168000904700246D4606E02B5DDF220A490BA03F
:101690000AF044FE641C22988442F5DBE2220649EB
:1016A00009A00AF03BFEE42203490AA00AF036FE34
:1016B00023B030BDE8020020080601085B25733A1C
:1016C0002564235D256300005B25733A2564235D53
:1016D0000D0A00005B25733A2564235D5343414E98
:1016E00020454E440D0A00004FF416500AF07CB815
:1016F0004FF416500AF078B80D4810B5816986B0DD
:1017000041F04001816180690A4C00F04000049082
:1017100000222021204600F03CFC202100910121E4
:10172000019103916946204600F038FB06B010BDD8
:101730000010024000180140F0B50FA0A5B007C886
:1017400020AB002683E847000E4F4FF4FA740A21BD
:101750007A6820A890470C4D04E0287820B9012031
:101760000CF02EFE641EF8D23A6823A96846904712
:101770002E7025B00020F0BD233939393030303497
:10178000303B0000E0020020A80100200EB508A1B7
:101790000EC98DE80E0018B908A007C88DE807002B
:1017A000094A0A2168465268904700200EBD000091
:1017B0002339393930303033323B0000233939395D
:1017C00030303033313B0000E00200202DE9F041A1
:1017D0001AA0A4B007C820AB4FF0000883E80700A8
:1017E00019A04FF4FA74066880216846CDF88C8001
:1017F000FEF7F0FC154F0A2120A87A689047144D97
:1018000004E0287820B901200CF0DAFD641EF8D23B
:101810003A6823A96846904785F8008023980A28EB
:1018200008D19DF80000F1B2884203D1002024B015
:10183000BDE8F0814FF0FF30F9E700002339393976
:1018400030303131363B000021000000E002002042
:10185000A80100202DE9F043804620A0A7B007C8CA
:1018600020AB4FF0000983E807001FA023AB07C897
:1018700083E807001FA04FF4FA74066880216846C9
:10188000CDF89890FEF7A6FC1B4D1C4FB8F1000F49
:101890004FF00A0101D020A800E023A86A68904711
:1018A00004E0387820B901200CF08AFD641EF8D2DB
:1018B0002A6826A96846904787F8009026980A2843
:1018C00008D19DF80000F1B2884203D1002027B072
:1018D000BDE8F0834FF0FF30F9E7000023393939D4
:1018E00030303033353B0000233939393030303334
:1018F000363B000021000000E0020020A80100208B
:10190000F0B517A087B00068049016A00026006804
:10191000154F009603960196029605907A684FF44B
:10192000FA74042104A89047104D04E0287820B9E7
:1019300001200CF045FD641EF8D23A6803A9684600
:1019400090472E700398042806D10422694605A802
:10195000FEF76CFC002801D04FF0FF3007B0F0BD5F
:10196000252525255E5E5E5EE0020020A7010020A1
:1019700010B500F007F8FFF729FFBDE81040FFF7AA
:10198000BFBF0000F0B517A087B00068049016A094
:1019900000260068154F0096039601960296059062
:1019A0007A684FF4FA74042104A89047104D04E0BB
:1019B000287820B901200CF003FD641EF8D23A68A3
:1019C00003A9684690472E700398042806D1042284
:1019D000694605A8FEF72AFC002801D04FF0FF3029
:1019E00007B0F0BD2424242440404040E002002001
:1019F000A6010020F0B50FA0A5B007C820AB0026B7
:101A000083E847000E4F4FF4FA740A217A6820A841
:101A100090470C4D04E0287820B901200CF0D0FC50
:101A2000641EF8D23A6823A9684690472E7025B004
:101A30000020F0BD2339393930303034313B0000DB
:101A4000E0020020A801002070B502F08DF90446E4
:101A500003F070FF40EA040502F0BAF940EA050419
:101A600003F08EFF40EA040500F04CF8284370BDF7
:101A70000148C06870470000A002002001480078BB
:101A800070470000A002002010B504460AF096FB43
:101A900018B9022C03D0032C03D0002010BD02483B
:101AA00010BD024810BD000039B90008A5B90008F2
:101AB00010B504460AF082FB18B9022C03D0032C9F
:101AC00003D0002010BD024810BD024810BD000028
:101AD00085B90008D9B9000810B50F2000F0ACF89E
:101AE0000446102000F0A8F844EA4004112000F059
:101AF000A3F844EA8004122000F09EF844EAC000F3
:101B0000C0B210BD10B50024052001F037FF00B9A8
:101B10002024062001F032FF08B944F040040320DD
:101B200001F02CFF08B944F08004042001F026FFE6
:101B300008B944F48074092001F020FF08B944F486
:101B40000074082001F01AFF08B944F480640B20E7
:101B500001F014FF08B944F400640A2001F00EFFFC
:101B600008B944F48054102001F008FF08B944F487
:101B70000054204610BD00002DE9F041A2B00F46F0
:101B800006460024802101A8FEF724FB01F0DCFFBB
:101B90004FF47A701B4D0090052369781A48AA68A3
:101BA00004F044FB184A2121686809F0D5FD0022A1
:101BB0004FF4FA71686808F0E1FE8046686806F044
:101BC00057FDC0B910496868383106F09FFC0E4CCB
:101BD000804638340C4814F83F1F01AA383009F009
:101BE0004FFB20784400202C00DD2024224601A950
:101BF0003846FEF7C8FA3470FFF77AFD22B0404647
:101C0000BDE8F08104030020E00F002010B503F0D0
:101C100067FD0148006810BD6003002010B5044650
:101C200003F05EFD2046BDE8104018220149FEF792
:101C3000AABA00002819002070B5054600240CF04F
:101C400039FE0B490F2D06D0102D06D0112D06D0D0
:101C5000122D0AD105E0096804E0496802E08968AC
:101C600000E0C968884200DB0124204670BD000006
:101C7000C00100200CF01EBE70B50C4601461D468A
:101C800016460F2004F03EF82146102004F03AF8E2
:101C90003146112004F036F82946BDE87040122084
:101CA00004F030B831B500F079F9044600F076F967
:101CB0000099001B8842F9D338BD000010B52B4CA9
:101CC00001460129A06821D0B1F5006F29D0202953
:101CD0002AD0B1F5807F2AD0B1F5004F2AD0022951
:101CE00033D0B1F5005F33D0B1F5804F3BD0B1F5C3
:101CF000806F18D1002101F087FDA08880B20CF020
:101D00005FFB0720BDE81040FFF74CBA02280AD15C
:101D1000002101F079FDA08880B20CF051FB042075
:101D2000F0E70828F4D010BD0928F1D010BD05282F
:101D3000EED010BD0128FCD1002101F065FDA08886
:101D400080B20CF03DFB0320DCE70328F4D010BD8B
:101D50000F28FCD1002101F057FDA08880B20CF0C3
:101D60002FFB0120CEE71028F4D010BDB4010020D5
:101D7000044910B50A68024202D00860FFF79EFFCE
:101D800010BD00001404014003490A68024202D059
:101D90000860FFF793BF7047140401402DE9F84F26
:101DA000DFF8BC91002309F1040A0AF1040B1C4678
:101DB0004FF00F080BF1040E01270A68A7403A40C4
:101DC000BA4272D1DFF89CC14D68A5EB0C0665459F
:101DD0002BD00DDC032D34D005DC35B3012D19D00B
:101DE000022D2FD11BE0112D16D0122D2AD119E072
:101DF000B6F5881F19D006DCB6F5803F15D0B6F5CC
:101E0000801F1FD111E0B6F5001F0ED0B6F5041FDC
:101E100018D10AE0CB6815E0CB681B1D12E0CB6837
:101E200008330FE0CB680C330CE08B682BB1012B2F
:101E30004FF0080303D0476104E0042302E0076188
:101E400000E00023FF2A01D8064601E000F1040665
:101E50004FEA840501D9A5F12005376808FA05FC89
:101E600027EA0C0703FA05F547EA050737604D68CE
:101E7000ED006ED53C4DAE6946F00106AE61AD6930
:101E800024F0030605F001050095384D7719BE686A
:101E9000A5072D0F08FA05FC26EA0C06DFF8D0C0CE
:101EA000604503D14FF0000C25E052E0DFF8C4C0DC
:101EB000604502D14FF0010C1DE0DFF8BCC0604569
:101EC00002D14FF0020C16E0DFF8B0C0604502D13D
:101ED0004FF0030C0FE0DFF8A8C0604502D14FF0CF
:101EE000040C08E0DFF89CC0604502D14FF0050CFF
:101EF00001E04FF0060C0CFA05FC4CEA060CC7F8A2
:101F000008C04D68D9F80060ED034D4601D5164371
:101F100000E096432E604D68DAF80060AD03554648
:101F200001D5164300E096432E604D68DBF8006053
:101F3000ED025D4601D5164300E096432E604D68E4
:101F4000DEF80060AD02754601D5164300E0964309
:101F50002E60641C102CFFF42FAFBDE8F88F00003A
:101F60000004014000001110001002400000014078
:101F700000080140000C0140001001400014014025
:101F800000180140001C01408068084000D001207A
:101F900070470AB1016170470904FBE70148006816
:101FA000704700000400002002480168491C0160DD
:101FB0007047000004000020074810B5016841F098
:101FC00010010160052000F051F80F2000F006F824
:101FD00000F015F8002010BD0020024010B50446A6
:101FE00000F016F94FF47A71B0FBF1F000F067FEE3
:101FF00000222146501E00F019F8002010BD704745
:1020000000F01F02012191404009800000F1E02012
:10201000C0F88011704700F01F0201219140400973
:10202000800000F1E020C0F800117047F0B40E4BC2
:102030001B68C3F30223C3F10704042C00D9042452
:102040001D1D072D01D2002300E0DB1E012606FA2C
:1020500004F56D1E0D409D409E40761E164045EADB
:102060000601F0BC01F0D5BF0CED00E0064A00F01F
:10207000070110684FF6FF03184040EA01200349AA
:1020800008431060704700000CED00E00000FA0506
:102090002DE9F047DFF8688104460E46D8F80000C5
:1020A00000F00700B0420CD2D8F8001021F0070170
:1020B0003143C8F80010D8F8000000F00700B04223
:1020C00073D120784F4F800705D57868A16820F03C
:1020D000F000084378602078C00755D0606801227E
:1020E00001280CD0022828D0022393FAA3F1B1FAD8
:1020F00081F141F02001490904D0396803E04FF42F
:102100000033F2E7796A93FAA3F3B3FA83F303F0A7
:102110001F039A40114248D0796821F0030101431E
:102120007960FFF73BFF0546606841F2883101287E
:102130000CD00228894615D022E04FF00073D4E776
:10214000FFF72CFF411B494501D916E08946786805
:10215000C0F381000128F3D116E0FFF71FFF411BF8
:1021600049450AD87868C0F381000228F5D10BE010
:10217000FFF714FF411B494502D90320BDE8F08752
:10218000786810F00C0FF3D1D8F80010404601F039
:102190000701B1420BD9016821F007013143016009
:1021A000006800F00700B04201D00120E6E7207887
:1021B000400705D57868E16820F4E060084378605E
:1021C0002078000706D57868216920F4605040EA3D
:1021D000C100786000F052F87968F02292FAA2F219
:1021E00001F0F001B2FA82F2D140074A515CC840D6
:1021F000064908600F20FFF7F1FE0020BEE700004F
:102200000020024000100240FB03010800000020F3
:102210000148006870470000000000200848094994
:10222000006849684FF4E06292FAA2F201F4E061BA
:10223000B2FA82F2D140044A515CC84070470000B3
:1022400000000020001002400B0401080848094962
:10225000006849684FF4605292FAA2F201F46051AA
:10226000B2FA82F2D140044A515CC8407047000083
:1022700000000020001002400B04010810B519A056
:1022800085B00FC88DE80F001AA01B4B00680490A2
:1022900059681A4801F00C02042A1DD0082A1BD1E3
:1022A0004FF4701494FAA4F401F47012B4FA84F4A4
:1022B000E240C9031DF8022010D559684FF40033DD
:1022C00093FAA3F301F40031B3FA83F3D94004ABDA
:1022D000595CB0FBF1F0504305B010BD08485043C5
:1022E000FAE7000002030405060708090A0B0C0DB3
:1022F0000E0F1010010200000010024000127A00C0
:1023000000093D002DE9F84F04460078FE4EC00755
:102310004FF001057FD070684FF40038C0F38100A2
:10232000012807D07068C0F3810002281BD17068B3
:10233000C00318D598FAA8F0B0FA80F040F0200059
:10234000400901D0306800E0706A98FAA8F1B1FA4B
:1023500081F101F01F0105FA01F108425BD06068CC
:10236000002879D057E06068B0F5803F0BD010B1FD
:10237000B0F5A02F11D0306820F480303060306884
:1023800020F4802002E0306840F4803030606068E3
:1023900018B3FFF703FE074609E0306840F48020D9
:1023A0003060F0E7FFF7FAFDC01B642870D898FA98
:1023B000A8F0B0FA80F040F02000400901D0306869
:1023C00000E0706A98FAA8F1B1FA81F101F01F01FA
:1023D00005FA01F10842E5D01DE0FFF7DFFD0746F1
:1023E00004E0FFF7DBFDC01B6428DFD898FAA8F0F3
:1023F000B0FA80F040F02000400901D0306800E0E1
:10240000706A98FAA8F1B1FA81F101F01F0105FA9A
:1024100001F10842E5D12078DFF8F08280074FF023
:10242000000A4FF002075AD570684FF0F80B10F011
:102430000C0F07D07068C0F3810002281CD17068AF
:10244000C00319D497FAA7F0B0FA80F040F020004A
:10245000400902D0306801E08AE0706A97FAA7F17B
:10246000B1FA81F101F01F0105FA01F108422BD008
:10247000206901287CD127E0206988B395FAA5F06E
:10248000B0FA80F048F82050FFF788FD814606E05A
:102490004DE1FFF783FDA0EB0900022886D897FAEB
:1024A000A7F0B0FA80F040F02000400901D0306879
:1024B00000E0706A97FAA7F1B1FA81F101F01F010B
:1024C00005FA01F10842E4D030689BFAABF220F043
:1024D000F8016069B2FA82F290400143316025E070
:1024E000FFE795FAA5F1B1FA81F148F821A0FFF7CD
:1024F00055FD814605E0FFF751FDA0EB09000228DC
:10250000CCD897FAA7F0B0FA80F040F0200040094C
:1025100001D0306800E0706A97FAA7F1B1FA81F152
:1025200001F01F0105FA01F10842E4D1207800070B
:102530006DD5A069B8B395FAA5F0B0FA80F008EBB4
:102540008000C0F88054FFF729FD814605E0FFF7C1
:1025500025FDA0EB09000228A0D897FAA7F0B0FA51
:1025600080F040F06000B5EB501F02D130680CE005
:1025700063E197FAA7F0B0FA80F040F06000B7EBA3
:10258000501F01D1306A00E0706A97FAA7F1B1FAE2
:1025900081F101F01F0105FA01F21042D7D00120AC
:1025A000FFF780FB33E0FFE795FAA5F1B1FA81F17F
:1025B00008EB8101C1F880A4FFF7F0FC814605E03B
:1025C000FFF7ECFCA0EB0900022899D897FAA7F0D6
:1025D000B0FA80F040F06000B5EB501F01D13068D8
:1025E0000BE097FAA7F0B0FA80F040F06000B7EB8C
:1025F000501F01D1306A00E0706A97FAA7F1B1FA72
:1026000081F101F01F0105FA01F21042D8D12078C2
:10261000400763D5F06940F08050F061F069DFF861
:10262000F0B000F080500090DBF8001041F48071B1
:10263000CBF80010FFF7B2FC814605E0FFF7AEFCD7
:10264000A0EB0900642872D8DBF80000C005F5D5BE
:10265000E06801280AD008B1052813D0306A20F0BC
:1026600001003062306A20F0040002E0306A40F07D
:1026700001003062E06841F2883B80B3FFF78EFCD6
:1026800081460AE0306A40F004003062EEE7FFF76E
:1026900085FCA0EB0901594549D897FAA7F0B0FA93
:1026A00080F040F04000B5EB501F01D130680BE0E6
:1026B00097FAA7F0B0FA80F040F04000B7EB501F57
:1026C00001D1306A00E0706A97FAA7F1B1FA81F19E
:1026D00001F01F0205FA02F10842D8D033E0FFE70B
:1026E000FFF75CFC814605E0FFF758FCA0EB090111
:1026F00059451CD897FAA7F0B0FA80F040F0400096
:10270000B5EB501F08D105E0001002400000424226
:102710000070004030680CE097FAA7F0B0FA80F043
:1027200040F04000B7EB501F02D1306A01E08AE070
:10273000706A97FAA7F1B1FA81F101F01F0205FA68
:1027400002F10842D0D1E06998B37168C1F3810108
:10275000022972D002284FF080714FF0007B504662
:102760000AD091FAA1F1B1FA81F148F82100FFF7FE
:1027700015FC04465F4669E08A4691FAA1F1B1FA78
:1027800081F1C14648F82100FFF708FCA84607463A
:102790005D4604E0FFF702FCC01B022853D895FAFF
:1027A000A5F0B0FA80F040F02000400902D0306877
:1027B00001E060E0706A95FAA5F1B1FA81F101F0EB
:1027C0001F0208FA02F10842E4D1206AB0F5803F06
:1027D00005D17068A16820F4003008437060D4E926
:1027E00008010843716821F47411084370609AFA73
:1027F000AAF0B0FA80F0474649F82080FFF7CEFBF8
:10280000044604E0FFF7CAFB001B02281BD895FA18
:10281000A5F0B0FA80F040F02000400901D0306807
:1028200000E0706A95FAA5F1B1FA81F101F01F019B
:1028300007FA01F10842E5D01DE01EE0FFF7AEFB0C
:10284000001B022802D90320BDE8F88F97FAA7F0F1
:10285000B0FA80F040F02000400901D0306800E07C
:10286000706A97FAA7F1B1FA81F101F01F0105FA38
:1028700001F10842E2D10020E6E70120E4E7000090
:1028800010B5040003D094F8510010B104E0012009
:1028900010BD204600F038F8022084F8510020686E
:1028A000016821F040010160D4E901010843D4E945
:1028B00003121143084361690843218B01F400713D
:1028C0000843E1690843216A0843A16A0843216873
:1028D0000860A069042101EA1040616A0843216888
:1028E00048602168E06A08612068C16921F40061DC
:1028F000C1610449002008706065012084F851001E
:10290000002010BD0800002070B5354B016800257F
:1029100034480224012286B0994233D1816941F0C2
:1029200004018161816901F004010491816941F030
:1029300004018161816901F004010491816941F020
:1029400004018161816901F004010491816941F40C
:10295000805181618069039200F4805004902020AE
:102960008DE83100204C69462046FFF717FA4021D8
:10297000009169462046FFF711FA802100916946CF
:10298000204629E0194B994228D1816941F008017C
:102990008161816901F008010491C16941F400413C
:1029A000C161C16901F400410491816941F00101F3
:1029B000816180690E4E00F0010004902820CDE96D
:1029C0000004694603923046FFF7E8F91020CDE98C
:1029D0000005694602943046FFF7E0F906B070BD85
:1029E000003001400010024000080140003C00405F
:1029F000000C01402DE9F8430026DDF82080044654
:102A0000ADF8006090F85100012803D094F851000F
:102A100022287DD169B162B15BB194F850000128E0
:102A200076D0012784F8507094F85100012803D023
:102A300005E00120BDE8F883322084F85100666586
:102A4000A263A387E3872163A386E386A664E66483
:102A5000A06A4FF40055A84209D12068016821F40A
:102A6000005101602068016841F400510160206854
:102A70000168490603D4016841F040010160E06843
:102A80004FF48271B0F5006F606807D0002867D0FE
:102A900088426ED1E08E012862D06AE020B188427F
:102AA0000CD1E08E012809D1206B21680088C86014
:102AB000206B801C2063E08E401EE086E08E80B993
:102AC000A06AA84244D12068016841F480510160A5
:102AD0003EE02068C068A16B0880A06B801CA063EA
:102AE0009EE0434600220221204602F0BEFF00285D
:102AF00074D1206B21680088C860206B801C206323
:102B0000E08E401E0004000CE08609D1A06A00E0BF
:102B1000C7E0A84204D12068016841F480510160F7
:102B2000434600220121204602F09FFF00286FD17A
:102B30002068C068A16B0880A06B801CA063E08F38
:102B4000401EE087E08E0028CBD1606800286AD163
:102B5000434600220121204602F087FFF0BBB8E780
:102B6000206B411C216321680078C860E08E401E04
:102B7000E086E08E98B9A06AA84204D12068016876
:102B800041F480510160434600220121204602F0B9
:102B90006CFF18BB2068C068A16B087040E043461A
:102BA00000220221204602F060FFB8B9206B411CD0
:102BB000216321680078C860E08E401E0004000C8C
:102BC000E08607D1A06AA84204D12068016841F4D8
:102BD0008051016000224346012100E018E02046B8
:102BE00002F043FFA0B92068C168A06B421CA26339
:102BF0000170E08F401EE087E08E0028CFD1606832
:102C000088B9434600220121204602F02EFF08B178
:102C100003200FE72068C168A06B421CA26301700B
:102C2000E08F401EE087A06AA84210D143460022F0
:102C30000121204602F019FF18B1606D40F002003A
:102C40000FE02068C068ADF80000BDF80000434602
:102C500001228021204602F008FF20B1606D40F083
:102C600010006065D4E784F85170A06AA84214D1BE
:102C700020688168C943C9060FD4616D41F0020123
:102C80006165016821F4005101602068016841F428
:102C90000051016084F85060CBE684F85060002059
:102CA000C8E60220C6E64FF0E0210428086903D0F8
:102CB00020F004000861704740F00400FAE710B506
:102CC000401EB0F1807F01D3012010BD4FF0E02401
:102CD00060610F21601701F09CF90020A0610720BE
:102CE0002061002010BD70B5044690F838000D46F4
:102CF00001280DD0012684F83860022084F83900BC
:102D000042B1042A18D0082A2AD00C2A4DD139E021
:102D1000022070BD206803F0C7F92068816941F086
:102D2000080181612068816921F0040181612068C6
:102D300081692A69114311E0206803F0E5F92068F0
:102D4000816941F4006181612068816921F48061B9
:102D50008161206881692A6941EA0221816124E058
:102D6000206803F007FA2068C16941F00801C161D9
:102D70002068C16921F00401C1612068C1692A6924
:102D8000114311E0206803F029FA2068C16941F479
:102D90000061C1612068C16921F48061C16120685E
:102DA000C1692A6941EA0221C16184F839600020C1
:102DB00084F8380070BD10B5040003D094F83900D1
:102DC00010B107E0012010BD002084F83800204633
:102DD00000F00CF8022084F83900211D206803F06F
:102DE00015F9012084F83900002010BD704700005B
:102DF00010B504460068012203F04AF9084821682A
:102E0000814202D00748814203D1486C40F400401F
:102E100048642068016841F001010160002010BD94
:102E2000002C01400034014010B50268044631B165
:102E3000042908D0082920D00C2908D121E0D06825
:102E400040F0020002E0D06840F00400D0600122AF
:102E5000206803F01DF90D492068884202D00C4912
:102E6000884203D1416C41F400414164206801680B
:102E700041F001010160002010BDD06840F0080061
:102E8000E4E7D06840F01000E0E70000002C0140CB
:102E90000034014010B504460068002203F0F8F841
:102EA000114841F2111221689310814202D00F485B
:102EB000814209D1086A104206D1086A184203D13A
:102EC000486C20F4004048642068016A114206D131
:102ED000016A194203D1016821F00101016001205A
:102EE00084F83900002010BD002C0140003401405E
:102EF00010B50268044631B1042908D008292FD042
:102F00000C2908D130E0D06820F0020002E0D0683F
:102F100020F00400D0600022206803F0B9F81448C3
:102F200041F2111221689310814202D0114881426E
:102F300009D1086A104206D1086A184203D1486CC8
:102F400020F4004048642068016A114206D1016AF9
:102F5000194203D1016821F001010160002010BD78
:102F6000D06820F00800D5E7D06820F01000D1E745
:102F7000002C014000340140704790F83900704740
:102F800038B5044600680168C268C1F3000102F464
:102F9000807221B11AB1E16B41F00101E163016876
:102FA000C1F34002416901F0010122B119B1E26BA4
:102FB00042F00402E2630268C2F3800222B119B156
:102FC000E26B42F00202E2630268C2F3C00222B185
:102FD00019B1E16B41F00801E1630168C068C1F318
:102FE000401100F0200019B110B1204608F05AFE3F
:102FF00020680168C068C1F3C01100F0800019B1F9
:1030000010B1204608F05AFF21680868CA68C0F36A
:10301000801002F04002012568B162B1CA68204602
:1030200022F04002CA6094F83910322910D080F89A
:10303000395000F0B1F9E06B002808D02068016831
:103040004068009084F839502046FFF795FF38BD5E
:10305000222180F83910ECE770B5040004D094F810
:103060003900002510B106E0012070BD84F8385009
:10307000204600F021F8022084F839002068C16859
:1030800021F40051C160204608F060FE206801690B
:1030900021F4904101612068416921F02A014161D8
:1030A0002068C16841F40051C160E563012084F8E3
:1030B0003900002070BD000010B500681E4986B0C0
:1030C000884236D11D48816941F0040181618169DE
:1030D00001F004010491816941F4804181618169B9
:1030E00001F480410491816941F0010181618069AD
:1030F000134C00F0010004904FF400700090022087
:103100000190012002900320039069462046FEF7BB
:1031100045FE211500910021019169462046FEF7E8
:103120003DFE2520FEF777FF032211462520FEF7FE
:103130007DFF06B010BD00000038014000100240C5
:10314000000801402DE9F047044690F839009946FF
:103150000D46012801D0122857D125B31AB394F88F
:103160003800012851D0012684F838600027E76331
:1031700094F83900122819D0222084F83900A28549
:10318000E2854FF48058E08D4B46401EE085A068F4
:103190004FF0000240454FF02001204616D108F0C4
:1031A000C0FEB0B904E00120BDE8F0873220E4E7BA
:1031B000206900282068406803D0C1B225F8011BAF
:1031C00012E0C0F3080125F8021B0DE008F0A9FE8B
:1031D00008B10320E8E7206900282068406801D092
:1031E00000F07F0005F8010BE08D0028CBD194F8AA
:1031F0003900322805D084F8396084F8387000200E
:10320000D2E7122084F83900F7E70220CCE790F8E3
:103210003930012B01D0122B2BD131B32AB390F8C6
:103220003830012B25D0012380F838308162828527
:10323000C2850021C16390F83920122A17D02222BA
:1032400080F8392080F838100168CA6842F480722A
:10325000CA6001684A6942F001024A610068C168B7
:1032600041F02001C16000207047012070473222E8
:10327000E6E702207047000030B500681149884237
:103280000CD1114A5088010408D41146440409782D
:103290004FF0000306D50A2901D0538030BD40F419
:1032A00000400DE00D2909D0C0F30D04074D401C6E
:1032B00080B229555080C728EFD830BD40F48040F7
:1032C000508030BD003801401000002090030020E5
:1032D0002DE9F047044690F8390099460D4601283B
:1032E00001D0222856D125B31AB394F8380001280A
:1032F00050D0012684F838600027E76394F839003D
:10330000222819D0122084F83900A284E2844FF4D4
:103310008058E08C4B46401EE084A0684FF00002CD
:1033200040454FF08001204613D108F0FAFD08BB5C
:1033300004E00120BDE8F0873220E4E72888216816
:10334000C0F308004860206908B16D1C08E0AD1C9E
:1033500006E008F0E6FD68B9216815F8010B486041
:10336000E08C0028D5D14B4600224021204608F0B1
:10337000D8FD08B10320DDE794F83900322805D0E4
:1033800084F8396084F838700020D3E7222084F86C
:103390003900F7E70220CDE77047FEE710B500F0EF
:1033A000CFFBFDF7DBFDFEF749F9BDE81040FEF766
:1033B0009BB9000010B53A22174918A008F0AEFFDB
:1033C00008F0D6FEFEF798F900F09CFB08F07CFFB1
:1033D00000F07EFB4FF4E13008F0E2FB60220E4982
:1033E00017A008F09BFF002002F0CCFB1A480068F1
:1033F000016801208847FDF79DFE3C236B220649AA
:1034000016A008F08BFF1E48416821F0E06141F0F2
:103410000071416010BD0000E90301085B25733AAB
:103420002564235D737461727420496E69745F4210
:103430006F6172645F436F6E6669672E200D0A00CC
:103440005B25733A2564235D696E6974207363613B
:103450006E2E200D0A000000F00200205B25733A5A
:103460002564235D5B43616D656C5D2C70726F74C8
:103470006F636F6C2073697A653A25640D0A0000EA
:10348000000001402DE9FF414A4C82B01F46A07860
:1034900090460E4618B1002006B0BDE8F081012527
:1034A000A57040F6FF70ADF8040000F04DFB4248F7
:1034B00060603522414942A008F030FF45A16068B4
:1034C00007F0F6FE034639223C4945A008F026FFE6
:1034D0004A48012F0BD00221022F0AD005704170FB
:1034E000032FA06009D0002060700120D4E7057090
:1034F00000E00170A060657000E06170606804F039
:1035000032FF03465D222D493DA008F007FF0096DB
:103510006A462521606808F01FF96A46252160681F
:1035200008F0E4F8642225493CA0009B08F0F6FE70
:10353000CDF800806A462621606808F00DF96A46D9
:103540002621606808F0D2F86B221C493CA0009B41
:1035500008F0E4FE02AA3721606808F0FDF802AA2C
:103560003721606808F0C2F89DF8083071221349CD
:103570003CA008F0D3FED4E901010BF0EDFA0546BA
:10358000034676220D493FA008F0C8FE6068782205
:103590000A49037844A008F0C1FE60680178022956
:1035A00004D101AA532108F0D7F80546FEF7A0F888
:1035B000284671E704030020700A00202206010853
:1035C0005B25733A2564235D73746172742E200D3C
:1035D0000A000000746D723A2F2F2F636F6D310057
:1035E0005B25733A2564235D63726561746520729F
:1035F00065743A2564200D0A00000000C014002004
:103600005B25733A2564235D636F6E6E656374207A
:103610007265743A2564200D0A0000005B25733A38
:103620002564235D2A2A2A2A2A2A2A2052656164CF
:10363000506F77657264626D3A2564200D0A000050
:103640005B25733A2564235D2A2A2A2A2A2A2A20FE
:103650005772697465506F77657264626D3A25645C
:10366000200D0A005B25733A2564235D2A2A2A2A45
:103670002A2A2A20726567696F6E3A2564200D0A2E
:10368000000000005B25733A2564235D2A2A2A2A5C
:103690002A2A2A2067616E74656E6E614C697374A4
:1036A0003A2564200D0A00005B25733A2564235DEA
:1036B0007265616420747970653A2564200D0A0092
:1036C00070B5054600210220FEF7DEF9094C002105
:1036D00020600220FEF7ECF960600020FEF756F84B
:1036E000FEF746F92846FDF759FCBDE8704002F0A8
:1036F0007ABB0000E002002018B500F52D7490F8A8
:10370000AC12002201230520182913D0192911D049
:10371000202913D030291CD0FF218DF800108DF8FE
:1037200001108DF802108DF80310694620460CF048
:1037300035FE18BD8DF8003023210DE08DF80030E6
:103740000B208DF801008DF8022014208DF8030065
:10375000EBE78DF8003009218DF801108DF802207B
:10376000F4E738B500F52D7290F8AC12012007236C
:10377000182919D0192917D00024022520291ED074
:10378000302923D0FF208DF800008DF801008DF83E
:1037900002008DF8030000216B46505C5C5CA04287
:1037A0001DD24FF0000038BD8DF800004FF0210110
:1037B0008DF801108DF802008DF80330EBE78DF8DD
:1037C00000004FF009008DF8010003E08DF80000C3
:1037D0008DF801308DF802408DF80350DBE704D8F6
:1037E00001F1010189B20429D7D3012038BD704706
:1037F00010B50321034B0022084601F0B1FF002061
:1038000010BD000060670100B9B117491128886038
:1038100029D2DFE800F028090B0D280F2809090F2D
:103820002828282828090900282004E0062002E08A
:10383000072000E01720FEF7EEBB112813D2DFE8C7
:1038400000F012090B0D120F1209090F12121212B9
:1038500012090900282004E0062002E0072000E009
:103860001720FEF7CDBB7047B401002070B53D486E
:1038700086B0816941F010018161816901F0100118
:103880000491816941F008018161816901F00801B9
:103890000491816941F080018161816901F08001B9
:1038A0000491816941F480718161816901F48071C1
:1038B0000491816941F040018161816901F0400119
:1038C0000491816941F0010181618069032600F062
:1038D00001000490244D01240096CDE9015469466D
:1038E0002248FEF75BFA4FF45060CDE90005CDE9C0
:1038F000024669461E48FEF751FA2020CDE9000530
:10390000694602941B48FEF749FA4FF46040009064
:10391000CDE90154694618480394FEF73FFA0022A6
:1039200002210620FEF782FB0620FEF769FB00223B
:1039300002210720FEF77AFB0720FEF761FB002239
:1039400002211720FEF772FB1720FEF759FB002219
:1039500002212820FEF76AFB2820FEF751FB06B063
:1039600070BD000000100240000021100020014046
:103970000018014000100140001C014010B5044631
:1039800009F06CFA002807D001200AF019FD204642
:10399000BDE8104009F062BA10BD00002DE9F04109
:1039A00045480021454D018081704FF40041284673
:1039B000FEF7EAFA404C424E21780843207001217C
:1039C0003046FEF7E1FA217841EA400020700221FA
:1039D0003046FEF7D9FA21783A4F41EA800020704C
:1039E00080213846FEF7D0FA217841EAC0002070E5
:1039F000A9153846FEF7C8FA217841EA0010207070
:103A000069153846FEF7C0FA217841EA4010207067
:103A100029153846FEF7B8FA2178EE1441EA8010ED
:103A2000207031463846FEF7AFFA217841EAC010DF
:103A3000207020212448FEF7A7FA6178234F08431D
:103A4000607001213846FEF79FFA617841EA400034
:103A5000607002213846FEF797FA617841EA8000EB
:103A6000607004213846FEF78FFA617841EAC000A1
:103A7000607031462846FEF787FA617841EA001007
:103A80006070A9142846FEF77FFA617841EA401079
:103A9000607069142846FEF777FA617841EA801071
:103AA0006070F1002846FEF76FFA617841EAC010B5
:103AB0006070BDE8F0810000B4010020001C0140EE
:103AC000002001400018014000100140000C01409E
:103AD000FFF7CCBE0149486070470000B4010020E8
:103AE00070B5074D04212846FEF74EFA044608211A
:103AF0002846FEF749FA44EA4000C0B270BD000013
:103B0000001801400C4800B5816985B041F04001C2
:103B100081618069694600F0400004900C200090AB
:103B20000020019001200290032003900348FEF73B
:103B300035F905B000BD000000100240001801403A
:103B40004FF4165007F0A4BE4FF4E13007F04CBE1E
:103B5000034A01EB011102EB41012222FCF713BBE6
:103B60006C13002010B5044600F00AF810B10021D3
:103B7000217010BD01490978FAE700000403002014
:103B80002DE9F041A2B00024FFF7DEFF4FF47A7078
:103B90003B4D0090052369783A48AA6802F046FB3D
:103BA000384A2121686807F0D7FD03469822364934
:103BB00036A008F0B3FB9B2233493DA008F0AEFBD2
:103BC00000224FF4FA71686806F0D8FE03469F227F
:103BD0002D493FA008F0A2FB686804F049FD80462B
:103BE0000346A322284942A008F098FBFDF79CF861
:103BF000244E383606F5557736E0A922224946A0EC
:103C000008F08CFB1F496868383104F07FFC80465F
:103C10000346AD221C4947A008F080FB194816F85E
:103C20003F1F01AA383007F02BFB3078009001AB22
:103C3000B222154947A008F071FB04EB04100121E2
:103C400007F8101016F83F19202902D9202186F80C
:103C50003F10CAB207EB40000A4980F821203831F2
:103C6000401CFCF790FA641C686804F001FD002811
:103C7000C3D02C70FDF73CFD22B04046BDE8F0817A
:103C800004030020E00F0020320601085B25733A90
:103C90002564235D2A2A2A2A7265616420706C617A
:103CA0006E3A7265743A307825780D0A000000008B
:103CB0005B25733A2564235D2A2A2A2A20737461BE
:103CC000727420544D525F726561642E0D0A0000BB
:103CD0005B25733A2564235D2A2A2A2A20726561AE
:103CE000643A7265743A307825580D0A0000000075
:103CF0005B25733A2564235D2A2A2A2A20544D52D3
:103D00005F6861734D6F7265546167733A72657471
:103D10003A307825580D0A005B25733A2564235DF7
:103D20007374617274206E657874207461672E20DC
:103D30000D0A00005B25733A2564235D6765744EA8
:103D40006578745461673A7265743A307825780DF5
:103D50000A0000005B25733A2564235D4550433A11
:103D600025732025640D0A0070B500240220FFF79A
:103D700005FE4FF4FA5520B92A4600210420FDF72C
:103D8000E1FA0120FFF7FAFD20B92A4600210320BD
:103D9000FDF7D8FA0F20FFF7F1FD28B942F21072B3
:103DA00000210120FDF7CEFA0220FFF7E7FD08B958
:103DB0004FF480340120FFF7E1FD08B944F40044DA
:103DC0000F20FFF7DBFD08B944F48044204670BDA6
:103DD00010B500240720FFF7D1FD28B94FF4AF62DA
:103DE00000210720FDF7AEFA0720FFF7C7FD08B94D
:103DF0004FF40034204610BD70B590B01446002535
:103E0000039151220F95CDE901201E460FAA3C21B6
:103E1000684600F027F8002808D10F9840B19DF8B7
:103E20000D00029921609DF80C10317010B070BD2A
:103E300001202560FAE700B591B000220F920391AE
:103E40005222CDE901200FAA3C21684600F00AF871
:103E5000002803D10F9818B19DF8080011B000BDDB
:103E60000120FBE72DE9F04F89468BB093460546CC
:103E700000F110014FF000084FF448762C226846FC
:103E8000FCF781F995E80F000AF0A8F80D2185F8F4
:103E900038100A2185F83910AA212970DD216970AE
:103EA00085F83400000A85F8350007F050FE1C4FF5
:103EB0000024494628463C6007F0E4FEA246B94685
:103EC0004C460120D9F800700AF07AFA246884B1CF
:103ED000A7420AD13C2C08D01F22124912A008F098
:103EE0001DFA4FF00108C9F800A0A74201D13C2CEF
:103EF0000ED0761EE4D14FF001082F22094913A0FD
:103F000008F00CFA07F020FE0BB04046BDE8F08F39
:103F10005946284607F09CFEC9F800A0F2E70000C9
:103F20005C030020D40601085B4552524F52202505
:103F3000733A2564235D7278206C656E2069732066
:103F40006572726F72200D0A000000005B455252CC
:103F50004F522025733A2564235D7472616E736637
:103F60006572206572726F722021200D0A000000B8
:103F7000FEE7000070B500252C4601210220FDF768
:103F800071FA4CF2503614200AF01AFA3246012126
:103F90000220FDF7D7F914200AF012FA3246002168
:103FA0000220FDF7CFF9641C052CECDB0122054B48
:103FB0000F21104601F0D4FB08B145F48045284696
:103FC00070BD0000C027090010B50024054B224633
:103FD0001021012001F0C4FB08B14FF40054204629
:103FE00010BD0000C0270900FDF7ACB970B50D4643
:103FF000144606461946FDF735FA2246294630464C
:10400000FDF7A0F93046BDE870400121FDF72ABA5E
:1040100070470907090E002806DA00F00F0000F1CA
:10402000E02080F8141D704700F1E02080F80014B3
:10403000704700000D480C4A0021C0E900120D4AEB
:104040000B49C0E902120C4A0021C0E904121830E1
:10405000C0E90011C0E90211C0E90412C0E906116B
:10406000C0E908117047000000002A4088080020BD
:10407000613255302AA9533F0000F03F38B5084857
:1040800000244FF4FA4300880090224608210420BF
:1040900001F0D4FB08B14FF48064204638BD000025
:1040A0009802002038B50848002447F230530088B1
:1040B000009022460821042008F01CFF08B14FF4AC
:1040C0008064204638BD00009802002038B50848BA
:1040D000002447F2305340880090224609210420F2
:1040E00008F008FF08B14FF40074204638BD000006
:1040F000980200202DE9FF4F4FF0000A89B064209C
:104100008B4602FB00F4994656465546514602201E
:10411000CDF820A0FDF7B8FC2C4F0021386002201C
:10412000FDF7C6FC786040F29B12294929A008F0EF
:10413000F5F801F02BFE1E212C48FCF74BF820214E
:104140006846FCF747F8DFF8A88022E098F80000FE
:10415000E0B14FF4D1721E4926A008F0DFF83A68AA
:1041600008A92248904788F80060B9F1000F12D0E2
:10417000089AAA4204D11D496846FCF757F850B185
:104180001A496846089AFBF7FEFF089D01200AF0CD
:1041900017F9641EDAD2089A052A06DD921E134921
:1041A00008920998FBF7EFFF00E008960899CBF812
:1041B000001001F018FE0D4B40F2B712044913A095
:1041C00008F0ACF80DB05046BDE8F08FE0020020DA
:1041D000920501085B25733A2564235D737461724F
:1041E00074207363616E2E200D0A0000500A0020B7
:1041F000A50100205B25733A2564235D7363616E1E
:104200006E696E67202E2E2E200D0A005B25733AF4
:104210002564235D73746F70207363616E3A202090
:104220002573200D0A00000070470000F0B5214AF8
:10423000214B56141515214C21494FF4804708286D
:1042400026D2DFE800F025040A11161A212F1D4896
:104250008860801588810A6004E080208A608881F7
:1042600010200A60888013E008208A6088810B6033
:1042700008E08B608E810B6009E04FF400708B606A
:1042800088810C608F8003E08C608E810C608D8053
:104290000D488A6842608A8902800A68826089883B
:1042A0004180F0BD09484FF4004288608A8108606F
:1042B0008014D7E70020014000140140000C0140A9
:1042C000B0040020001001409001002000180140BF
:1042D00010B5FCF71BFABDE810400149FCF730B8F7
:1042E000A5D4684110B50549FCF72AF84FF07C5178
:1042F000FBF7CEFFFCF72DFA80B210BDCCBC8C3D95
:1043000001498860704700001800002001490861D9
:1043100070470000180000200149C8607047000085
:104320001800002010B50549FCF70AF84FF07C5141
:10433000FBF7AEFFFCF70DFAC0B210BD00601F44E2
:1043400010B5FCF7E3F9BDE810400149FBF7F8BFF1
:10435000679ACD3A08210148FDF716BE00140140C6
:104360000248012201884068FDF713BE9001002039
:104370000248002201884068FDF70BBE9001002032
:1043800072B6704762B6704704210148FDF7FCBD64
:10439000001401402DE9F04F85B000287ED1764809
:1043A000816941F480718161816901F480710491B6
:1043B000816941F080018161816901F0800104918E
:1043C000816941F040018161816901F040010491FE
:1043D000816941F020018161816901F0200104912E
:1043E000816941F010018161816901F0100104913E
:1043F000816941F004018161816901F00401049146
:10440000816941F00801816180694FF4807701245E
:104410000025009700F00800CDE90145CDE90340F3
:10442000564E69463046FDF7B9FC01223946304602
:10443000FDF7AFFD80208DE83100DFF8449169463B
:1044400048460394FDF7AAFC012280214846FDF767
:10445000A0FD08208DE83100694648460394FDF729
:104460009DFC012208214846FDF793FD66030220CA
:104470000096CDE90140DFF80CB169465846039437
:10448000FDF78CFC012231465846FDF782FD4FF4C2
:104490000078CDF80080CDE9014500E069E069468B
:1044A00058460394FDF77AFC012241465846FDF731
:1044B00070FD0096DFF8D0A0CDE901456946504671
:1044C0000394FDF76BFC012231465046FDF761FD78
:1044D000E6030096DFF8B480CDE901456946404621
:1044E0000394FDF75BFC012231464046FDF751FD88
:1044F0000097CDE90145694648460394FDF74EFC17
:1045000010208DE83100694648460394FDF746FCCB
:10451000A7030097CDE90145694658460394FDF786
:104520003DFCA6020096CDE9014569465846039434
:10453000FDF734FC0097CDE90145694650460394E8
:10454000FDF72CFC0096CDE90145694650460394E1
:10455000FDF724FC20038DE83100694640460394B2
:10456000FDF71CFC00F014F800F08AF8052009F0B3
:1045700027FF05B0BDE8F08F001002400010014099
:104580000020014000140140000C014000180140CF
:1045900070B5012211021348FDF7FBFC124C0122F9
:1045A00080212046FDF7F5FC012208212046FDF779
:1045B000F0FC01220D4D540321462846FDF7E9FC8D
:1045C000012251022846FDF7E4FC01222146084859
:1045D000FDF7DFFCBDE870400122D1030548FDF77F
:1045E000D8BC000000100140002001400014014030
:1045F000000C0140001801400248012241888068F7
:10460000FDF7C7BC9001002070B5154C01221102C6
:104610002046FDF7BEFC012210212046FDF7B9FC23
:104620000122104E940321463046FDF7B2FC0122D0
:10463000950229463046FDF7ACFC21460A4C012282
:104640002046FDF7A6FC012229462046FDF7A1FCE5
:10465000BDE87040012211030448FDF79ABC000038
:104660000020014000140140000C014000180140EE
:104670000248002241888068FDF78BBC9001002031
:1046800070B5164C00224FF480712046FDF781FC76
:10469000002210212046FDF77CFC114E4FF480448F
:1046A000002221463046FDF774FC251100222946E0
:1046B0003046FDF76EFC21460A4C00222046FDF7ED
:1046C00068FC002229462046FDF763FC0022A11465
:1046D000BDE870400448FDF75CBC000000200140CC
:1046E00000140140000C0140001801400D480C4925
:1046F000012201602021C16142610021816002220A
:1047000002610722C0E90A12C1604FF4007201621F
:10471000826141624FF482714160FEF7B1B80000DE
:1047200000300140C00400202DE9F84390460D46BA
:104730000646FFF71DFE00244FF480590CE00123CC
:104740002A4631460848CDF80090FEF753F9070095
:1047500004D1641C6D1C761C4445F0D3FFF700FEA9
:104760003846BDE8F8830000C004002010B50446B8
:10477000FDF784FDA101B0FBF1F00749401E0A6876
:10478000D062C860096840088863BDE81040042111
:104790000148FEF749BB000018050020042101482C
:1047A000FEF7A6BB1805002010B5054CA068002830
:1047B00004D00121617080470020607010BD0000AE
:1047C0001800002010B5FFF7C5FD08B1002010BD8E
:1047D000012010BD10B5FFF7D7FD08B1002010BDB6
:1047E000012010BD2DE9F05F3C4A8A4600249178F3
:1047F00081426FD99178DFF8E8B0081A401EC4B240
:104800000AF0FF01002041F0200590460BF10C0951
:104810000027464688F8007008B1FFF7B3FDB046A0
:1048200000205E460CE031183754CF708F714F7204
:1048300009F8007009EB0001401CCF708F714F72B6
:1048400098F802108842EED35046BAF1070F2AD0EA
:1048500008DCBAF1070F15D2DFE80AF0142225228E
:104860002225250018281ED007DC08281BD00D287B
:1048700019D0BAF1150F05D115E01A2813D0BAF1E5
:104880001B0F10D0301901278571FFF779FD98F8BB
:10489000001001200029BBD1C7F103054F460DE0F0
:1048A00035550327F1E730190227C570EDE705EB11
:1048B0004500C119304400F0EDFE6D1C042DF6D307
:1048C0003919C8788A79000440EA0224487A0443F6
:1048D000FFF758FD2046BDE8F09F000018000020BB
:1048E000980400202DE9F041234C0025A178814255
:1048F0003ED9A178214F081A401EC5B2002080463B
:1049000007F10C0684F8008008B1FFF73BFD00209A
:1049100012E0391807F8008081F8038081F80680DA
:1049200081F8098006F800803118401C81F8038066
:1049300081F8068081F80980A1788842E9D3D020E7
:104940007855FFF71DFD217801200029DAD10024D8
:1049500004EB44008119384400F09CFE641C032CD5
:10496000F6D370198179C07841EA0025FFF70AFD76
:104970002846BDE8F08100001800002098040020BF
:104980000022702100F0B0BA0022782100F0ACBA09
:104990000A46602100F0A8BA41F0680100F0A4BA0C
:1049A000114341F082011A4600F09EBA0022A8216C
:1049B00000F09ABA0022B82100F096BA41F0400106
:1049C00000F092BA0022114600F08EBA114341F075
:1049D0009201002200F088BA0022C02100F084BABF
:1049E0000022D82100F080BA41F0500100F07CBADA
:1049F0002DE9F05F8B46384916468A78824268D99D
:104A00008A78DFF8D8A0101A401EC4B20020C6F37E
:104A100007280BF0FF058946002789F8007008B1C8
:104A2000FFF7B0FC0020524605E017541118401C57
:104A3000CF708F714F7299F802108842F5D35846A3
:104A4000BBF1070F32D008DCBBF1070F13D2DFE850
:104A50000BF012252D25122D2D00152826D005DC52
:104A6000082823D0BBF10D0F05D11FE018281DD059
:104A7000BBF11A0F1AD01019012785710AEB040037
:104A80004672FFF77DFC99F8001001200029C3D180
:104A9000124EC7F1030455460C3614E0310C1019C0
:104AA0001555C17080F806800327E7E71019022723
:104AB000C57080F80680E1E704EB440081192844C2
:104AC00000F0E8FD641C042CF6D3BDE8F05FFFF7AE
:104AD00059BCBDE8F09F0000180000209804002099
:104AE0000022A02100F000BA0022B02100F0FCB9A1
:104AF00041F05801002200F0F7B9810204D5C0430B
:104B0000401CC0F31500404270470000024909698B
:104B100001B10847FEE700001800002010B5FBF7C0
:104B2000F5FD0449FBF7B4FBBDE810400249FBF773
:104B300007BC000077BE7F3F0024744110B50349D5
:104B4000FBF7FEFBFBF705FE80B210BDBD37863DCF
:104B500070B50020104D014605F10C06D0230F4C16
:104B60000BE02A182B54D1709171517231543218C4
:104B7000401CD17091715172C0B2A2789042F0D3B2
:104B8000002404EB44008119284400F083FD641CD8
:104B9000E4B2032CF5D370BD980400201800002067
:104BA00010B5054CE068002804D0012161708047F1
:104BB0000020607010BD00001800002070B50D4688
:104BC00006461621FFF70EFE40F3C0042946304684
:104BD000641CFFF707FE162D3FD2DFE805F03E0B01
:104BE0003E0B13101016192C2C2C2C233335352684
:104BF0003E29291EFFF781FFFBF77FFD2AE0FFF723
:104C000067FB27E000F0C2FC24E000F0D1F821E0CF
:104C1000C0F30B0000F0E4F81CE0C0F30900FFF75C
:104C20007DFF17E000F06EF814E000F09CF811E052
:104C300000F0B6FC0EE014B100F0B0F80AE000F0AD
:104C400001FD07E03CB100E014B1FFF779FB01E0A2
:104C500000F0CAFC0646304670BDFBF757FDF9E789
:104C6000084A0146002093788B4209D99078401A6F
:104C7000401E0549C0B208448179C07841EA00204D
:104C80007047000018000020A4040020004870476E
:104C90000005010010B50321FFF7A4FDBDE8104099
:104CA000FFF72BBF014880787047000018000020F4
:104CB00010B50121FFF796FDBDE81040FFF71DBFBD
:104CC000064810B50079FFF765FBFFF70FFDFFF70A
:104CD0009BFCBDE81040052009F072BB18000020C5
:104CE00010B550B10146002000F048FA0020FFF74F
:104CF0005DFEBDE81040FFF72BBF002000F076FB03
:104D0000F4E7000010B5FBF701FDBDE810400149D4
:104D1000FBF716BBD923743D10B50549FBF710FB13
:104D20004FF07C51FBF7B4FAFBF713FD80B210BDD6
:104D3000BD37864110B5FFF7D5FD800701D40120AE
:104D400010BD002010BD10B54FF07E51FBF7F2FAF8
:104D50000521FBF727FB4FF07C51FBF799FAFBF796
:104D6000F8FCC0B210BD10B5FBF7D0FC6FF0040129
:104D7000FBF718FBBDE810404FF07E51FBF788BAF7
:104D800010B50549FBF7DCFA4FF07C51FBF780FAD0
:104D9000FBF7DFFCC0B210BD0AD7234010B5FBF70C
:104DA000B5FCBDE810400149FBF7CABA0000C83E97
:104DB00010B5FBF7ABFCBDE810400149FBF7C0BAEA
:104DC0000024744110B50549FBF7BAFA4FF07C5145
:104DD000FBF75EFAFBF7BDFC80B210BDBD37863D28
:104DE00010B5FBF793FCBDE810400149FBF7A8BAEA
:104DF0000024743E10B50549FBF7A2FA4FF07C5130
:104E0000FBF746FAFBF7A5FC80B210BDBD37864024
:104E1000144B10B59C7884421AD99B78124C181AFE
:104E2000401EC3B201F0FA00682812D006DC402808
:104E30000FD050280DD0602804D10AE0822808D075
:104E40008A2806D00022E018E254C27082714172B2
:104E500010BDE154E018110CC170110A8171427249
:104E600010BD000018000020980400200148808830
:104E7000704700001800002010B51B21FFF7B2FC9E
:104E800080B210BDFFF7B8BBFFF7F2BB70B50546A7
:104E9000082927D2DFE801F00406080A0C0E1012D8
:104EA00000240CE001240AE0022408E0032406E0C8
:104EB000042404E0052402E0062400E00724284638
:104EC000FFF774FD16212846FFF78CFC00F0F8026E
:104ED000224316212846FFF78BFD2846FFF780FD69
:104EE000012070BD002070BD2DE9F05F0E463049F5
:104EF00014468A78824258D98A784FF00009101AED
:104F0000401EC5B24846CB468A46D84657468AF820
:104F100000B008B1FFF736FA4246B8460020254FE8
:104F200005E03A543918401CCA708A714A7298F8E0
:104F300002108842F5D306F0FA0068281CD006DC7F
:104F400040281BD0502819D0602804D114E08228B2
:104F500014D08A2812D078197A55C270827146729C
:104F6000FFF70EFA98F8001001200029CDD1114D5D
:104F7000C9F103040C3512E0C4F3150478197E5509
:104F8000210CC170210A817144724FF00309E7E7D7
:104F900004EB44004119384400F07CFB641C042CF1
:104FA000F6D3BDE8F05FFFF7EDB9BDE8F09F000074
:104FB000180000209804002070B5074D0024A5F1CA
:104FC0000C0604EB44004119304400F063FB641C00
:104FD000E4B2042CF5D370BDA40400202DE9F04107
:104FE0000E461546804601241621FFF7FBFB40F3D1
:104FF000C000594A401C954204D3012E02D0032E12
:1050000000D000245549162E22D2DFE806F02129CF
:105010000B29213D3D444B7D7D7D7D678B8E8E6EC2
:10502000217777584E48854212DC15F0FF4F11D09A
:1050300016210020FFF7D6FB00F00700C0F10701A2
:1050400001208840FBF759FB2946FBF7EBFB01D217
:10505000002477E02846FBF77CFBC0F308026CE0F5
:105060004FF40017954207D385F00040FBF771FB22
:10507000B842EDD8404204E02846FBF76AFBB8424C
:10508000E6D2C0F3150258E036488542E0DC2846F7
:10509000FFF728F950E034488542D9DC2846FFF76D
:1050A00091FE49E031488542D2DC31464046FFF767
:1050B00099FB00F480572846FFF79CFE0BE02C4834
:1050C0008542C5DC31464046FFF78CFB00F4806723
:1050D0002846FFF733FD47EA00022EE025488542C7
:1050E000B6DC2846FFF718FE26E0A5F17E50B0F5A5
:1050F000701FADD82846FFF726FE1DE08D42A7DCC5
:10510000284600F059FA17E030B1B5F5000F9FDAE4
:105110002846FFF735FE0FE08D4299DC284600F067
:105120007DFA09E0002893D000E070B11248854272
:105130008EDC2846FFF7F6F802461CB131464046A1
:10514000FFF756FC2046BDE8F081B5F1854F9DDCA8
:10515000284600F053FAEFE70000808000007A4410
:105160000080FF4300C6684700E873463313744469
:105170000024744600207444CDCCCC3E70B50C465F
:10518000054600220121FFF733FC002202212846B8
:10519000FFF72EFC002203212846FFF729FC606858
:1051A000FFF7A0F8024605212846FFF721FCA0687A
:1051B000FFF798F8024606212846FFF719FCE06839
:1051C000FFF700FE024607212846FFF711FC206981
:1051D000FFF7F8FDA18A40EA010208212846FFF7FF
:1051E00007FCA069FFF7AAFCA18B40EA0102152188
:1051F0002846FFF7FDFB206A00F0DEF90246132186
:105200002846FFF7F5FB94F8252020781621024365
:1052100094F8240002432846FFF7EAFB94F826207E
:1052200017212846FFF7E4FB94F8272094F82A007A
:10523000A18D0243208D0843024318212846FFF721
:10524000D7FB94F82E2094F82F001921024328460A
:10525000FFF7CEFB207800284DD054F8300F00F037
:10526000DDF9024609212846FFF7C2FB606800F01D
:10527000D5F902460A212846FFF7BAFBA06800F0DC
:10528000CDF902460B212846FFF7B2FBE06800F09B
:10529000C5F902460C212846FFF7AAFB227C607C58
:1052A0000E2102432846FFF7A3FB606900F0A6F930
:1052B00002460F212846FFF79BFBA06900F09EF9EC
:1052C000024610212846FFF793FB227F607F94F867
:1052D00020100243A07F08430243608C0243A08C4D
:1052E0000243E08C0243208D02432846BDE8704013
:1052F0001A21FFF77DBB206CFFF70EFD02460D2142
:105300002846FFF775FB206DFFF71DFD02461121B2
:105310002846FFF76DFB606D00F04EF90246142140
:105320002846FFF765FB206BFFF72AFD024609219F
:105330002846FFF75DFB606BFFF722FD02460A215E
:105340002846FFF755FBA06BFFF71AFD02460B211D
:105350002846FFF74DFBE06BFFF712FD02460C21DC
:105360002846FFF745FB606CFEF7DCFF02460E2186
:105370002846FFF73DFBA06CFEF7D4FF02460F2145
:105380002846FFF735FBE06C3C34FEF7CBFF0246C6
:1053900010212846FFF72CFB227F607FE17F02432C
:1053A000A07F08430243208C0243608C0243A08C00
:1053B0000243E08C98E770B50D4604460121FFF7E3
:1053C00011FA421B2046BDE870400121FFF710BBD7
:1053D0000A460321FFF70CBB032803D80249887053
:1053E0000120704700207047180000202DE9F14F80
:1053F000002201210098FFF7FBFA00220221009809
:10540000FFF7F6FA002203210098FFF7F1FA574E52
:10541000574FDFF86081DFF86091DFF860B1584CDA
:10542000584D00984FF07E5A18B1012801D002283B
:105430007ED13046FEF756FF024605210098FFF761
:10544000D7FA3046FEF74EFF024606210098FFF7D6
:10545000CFFA3846FFF7B6FC024607210098FFF75F
:10546000C7FA0020FFF7C6FC024608210098FFF7A4
:10547000BFFA4046FFF762FB024615210098FFF78E
:10548000B7FA082213210098FFF7B2FA0422162176
:105490000098FFF7ADFAEF2217210098FFF7A8FA5E
:1054A000C32218210098FFF7A3FA4022192100987F
:1054B000FFF79EFA4846FFF72FFC02460D210098A1
:1054C000FFF796FA5046FFF73EFC0246112100987E
:1054D000FFF78EFA584600F06FF802461421009844
:1054E000FFF786FA2046FFF74BFC02460921009899
:1054F000FFF77EFA2046FFF743FC02460A21009898
:10550000FFF776FA2046FFF73BFC02460B21009896
:10551000FFF76EFA2046FFF733FC02460C21009895
:10552000FFF766FA1848FEF7FDFE02460E2100E07E
:105530001AE00098FFF75CFA2846FEF7F3FE0246F1
:105540000F210098FFF754FA2846FEF7EBFE0246BB
:1055500010210098FFF74CFA0098BDE8F84F42F68A
:1055600008621A21FFF744BABDE8F88F00801144A1
:10557000000048440000C8434A0C764200D004446E
:1055800000002041751F803D2D431C3D10B5FBF7E9
:10559000BDF8BDE810400149FAF7D2BE0024743CC2
:1055A00010B5401CFBF7B2F8BDE810400149FAF70E
:1055B000C7BE00000000FA4110B50749FAF7BAFE6D
:1055C0000649FAF7BDFE4FF07C51FAF761FEFBF792
:1055D000C0F8C0B210BD00000000FA416F12033DD8
:1055E000FFF7C4B8FFF7DAB810B5401CFBF78EF828
:1055F000BDE810404FF0FF31FAF7D4BE10B54FF0C0
:105600007C542146FAF796FE0121FAF7CBFE21469B
:10561000FAF73EFEFBF79DF8C0B210BD10B5074982
:10562000FAF788FE0649FAF78BFE4FF07C51FAF73D
:105630002FFEFBF78EF8C0B210BD00000000FA404C
:105640006F12033E10B5401CFBF760F8BDE8104038
:105650000149FAF775BE00000000FA4070B5084E27
:1056600000252C4605E02046FFF764FB0543641C3B
:10567000E4B2B0788442F6D3002DF1D170BD0000C1
:105680001800002010B504462046FFF753FB002801
:10569000FAD110BD10B5054CA278FFF745F8607837
:1056A000002801D00120207010BD0000180000204B
:1056B00010B544F6206200210620FBF743FEBDE84A
:1056C00010400620FEF75AB910B544F620620021BA
:1056D0000520FBF737FEBDE810400420FEF74EB969
:1056E0002DE9FC41002200928DF80420032001AB3B
:1056F0006A4600F009FA114C38B99DF8040060754B
:105700000098B0F5487F00D82060FEF7E9F92075D1
:105710000F20FCF7AFFA07461020FCF7ABFA06465D
:105720001120FCF7A7FA05461220FCF7A3FAC4E9FA
:105730000350C4E90176BDE8FC810000281900206F
:1057400010B518210348FAF745FD03480021016010
:1057500010BD0000281900206003002000207047C1
:105760002DE9F041044690460F460025C8B2FEF7E9
:1057700005F9002847D00B2C02D0042C03D006E0FA
:1057800000210B2001E002210420FBF76BFE1F4EDD
:105790000B2C2AD0072C28D00A20FEF79BF90121D8
:1057A0003846FEF731F8E0B232464146FBF702FEDA
:1057B00041F65838F8B26D1CFEF7E0F8060008D044
:1057C000454514DB012640F21932114911A006F0BB
:1057D000A5FDE0B2FBF7E6FC00213846FEF714F821
:1057E0000B2C08D0042C09D00CE01E20D5E701209A
:1057F00008F0E6FDDEE701210B2001E00121042095
:10580000FBF730FE3046BDE8F081000080841E00CA
:105810009B0401085B4552524F522025733A256480
:10582000235D6D6F746F72206E6F2066696E6420E9
:105830006C69676874200D0A000000002DE9F047CC
:10584000054690460E460024C8B2DDF82090FEF7CB
:1058500095F8002837D00B2D03D100210B20FBF742
:1058600001FE1A4F4846FEF735F901213046FDF793
:10587000CBFFE8B23A464146FBF79CFD41F658376C
:10588000F0B2641CFEF77AF848B1BC4212DB012486
:1058900040F265320E490FA006F040FD00E0002402
:1058A000E8B2FBF77FFC00213046FDF7ADFF0B2D82
:1058B00004D007E0012008F083FDE1E701210B207F
:1058C000FBF7D0FD2046BDE8F087000080841E0075
:1058D000B00401085B4552524F522025733A2564AB
:1058E000235D6D6F746F72206E6F2066696E642029
:1058F0006C69676874200D0A000000002DE9F04112
:105900000F4604461D461646C0B20699FBF7AAFD8F
:105910002B46324639462046FFF722FF0546E0B2C5
:105920000121FBF79FFD2846BDE8F081002070476C
:105930007047000038B50125002444F620632A464C
:10594000022104200095FFF7D9FF00B12C040122A9
:1059500049F64043114603200095FFF7CFFF08B1F9
:1059600044F400440122054B0F211046FFF7F8FED6
:1059700008B144F48044204638BD0000C027090027
:1059800010B5072100244FF4FA5301220846FFF70F
:10599000E7FE08B14FF40034204610BD10B5104C9E
:1059A0000E48022120604FF4827060600020A060E9
:1059B000C4E90301012161614902A1612021C4E917
:1059C00007106062A0620720E0622046FCF758FFE3
:1059D0002068016841F04001016010BD003C0040BA
:1059E0001018002001B582B00A200090012301AAFE
:1059F00002A90348FCF7FEFF9DF804000EBD00005D
:105A0000101800200B4A10B511680B6823F04003F2
:105A10000B6011680B684FF6C77423400B60116868
:105A20000B6803430B601068016841F0400101609E
:105A300010BD0000101800202DE9F0410E46074669
:105A4000154698460021184600F044F9002404E069
:105A5000385DFFF7C7FF3055641CAC42F8DB4046A9
:105A6000BDE8F041012100F035B92DE9F0471D46B0
:105A700090460F460446FCF791FA06465FEA080096
:105A80004FF000084FF4005A4FF0010926D034E0DF
:105A9000681C23D025B1FCF781FA801BA8421DD9D0
:105AA0002068416821F0E00141602068016821F030
:105AB00040010160A06A504509D12068016821F4C5
:105AC000005101602068016841F40051016084F8D0
:105AD000519084F850800320BDE8F08720688068EA
