:020000040800F2
:10000000501E002045010008D13D00083B32000889
:10001000653D0008A90900088DBB0008000000002C
:1000200000000000000000000000000071580008FF
:10003000A30D00080000000045400008655B0008B3
:100040005F0100085F0100085F0100085F01000810
:100050005F0100085F010008B10D0008BD0D000838
:10006000C30D0008C90D00085F0100085F0100080A
:100070005F0100085F0100085F0100085F010008E0
:100080005F0100085F0100085F0100085F010008D0
:100090005F0100085F0100085F010008CF0D000844
:1000A0005F0100085F0100085F0100085F010008B0
:1000B0005F0100085F0100085F0100085F010008A0
:1000C0005F0100085F0100085F0100085F01000890
:1000D0005F01000861B900088DB90008FDB900088A
:1000E000B70D00085F0100085F0100085F0100080C
:1000F0005F0100085F0100085F0100085F01000860
:100100005F0100085F010008B15B00085F010008A3
:10011000C1B3000811B500085F0100085F010008C5
:100120005F0100085F0100085F0100085F0100082F
:10013000DFF80CD000F09CFB0048004755D90008C0
:10014000501E00200648804706480047FEE7FEE7AD
:10015000FEE7FEE7FEE7FEE7FEE7FEE7FEE7FEE777
:10016000695B000831010008202A04DB203A00FA0C
:1001700002F1002070479140C2F1200320FA03F3FE
:1001800019439040704710B5431A934209D283181F
:10019000881803E010F8011D03F8011D521EF9D262
:1001A00010BD40EA01039B0703D009E008C9121FF4
:1001B00008C0042AFAD203E011F8013B00F8013B21
:1001C000521EF9D210BDD2B201E000F8012B491E37
:1001D000FBD270470022F6E710B513460A460446E4
:1001E0001946FFF7F0FF204610BD10B5044604E0A5
:1001F0000B7800F8013B03B1491C521EF8D220468F
:1002000010BD421C10F8011B0029FBD1801A704759
:1002100010B5002200E0521C835C8C5CA34201D12B
:10022000002BF8D1D8B2E1B2401A10BD30B5054666
:100230000020034600E05B1C934205D2EC5CC85CE6
:10024000201A01D1002CF6D130BD000070B50F4D41
:1002500000B92868002412E00A4602E09E4203D05A
:10026000521C1378002BF9D1DAB2224305D02BB1FE
:1002700024B1002100F8011B04E00446401C06786C
:10028000002EE9D12860204670BD000060030020E8
:10029000F0B480EA0102D40F4200B2EB410F02D267
:1002A0000246084611464A0042D0C30DDDB2C1F3F2
:1002B000C752AD1A202D35DAC1F3160141F4000200
:1002C00004B15242C5F1200602FA06F12A41104457
:1002D000B3EBD05F23D0C4B1012DA0EBC35009DC38
:1002E000F0BC4FF0004202EAC352DBB200F500005E
:1002F00000F032BA400000F1807000EBC350A0F172
:10030000807040EAD170490009E0490841EAC071B3
:10031000A0EBC35000F50000400800EBC350F0BC58
:1003200000F011BA6142012202EB4101001BF6E725
:10033000F0BC704781F00041AAE780F00040A7E7D9
:1003400080EA010210B502F00043400022D04A00CA
:100350001FD0010E01EB1261C0F35600C2F356022A
:1003600040F4000042F40002A0FB022000047F39A8
:10037000140400D0401C50EA124001D44000491E31
:10038000C2B20C0604EBD010401C4008802A02D0F8
:1003900003E0002010BD20F00100002900DA002059
:1003A000184310BD420005D0C0F3C75252429142DB
:1003B00001DC0020704700EBC15070472DE9FE4F73
:1003C000804681EA0300C00F0C46009021F00041F6
:1003D00023F00045B8EB0200A94105D24046214672
:1003E00090461C460B46024623F00040104347D07F
:1003F000270DC7F30A00C3F30A510290401A019077
:1004000040286BDAC3F3130040F4801B0098924637
:1004100020B10023D2EB030A63EB0B0B0198594682
:10042000C0F140025046FFF79FFE06460D4650467B
:100430005946019A00F075F910EB0800614100245B
:1004400087EA115284EAE7731A4340D0009A62B3F4
:10045000019A012A4FEA075215DC001B61EB0201E9
:100460004FF0004202EA0752CDE90042001C41F57C
:10047000801132462B4600F0ACF903B0BDE8F08F96
:1004800040462146F9E7001B61EB0201001C41F5E3
:10049000801300185B412018A2F5001747EB0301F9
:1004A00040EAD570B6196D4111E06D084FEA360685
:1004B00045EAC0754FEA0752001B61EB0201001CC0
:1004C00041F5801149084FEA300000195141324688
:1004D0002B4603B0BDE8F04F00F06CB90098012244
:1004E00040000023D0EB020263EBE073009821464A
:1004F0004FEAE074B8EB000061EB0401E9E783F038
:1005000000435BE781F0004158E72DE9FE4F81EAA7
:10051000030404F0004421F0004100944FF0000B6C
:1005200023F0004350EA01045ED052EA03045BD09A
:10053000C3F30A54C1F30A552C44A4F2F3340194D2
:10054000A0FB0254C1F3130141F48011C3F3130360
:1005500043F4801301FB024400FB034E840A970A14
:1005600044EA815447EA8357A4FB076802958D0A41
:1005700005FB07854FEA932C04FB0C542705029DCD
:100580004FEA065847EA1637B5EB08056EEB070C3D
:10059000870E920E47EA811742EA8312A7FB0201F7
:1005A000B6EB0B0164EB00042B0D43EA0C335E1831
:1005B00044EB1C50DA465146E7FB0201C5F3130435
:1005C0004FEA0B3343EA14534FEA0432019C43EAE7
:1005D0000603A4F10C040294009CCDE900B400F0E1
:1005E000F8F803B0BDE8F08F00200146F9E7C10F2D
:1005F00080EAE0700844CA079623002100F0ACB8F6
:1006000096230022114600F0A7B80EB5C10F80EA6C
:10061000E0700844CA07002140F233438DE80E0021
:100620000A460B4600F0D5F803B000BD20F00040AC
:10063000C10DC0F3160040F400007F2901DA00204C
:100640007047962903DCC1F19601C840704796397E
:100650008840704701F0004330B421F0004150EA77
:10066000010206D00A0DA2F56072C1F31301002A3F
:1006700002DC30BC00207047440F44EAC104C100D2
:10068000E01830BC00EBC25000F05DB8002801DB80
:10069000C0F10040002901DBC1F1004188427047F0
:1006A0002DE9F05F0546002092469B4688460646A7
:1006B000814640241BE0284641464746224600F03A
:1006C00020F853465A46C01A914110D31146184695
:1006D0002246FFF749FD2D1A67EB01084F462246D7
:1006E00001200021FFF740FD17EB00094E41201EBD
:1006F000A4F10104DFDC484631462A464346BDE802
:10070000F09F202A04DB203A21FA02F000217047F2
:1007100021FA02F3D040C2F1200291400843194669
:100720007047202A06DBCB17203A41FA02F043EA51
:10073000E07306E041FA02F3D040C2F1200291409A
:100740000843194670470029A8BF7047401C49005C
:1007500008BF20F00100704710B4B0FA80FC00FA26
:100760000CF050EA010404BF10BC704749B1CCF151
:10077000200421FA04F411FA0CF118BF01212143DD
:100780000843A3EB0C01CB1D4FEA00614FEA102098
:1007900042BF002010BC704700EBC350104400293A
:1007A000A4BF10BC7047401C490008BF20F00100E6
:1007B00010BC704710B5141E73F1000408DA401C19
:1007C00041F1000192185B411A4301D120F0010070
:1007D00010BD2DE9F04D92469B4611B1B1FA81F260
:1007E00002E0B0FA80F220329046FFF7BDFC0446EA
:1007F0000F4640EA0A0041EA0B0153465A460843B5
:1008000013D0114653EA010019D0C8F140025046F6
:10081000FFF777FF05460E46504659464246FFF71A
:10082000A3FC084305D0012004E020463946BDE87A
:10083000F08D0020054346EAE0762C4337430A98C2
:100840006305E40AA0EB08000022FD0A44EA4754CD
:100850000A3002D500200146E9E701051019694177
:10086000DDE9084500196941BDE8F04DA2E7000047
:10087000064C074D06E0E06840F0010394E80700ED
:1008800098471034AC42F6D3FFF756FCC8F3000883
:10089000E8F3000870B58C1810F8015B15F0070339
:1008A00001D110F8013B2A1106D110F8012B03E009
:1008B00010F8016B01F8016B5B1EF9D12B0705D411
:1008C0000023521E0DD401F8013BFAE710F8013B5A
:1008D000CB1A921C03E013F8015B01F8015B521E76
:1008E000F9D5A142D8D3002070BD70B505460021CE
:1008F00005F082F814200CF063FB04F013FF0446AB
:100900000A200CF05DFB0121284605F075F80A204D
:100910000CF056FB204670BD0349496819B1D1F867
:10092000F01001B10847FEE79C0100200449496826
:1009300011B1896C01B1084740F61200FFF7ECBF16
:100940009C010020C0B201F0C3B800F0BBBD0000A4
:10095000F8B50546002409480E46009023460622B5
:100960002146052000F05CFD062002F0A7FE28705D
:10097000042002F0A3FE30702046F8BDD001010033
:1009800010B5A0B000236A4606E0CC1A044414F85F
:10099000014CD4545B1CDBB28B42F6D30A46694649
:1009A000FFF7F1FB20B010BDFEE70020704710B547
:1009B0000024FFF7FAFF08B1392010BD00F005F858
:1009C00008B1382010BD204610BD0020704730B55A
:1009D00001784278C378114482781A44114402792C
:1009E00011444279114482791144C2791144027A46
:1009F0001144427A1144827A1144C27A1144C9B234
:100A00000A22B1FBF2F302FB13146423B1FBF3F5EA
:100A100003FB1515B5FBF2F2B1FBF3F130343032C4
:100A2000047342733031817330BD000010B5312240
:100A3000024903A00BF0D4F8002010BD5BF00008C1
:100A40005B25733A2564235D796F7520686176654F
:100A50002063686F6F736520446566696E65204228
:100A60006F617264204F4B20696E205B636F6E660E
:100A700069672E685D2E200D0A00000030B587B032
:100A8000054600F04DF818220B496846FFF77BFB3E
:100A9000094C103C94E80F000CF018FEE8B203F08B
:100AA000D3FAA4F1640004F033F807B00020BDE8E5
:100AB0003040FFF73BBF0000F806002070B500246F
:100AC00041F270752A4600210620641C00F0FAFCF1
:100AD000052002F0F3FD002801D1022CF2DB70BDED
:100AE00070B5002441F270752A4600210520641C6F
:100AF00000F0E8FC032002F0E1FD002801D1022C07
:100B0000F2DB70BD10B54FF4AA710348FFF762FB2A
:100B100002490020087010BD24120020F8020020B5
:100B20002DE9F84F064600200C46009028216C481D
:100B3000FFF750FB6A4D0021DFF8A8C12E706A4F05
:100B4000DFF8A8E1DFF8A8A16A4A6B486B4B4FF0C9
:100B500008094FF07E5B69610C2E74D2DFE806F065
:100B6000BA061A41505F5F69748190AE85F80490AF
:100B70006349A960AB61E960C5E907326B62002C8B
:100B800005D0012C02D0022C02D0A5E05D4890E0F7
:100B90005D488EE085F804905948A860AB61E86034
:100BA000C5E907324E4E594828366B622861012C40
:100BB00001D054B190E03089FFF722FDA860708920
:100BC000FFF71EFDE860F08808E07088FFF718FD69
:100BD000A860B088FFF714FDE8603088FFF710FDCB
:100BE00067E02971AA61C5E9072BC5F808C06A62E8
:100BF000C5E903C134B3012C5BD0022C59D06BE0A2
:100C00002971AF61C5E9077BC5F808C06F62C5E906
:100C100003C0A4B3012C5FD1C5F810E05CE02971DA
:100C2000AF61C5E9077BC5F808C06F62C5E903CEAF
:100C300052E029713648AF61C5E907703548A860B0
:100C40006F62E86035E045E085F804903248A861BD
:100C5000C5E90702C5F808A0C5F80CA068622F48CE
:100C600027E085F80490AB61C5E907322B48C5F849
:100C700008A0C5E903A02A486B62D4B1BBE72BE00A
:100C800085F804902748A861C5E90702C5F808C09F
:100C9000C5F80CC0686224B1012C09D0022C0AD01E
:100CA0001AE02148A861C5E9070368621F4800E00F
:100CB0001F48286110E0C5F810A00DE029711D49FA
:100CC000AF61C5E90771C5F808A06F62C5E903A364
:100CD00014B190E7012000900098BDE8F88F000063
:100CE000E806002000409C450000A0410000484369
:100CF00000803B450000204100007A440000C842CB
:100D000000606A460000FA440080BB4500007A4556
:100D1000000070410000484200003E430080BB4498
:100D200000803B44000016430000F04200001644DF
:100D3000000096440000A04010B50021022000F001
:100D40003FFF044C00212060022000F04DFF606056
:100D500010BD0000D802002010B50121022000F0D3
:100D60002FFF044C01212060022000F03DFF606055
:100D700010BD00003C03002010B5044600F0CCF983
:100D800000280BD13CB100F0F7F9002806D1BDE8EE
:100D9000104000F083B900F09BF8F6E710BD00208A
:100DA000704770470148406806F0F3BFF802002022
:100DB000062001F043B9282001F040B9072001F0D6
:100DC0003DB9042000F0FCBF082000F0F9BF172057
:100DD00001F034B930B5A3B04C208DF880004F201D
:100DE0008DF8810046208DF882008DF883000D205B
:100DF0008DF884000A208DF8850000202290FFF7EE
:100E00009BFF124C062120A86268904764200CF0DA
:100E1000C9F8226822A96846904700246D4606E07A
:100E20002B5DDE220A490BA00AF0DAFE641C229830
:100E30008442F5DBE122064909A00AF0D1FEE32253
:100E400003490AA00AF0CCFE23B030BDD80200202E
:100E50004CF200085B25733A2564235D256300008E
:100E60005B25733A2564235D0D0A00005B25733A08
:100E70002564235D5343414E20454E440D0A000036
:100E80004FF416500AF098B94FF416500AF08CB986
:100E90000D4810B5816986B041F0400181618069DB
:100EA0000A4C00F04000049000222021204601F06E
:100EB0008EF820210091012101910391694620467D
:100EC00000F08AFF06B010BD00100240001801407B
:100ED0002DE9F04117A0A4B007C820ABDFF864806B
:100EE00083E8070016A0C825066800202390D8F8DC
:100EF00004200A2120A89047134F0DE003203C68EE
:100F00000CF050F83868844206D12CB1D8F8002093
:100F100023A96846904701E06D1EEFD29DF80000BE
:100F2000F1B2884203D1002024B0BDE8F081012055
:100F3000FAE700002339393930303034303B0000D3
:100F400021000000D0020020C00200200EB508A140
:100F50000EC98DE80E0018B908A007C88DE8070073
:100F6000094A0A2168465268904700200EBD0000D9
:100F70002339393930303033323B000023393939A5
:100F800030303033313B0000D00200202DE9F041F9
:100F900019A0A4B007C820ABC82583E8070019A092
:100FA00080210668002023906846FFF713F9DFF8D8
:100FB00058800A2120A8D8F804209047134F0DE04C
:100FC00003203C680BF0EEFF3868844206D12CB158
:100FD000D8F8002023A96846904701E06D1EEFD2A3
:100FE0009DF80000F1B2884203D1002024B0BDE892
:100FF000F0810120FAE700002339393930303131EE
:10100000363B000021000000D0020020C00200207A
:10101000F0B51AA10446A7B007C920ABC82583E8DC
:10102000070019A123AB07C983E807000020269019
:1010300080216846FFF7CEF8164E4FF00A010CB13A
:1010400020A800E023A872689047134F0CE003200B
:101050003C680BF0A7FF3868844205D124B13268A0
:1010600026A96846904701E06D1EF0D22698032815
:1010700002DC012027B0F0BD0020FBE7233939391D
:1010800030303033353B000023393939303030339C
:10109000363B0000D0020020C0020020F0B514A0B2
:1010A000A3B00068219000202090C82580216846C8
:1010B000FFF790F80F4F042121A87A6890470E4E51
:1010C0000CE0032034680BF06DFF3068844205D1DA
:1010D00024B13A6820A96846904701E06D1EF0D21D
:1010E0002098032802DC012023B0F0BD0020FBE79C
:1010F00025252525D0020020C002002010B500F0D3
:101100000BF8002807D1FFF741FF002803D1BDE805
:101110001040FFF7C3BF10BDF0B514A085B0006844
:1011200004900020124F0390009001900290C82577
:101130007A68042104A890470E4E0CE0032034681E
:101140000BF030FF3068844205D124B13A6803A91E
:101150006846904701E06D1EF0D20398032802DC38
:10116000012005B0F0BD0020FBE70000242424246A
:10117000D0020020C00200202DE9F04117A0A4B049
:1011800007C820ABDFF8648083E8070000202390C5
:1011900015A0C8250668D8F804200A2120A8904781
:1011A000134F0DE003203C680BF0FCFE38688442CE
:1011B00006D12CB1D8F8002023A96846904701E059
:1011C0006D1EEFD29DF80000F1B2884203D10020DD
:1011D00024B0BDE8F0810120FAE700002339393955
:1011E00030303034313B000021000000D0020020BC
:1011F000C00200200EB50EA101280EC98DE80E0018
:101200000CD0022804D0032804D0042806D10CE016
:101210000AA000E00CA007C88DE807000D4A0A21CB
:1012200068465268904700200EBD0BA0F3E700000F
:101230002339393930303132303B000023393939E4
:1012400030303132313B00002339393930303132DE
:10125000323B0000D002002023393939303031329E
:10126000333B000010B502F07BFC00280FD104F0E6
:10127000DBF900280BD102F0A9FC002807D104F00B
:10128000F9F9002803D1BDE8104000F0D7BC10BD2B
:101290004FF47A720346514310B500200C4A082BD4
:1012A00015D2DFE803F0140406080A0C0E1050688B
:1012B0000AE0D06808E0506906E0D06904E0506AAE
:1012C00002E0D06A00E0506B400091FBF0F010BDEE
:1012D000F81700202DE9F04F85B00922404941A0C0
:1012E0000AF07EFC4448816941F00801816181690E
:1012F00001F008010491816941F010018161816967
:1013000001F010010491816941F02001816181693E
:1013100001F020010491816941F0400181618169FE
:1013200001F040010491816941F48071816180691B
:10133000032500F48070CDE903504FF46C4601247E
:10134000CDE9006469462D4800F046FD4FF4707702
:10135000DFF8ACB0CDE9007469465846039500F05B
:101360003BFD4FF47F48CDE900846946254803954D
:1013700000F032FD4FF47049CDE9009469462248EF
:10138000039500F029FD4FF4FE7ACDE900A41F4C2F
:1013900069460395204600F01FFD0022314617489C
:1013A00000F015FE00223946584600F010FE0022DB
:1013B0004146144800F00BFE00224946124800F056
:1013C00006FE00225146204600F001FE00F0C0FB60
:1013D0006E2203490EA00AF003FC05B0BDE8F08FB1
:1013E000A5F300085B25733A2564235D737461726D
:1013F00074200D0A0000000000100240000C0140A3
:10140000001001400014014000180140002001407C
:101410005B25733A2564235D656E64200D0A000028
:101420002DE9FF5F002498469346264625460E9FE9
:10143000009800F003FB4146584600F0FFFA1E49B1
:101440000120C1F8A0011D4AC2F8B801DFF8708080
:1014500091468A4621E001200BF0B2FDD8F82C001D
:10146000B4FBF0F200FB124038B9D9F8B821D243EE
:10147000C9F8B821761CBE4215D2D8F82400B4FBB6
:10148000F0F100FB114038B9DAF8A011C943CAF8ED
:10149000A0116D1CBD4206D2641CD8F8240078430C
:1014A000B4EB400FD7D3009800F012FB04B05846BD
:1014B000BDE8F05F00F00CBB000022420080224239
:1014C000F81700202DE9F05F15468346002400F050
:1014D000B5FA914A00210120904B914FBBF10C0FBE
:1014E0001FD2DFE80BF01E061F375069829AB2CB7D
:1014F000E4FD17468A46814698461E680FE0C7F805
:10150000A49130460BF05CFDC7F8A4A130460BF067
:1015100057FDD8F80400B04200D2761E641CAC42DD
:10152000EDD3F4E08A46814698469E680FE0C7F8FE
:10153000BC9130460BF044FDC7F8BCA130460BF01F
:101540003FFDD8F80C00B04200D2761E641CAC42BD
:10155000EDD3DCE017468A46814698461E690FE0C7
:10156000C7F89C9130460BF02BFDC7F89CA1304684
:101570000BF026FDD8F81400B04200D2761E641C91
:10158000AC42EDD3C3E017468A46814698469E6931
:101590000FE0C7F8989130460BF012FDC7F898A1FC
:1015A00030460BF00DFDD8F81C00B04200D2761E7C
:1015B000641CAC42EDD3AAE017468A4681469846A1
:1015C0001E6A0FE0C7F8A09130460BF0F9FCC7F88F
:1015D000A0A130460BF0F4FCD8F82400B04200D2B1
:1015E000761E641CAC42EDD391E08A468146984653
:1015F0009E6A0FE0C7F8B89130460BF0E1FCC7F8DF
:10160000B8A130460BF0DCFCD8F82C00B04200D278
:10161000761E641CAC42EDD379E08A46814698463A
:101620001E6B0FE0C7F8B49130460BF0C9FCC7F849
:10163000B4A130460BF0C4FCD8F83400B04200D25C
:10164000761E641CAC42EDD361E017468A468146A3
:1016500098469E6B0FE0C7F8A49130460BF0B0FCA3
:10166000C7F8A4A130460BF0ABFCD8F83C00B04260
:1016700000D2761E641CAC42EDD348E017468A4681
:10168000814698461E6C0FE0C7F8A09130460BF0DB
:1016900097FCC7F8A0A130460BF092FCD8F84400A4
:1016A000B04200D2761E641CAC42EDD32FE08A46D5
:1016B000814698469E6C0FE0C7F8B49130460BF017
:1016C0007FFCC7F8B4A130460BF07AFCD8F84C0088
:1016D000B04200D2761E641CAC42EDD317E0FFE7A7
:1016E0008A46814698461E6D0FE0C7F8B091304695
:1016F0000BF066FCC7F8B0A130460BF061FCD8F8DF
:101700005400B04200D2761E641CAC42EDD3584661
:10171000BDE8F05F00F0DCB900002242F8170020BD
:10172000008022422DE9FF5F15468346002400F029
:1017300085F9AC4A00210120AB4BAC4FBBF10C0F3B
:1017400024D2DFE80BF0230624415F7D9BB8D5F55A
:10175000F3F217468A46814698461E6814E00398BD
:101760000AF080FA002811D0C7F8A49130460BF097
:1017700027FCC7F8A4A130460BF022FCD8F80400DF
:10178000B04200D2761E641CAC42E8D324E18A4603
:10179000814698469E6814E003980AF063FA002890
:1017A000F4D0C7F8BC9130460BF00AFCC7F8BCA1D6
:1017B00030460BF005FCD8F80C00B04200D2761E83
:1017C000641CAC42E8D307E117468A468146984636
:1017D0001E6914E003980AF045FA0028D6D0C7F82D
:1017E0009C9130460BF0ECFBC7F89CA130460BF007
:1017F000E7FBD8F81400B04200D2761E641CAC425D
:10180000E8D3E9E017468A46814698469E6914E087
:1018100003980AF027FA0028B8D0C7F89891304604
:101820000BF0CEFBC7F898A130460BF0C9FBD8F8F7
:101830001C00B04200D2761E641CAC42E8D3CBE060
:1018400017468A46814698461E6A14E003980AF0B5
:1018500009FA00289AD0C7F8A09130460BF0B0FBE7
:10186000C7F8A0A130460BF0ABFBD8F82400B0427B
:1018700000D2761E641CAC42E8D3ADE08A468146B5
:1018800098469E6A14E003980AF0ECF9002811D0FB
:10189000C7F8B89130460BF093FBC7F8B8A13046B3
:1018A0000BF08EFBD8F82C00B04200D2761E641CE0
:1018B000AC42E8D390E08A46814698461E6B14E01D
:1018C00003980AF0CFF9002811D0C7F8B491304638
:1018D0000BF076FBC7F8B4A130460BF071FBD8F8DB
:1018E0003400B04200D2761E641CAC42E8D373E0F0
:1018F00017468A46814698469E6B13E003980AF085
:10190000B1F988B3C7F8A49130460BF059FBC7F87A
:10191000A4A130460BF054FBD8F83C00B04200D2F2
:10192000761E641CAC42E9D356E03AE01DE0FFE7C6
:1019300017468A46814698461E6C13E003980AF0C3
:1019400091F988B1C7F8A09130460BF039FBC7F880
:10195000A0A130460BF034FBD8F84400B04200D2CE
:10196000761E641CAC42E9D336E08A46814698462E
:101970009E6C13E003980AF075F968B3C7F8B49148
:1019800030460BF01DFBC7F8B4A130460BF018FB36
:10199000D8F84C00B04200D2761E641CAC42E9D3A9
:1019A0001AE08A46814698461E6D13E003980AF0B5
:1019B00059F988B1C7F8B09130460BF001FBC7F870
:1019C000B0A130460BF0FCFAD8F85400B04200D277
:1019D000761E641CAC42E9D304B05846BDE8F05F03
:1019E00000F076B800002242F81700200080224262
:1019F0002DE9F04782460F4815460024D0F808909C
:101A0000504600F01BF800274FF001080A4E0AE08C
:101A1000C6F8BC8148460BF0D3FAC6F8BC714846FC
:101A20000BF0CEFA641CAC42F2D35046BDE8F0474E
:101A300000F04EB8F817002000802242F0B40122D6
:101A40001F4B204C204D214E082835D2DFE800F0F6
:101A500034040B121920272EC3F89821C3F89C21B7
:101A6000C3F8A01128E0C4F8B421C4F8B821C4F820
:101A7000BC1121E0C5F8AC21C5F8B021C3F888112C
:101A80001AE0C5F8A021C5F8A421C5F8A81113E0F3
:101A9000C3F88C21C3F89021C3F894110CE0C6F868
:101AA000BC21C4F8A821C4F8AC1105E0C6F8B021E7
:101AB000C6F8B421C6F8B811F0BC01200BF080BA0A
:101AC0000000244200802142008022420000234284
:101AD0002DE9F041044601200BF072FA00220121A9
:101AE0001748184E184B194D082C09D2DFE804F09E
:101AF00008040A0F14191E23C0F89821C0F89C117D
:101B0000BDE8F081C6F8B421C6F8B811F8E7C3F80B
:101B1000AC21C3F8B011F3E7C3F8A021C3F8A411B6
:101B2000EEE7C0F88C21C0F89011E9E7C5F8BC21B8
:101B3000C6F8A811E4E7C5F8B021C5F8B411DFE78D
:101B40000000244200802142008022420000234203
:101B500010B558211348FEF73DFB12484FF4C871E9
:101B60001422C82380E80E000523C360C0E90412D4
:101B70002823C0E906136424C0E908141E24C0E920
:101B80000A144FF4FA7404634FF496744463C0E982
:101B90000E12C0E910123222C0E91212C0E9141369
:101BA00010BD0000F81700200148C0687047000011
:101BB0009402002001480078704700009402002041
:101BC00010B5044609F05EFF18B9022C03D0032CAF
:101BD00003D0002010BD024810BD024810BD000017
:101BE00009B3000851B3000810B5044609F04AFFD4
:101BF00018B9022C03D0032C03D0002010BD0248DA
:101C000010BD024810BD000031B3000885B30008C4
:101C100010B50F2000F092F80446102000F08EF866
:101C200044EA4004112000F089F844EA80041220BC
:101C300000F084F844EAC000C0B210BD10B5002422
:101C4000092001F03BFD68B1082001F037FD58B1D3
:101C50000A2001F033FD48B1102001F02FFD38B10A
:101C6000204610BD432010BD442010BD4B2010BDA8
:101C70004A2010BD2DE9F041A2B00F4606460024CF
:101C8000802101A8FEF7A6FA01F05AFE4FF47A70FF
:101C90001B4D0090052369781A48AA6803F0A7FF36
:101CA000184A2121686809F037FA00224FF4FA71C6
:101CB000686808F043FB8046686806F0B9F9C0B967
:101CC00010496868383106F001F90E4C8046383406
:101CD0000C4814F83F1F01AA383008F0B1FF2078F3
:101CE0004400202C00DD2024224601A93846FEF7BE
:101CF0004AFA3470FFF7C8F822B04046BDE8F081D8
:101D0000F8020020980E002010B5044603F016FCDF
:101D10000248D0E90010C4E9001010BD54030020AF
:101D200010B5044603F00AFC2046BDE81040182216
:101D30000149FEF728BA0000E017002070B50546FB
:101D400000240BF0C9FB0B490F2D06D0102D06D037
:101D5000112D06D0122D0AD105E0096804E049686A
:101D600002E0896800E0C968884200DB012420465F
:101D700070BD0000B40100200BF0AEBB70B50C4686
:101D800001461D4616460F2003F04EFE2146102048
:101D900003F04AFE3146112003F046FE2946BDE815
:101DA0007040122003F040BE31B500F015F9044632
:101DB00000F012F90099001B8842F9D338BD704732
:101DC000044910B50A68024202D00860FFF7F7FF25
:101DD00010BD0000140401402DE9F84FDFF8BC915C
:101DE000002309F1040A0AF1040B1C464FF00F0806
:101DF0000BF1040E01270A68A7403A40BA4272D19B
:101E0000DFF89CC14D68A5EB0C0665452BD00DDCB9
:101E1000032D34D005DC35B3012D19D0022D2FD17F
:101E20001BE0112D16D0122D2AD119E0B6F5881F0E
:101E300019D006DCB6F5803F15D0B6F5801F1FD14E
:101E400011E0B6F5001F0ED0B6F5041F18D10AE058
:101E5000CB6815E0CB681B1D12E0CB6808330FE0A0
:101E6000CB680C330CE08B682BB1012B4FF00803CF
:101E700003D0476104E0042302E0076100E000238F
:101E8000FF2A01D8064601E000F104064FEA840566
:101E900001D9A5F12005376808FA05FC27EA0C07E7
:101EA00003FA05F547EA050737604D68ED006ED582
:101EB0003C4DAE6946F00106AE61AD6924F0030603
:101EC00005F001050095384D7719BE68A5072D0F5F
:101ED00008FA05FC26EA0C06DFF8D0C0604503D1FD
:101EE0004FF0000C25E052E0DFF8C4C0604502D19D
:101EF0004FF0010C1DE0DFF8BCC0604502D14FF08F
:101F0000020C16E0DFF8B0C0604502D14FF0030CC0
:101F10000FE0DFF8A8C0604502D14FF0040C08E0E4
:101F2000DFF89CC0604502D14FF0050C01E04FF096
:101F3000060C0CFA05FC4CEA060CC7F808C04D6804
:101F4000D9F80060ED034D4601D5164300E09643F5
:101F50002E604D68DAF80060AD03554601D5164392
:101F600000E096432E604D68DBF80060ED025D46B0
:101F700001D5164300E096432E604D68DEF8006000
:101F8000AD02754601D5164300E096432E60641CF1
:101F9000102CFFF42FAFBDE8F88F000000040140C3
:101FA0000000111000100240000001400008014034
:101FB000000C0140001001400014014000180140D5
:101FC000001C01408068084000D0012070470AB121
:101FD000016170470904FBE7014800687047000091
:101FE0000400002002480168491C0160704700009D
:101FF00004000020074810B5016841F0100101609D
:10200000052000F051F80F2000F006F800F015F858
:10201000002010BD0020024010B5044600F016F963
:102020004FF47A71B0FBF1F000F067FE0022214618
:10203000501E00F019F8002010BD704700F01F027C
:10204000012191404009800000F1E020C0F880119A
:10205000704700F01F02012191404009800000F10B
:10206000E020C0F800117047F0B40E4B1B68C3F3BA
:102070000223C3F10704042C00D904241D1D072DDD
:1020800001D2002300E0DB1E012606FA04F56D1ED6
:102090000D409D409E40761E164045EA0601F0BC6C
:1020A00001F097BE0CED00E0064A00F00701106851
:1020B0004FF6FF03184040EA01200349084310602F
:1020C000704700000CED00E00000FA052DE9F04734
:1020D000DFF8688104460E46D8F8000000F00700DB
:1020E000B0420CD2D8F8001021F007013143C8F8F3
:1020F0000010D8F8000000F00700B04273D120783B
:102100004F4F800705D57868A16820F0F00008439C
:1021100078602078C00755D06068012201280CD073
:10212000022828D0022393FAA3F1B1FA81F141F0F9
:102130002001490904D0396803E04FF40033F2E785
:10214000796A93FAA3F3B3FA83F303F01F039A4077
:10215000114248D0796821F0030101437960FFF70B
:102160003BFF0546606841F2883101280CD0022807
:10217000894615D022E04FF00073D4E7FFF72CFF1B
:10218000411B494501D916E089467868C0F38100B2
:102190000128F3D116E0FFF71FFF411B49450AD87C
:1021A0007868C0F381000228F5D10BE0FFF714FF37
:1021B000411B494502D90320BDE8F087786810F03B
:1021C0000C0FF3D1D8F80010404601F00701B142DE
:1021D0000BD9016821F0070131430160006800F06C
:1021E0000700B04201D00120E6E72078400705D57E
:1021F0007868E16820F4E0600843786020780007A0
:1022000006D57868216920F4605040EAC100786002
:1022100000F052F87968F02292FAA2F201F0F0018F
:10222000B2FA82F2D140074A515CC84006490860C0
:102230000F20FFF7F1FE0020BEE700000020024063
:102240000010024087F000080000002001480068EC
:1022500070470000000000200848094900684968EC
:102260004FF4E06292FAA2F201F4E061B2FA82F273
:10227000D140044A515CC840704700000000002073
:102280000010024097F000080848094900684968B2
:102290004FF4605292FAA2F201F46051B2FA82F263
:1022A000D140044A515CC840704700000000002043
:1022B0000010024097F0000810B519A085B00FC8B3
:1022C0008DE80F001AA01B4B0068049059681A484B
:1022D00001F00C02042A1DD0082A1BD14FF47014FF
:1022E00094FAA4F401F47012B4FA84F4E240C9033D
:1022F0001DF8022010D559684FF4003393FAA3F368
:1023000001F40031B3FA83F3D94004AB595CB0FB5C
:10231000F1F0504305B010BD08485043FAE7000003
:1023200002030405060708090A0B0C0D0E0F101016
:10233000010200000010024000127A0000093D0076
:102340002DE9F84F04460078FE4EC0074FF0010516
:102350007FD070684FF40038C0F38100012807D0A7
:102360007068C0F3810002281BD17068C00318D5C3
:1023700098FAA8F0B0FA80F040F02000400901D0AF
:10238000306800E0706A98FAA8F1B1FA81F101F0C2
:102390001F0105FA01F108425BD06068002879D07E
:1023A00057E06068B0F5803F0BD010B1B0F5A02FBA
:1023B00011D0306820F480303060306820F4802004
:1023C00002E0306840F480303060606818B3FFF796
:1023D00003FE074609E0306840F480203060F0E7F3
:1023E000FFF7FAFDC01B642870D898FAA8F0B0FA7D
:1023F00080F040F02000400901D0306800E0706AB1
:1024000098FAA8F1B1FA81F101F01F0105FA01F182
:102410000842E5D01DE0FFF7DFFD074604E0FFF7C7
:10242000DBFDC01B6428DFD898FAA8F0B0FA80F072
:1024300040F02000400901D0306800E0706A98FA4E
:10244000A8F1B1FA81F101F01F0105FA01F108428A
:10245000E5D12078DFF8F08280074FF0000A4FF0D6
:1024600002075AD570684FF0F80B10F00C0F07D028
:102470007068C0F3810002281CD17068C00319D4B1
:1024800097FAA7F0B0FA80F040F02000400902D09F
:10249000306801E08AE0706A97FAA7F1B1FA81F139
:1024A00001F01F0105FA01F108422BD02069012833
:1024B0007CD127E0206988B395FAA5F0B0FA80F0C6
:1024C00048F82050FFF788FD814606E04DE1FFF710
:1024D00083FDA0EB0900022886D897FAA7F0B0FA8E
:1024E00080F040F02000400901D0306800E0706AC0
:1024F00097FAA7F1B1FA81F101F01F0105FA01F194
:102500000842E4D030689BFAABF220F0F801606931
:10251000B2FA82F290400143316025E0FFE795FA7C
:10252000A5F1B1FA81F148F821A0FFF755FD8146E8
:1025300005E0FFF751FDA0EB09000228CCD897FA7F
:10254000A7F0B0FA80F040F02000400901D03068D8
:1025500000E0706A97FAA7F1B1FA81F101F01F016A
:1025600005FA01F10842E4D1207800076DD5A06991
:10257000B8B395FAA5F0B0FA80F008EB8000C0F887
:102580008054FFF729FD814605E0FFF725FDA0EB0C
:1025900009000228A0D897FAA7F0B0FA80F040F01E
:1025A0006000B5EB501F02D130680CE063E197FA90
:1025B000A7F0B0FA80F040F06000B7EB501F01D1F7
:1025C000306A00E0706A97FAA7F1B1FA81F101F080
:1025D0001F0105FA01F21042D7D00120FFF7E4FBFA
:1025E00033E0FFE795FAA5F1B1FA81F108EB81013B
:1025F000C1F880A4FFF7F0FC814605E0FFF7ECFC92
:10260000A0EB0900022899D897FAA7F0B0FA80F059
:1026100040F06000B5EB501F01D130680BE097FA35
:10262000A7F0B0FA80F040F06000B7EB501F01D186
:10263000306A00E0706A97FAA7F1B1FA81F101F00F
:102640001F0105FA01F21042D8D12078400763D566
:10265000F06940F08050F061F069DFF8F0B000F010
:1026600080500090DBF8001041F48071CBF800102E
:10267000FFF7B2FC814605E0FFF7AEFCA0EB0900D6
:10268000642872D8DBF80000C005F5D5E0680128A1
:102690000AD008B1052813D0306A20F0010030625A
:1026A000306A20F0040002E0306A40F0010030623D
:1026B000E06841F2883B80B3FFF78EFC81460AE078
:1026C000306A40F004003062EEE7FFF785FCA0EBD3
:1026D0000901594549D897FAA7F0B0FA80F040F0BF
:1026E0004000B5EB501F01D130680BE097FAA7F01E
:1026F000B0FA80F040F04000B7EB501F01D1306AD3
:1027000000E0706A97FAA7F1B1FA81F101F01F02B7
:1027100005FA02F10842D8D033E0FFE7FFF75CFC8E
:10272000814605E0FFF758FCA0EB090159451CD88C
:1027300097FAA7F0B0FA80F040F04000B5EB501FD8
:1027400008D105E000100240000042420070004045
:1027500030680CE097FAA7F0B0FA80F040F0400043
:10276000B7EB501F02D1306A01E08AE0706A97FA35
:10277000A7F1B1FA81F101F01F0205FA02F1084256
:10278000D0D1E06998B37168C1F38101022972D098
:1027900002284FF080714FF0007B50460AD091FA2A
:1027A000A1F1B1FA81F148F82100FFF715FC0446C8
:1027B0005F4669E08A4691FAA1F1B1FA81F1C1461A
:1027C00048F82100FFF708FCA84607465D4604E0EC
:1027D000FFF702FCC01B022853D895FAA5F0B0FA07
:1027E00080F040F02000400902D0306801E060E055
:1027F000706A95FAA5F1B1FA81F101F01F0208FAA9
:1028000002F10842E4D1206AB0F5803F05D170683A
:10281000A16820F4003008437060D4E9080108433F
:10282000716821F47411084370609AFAAAF0B0FA42
:1028300080F0474649F82080FFF7CEFB044604E0CD
:10284000FFF7CAFB001B02281BD895FAA5F0B0FAC7
:1028500080F040F02000400901D0306800E0706A4C
:1028600095FAA5F1B1FA81F101F01F0107FA01F122
:102870000842E5D01DE01EE0FFF7AEFB001B02287A
:1028800002D90320BDE8F88F97FAA7F0B0FA80F0DC
:1028900040F02000400901D0306800E0706A97FAEB
:1028A000A7F1B1FA81F101F01F0105FA01F1084227
:1028B000E2D10020E6E70120E4E7000010B50400C3
:1028C00003D094F8510010B104E0012010BD20465F
:1028D00000F038F8022084F851002068016821F0E7
:1028E00040010160D4E901010843D4E90312114316
:1028F000084361690843218B01F400710843E169D1
:102900000843216A0843A16A084321680860A06956
:10291000042101EA1040616A084321684860216887
:10292000E06A08612068C16921F40061C16104495D
:10293000002008706065012084F85100002010BD5F
:102940000800002070B5354B01680025344802248A
:10295000012286B0994233D1816941F0040181613D
:10296000816901F004010491816941F004018161F0
:10297000816901F004010491816941F004018161E0
:10298000816901F004010491816941F48051816100
:102990008069039200F48050049020208DE831007B
:1029A000204C69462046FFF717FA402100916946FE
:1029B0002046FFF711FA802100916946204629E060
:1029C000194B994228D1816941F0080181618169DF
:1029D00001F008010491C16941F40041C161C1697C
:1029E00001F400410491816941F001018161806934
:1029F0000E4E00F0010004902820CDE90004694645
:102A000003923046FFF7E8F91020CDE9000569464A
:102A100002943046FFF7E0F906B070BD0030014087
:102A20000010024000080140003C0040000C014042
:102A30002DE9F8430026DDF820800446ADF800605B
:102A400090F85100012803D094F8510022287DD13C
:102A500069B162B15BB194F85000012876D00127CA
:102A600084F8507094F85100012803D005E001204B
:102A7000BDE8F883322084F851006665A263A3871D
:102A8000E3872163A386E386A664E664A06A4FF425
:102A90000055A84209D12068016821F40051016065
:102AA0002068016841F4005101602068016849060E
:102AB00003D4016841F040010160E0684FF4827185
:102AC000B0F5006F606807D0002867D088426ED1EB
:102AD000E08E012862D06AE020B188420CD1E08EFD
:102AE000012809D1206B21680088C860206B801CF8
:102AF0002063E08E401EE086E08E80B9A06AA84286
:102B000044D12068016841F4805101603EE02068B2
:102B1000C068A16B0880A06B801CA0639EE0434648
:102B200000220221204602F017FE002874D1206BFB
:102B300021680088C860206B801C2063E08E401EE6
:102B40000004000CE08609D1A06A00E0C7E0A842BA
:102B500004D12068016841F480510160434600229D
:102B60000121204602F0F8FD00286FD12068C068DE
:102B7000A16B0880A06B801CA063E08F401EE087E3
:102B8000E08E0028CBD1606800286AD1434600223D
:102B90000121204602F0E0FDF0BBB8E7206B411CAC
:102BA000216321680078C860E08E401EE086E08ED8
:102BB00098B9A06AA84204D12068016841F4805104
:102BC0000160434600220121204602F0C5FD18BBEA
:102BD0002068C068A16B087040E0434600220221D3
:102BE000204602F0B9FDB8B9206B411C2163216871
:102BF0000078C860E08E401E0004000CE08607D11B
:102C0000A06AA84204D12068016841F480510160A3
:102C100000224346012100E018E0204602F09CFD1E
:102C2000A0B92068C168A06B421CA2630170E08F4C
:102C3000401EE087E08E0028CFD1606888B9434607
:102C400000220121204602F087FD08B103200FE792
:102C50002068C168A06B421CA2630170E08F401E17
:102C6000E087A06AA84210D14346002201212046F5
:102C700002F072FD18B1606D40F002000FE02068B4
:102C8000C068ADF80000BDF8000043460122802175
:102C9000204602F061FD20B1606D40F010006065DB
:102CA000D4E784F85170A06AA84214D120688168E2
:102CB000C943C9060FD4616D41F002016165016825
:102CC00021F4005101602068016841F40051016065
:102CD00084F85060CBE684F850600020C8E60220FB
:102CE000C6E64FF0E0210428086903D020F0040074
:102CF0000861704740F00400FAE710B5401EB0F1DB
:102D0000807F01D3012010BD4FF0E02460610F21CE
:102D1000601701F05EF80020A0610720206100200C
:102D200010BD000010B50268044631B1042908D076
:102D3000082920D00C2908D121E0D06840F00200F9
:102D400002E0D06840F00400D0600122206802F068
:102D500043FF0D492068884202D00C49884203D1C4
:102D6000416C41F4004141642068016841F0010177
:102D70000160002010BDD06840F00800E4E7D06892
:102D800040F01000E0E70000002C0140003401405A
:102D900010B50268044631B1042908D008292FD0A3
:102DA0000C2908D130E0D06820F0020002E0D068A1
:102DB00020F00400D0600022206802F00DFF1448CB
:102DC00041F2111221689310814202D011488142D0
:102DD00009D1086A104206D1086A184203D1486C2A
:102DE00020F4004048642068016A114206D1016A5B
:102DF000194203D1016821F001010160002010BDDA
:102E0000D06820F00800D5E7D06820F01000D1E7A6
:102E1000002C014000340140704790F839007047A1
:102E200038B5044600680168C268C1F3000102F4C5
:102E3000807221B11AB1E16B41F00101E1630168D7
:102E4000C1F34002416901F0010122B119B1E26B05
:102E500042F00402E2630268C2F3800222B119B1B7
:102E6000E26B42F00202E2630268C2F3C00222B1E6
:102E700019B1E16B41F00801E1630168C068C1F379
:102E8000401100F0200019B110B1204608F0E0FB1D
:102E900020680168C068C1F3C01100F0800019B15A
:102EA00010B1204608F0E0FC21680868CA68C0F349
:102EB000801002F04002012568B162B1CA68204664
:102EC00022F04002CA6094F83910322910D080F8FC
:102ED000395000F0B1F9E06B002808D02068016893
:102EE0004068009084F839502046FFF795FF38BDC0
:102EF000222180F83910ECE770B5040004D094F872
:102F00003900002510B106E0012070BD84F838506A
:102F1000204600F021F8022084F839002068C168BA
:102F200021F40051C160204608F0E6FB20680169E9
:102F300021F4904101612068416921F02A01416139
:102F40002068C16841F40051C160E563012084F844
:102F50003900002070BD000010B500681E4986B021
:102F6000884236D11D48816941F00401816181693F
:102F700001F004010491816941F48041816181691A
:102F800001F480410491816941F00101816180690E
:102F9000134C00F0010004904FF4007000900220E8
:102FA0000190012002900320039069462046FEF71D
:102FB00013FF211500910021019169462046FEF77B
:102FC0000BFF2520FFF745F8032211462520FFF7C8
:102FD0004BF806B010BD0000003801400010024060
:102FE000000801402DE9F047044690F83900994661
:102FF0000D46012801D0122857D125B31AB394F8F1
:103000003800012851D0012684F838600027E76392
:1030100094F83900122819D0222084F83900A285AA
:10302000E2854FF48058E08D4B46401EE085A06855
:103030004FF0000240454FF02001204616D108F025
:1030400046FCB0B904E00120BDE8F0873220E4E797
:10305000206900282068406803D0C1B225F8011B10
:1030600012E0C0F3080125F8021B0DE008F02FFC68
:1030700008B10320E8E7206900282068406801D0F3
:1030800000F07F0005F8010BE08D0028CBD194F80B
:103090003900322805D084F8396084F8387000206F
:1030A000D2E7122084F83900F7E70220CCE790F845
:1030B0003930012B01D0122B2BD131B32AB390F828
:1030C0003830012B25D0012380F838308162828589
:1030D000C2850021C16390F83920122A17D022221C
:1030E00080F8392080F838100168CA6842F480728C
:1030F000CA6001684A6942F001024A610068C16819
:1031000041F02001C1600020704701207047322249
:10311000E6E702207047000030B500681149884298
:103120000CD1114A5088010408D41146440409788E
:103130004FF0000306D50A2901D0538030BD40F47A
:1031400000400DE00D2909D0C0F30D04074D401CCF
:1031500080B229555080C728EFD830BD40F4804058
:10316000508030BD00380140100000206C0300206A
:103170002DE9F047044690F8390099460D4601289C
:1031800001D0222856D125B31AB394F8380001286B
:1031900050D0012684F838600027E76394F839009E
:1031A000222819D0122084F83900A284E2844FF436
:1031B0008058E08C4B46401EE084A0684FF000022F
:1031C00040454FF08001204613D108F080FB08BB3A
:1031D00004E00120BDE8F0873220E4E72888216878
:1031E000C0F308004860206908B16D1C08E0AD1C00
:1031F00006E008F06CFB68B9216815F8010B48601F
:10320000E08C0028D5D14B4600224021204608F012
:103210005EFB08B10320DDE794F83900322805D0C1
:1032200084F8396084F838700020D3E7222084F8CD
:103230003900F7E70220CDE77047FEE710B500F050
:103240007BFBFDF779FDFDF7C5FDBDE81040FDF7FF
:1032500017BE000010B53B22174918A008F0C0FCAB
:1032600008F0EAFBFDF714FE00F048FB08F090FCC4
:1032700000F0CCFA4FF4E13008F068F967220E490B
:1032800017A008F0ADFC002002F0F4FA1A4800681C
:10329000016801208847FEF71DF83C237422064987
:1032A00016A008F09DFC1E48416821F0E06141F045
:1032B0000071416010BD000075F000085B25733A95
:1032C0002564235D737461727420496E69745F4272
:1032D0006F6172645F436F6E6669672E200D0A002E
:1032E0005B25733A2564235D696E6974207363619D
:1032F0006E2E200D0A000000E40200205B25733AC8
:103300002564235D5B43616D656C5D2C70726F7429
:103310006F636F6C2073697A653A25640D0A00004B
:10332000000001402DE9FF414A4C82B01F46A078C1
:1033300090460E4618B1002006B0BDE8F081012588
:10334000A57040F6FF70ADF8040000F0F9FA4248AD
:1033500060603522414942A008F042FC45A1606806
:1033600007F086FC034639223C4945A008F038FCAA
:103370004A48012F0BD00221022F0AD0057041705C
:10338000032FA06009D0002060700120D4E70570F1
:1033900000E00170A060657000E06170606804F09A
:1033A000C2FC03465D222D493DA008F019FC0096A1
:1033B0006A462521606807F0AFFE6A4625216068ED
:1033C00007F074FE642225493CA0009B08F008FC2D
:1033D000CDF800806A462621606807F09DFE6A46A7
:1033E0002621606807F062FE6B221C493CA0009B0E
:1033F00008F0F6FB02AA3721606807F08DFE02AAEA
:103400003721606807F052FE9DF808307122134999
:103410003CA008F0E5FBD4E901010AF0AFF905464C
:10342000034676220D493FA008F0DAFB6068782257
:103430000A49037844A008F0D3FB606801780229A8
:1034400004D101AA532107F067FE0546FDF71CFDD4
:10345000284671E7F80200202809002066F20008DB
:103460005B25733A2564235D73746172742E200D9D
:103470000A000000746D723A2F2F2F636F6D3100B8
:103480005B25733A2564235D637265617465207200
:1034900065743A2564200D0A0000000078130020AE
:1034A0005B25733A2564235D636F6E6E65637420DC
:1034B0007265743A2564200D0A0000005B25733A9A
:1034C0002564235D2A2A2A2A2A2A2A205265616431
:1034D000506F77657264626D3A2564200D0A0000B2
:1034E0005B25733A2564235D2A2A2A2A2A2A2A2060
:1034F0005772697465506F77657264626D3A2564BE
:10350000200D0A005B25733A2564235D2A2A2A2AA6
:103510002A2A2A20726567696F6E3A2564200D0A8F
:10352000000000005B25733A2564235D2A2A2A2ABD
:103530002A2A2A2067616E74656E6E614C69737405
:103540003A2564200D0A00005B25733A2564235D4B
:103550007265616420747970653A2564200D0A00F3
:1035600070B5044600210220FEF72AFB0E4D002113
:1035700028600220FEF738FB68600020FDF7E6FCBB
:1035800000280FD1FDF7BAFD00280BD12046FDF72A
:10359000F3FB002806D10220FDF72CFEBDE87040A9
:1035A00002F0B8BA70BD0000D002002018B500F5D6
:1035B0002D7490F8AC12002201230520182913D095
:1035C000192911D0202913D030291CD0FF218DF8C2
:1035D00000108DF801108DF802108DF80310694667
:1035E00020460BF021FD18BD8DF8003023210DE0A1
:1035F0008DF800300B208DF801008DF8022014208A
:103600008DF80300EBE78DF8003009218DF80110EB
:103610008DF80220F4E738B500F52D7290F8AC1261
:1036200001200723182919D0192917D000240225B1
:1036300020291ED0302923D0FF208DF800008DF8DE
:1036400001008DF802008DF8030000216B46505CEC
:103650005C5CA0421DD24FF0000038BD8DF8000028
:103660004FF021018DF801108DF802008DF8033024
:10367000EBE78DF800004FF009008DF8010003E042
:103680008DF800008DF801308DF802408DF8035060
:10369000DBE704D801F1010189B20429D7D3012065
:1036A00038BD704710B50321034B0022084601F0D6
:1036B0008BFF002010BD00006067010010B50446BC
:1036C00008F0D0FA002807D0012009F06BFC204652
:1036D000BDE8104008F0C6BA10BD00002DE9F04169
:1036E000444C0020444D2080A0704FF400412846F7
:1036F000FEF768FC2178414E0843207001213046D6
:10370000FEF760FC217841EA40002070022130463B
:10371000FEF758FC21783A4F41EA80002070802162
:103720003846FEF74FFC217841EAC0002070A91509
:103730003846FEF747FC217841EA001020706915F1
:103740003846FEF73FFC217841EA401020702915E9
:103750003846FEF737FC2178EE1441EA80102070DD
:1037600031463846FEF72EFC217841EAC010207021
:1037700020212448FEF726FC6178234F084360701F
:1037800001213846FEF71EFC617841EA4000607076
:1037900002213846FEF716FC617841EA800060702D
:1037A00004213846FEF70EFC617841EAC0006070E3
:1037B00031462846FEF706FC617841EA0010607049
:1037C000A9142846FEF7FEFB617841EA40106070BC
:1037D00069142846FEF7F6FB617841EA80106070B4
:1037E000F1002846FEF7EEFB617841EAC0106070F8
:1037F000BDE8F081A8010020001C0140002001402C
:103800000018014000100140000C014070B52C4828
:1038100086B0816941F480718161816901F48071B0
:103820000491816941F040018161816901F04001A9
:103830000491816941F080018161816901F0800119
:103840000491816941F010018161816901F01001E9
:103850000491816941F0080181618069032400F0CD
:103860000800049007200025022603948DE86100DB
:1038700069461448FEF7B0FA202003948DE86100F1
:1038800069461148FEF7A8FA4FF4786003948DE872
:10389000610069460D48FEF79FFA4FF478400394A3
:1038A0008DE8610069460A48FEF796FA8DE87000D7
:1038B000694608480394FEF78FFA06B070BD000011
:1038C00000100240000C01400010014000180140AF
:1038D000001C01400020014070B5074D042128461E
:1038E000FEF770FB044608212846FEF76BFB44EA0E
:1038F0004000C0B270BD0000001801400C4800B587
:10390000816985B041F0400181618069694600F0BC
:10391000400004900C2000900020019001200290B3
:10392000032003900348FEF757FA05B000BD0000DE
:1039300000100240001801404FF4165007F090BCF0
:103940004FF4E13007F030BC034A01EB011102EB08
:1039500041012222FCF717BC2412002010B50446B6
:1039600000F00AF810B10021217010BD014909785A
:10397000FAE70000F80200202DE9F041A2B000248F
:10398000FFF7DEFF4FF47A703B4D00900523697816
:103990003A48AA6802F02BF9384A2121686807F0F2
:1039A000BBFB03469622364936A008F019F9992246
:1039B00033493DA008F014F900224FF4FA71686809
:1039C00006F0BCFC03469D222D493FA008F008F9F3
:1039D000686804F02DFB80460346A122284942A0D6
:1039E00008F0FEF8FDF78EF8244E383606F55577C8
:1039F00036E0A722224946A008F0F2F81F4968687D
:103A0000383104F063FA80460346AB221C4947A0D4
:103A100008F0E6F8194816F83F1F01AA383007F0F9
:103A20000FF93078009001ABB022154947A008F09B
:103A3000D7F804EB0410012107F8101016F83F190D
:103A4000202902D9202186F83F10CAB207EB400096
:103A50000A4980F821203831401CFCF794FB641C93
:103A6000686804F0E5FA0028C3D02C70FDF70CFA62
:103A700022B04046BDE8F081F8020020980E0020F8
:103A800076F200085B25733A2564235D2A2A2A2AE8
:103A90007265616420706C616E3A7265743A307858
:103AA00025780D0A000000005B25733A2564235D2C
:103AB0002A2A2A2A20737461727420544D525F722C
:103AC0006561642E0D0A00005B25733A2564235D51
:103AD0002A2A2A2A20726561643A7265743A30781B
:103AE00025580D0A000000005B25733A2564235D0C
:103AF0002A2A2A2A20544D525F6861734D6F7265DD
:103B0000546167733A7265743A307825580D0A002B
:103B10005B25733A2564235D7374617274206E654E
:103B20007874207461672E200D0A00005B25733ABB
:103B30002564235D6765744E6578745461673A72D5
:103B400065743A307825780D0A0000005B25733AD9
:103B50002564235D4550433A25732025640D0A00F2
:103B600070B500240220FFF7A9FD4FF4FA5520B9E3
:103B70002A4600210420FDF7A5FC0220FFF79EFD48
:103B800020B10120FFF79AFD10B106E0412070BD81
:103B90002A4600210320FDF795FC0120FFF78EFD4A
:103BA00020B10F20FFF78AFD10B107E0402070BD63
:103BB00042F2107200210120FDF784FC0F20FFF774
:103BC0007DFD08B1204670BD3F2070BD10B50024BA
:103BD0000720FFF773FD28B94FF4AF6200210720DB
:103BE000FDF770FC0720FFF769FD08B1204610BD06
:103BF000422010BD70B590B01446002503915122AB
:103C00000F95CDE901201E460FAA3C21684600F021
:103C100027F8002808D10F9840B19DF80D000299AF
:103C200021609DF80C10317010B070BD012025602E
:103C3000FAE700B591B000220F9203915222CDE92C
:103C400001200FAA3C21684600F00AF8002803D1A1
:103C50000F9818B19DF8080011B000BD0120FBE7D6
:103C60002DE9F0470D468CB09246044600F1100154
:103C700000264FF0C8082C226846FCF784FA94E826
:103C80000F0009F063F80D2184F838100A2184F838
:103C90003910AA212170DD21617084F83400000AF6
:103CA00084F8350007F029FC1A4FB1462946204612
:103CB000C7F8009007F0BCFC01203D6809F072F9DC
:103CC000386880B185420AD13C2808D021221249A7
:103CD00012A007F085FF0126C7F800900CE085428E
:103CE00001D13C280ED0B8F1000FE5D101263222D7
:103CF000094913A007F074FF07F0FCFB0CB0304635
:103D0000BDE8F0875146204607F078FCC7F80090E0
:103D1000F2E700005003002018F300085B45525200
:103D20004F522025733A2564235D7278206C656EAE
:103D3000206973206572726F72200D0A0000000006
:103D40005B4552524F522025733A2564235D7472AD
:103D5000616E73666572206572726F722021200D2C
:103D60000A000000FEE7000070B5002634464CF261
:103D700050352A4601210220FDF7A4FB2A460021E6
:103D80000220FDF79FFB641C052CF2DB0122054B92
:103D90000F21104601F018FC08B13F2070BD3046DD
:103DA00070BD0000C027090010B50024054B224655
:103DB0001021012001F008FC08B14A2010BD204666
:103DC00010BD0000C0270900FDF77CBBFDF77ABBE2
:103DD00070470907090E002806DA00F00F0000F10D
:103DE000E02080F8141D704700F1E02080F80014F6
:103DF0007047000038B5084800244FF4FA430088A3
:103E0000009022460821042001F0E4FB08B1442080
:103E100038BD204638BD00008C02002038B5084867
:103E2000002447F2305300880090224608210420E5
:103E300007F064FF08B1442038BD204638BD0000BB
:103E40008C02002038B50848002447F230534088DF
:103E5000009022460921042007F050FF08B14320BA
:103E600038BD204638BD00008C0200202DE9F04FFF
:103E7000A3B000268A468346219678253146022043
:103E80002296FDF79DFEDFF8408100214446C8F8E8
:103E900000000220FDF7A8FE60600A2009F082F809
:103EA00001F006FE00287DD1402101A8FCF792F91F
:103EB000402111A8FCF78EF940F29722434944A013
:103EC00007F08EFE474FDFF820915FE003203C684B
:103ED00009F068F83868844253D1032C51DD99F811
:103EE000000000284DD0D8F8002022A911A8904742
:103EF00001F010FE11A800904FF4297233493BA045
:103F0000229B07F06DFE282200210220FDF770FDA4
:103F1000402101A8FCF75EF921A901A801F01CFDD0
:103F200001AC009440F2AD22284936A0219B07F055
:103F300057FEDDE9210188422ADA502201210220C0
:103F4000FDF756FD402101A8FCF744F921A901A87D
:103F500001F002FD009440F2B7221C492FA0219BE2
:103F600007F03EFEDDE92104A04211DA402101A85C
:103F70002194FCF72FF9224611A901A8FCF703F9B7
:103F800006E0782200210220FDF732FD6D1E9DD251
:103F900040F2CD220D4927A007F022FE21980228E9
:103FA00004DD00E00DE0801E219000E0219601A9D3
:103FB0005846219AFCF7E7F82199CAF8001001F059
:103FC000A9FD23B0BDE8F08FD0020020D6F1000893
:103FD0005B25733A2564235D7374617274200D0A46
:103FE00000000000C0020020BD0200205B25733AE3
:103FF0002564235D5B315D25643A202573200D0A1D
:10400000000000005B25733A2564235D5B325D256B
:10401000643A202573200D0A000000005B25733AE6
:104020002564235D5B335D25643A202573200D0AEA
:10403000000000005B25733A2564235D656E6420F3
:104040000D0A000070470000F0B5214A214B5614BC
:104050001515214C21494FF48047082826D2DFE866
:1040600000F025040A11161A212F1D4888608015BA
:1040700088810A6004E080208A60888110200A60BC
:10408000888013E008208A6088810B6008E08B60DC
:104090008E810B6009E04FF400708B6088810C60AA
:1040A0008F8003E08C608E810C608D800D488A6863
:1040B00042608A8902800A68826089884180F0BDF6
:1040C00009484FF4004288608A8108608014D7E76D
:1040D0000020014000140140000C01408C0400202D
:1040E00000100140900100200018014010B5FCF7BD
:1040F00087FABDE810400149FCF722B9A5D4684110
:1041000010B50549FCF71CF94FF07C51FCF7C0F8DD
:10411000FCF78CFA80B210BDCCBC8C3D01498860A4
:104120007047000018000020014908617047000036
:10413000180000200149C8607047000018000020E6
:1041400010B50549FCF7FCF84FF07C51FCF7A0F8DE
:10415000FCF76CFAC0B210BD00601F4410B5FCF74C
:104160004FFABDE810400149FCF7EAB8679ACD3A2A
:1041700008210148FDF726BF0014014010B50120B9
:1041800008F01EFF0348012201884068BDE8104086
:10419000FDF71DBF90010020054810B501880022E1
:1041A0004068FDF714FFBDE81040012008F008BF8B
:1041B0009001002072B6704762B670470421014832
:1041C000FDF700BF001401402DE9F04F85B0002835
:1041D0007ED17348816941F480718161816901F404
:1041E00080710491816941F080018161816901F0F0
:1041F00080010491816941F040018161816901F090
:1042000040010491816941F020018161816901F0DF
:1042100020010491816941F010018161816901F0FF
:1042200010010491816941F004018161816901F00B
:1042300004010491816941F00801816180694FF4B2
:10424000807701240025009700F00800CDE90145A2
:10425000CDE90340534E69463046FDF7BDFD0122CE
:1042600039463046FDF7B3FE80208DE83100DFF897
:104270003891694648460394FDF7AEFD012280213E
:104280004846FDF7A4FE08208DE8310069464846FF
:104290000394FDF7A1FD012208214846FDF797FE92
:1042A000660302200096CDE90140DFF800B16946BF
:1042B00058460394FDF790FD012231465846FDF71C
:1042C00086FE4FF40078CDF80080CDE9014500E08E
:1042D00062E0694658460394FDF77EFD012241469F
:1042E0005846FDF774FE0096DFF8C4A0CDE90145FD
:1042F000694650460394FDF76FFD01223146504652
:10430000FDF765FEE6030096DFF8A880CDE90145DC
:10431000694640460394FDF75FFD01223146404661
:10432000FDF755FE0097CDE90145694648460394DF
:10433000FDF752FD10208DE8310069464846039490
:10434000FDF74AFDA7030097CDE9014569465846A8
:104350000394FDF741FDA6020096CDE901456946AB
:1043600058460394FDF738FD0097CDE901456946AD
:1043700050460394FDF730FD0096CDE901456946AE
:1043800050460394FDF728FD20038DE8310069466F
:1043900040460394FDF720FD05B0BDE8F08F000016
:1043A00000100240001001400020014000140140B4
:1043B000000C01400018014070B5012211021348A1
:1043C000FDF705FE124C012280212046FDF7FFFD7E
:1043D000012208212046FDF7FAFD01220D4D54036C
:1043E00021462846FDF7F3FD012251022846FDF73C
:1043F000EEFD012221460848FDF7E9FDBDE87040C9
:104400000122D1030548FDF7E2BD00000010014084
:104410000020014000140140000C01400018014040
:104420000248012241888068FDF7D1BD900100203B
:1044300070B5154C012211022046FDF7C8FD01227E
:1044400010212046FDF7C3FD0122104E94032146A2
:104450003046FDF7BCFD0122950229463046FDF7A6
:10446000B6FD21460A4C01222046FDF7B0FD01228F
:1044700029462046FDF7ABFDBDE87040012211033F
:104480000448FDF7A4BD00000020014000140140D5
:10449000000C014000180140024800224188806859
:1044A000FDF795BD9001002070B5164C00224FF429
:1044B00080712046FDF78BFD002210212046FDF77C
:1044C00086FD114E4FF48044002221463046FDF710
:1044D0007EFD2511002229463046FDF778FD214654
:1044E0000A4C00222046FDF772FD00222946204694
:1044F000FDF76DFD0022A114BDE870400448FDF7F2
:1045000066BD00000020014000140140000C014085
:10451000001801400D480C49012201602021C161B1
:10452000426100218160022202610722C0E90A1271
:10453000C1604FF400720162826141624FF4827186
:104540004160FEF7BBB90000003001409C04002030
:104550002DE9F84390460D460646FFF71DFE002460
:104560004FF480590CE001232A4631460848CDF823
:104570000090FEF75DFA070004D1641C6D1C761CE8
:104580004445F0D3FFF7FAFD3846BDE8F883000054
:104590009C04002010B50446FDF78EFEA101B0FB7F
:1045A000F1F00749401E0A68D062C86009684008F7
:1045B0008863BDE8104004210148FEF7B3BB00004A
:1045C000F404002004210148FEF7E2BBF4040020BB
:1045D00010B5054CA068002804D001216170804707
:1045E0000020607010BD00001800002010B5FFF71B
:1045F000BFFD08B1002010BD012010BD10B5FFF7B0
:10460000DDFD08B1002010BD012010BD2DE9F05FD7
:104610003C4A8A460024917881426FD99178DFF82C
:10462000E8B0081A401EC4B20AF0FF01002041F0B1
:10463000200590460BF10C090027464688F80070CB
:1046400008B1FFF7B9FDB04600205E460CE0311816
:104650003754CF708F714F7209F8007009EB000169
:10466000401CCF708F714F7298F802108842EED3C1
:104670005046BAF1070F2AD008DCBAF1070F15D25D
:10468000DFE80AF0142225222225250018281ED052
:1046900007DC08281BD00D2819D0BAF1150F05D159
:1046A00015E01A2813D0BAF11B0F10D030190127CA
:1046B0008571FFF77FFD98F8001001200029BBD11C
:1046C000C7F103054F460DE035550327F1E73019D3
:1046D0000227C570EDE705EB4500C119304400F035
:1046E000F1FE6D1C042DF6D33919C8788A790004BF
:1046F00040EA0224487A0443FFF75EFD2046BDE805
:10470000F09F000018000020740400202DE9F04103
:10471000234C0025A17881423ED9A178214F081A67
:10472000401EC5B20020804607F10C0684F80080C8
:1047300008B1FFF741FD002012E0391807F80080AA
:1047400081F8038081F8068081F8098006F80080EE
:104750003118401C81F8038081F8068081F80980B7
:10476000A1788842E9D3D0207855FFF723FD21783E
:1047700001200029DAD1002404EB440081193844D7
:1047800000F0A0FE641C032CF6D370198179C07868
:1047900041EA0025FFF710FD2846BDE8F081000042
:1047A00018000020740400200022702100F0B4BA28
:1047B0000022782100F0B0BA0A46602100F0ACBABD
:1047C00041F0680100F0A8BA114341F082011A4695
:1047D00000F0A2BA0022A82100F09EBA0022B8215F
:1047E00000F09ABA41F0400100F096BA002211465A
:1047F00000F092BA114341F09201002200F08CBA0D
:104800000022C02100F088BA0022D82100F084BA2A
:1048100041F0500100F080BA2DE9F05F8B46384935
:1048200016468A78824268D98A78DFF8D8A0101AAA
:10483000401EC4B20020C6F307280BF0FF058946CE
:10484000002789F8007008B1FFF7B6FC0020524637
:1048500005E017541118401CCF708F714F7299F8F2
:1048600002108842F5D35846BBF1070F32D008DC5E
:10487000BBF1070F13D2DFE80BF012252D25122D07
:104880002D00152826D005DC082823D0BBF10D0FFC
:1048900005D11FE018281DD0BBF11A0F1AD010192E
:1048A000012785710AEB04004672FFF783FC99F833
:1048B000001001200029C3D1124EC7F10304554650
:1048C0000C3614E0310C10191555C17080F80680B3
:1048D0000327E7E710190227C57080F80680E1E793
:1048E00004EB44008119284400F0ECFD641C042C06
:1048F000F6D3BDE8F05FFFF75FBCBDE8F09F0000B6
:1049000018000020740400200022A02100F004BA46
:104910000022B02100F000BA41F05801002200F05E
:10492000FBB9810204D5C043401CC0F315004042CE
:10493000704700000249096901B10847FEE700001D
:104940001800002010B5FBF75BFE0449FBF7A0FC44
:10495000BDE810400249FBF7F3BC000077BE7F3F83
:104960000024744110B50349FBF7EAFCFBF75EFE37
:1049700080B210BDBD37863D70B50020104D014698
:1049800005F10C06D0230F4C0BE02A182B54D170E4
:104990009171517231543218401CD1709171517221
:1049A000C0B2A2789042F0D3002404EB44008119F5
:1049B000284400F087FD641CE4B2032CF5D370BDDD
:1049C000740400201800002010B5054CE068002891
:1049D00004D00121617080470020607010BD00008C
:1049E0001800002070B50D4606461621FFF70EFE92
:1049F00040F3C00429463046641CFFF707FE162D1D
:104A00003FD2DFE805F03E0B3E0B13101016192CB9
:104A10002C2C2C23333535263E29291EFFF781FF08
:104A2000FBF7E5FD2AE0FFF761FB27E000F0C6FC9D
:104A300024E000F0D5F821E0C0F30B0000F0E8F826
:104A40001CE0C0F30900FFF77DFF17E000F072F8EB
:104A500014E000F0A0F811E000F0BAFC0EE014B190
:104A600000F0B4F80AE000F005FD07E03CB100E01A
:104A700014B1FFF773FB01E000F0CEFC06463046B0
:104A800070BDFBF7BDFDF9E7084A014600209378A9
:104A90008B4209D99078401A401E0549C0B208449B
:104AA0008179C07841EA002070470000180000209A
:104AB00080040020004870470005010010B5032164
:104AC000FFF7A4FDBDE81040FFF72BBF0148807839
:104AD000704700001800002010B50121FFF796FD77
:104AE000BDE81040FFF71DBF084810B50079FFF77B
:104AF0006BFBFFF70FFDFFF75FFCFFF7D5FC012015
:104B000008F050FABDE81040FFF792BC18000020F2
:104B100010B550B10146002000F048FA0020FFF720
:104B200059FEBDE81040FFF727BF002000F076FBDC
:104B3000F4E7000010B5FBF763FDBDE81040014944
:104B4000FBF7FEBBD923743D10B50549FBF7F8FB15
:104B50004FF07C51FBF79CFBFBF768FD80B210BD6A
:104B6000BD37864110B5FFF7D1FD800701D4012084
:104B700010BD002010BD10B54FF07E51FBF7DAFBE1
:104B80000521FBF70FFC4FF07C51FBF781FBFBF796
:104B90004DFDC0B210BD10B5FBF732FD6FF0040142
:104BA000FBF700FCBDE810404FF07E51FBF770BBF7
:104BB00010B50549FBF7C4FB4FF07C51FBF768FBD0
:104BC000FBF734FDC0B210BD0AD7234010B5FBF788
:104BD00017FDBDE810400149FBF7B2BB0000C83E1D
:104BE00010B5FBF70DFDBDE810400149FBF7A8BB70
:104BF0000024744110B50549FBF7A2FB4FF07C512E
:104C0000FBF746FBFBF712FD80B210BDBD37863DBA
:104C100010B5FBF7F5FCBDE810400149FBF790BB70
:104C20000024743E10B50549FBF78AFB4FF07C5118
:104C3000FBF72EFBFBF7FAFC80B210BDBD378640B8
:104C4000144B10B59C7884421AD99B78124C181AD0
:104C5000401EC3B201F0FA00682812D006DC4028DA
:104C60000FD050280DD0602804D10AE0822808D047
:104C70008A2806D00022E018E254C2708271417284
:104C800010BDE154E018110CC170110A817142721B
:104C900010BD000018000020740400200148808826
:104CA000704700001800002010B51B21FFF7AEFC74
:104CB00080B210BDFFF7B4BBFFF7EEBB70B5054681
:104CC000082927D2DFE801F00406080A0C0E1012AA
:104CD00000240CE001240AE0022408E0032406E09A
:104CE000042404E0052402E0062400E0072428460A
:104CF000FFF770FD16212846FFF788FC00F0F80248
:104D0000224316212846FFF787FD2846FFF77CFD42
:104D1000012070BD002070BD2DE9F05F0E463049C6
:104D200014468A78824258D98A784FF00009101ABE
:104D3000401EC5B24846CB468A46D84657468AF8F2
:104D400000B008B1FFF738FA4246B8460020254FB8
:104D500005E03A543918401CCA708A714A7298F8B2
:104D600002108842F5D306F0FA0068281CD006DC51
:104D700040281BD0502819D0602804D114E0822884
:104D800014D08A2812D078197A55C270827146726E
:104D9000FFF710FA98F8001001200029CDD1114D2D
:104DA000C9F103040C3512E0C4F3150478197E55DB
:104DB000210CC170210A817144724FF00309E7E7A9
:104DC00004EB44004119384400F07CFB641C042CC3
:104DD000F6D3BDE8F05FFFF7EFB9BDE8F09F000044
:104DE000180000207404002070B5074D0024A5F1C0
:104DF0000C0604EB44004119304400F063FB641CD2
:104E0000E4B2042CF5D370BD800400202DE9F041FC
:104E10000E461546804601241621FFF7F7FB40F3A6
:104E2000C000594A401C954204D3012E02D0032EE3
:104E300000D000245549162E22D2DFE806F02129A1
:104E40000B29213D3D444B7D7D7D7D678B8E8E6E94
:104E5000217777584E48854212DC15F0FF4F11D06C
:104E600016210020FFF7D2FB00F00700C0F1070178
:104E700001208840FBF7BBFB2946FBF707FC01D26A
:104E8000002477E02846FBF7D1FBC0F308026CE072
:104E90004FF40017954207D385F00040FBF7C6FB9F
:104EA000B842EDD8404204E02846FBF7BFFBB842C9
:104EB000E6D2C0F3150258E036488542E0DC2846C9
:104EC000FFF71EF950E034488542D9DC2846FFF749
:104ED00091FE49E031488542D2DC31464046FFF739
:104EE00095FB00F480572846FFF79CFE0BE02C480A
:104EF0008542C5DC31464046FFF788FB00F48067F9
:104F00002846FFF72FFD47EA00022EE0254885429C
:104F1000B6DC2846FFF718FE26E0A5F17E50B0F576
:104F2000701FADD82846FFF726FE1DE08D42A7DC96
:104F3000284600F059FA17E030B1B5F5000F9FDAB6
:104F40002846FFF735FE0FE08D4299DC284600F039
:104F50007DFA09E0002893D000E070B11248854244
:104F60008EDC2846FFF7ECF802461CB1314640467D
:104F7000FFF752FC2046BDE8F081B5F1854F9DDC7E
:104F8000284600F053FAEFE70000808000007A44E2
:104F90000080FF4300C6684700E87346331374443B
:104FA0000024744600207444CDCCCC3E70B50C4631
:104FB000054600220121FFF72FFC0022022128468E
:104FC000FFF72AFC002203212846FFF725FC606832
:104FD000FFF796F8024605212846FFF71DFCA0685A
:104FE000FFF78EF8024606212846FFF715FCE06819
:104FF000FFF700FE024607212846FFF70DFC206957
:10500000FFF7F8FDA18A40EA010208212846FFF7D0
:1050100003FCA069FFF7A6FCA18B40EA0102152161
:105020002846FFF7F9FB206A00F0DEF9024613215B
:105030002846FFF7F1FB94F825202078162102433B
:1050400094F8240002432846FFF7E6FB94F8262054
:1050500017212846FFF7E0FB94F8272094F82A0050
:10506000A18D0243208D0843024318212846FFF7F3
:10507000D3FB94F82E2094F82F00192102432846E0
:10508000FFF7CAFB207800284DD054F8300F00F00D
:10509000DDF9024609212846FFF7BEFB606800F0F3
:1050A000D5F902460A212846FFF7B6FBA06800F0B2
:1050B000CDF902460B212846FFF7AEFBE06800F071
:1050C000C5F902460C212846FFF7A6FB227C607C2E
:1050D0000E2102432846FFF79FFB606900F0A6F906
:1050E00002460F212846FFF797FBA06900F09EF9C2
:1050F000024610212846FFF78FFB227F607F94F83D
:1051000020100243A07F08430243608C0243A08C1E
:105110000243E08C0243208D02432846BDE87040E4
:105120001A21FFF779BB206CFFF70EFD02460D2117
:105130002846FFF771FB206DFFF71DFD0246112188
:105140002846FFF769FB606D00F04EF90246142116
:105150002846FFF761FB206BFFF72AFD0246092175
:105160002846FFF759FB606BFFF722FD02460A2134
:105170002846FFF751FBA06BFFF71AFD02460B21F3
:105180002846FFF749FBE06BFFF712FD02460C21B2
:105190002846FFF741FB606CFEF7D2FF02460E2166
:1051A0002846FFF739FBA06CFEF7CAFF02460F2125
:1051B0002846FFF731FBE06C3C34FEF7C1FF0246A6
:1051C00010212846FFF728FB227F607FE17F024302
:1051D000A07F08430243208C0243608C0243A08CD2
:1051E0000243E08C98E770B50D4604460121FFF7B5
:1051F0000DFA421B2046BDE870400121FFF70CBBB1
:105200000A460321FFF708BB032803D80249887028
:105210000120704700207047180000202DE9F14F51
:10522000002201210098FFF7F7FA002202210098DE
:10523000FFF7F2FA002203210098FFF7EDFA574E2C
:10524000574FDFF86081DFF86091DFF860B1584CAC
:10525000584D00984FF07E5A18B1012801D002280D
:105260007ED13046FEF74CFF024605210098FFF73D
:10527000D3FA3046FEF744FF024606210098FFF7B6
:10528000CBFA3846FFF7B6FC024607210098FFF735
:10529000C3FA0020FFF7C6FC024608210098FFF77A
:1052A000BBFA4046FFF75EFB024615210098FFF768
:1052B000B3FA082213210098FFF7AEFA0422162150
:1052C0000098FFF7A9FAEF2217210098FFF7A4FA38
:1052D000C32218210098FFF79FFA40221921009855
:1052E000FFF79AFA4846FFF72FFC02460D21009877
:1052F000FFF792FA5046FFF73EFC02461121009854
:10530000FFF78AFA584600F06FF802461421009819
:10531000FFF782FA2046FFF74BFC0246092100986E
:10532000FFF77AFA2046FFF743FC02460A2100986D
:10533000FFF772FA2046FFF73BFC02460B2100986C
:10534000FFF76AFA2046FFF733FC02460C2100986B
:10535000FFF762FA1848FEF7F3FE02460E2100E05E
:105360001AE00098FFF758FA2846FEF7E9FE0246D1
:105370000F210098FFF750FA2846FEF7E1FE02469B
:1053800010210098FFF748FA0098BDE8F84F42F660
:1053900008621A21FFF740BABDE8F88F0080114477
:1053A000000048440000C8434A0C764200D0044440
:1053B00000002041751F803D2D431C3D10B5FBF7BB
:1053C0001FF9BDE810400149FAF7BABF0024743C48
:1053D00010B5401CFBF714F9BDE810400149FAF77D
:1053E000AFBF00000000FA4110B50749FAF7A2FF6D
:1053F0000649FAF7A5FF4FF07C51FAF749FFFBF792
:1054000015F9C0B210BD00000000FA416F12033D53
:10541000FFF7C0B8FFF7D6B810B5401CFBF7F0F89F
:10542000BDE810404FF0FF31FAF7BCBF10B54FF0A8
:105430007C542146FAF77EFF0121FAF7B3FF21469B
:10544000FAF726FFFBF7F2F8C0B210BD10B5074916
:10545000FAF770FF0649FAF773FF4FF07C51FAF73D
:1054600017FFFBF7E3F8C0B210BD00000000FA40E0
:105470006F12033E10B5401CFBF7C2F8BDE81040A8
:105480000149FAF75DBF00000000FA4070B5084E10
:1054900000252C4605E02046FFF764FB0543641C0D
:1054A000E4B2B0788442F6D3002DF1D170BD000093
:1054B0001800002010B504462046FFF753FB0028D3
:1054C000FAD110BD10B5084CA278FFF741F828B109
:1054D00040F2E272054906A006F082FB60780028DF
:1054E00001D00120207010BD180000209FF000089E
:1054F0005B4552524F522025733A2564235D535029
:1055000049204552524F52200D0A000010B544F672
:10551000206200210620FBF7D5FFBDE810400620E1
:10552000FEF7CCB810B544F6206200210520FBF749
:10553000C9FFBDE810400420FEF7C0B82DE9FC41CA
:105540000322002562F3070000958DF8045001AB9B
:105550006A4600F051F9134CC8B10120A075FEF75E
:10556000BBF920750F20FCF707FC07461020FCF75D
:1055700003FC06461120FCF7FFFB05461220FCF752
:10558000FBFBC4E90350C4E90176BDE8FC819DF84A
:10559000040060750098B0F5487F00D82060A575BC
:1055A000DDE70000E017002010B518210348FAF7E6
:1055B00011FE034800210160416010BDE01700208A
:1055C000540300200020704738B50A24009400F0EE
:1055D00001F838BD2DE9F041054616460C46C8B223
:1055E000069FFEF76BF8002816D0284607F054FFF8
:1055F0000246E3B2E8B23146FCF794F83946284651
:10560000FBF746FE0246E8B23146FBF75BFFE0B22D
:10561000BDE8F041FEF752B8BDE8F081FFF7D4BF16
:10562000002070477047000038B50125002444F67B
:1056300020632A46022104200095FFF7EFFF08B1FE
:10564000412038BD012249F6404311460320009510
:10565000FFF7E4FF08B1402038BD0122044B0F21C1
:105660001046FFF7B1FF08B13F2038BD204638BDD6
:10567000C027090010B5072100244FF4FA53012276
:105680000846FFF7A1FF08B1422010BD204610BD1B
:1056900010B5FEF79BFA002819D1FFF7EBFF0400C5
:1056A00015D10F20FEF70AF828B942F21072002136
:1056B0000120FBF707FF0F20FEF700F830B10122B1
:1056C000044B0F211046FFF77FFF08B13F2010BDAC
:1056D000204610BDC027090010B5114C0F484FF4EB
:1056E000006120604FF4827060600020C4E9020114
:1056F00002212161012161614902A1613821C4E9CE
:1057000007106062A0620720E0622046FDF7D6F82D
:105710002068016841F04001016010BD003C00407C
:10572000C81600200EB5002001900290012003460B
:10573000009002AA01A90748FDF77AF99DF809002F
:105740004FF6FF7101EA00209DF80810084480B26E
:105750000EBD0000C81600202DE9F0471D469046FA
:105760000F460446FCF738FC06465FEA08004FF097
:1057700000084FF4005A4FF0010926D034E0681CAD
:1057800023D025B1FCF728FC801BA8421DD9206836
:10579000416821F0E00141602068016821F040018A
:1057A0000160A06A504509D12068016821F40051C8
:1057B00001602068016841F40051016084F8519053
:1057C00084F850800320BDE8F0872068806837EABD
:1057D0000000D4D10DE0681C06D0002DD7D0FCF716
:1057E000FBFB801BA842D2D82068806837EA000003
:1057F000F1D00020E7E7000070B50546204665F3CC
:105800000700FEF7F7F9040004D02222024903A0A2
:1058100006F0E6F9204670BD71F300085B45525270
:105820004F522025733A2564235D6661696C200D13
:105830000A00000010B50346104663F30700FEF7A8
:10584000F8F9040004D01322024903A006F0C8F9B5
:10585000204610BD3DF300085B4552524F522025B3
:10586000733A2564235D6661696C200D0A000000AF
:1058700070470000054928B1012802D101F110004C
:10588000C860704701481830FAE70000D8020020CD
:105890002DE9F04782466420A2B0002702FB00F405
:1058A00088463E46F0221E491EA0209706F098F931
:1058B000224DDFF88C90AE60C9F80060FEF73CF82E
:1058C00000F0C6F80AE0A86828B1AE602A6820A9EE
:1058D0006846904704E00A2007F064FB641EF2D299
:1058E000209A42B169465046FAF74DFC2098401E76
:1058F000C8F8000008E04FF0FF37C8F80060FBF779
:1059000069FAAE60C9F8006040F20D1204490DA0BA
:1059100006F066F9FBF7B4FA22B03846BDE8F08726
:1059200056F200085B25733A2564235D7374617237
:1059300074207363616E200D0A000000D8020020FD
:10594000C00200205B25733A2564235D656E6420E8
:105950007363616E200D0A002DE9F0478946824687
:10596000642500F0A5F806001DD100210F4FDFF8D7
:105970004080C9F8001011E003203C6807F012FBDA
:10598000386884420AD1032C08DD98F8000028B159
:10599000084A494650461268904701E06D1EEBD216
:1059A00000F0B8F83046BDE8F0870000C0020020E3
:1059B000BD020020D00200200A4910B50122C1E931
:1059C0000102A0F26310FAF720FE074A074BFAF72C
:1059D0009CFD0022064BFAF795FDFAF73BFE0549C0
:1059E000086310BD940200205C8FC2F5285CEF3F75
:1059F00000007940280800200A4A0A2808D00B280D
:105A000009D00C280AD00D2801D1C2F8B411704772
:105A1000C2F8A8117047C2F8AC117047C2F8B011B3
:105A20007047000000002442084A0F2807D01028C1
:105A300007D0112807D0122800D1D160704711601B
:105A4000704751607047916070470000B4010020BA
:105A50001CB54C208DF800004F208DF801004E2021
:105A60008DF802000D208DF803000A208DF8040047
:105A7000FBF762F9064A05216846526890476420A0
:105A800007F090FAC422034903A006F0A9F81CBD50
:105A9000D802002040F200085B25733A2564235D9C
:105AA0005343414E2053544152540D0A000000000C
:105AB00010B5FBF731FB002808D10120FBF7A8FA4D
:105AC000002803D1BDE81040FBF7E8BA10BD30B59F
:105AD0008FB0012100910225090400240795CDE92A
