:020000040800F2
:1000000038130020450100088F1D00088B1D0008D3
:100010008D1D0008B10600085D27000800000000E3
:10002000000000000000000000000000D11D0008DA
:10003000150D000800000000B11D0008171E000883
:100040005F0100085F0100085F0100085F01000810
:100050005F0100085F0100085F0100085F01000800
:10006000190D00081F0D00085F0100085F0100085E
:100070005F0100085F0100085F0100085F010008E0
:100080005F0100085F0100085F0100085F010008D0
:100090005F0100085F0100085F010008250D0008EE
:1000A0005F0100085F0100085F0100085F010008B0
:1000B0005F010008651E0008F11E00085F010008CE
:1000C0005F0100085F0100085F0100085F01000890
:1000D0005F010008E92500081526000889260008A8
:1000E000170D00085F0100085F0100085F010008AC
:1000F0005F0100085F0100085F0100085F01000860
:100100005F0100085F0100087D1F00085F01000813
:10011000C52100089D2200085F0100085F0100085A
:100120005F0100085F0100085F0100085F0100082F
:10013000DFF80CD000F086FA00480047C12E000816
:10014000381300200648804706480047FEE7FEE7D0
:10015000FEE7FEE7FEE7FEE7FEE7FEE7FEE7FEE777
:100160001D1E000831010008202A04DB203A00FA95
:1001700002F1002070479140C2F1200320FA03F3FE
:1001800019439040704710B5431A934209D283181F
:10019000881803E010F8011D03F8011D521EF9D262
:1001A00010BD40EA01039B0703D009E008C9121FF4
:1001B00008C0042AFAD203E011F8013B00F8013B21
:1001C000521EF9D210BDD2B201E000F8012B491E37
:1001D000FBD270470022F6E710B513460A460446E4
:1001E0001946FFF7F0FF204610BD2DE9FE4F80466F
:1001F00081EA0300C00F0C46009021F0004123F07B
:100200000045B8EB0200A94105D240462146904680
:100210001C460B46024623F00040104347D0270DF2
:10022000C7F30A00C3F30A510290401A0190402814
:100230006BDAC3F3130040F4801B0098924620B1A0
:100240000023D2EB030A63EB0B0B01985946C0F174
:1002500040025046FFF788FF06460D465046594675
:10026000019A00F080F910EB08006141002487EA50
:10027000115284EAE7731A4340D0009A62B3019A9C
:10028000012A4FEA075215DC001B61EB02014FF017
:10029000004202EA0752CDE90042001C41F58011FC
:1002A00032462B4600F080F903B0BDE8F08F40469F
:1002B0002146F9E7001B61EB0201001C41F58013A8
:1002C00000185B412018A2F5001747EB030140EA34
:1002D000D570B6196D4111E06D084FEA360645EA52
:1002E000C0754FEA0752001B61EB0201001C41F58B
:1002F000801149084FEA30000019514132462B461F
:1003000003B0BDE8F04F00F040B900980122400072
:100310000023D0EB020263EBE073009821464FEA22
:10032000E074B8EB000061EB0401E9E783F00043FF
:100330005BE781F0004158E72DE9F04D81EA0304C5
:1003400004F0004B21F0004514464FF0000A23F062
:10035000004150EA050220D054EA01021DD0C5F345
:100360000A570246C5F31303C1F31300C1F30A563B
:1003700040F4801543F48013A7EB0608101BD64603
:1003800008F2FD3873EB050002D308F1010801E023
:1003900092185B41B8F1000F03DA00200146BDE876
:1003A000F08D00204FF48011064684460EE0171BA6
:1003B00073EB050705D3121B63EB050306434CEAF9
:1003C000010C49084FEA300092185B4150EA0107DE
:1003D000EDD152EA030012D082EA040083EA05015B
:1003E000084305D0101BAB4106D20122002306E0D2
:1003F00000224FF0004302E06FF0010253101AEBAD
:1004000006004CEB085110EB0A0041EB0B01BDE874
:10041000F04D00F0BAB870B521F0004303430CD0A2
:10042000C1F30A550024D5EB040564EB0403D61789
:10043000AD1AB34102DB0020014670BD201841EB2C
:10044000025170BD70B5C1F30A5201F0004500249D
:10045000C1F3130140F2FF3341F480119A4201DAF3
:10046000002070BD40F233439A42A2F2334203DCD3
:10047000524200F068F800E090402C43F1D0404236
:1004800070BD000030B5041E71F1000404DB4FF0B4
:100490000044404264EB0101141E73F1000405DBCB
:1004A0001C464FF00043524263EB04038B4208BFEB
:1004B000824230BD30B5041E71F1000404DB4FF000
:1004C0000044404264EB0101141E73F1000405DB9B
:1004D0001C464FF00043524263EB0403994208BFAD
:1004E000904230BD2DE9F05F0546002092469B46C4
:1004F00088460646814640241BE02846414647463A
:10050000224600F020F853465A46C01A914110D3B3
:10051000114618462246FFF727FE2D1A67EB010801
:100520004F46224601200021FFF71EFE17EB00096F
:100530004E41201EA4F10104DFDC484631462A4624
:100540004346BDE8F09F202A04DB203A21FA02F05E
:100550000021704721FA02F3D040C2F120029140FD
:10056000084319467047202A06DBCB17203A41FA88
:1005700002F043EAE07306E041FA02F3D040C2F130
:100580002002914008431946704710B5141E73F1BC
:10059000000408DA401C41F1000192185B411A4343
:1005A00001D120F0010010BD2DE9F04D92469B468F
:1005B00011B1B1FA81F202E0B0FA80F22032904635
:1005C000FFF7D2FD04460F4640EA0A0041EA0B015C
:1005D00053465A46084313D0114653EA010019D036
:1005E000C8F140025046FFF7AEFF05460E465046A2
:1005F00059464246FFF7B8FD084305D0012004E004
:1006000020463946BDE8F08D0020054346EAE076F5
:100610002C4337430A986305E40AA0EB0800002244
:10062000FD0A44EA47540A3002D500200146E9E7B2
:10063000010510196941DDE9084500196941BDE866
:10064000F04DA2E7064C074D06E0E06840F00103DC
:1006500094E8070098471034AC42F6D3FFF76CFDDE
:10066000F82F0008183000080548406818B1D0F885
:10067000F40000B1004740F63D0000F003B8000070
:10068000140000200349496819B1D1F8F01001B1F4
:100690000847FEE7140000200448406810B1406994
:1006A00000B1004740F60500FFF7ECBF1400002042
:1006B000FEE700002DE9F04F454C85B0A06940F4FD
:1006C0008070A061A06900F480700490A06940F07F
:1006D0002000A061A06900F020000490A06940F013
:1006E0000800A061A069012500F008000490FC202A
:1006F000CDE90005DFF8DC900226694603964846FE
:1007000000F03AFB4FF44078DFF8CCB0CDE900853B
:1007100069465846039600F02FFB4FF47047DFF808
:10072000BCA0CDE9007569465046039600F024FB55
:100730000022FC21484600F015FC002241465846A4
:1007400000F010FC00223946504600F00BFCE06936
:1007500040F00400E061E069214F00F004000490E3
:10076000786840F480507860A06940F02000A06173
:10077000A0694FF0030900F0200004904FF44050AE
:10078000CDE90006CDE902596946584600F0F4FA71
:10079000E06940F00200E061E06900F002000490CE
:1007A000786840F440607860A06940F01000A06173
:1007B000A069CDF8008000F01000CDE90390CDE9EC
:1007C00001656946074800F0D7FA05B0BDE8F08F2B
:1007D000001002400020014000140140000C0140C4
:1007E000000001400010014010B5FFF763FF40F228
:1007F00083340121204600F039FA0121204600F01F
:100800005FFA17480068C16841F00101C160032226
:1008100001211D2000F0F4FB1D2000F0E6FB104834
:100820003C300068C16841F00101C1600322012130
:100830001E2000F0E5FB1E2000F0D7FB0121082060
:1008400000F0F0F80121092000F0ECF801210A2065
:1008500000F0E8F80121BDE810400B2000F0E2B8FC
:100860000806002010B5082806D0092806D00A2856
:100870000DD00B2806D10CE00C2100E00821074820
:1008800001F0A8F8BDE81040012002F0E5BA04210B
:1008900000E0002101483C30F2E70000080600209B
:1008A00070B5374D0446687000F08AF8204601F0B4
:1008B000E3FF344E082C20D0092C33D03C360A2CD0
:1008C00047D00B2C5BD1687801F06CFFE86040B139
:1008D000687801F067FF3168C862687801F062FFEC
:1008E000F0603068C06A2849400808600021254847
:1008F0003C30BDE8704001F051B8687801F052FF1B
:10090000E86040B1687801F04DFF3168C8626878EE
:1009100001F048FFF0603068C06A1C494008086078
:100920000C2114E0687801F03DFFE86040B1687880
:1009300001F038FF3168C862687801F033FFF06079
:100940003068C06A11494008091F086008210D4835
:10095000CFE7687801F026FFE86040B1687801F0E1
:1009600021FF3168C862687801F01CFFF0603068D0
:10097000C06A05494008091D08600421B7E770BD39
:1009800038000020080600203408004040040040E1
:1009900010B50A4C0023C4E9013223706070FFF7E0
:1009A0007FFF207800284FF0010003D0BDE8104001
:1009B00002F052BA02F050FAF3E7000038000020CB
:1009C0000122154B082807D009280CD0134B0A2800
:1009D00010D00B281CD115E0C3F89421C3F898213E
:1009E000C3F89C1114E0C3F88821C3F88C21C3F824
:1009F00090110DE0C3F8BC210948C0F8A021C0F84F
:100A0000A41105E0C3F8B021C3F8B421C3F8B811AC
:100A1000012002F021BA000000002442008021429F
:100A2000008022422DE9F047B4B0874F874D0C4635
:100A300006460DF1A80A0DF130080DF158090828F5
:100A400006D0092E48D00A2E7ED00B2E34D1C3E01A
:100A50007D490020CDE902017C497E4ACDE90801AB
:100A600001467B480023CDE90A10CDE90632CDE9E5
:100A700000101A463B460020294601F081FECDE9D0
:100A8000040100207049734ACDE90C016F4900232D
:100A9000CDE9120101466E48CDE91410CDE91032BE
:100AA0002AE0282202A904E02822414601E0282267
:100AB00049465046FFF767FB082E7CD0092E7BD0B5
:100AC0000A2E7AD00B2E04D1C82202A96248FFF761
:100AD0005AFB34B0BDE8F08700205B495D4ACDE9A0
:100AE00002015A490023CDE9080101465848CDE9E1
:100AF0000A10CDE906327EE0CDE9001000223B4627
:100B00001046294601F03CFECDE90E0100204E4979
:100B1000504ACDE916014D490023CDE91C0101469B
:100B20004B48CDE91E10CDE91A32CDE90010002264
:100B30003B461046294601F023FECDE91801002C62
:100B4000AFD0012CB0D000E002E0022CAFD0B3E770
:100B50003D490020CDE9020140493E4BCDE9080165
:100B600001463F480022CDE90A10CDE90623CDE930
:100B700000103B461046394901F002FECDE9040160
:100B800037490020CDE90C013649324BCDE912013D
:100B9000014633480022CDE91410CDE91023CDE9F8
:100BA0000010034610462F4901F0EAFDCDE90E0181
:100BB0000020254902E038E03BE03FE0CDE91601A6
:100BC0002249244BCDE91C01014621480022CDE9F0
:100BD0001E10CDE91A23A8E700201B491D4BCDE9C3
:100BE00002011A490022CDE9080101461848CDE961
:100BF0000A10CDE90623CDE9001000223B4610463D
:100C0000294601F0BDFDCDE9040100200E49114B3C
:100C1000CDE90C010D490022CDE9120101460C4835
:100C2000CDE91410CDE9102366E7C82202A90E48C9
:100C30004DE70D48C82202A9C83048E70648C82237
:100C400002A9C83843E7000000409F4000408F40A1
:100C500000C0724000004440700E00200070B74099
:100C60000070A7400082D440180C002070B50546E3
:100C7000124A1148002482E833001046146100F043
:100C800070FE0E4970207831082208606808C1E9BA
:100C900001040A4800F0FDFD08490C22783107489C
:100CA00000F0F7FD0821054800F094FEBDE8704013
:100CB0000C21024800F08EBE00040040080600200F
:100CC00070B50546124A1148002482E833001046E8
:100CD000146100F046FE0E4970203C31002208608D
:100CE0006808C1E901040A4800F0D3FD084904225C
:100CF0003C31074800F0CDFD0021054800F06AFEB8
:100D0000BDE870400421024800F064BE00080040C5
:100D10004406002070477047042000F021B80820E6
:100D200000F01EB810B5802000F01AF8BDE81040A1
:100D3000402000F015B831B500F01AF9044600F073
:100D400017F90099001B8842F9D338BD082803D051
:100D5000042803D1FFF7A0BCFFF786BC7047000052
:100D6000044910B50A68024202D00860FFF7EEFF9E
:100D700010BD0000140401402DE9F84FDFF8BC91CC
:100D8000002309F1040A0AF1040B1C464FF00F0876
:100D90000BF1040E01270A68A7403A40BA4272D10B
:100DA000DFF89CC14D68A5EB0C0665452BD00DDC2A
:100DB000032D34D005DC35B3012D19D0022D2FD1F0
:100DC0001BE0112D16D0122D2AD119E0B6F5881F7F
:100DD00019D006DCB6F5803F15D0B6F5801F1FD1BF
:100DE00011E0B6F5001F0ED0B6F5041F18D10AE0C9
:100DF000CB6815E0CB681B1D12E0CB6808330FE011
:100E0000CB680C330CE08B682BB1012B4FF008033F
:100E100003D0476104E0042302E0076100E00023FF
:100E2000FF2A01D8064601E000F104064FEA8405D6
:100E300001D9A5F12005376808FA05FC27EA0C0757
:100E400003FA05F547EA050737604D68ED006ED5F2
:100E50003C4DAE6946F00106AE61AD6924F0030673
:100E600005F001050095384D7719BE68A5072D0FCF
:100E700008FA05FC26EA0C06DFF8D0C0604503D16D
:100E80004FF0000C25E052E0DFF8C4C0604502D10D
:100E90004FF0010C1DE0DFF8BCC0604502D14FF0FF
:100EA000020C16E0DFF8B0C0604502D14FF0030C31
:100EB0000FE0DFF8A8C0604502D14FF0040C08E055
:100EC000DFF89CC0604502D14FF0050C01E04FF007
:100ED000060C0CFA05FC4CEA060CC7F808C04D6875
:100EE000D9F80060ED034D4601D5164300E0964366
:100EF0002E604D68DAF80060AD03554601D5164303
:100F000000E096432E604D68DBF80060ED025D4620
:100F100001D5164300E096432E604D68DEF8006070
:100F2000AD02754601D5164300E096432E60641C61
:100F3000102CFFF42FAFBDE8F88F00000004014033
:100F400000001110001002400000014000080140A4
:100F5000000C014000100140001401400018014045
:100F6000001C01400AB1016170470904FBE7000061
:100F70000148006870470000040000200248016832
:100F8000491C01607047000004000020074810B5AC
:100F9000016841F010010160052000F051F80F20B8
:100FA00000F006F800F015F8002010BD0020024007
:100FB00010B5044600F016F94FF47A71B0FBF1F069
:100FC00000F053FC00222146501E00F019F80020CA
:100FD00010BD704700F01F020121914040098000C0
:100FE00000F1E020C0F88011704700F01F020121DD
:100FF00091404009800000F1E020C0F800117047E6
:10100000F0B40E4B1B68C3F30223C3F10704042C96
:1010100000D904241D1D072D01D2002300E0DB1E92
:10102000012606FA04F56D1E0D409D409E40761E79
:10103000164045EA0601F0BC00F0AABE0CED00E047
:10104000064A00F0070110684FF6FF03184040EA17
:101050000120034908431060704700000CED00E0D8
:101060000000FA052DE9F047DFF8688104460E46D6
:10107000D8F8000000F00700B0420CD2D8F80010F9
:1010800021F007013143C8F80010D8F8000000F043
:101090000700B04273D120784F4F800705D578689C
:1010A000A16820F0F000084378602078C00755D090
:1010B0006068012201280CD0022828D0022393FA6C
:1010C000A3F1B1FA81F141F02001490904D0396856
:1010D00003E04FF40033F2E7796A93FAA3F3B3FA2B
:1010E00083F303F01F039A40114248D0796821F03E
:1010F000030101437960FFF73BFF0546606841F259
:10110000883101280CD00228894615D022E04FF002
:101110000073D4E7FFF72CFF411B494501D916E0C6
:1011200089467868C0F381000128F3D116E0FFF703
:101130001FFF411B49450AD87868C0F38100022887
:10114000F5D10BE0FFF714FF411B494502D90320FD
:10115000BDE8F087786810F00C0FF3D1D8F80010D4
:10116000404601F00701B1420BD9016821F00701A7
:1011700031430160006800F00700B04201D0012057
:10118000E6E72078400705D57868E16820F4E0605C
:10119000084378602078000706D57868216920F434
:1011A000605040EAC100786000F052F87968F0229F
:1011B00092FAA2F201F0F001B2FA82F2D140074AAB
:1011C000515CC840064908600F20FFF7F1FE00207F
:1011D000BEE700000020024000100240DD2F0008A2
:1011E0000000002001480068704700000000002057
:1011F00008480949006849684FF4E06292FAA2F28F
:1012000001F4E061B2FA82F2D140044A515CC84074
:10121000704700000000002000100240ED2F000881
:1012200008480949006849684FF4605292FAA2F2EE
:1012300001F46051B2FA82F2D140044A515CC840D4
:10124000704700000000002000100240ED2F000851
:1012500010B519A085B00FC88DE80F001AA01B4B60
:101260000068049059681A4801F00C02042A1DD045
:10127000082A1BD14FF4701494FAA4F401F47012EC
:10128000B4FA84F4E240C9031DF8022010D559686D
:101290004FF4003393FAA3F301F40031B3FA83F36C
:1012A000D94004AB595CB0FBF1F0504305B010BD20
:1012B00008485043FAE7000002030405060708093E
:1012C0000A0B0C0D0E0F101001020000001002405E
:1012D00000127A0000093D002DE9F84F044600781D
:1012E000FE4EC0074FF001057FD070684FF4003804
:1012F000C0F38100012807D07068C0F38100022884
:101300001BD17068C00318D598FAA8F0B0FA80F025
:1013100040F02000400901D0306800E0706A98FA7F
:10132000A8F1B1FA81F101F01F0105FA01F10842BB
:101330005BD06068002879D057E06068B0F5803FE6
:101340000BD010B1B0F5A02F11D0306820F4803050
:101350003060306820F4802002E0306840F4803053
:101360003060606818B3FFF703FE074609E0306895
:1013700040F480203060F0E7FFF7FAFDC01B6428DE
:1013800070D898FAA8F0B0FA80F040F02000400938
:1013900001D0306800E0706A98FAA8F1B1FA81F1E2
:1013A00001F01F0105FA01F10842E5D01DE0FFF749
:1013B000DFFD074604E0FFF7DBFDC01B6428DFD834
:1013C00098FAA8F0B0FA80F040F02000400901D06F
:1013D000306800E0706A98FAA8F1B1FA81F101F082
:1013E0001F0105FA01F10842E5D12078DFF8F0820B
:1013F00080074FF0000A4FF002075AD570684FF08F
:10140000F80B10F00C0F07D07068C0F381000228B1
:101410001CD17068C00319D497FAA7F0B0FA80F015
:1014200040F02000400902D0306801E08AE0706A94
:1014300097FAA7F1B1FA81F101F01F0105FA01F164
:1014400008422BD0206901287CD127E0206988B38D
:1014500095FAA5F0B0FA80F048F82050FFF788FD23
:10146000814606E04DE1FFF783FDA0EB090002286D
:1014700086D897FAA7F0B0FA80F040F02000400933
:1014800001D0306800E0706A97FAA7F1B1FA81F1F3
:1014900001F01F0105FA01F10842E4D030689BFA1F
:1014A000ABF220F0F8016069B2FA82F29040014399
:1014B000316025E0FFE795FAA5F1B1FA81F148F82E
:1014C00021A0FFF755FD814605E0FFF751FDA0EB98
:1014D00009000228CCD897FAA7F0B0FA80F040F0C3
:1014E0002000400901D0306800E0706A97FAA7F147
:1014F000B1FA81F101F01F0105FA01F10842E4D1CE
:10150000207800076DD5A069B8B395FAA5F0B0FAB8
:1015100080F008EB8000C0F88054FFF729FD814679
:1015200005E0FFF725FDA0EB09000228A0D897FAF7
:10153000A7F0B0FA80F040F06000B5EB501F02D188
:1015400030680CE063E197FAA7F0B0FA80F040F061
:101550006000B7EB501F01D1306A00E0706A97FA63
:10156000A7F1B1FA81F101F01F0105FA01F2104271
:10157000D7D00120FFF7DFFB33E0FFE795FAA5F1B5
:10158000B1FA81F108EB8101C1F880A4FFF7F0FC0A
:10159000814605E0FFF7ECFCA0EB0900022899D892
:1015A00097FAA7F0B0FA80F040F06000B5EB501F5A
:1015B00001D130680BE097FAA7F0B0FA80F040F064
:1015C0006000B7EB501F01D1306A00E0706A97FAF3
:1015D000A7F1B1FA81F101F01F0105FA01F2104201
:1015E000D8D12078400763D5F06940F08050F06191
:1015F000F069DFF8F0B000F080500090DBF80010E8
:1016000041F48071CBF80010FFF7B2FC814605E091
:10161000FFF7AEFCA0EB0900642872D8DBF80000ED
:10162000C005F5D5E06801280AD008B1052813D017
:10163000306A20F001003062306A20F0040002E0DD
:10164000306A40F001003062E06841F2883B80B3CC
:10165000FFF78EFC81460AE0306A40F004003062F9
:10166000EEE7FFF785FCA0EB0901594549D897FA49
:10167000A7F0B0FA80F040F04000B5EB501F01D168
:1016800030680BE097FAA7F0B0FA80F040F0400025
:10169000B7EB501F01D1306A00E0706A97FAA7F1EA
:1016A000B1FA81F101F01F0205FA02F10842D8D027
:1016B00033E0FFE7FFF75CFC814605E0FFF758FCED
:1016C000A0EB090159451CD897FAA7F0B0FA80F0B1
:1016D00040F04000B5EB501F08D105E0001002407B
:1016E000000042420070004030680CE097FAA7F01A
:1016F000B0FA80F040F04000B7EB501F02D1306AE2
:1017000001E08AE0706A97FAA7F1B1FA81F101F07D
:101710001F0205FA02F10842D0D1E06998B371685E
:10172000C1F38101022972D002284FF080714FF07D
:10173000007B50460AD091FAA1F1B1FA81F148F844
:101740002100FFF715FC04465F4669E08A4691FADE
:10175000A1F1B1FA81F1C14648F82100FFF708FC78
:10176000A84607465D4604E0FFF702FCC01B0228BE
:1017700053D895FAA5F0B0FA80F040F02000400967
:1017800002D0306801E060E0706A95FAA5F1B1FA24
:1017900081F101F01F0208FA02F10842E4D1206A47
:1017A000B0F5803F05D17068A16820F4003008438F
:1017B0007060D4E908010843716821F4741108438A
:1017C00070609AFAAAF0B0FA80F0474649F8208093
:1017D000FFF7CEFB044604E0FFF7CAFB001B02281C
:1017E0001BD895FAA5F0B0FA80F040F0200040092F
:1017F00001D0306800E0706A95FAA5F1B1FA81F184
:1018000001F01F0107FA01F10842E5D01DE01EE0DA
:10181000FFF7AEFB001B022802D90320BDE8F88FBA
:1018200097FAA7F0B0FA80F040F02000400901D00C
:10183000306800E0706A97FAA7F1B1FA81F101F01F
:101840001F0105FA01F10842E2D10020E6E701207C
:10185000E4E74FF0E0210428086903D020F00400F9
:101860000861704740F00400FAE710B5401EB0F17F
:10187000807F01D3012010BD4FF0E02460610F2173
:10188000601700F085FA0020A06107202061002089
:1018900010BD70B5044690F838000D4601280DD0F3
:1018A000012684F83860022084F8390042B1042A05
:1018B00018D0082A2AD00C2A4DD139E0022070BD58
:1018C000206800F0BDFB2068816941F0080181615A
:1018D0002068816921F004018161206881692A6999
:1018E000114311E0206800F0DBFB2068816941F4BE
:1018F000006181612068816921F4806181612068D3
:1019000081692A6941EA0221816124E0206800F0AE
:10191000FDFB2068C16941F00801C1612068C1690F
:1019200021F00401C1612068C1692A69114311E0F5
:10193000206800F01FFC2068C16941F40061C161AA
:101940002068C16921F48061C1612068C1692A6988
:1019500041EA0221C16184F83960002084F838002E
:1019600070BD10B5040003D094F8390010B107E041
:10197000012010BD002084F83800204600F00CF84B
:10198000022084F83900211D206800F00BFB0120A3
:1019900084F83900002010BD7047000010B50446DF
:1019A0000068012200F040FB08482168814202D013
:1019B0000748814203D1486C40F4004048642068E5
:1019C000016841F001010160002010BD002C0140C0
:1019D0000034014010B504460068002200F024FBEA
:1019E000114841F2111221689310814202D00F4830
:1019F000814209D1086A104206D1086A184203D10F
:101A0000486C20F4004048642068016A114206D105
:101A1000016A194203D1016821F00101016001202E
:101A200084F83900002010BD002C01400034014032
:101A3000704790F83900704738B50446006801686F
:101A4000C268C1F3000102F4807221B11AB1E16BE6
:101A500041F00101E1630168C1F34002416901F015
:101A6000010122B119B1E26B42F00402E2630268A3
:101A7000C2F3800222B119B1E26B42F00202E263CA
:101A80000268C2F3C00222B119B1E16B41F0080152
:101A9000E1630168C068C1F3401100F0200019B192
:101AA00010B1204600F018FC20680168C068C1F33E
:101AB000C01100F0800019B110B1204600F018FDEF
:101AC00021680868CA68C0F3801002F0400201254E
:101AD00068B162B1CA68204622F04002CA6094F838
:101AE0003910322910D080F8395000F04DF9E06BF0
:101AF000002808D0206801684068009084F83950B8
:101B00002046FFF795FF38BD222180F83910ECE719
:101B100070B5040004D094F83900002510B106E037
:101B2000012070BD84F83850204600F021F80220D2
:101B300084F839002068C16821F40051C160204652
:101B400000F01EFC2068016921F4904101612068C9
:101B5000416921F02A0141612068C16841F40051C6
:101B6000C160E563012084F83900002070BD0000E9
:101B700010B500681E4986B0884236D11D4881697B
:101B800041F004018161816901F0040104918169DE
:101B900041F480418161816901F48041049181694E
:101BA00041F0010181618069134C00F00100049053
:101BB0004FF4007000900220019001200290032059
:101BC000039069462046FFF7D7F8211500910021C0
:101BD000019169462046FFF7CFF82520FFF705FA67
:101BE000032211462520FFF70BFA06B010BD0000B6
:101BF0000038014000100240000801402DE9F04784
:101C0000044690F8390099460D46012801D0122863
:101C100057D125B31AB394F83800012851D00126C2
:101C200084F838600027E76394F83900122819D047
:101C3000222084F83900A285E2854FF48058E08D97
:101C40004B46401EE085A0684FF0000240454FF033
:101C50002001204616D100F07EFCB0B904E001203E
:101C6000BDE8F0873220E4E720690028206840685A
:101C700003D0C1B225F8011B12E0C0F3080125F81A
:101C8000021B0DE000F067FC08B10320E8E72069C3
:101C900000282068406801D000F07F0005F8010BA3
:101CA000E08D0028CBD194F83900322805D084F893
:101CB000396084F838700020D2E7122084F83900A7
:101CC000F7E70220CCE790F83930012B01D0122B36
:101CD0002BD131B32AB390F83830012B25D0012312
:101CE00080F8383081628285C2850021C16390F816
:101CF0003920122A17D0222280F8392080F8381093
:101D00000168CA6842F48072CA6001684A6942F098
:101D100001024A610068C16841F02001C1600020F1
:101D20007047012070473222E6E70220704700002A
:101D300030B50068114988420CD1114A508801041D
:101D400008D41146440409784FF0000306D50A2947
:101D500001D0538030BD40F400400DE00D2909D082
:101D6000C0F30D04074D401C80B229555080C72890
:101D7000EFD830BD40F48040508030BD0038014085
:101D80000C000020480000207047FEE7FEE7704787
:101D90000907090E002806DA00F00F0000F1E02024
:101DA00080F8141D704700F1E02080F8001470479F
:101DB0007047000010B518210348FEF70BFA0348DE
:101DC0000021016010BD0000EC050020340000205F
:101DD000704730B58FB0012100910225090400241D
:101DE0000795CDE90114CDE908106846FFF774FAAC
:101DF00000B1FEE70F20CDE90A054FF48060CDE980
:101E00000C4002210AA80E94FFF72CF9002800D0FC
:101E1000FEE70FB030BDFFF7B1B800000D48016814
:101E200041F00101016041680B4A114041600168C5
:101E30000A4A11400160016821F480210160416873
:101E400021F4FE0141604FF41F0181600449C00389
:101E500008607047001002400000FFF8FFFFF6FE28
:101E600008ED00E070B51F4D2868C168C943C90777
:101E70001AD18E1E06611C4C20466168491C6160A7
:101E8000A2684078914210D3082802D0092806D1D0
:101E900001E00C2100E008211248FFF79BFD002023
:101EA000C4E901060120207070BD00F07BFCE060F9
:101EB0000028F9D0617808290AD00929F4D12968C5
:101EC000C862E8602868C06A08494008086070BDB8
:101ED0002968C862E8602868C06A04494008091D8A
:101EE000F4E7000008060020380000203C04004011
:101EF00070B51F4D2868C168C943C9071AD18E1E25
:101F000006611C4C20466168491C6160A2684078EB
:101F1000914210D30A2802D00B2806D101E00421F7
:101F200000E000211248FFF755FD0020C4E901063A
:101F30000120207070BD00F035FCE0600028F9D071
:101F400061780A290AD00B29F4D12968C862E860AF
:101F50002868C06A08494008086070BD2968C862DE
:101F6000E8602868C06A04494008091DF4E70000D9
:101F70004406002038000020340800400849086862
:101F8000C268D243D20705D142620A6842F20F709A
:101F9000D062C86009686FF00100086170470000F6
:101FA000D0020020F0B502681A4D1B4E1B4FDFF81F
:101FB00070C01C4B4FF0804EA84209D0984207D009
:101FC000704505D0B04203D0B84201D0604503D17E
:101FD00022F070044A682243A84209D0984207D0F0
:101FE000704505D0B04203D0B84201D0604503D15E
:101FF00022F44074CA68224302608A68C2620A6896
:102000008262A84201D0984201D10969016301218D
:102010004161F0BD002C0140000400400008004078
:10202000000C00400034014010B50123046A8B40CD
:102030009C430462036A8A401343036210BD00009C
:10204000F0B5026A22F001020262026A4368846902
:10205000114E24F073050C68104F2C4322F002053A
:102060008A682A43B04201D0B84205D122F008055F
:10207000CA682A4322F00402B04201D0B84205D116
:102080004D6923F440731D438B692B434360846186
:10209000496841630262F0BD002C014000340140F8
:1020A000F0B5026A22F010020262026A4368846993
:1020B0000D6824F4E64444EA05248D6822F02002E9
:1020C00042EA05120F4D104EA84201D0B04206D18F
:1020D000CF6822F0800242EA071222F04002A842B2
:1020E00001D0B04207D14D6923F4406343EA850330
:1020F0008D6943EA850343608461496881630262B4
:10210000F0BD0000002C014000340140F0B5026A2F
:1021100022F480720262026A4368C46922F4007287
:1021200024F073050C68124E2C438D6842EA052298
:102130000E4DA84201D0B04206D1CF6822F4006211
:1021400042EA072222F48062A84201D0B04207D1BD
:102150004D6923F4405343EA05138D6943EA05139F
:102160004360C4614968C1630262F0BD002C014054
:102170000034014030B5026A22F480520262036AE0
:102180004268C4690D6824F4E64444EA05248D6875
:1021900023F4005343EA0533084DA84202D0084D0A
:1021A000A84204D14D6922F4804242EA851242607D
:1021B000C46149680164036230BD0000002C014025
:1021C000003401400C4808B500680068C043800630
:1021D00010D401231A4669460748FFF70FFD074947
:1021E0000868802806DA044B9DF8002040331A5412
:1021F000401C086008BD00002803002028000020C3
:1022000070B52249064686B0886940F010008861A2
:10221000886900F010000490C86940F40020C8618B
:10222000C8691B4C00F4002004900815009002209F
:1022300001900320039069462046FEF79DFDE014BF
:102240000025CDE900050120029069462046FEF7F1
:1022500093FD114C0F482060C4E90165E5600C2036
:102260002561C4E905052046E561FFF751FC2068BA
:10227000C16821F04001C1602068C16841F02001BF
:10228000C1603420FEF7A6FE06B070BD001002400B
:1022900000100140004C0040280300200C4808B505
:1022A00000680068C043800610D401231A466946BE
:1022B0000748FFF7A3FC07490868802806DA044BA3
:1022C0009DF8002040331A54401C086008BD0000EF
:1022D0002C0500203000002010B590F8391022297C
:1022E00003D0322901D0022010BD8168B1F5805F92
:1022F00011D00169002901681FD0496801F07F03EE
:10230000816A4A1C82620B70C18D491E0904090C46
:10231000C18518D02FE00269816A002A02685268DC
:1023200005D0D2B20A80816A491C8162ECE7C2F30F
:1023300008020A80816A891CF7E74A68816A4B1C97
:1023400083620A70E0E70168CA6822F02002CA606E
:1023500090F83910322910D00168CA6822F48072CE
:10236000CA6001684A6922F001024A61012180F8CD
:102370003910FFF7DDFC002010BD1221F7E7000047
:102380002DE9F041044600680169E26821F44051FA
:1023900011430161A168206901436069014320681C
:1023A000C26841F20C639A430A43C26020684169E3
:1023B000A26921F44071114341614C4920686426AF
:1023C000322788423CD1FEF72BFF00EBC00101EB26
:1023D000001061688900B0FBF1F5FEF721FF00EB0A
:1023E000C00101EB00106168B8468900B0FBF1F054
:1023F000B0FBF6F06FF01801484305EB800107EBE6
:102400000110B0FBF6F000F0F005FEF709FF00EB5D
:10241000C00101EB001061688900B0FBF1F0B0FB76
:10242000F6F005EB0015FEF7FBFE00EBC00101EB3B
:10243000001061688900B0FBF1F7FEF7F1FE3BE0A8
:10244000FEF7D6FE00EBC00101EB001061688900C9
:10245000B0FBF1F5FEF7CCFE00EBC00101EB001084
:102460006168B8468900B0FBF1F0B0FBF6F06FF0A0
:102470001801484305EB800107EB0110B0FBF6F0B3
:1024800000F0F005FEF7B4FE00EBC00101EB001018
:1024900061688900B0FBF1F0B0FBF6F005EB0015C8
:1024A000FEF7A6FE00EBC00101EB00106168890099
:1024B000B0FBF1F7FEF79CFE00EBC00101EB001052
:1024C00061688900B0FBF1F0B0FBF6F06FF0180125
:1024D000484307EB800108EB0110B0FBF6F02168E0
:1024E00000F00F0028448860BDE8F081003801400A
:1024F00090F83910122903D0322901D002207047F8
:102500008168B1F5805F016A0BD04A1C02620268E3
:1025100009785160C18C491E0904090CC1840ED090
:1025200017E009880268C1F30801516001690029B8
:10253000016A02D0491C0162ECE7891CFBE70168D3
:10254000CA6822F08002CA600068C16841F0400198
:10255000C160002070472DE9F0471D4690460F46A8
:102560000446FEF705FD06465FEA08004FF0000945
:102570004FF0010808D030E0681C05D095B1FEF797
:10258000F7FC801BA8420DD82068006837EA0000DD
:10259000F2D127E0681C20D025B1FEF7E9FC801BB2
:1025A000A8421AD92068C16821F08001C160206862
:1025B000C16821F02001C1602068C16821F48071E8
:1025C000C1602068416921F00101416184F83980CE
:1025D00084F838900320BDE8F0872068006837EA67
:1025E0000000D7D00020F6E710B50848FFF724FA1E
:1025F0000648FFF71EFA0128FAD1012204490348D0
:10260000FFF761FB0028F8D110BD00001001002089
:102610000C000020184808B500680068C043800618
:102620001FD401231A4669461348FFF7E7FA134AF5
:10263000114910684031B0F5827F04DA9DF800300E
:102640000B54401C1060012201280BD0022808DD29
:10265000084410F8010C0A2801D00D2801D10848BF
:10266000027008BD0878232803D0242801D025282B
:10267000F7D10448F4E70000E80300202C00002014
:102680001D0000201C00002038B53248006800689A
:10269000C043800630D401231A4669462D48FFF70F
:1026A000ADFA2D4C2B4AA0684032B0F5827F04DA97
:1026B0009DF800101154401CA0600121072807DB81
:1026C0001378FF2B04D15378DB1D834200D1A17016
:1026D000012809D0022811DD131813F8013C0A2B38
:1026E0000BD00D2B09D009E01078232803D0242823
:1026F00001D0252800D1217038BD617004280ADD81
:10270000024412F8013C0A2B1BD112F8022C0D2AAC
:1027100017D1E17015E014D10E484030C078402840
:1027200008D05E28E8D10B48403080785E28E3D19D
:10273000617138BD0748403080784028F9D1217157
:1027400038BD0A28FCD103484030407A3B28F7D1F5
:10275000A17138BD500100201C000020FEE70000E0
:102760000FB4054B10B503A9044A029800F0CAF84B
:1027700010BC5DF814FB0000A92E0008100000201A
:1027800070B5DDE90445FDF730FD4FF0FF32FDF790
:1027900042FE02460B4620462946BDE87040FDF742
:1027A000CBBD00002DE9F043324D044605F5AF6086
:1027B00005F5C86705F5E166B3B04FF0000980463E
:1027C00005F5FA65082C06D0092C07D00A2C1FD075
:1027D0000B2C08D11FE0C822014601E0C82239466F
:1027E0006846FDF7D0FCDDE91E01DDE92423FDF795
:1027F00049FE3AD20DF1780999E80F00FDF7F5FC92
:10280000DDE92423FDF756FE08D2DDE924010BE0C3
:10281000C8223146E4E7C8222946E1E70DF17809EC
:1028200099E80F00FDF7E1FCCDE91E01DDE91E018D
:1028300000F046F88146082C06D0092C08D00A2C56
:102840000AD00B2C11D10BE0C822694640460AE0A1
:10285000C8226946384606E0C8226946304602E08A
:10286000C82269462846FDF78EFC33B04846BDE8CD
:10287000F0830000A00600200F4B08280CD0092888
:102880000FD00A2812D00B2815D103F52071282269
:10289000A1F12800FDF777BC074928222831184606
:1028A000F8E705492822F0311846F3E703492822C2
:1028B000A1F12800EEE77047900C0020480E0020A0
:1028C00010B50122FDF7A7FD02460B460020044982
:1028D000FDF732FD00F048FABDE81040FDF7B2BD4B
:1028E000882A914102E008C8121F08C1002AFAD1C3
:1028F00070477047002001E001C1121F002AFBD180
:10290000704700002DE9FF4F8DB00F4605460026A9
:1029100006E025280BD0DDE90F1290476D1C761CD0
:1029200028780028F5D111B03046BDE8F08F00249A
:10293000A246A1460122EC4900E0044315F8013FFC
:10294000203B02FA03F00842F7D128782A2810D059
:102950006FF02F022878A0F13001092914D80AEB72
:102960008A0102EB410144F0020400EB010A6D1CF4
:10297000F0E701CF5FEA000A03D544F40054CAF13E
:10298000000A44F002046D1C28782E2817D115F88F
:10299000010F44F004042A280ED06FF02F0228788B
:1029A000A0F1300109290AD809EB890102EB4101A4
:1029B00000EB01096D1CF2E757F8049B6D1C2878A9
:1029C0006C280FD006DC4C2817D068280DD06A2858
:1029D00014D104E0742810D07A280FD10DE044F40B
:1029E00000140AE044F4801401E044F440146978CF
:1029F000814202D104F580146D1C6D1C2A786E2A68
:102A00001FD00CDC632A31D004DC002A8BD0582A7A
:102A100011D1A3E0642A68D0692A0CD165E0732A39
:102A20002ED004DC6F2A73D0702A04D19BE0752A63
:102A30006FD0782A6ED01046DDE90F129047761CD1
:102A400050E1C4F30250022806D0032809D004281C
:102A500001CF09D0066045E101CFF117C0E900615F
:102A600040E101CF06803DE106703BE117F8040B21
:102A70008DF8000000208DF80100EB46012003E0F6
:102A800057F804BB4FF0FF3061074FF0000102D44C
:102A90000DE008F10101884649450FDA8045F8DB71
:102AA0001BF808100029F4D108E008F1010188465C
:102AB0008142FADB1BF808100029F6D1DDE90F236B
:102AC000AAEB08008146214600F036F9304400EBBD
:102AD000080604E0DDE90F121BF8010B9047B8F17E
:102AE0000108F7D221464846F7E00A21C4F3025311
:102AF0004FF0000B0891022B04D001CFC117032B1C
:102B000009D00AE0FF1D27F00707F7E8020108E0F7
:102B100032E01FE020E000B2C117042B01D140B227
:102B2000C117031E71F1000307DA4FF0000CD0EB60
:102B30000C006CEB01012D2302E0230504D52B23AF
:102B40008DF82430012303E0E30701D02023F7E7C9
:102B5000984658E00A2110E010210EE010204FF0B6
:102B6000000B08900CE010214FF0000B44F004041F
:102B70004FF00809089103E008214FF0000B08917D
:102B8000C4F30253022B04D001CF0021032B06D043
:102B900006E0FF1D27F00707F7E8020103E080B217
:102BA000042B00D1C0B24FF0000823072BD5702AA8
:102BB00007D0DDF820C08CF0100C5CEA0B0C05D0BF
:102BC0000EE040238DF82430012308E050EA010391
:102BD00006D030238DF824308DF825200223984626
:102BE000DDF820C08CF0080C5CEA0B0C0BD150EA2D
:102BF000010301D1630706D530238DF824304FF04F
:102C00000108A9F10109582A04D038A20B9208AA98
:102C10000A920BE03AA2F9E75B46089AFDF762FCDC
:102C20000B9B9B5C0A9A521E0A92137050EA010297
:102C3000F2D10A98ADEB000000F1200B600702D53D
:102C400024F4803401E04FF00109D94502DDA9EBFD
:102C50000B0000E0002000EB0B0141440890AAEBC0
:102C6000010AE00306D4DDE90F232146504600F0B7
:102C700063F806444FF0000908E009A911F80900BB
:102C8000DDE90F12904709F10109761CC145F4DB1B
:102C9000E0030CD5DDE90F232146504600F04CF847
:102CA000064404E0DDE90F1230209047761C0899B5
:102CB000481E08900029F5DC08E00A980A99007877
:102CC000491C0A91DDE90F129047761CBBF1000107
:102CD000ABF1010BF1DC21465046DDE90F2300F09A
:102CE00019F806446D1C1BE6092801003031323307
:102CF0003435363738396162636465660000000038
:102D00003031323334353637383941424344454621
:102D1000000000002DE9F041044600251E4617463C
:102D2000880404D405E039462020B0476D1C641E99
:102D3000F9D52846BDE8F0812DE9F041044600258B
:102D40001E469046C80301D5302700E0202788049E
:102D500004D505E041463846B0476D1C641EF9D5E0
:102D60002846BDE8F08100002DE9F041C1F30A5288
:102D7000A2F2FF362F4A304B0D460446142E2FDAAE
:102D8000002E12DAFDF731FA00221346FDF792FB0E
:102D90004CD2002DBCBF4FF00045002446DB55EA65
:102DA000040018BF254D19D140E0DFF894C02CFA7B
:102DB00006F705EA070C5CEA040C08BFBDE8F081E1
:102DC000FDF713FA00221346FDF774FB2ED2002DF7
:102DD00003DD4FF48010F0400544BD43002425E09E
:102DE000332EC8BFBDE8F081A6F1140C4FF0FF37B9
:102DF00027FA0CF73C4208BFBDE8F081FDF799FACD
:102E000000221346FDF756FB10D2002D0DDD142EC7
:102E100008BF6D1C09D0C6F13400012101FA00F091
:102E20002044A04238BF6D1C0446BC4329462046BE
:102E3000BDE8F0819C7500883CE4377E0000F03FDF
:102E4000FFFF0F0010B504460420FEF702FD014805
:102E5000046010BD0800002070B5054600244FF442
:102E60007A7603E0304600F005F8641CAC42F9D3F2
:102E700070BD000070B54FF0E02500216C69094A73
:102E8000AB6912685043AA699A42FCD002D2A3EB04
:102E9000020302E0A4EB02063344194413468142C4
:102EA000F1D370BD0800002004490A685206FCD521
:102EB000024AC1B2121D1160704700000038014083
:102EC000FEF764F84FF4E010FEF783FF4820FFF7A9
:102ED000B9FF4FF4E134204600F056F82046FFF7E2
:102EE0008FF9FEF767FF93221A491BA0FFF738FC02
:102EF000FDF77AFC952217491BA0FFF731FC012151
:102F00000A20FDF78FFD47F23054224601210A20A6
:102F1000FDF73EFD00210A20FDF784FD2246002139
:102F20000A20FDF735FD00210A20FDF7B9FC42F229
:102F30001070FFF791FF0A20FDF794FCB0220549BD
:102F40000DA0FFF70DFC4FF47A742046FFF784FFC5
:102F5000FBE70000AC2F00085B25733A2564235D76
:102F6000312A0D0A000000005B25733A2564235DB9
:102F7000322A0D0A000000005B25733A2564235DA8
:102F8000332A0D0A000000000749064AC1E9002063
:102F900000208860C8600861886108204861084690
:102FA000FEF7B6BD00380140100100206D61696E6A
:102FB00000436865636B5F426F6172645F4465667E
:102FC000696E655F436F6E66696700496E69745F1D
:102FD000426F6172645F436F6E6669670000000054
:102FE00000000000000102030406070809000000B9
:102FF0000001020304000000183000080000002057
:1030000048000000E4280008603000084800002064
:10301000F0120000F428000800A24A04000000009A
:1030200000000000000000000000000000000000A0
:103030000000000000000000000000000000000090
:103040000000000000000000000000000000000080
:103050000000000000000000FEFFFFFF0000000075
:0400000508000131BD
:00000001FF
