:020000040800F2
:100000008011002045010008FB220008672200083B
:10001000F5220008D9090008854500080000000005
:100020000000000000000000000000003937000858
:10003000050D00080000000021230008493A0008CF
:100040005F0100085F0100085F0100085F01000810
:100050005F0100085F0100085F0100085F01000800
:100060000B0D0008110D00085F0100085F0100087A
:100070005F0100085F0100085F0100085F010008E0
:100080005F0100085F0100085F0100085F010008D0
:100090005F0100085F0100085F010008170D0008FC
:1000A0005F0100085F0100085F0100085F010008B0
:1000B0005F0100085F010008953A00085F01000831
:1000C0005F0100085F0100085F0100085F01000890
:1000D0005F010008E5410008114200088542000860
:1000E000090D00085F0100085F0100085F010008BA
:1000F0005F0100085F0100085F0100085F01000860
:100100005F0100085F010008C93A00085F010008AC
:10011000653D0008993E00085F0100085F01000886
:100120005F0100085F0100085F0100085F0100082F
:10013000DFF80CD000F03AFB00480047354F0008CC
:10014000801100200648804706480047FEE7FEE78A
:10015000FEE7FEE7FEE7FEE7FEE7FEE7FEE7FEE777
:100160004D3A000831010008202A04DB203A00FA49
:1001700002F1002070479140C2F1200320FA03F3FE
:1001800019439040704710B5431A934209D283181F
:10019000881803E010F8011D03F8011D521EF9D262
:1001A00010BD40EA01039B0703D009E008C9121FF4
:1001B00008C0042AFAD203E011F8013B00F8013B21
:1001C000521EF9D210BDD2B201E000F8012B491E37
:1001D000FBD270470022F6E710B513460A460446E4
:1001E0001946FFF7F0FF204610BDF0B480EA010287
:1001F000D40F4200B2EB410F02D20246084611462C
:100200004A0042D0C30DDDB2C1F3C752AD1A202D52
:1002100035DAC1F3160141F4000204B15242C5F1CE
:10022000200602FA06F12A411044B3EBD05F23D036
:10023000C4B1012DA0EBC35009DCF0BC4FF000426B
:1002400002EAC352DBB200F5000000F023BA40001E
:1002500000F1807000EBC350A0F1807040EAD170D3
:10026000490009E0490841EAC071A0EBC35000F51C
:100270000000400800EBC350F0BC00F002BA61423D
:10028000012202EB4101001BF6E7F0BC704781F050
:100290000041AAE780F00040A7E780EA010210B51C
:1002A00002F00043400022D04A001FD0010E01EBB3
:1002B0001261C0F35600C2F3560240F4000042F44B
:1002C0000002A0FB022000047F39140400D0401C6F
:1002D00050EA124001D44000491EC2B20C0604EBA1
:1002E000D010401C4008802A02D003E0002010BD3E
:1002F00020F00100002900DA0020184310BD420060
:1003000005D0C0F3C7525242914201DC0020704731
:1003100000EBC15070472DE9FE4F804681EA030093
:10032000C00F0C46009021F0004123F00045B8EBCF
:100330000200A94105D24046214690461C460B4684
:10034000024623F00040104347D0270DC7F30A00B0
:10035000C3F30A510290401A019040286BDAC3F3AC
:10036000130040F4801B0098924620B10023D2EB8A
:10037000030A63EB0B0B01985946C0F1400250464B
:10038000FFF7F2FE06460D4650465946019A00F028
:1003900066F910EB08006141002487EA115284EAF3
:1003A000E7731A4340D0009A62B3019A012A4FEAD8
:1003B000075215DC001B61EB02014FF0004202EA1C
:1003C0000752CDE90042001C41F5801132462B4610
:1003D00000F09DF903B0BDE8F08F40462146F9E7F3
:1003E000001B61EB0201001C41F5801300185B410A
:1003F0002018A2F5001747EB030140EAD570B619A3
:100400006D4111E06D084FEA360645EAC0754FEAC6
:100410000752001B61EB0201001C41F580114908E5
:100420004FEA30000019514132462B4603B0BDE877
:10043000F04F00F05DB90098012240000023D0EB9E
:10044000020263EBE073009821464FEAE074B8EBD8
:10045000000061EB0401E9E783F000435BE781F012
:10046000004158E72DE9FE4F81EA030404F00044FF
:1004700021F0004100944FF0000B23F0004350EABC
:1004800001045ED052EA03045BD0C3F30A54C1F303
:100490000A552C44A4F2F3340194A0FB0254C1F396
:1004A000130141F48011C3F3130343F4801301FBE0
:1004B000024400FB034E840A970A44EA815447EA47
:1004C0008357A4FB076802958D0A05FB07854FEA51
:1004D000932C04FB0C542705029D4FEA065847EA6B
:1004E0001637B5EB08056EEB070C870E920E47EA40
:1004F000811742EA8312A7FB0201B6EB0B0164EB02
:1005000000042B0D43EA0C335E1844EB1C50DA4612
:100510005146E7FB0201C5F313044FEA0B3343EAEC
:1005200014534FEA0432019C43EA0603A4F10C047D
:100530000294009CCDE900B400F0E9F803B0BDE8F6
:10054000F08F00200146F9E7C10F80EAE07008440F
:10055000CA079623002100F09DB896230022114679
:1005600000F098B80EB5C10F80EAE0700844CA07E1
:10057000002140F233438DE80E000A460B4600F09E
:10058000C6F803B000BD20F00040C10DC0F3160056
:1005900040F400007F2901DA00207047962903DC2F
:1005A000C1F19601C840704796398840704701F004
:1005B000004330B421F0004150EA010206D00A0D98
:1005C000A2F56072C1F31301002A02DC30BC0020E6
:1005D0007047440F44EAC104C100E01830BC00EB8E
:1005E000C25000F04EB80000002801DBC0F100400E
:1005F000002901DBC1F10041884270472DE9F05F1D
:100600000546002092469B46884606468146402481
:100610001BE0284641464746224600F0D9F853469B
:100620005A46C01A914110D3114618462246FFF788
:100630009BFD2D1A67EB01084F4622460120002141
:10064000FFF792FD17EB00094E41201EA4F10104B3
:10065000DFDC484631462A464346BDE8F09F202A63
:1006600006DBCB17203A41FA02F043EAE07306E0DA
:1006700041FA02F3D040C2F12002914008431946EA
:1006800070470029A8BF7047401C490008BF20F0F0
:100690000100704710B4B0FA80FC00FA0CF050EA88
:1006A000010404BF10BC704749B1CCF1200421FA09
:1006B00004F411FA0CF118BF012121430843A3EB04
:1006C0000C01CB1D4FEA00614FEA102042BF002011
:1006D00010BC704700EBC35010440029A4BF10BCED
:1006E0007047401C490008BF20F0010010BC704753
:1006F00010B5141E73F1000408DA401C41F100012A
:1007000092185B411A4301D120F0010010BD2DE980
:10071000F04D92469B4611B1B1FA81F202E0B0FA77
:1007200080F220329046FFF71FFD04460F4640EA54
:100730000A0041EA0B0153465A46084313D01146BA
:1007400053EA010019D0C8F14002504600F040F8C9
:1007500005460E46504659464246FFF705FD0843FA
:1007600005D0012004E020463946BDE8F08D002088
:10077000054346EAE0762C4337430A986305E40ACA
:10078000A0EB08000022FD0A44EA47540A3002D5D3
:1007900000200146E9E7010510196941DDE9084536
:1007A00000196941BDE8F04DA2E70000064C074D75
:1007B00006E0E06840F0010394E807009847103431
:1007C000AC42F6D3FFF7B8FC146C0008346C000898
:1007D000202A04DB203A21FA02F00021704721FA96
:1007E00002F3D040C2F120029140084319467047FD
:1007F00070B58C1810F8015B15F0070301D110F8E3
:10080000013B2A1106D110F8012B03E010F8016B0F
:1008100001F8016B5B1EF9D12B0705D40023521E92
:100820000DD401F8013BFAE710F8013BCB1A921CFA
:1008300003E013F8015B01F8015B521EF9D5A142F8
:10084000D8D3002070BD00000548406818B1D0F82A
:10085000F40000B1004740F63D0000F035B800005C
:100860009C0100200346094810B54268002432B1BB
:10087000D2F884201AB118469047044603E040F6A7
:10088000210000F021F8204610BD00009C0100204E
:100890000549496819B1D1F8C41001B1084740F6BB
:1008A000310000F011B800009C010020054B5B688E
:1008B0001BB1D3F8903003B1184740F6240000F084
:1008C00003B800009C0100200349496819B1D1F820
:1008D000F01001B10847FEE79C0100200448406881
:1008E00010B1406900B1004740F60500FFF7ECBFCA
:1008F0009C0100200246084810B54168002429B137
:10090000896B19B110468847044603E040F60E0093
:10091000FFF7DAFF204610BD9C010020044949681A
:1009200011B1896C01B1084740F61200FFF7CCBF46
:100930009C01002070470000044B5B6813B1DB6C26
:1009400003B1184740F61300FFF7BEBF9C0100201B
:10095000704700000346094810B54268002432B1D0
:10096000D2F8A0201AB118469047044603E040F69A
:100970002800FFF7A9FF204610BD00009C010020C1
:10098000044A526812B1526E02B1104740F6190083
:10099000FFF79ABF9C0100200449496811B1896F93
:1009A00001B1084740F61E00FFF78EBF9C010020F2
:1009B00010B5A0B000236A4606E0CC1A044414F82F
:1009C000014CD4545B1CDBB28B42F6D30A46694619
:1009D000FFF7D9FB20B010BDFEE70020704710B52F
:1009E0000024FFF7FAFF00B1102400F005F808B169
:1009F00044F00804204610BD0020704730B501784F
:100A00004278C378114482781A441144027911441F
:100A10004279114482791144C2791144027A114415
:100A2000427A1144827A1144C27A1144C9B20A222C
:100A3000B1FBF2F302FB13146423B1FBF3F503FBE8
:100A40001515B5FBF2F2B1FBF3F13034303204731B
:100A500042733031817330BD30B587B0054600F048
:100A60001BF818220B496846FFF78DFB094C103C18
:100A700094E80F0004F02EFAE8B201F053FCA4F160
:100A8000640002F011F807B00020BDE83040FFF725
:100A900045BF0000840800202DE9F84F06460020DD
:100AA0000C46009028216C48FFF794FB6A4D00210A
:100AB000DFF8A8C12E706A4FDFF8A8E1DFF8A8A11F
:100AC0006A4A6B486B4B4FF008094FF07E5B6961D7
:100AD0000C2E75D2DFE806F0BB061A41505F5F6945
:100AE000758291AF85F804906349A960AB61E960B4
:100AF000C5E907326B62002C05D0012C02D0022C14
:100B000002D0A6E05D4891E05D488FE085F8049052
:100B10005948A860AB61E860C5E907324E4E5948B4
:100B200028366B622861012C01D054B191E03089E4
:100B3000FFF713FDA8607089FFF70FFDE860F088EC
:100B400008E07088FFF709FDA860B088FFF705FD91
:100B5000E8603088FFF701FD68E02971AA61C5E906
:100B6000072BC5F808C06A62C5E903C13CB3012C74
:100B70005CD0022C5AD06CE02971AF61C5E9077BCB
:100B8000C5F808C06F62C5E903C0ACB3012C60D1E1
:100B9000C5F810E05DE02971AF61C5E9077BC5F8D4
:100BA00008C06F62C5E903CE53E029713648AF61D2
:100BB000C5E907703548A8606F62E860344835E0E1
:100BC00045E085F804903348A861C5E90702C5F8F7
:100BD00008A0C5F80CA068622F4827E085F80490AB
:100BE000AB61C5E907322C48C5F808A0C5E903A0E8
:100BF0002A486B62D4B1BAE72BE085F80490284804
:100C0000A861C5E90702C5F808C0C5F80CC068624C
:100C100024B1012C09D0022C0AD01AE02148A86185
:100C2000C5E907036862204800E02048286110E019
:100C3000C5F810A00DE029711349AF61C5E907712E
:100C4000C5F808A06F62C5E903A314B18FE70120BE
:100C500000900098BDE8F88F7408002000409C4583
:100C60000000A0410000484300803B4500002041B7
:100C700000007A440000C84200606A460000FA445E
:100C80000080BB4500007A450000A04000002F44D2
:100C90000000484200003E430080BB4400803B44CB
:100CA000000016430000F042000016440000964485
:100CB00010B504F06DF80B480BA1096840F8011F4E
:100CC0000BA1096841600CA10968816004F070FF04
:100CD00004481130C079362801D0012010BD002011
:100CE00010BD0000E80A0020304630360000000049
:100CF0003030364600000000303030310000000057
:100D000000207047704770477047042000F0BCB85F
:100D1000082000F0B9B810B5802000F0B5F8BDE8A3
:100D20001040402000F0B0B8F0B5204885B081698F
:100D300041F001018161816901F0010104911C49C7
:100D40004A6822F0E06242F000724A60816941F034
:100D500040018161816901F040010491816941F0A4
:100D6000080181618069134E00F0080004900022A0
:100D70003C21304600F08FF90F4F4FF47C75002274
:100D80002946384600F087F901243C20CDE90004CB
:100D900069463046039400F083F8CDE90054694673
:100DA0003846039400F07CF805B0F0BD0010024016
:100DB0000000014000180140000C01400148C068DB
:100DC000704700008402002001480078704700004E
:100DD0008402002010B5044603F050FB18B9022C21
:100DE00003D0032C03D0002010BD024810BD0248E0
:100DF00010BD0000893C0008F53C000810B5044611
:100E000003F03CFB18B9022C03D0032C03D00020C4
:100E100010BD024810BD024810BD0000D53C0008BE
:100E2000293D0008002070470020704710B502F0EF
:100E30006DFB0148006810BD3C03002010B504465E
:100E400002F064FB2046BDE8104018220149FFF77C
:100E50009AB900002C0D0020002070470020704738
:100E600031B500F01DF9044600F01AF90099001B95
:100E70008842F9D338BD082803D0042803D1FFF7EE
:100E80002DBDFFF7E1BC7047044910B50A68024266
:100E900002D00860FFF7EFFF10BD0000140401400E
:100EA0002DE9F84FDFF8BC91002309F1040A0AF19B
:100EB000040B1C464FF00F080BF1040E01270A68C3
:100EC000A7403A40BA4272D1DFF89CC14D68A5EB09
:100ED0000C0665452BD00DDC032D34D005DC35B375
:100EE000012D19D0022D2FD11BE0112D16D0122D5E
:100EF0002AD119E0B6F5881F19D006DCB6F5803F77
:100F000015D0B6F5801F1FD111E0B6F5001F0ED029
:100F1000B6F5041F18D10AE0CB6815E0CB681B1D9D
:100F200012E0CB6808330FE0CB680C330CE08B6821
:100F30002BB1012B4FF0080303D0476104E00423D9
:100F400002E0076100E00023FF2A01D8064601E025
:100F500000F104064FEA840501D9A5F120053768A0
:100F600008FA05FC27EA0C0703FA05F547EA050726
:100F700037604D68ED006ED53C4DAE6946F0010618
:100F8000AE61AD6924F0030605F001050095384D0A
:100F90007719BE68A5072D0F08FA05FC26EA0C068E
:100FA000DFF8D0C0604503D14FF0000C25E052E0DF
:100FB000DFF8C4C0604502D14FF0010C1DE0DFF83E
:100FC000BCC0604502D14FF0020C16E0DFF8B0C0A3
:100FD000604502D14FF0030C0FE0DFF8A8C0604578
:100FE00002D14FF0040C08E0DFF89CC0604502D14C
:100FF0004FF0050C01E04FF0060C0CFA05FC4CEA32
:10100000060CC7F808C04D68D9F80060ED034D46DE
:1010100001D5164300E096432E604D68DAF8006073
:10102000AD03554601D5164300E096432E604D684A
:10103000DBF80060ED025D4601D5164300E0964303
:101040002E604D68DEF80060AD02754601D516438E
:1010500000E096432E60641C102CFFF42FAFBDE817
:10106000F88F000000040140000011100010024041
:101070000000014000080140000C01400010014048
:101080000014014000180140001C01408068084025
:1010900000D0012070470AB1016170470904FBE7E5
:1010A0000148006870470000040000200248016801
:1010B000491C01607047000004000020074810B57B
:1010C000016841F010010160052000F051F80F2087
:1010D00000F006F800F015F8002010BD00200240D6
:1010E00010B5044600F016F94FF47A71B0FBF1F038
:1010F00000F0F2FD00222146501E00F019F80020F9
:1011000010BD704700F01F0201219140400980008E
:1011100000F1E020C0F88011704700F01F020121AB
:1011200091404009800000F1E020C0F800117047B4
:10113000F0B40E4B1B68C3F30223C3F10704042C65
:1011400000D904241D1D072D01D2002300E0DB1E61
:10115000012606FA04F56D1E0D409D409E40761E48
:10116000164045EA0601F0BC01F0C8B80CED00E0FD
:10117000064A00F0070110684FF6FF03184040EAE6
:101180000120034908431060704700000CED00E0A7
:101190000000FA052DE9F047DFF8688104460E46A5
:1011A000D8F8000000F00700B0420CD2D8F80010C8
:1011B00021F007013143C8F80010D8F8000000F012
:1011C0000700B04273D120784F4F800705D578686B
:1011D000A16820F0F000084378602078C00755D05F
:1011E0006068012201280CD0022828D0022393FA3B
:1011F000A3F1B1FA81F141F02001490904D0396825
:1012000003E04FF40033F2E7796A93FAA3F3B3FAF9
:1012100083F303F01F039A40114248D0796821F00C
:10122000030101437960FFF73BFF0546606841F227
:10123000883101280CD00228894615D022E04FF0D1
:101240000073D4E7FFF72CFF411B494501D916E095
:1012500089467868C0F381000128F3D116E0FFF7D2
:101260001FFF411B49450AD87868C0F38100022856
:10127000F5D10BE0FFF714FF411B494502D90320CC
:10128000BDE8F087786810F00C0FF3D1D8F80010A3
:10129000404601F00701B1420BD9016821F0070176
:1012A00031430160006800F00700B04201D0012026
:1012B000E6E72078400705D57868E16820F4E0602B
:1012C000084378602078000706D57868216920F403
:1012D000605040EAC100786000F052F87968F0226E
:1012E00092FAA2F201F0F001B2FA82F2D140074A7A
:1012F000515CC840064908600F20FFF7F1FE00204E
:10130000BEE700000020024000100240586B0008B9
:101310000000002001480068704700000000002025
:1013200008480949006849684FF4E06292FAA2F25D
:1013300001F4E061B2FA82F2D140044A515CC84043
:10134000704700000000002000100240686B000899
:1013500008480949006849684FF4605292FAA2F2BD
:1013600001F46051B2FA82F2D140044A515CC840A3
:10137000704700000000002000100240686B000869
:1013800010B519A085B00FC88DE80F001AA01B4B2F
:101390000068049059681A4801F00C02042A1DD014
:1013A000082A1BD14FF4701494FAA4F401F47012BB
:1013B000B4FA84F4E240C9031DF8022010D559683C
:1013C0004FF4003393FAA3F301F40031B3FA83F33B
:1013D000D94004AB595CB0FBF1F0504305B010BDEF
:1013E00008485043FAE7000002030405060708090D
:1013F0000A0B0C0D0E0F101001020000001002402D
:1014000000127A0000093D002DE9F84F04460078EB
:10141000FE4EC0074FF001057FD070684FF40038D2
:10142000C0F38100012807D07068C0F38100022852
:101430001BD17068C00318D598FAA8F0B0FA80F0F4
:1014400040F02000400901D0306800E0706A98FA4E
:10145000A8F1B1FA81F101F01F0105FA01F108428A
:101460005BD06068002879D057E06068B0F5803FB5
:101470000BD010B1B0F5A02F11D0306820F480301F
:101480003060306820F4802002E0306840F4803022
:101490003060606818B3FFF703FE074609E0306864
:1014A00040F480203060F0E7FFF7FAFDC01B6428AD
:1014B00070D898FAA8F0B0FA80F040F02000400907
:1014C00001D0306800E0706A98FAA8F1B1FA81F1B1
:1014D00001F01F0105FA01F10842E5D01DE0FFF718
:1014E000DFFD074604E0FFF7DBFDC01B6428DFD803
:1014F00098FAA8F0B0FA80F040F02000400901D03E
:10150000306800E0706A98FAA8F1B1FA81F101F050
:101510001F0105FA01F10842E5D12078DFF8F082D9
:1015200080074FF0000A4FF002075AD570684FF05D
:10153000F80B10F00C0F07D07068C0F38100022880
:101540001CD17068C00319D497FAA7F0B0FA80F0E4
:1015500040F02000400902D0306801E08AE0706A63
:1015600097FAA7F1B1FA81F101F01F0105FA01F133
:1015700008422BD0206901287CD127E0206988B35C
:1015800095FAA5F0B0FA80F048F82050FFF788FDF2
:10159000814606E04DE1FFF783FDA0EB090002283C
:1015A00086D897FAA7F0B0FA80F040F02000400902
:1015B00001D0306800E0706A97FAA7F1B1FA81F1C2
:1015C00001F01F0105FA01F10842E4D030689BFAEE
:1015D000ABF220F0F8016069B2FA82F29040014368
:1015E000316025E0FFE795FAA5F1B1FA81F148F8FD
:1015F00021A0FFF755FD814605E0FFF751FDA0EB67
:1016000009000228CCD897FAA7F0B0FA80F040F091
:101610002000400901D0306800E0706A97FAA7F115
:10162000B1FA81F101F01F0105FA01F10842E4D19C
:10163000207800076DD5A069B8B395FAA5F0B0FA87
:1016400080F008EB8000C0F88054FFF729FD814648
:1016500005E0FFF725FDA0EB09000228A0D897FAC6
:10166000A7F0B0FA80F040F06000B5EB501F02D157
:1016700030680CE063E197FAA7F0B0FA80F040F030
:101680006000B7EB501F01D1306A00E0706A97FA32
:10169000A7F1B1FA81F101F01F0105FA01F2104240
:1016A000D7D00120FFF7DCFB33E0FFE795FAA5F187
:1016B000B1FA81F108EB8101C1F880A4FFF7F0FCD9
:1016C000814605E0FFF7ECFCA0EB0900022899D861
:1016D00097FAA7F0B0FA80F040F06000B5EB501F29
:1016E00001D130680BE097FAA7F0B0FA80F040F033
:1016F0006000B7EB501F01D1306A00E0706A97FAC2
:10170000A7F1B1FA81F101F01F0105FA01F21042CF
:10171000D8D12078400763D5F06940F08050F0615F
:10172000F069DFF8F0B000F080500090DBF80010B6
:1017300041F48071CBF80010FFF7B2FC814605E060
:10174000FFF7AEFCA0EB0900642872D8DBF80000BC
:10175000C005F5D5E06801280AD008B1052813D0E6
:10176000306A20F001003062306A20F0040002E0AC
:10177000306A40F001003062E06841F2883B80B39B
:10178000FFF78EFC81460AE0306A40F004003062C8
:10179000EEE7FFF785FCA0EB0901594549D897FA18
:1017A000A7F0B0FA80F040F04000B5EB501F01D137
:1017B00030680BE097FAA7F0B0FA80F040F04000F4
:1017C000B7EB501F01D1306A00E0706A97FAA7F1B9
:1017D000B1FA81F101F01F0205FA02F10842D8D0F6
:1017E00033E0FFE7FFF75CFC814605E0FFF758FCBC
:1017F000A0EB090159451CD897FAA7F0B0FA80F080
:1018000040F04000B5EB501F08D105E00010024049
:10181000000042420070004030680CE097FAA7F0E8
:10182000B0FA80F040F04000B7EB501F02D1306AB0
:1018300001E08AE0706A97FAA7F1B1FA81F101F04C
:101840001F0205FA02F10842D0D1E06998B371682D
:10185000C1F38101022972D002284FF080714FF04C
:10186000007B50460AD091FAA1F1B1FA81F148F813
:101870002100FFF715FC04465F4669E08A4691FAAD
:10188000A1F1B1FA81F1C14648F82100FFF708FC47
:10189000A84607465D4604E0FFF702FCC01B02288D
:1018A00053D895FAA5F0B0FA80F040F02000400936
:1018B00002D0306801E060E0706A95FAA5F1B1FAF3
:1018C00081F101F01F0208FA02F10842E4D1206A16
:1018D000B0F5803F05D17068A16820F4003008435E
:1018E0007060D4E908010843716821F47411084359
:1018F00070609AFAAAF0B0FA80F0474649F8208062
:10190000FFF7CEFB044604E0FFF7CAFB001B0228EA
:101910001BD895FAA5F0B0FA80F040F020004009FD
:1019200001D0306800E0706A95FAA5F1B1FA81F152
:1019300001F01F0107FA01F10842E5D01DE01EE0A9
:10194000FFF7AEFB001B022802D90320BDE8F88F89
:1019500097FAA7F0B0FA80F040F02000400901D0DB
:10196000306800E0706A97FAA7F1B1FA81F101F0EE
:101970001F0105FA01F10842E2D10020E6E701204B
:10198000E4E7000010B5040003D094F8510010B152
:1019900004E0012010BD204600F038F8022084F851
:1019A00051002068016821F040010160D4E9010183
:1019B0000843D4E903121143084361690843218BAA
:1019C00001F400710843E1690843216A0843A16AF0
:1019D000084321680860A069042101EA1040616A97
:1019E0000843216848602168E06A08612068C1698D
:1019F00021F40061C1610449002008706065012084
:101A000084F85100002010BD0800002070472DE927
:101A1000F8430026DDF820800446ADF8006090F819
:101A20005100012803D094F8510022287DD169B1DA
:101A300062B15BB194F85000012876D0012784F898
:101A4000507094F85100012803D005E00120BDE852
:101A5000F883322084F851006665A263A387E38788
:101A60002163A386E386A664E664A06A4FF400556A
:101A7000A84209D12068016821F400510160206862
:101A8000016841F40051016020680168490603D4EF
:101A9000016841F040010160E0684FF48271B0F5E7
:101AA000006F606807D0002867D088426ED1E08E52
:101AB000012862D06AE020B188420CD1E08E012872
:101AC00009D1206B21680088C860206B801C2063CE
:101AD000E08E401EE086E08E80B9A06AA84244D124
:101AE0002068016841F4805101603EE02068C068D0
:101AF000A16B0880A06B801CA0639EE0434600227F
:101B00000221204601F0C5FD002874D1206B216818
:101B10000088C860206B801C2063E08E401E00049B
:101B2000000CE08609D1A06A00E0C7E0A84204D119
:101B30002068016841F48051016043460022012180
:101B4000204601F0A6FD00286FD12068C068A16B77
:101B50000880A06B801CA063E08F401EE087E08EB1
:101B60000028CBD1606800286AD1434600220121B9
:101B7000204601F08EFDF0BBB8E7206B411C2163CD
:101B800021680078C860E08E401EE086E08E98B93B
:101B9000A06AA84204D12068016841F48051016024
:101BA000434600220121204601F073FD18BB206846
:101BB000C068A16B087040E0434600220221204625
:101BC00001F067FDB8B9206B411C216321680078E2
:101BD000C860E08E401E0004000CE08607D1A06AB9
:101BE000A84204D12068016841F4805101600022BC
:101BF0004346012100E018E0204601F04AFDA0B96B
:101C00002068C168A06B421CA2630170E08F401E77
:101C1000E087E08E0028CFD1606888B94346002273
:101C20000121204601F035FD08B103200FE72068AF
:101C3000C168A06B421CA2630170E08F401EE08768
:101C4000A06AA84210D1434600220121204601F09B
:101C500020FD18B1606D40F002000FE02068C06800
:101C6000ADF80000BDF80000434601228021204667
:101C700001F00FFD20B1606D40F010006065D4E709
:101C800084F85170A06AA84214D120688168C943C1
:101C9000C9060FD4616D41F002016165016821F44C
:101CA000005101602068016841F40051016084F82E
:101CB0005060CBE684F850600020C8E60220C6E6FB
:101CC0004FF0E0210428086903D020F004000861E7
:101CD000704740F00400FAE710B5401EB0F1807F75
:101CE00001D3012010BD4FF0E02460610F21601787
:101CF00000F004FB0020A06107202061002010BD3F
:101D000010B5040003D094F8390010B107E00120A9
:101D100010BD002084F83800204600F00CF80220A6
:101D200084F83900211D206801F0E2FE012084F8CA
:101D30003900002010BD70470168CA6842F00102F6
:101D4000CA600068016841F001010160002070472D
:101D500010B50268044631B1042908D0082920D002
:101D60000C2908D121E0D06840F0020002E0D068E0
:101D700040F00400D0600122206801F0FBFE0D4914
:101D80002068884202D00C49884203D1416C41F45A
:101D9000004141642068016841F0010101600020B8
:101DA00010BDD06840F00800E4E7D06840F01000B3
:101DB000E0E70000002C01400034014010B502684B
:101DC000044631B1042908D008292FD00C2908D1A4
:101DD00030E0D06820F0020002E0D06820F004007B
:101DE000D0600022206801F0C5FE144841F21112B3
:101DF00021689310814202D01148814209D1086ABA
:101E0000104206D1086A184203D1486C20F4004001
:101E100048642068016A114206D1016A194203D15F
:101E2000016821F001010160002010BDD06820F0A0
:101E30000800D5E7D06820F01000D1E7002C014061
:101E400000340140704790F83900704738B50446B7
:101E500000680168C268C1F3000102F4807221B118
:101E60001AB1E16B41F00101E1630168C1F3400285
:101E7000416901F0010122B119B1E26B42F00402A3
:101E8000E2630268C2F3800222B119B1E26B42F050
:101E90000202E2630268C2F3C00222B119B1E16B2F
:101EA00041F00801E1630168C068C1F3401100F02E
:101EB000200019B110B1204602F00CF8206801682A
:101EC000C068C1F3C01100F0800019B110B1204604
:101ED00002F00CF921680868CA68C0F3801002F0AB
:101EE0004002012568B162B1CA68204622F0400272
:101EF000CA6094F83910322910D080F8395000F0B7
:101F0000B1F9E06B002808D02068016840680090B3
:101F100084F839502046FFF795FF38BD222180F81C
:101F20003910ECE770B5040004D094F839000025AE
:101F300010B106E0012070BD84F83850204600F052
:101F400021F8022084F839002068C16821F400518A
:101F5000C160204602F012F82068016921F4904126
:101F600001612068416921F02A0141612068C1684E
:101F700041F40051C160E563012084F8390000207C
:101F800070BD000010B500681E4986B0884236D189
:101F90001D48816941F004018161816901F00401FA
:101FA0000491816941F480418161816901F480413A
:101FB0000491816941F0010181618069134C00F055
:101FC000010004904FF40070009002200190012065
:101FD00002900320039069462046FEF761FF211519
:101FE00000910021019169462046FEF759FF252006
:101FF000FFF793F8032211462520FFF799F806B062
:1020000010BD0000003801400010024000080140EF
:102010002DE9F047044690F8390099460D4601280D
:1020200001D0122857D125B31AB394F838000128EB
:1020300051D0012684F838600027E76394F839000E
:10204000122819D0222084F83900A285E2854FF4A5
:102050008058E08D4B46401EE085A0684FF000029E
:1020600040454FF02001204616D102F072F8B0B979
:1020700004E00120BDE8F0873220E4E72069002871
:102080002068406803D0C1B225F8011B12E0C0F3FC
:10209000080125F8021B0DE002F05BF808B10320EF
:1020A000E8E7206900282068406801D000F07F0040
:1020B00005F8010BE08D0028CBD194F839003228C7
:1020C00005D084F8396084F838700020D2E71220F7
:1020D00084F83900F7E70220CCE790F83930012B7B
:1020E00001D0122B2BD131B32AB390F83830012B09
:1020F00025D0012380F8383081628285C285002195
:10210000C16390F83920122A17D0222280F8392092
:1021100080F838100168CA6842F48072CA600168A9
:102120004A6942F001024A610068C16841F0200139
:10213000C16000207047012070473222E6E702208C
:102140007047000030B50068114988420CD1114A2F
:102150005088010408D41146440409784FF0000364
:1021600006D50A2901D0538030BD40F400400DE06F
:102170000D2909D0C0F30D04074D401C80B229552C
:102180005080C728EFD830BD40F48040508030BD2B
:102190000038014010000020740400202DE9F047B1
:1021A000044690F8390099460D46012801D02228AE
:1021B00056D125B31AB394F83800012850D001261F
:1021C00084F838600027E76394F83900222819D092
:1021D000122084F83900A284E2844FF48058E08C05
:1021E0004B46401EE084A0684FF0000240454FF08F
:1021F0008001204613D101F0ACFF08BB04E00120B0
:10220000BDE8F0873220E4E728882168C0F30800A1
:102210004860206908B16D1C08E0AD1C06E001F0C3
:1022200098FF68B9216815F8010B4860E08C002818
:10223000D5D14B4600224021204601F08AFF08B14B
:102240000320DDE794F83900322805D084F839609E
:1022500084F838700020D3E7222084F83900F7E7AB
:102260000220CDE77047FEE77047000010B502F08E
:1022700073F802F097F8FEF757FD012001F0FCF823
:10228000024800680068BDE810400047C002002016
:10229000002070477047000010B500210220FEF7B3
:1022A00099FD044C002120600220FEF7A7FD60602C
:1022B00010BD00000C030020704710B5022401205F
:1022C00002F08EFD204610BD024800210180817081
:1022D00070470000B001002000207047034A01EB66
:1022E000011102EB41012222FDF74DBF170B002027
:1022F00000207047FEE77047704770470907090ED6
:10230000002806DA00F00F0000F1E02080F8141D2C
:10231000704700F1E02080F80014704700207047FB
:10232000704700000548064982684A6082890A8031
:1023300002688A6080884880704700009405002009
:102340009001002010B5FEF708F9BDE810400149E2
:10235000FDF7A3BFA5D4684110B50549FDF79DFF62
:102360004FF07C51FDF741FFFEF70DF980B210BD33
:10237000CCBC8C3D014988607047000018000020EB
:102380000149086170470000180000200149C86039
:10239000704700001800002010B50549FDF77DFFCB
:1023A0004FF07C51FDF721FFFEF7EDF8C0B210BDF4
:1023B00000601F4410B5FEF7D0F8BDE81040014999
:1023C000FDF76BBF679ACD3A08210148FEF75EBE64
:1023D000001401400248012201884068FEF75BBEFC
:1023E000900100200248002201884068FEF753BE99
:1023F0009001002072B6704762B670470421014810
:10240000FEF744BE0014014082B000283CD11F48B2
:10241000816941F480718161816901F48071009169
:10242000816941F080018161816901F08001009141
:10243000816941F040018161816901F040010091B1
:10244000816941F020018161816901F020010091E1
:10245000816941F010018161816901F010010091F1
:10246000816941F004018161816901F004010091F9
:10247000816941F008018161806900F008000090E5
:10248000052002B002F0ACBC02B070470010024060
:102490000248012241888068FEF7FDBD90010020BE
:1024A000704700000248002241888068FEF7F3BDB3
:1024B000900100200D480C49012201602021C161DA
:1024C000426100218160022202610722C0E90A12F2
:1024D000C1604FF400720162826141624FF4827107
:1024E0004160FFF74FBA000000300140A405002012
:1024F0002DE9F84390460D460646FFF773FF00248A
:102500004FF480590CE001232A4631460848CDF8A3
:102510000090FFF77CFA070004D1641C6D1C761C48
:102520004445F0D3FFF756FF3846BDE8F883000076
:10253000A405002010B50446FEF722FFA101B0FB60
:10254000F1F00749401E0A68D062C8600968400877
:102550008863BDE8104004210148FFF7F9BB000083
:10256000FC05002004210148FFF728BCFC050020E1
:1025700010B5054CA068002804D001216170804787
:102580000020607010BD00001800002010B5FFF79B
:102590001BFF08B1002010BD012010BD10B5FFF7D2
:1025A0002DFF08B1002010BD012010BD2DE9F05F06
:1025B0003C4A8A460024917881426FD99178DFF8AD
:1025C000E8B0081A401EC4B20AF0FF01002041F032
:1025D000200590460BF10C090027464688F800704C
:1025E00008B1FFF709FFB04600205E460CE0311845
:1025F0003754CF708F714F7209F8007009EB0001EA
:10260000401CCF708F714F7298F802108842EED341
:102610005046BAF1070F2AD008DCBAF1070F15D2DD
:10262000DFE80AF0142225222225250018281ED0D2
:1026300007DC08281BD00D2819D0BAF1150F05D1D9
:1026400015E01A2813D0BAF11B0F10D0301901274A
:102650008571FFF7CFFE98F8001001200029BBD14B
:10266000C7F103054F460DE035550327F1E7301953
:102670000227C570EDE705EB4500C119304400F0B5
:10268000EDFE6D1C042DF6D33919C8788A79000443
:1026900040EA0224487A0443FFF7AEFE2046BDE834
:1026A000F09F0000180000207C0500202DE9F0417B
:1026B000234C0025A17881423ED9A178214F081AE8
:1026C000401EC5B20020804607F10C0684F8008049
:1026D00008B1FFF791FE002012E0391807F80080DA
:1026E00081F8038081F8068081F8098006F800806F
:1026F0003118401C81F8038081F8068081F8098038
:10270000A1788842E9D3D0207855FFF773FE21786D
:1027100001200029DAD1002404EB44008119384457
:1027200000F09CFE641C032CF6D370198179C078EC
:1027300041EA0025FFF760FE2846BDE8F081000071
:10274000180000207C0500200022702100F0B0BAA3
:102750000022782100F0ACBA0A46602100F0A8BA45
:1027600041F0680100F0A4BA114341F082011A4619
:1027700000F09EBA0022A82100F09ABA0022B821E7
:1027800000F096BA41F0400100F092BA00221146E2
:1027900000F08EBA114341F09201002200F088BA95
:1027A0000022C02100F084BA0022D82100F080BAB3
:1027B00041F0500100F07CBA2DE9F05F8B463849BA
:1027C00016468A78824268D98A78DFF8D8A0101A2B
:1027D000401EC4B20020C6F307280BF0FF0589464F
:1027E000002789F8007008B1FFF706FE0020524666
:1027F00005E017541118401CCF708F714F7299F873
:1028000002108842F5D35846BBF1070F32D008DCDE
:10281000BBF1070F13D2DFE80BF012252D25122D87
:102820002D00152826D005DC082823D0BBF10D0F7C
:1028300005D11FE018281DD0BBF11A0F1AD01019AE
:10284000012785710AEB04004672FFF7D3FD99F862
:10285000001001200029C3D1124EC7F103045546D0
:102860000C3614E0310C10191555C17080F8068033
:102870000327E7E710190227C57080F80680E1E713
:1028800004EB44008119284400F0E8FD641C042C8A
:10289000F6D3BDE8F05FFFF7AFBDBDE8F09F0000E5
:1028A000180000207C0500200022A02100F000BAC2
:1028B0000022B02100F0FCB941F05801002200F0E4
:1028C000F7B9810204D5C043401CC0F31500404253
:1028D000704700000249096901B10847FEE700009E
:1028E0001800002010B5FDF738FE0449FDF77DFC07
:1028F000BDE810400249FDF7D0BC000077BE7F3F25
:102900000024744110B50349FDF7C7FCFDF73BFEF9
:1029100080B210BDBD37863D70B50020104D014618
:1029200005F10C06D0230F4C0BE02A182B54D17064
:102930009171517231543218401CD17091715172A1
:10294000C0B2A2789042F0D3002404EB4400811975
:10295000284400F083FD641CE4B2032CF5D370BD61
:102960007C0500201800002010B5054CE068002808
:1029700004D00121617080470020607010BD00000C
:102980001800002070B50D4606461621FFF70EFE12
:1029900040F3C00429463046641CFFF707FE162D9D
:1029A0003FD2DFE805F03E0B3E0B13101016192C3A
:1029B0002C2C2C23333535263E29291EFFF781FF89
:1029C000FDF7C2FD2AE0FFF7BDFC27E000F0C2FCE6
:1029D00024E000F0D1F821E0C0F30B0000F0E4F8AF
:1029E0001CE0C0F30900FFF77DFF17E000F06EF870
:1029F00014E000F09CF811E000F0B6FC0EE014B119
:102A000000F0B0F80AE000F001FD07E03CB100E0A2
:102A100014B1FFF7CFFC01E000F0CAFC06463046D7
:102A200070BDFDF79AFDF9E7084A0146002093784A
:102A30008B4209D99078401A401E0549C0B208441B
:102A40008179C07841EA002070470000180000201A
:102A500088050020004870470005010010B50321DB
:102A6000FFF7A4FDBDE81040FFF72BBF01488078B9
:102A7000704700001800002010B50121FFF796FDF7
:102A8000BDE81040FFF71DBF064810B50079FFF7FD
:102A9000BBFCFFF70FFDFFF703FDBDE8104005206D
:102AA00002F09EB91800002010B550B10146002078
:102AB00000F048FA0020FFF75DFEBDE81040FFF788
:102AC0002BBF002000F076FBF4E7000010B5FDF707
:102AD00044FDBDE810400149FDF7DFBBD923743D3B
:102AE00010B50549FDF7D9FB4FF07C51FDF77DFB93
:102AF000FDF749FD80B210BDBD37864110B5FFF727
:102B0000D5FD800701D4012010BD002010BD10B5F7
:102B10004FF07E51FDF7BBFB0521FDF7F0FB4FF0B9
:102B20007C51FDF762FBFDF72EFDC0B210BD10B564
:102B3000FDF713FD6FF00401FDF7E1FBBDE8104068
:102B40004FF07E51FDF751BB10B50549FDF7A5FBD0
:102B50004FF07C51FDF749FBFDF715FDC0B210BDEC
:102B60000AD7234010B5FDF7F8FCBDE81040014935
:102B7000FDF793BB0000C83E10B5FDF7EEFCBDE8C5
:102B800010400149FDF789BB0024744110B5054987
:102B9000FDF783FB4FF07C51FDF727FBFDF7F3FCBE
:102BA00080B210BDBD37863D10B5FDF7D6FCBDE83F
:102BB00010400149FDF771BB0024743E10B5054972
:102BC000FDF76BFB4FF07C51FDF70FFBFDF7DBFCD6
:102BD00080B210BDBD378640144B10B59C7884423E
:102BE0001AD99B78124C181A401EC3B201F0FA0091
:102BF000682812D006DC40280FD050280DD060285D
:102C000004D10AE0822808D08A2806D00022E018E1
:102C1000E254C2708271417210BDE154E018110C8F
:102C2000C170110A8171427210BD000018000020AD
:102C30007C050020014880887047000018000020B3
:102C400010B51B21FFF7B2FC80B210BDFFF720BC0E
:102C5000FFF728BC70B50546082927D2DFE801F048
:102C60000406080A0C0E101200240CE001240AE0ED
:102C7000022408E0032406E0042404E0052402E022
:102C8000062400E007242846FFF774FD1621284695
:102C9000FFF78CFC00F0F802224316212846FFF7CC
:102CA0008BFD2846FFF780FD012070BD002070BD20
:102CB0002DE9F05F0E46304914468A78824258D991
:102CC0008A784FF00009101A401EC5B24846CB461C
:102CD0008A46D84657468AF800B008B1FFF78CFB01
:102CE0004246B8460020254F05E03A543918401CAA
:102CF000CA708A714A7298F802108842F5D306F0B9
:102D0000FA0068281CD006DC40281BD0502819D0B7
:102D1000602804D114E0822814D08A2812D07819AF
:102D20007A55C27082714672FFF764FB98F8001002
:102D300001200029CDD1114DC9F103040C3512E059
:102D4000C4F3150478197E55210CC170210A8171D4
:102D500044724FF00309E7E704EB4400411938449B
:102D600000F07CFB641C042CF6D3BDE8F05FFFF799
:102D700043BBBDE8F09F0000180000207C05002048
:102D800070B5074D0024A5F10C0604EB4400411971
:102D9000304400F063FB641CE4B2042CF5D370BD36
:102DA000880500202DE9F0410E4615468046012495
:102DB0001621FFF7FBFB40F3C000594A401C954227
:102DC00004D3012E02D0032E00D000245549162E24
:102DD00022D2DFE806F021290B29213D3D444B7D1D
:102DE0007D7D7D678B8E8E6E217777584E4885422C
:102DF00012DC15F0FF4F11D016210020FFF7D6FB93
:102E000000F00700C0F1070101208840FDF79CFB9E
:102E10002946FDF7E9FB01D2002477E02846FDF7BB
:102E2000B2FBC0F308026CE04FF40017954207D3E1
:102E300085F00040FDF7A7FBB842EDD8404204E022
:102E40002846FDF7A0FBB842E6D2C0F3150258E0D1
:102E500036488542E0DC2846FFF77EFA50E03448E9
:102E60008542D9DC2846FFF791FE49E0314885428A
:102E7000D2DC31464046FFF799FB00F480572846E4
:102E8000FFF79CFE0BE02C488542C5DC31464046EE
:102E9000FFF78CFB00F480672846FFF733FD47EA15
:102EA00000022EE025488542B6DC2846FFF718FED2
:102EB00026E0A5F17E50B0F5701FADD82846FFF78B
:102EC00026FE1DE08D42A7DC284600F059FA17E0E7
:102ED00030B1B5F5000F9FDA2846FFF735FE0FE059
:102EE0008D4299DC284600F07DFA09E0002893D055
:102EF00000E070B1124885428EDC2846FFF74CFA9C
:102F000002461CB131464046FFF756FC2046BDE85C
:102F1000F081B5F1854F9DDC284600F053FAEFE7CC
:102F20000000808000007A440080FF4300C66847AC
:102F300000E873463313744400247446002074443C
:102F4000CDCCCC3E70B50C46054600220121FFF7E2
:102F500033FC002202212846FFF72EFC0022032129
:102F60002846FFF729FC6068FFF7F6F902460521BD
:102F70002846FFF721FCA068FFF7EEF9024606217C
:102F80002846FFF719FCE068FFF700FE024607211C
:102F90002846FFF711FC2069FFF7F8FDA18A40EAF7
:102FA000010208212846FFF707FCA069FFF7AAFCE9
:102FB000A18B40EA010215212846FFF7FDFB206A9C
:102FC00000F0DEF9024613212846FFF7F5FB94F8DE
:102FD000252020781621024394F824000243284635
:102FE000FFF7EAFB94F8262017212846FFF7E4FBB9
:102FF00094F8272094F82A00A18D0243208D0843DD
:10300000024318212846FFF7D7FB94F82E2094F8A6
:103010002F00192102432846FFF7CEFB2078002815
:103020004DD054F8300F00F0DDF902460921284652
:10303000FFF7C2FB606800F0D5F902460A21284676
:10304000FFF7BAFBA06800F0CDF902460B21284635
:10305000FFF7B2FBE06800F0C5F902460C212846F4
:10306000FFF7AAFB227C607C0E2102432846FFF773
:10307000A3FB606900F0A6F902460F212846FFF77E
:103080009BFBA06900F09EF9024610212846FFF73D
:1030900093FB227F607F94F820100243A07F0843B7
:1030A0000243608C0243A08C0243E08C0243208DDB
:1030B00002432846BDE870401A21FFF77DBB206C13
:1030C000FFF70EFD02460D212846FFF775FB206D28
:1030D000FFF71DFD024611212846FFF76DFB606DCD
:1030E00000F04EF9024614212846FFF765FB206BDD
:1030F000FFF72AFD024609212846FFF75DFB606BBA
:10310000FFF722FD02460A212846FFF755FBA06B78
:10311000FFF71AFD02460B212846FFF74DFBE06B37
:10312000FFF712FD02460C212846FFF745FB606CB5
:10313000FFF732F902460E212846FFF73DFBA06C4F
:10314000FFF72AF902460F212846FFF735FBE06C0E
:103150003C34FFF721F9024610212846FFF72CFBEB
:10316000227F607FE17F0243A07F08430243208CDF
:103170000243608C0243A08C0243E08C98E770B558
:103180000D4604460121FFF711FA421B2046BDE817
:1031900070400121FFF710BB0A460321FFF70CBB6B
:1031A000032803D802498870012070470020704727
:1031B000180000202DE9F14F002201210098FFF7AF
:1031C000FBFA002202210098FFF7F6FA0022032101
:1031D0000098FFF7F1FA574E574FDFF86081DFF89C
:1031E0006091DFF860B1584C584D00984FF07E5A0E
:1031F00018B1012801D002287ED13046FFF7ACF883
:10320000024605210098FFF7D7FA3046FFF7A4F8E9
:10321000024606210098FFF7CFFA3846FFF7B6FCC2
:10322000024607210098FFF7C7FA0020FFF7C6FC07
:10323000024608210098FFF7BFFA4046FFF762FBFD
:10324000024615210098FFF7B7FA082213210098CB
:10325000FFF7B2FA042216210098FFF7ADFAEF2229
:1032600017210098FFF7A8FAC32218210098FFF74A
:10327000A3FA402219210098FFF79EFA4846FFF76B
:103280002FFC02460D210098FFF796FA5046FFF7F3
:103290003EFC024611210098FFF78EFA584600F0D6
:1032A0006FF8024614210098FFF786FA2046FFF7D0
:1032B0004BFC024609210098FFF77EFA2046FFF7F3
:1032C00043FC02460A210098FFF776FA2046FFF7F2
:1032D0003BFC02460B210098FFF76EFA2046FFF7F1
:1032E00033FC02460C210098FFF766FA1848FFF7F6
:1032F00053F802460E2100E01AE00098FFF75CFA4E
:103300002846FFF749F802460F210098FFF754FAC4
:103310002846FFF741F8024610210098FFF74CFAC3
:103320000098BDE8F84F42F608621A21FFF744BA48
:10333000BDE8F88F00801144000048440000C843F5
:103340004A0C764200D0044400002041751F803DA5
:103350002D431C3D10B5FDF700F9BDE810400149B3
:10336000FCF79BBF0024743C10B5401CFDF7F5F83A
:10337000BDE810400149FCF790BF00000000FA4191
:1033800010B50749FCF783FF0649FCF786FF4FF0AD
:103390007C51FCF72AFFFDF7F6F8C0B210BD000023
:1033A0000000FA416F12033DFFF7C4B8FFF7DAB827
:1033B00010B5401CFDF7D1F8BDE810404FF0FF31CB
:1033C000FCF79DBF10B54FF07C542146FCF75FFF22
:1033D0000121FCF794FF2146FCF707FFFDF7D3F826
:1033E000C0B210BD10B50749FCF751FF0649FCF704
:1033F00054FF4FF07C51FCF7F8FEFDF7C4F8C0B263
:1034000010BD00000000FA406F12033E10B5401CD2
:10341000FDF7A3F8BDE810400149FCF73EBF0000EE
:103420000000FA4070B5084E00252C4605E0204605
:10343000FFF764FB0543641CE4B2B0788442F6D322
:10344000002DF1D170BD00001800002010B5044619
:103450002046FFF753FB0028FAD110BD10B5054CEC
:10346000A278FFF745F86078002801D0012020708D
:1034700010BD000018000020054928B1012802D124
:1034800001F12800086070470148001DFAE70000BC
:10349000C002002010B501F07BFC144814A109689B
:1034A00040F8011F14A10968416015A109688160F5
:1034B00002F07EFB0C2801DA002010BD0B4A072029
:1034C0001132115C412901D2303900E037391154F1
:1034D000401C0B28F5DB907A517A00EB0110117A31
:1034E000D279090201EB0231084410BDE80A00203C
:1034F0003046303400000000303036350000000027
:10350000303030310000000000207047034810B513
:103510000068406980470249086010BDC002002071
:103520003C03002010B518210348FCF753FE034864
:103530000021016010BD00002C0D00203C03002084
:10354000002070472DE9F041044690460E460025C4
:10355000C8B2FEF7B2FE002838D00B2C03D10021F0
:103560000B20FDF779FA1A4FE0B2FEF7DBFE3A4680
:1035700041460020FDF7E0F941F65837F0B26D1CE6
:10358000FEF79BFE18B1BD4217DB01250BE00025BD
:103590000B2C0ED0072C0CD0032C0CD0042C0AD0F2
:1035A000642001F01DFC0020FDF7B8F90B2C08D0B9
:1035B0000BE01E20F5E70A20F3E7012001F010FCE4
:1035C000DCE701210B20FDF747FA2846BDE8F08132
:1035D00080841E000120704700207047704700B5AE
:1035E00087B031214FF47A70ADF8100021208DF8AA
:1035F00000008DF8051035228DF804200A208DF882
:103600000F00302020228DF80B208DF802108DF84D
:103610000A208DF801008DF809208DF807108DF82B
:1036200003008DF808008DF80600684602F082F964
:103630009DF8000007B000BD10B501F0A9FB0B4CD0
:103640000BA0006844F8010F0BA0006860600CA09C
:103650000068A06002F0ACFA0BA00068606008A0EF
:103660000068A06002F0A4FA002010BDE80A002063
:103670003046303600000000303043430000000088
:1036800030303031000000003031324300000000A3
:1036900070472DE9F0471D4690460F460446FDF75A
:1036A000FFFC06465FEA08004FF000084FF4005A9E
:1036B0004FF0010926D034E0681C23D025B1FDF776
:1036C000EFFC801BA8421DD92068416821F0E00171
:1036D00041602068016821F040010160A06A504506
:1036E00009D12068016821F4005101602068016857
:1036F00041F40051016084F8519084F85080032017
:10370000BDE8F0872068806837EA0000D4D10DE07A
:10371000681C06D0002DD7D0FDF7C2FC801BA84244
:10372000D2D82068806837EA0000F1D00020E7E7AF
:10373000002070470020704770470020704700004D
:103740000A4910B50122C1E90102A0F26310FCF799
:1037500009FF074A074BFCF785FE0022064BFCF7E2
:103760007EFEFCF724FF0549086310BD840200209B
:103770005C8FC2F5285CEF3F0000794068090020AB
:103780000A2190FBF1F201FB120390FBF1F292FB94
:10379000F1F001FB102070B592FBF1F292FBF1F514
:1037A00001FB152592FBF1F292FBF1F601FB1622CB
:1037B00088B04FF47A76ADF8106021268DF800605D
:1037C00031268DF80F1030218DF805608DF804102A
:1037D0008DF802608DF801108DF8031020218DF80E
:1037E0000B1030308DF80A1030328DF807008DF84C
:1037F00009203035303300248DF808508DF806301C
:10380000684602F097F89DF80200232800D00124B2
:1038100008B0204670BD0A2190FBF1F201FB1203B3
:1038200090FBF1F270B592FBF1F001FB102592FBD9
:10383000F1F292FBF1F001FB102692FBF1F090FB0C
:10384000F1F201FB120088B04FF47A72ADF810204B
:1038500021228DF8002031228DF80F108DF80220E2
:1038600030218DF801108DF803108DF805203321DB
:103870008DF8041020218DF80B108DF80A103030CF
:103880008DF80900303530368DF80750303300247C
:103890008DF808608DF80630684602F04BF89DF808
:1038A0000200232800D0012408B0204670BD0A2160
:1038B00090FBF1F201FB120390FBF1F270B592FB69
:1038C000F1F001FB102592FBF1F292FBF1F001FB0C
:1038D000102692FBF1F090FBF1F201FB120088B090
:1038E0004FF47A72ADF8102021228DF80020312299
:1038F0008DF80F108DF8022030218DF801108DF811
:1039000003108DF8052034218DF8041020218DF846
:103910000B108DF80A1030308DF809003035303634
:103920008DF80750303300248DF808608DF806308C
:10393000684601F0FFFF9DF80200232800D0012413
:1039400008B0204670BD70B50D460024FFF7AFFFEC
:1039500018B92846FFF75FFF08B1012070BD204667
:1039600070BD00207047704730B58FB001210091C5
:103970000225090400240795CDE90114CDE90810BA
:103980006846FDF741FD00B1FEE70F20CDE90A05CD
:103990004FF48060CDE90C4002210AA80E94FDF797
:1039A000F9FB002800D0FEE70FB030BD704700B52E
:1039B00087B031214FF47A70ADF8100021208DF8D6
:1039C00000008DF8051036228DF804200A208DF8AD
:1039D0000F00302020228DF80B208DF802108DF87A
:1039E0000A208DF801008DF809208DF807108DF858
:1039F00003008DF808008DF80600684601F09AFF74
:103A00009DF8000007B000BD10B501F0C1F90748EE
:103A100007A1096840F8011F07A10968416008A1D2
:103A20000968816002F0C4F8002010BDE80A002097
:103A300030463036000000003031324400000000D3
:103A40003030303100000000FDF730BB0D48016818
:103A500041F00101016041680B4A11404160016879
:103A60000A4A11400160016821F480210160416827
:103A700021F4FE0141604FF41F0181600449C0033D
:103A800008607047001002400000FFF8FFFFF6FEDC
:103A900008ED00E010B50A4C2068C068C043C007BC
:103AA00009D10848006980472168002048622168E0
:103AB0006420C862E06021686FF00100086110BDF9
:103AC000440D00208003002008490868C268D243E2
:103AD000D20705D142620A6842F20F70D062C86014
:103AE00009686FF00100086170470000B807002006
:103AF000F0B502681A4D1B4E1B4FDFF870C01C4B0F
:103B00004FF0804EA84209D0984207D0704505D0AA
:103B1000B04203D0B84201D0604503D122F0700416
:103B20004A682243A84209D0984207D0704505D080
:103B3000B04203D0B84201D0604503D122F44074B2
:103B4000CA68224302608A68C2620A688262A84226
:103B500001D0984201D10969016301214161F0BDA1
:103B6000002C01400004004000080040000C004010
:103B70000034014010B50123046A8B409C43046269
:103B8000036A8A401343036210BD000038B5114A2E
:103B900004460D46D06940F00400D061D06903228C
:103BA00000F00400009011461E20FDF7C1FA1E200F
:103BB000FDF7B3FA094A00210748C2E9021411616E
:103BC000C2E900051046FEF79BF8BDE838400348FF
:103BD000FEF7B2B80010024000080040440D00207B
:103BE00070B52549064686B0886940F004008861B2
:103BF000886900F004000490C86940F40030C8618E
:103C0000C8691E4C00F4003004900420009002208B
:103C10000190012002900320039069462046FDF7A1
:103C20003FF908200025CDE9000569462046FDF74B
:103C300037F9144C12482060C4E90165E5600C2096
:103C40002561C4E905052046E561FEF76BF92068AA
:103C5000C16821F04001C1602068C16841F02001C5
:103C6000C1602620FDF759FA032211462620FDF7F0
:103C70005FFA06B070BD000000100240000801406D
:103C800000440040A40900202DE9F047DFF83C8003
:103C900000240746D8F800500E46A1460A200C60C2
:103CA00001F09EF8D8F8000085420DD1002D0BD010
:103CB000074802E0015D3955641CAC42FADBD8F8D4
:103CC00000103160C8F80090BDE8F087AC02002019
:103CD000E40900208AB210B5014604230348FEF728
:103CE0005DFA03490020086010BD0000A40900200F
:103CF000AC020020F0B50A4D00221646AB680A60FF
:103D0000AC68A3420BD1002B09D0064C02E0A75CA3
:103D10008754521C9A42FADBA8680860AE60F0BD76
:103D2000A4010020780600208AB210B50146642361
:103D30000348FEF733FA03490020886010BD0000F5
:103D400038060020A40100203420FDF7DBB910B5AF
:103D50003420FDF7E2F90322BDE81040114634207B
:103D6000FDF7E6B90C4808B500680068C043800656
:103D700010D401231A4669460748FEF749F9074956
:103D80000868802806DA044B9DF8002040331A5456
:103D9000401C086008BD0000A80800208002002028
:103DA00070B52249064686B0886940F010008861E7
:103DB000886900F010000490C86940F40020C861D0
:103DC000C8691B4C00F400200490081500900220E4
:103DD00001900320039069462046FDF761F8E01446
:103DE0000025CDE900050120029069462046FDF737
:103DF00057F8114C0F482060C4E90165E5600C20BC
:103E00002561C4E905052046E561FEF78BF82068C9
:103E1000C16821F04001C1602068C16841F0200103
:103E2000C1603420FDF76EF906B070BD001002408D
:103E300000100140004C0040A8080020F0B50C4DD7
:103E400000231E462C6813608C4201DA1460F0BD1A
:103E50002F68BC42FBD1002CF9D0064C02E0E75C95
:103E6000C7545B1C8B42FADB286810602E60F0BDE3
:103E700080020020E80800208AB210B501460A231B
:103E80000348FEF78BF903490020086010BD0000CD
:103E9000A8080020800200200C4808B500680068CF
:103EA000C043800610D401231A4669460748FEF72E
:103EB000AFF807490868802806DA044B9DF800200F
:103EC00040331A54401C086008BD00006C0C0020F0
:103ED0003803002010B590F83910222903D0322978
:103EE00001D0022010BD8168B1F5805F11D0016959
:103EF000002901681FD0496801F07F03816A4A1CCC
:103F000082620B70C18D491E0904090CC18518D04D
:103F10002FE00269816A002A0268526805D0D2B295
:103F20000A80816A491C8162ECE7C2F308020A80B8
:103F3000816A891CF7E74A68816A4B1C83620A70B0
:103F4000E0E70168CA6822F02002CA6090F83910E0
:103F5000322910D00168CA6822F48072CA600168F0
:103F60004A6922F001024A61012180F83910FEF706
:103F7000E9F8002010BD1221F7E700002DE9F0411B
:103F8000044600680169E26821F44051114301616F
:103F9000A16820690143606901432068C26841F259
:103FA0000C639A430A43C26020684169A26921F404
:103FB0004071114341614C49206864263227884290
:103FC0003CD1FDF7C5F900EBC00101EB00106168C1
:103FD0008900B0FBF1F5FDF7BBF900EBC00101EB87
:103FE00000106168B8468900B0FBF1F0B0FBF6F054
:103FF0006FF01801484305EB800107EB0110B0FB9F
:10400000F6F000F0F005FDF7A3F900EBC00101EBBD
:10401000001061688900B0FBF1F0B0FBF6F005EB31
:104020000015FDF795F900EBC00101EB0010616888
:104030008900B0FBF1F7FDF78BF93BE0FDF770F974
:1040400000EBC00101EB001061688900B0FBF1F5E5
:10405000FDF766F900EBC00101EB00106168B8469E
:104060008900B0FBF1F0B0FBF6F06FF018014843A7
:1040700005EB800107EB0110B0FBF6F000F0F00556
:10408000FDF74EF900EBC00101EB001061688900FB
:10409000B0FBF1F0B0FBF6F005EB0015FDF740F9D1
:1040A00000EBC00101EB001061688900B0FBF1F783
:1040B000FDF736F900EBC00101EB001061688900E3
:1040C000B0FBF1F0B0FBF6F06FF01801484307EBDE
:1040D000800108EB0110B0FBF6F0216800F00F0042
:1040E00028448860BDE8F0810038014090F839101C
:1040F000122903D0322901D0022070478168B1F51E
:10410000805F016A0BD04A1C026202680978516024
:10411000C18C491E0904090CC1840ED017E009881E
:104120000268C1F30801516001690029016A02D0E7
:10413000491C0162ECE7891CFBE70168CA6822F0B0
:104140008002CA600068C16841F04001C16000207F
:1041500070472DE9F0471D4690460F460446FCF790
:104160009FFF06465FEA08004FF000094FF0010884
:1041700008D030E0681C05D095B1FCF791FF801B9A
:10418000A8420DD82068006837EA0000F2D127E085
:10419000681C20D025B1FCF783FF801BA8421AD9E8
:1041A0002068C16821F08001C1602068C16821F0E9
:1041B0002001C1602068C16821F48071C16020685D
:1041C000416921F00101416184F8398084F8389017
:1041D0000320BDE8F0872068006837EA0000D7D0E8
:1041E0000020F6E710B50848FDF730FE0648FDF759
:1041F0002AFE0128FAD1012204490348FDF76DFF88
:104200000028F8D110BD00003C050020100000205F
:10421000184808B500680068C04380061FD4012311
:104220001A4669461348FDF7F3FE134A1149106810
:104230004031B0F5827F04DA9DF800300B54401C09
:104240001060012201280BD0022808DD084410F874
:10425000010C0A2801D00D2801D10848027008BDC0
:104260000878232803D0242801D02528F7D1044832
:10427000F4E70000A4090020AC020020A501002002
:10428000A401002038B5324800680068C0438006A9
:1042900030D401231A4669462D48FDF7B9FE2D4C4E
:1042A0002B4AA0684032B0F5827F04DA9DF80010F6
:1042B0001154401CA0600121072807DB1378FF2B55
:1042C00004D15378DB1D834200D1A170012809D0AD
:1042D000022811DD131813F8013C0A2B0BD00D2B0B
:1042E00009D009E01078232803D0242801D02528FC
:1042F00000D1217038BD617004280ADD024412F833
:10430000013C0A2B1BD112F8022C0D2A17D1E170A7
:1043100015E014D10E484030C078402808D05E28FF
:10432000E8D10B48403080785E28E3D1617138BD18
:104330000748403080784028F9D1217138BD0A28DB
:10434000FCD103484030407A3B28F7D1A17138BDF9
:1043500038060020A401002010B54FF4E130FFF72B
:104360003FFCBDE8104000F0EDB80000014900201E
:1043700008607047AC020020014900208860704747
:10438000A40100200149002008607047800200203D
:1043900010B5FFF7F1FFFFF7E9FFBDE81040FFF7A9
:1043A000F1BF00002DE9F0412F4886B0816941F04E
:1043B00004018161816901F004010491816941F086
:1043C00008018161816901F008010491816941F06E
:1043D00010018161816901F010010491816941F44A
:1043E000807181618069214D00F480700490002209
:1043F00080212846FCF74FFE1D4E00220121304649
:10440000FCF749FE1B4F002230213846FCF743FEE3
:10441000DFF8648000224FF400414046FCF73BFE89
:1044200001248020CDE90004694628460394FCF766
:1044300037FD00940194694630460394FCF730FD43
:104440003020CDE90004694638460394FCF728FD86
:104450006002CDE90004694640460394FCF720FD64
:1044600006B0BDE8F08100000010024000080140E5
:10447000000C0140001001400020014070B50246D0
:1044800000250120831E2C4E2C46022A07D0032A29
:104490002AD01D46052000F0A3FC284670BD3278C6
:1044A0008A4224D0254A317071B101290FD00229E6
:1044B00012D0032913D01D4670680028EAD064206A
:1044C00000F08EFC7460E5E7C2F8984101E0C2F8A4
:1044D0009801C2F89441EFE7C2F8984101E0C2F8B0
:1044E0009801C2F89401E7E772788A4201D100206E
:1044F00070BD134A717071B101290FD0022912D019
:10450000032913D01D46B0680028C3D00A2000F04C
:1045100067FCB460BEE7C2F8884101E0C2F88801D8
:10452000C2F88C41EFE7C2F8884101E0C2F8880187
:10453000C2F88C01E7E70000B4020020000021422D
:10454000000024420D4810B5816986B041F0040195
:10455000816180690A4C00F004000490002260210F
:104560002046FCF798FD6021009101210191039103
:1045700069462046FCF794FC06B010BD00100240CE
:1045800000080140FEE7000010B5C21700EB1272F0
:104590001A4C22F00F03C01A20731011C21700EB3F
:1045A000127222F00F03C01AE0721011C21700EB52
:1045B000127222F00F03C01AA0721011C21700EB82
:1045C0001272002122F00F02801A60726218507A73
:1045D0000A2801D2303000E03730491C50720429DB
:1045E000F4DB00F0D5FB06A0006844F8010F06A03C
:1045F0000068606001F0DCFA002010BDE80A0020CD
:1046000030463036000000003030433800000000F3
:1046100010B5C21700EB12721A4C22F00F03C01A29
:1046200020731011C21700EB127222F00F03C01A90
:10463000E0721011C21700EB127222F00F03C01AC1
:10464000A0721011C21700EB1272002122F00F02AB
:10465000801A60726218507A0A2801D2303000E065
:104660003730491C50720429F4DB00F091FB06A09E
:10467000006844F8010F06A00068606001F098FA35
:10468000002010BDE80A002030463036000000004F
:10469000303043410000000010B5C21700EB127229
:1046A0001C4C22F00F03C01A20731011C21700EB2C
:1046B000127222F00F03C01AE0721011C21700EB41
:1046C000127222F00F03C01AA0721011C21700EB71
:1046D0001272002122F00F02801A60726218507A62
:1046E0000A2801D2303000E03730491C50720429CA
:1046F000F4DB00F04DFB08A0006844F8010F08A0AF
:104700000068606008A00068A06001F051FA002015
:1047100010BD0000E80A00203046303600000000DE
:1047200030304339000000003030303000000000ED
:1047300010B504460846FFF76BFF2046FFF7ACFFB5
:10474000002010BD0FB4054B10B503A9044A029810
:1047500000F05AF810BC5DF814FB0000BD4E0008D4
:10476000140000200FB4084B10B504A902AA039846
:1047700000F04AF8044602A9002000F076FA20462C
:1047800010BC5DF814FB00006B4C000800B59BB03A
:104790003C210BA8FBF71EFD00200C9001208DF89A
:1047A0003400FFF7F5FDAA208DF82C00DD208DF8F0
:1047B0002D000D208DF864000A208DF865002C2254
:1047C0000FA96846FBF7DFFC0DF12C0C9CE80F00ED
:1047D00000F050FA8DF86000000A8DF861003C216D
:1047E0000BA8FFF749FB1BB000BD02E008C8121F71
:1047F00008C1002AFAD170477047002001E001C1CA
:10480000121F002AFBD170472DE9FF4F8DB00F46D4
:104810000546002606E025280BD0DDE90F1290475B
:104820006D1C761C28780028F5D111B03046BDE803
:10483000F08F0024A246A1460122EC4900E0044387
:1048400015F8013F203B02FA03F00842F7D128781F
:104850002A2810D06FF02F022878A0F13001092902
:1048600014D80AEB8A0102EB410144F0020400EB88
:10487000010A6D1CF0E701CF5FEA000A03D544F49A
:104880000054CAF1000A44F002046D1C28782E2856
:1048900017D115F8010F44F004042A280ED06FF048
:1048A0002F022878A0F1300109290AD809EB8901E3
:1048B00002EB410100EB01096D1CF2E757F8049B84
:1048C0006D1C28786C280FD006DC4C2817D068287F
:1048D0000DD06A2814D104E0742810D07A280FD1A2
:1048E0000DE044F400140AE044F4801401E044F4C0
:1048F00040146978814202D104F580146D1C6D1C4E
:104900002A786E2A1FD00CDC632A31D004DC002AFE
:104910008BD0582A11D1A3E0642A68D0692A0CD11F
:1049200065E0732A2ED004DC6F2A73D0702A04D17C
:104930009BE0752A6FD0782A6ED01046DDE90F1201
:104940009047761C50E1C4F30250022806D0032899
:1049500009D0042801CF09D0066045E101CFF11745
:10496000C0E9006140E101CF06803DE106703BE116
:1049700017F8040B8DF8000000208DF80100EB46BD
:10498000012003E057F804BB4FF0FF3061074FF000
:10499000000102D40DE008F10101884649450FDA13
:1049A0008045F8DB1BF808100029F4D108E008F175
:1049B000010188468142FADB1BF808100029F6D174
:1049C000DDE90F23AAEB08008146214600F036F905
:1049D000304400EB080604E0DDE90F121BF8010B80
:1049E0009047B8F10108F7D221464846F7E00A217E
:1049F000C4F302534FF0000B0891022B04D001CFF7
:104A0000C117032B09D00AE0FF1D27F00707F7E8BD
:104A1000020108E032E01FE020E000B2C117042BE1
:104A200001D140B2C117031E71F1000307DA4FF044
:104A3000000CD0EB0C006CEB01012D2302E02305F0
:104A400004D52B238DF82430012303E0E30701D0A4
:104A50002023F7E7984658E00A2110E010210EE0E5
:104A600010204FF0000B08900CE010214FF0000BCD
:104A700044F004044FF00809089103E008214FF0C6
:104A8000000B0891C4F30253022B04D001CF002184
:104A9000032B06D006E0FF1D27F00707F7E8020109
:104AA00003E080B2042B00D1C0B24FF0000823070E
:104AB0002BD5702A07D0DDF820C08CF0100C5CEAF2
:104AC0000B0C05D00EE040238DF82430012308E0C4
:104AD00050EA010306D030238DF824308DF82520CC
:104AE00002239846DDF820C08CF0080C5CEA0B0C21
:104AF0000BD150EA010301D1630706D530238DF8AD
:104B000024304FF00108A9F10109582A04D038A235
:104B10000B9208AA0A920BE03AA2F9E75B46089AC0
:104B2000FBF76CFD0B9B9B5C0A9A521E0A9213705A
:104B300050EA0102F2D10A98ADEB000000F1200B1F
:104B4000600702D524F4803401E04FF00109D94513
:104B500002DDA9EB0B0000E0002000EB0B0141445B
:104B60000890AAEB010AE00306D4DDE90F232146F1
:104B7000504600F063F806444FF0000908E009A928
:104B800011F80900DDE90F12904709F10109761CBF
:104B9000C145F4DBE0030CD5DDE90F232146504687
:104BA00000F04CF8064404E0DDE90F123020904795
:104BB000761C0899481E08900029F5DC08E00A9840
:104BC0000A990078491C0A91DDE90F129047761C7A
:104BD000BBF10001ABF1010BF1DC21465046DDE9F0
:104BE0000F2300F019F806446D1C1BE6092801008C
:104BF0003031323334353637383961626364656653
:104C00000000000030313233343536373839414214
:104C100043444546000000002DE9F04104460025CC
:104C20001E461746880404D405E039462020B047C4
:104C30006D1C641EF9D52846BDE8F0812DE9F041D0
:104C4000044600251E469046C80301D5302700E0E3
:104C50002027880404D505E041463846B0476D1C3E
:104C6000641EF9D52846BDE8F0810A68531C0B6024
:104C7000107070470FB4002030B5154CA9B03C211E
:104C8000208019A8FBF7A6FA64216846FBF7A2FA70
:104C90002D981A902C222EA91BA8FBF774FA3C22FF
:104CA00019A96846FBF76FFA3C23002108466A46BB
:104CB000155C401C29449842FAD3C809207001F0C1
:104CC0007F006070208829B030BC5DF814FB0000C4
:104CD000400300202DE9FF4F91B04FF00008DDE9BF
:104CE0001F461D4692464746DDF878B0402168468B
:104CF000CDF84080FBF76EFA36B101210220FCF7B7
:104D000069F88146012105E000210220FCF762F8E4
:104D1000814600210220FCF771F80246DDE911010D
:104D20009047CCB10BEB8B00184E440024B3307885
:104D300030B3052000F054F810A968464A46904761
:104D4000109A3AB169465046921EFBF71CFA109829
:104D5000801E287037700BE04F208DF800004B202C
:104D60008DF80100BDF80010AAF80010022028708C
:104D700015B04046BDE8F08F4FF001082F70E9E70D
:104D80000120641E00F02CF8D0E70000B0020020E3
:104D900010B503210220FCF71DF8094C0321206007
:104DA0000220FCF72BF8074960603A2008703F208A
:104DB0008873487304A00088A1F80F0010BD00009C
:104DC00014030020E80A00200D0A000010B5044674
:104DD0000420FCF775FF0148046010BD0C000020A2
:104DE00070B5054600244FF47A7603E0304600F0B3
:104DF00005F8641CAC42F9D370BD000070B54FF0EB
:104E0000E02500216C69094AAB6912685043AA6920
:104E10009A42FCD002D2A3EB020302E0A4EB02060A
:104E20003344194413468142F1D370BD0C00002075
:104E300010B5154A154B0B2809D2DFE800F008061B
:104E4000090C0F1215181B1E2100C2F8901110BD7D
:104E5000C2F8941110BDC2F8981110BDC2F89C118F
:104E600010BDC2F8A01110BDC2F8A41110BDC3F846
:104E7000881110BDC3F88C1110BDC3F8901110BD7E
:104E8000C3F8941110BD00000080214200002342AD
:104E900030B50D460446C0F30721C0B2FFF7C8FF86
:104EA000210EC4F30740FFF7C3FFC5F30721E8B2A3
:104EB000BDE83040FFF7BCBF7047000004490A68F6
:104EC0005206FCD5024AC1B2121D116070470000A3
:104ED000003801400FB400202DE9F84F14460EAA07
:104EE0001D4692E8C00F009064211048FBF772F94C
:104EF0000B98C0B2082806D040B14FF0FF30BDE893
:104F0000F80F5DF814FB5C22094902E008496422AD
:104F100064310648FBF737F90448011D81E8F000C9
:104F2000C0E90E89C0E90CAB0098E8E71008002042
:104F3000B40100202DE9F041FCF7C0F84FF4E01077
:104F4000FEF712FD4820FFF741FF4FF4E134204601
:104F500000F050FE2046FEF723FFFEF7E3FA00279D
:104F6000FDF784F94FF4FA50FFF73AFFFFF70AFA1A
:104F7000FEF7EDFE0D4E01203568FFF731FF346876
:104F8000002CF8D0A54204D13C2C02D03760FFF7AA
:104F9000FDFBA542EFD13C2CEDD1FEF7D5FE00F094
:104FA0004BFAFEF7D4FE3760E5E7000080020020F0
:104FB00010B5002422281FD2DFE800F01E1E1E1E9E
:104FC0001E111E1E1E1E1E1E1E1E1E141E1E1E1E18
:104FD0001E1E1E1E181A1E201E1E2325282AFEF71E
:104FE000FBFA01E0FEF7ACFA044605E0002100E020
:104FF00001210820FBF730FD204610BDFBF7EFFC38
:10500000F2E7002100E001210920F3E7022100E09E
:1050100001210420EEE70000F0B50646C8A0DFB08D
:1050200000685790C7A0D0E90010CDE91D10C7A0B7
:10503000D0E90010CDE91F10C6A0D0E90010CDE9DD
:105040002110C6A0D0E90010CDE92310C5A0D0E9F9
:105050000010CDE92510C5A0D0E90010CDE927103A
:10506000C4A0D0E90010CDE92910C4A00068589070
:10507000C3A000685990C3A000685A90C2A00068FD
:105080005B90C2A000685C90C1A0D0E90010CDE99F
:105090002B10C1A0D0E90010CDE92D10C0A0D0E99F
:1050A0000010CDE92F10C0A0D0E90010CDE93110DB
:1050B000BFA0D0E90010CDE93310BFA0D0E90010A7
:1050C000CDE93510BEA0D0E90010CDE93710BEA063
:1050D000D0E90010CDE93910BDA0D0E90010CDE92C
:1050E0003B10BDA0D0E90010CDE93D10BCA0D0E937
:1050F0000010CDE93F10BCA00025D0E90010CDE99B
:105100004110BBA000685D90BAA0D0E90010CDE9C5
:105110004310BAA0D0E90010CDE94510B9A0D0E9FC
:105120000010CDE94710B9A0D0E90010CDE9491031
:10513000B8A0D0E90010CDE94B10B8A0D0E900101C
:10514000CDE94D10B748D0E90012CDE94F12D0E9B2
:105150000210CDE95110B4A0D0E90010CDE95310F0
:10516000B3A0D0E90010CDE95510402107A8FBF706
:1051700031F800240494059406948DF80C4018210D
:1051800017A8FBF727F830788DF85C00012719384D
:10519000292822D2DFE800F0151A22272C31363BCD
:1051A00040454A4F5416595D6165696D7175797D49
:1051B0008185898D9195999DA141A546A9ADB14B58
:1051C000550001250424224657A903E001250524A2
:1051D00022461DA904A8FAF7D6FF95E0012505246B
:1051E00022461FA9F6E701250524224621A9F1E759
:1051F00001250524224623A9ECE7012505242246A2
:1052000025A9E7E701250524224627A9E2E701258C
:105210000524224629A9DDE701250424224658A9B0
:10522000D8E701250424224659A9D3E701250424FF
:1052300022465AA9CEE70125042422465BA9C9E7E4
:105240000125042422465CA9C4E7052422462BA993
:10525000C0E7052422462DA9BCE7052422462FA934
:10526000B8E70524224631A9B4E70524224633A92C
:10527000B0E70524224635A9ACE70524224637A924
:10528000A8E70524224639A9A4E7052422463BA91C
:10529000A0E7052422463DA99CE7052422463FA914
:1052A00098E70524224641A994E7042422465DA9F3
:1052B00090E70524224643A98CE70524224645A908
:1052C00088E70524224647A984E70524224649A900
:1052D00080E7052422464BA97CE7052422464DA9F8
:1052E00078E7052422464FA974E70524224651A9F0
:1052F00070E70624224653A902E00624224655A957
:1053000004A8FAF740FF0027FFF742F87068CDE9DC
:10531000000703AB07AA2146029504A8FFF7DAFCB1
:10532000040008D19DF80C2007A9B01CFAF72BFF48
:105330009DF80C007070FFF72BF834705FB0F0BD73
:1053400043500D0A4343410D0A0000004343420D00
:105350000A0000004357410D0A0000004357420D68
:105360000A0000004454310D0A000000474F410D6F
:105370000A000000474F420D0A0000004D440D0A8C
:1053800053420D0A534E0D0A544F0D0A56520D0A40
:105390004343310D0A0000004343320D0A00000070
:1053A0004343330D0A0000004343340D0A0000005C
:1053B0004343350D0A0000004343360D0A00000048
:1053C0004357310D0A0000004357320D0A00000018
:1053D0004357330D0A0000004357340D0A00000004
:1053E0004357350D0A0000004357360D0A000000F0
:1053F00047480D0A474F310D0A000000474F320D54
:105400000A000000474F330D0A000000474F340DDB
:105410000A000000474F350D0A000000474F360DC7
:105420000A000000706B0008534443430D0A00005B
:10543000534443570D0A00002DE9F041AAB000245F
:105440003C210BA82994FAF7C5FE3C211AA8FAF7CB
:10545000C1FE29AA3C210BA8FEF7F0FC29980126E1
:105460003C2879D12C220FA96846FAF78CFE0BADA7
:1054700095E80F00FFF7FEFB9DF864100D29F0D1B1
:105480009DF865100A29ECD19DF86010C2B29142D6
:10549000E7D19DF86110C0F307208142E1D10C985B
:1054A000F74F0DAD5D2857D2DFE800F0562F323FA1
:1054B0002F5648575F6872808B3131319656565659
:1054C000565656565656565656565656565656567C
:1054D00056565656565656565656565656569BAECF
:1054E000B8BCC0C6CBCEF4FC2FF1F0EFEEEDED2F43
:1054F000ECEBEAE9E8E7E6E5E4E3E23131E1E0DFBD
:10550000DEDDDCDBDAD9D8D7D6008DF83440CFE148
:105510009DF83400FF2805D0FCF704FF0020FBF7BE
:10552000FDF9F2E7FEF742FAEFE79DF83400064690
:10553000FCF7F8FE3046FBF7ABF9E6E79DF83400E0
:105540009DF8358007460E9EFCF7ECFE324641463C
:105550003846FBF7F1F9D8E7B2E19DF83400FCF7E3
:10556000E1FE0020FBF718FACFE79DF8340006466D
:10557000FCF7D8FE3046FBF7BDF913E09DF8340088
:105580000E9EFCF7CFFE31460020FBF7F9F9BCE791
:105590009DF834009DF83560FCF7C4FE31460020CC
:1055A000FBF760F90D908DF8384081E19DF83400EB
:1055B0000E9EFCF7B7FE324611460020FBF776F947
:1055C000A3E79DF834009DF83560FCF7ABFE31464B
:1055D0000020FBF7BFF998E79DF83400FFF7E8FCDF
:1055E000E0E79DF8340060F307070120322606E06B
:1055F0000A20FFF7F5FBF8B2FCF75FFE08B1761E54
:10560000F6D268702C7053E1FCF75EFE9D4801886D
:10561000ADF8351080788DF8370076E72846FFF72B
:10562000FBFC45E1284600F085F941E1DDE90D018B
:10563000C0B2FEF798F968E70D98C0B2FBF70CFC12
:1056400089E0FBF7EFFB86E02A466B1D0D98FEF71D
:105650006FF88DF838002BE123E117E106E1FEE059
:10566000F3E0E1E0D6E0D0E0CCE0BCE0B4E0A5E0DF
:10567000A0E08AE082E07EE074E06FE069E062E052
:1056800057E049E035E032E02AE021E016E010E0A2
:1056900008E0FFE79DF8341061F307000E99FEF76C
:1056A00049F821E09DF834009DF83510FFF7C0FB64
:1056B0002BE70D98C0B2FBF7D1FB73E79DF83400E0
:1056C0009DF835109DF836200E9BFDF73BFFB7E0A7
:1056D0009DF834009DF83C100E9AFCF70CFE14E780
:1056E000DDE90D01FEF72FF98DF83400E0E0002030
:1056F000FAE70F20FBF7B2FB0D901020FBF7AEFB93
:105700000E901120FBF7AAFB0F901220FBF7A6FBCF
:1057100010908DF84440CBE05B4900940023096869
:105720000D9A681C4E686946B0478DF85540009840
:10573000DAE79DF8341061F30700DDE90E1200F09E
:105740006DF90E90E1E60DAB93E80700FDF746FF1B
:10575000DBE6FCF7C1FD8DF83500D6E60D98FEF7C7
:105760000FF8D2E6DDE90E129DF834009DF84030C6
:10577000FCF78EFD16E7FBF7C6FAC6E601A8FCF7B4
:10578000B7FD0D909DF8040021E09DF8341061F301
:1057900007000A2902D38DF8386089E0C1B28DF87C
:1057A00038406846FCF79AFD22226946681DFAF7E0
:1057B000EAFC7DE0284600F018F979E039689DF8A8
:1057C0003400496888470D903868006980478DF833
:1057D00038008DF839406BE03A689DF834100E9827
:1057E0009268904791E69DF83400FFF765FB6846A4
:1057F000FBF724FB182269462846FAF7C4FC8DF80B
:105800004C4055E0FBF712FBCCE6DDE90D01FFF75C
:105810003FFB7AE69DF838009DF840109DF8343043
:105820000F9AFCF769FD70E69DF83D609DF8340025
:105830009DF835109DF836200E9B0096FDF7CAFEA8
:105840008DF834008DF8354032E09DF834009DF835
:1058500035109DF83D300E9AFBF77AF855E69DF825
:1058600034009DF83510FBF765F84EE6BDF83400BE
:10587000BDF8361000F090F98DF8374018E00000C0
:1058800094020020B00100202403002020A10091F8
:10589000284623A323A225A1FEF764FF8DF85240DA
:1058A00006E00DAB93E8070000F07CF98DF843406B
:1058B0000C981B902C2229461CA8FAF764FC02E0E5
:1058C0001B948DF87060FEF763FDAA208DF86800C8
:1058D000DD208DF869000D208DF8A0000A208DF8DC
:1058E000A1002C221EA96846FAF74DFC1AAC94E8D8
:1058F0000F00FFF7BFF98DF89C00000A8DF89D009E
:105900003C211AA8FEF7B8FA2AB0BDE8F0810000E1
:105910002D342E342E323230313131302E440000CD
:10592000534800005647312D0000000025732573B1
:105930002573000010B504468CB00020401CC0B296
:105940000628FBD320788DF80000B4F80100ADF8EC
:105950000100E0788DF80300A088ADF80400D4F8C9
:105960000600CDF806006089ADF80A00A089ADF800
:105970000C00A07B8DF80E00E07B8DF80F00238AD1
:10598000ADF8103007AA0AA9684600F06FF8207039
:105990009DF8280060700C2812D00B2814D00D2818
:1059A0000CD19DF81C00A070DDF81D0044F8030F19
:1059B000BDF82100A080BDF82300E0800CB010BD30
:1059C0009DF81C00A070F9E79DF81C00A070DDF8A0
:1059D0001D00C4F80300BDF82100A4F80700002052
:1059E000401CC0B20628FBD3E8E730B58BB00446B4
:1059F000002020716D4628460146681D891DFBF771
:105A000013FA20609DF805201AB1A91DA01DFAF710
:105A1000BAFB9DF8050060710BB030BD70B5034650
:105A2000084611490024DBB20968082B1AD2DFE8C6
:105A300003F00406090B0D101216486800E0886890
:105A400080470FE048690BE0896900E0C969884731
:105A500008E00969FBE7CB681146984702E0086A4D
:105A600080470446204670BDC00200202DE9F04F5B
:105A70000F46064687B01D4614464FF0000A032124
:105A80000220FBF7A7F9814603210220FBF7B6F9B4
:105A900080463046FAF7B2FF032106F10C00FAF710
:105AA00087FF0221301DFAF783FF0221701CFAF7ED
:105AB0007FFF0621B01DFAF77BFF102130464246DA
:105AC0009047324EDFF8C880D34685B1307898B120
:105AD0000A20FFF785F905A904A84A4690470C203B
