:020000040800F2
:10000000C80B002045010008C715000803140008AC
:10001000C5150008F1020008FD1F000800000000DF
:10002000000000000000000000000000851600082D
:100030004503000800000000E9150008CB16000881
:100040005F0100085F0100085F0100085F01000810
:100050005F0100085F0100085F0100085F01000800
:10006000490300084F0300085F0100085F01000812
:100070005F0100085F0100085F0100085F010008E0
:100080005F0100085F0100085F0100085F010008D0
:100090005F0100085F0100085F01000855030008C8
:1000A0005F0100085F0100085F0100085F010008B0
:1000B0005F0100085F010008191700085F010008D0
:1000C0005F0100085F0100085F0100085F01000890
:1000D0005F010008ED1D0008191E0008011F00083F
:1000E000470300085F0100085F0100085F01000886
:1000F0005F0100085F0100085F0100085F01000860
:100100005F0100085F0100084D1700085F0100084B
:10011000F5180008E11900085F0100085F010008F8
:100120005F0100085F0100085F0100085F0100082F
:10013000DFF80CD000F07AF8004800470D260008E0
:10014000C80B00200648804706480047FEE7FEE748
:10015000FEE7FEE7FEE7FEE7FEE7FEE7FEE7FEE777
:10016000D116000831010008202A04DB203A00FAE9
:1001700002F1002070479140C2F1200320FA03F3FE
:10018000194390407047D2B201E000F8012B491E9C
:10019000FBD270470022F6E710B513460A46044624
:1001A0001946FFF7F0FF204610BD2DE9F05F054628
:1001B000002092469B4688460646814640241BE026
:1001C000284641464746224600F020F853465A4604
:1001D000C01A914110D3114618462246FFF7C4FFBA
:1001E0002D1A67EB01084F46224601200021FFF738
:1001F000BBFF17EB00094E41201EA4F10104DFDC18
:10020000484631462A464346BDE8F09F202A04DB93
:10021000203A21FA02F00021704721FA02F3D0407F
:10022000C2F120029140084319467047064C074D21
:1002300006E0E06840F0010394E8070098471034B6
:10024000AC42F6D3FFF778FFF43600081437000805
:1002500070B58C1810F8015B15F0070301D110F888
:10026000013B2A1106D110F8012B03E010F8016BB5
:1002700001F8016B5B1EF9D12B0705D40023521E38
:100280000DD401F8013BFAE710F8013BCB1A921CA0
:1002900003E013F8015B01F8015B521EF9D5A1429E
:1002A000D8D3002070BD00000548406818B1D0F8D0
:1002B000F40000B1004740F63D0000F003B8000034
:1002C000180000200349496819B1D1F8F01001B1B4
:1002D0000847FEE7180000200448406810B1406954
:1002E00000B1004740F60500FFF7ECBF1800002002
:1002F000FEE7000010B52D22024903A001F0AAFE7E
:10030000002010BD193600085B25733A2564235D73
:10031000796F7520686176652063686F6F736520FB
:10032000446566696E6520426F617264204F4B20A0
:10033000696E205B636F6E6669672E685D2E200DA7
:100340000A00000070477047042000F02FB8082012
:1003500000F02CB810B505A001F07CFE802000F064
:1003600025F8BDE81040402000F020B84558544919
:10037000395F355F49525148616E646C65720D0A90
:100380000000000031B500F01DF9044600F01AF934
:100390000099001B8842F9D338BD082803D00428EF
:1003A00003D1FFF799BFFFF77FBF7047044910B52E
:1003B0000A68024202D00860FFF7EFFF10BD00009C
:1003C000140401402DE9F84FDFF8BC91002309F136
:1003D000040A0AF1040B1C464FF00F080BF1040E3F
:1003E00001270A68A7403A40BA4272D1DFF89CC19F
:1003F0004D68A5EB0C0665452BD00DDC032D34D0E4
:1004000005DC35B3012D19D0022D2FD11BE0112DA4
:1004100016D0122D2AD119E0B6F5881F19D006DCA6
:10042000B6F5803F15D0B6F5801F1FD111E0B6F5A7
:10043000001F0ED0B6F5041F18D10AE0CB6815E0F6
:10044000CB681B1D12E0CB6808330FE0CB680C3380
:100450000CE08B682BB1012B4FF0080303D04761F0
:1004600004E0042302E0076100E00023FF2A01D832
:10047000064601E000F104064FEA840501D9A5F122
:100480002005376808FA05FC27EA0C0703FA05F58A
:1004900047EA050737604D68ED006ED53C4DAE6903
:1004A00046F00106AE61AD6924F0030605F00105D2
:1004B0000095384D7719BE68A5072D0F08FA05FC81
:1004C00026EA0C06DFF8D0C0604503D14FF0000CDF
:1004D00025E052E0DFF8C4C0604502D14FF0010CC6
:1004E0001DE0DFF8BCC0604502D14FF0020C16E001
:1004F000DFF8B0C0604502D14FF0030C0FE0DFF829
:10050000A8C0604502D14FF0040C08E0DFF89CC0A1
:10051000604502D14FF0050C01E04FF0060C0CFADB
:1005200005FC4CEA060CC7F808C04D68D9F8006015
:10053000ED034D4601D5164300E096432E604D680D
:10054000DAF80060AD03554601D5164300E0964346
:100550002E604D68DBF80060ED025D4601D5164364
:1005600000E096432E604D68DEF80060AD027546EF
:1005700001D5164300E096432E60641C102CFFF456
:100580002FAFBDE8F88F00000004014000001110FB
:10059000001002400000014000080140000C014032
:1005A000001001400014014000180140001C0140EF
:1005B0008068084000D0012070470AB1016170478F
:1005C0000904FBE7014800687047000004000020B0
:1005D00002480168491C01607047000004000020C7
:1005E000074810B5016841F010010160052000F0D6
:1005F00047F80F2000F006F800F015F8002010BDB5
:100600000020024010B5044600F00CF94FF47A7156
:10061000B0FBF1F000F00CFD00222146501E00F06E
:100620000FF8002010BD704700F01F02012191401B
:100630004009800000F1E020C0F800117047000080
:10064000F0B40E4B1B68C3F30223C3F10704042C60
:1006500000D904241D1D072D01D2002300E0DB1E5C
:10066000012606FA04F56D1E0D409D409E40761E43
:10067000164045EA0601F0BC00F0A6BF0CED00E014
:10068000064A00F0070110684FF6FF03184040EAE1
:100690000120034908431060704700000CED00E0A2
:1006A0000000FA052DE9F047DFF8688104460E46A0
:1006B000D8F8000000F00700B0420CD2D8F80010C3
:1006C00021F007013143C8F80010D8F8000000F00D
:1006D0000700B04273D120784F4F800705D5786866
:1006E000A16820F0F000084378602078C00755D05A
:1006F0006068012201280CD0022828D0022393FA36
:10070000A3F1B1FA81F141F02001490904D039681F
:1007100003E04FF40033F2E7796A93FAA3F3B3FAF4
:1007200083F303F01F039A40114248D0796821F007
:10073000030101437960FFF745FF0546606841F218
:10074000883101280CD00228894615D022E04FF0CC
:100750000073D4E7FFF736FF411B494501D916E086
:1007600089467868C0F381000128F3D116E0FFF7CD
:1007700029FF411B49450AD87868C0F38100022847
:10078000F5D10BE0FFF71EFF411B494502D90320BD
:10079000BDE8F087786810F00C0FF3D1D8F800109E
:1007A000404601F00701B1420BD9016821F0070171
:1007B00031430160006800F00700B04201D0012021
:1007C000E6E72078400705D57868E16820F4E06026
:1007D000084378602078000706D57868216920F4FE
:1007E000605040EAC100786000F052F87968F02269
:1007F00092FAA2F201F0F001B2FA82F2D140074A75
:10080000515CC840064908600F20FFF7FBFE00203E
:10081000BEE70000002002400010024045360008FC
:100820000000002001480068704700000000002020
:1008300008480949006849684FF4E06292FAA2F258
:1008400001F4E061B2FA82F2D140044A515CC8403E
:1008500070470000000000200010024055360008DC
:1008600008480949006849684FF4605292FAA2F2B8
:1008700001F46051B2FA82F2D140044A515CC8409E
:1008800070470000000000200010024055360008AC
:1008900010B519A085B00FC88DE80F001AA01B4B2A
:1008A0000068049059681A4801F00C02042A1DD00F
:1008B000082A1BD14FF4701494FAA4F401F47012B6
:1008C000B4FA84F4E240C9031DF8022010D5596837
:1008D0004FF4003393FAA3F301F40031B3FA83F336
:1008E000D94004AB595CB0FBF1F0504305B010BDEA
:1008F00008485043FAE70000020304050607080908
:100900000A0B0C0D0E0F1010010200000010024027
:1009100000127A0000093D002DE9F84F04460078E6
:10092000FE4EC0074FF001057FD070684FF40038CD
:10093000C0F38100012807D07068C0F3810002284D
:100940001BD17068C00318D598FAA8F0B0FA80F0EF
:1009500040F02000400901D0306800E0706A98FA49
:10096000A8F1B1FA81F101F01F0105FA01F1084285
:100970005BD06068002879D057E06068B0F5803FB0
:100980000BD010B1B0F5A02F11D0306820F480301A
:100990003060306820F4802002E0306840F480301D
:1009A0003060606818B3FFF70DFE074609E0306855
:1009B00040F480203060F0E7FFF704FEC01B64289D
:1009C00070D898FAA8F0B0FA80F040F02000400902
:1009D00001D0306800E0706A98FAA8F1B1FA81F1AC
:1009E00001F01F0105FA01F10842E5D01DE0FFF713
:1009F000E9FD074604E0FFF7E5FDC01B6428DFD8EA
:100A000098FAA8F0B0FA80F040F02000400901D038
:100A1000306800E0706A98FAA8F1B1FA81F101F04B
:100A20001F0105FA01F10842E5D12078DFF8F082D4
:100A300080074FF0000A4FF002075AD570684FF058
:100A4000F80B10F00C0F07D07068C0F3810002287B
:100A50001CD17068C00319D497FAA7F0B0FA80F0DF
:100A600040F02000400902D0306801E08AE0706A5E
:100A700097FAA7F1B1FA81F101F01F0105FA01F12E
:100A800008422BD0206901287CD127E0206988B357
:100A900095FAA5F0B0FA80F048F82050FFF792FDE3
:100AA000814606E04DE1FFF78DFDA0EB090002282D
:100AB00086D897FAA7F0B0FA80F040F020004009FD
:100AC00001D0306800E0706A97FAA7F1B1FA81F1BD
:100AD00001F01F0105FA01F10842E4D030689BFAE9
:100AE000ABF220F0F8016069B2FA82F29040014363
:100AF000316025E0FFE795FAA5F1B1FA81F148F8F8
:100B000021A0FFF75FFD814605E0FFF75BFDA0EB4D
:100B100009000228CCD897FAA7F0B0FA80F040F08C
:100B20002000400901D0306800E0706A97FAA7F110
:100B3000B1FA81F101F01F0105FA01F10842E4D197
:100B4000207800076DD5A069B8B395FAA5F0B0FA82
:100B500080F008EB8000C0F88054FFF733FD814639
:100B600005E0FFF72FFDA0EB09000228A0D897FAB7
:100B7000A7F0B0FA80F040F06000B5EB501F02D152
:100B800030680CE063E197FAA7F0B0FA80F040F02B
:100B90006000B7EB501F01D1306A00E0706A97FA2D
:100BA000A7F1B1FA81F101F01F0105FA01F210423B
:100BB000D7D00120FFF7E6FB33E0FFE795FAA5F178
:100BC000B1FA81F108EB8101C1F880A4FFF7FAFCCA
:100BD000814605E0FFF7F6FCA0EB0900022899D852
:100BE00097FAA7F0B0FA80F040F06000B5EB501F24
:100BF00001D130680BE097FAA7F0B0FA80F040F02E
:100C00006000B7EB501F01D1306A00E0706A97FABC
:100C1000A7F1B1FA81F101F01F0105FA01F21042CA
:100C2000D8D12078400763D5F06940F08050F0615A
:100C3000F069DFF8F0B000F080500090DBF80010B1
:100C400041F48071CBF80010FFF7BCFC814605E051
:100C5000FFF7B8FCA0EB0900642872D8DBF80000AD
:100C6000C005F5D5E06801280AD008B1052813D0E1
:100C7000306A20F001003062306A20F0040002E0A7
:100C8000306A40F001003062E06841F2883B80B396
:100C9000FFF798FC81460AE0306A40F004003062B9
:100CA000EEE7FFF78FFCA0EB0901594549D897FA09
:100CB000A7F0B0FA80F040F04000B5EB501F01D132
:100CC00030680BE097FAA7F0B0FA80F040F04000EF
:100CD000B7EB501F01D1306A00E0706A97FAA7F1B4
:100CE000B1FA81F101F01F0205FA02F10842D8D0F1
:100CF00033E0FFE7FFF766FC814605E0FFF762FCA3
:100D0000A0EB090159451CD897FAA7F0B0FA80F07A
:100D100040F04000B5EB501F08D105E00010024044
:100D2000000042420070004030680CE097FAA7F0E3
:100D3000B0FA80F040F04000B7EB501F02D1306AAB
:100D400001E08AE0706A97FAA7F1B1FA81F101F047
:100D50001F0205FA02F10842D0D1E06998B3716828
:100D6000C1F38101022972D002284FF080714FF047
:100D7000007B50460AD091FAA1F1B1FA81F148F80E
:100D80002100FFF71FFC04465F4669E08A4691FA9E
:100D9000A1F1B1FA81F1C14648F82100FFF712FC38
:100DA000A84607465D4604E0FFF70CFCC01B02287E
:100DB00053D895FAA5F0B0FA80F040F02000400931
:100DC00002D0306801E060E0706A95FAA5F1B1FAEE
:100DD00081F101F01F0208FA02F10842E4D1206A11
:100DE000B0F5803F05D17068A16820F40030084359
:100DF0007060D4E908010843716821F47411084354
:100E000070609AFAAAF0B0FA80F0474649F820805C
:100E1000FFF7D8FB044604E0FFF7D4FB001B0228D1
:100E20001BD895FAA5F0B0FA80F040F020004009F8
:100E300001D0306800E0706A95FAA5F1B1FA81F14D
:100E400001F01F0107FA01F10842E5D01DE01EE0A4
:100E5000FFF7B8FB001B022802D90320BDE8F88F7A
:100E600097FAA7F0B0FA80F040F02000400901D0D6
:100E7000306800E0706A97FAA7F1B1FA81F101F0E9
:100E80001F0105FA01F10842E2D10020E6E7012046
:100E9000E4E7000010B5040003D094F8510010B14D
:100EA00004E0012010BD204600F038F8022084F84C
:100EB00051002068016821F040010160D4E901017E
:100EC0000843D4E903121143084361690843218BA5
:100ED00001F400710843E1690843216A0843A16AEB
:100EE000084321680860A069042101EA1040616A92
:100EF0000843216848602168E06A08612068C16988
:100F000021F40061C161044900200870606501207E
:100F100084F85100002010BD080000202DE9F041A8
:100F2000054600683649374C0226012786B08842BC
:100F300037D1A06940F00400A061A06900F004006E
:100F40000490A06940F00400A061A06900F00400D2
:100F50000490A06940F00400A061A06900F00400C2
:100F60000490A06940F48050A061A069DFF89880E7
:100F700000F4805004902020CDE900060020CDE947
:100F8000020769464046FFF71DFA40200090694677
:100F90004046FFF717FA8020009069464046FFF769
:100FA00011FA1A492868884227D1A06940F0080040
:100FB000A061A06900F008000490E06940F40040DE
:100FC000E061E06900F400400490A06940F0010095
:100FD000A061A06900F0010004900D48416821F073
:100FE000E06141F00071416038208DE8C1000320CC
:100FF000039069460748FFF7E5F906B0BDE8F081C0
:10100000003001400010024000080140003C004058
:1010100000000140000C01404FF0E0210428086965
:1010200003D020F004000861704740F00400FAE7A4
:1010300010B5401EB0F1807F01D3012010BD4FF0EC
:10104000E02460610F21601700F0BEFA0020A0616B
:1010500007202061002010BD10B5040003D094F8D3
:10106000390010B107E0012010BD002084F83800DD
:10107000204600F00CF8022084F83900211D206879
:1010800000F078FB012084F83900002010BD704783
:101090000168CA6842F00102CA600068016841F054
:1010A0000101016000207047704790F839007047D7
:1010B00038B5044600680168C268C1F3000102F453
:1010C000807221B11AB1E16B41F00101E163016865
:1010D000C1F34002416901F0010122B119B1E26B93
:1010E00042F00402E2630268C2F3800222B119B145
:1010F000E26B42F00202E2630268C2F3C00222B174
:1011000019B1E16B41F00801E1630168C068C1F306
:10111000401100F0200019B110B1204600F0DEFCB3
:1011200020680168C068C1F3C01100F0800019B1E7
:1011300010B1204600F0DEFD21680868CA68C0F3DF
:10114000801002F04002012568B162B1CA682046F1
:1011500022F04002CA6094F83910322910D080F889
:10116000395000F04DF9E06B002808D02068016884
:101170004068009084F839502046FFF795FF38BD4D
:10118000222180F83910ECE770B5040004D094F8FF
:101190003900002510B106E0012070BD84F83850F8
:1011A000204600F021F8022084F839002068C16848
:1011B00021F40051C160204600F0E4FC2068016980
:1011C00021F4904101612068416921F02A014161C7
:1011D0002068C16841F40051C160E563012084F8D2
:1011E0003900002070BD000010B500681E4986B0AF
:1011F000884236D11D48816941F0040181618169CD
:1012000001F004010491816941F4804181618169A7
:1012100001F480410491816941F00101816180699B
:10122000134C00F0010004904FF400700090022075
:101230000190012002900320039069462046FFF7A9
:10124000C1F8211500910021019169462046FFF760
:10125000B9F82520FFF7E8F9032211462520FFF70A
:10126000EFF906B010BD0000003801400010024048
:10127000000801402DE9F047044690F839009946EE
:101280000D46012801D0122857D125B31AB394F87E
:101290003800012851D0012684F838600027E76320
:1012A00094F83900122819D0222084F83900A28538
:1012B000E2854FF48058E08D4B46401EE085A068E3
:1012C0004FF0000240454FF02001204616D100F0BB
:1012D00044FDB0B904E00120BDE8F0873220E4E726
:1012E000206900282068406803D0C1B225F8011B9E
:1012F00012E0C0F3080125F8021B0DE000F02DFDFF
:1013000008B10320E8E7206900282068406801D080
:1013100000F07F0005F8010BE08D0028CBD194F898
:101320003900322805D084F8396084F838700020FC
:10133000D2E7122084F83900F7E70220CCE790F8D2
:101340003930012B01D0122B2BD131B32AB390F8B5
:101350003830012B25D0012380F838308162828516
:10136000C2850021C16390F83920122A17D02222A9
:1013700080F8392080F838100168CA6842F4807219
:10138000CA6001684A6942F001024A610068C168A6
:1013900041F02001C16000207047012070473222D7
:1013A000E6E702207047000030B500681149884226
:1013B0000CD1114A5088010408D41146440409781C
:1013C0004FF0000306D50A2901D0538030BD40F408
:1013D00000400DE00D2909D0C0F30D04074D401C5D
:1013E00080B229555080C728EFD830BD40F48040E6
:1013F000508030BD003801401000002078010020EE
:101400007047FEE710B535220E490FA000F022FE0E
:1014100000F0CAFD00F0B8F800F0F2FD00F046F868
:101420004FF4E13000F0FEFA552206490FA000F01B
:1014300011FE3C23BDE810405A22024911A000F0E1
:1014400009BE0000333600085B25733A2564235D2E
:10145000737461727420496E69745F426F61726463
:101460005F436F6E6669672E200D0A005B25733A35
:101470002564235D696E6974207363616E2E200D8F
:101480000A0000005B25733A2564235D5B43616DB0
:10149000656C5D2C70726F746F636F6C2073697A0A
:1014A000653A25640D0A000000F0E4BDF0B530484F
:1014B00085B0816941F480718161816901F4807135
:1014C0000491816941F040018161816901F040012D
:1014D0000491816941F080018161816901F080019D
:1014E0000491816941F010018161816901F010016D
:1014F0000491816941F0080181618069032400F051
:101500000800049007200025022603948DE861005E
:1015100069461848FEF756FF202003948DE86100C5
:1015200069461548FEF74EFF4FF4786003948DE846
:10153000610069461148FEF745FF4FF438400394B7
:101540008DE861000E4F69463846FEF73BFF700399
:1015500003948DE8610069463846FEF733FF8DE855
:101560007000694607480394FEF72CFF05B0F0BDF4
:1015700000100240000C0140001001400018014022
:10158000001C0140002001400C4800B5816985B075
:1015900041F0400181618069694600F0400004909B
:1015A0000C20009000200190012002900320039065
:1015B0000348FEF707FF05B000BD00000010024021
:1015C00000180140FEE770470907090E002806DAF7
:1015D00000F00F0000F1E02080F8141D704700F1CA
:1015E000E02080F8001470477047000010B5182103
:1015F0000348FEF7CFFD03480021016010BD000045
:10160000740700204400002010B5104C0E48022141
:1016100020604FF4827060600020A060C4E9030184
:10162000012161614902A1612021C4E907106062C2
:10163000A0620720E0622046FFF72CFC20680168CA
:1016400041F04001016010BD003C00405C060020FC
:101650000B4A10B511680B6823F040030B6011684A
:101660000B684FF6C77423400B6011680B68034387
:101670000B601068016841F04001016010BD00007E
:101680005C060020704730B58FB001210091022523
:10169000090400240795CDE90114CDE90810684636
:1016A000FFF73AF900B1FEE70F20CDE90A054FF444
:1016B0008060CDE90C4002210AA80E94FEF7F2FFEB
:1016C000002800D0FEE70FB030BDFEF781BF00005C
:1016D0000D48016841F00101016041680B4A114069
:1016E000416001680A4A11400160016821F48021CB
:1016F0000160416821F4FE0141604FF41F018160E7
:101700000449C00308607047001002400000FFF861
:10171000FFFFF6FE08ED00E010B50A4C2068C06837
:10172000C043C00709D108480069804721680020EC
:10173000486221686420C862E06021686FF001009F
:10174000086110BD8C07002084000020084908684B
:10175000C268D243D20705D142620A6842F20F70D2
:10176000D062C86009686FF001000861704700002E
:1017700000040020F0B502681A4D1B4E1B4FDFF825
:1017800070C01C4B4FF0804EA84209D0984207D041
:10179000704505D0B04203D0B84201D0604503D1B6
:1017A00022F070044A682243A84209D0984207D028
:1017B000704505D0B04203D0B84201D0604503D196
:1017C00022F44074CA68224302608A68C2620A68CE
:1017D0008262A84201D0984201D1096901630121C6
:1017E0004161F0BD002C01400004004000080040B1
:1017F000000C00400034014038B5114A04460D4643
:10180000D06940F00400D061D069032200F00400E8
:10181000009011461E20FEF713FF1E20FEF704FF66
:10182000094A00210748C2E902141161C2E9000512
:101830001046FFF711FCBDE838400348FFF728BC0D
:1018400000100240000800408C07002070B52549B8
:10185000064686B0886940F004008861886900F017
:1018600004000490C86940F40030C861C8691E4C87
:1018700000F4003004900420009002200190012028
:1018800002900320039069462046FEF79BFD082046
:101890000025CDE9000569462046FEF793FD144C6E
:1018A00012482060C4E90165E5600C202561C4E9A7
:1018B00005052046E561FFF767FC2068C16821F057
:1018C0004001C1602068C16841F02001C16026204C
:1018D000FEF7AAFE032211462620FEF7B1FE06B04F
:1018E00070BD0000001002400008014000440040AC
:1018F000180500200E4808B500680068C04380063F
:1019000014D41E23012269460948FFF7B3FC094994
:101910004868802806DA064B9DF8002040331A54A8
:10192000401C48603C2801D10120087008BD00001F
:10193000580400202C00002070B52549064686B0CA
:10194000886940F010008861886900F010000490F8
:10195000C86940F40020C861C8691E4C00F400202A
:10196000049008150090022001900320039069461E
:101970002046FEF727FDE0140025CDE900050120F3
:10198000029069462046FEF71DFD144C1248206067
:10199000C4E90165E5600C202561C4E90505204620
:1019A000E561FFF7F1FB2068C16821F04001C160EB
:1019B0002068C16841F02001C1603420FEF734FE88
:1019C000032211463420FEF73BFE06B070BD000036
:1019D0000010024000100140004C0040580400205C
:1019E0000E4808B500680068C043800614D40A2376
:1019F000012269460948FFF73DFC0949086880282B
:101A000006DA064B9DF8002040331A54401C08604B
:101A10003C2801D10120486008BD0000B406002028
:101A20003C00002070B52849064686B0886940F021
:101A300010008861886900F010000490886940F007
:101A400020008861886900F020000490C86940F493
:101A50008010C861C86900F4801004908814009058
:101A6000022001900320039069461848FEF7AAFC63
:101A700004200025CDE900050120029069461448A4
:101A8000FEF7A0FC144C13482060C4E90165E56032
:101A90000C202561C4E905052046E561FFF774FBCC
:101AA0002068C16821F04001C1602068C16841F030
:101AB0002001C1603520FEF7B7FD03221146352015
:101AC000FEF7BEFD06B070BD0010024000100140E0
:101AD0000014014000500040B406002010B590F8FA
:101AE0003910222903D0322901D0022010BD81688B
:101AF000B1F5805F11D00169002901681FD04968E4
:101B000001F07F03816A4A1C82620B70C18D491EFD
:101B10000904090CC18518D02FE00269816A002AE6
:101B20000268526805D0D2B20A80816A491C81627B
:101B3000ECE7C2F308020A80816A891CF7E74A6869
:101B4000816A4B1C83620A70E0E70168CA6822F070
:101B50002002CA6090F83910322910D00168CA6892
:101B600022F48072CA6001684A6922F001024A6167
:101B7000012180F83910FFF717FC002010BD122159
:101B8000F7E700002DE9F041044600680169E268CA
:101B900021F4405111430161A1682069014360694A
:101BA00001432068C26841F20C639A430A43C26051
:101BB00020684169A26921F44071114341614C4997
:101BC00020686426322788423CD1FEF749FE00EBAC
:101BD000C00101EB001061688900B0FBF1F5FEF770
:101BE0003FFE00EBC00101EB00106168B8468900C0
:101BF000B0FBF1F0B0FBF6F06FF01801484305EBD5
:101C0000800107EB0110B0FBF6F000F0F005FEF7E5
:101C100027FE00EBC00101EB001061688900B0FBFA
:101C2000F1F0B0FBF6F005EB0015FEF719FE00EB46
:101C3000C00101EB001061688900B0FBF1F7FEF70D
:101C40000FFE3BE0FEF7F4FD00EBC00101EB0010DE
:101C500061688900B0FBF1F5FEF7EAFD00EBC00119
:101C600001EB00106168B8468900B0FBF1F0B0FBF1
:101C7000F6F06FF01801484305EB800107EB011007
:101C8000B0FBF6F000F0F005FEF7D2FD00EBC0016E
:101C900001EB001061688900B0FBF1F0B0FBF6F0D9
:101CA00005EB0015FEF7C4FD00EBC00101EB0010D1
:101CB00061688900B0FBF1F7FEF7BAFD00EBC001E7
:101CC00001EB001061688900B0FBF1F0B0FBF6F0A9
:101CD0006FF01801484307EB800108EB0110B0FBDF
:101CE000F6F0216800F00F0028448860BDE8F0811C
:101CF0000038014090F83910122903D0322901D060
:101D0000022070478168B1F5805F016A0BD04A1CE0
:101D10000262026809785160C18C491E0904090CED
:101D2000C1840ED017E009880268C1F30801516030
:101D300001690029016A02D0491C0162ECE7891C93
:101D4000FBE70168CA6822F08002CA600068C168C7
:101D500041F04001C160002070472DE9F0471D4669
:101D600090460F460446FEF72DFC06465FEA080043
:101D70004FF000094FF0010808D030E0681C05D092
:101D800095B1FEF71FFC801BA8420DD820680068A3
:101D900037EA0000F2D127E0681C20D025B1FEF719
:101DA00011FC801BA8421AD92068C16821F080016B
:101DB000C1602068C16821F02001C1602068C1684D
:101DC00021F48071C1602068416921F00101416105
:101DD00084F8398084F838900320BDE8F0872068C3
:101DE000006837EA0000D7D00020F6E710B50848B1
:101DF000FFF75EF90648FFF758F90128FAD10122EA
:101E000004490348FFF79BFA0028F8D110BD0000F1
:101E1000400200201000002038B5324800680068F9
:101E2000C04380065CD401231A4669462D48FFF75B
:101E300021FA2D4C2B4B60684033B0F5827F04DAD9
:101E40009DF800101954401C60600121072808DB30
:101E50001A78FF2A05D15A78D21D824201D1234A2D
:101E600011705A784B2A03D11A784F2A00D1217069
:101E7000052807DD1A1812F8012C0A2A01D00D2AAC
:101E800000D1617004280CDD03EB000212F8013C64
:101E90000A2B1CD112F8022C0D2A18D1144A1170E9
:101EA00015E014D10F484030C078402808D05E2893
:101EB00016D10C48403080785E2811D10D480EE0D4
:101EC00008484030807840280AD10B4807E00A28AB
:101ED00006D104484030407A3B2801D107480170C0
:101EE00038BD00001805002034000020200000202C
:101EF00021000020230000202200002024000020D8
:101F000038B5274800680068C043800637D40123ED
:101F10001A4669462248FFF7ADF9224B204A9868D5
:101F20004032B0F5827F04DA9DF800101154401C55
:101F300098600121072807DB1478FF2C04D154781E
:101F4000E41D844200D1197004280ADD024412F80D
:101F5000014C0A2C1BD112F8022C0D2A17D15970F2
:101F600015E014D10E484030C078402808D05E28D3
:101F700005D10B48403080785E2800D1D97038BD3B
:101F80000748403080784028F9D1997038BD0A2838
:101F9000FCD103484030407A3B28F7D1197138BD55
:101FA000800200202000002010B54FF41650FFF7EB
:101FB0004DFCBDE8104000F001B800000D4810B520
:101FC000816986B041F00401816180690A4C00F0AA
:101FD00004000490002212212046FEF7EEFA12219E
:101FE000009101210191039169462046FEF7EAF92B
:101FF00006B010BD0010024000080140FEE70000DE
:1020000030B5124885B0816941F480718161806981
:102010000F4D00F480704FF470540490012221465B
:102020002846FEF7CAFA01210320CDE90210CDE9C6
:10203000004169462846FEF7C5F9FFF7E5FA282072
:10204000FFF706FB05B0002030BD00000010024085
:10205000002001400FB4054B10B503A9044A0298B3
:1020600000F064F810BC5DF814FB0000F5250008D2
:1020700014000020F0B4054602201F4A1F4E204BDA
:102080008102204C112D34D2DFE805F033090C0E0B
:102090001113171A151D2022252F272A2D004FF462
:1020A000004122E0012100E0022130461EE08021B3
:1020B00001E04FF48071184618E04FF40071FAE720
:1020C0004FF48061F7E720210F480FE0012100E085
:1020D000022120460AE00421FBE74FF4805104E08E
:1020E0004FF4005101E04FF480411046F0BCFEF780
:1020F0005FBAF0BC70470000001C014000200140A6
:1021000000180140000C01400010014002E008C826
:10211000121F08C1002AFAD170477047002001E061
:1021200001C1121F002AFBD1704700002DE9FF4FAB
:102130008DB00F460546002606E025280BD0DDE9C8
:102140000F1290476D1C761C28780028F5D111B02D
:102150003046BDE8F08F0024A246A1460122EC499A
:1021600000E0044315F8013F203B02FA03F0084267
:10217000F7D128782A2810D06FF02F022878A0F104
:102180003001092914D80AEB8A0102EB410144F01D
:10219000020400EB010A6D1CF0E701CF5FEA000AC0
:1021A00003D544F40054CAF1000A44F002046D1C43
:1021B00028782E2817D115F8010F44F004042A2896
:1021C0000ED06FF02F022878A0F1300109290AD82B
:1021D00009EB890102EB410100EB01096D1CF2E7FB
:1021E00057F8049B6D1C28786C280FD006DC4C280F
:1021F00017D068280DD06A2814D104E0742810D0B4
:102200007A280FD10DE044F400140AE044F480145D
:1022100001E044F440146978814202D104F580144D
:102220006D1C6D1C2A786E2A1FD00CDC632A31D0FD
:1022300004DC002A8BD0582A11D1A3E0642A68D08C
:10224000692A0CD165E0732A2ED004DC6F2A73D082
:10225000702A04D19BE0752A6FD0782A6ED0104680
:10226000DDE90F129047761C50E1C4F302500228BA
:1022700006D0032809D0042801CF09D0066045E123
:1022800001CFF117C0E9006140E101CF06803DE1D7
:1022900006703BE117F8040B8DF8000000208DF864
:1022A0000100EB46012003E057F804BB4FF0FF307C
:1022B00061074FF0000102D40DE008F101018846EA
:1022C00049450FDA8045F8DB1BF808100029F4D1E6
:1022D00008E008F1010188468142FADB1BF808108A
:1022E0000029F6D1DDE90F23AAEB0800814621463B
:1022F00000F036F9304400EB080604E0DDE90F1287
:102300001BF8010B9047B8F10108F7D22146484667
:10231000F7E00A21C4F302534FF0000B0891022B9F
:1023200004D001CFC117032B09D00AE0FF1D27F00D
:102330000707F7E8020108E032E01FE020E000B202
:10234000C117042B01D140B2C117031E71F1000364
:1023500007DA4FF0000CD0EB0C006CEB01012D23E1
:1023600002E0230504D52B238DF82430012303E05C
:10237000E30701D02023F7E7984658E00A2110E050
:1023800010210EE010204FF0000B08900CE01021FF
:102390004FF0000B44F004044FF00809089103E0EB
:1023A00008214FF0000B0891C4F30253022B04D014
:1023B00001CF0021032B06D006E0FF1D27F0070701
:1023C000F7E8020103E080B2042B00D1C0B24FF065
:1023D000000823072BD5702A07D0DDF820C08CF029
:1023E000100C5CEA0B0C05D00EE040238DF8243075
:1023F000012308E050EA010306D030238DF8243091
:102400008DF8252002239846DDF820C08CF0080CBA
:102410005CEA0B0C0BD150EA010301D1630706D52E
:1024200030238DF824304FF00108A9F10109582A12
:1024300004D038A20B9208AA0A920BE03AA2F9E75C
:102440005B46089AFDF7B1FE0B9B9B5C0A9A521EF5
:102450000A92137050EA0102F2D10A98ADEB000023
:1024600000F1200B600702D524F4803401E04FF026
:102470000109D94502DDA9EB0B0000E0002000EBCB
:102480000B0141440890AAEB010AE00306D4DDE900
:102490000F232146504600F063F806444FF0000930
:1024A00008E009A911F80900DDE90F12904709F1C8
:1024B0000109761CC145F4DBE0030CD5DDE90F23EF
:1024C0002146504600F04CF8064404E0DDE90F12C6
:1024D00030209047761C0899481E08900029F5DCAA
:1024E00008E00A980A990078491C0A91DDE90F1260
:1024F0009047761CBBF10001ABF1010BF1DC2146EA
:102500005046DDE90F2300F019F806446D1C1BE668
:1025100009280100303132333435363738396162B9
:10252000636465660000000030313233343536377D
:102530003839414243444546000000002DE9F0414E
:10254000044600251E461746880404D405E0394693
:102550002020B0476D1C641EF9D52846BDE8F081E7
:102560002DE9F041044600251E469046C80301D5DA
:10257000302700E02027880404D505E0414638468E
:10258000B0476D1C641EF9D52846BDE8F0810000F7
:1025900010B504460420FEF73FFD0148046010BD5D
:1025A0000C00002070B5054600244FF47A7603E055
:1025B000304600F005F8641CAC42F9D370BD000051
:1025C00070B54FF0E02500216C69094AAB691268CB
:1025D0005043AA699A42FCD002D2A3EB020302E064
:1025E000A4EB02063344194413468142F1D370BD73
:1025F0000C00002004490A685206FCD5024AC1B208
:10260000121D116070470000003801407CB5FDF7D5
:10261000E7FF4FF4E010FFF736F84820FFF7B8FF68
:102620004FF4E134204600F063F82046FFF784F9C8
:10263000FEF7DCFF13A117A0CDE9000116A37E224F
:10264000174918A0FFF706FDFDF754FE08B100205A
:102650007CBDFEF7D7FE6420FFF7A4FF0B20FEF73A
:1026600023FF05460A20FEF71FFF04460920FEF758
:102670001BFF034688220A4912A0CDE90045FFF757
:10268000E9FCE8E72D312E312E3230303930382E4A
:1026900044000000534300005647312D0000000065
:1026A000143600085B25733A2564235D53544D5F4F
:1026B00056455253494F4E3A2573257325730D0ADB
:1026C000000000005B25733A2564235D6C69676830
:1026D000745B395D5B31305D5B31315D3A2564207F
:1026E000202564202025640D0A0000000068704742
:1026F0000749064AC1E9002000208860C8600861D7
:102700008861082048610846FEF73EBD0038014058
:102710004002002070B594B0064613AB11AA69467A
:1027200000F0DCF9002824D18DF840001D4C042570
:1027300014E0206805EBC10113AB405812AA08A9A8
:1027400000F0CCF9002814D1694608A800F001FC7B
:1027500088B19DF84000401C8DF84000207D9DF818
:1027600040108842E5D8207D9DF8401088420ED167
:10277000042014B070BD9DF848009DF844108842B4
:1027800001D90220F5E79DF84000A075EBE710A9FC
:10279000304600F057FA0028EBD19DF840006075F4
:1027A0000020E6E7840000202DE9F0417E4E9AB03B
:1027B000B57D307DA8427CD90421306801EBC5018C
:1027C00019AB405818AA10A900F088F910A977A0F1
:1027D000FFF740FC00240DF1180832E0308B012196
:1027E000A140084217D0222172A0FFF733FC2046F7
:1027F00000F090FA811970A02431FFF72BFC222100
:102800006CA0FFF727FC204600F084FA3044243007
:1028100048F824000BE0204600F07CFA3044416A7E
:1028200048F82410F07D00B364A0FFF713FC9DF876
:102830006000401E844202D062A0FFF70BFC641CC3
:10284000E4B29DF860008442C8D35FA0FFF702FCA9
:1028500000F0A6FA707D0B2814D2DFE800F0080D16
:1028600031384048525E6B78890058A0DDE7306807
:1028700050F83500804704E0306850F8351006986D
:102880008847074600F058FA9DF8640001286ED08A
:102890004FA0FFF7DFFB96F8EC0000280DD0D6F82C
:1028A000F0000A21B0FBF1F201FB1202B0FBF1F1E2
:1028B00000E002E047A0FFF7CDFB1AB0BDE8F081D1
:1028C000306850F83520DDE906019047D9E73068D7
:1028D00006AC50F8353094E807009847D1E73068E7
:1028E00006AF50F8354097E80F00A047C9E70A98AF
:1028F0000090306806AF50F8354097E80F00A047C9
:10290000BFE7DDE90A01CDE90001306806AF50F804
:10291000354097E80F00A047B3E70AAB06AF93E84E
:1029200007008DE80700306850F8354097E80F0041
:10293000A047A6E70AAC06AF94E80F008DE80F00A9
:10294000306850F8354097E80F00A04799E70BAC86
:1029500006AF94E80F0001AC84E80F000A980090DD
:10296000306850F8354097E80F00A04789E711E03C
:102970000CAC06AF94E80F0002AC84E80F00DDE970
:102980000A01CDE90001306850F8354097E80F00A2
:10299000A04776E7F07D394618B116A0FFF75AFB3D
:1029A00079E717A0FAE70000840000200D0A2573DC
:1029B00028000000256300002573000030582558CA
:1029C000000000002C00000029000000256C6400BD
:1029D0003B0D0A0046756E6374696F6E2052756E0A
:1029E0002054696D653A25642E2531646D730D0A96
:1029F000000000003D305825583B0D0A0000000043
:102A00003D256C753B0D0A00F0B500252E462F467E
:102A10002C4603782C2B03D0292B04D01BB103E0C8
:102A200014B9012600E00CB317B1222B2AD02AE0FA
:102A3000A3F1300CBCF1090F19D92D2B17D02B2B7A
:102A400015D0A3F1610CBCF1050F10D9A3F1410C15
:102A5000BCF1050F0BD9582B09D0782B07D0222BAE
:102A60000CD0202B1ED02C2B1CD0FF270CE05EB9E5
:102A7000612B00D3203B01F8013B13E026B901276D
:102A80003C460FE0002426B100200870177028464D
:102A9000F0BD3CB15C2B02D16D1CEDB2401C037843
:102AA00001F8013B6D1CEDB2401CB2E730B50025CA
:102AB00015700AE001F8014B1478401C641CE4B264
:102AC00014709C4201D3012030BD0478202C01D029
:102AD000002CEFD10D70002030BD00002DE9FF4F1C
:102AE000002482B089469846A246274601252646FC
:102AF0002246EB46029915E0202810D002F07F0311
:102B0000052B0CD202B9802202F07F03042B01D1E5
:102B10002A280AD1521C0BF80300D2B201E0852A00
:102B200004D0491C08780028E6D16AB102F07F027F
:102B300000200BF8020041A1584600F00AFA38B113
:102B4000012188F8001000224FF00008029B15E0D8
:102B5000002088F80000F6E708F1010000F0FF0807
:102B600013F8010F202801D02A2807D1184600F0B9
:102B70007DF9282802D02A2800D0C24618782828B3
:102B800001D00028E8D10299BAF1000F01D05144D8
:102B9000491C4FF000084346087888B1282804D023
:102BA000292806D0222810D011E083B9641CE4B291
:102BB0000DE063B924B1641E14F0FF0402D00DE0EF
:102BC0004FF00108012F27D02FE04BB100234CB16B
:102BD0002C280CD0202816D0282814D05AB110E068
:102BE0000123F4E7202815D009F8010B12E0012594
:102BF000521CD2B207E0052E03D20BF80600761C59
:102C0000F6B26D1CEDB2012C04D1022D02D10325C8
:102C10007F1CFFB2491CBFE700200BF8060007A18C
:102C2000684600F096F900B9002704980770002064
:102C300089F8000006B04046BDE8F08F766F696401
:102C4000000000002DE9F04300248946304DB5B066
:102C5000214622466B18491CC9B29A760A29F9D333
:102C600002E010F8011F99B101782829F9D1461C1A
:102C70004FF0010833AA69463046FFF7C5FE064407
:102C80009DF8CC0040B1012824D0FF2836D10BE0BC
:102C9000012035B0BDE8F0839DF8000070B334A981
:102CA000684600F0EBF808B10220F2E7204600F099
:102CB00031F8284434994162298B08FA04F08143A1
:102CC0002983042029198876641CE4B20A2C15D9BA
:102CD0000320DEE7684600F051F9471C204600F06B
:102CE00019F841196846243100F03FF9298B08FA98
:102CF00004F00143281929838776E5E730782928ED
:102D000001D00028B6D189F800400020C1E70000BA
:102D100084000020024610B500200146054B05E066
:102D20005C18491CA47EC9B22044C0B29142F7D3BA
:102D300010BD000084000020094800680169C943F3
:102D4000CA070849D1F8F02004D14FF6FF731A449E
:102D5000C1F8F020406A1044C1F8F000704700004C
:102D60008C0700208400002000EBC00101EB001064
:102D70004FF0FF3101EB800010B581B24FF47A7053
:102D8000FEF73AFD01490120C87510BD84000020FE
:102D90000346012000E05843491EC9B2FBD27047E8
:102DA00007486FF00101026811610268090CD162E5
:102DB000C1600068002141620248C0F8F01070470D
:102DC0008C070020840000202DE9F041164E308849
:102DD000010426D51549C0B2154F00250D54B96818
:102DE0001248884704000FD0104800F0D1F801289D
:102DF00001D0040014D0012C09D0022C09D0032CDE
:102E000009D0042C0CD108E0F868804708E009A03C
:102E100004E00BA002E00DA000E00FA0FFF71AF9FC
:102E20003580BDE8F081000012000020780100200C
:102E300084000020BAAFCAFDB4EDCEF3210D0A0024
:102E4000B2CECAFDB4EDCEF3210D0A00B2CECAFD5A
:102E5000CCABB6E0210D0A00CEB4D5D2B5BDC6A527
:102E6000C5E4B5C4BAAFCAFD210D0A0010F8011FB0
:102E7000202901D10028F9D1C8B270472DE9F043CB
:102E80000E4600244FF00A082546014634600A78B1
:102E9000A2F13003092B14D903782D2B01D02B2B51
:102EA00000D174B1A2F14103052B0AD9582A05D0EB
:102EB00012F0FF0F17D00120BDE8F083012C02D0E3
:102EC000F9E7412A01D34FF0100802782D2A04D0E7
:102ED0002B2A04D0641CE4B203E0022500E00125A3
:102EE000401C491CD3E70746B8F1100F01D084B14C
:102EF00012E0032C01D20220DEE73878302802D11C
:102F00007878582801D00320D6E7A41EE4B2BF1C6D
:102F100001E00420D0E70CB1641EE4B23878014629
:102F20003038092801D8814601E0A1F1370921464E
:102F30004046FFF72DFF326809FB0020306017F88C
:102F4000011F0029E7D1022D01D14042306000204D
:102F5000B2E702780B789A4201D00120704712B193
:102F6000401C491CF5E70020704702780A7002787F
:102F7000002A02D0401C491CF7E770470021027864
:102F80001AB1491CC9B2401CF9E708467047000055
:102F9000F0B58DB004461E2308AA6946FFF786FDEA
:102FA0000990002872D19DF82000271800253E4C7A
:102FB0008DF820509DF8200054F820106846FFF747
:102FC000C8FF38B19DF82000401CC0B28DF8200029
:102FD0000728EFD39DF820000426344C072855D24B
:102FE000DFE800F00404395A605F5E0030A0FFF7AC
:102FF00031F830A0FFF72EF83EA0FFF72BF84DA0D8
:10300000FFF728F85BA0FFF725F86AA0FFF722F882
:1030100078A0FFF71FF886A0FFF71CF88BA0FFF73A
:1030200019F893A0FFF716F897A0FFF713F89CA0E4
:10303000FFF710F8A1A0FFF70DF8A7A0FFF70AF817
:10304000B3A0FFF707F8C0A0FFF704F8CBA0FFF785
:1030500001F8D7A01BE016A0FEF7FCFFE4A0FEF7E6
:10306000F9FF8DF820500BE0216806EBC0000958ED
:10307000EFA0FEF7EFFF9DF82000401C8DF8200028
:10308000217D9DF820008142EED856E257E2FEF7FE
:10309000E1FF00200DB0F0BD05A0FEF7DBFFCBE1A6
:1030A0002CE20CE2EBE1000048000020840000204C
:1030B0000D0A00002D2D2D2D2D2D2D2D2D2D2D2DDD
:1030C0002D2D2D2D2D2D2D2D2D2D2D2D55534D41AE
:1030D00052542056332E332D2D2D2D2D2D2D2D2DAB
:1030E0002D2D2D2D2D2D2D2D2D2D2D2D2D2D2D201D
:1030F0000D0A00002020202055534D415254CAC7CC
:10310000D3C9414C49454E54454BBFAAB7A2B5C49B
:10311000D2BBB8F6C1E9C7C9B5C4B4AEBFDAB5F71A
:10312000CAD4BBA5BDBBD7E9BCFE2CCDA8B9FD2038
:103130000D0A0000CBFC2CC4E3BFC9D2D4CDA8B982
:10314000FDB4AEBFDAD6FACAD6B5F7D3C3B3CCD086
:10315000F2C0EFC3E6B5C4C8CEBACEBAAFCAFD2C32
:10316000B2A2D6B4D0D02ED2F2B4CB2CC4E3BFC915
:103170000D0A0000D2D4CBE6D2E2B8FCB8C4BAAF94
:10318000CAFDB5C4CAE4C8EBB2CECAFD28D6A7B3FF
:10319000D6CAFDD7D62831302F3136BDF8D6C62C49
:1031A000D6A7B3D6B8BACAFD29A1A2D7D6B7FBB461
:1031B000AE0D0A00A1A2BAAFCAFDC8EBBFDAB5D8FE
:1031C000D6B7B5C8D7F7CEAAB2CECAFD292CB5A5B9
:1031D000B8F6BAAFCAFDD7EEB6E0D6A7B3D631304F
:1031E000B8F6CAE4C8EBB2CECAFD2CB2A2D6A7B3D9
:1031F000D60D0A00BAAFCAFDB7B5BBD8D6B5CFD485
:10320000CABE2ED6A7B3D6B2CECAFDCFD4CABEBDD3
:10321000F8D6C6C9E8D6C3B9A6C4DC2CD6A7B3D69F
:10322000BDF8D6C6D7AABBBBB9A6C4DC2E0D0A0012
:10323000BCBCCAF5D6A7B3D63A7777772E6F706540
:103240006E6564762E636F6D0D0A000055534D4117
:103250005254D3D037B8F6CFB5CDB3C3FCC1EE28A6
:10326000B1D8D0EBD0A1D0B4293A0D0A00000000AB
:103270003F3A202020202020BBF1C8A1B0EFD6FA91
:10328000D0C5CFA20D0A000068656C703A202020DE
:10329000BBF1C8A1B0EFD6FAD0C5CFA20D0A00008D
:1032A0006C6973743A202020BFC9D3C3B5C4BAAFC8
:1032B000CAFDC1D0B1ED0D0A0A00000069643A20D0
:1032C00020202020BFC9D3C3BAAFCAFDB5C449442A
:1032D000C1D0B1ED0D0A0A006865783A202020209F
:1032E000B2CECAFD3136BDF8D6C6CFD4CABE2CBACE
:1032F000F3B8FABFD5B8F12BCAFDD7D6BCB4D6B453
:10330000D0D0BDF8D6C6D7AABBBB0D0A0A000000B4
:103310006465633A20202020B2CECAFD3130BDF86A
:10332000D6C6CFD4CABE2CBAF3B8FABFD5B8F12BE3
:10333000CAFDD7D6BCB4D6B4D0D0BDF8D6C6D7AAAD
:10334000BBBB0D0A0A00000072756E74696D653AA8
:10335000312CBFAAC6F4BAAFCAFDD4CBD0D0BCC6FC
:10336000CAB13B302CB9D8B1D5BAAFCAFDD4CBD095
:10337000D0BCC6CAB13B0D0A0A000000C7EBB0B40E
:10338000D5D5B3CCD0F2B1E0D0B4B8F1CABDCAE45F
:10339000C8EBBAAFCAFDC3FBBCB0B2CECAFDB2A285
:1033A000D2D4BBD8B3B5BCFCBDE1CAF82E0D0A001F
:1033B0002D2D2D2D2D2D2D2D2D2D2D2D2D2D2D2D3D
:1033C0002D2D2D2D2D2D2D2D2D2D414C49454E547E
:1033D000454B2D2D2D2D2D2D2D2D2D2D2D2D2D2DE7
:1033E0002D2D2D2D2D2D2D2D2D2D2D200D0A0000B7
:1033F0002D2D2D2D2D2D2D2D2D2D2D2D2D2D2D2DFD
:103400002D2D2D2D2D2D2D2D2DBAAFCAFDC7E5B596
:10341000A52D2D2D2D2D2D2D2D2D2D2D2D2D2D2D64
:103420002D2D2D2D2D2D2D2D2D2D2D2D200D0A0049
:1034300025730D0A0000000042A0FEF70BFE8DF878
:10344000205016E0216806EBC0000BAB08580AAA12
:103450006946FFF743FB9DF82010206850F83120A3
:10346000694648A0FEF7F6FD9DF82000401C8DF847
:103470002000217D9DF820008142E3D85DE0AFF27D
:10348000D030FEF7E7FD08AA69463846FFF7BCFAD8
:103490009DF82000002843D109A96846FFF7EEFCFB
:1034A0008DF8200010B104283AD102E03AA0099921
:1034B0001CE03CA0FEF7CEFD0120E0753DE038A009
:1034C000FEF7C8FD08AA69463846FFF79DFA9DF841
:1034D000200028BB09A96846FFF7D0FC8DF8200022
:1034E00010B104281CD104E033A00999FEF7B2FD05
:1034F00023E034A0FEF7AEFDE5751EE028A0FEF740
:10350000A9FD08AA69463846FFF77EFA9DF8200013
:1035100030B909A96846FFF7B1FC8DF8200008B161
:103520000220B7E5099810F0FF0084F8EC0001D004
:1035300029A000E02FA0FEF78DFD19A0A7E501202E
:10354000A8E500002D2D2D2D2D2D2D2D2D2D2D2DD2
:103550002D2D2D2D2D2D2D2D2D2D2D2D2DBAAFCAEF
:10356000FD204944202D2D2D2D2D2D2D2D2D2D2DA2
:103570002D2D2D2D2D2D2D2D2D2D2D2D2D2D2D2D7B
:10358000200D0A0025732069642069733A0D0A3002
:1035900058253038580D0A004845583A30582558B3
:1035A0000D0A00003136BDF8D6C6B2CECAFDCFD462
:1035B000CABE210D0A0000004445433A256C750D32
:1035C0000A0000003130BDF8D6C6B2CECAFDCFD455
:1035D000CABE210D0A00000052756E2054696D6547
:1035E0002043616C63756C6174696F6E204F4E0D82
:1035F0000A00000052756E2054696D652043616CAD
:1036000063756C6174696F6E204F46460D0A000049
:10361000016070476D61696E00436865636B5F426E
:103620006F6172645F446566696E655F436F6E6665
:10363000696700496E69745F426F6172645F436FCE
:103640006E666967000000000000000000010203D0
:10365000040607080900000000010203040000003E
:103660003F000000646563006964000072756E7459
:10367000696D650068656C70000000006C697374AA
:103680000000000068657800766F696420777269D1
:1036900074655F616464722875333220616464729A
:1036A0002C7533322076616C29000000753332208E
:1036B000726561645F61646472287533322061648D
:1036C00064722900766F69642064656C61795F6D4E
:1036D0007328753136206E6D73290000766F69642A
:1036E0002064656C61795F757328753332206E755F
:1036F0007329000014370008000000207801000042
:10370000500200086037000878010020500A0000CD
:103710001C210008110444A24A041360361B0874DB
:10372000041A7C041A68041A84041A64041A6C04C7
:1037300013ED261B08AC081A11041A880413A525DA
:103740001B08C4081AC1082ADC28211420692D147A
:103750000815271B08A9041AC90C199502DC0100D9
:0400000508000131BD
:00000001FF
