:020000040800F2
:10000000D80F002045010008FB2B0008C729000875
:10001000F52B0008D50B0008454C00080000000037
:100020000000000000000000000000008140000807
:100030004D12000800000000352D00083D41000869
:100040005F0100085F0100085F0100085F01000810
:100050005F0100085F0100085F0100085F01000800
:1000600053120008591200085F0100085F010008E0
:100070005F0100085F0100085F0100085F010008E0
:100080005F0100085F0100085F0100085F010008D0
:100090005F0100085F0100085F01000861120008AD
:1000A0005F0100085F0100085F0100085F010008B0
:1000B0005F0100085F010008D14100085F010008EE
:1000C0005F0100085F0100085F0100085F01000890
:1000D0005F010008294A0008554A0008914A0008B3
:1000E000511200085F0100085F0100085F0100086D
:1000F0005F0100085F0100085F0100085F01000860
:100100005F0100085F010008054200085F01000868
:100110008D450008D54600085F0100085F01000812
:100120005F0100085F0100085F0100085F0100082F
:10013000DFF80CD000F048FC00480047FD620008E2
:10014000D80F00200648804706480047FEE7FEE734
:10015000FEE7FEE7FEE7FEE7FEE7FEE7FEE7FEE777
:100160004141000831010008202A04DB203A00FA4E
:1001700002F1002070479140C2F1200320FA03F3FE
:1001800019439040704710B5431A934209D283181F
:10019000881803E010F8011D03F8011D521EF9D262
:1001A00010BD40EA01039B0703D009E008C9121FF4
:1001B00008C0042AFAD203E011F8013B00F8013B21
:1001C000521EF9D210BDD2B201E000F8012B491E37
:1001D000FBD270470022F6E710B513460A460446E4
:1001E0001946FFF7F0FF204610BDF0B480EA010287
:1001F000D40F4200B2EB410F02D20246084611462C
:100200004A0042D0C30DDDB2C1F3C752AD1A202D52
:1002100035DAC1F3160141F4000204B15242C5F1CE
:10022000200602FA06F12A411044B3EBD05F23D036
:10023000C4B1012DA0EBC35009DCF0BC4FF000426B
:1002400002EAC352DBB200F5000000F093BA4000AE
:1002500000F1807000EBC350A0F1807040EAD170D3
:10026000490009E0490841EAC071A0EBC35000F51C
:100270000000400800EBC350F0BC00F072BA6142CD
:10028000012202EB4101001BF6E7F0BC704781F050
:100290000041AAE780F00040A7E780EA010210B51C
:1002A00002F00043400022D04A001FD0010E01EBB3
:1002B0001261C0F35600C2F3560240F4000042F44B
:1002C0000002A0FB022000047F39140400D0401C6F
:1002D00050EA124001D44000491EC2B20C0604EBA1
:1002E000D010401C4008802A02D003E0002010BD3E
:1002F00020F00100002900DA0020184310BD420060
:1003000005D0C0F3C7525242914201DC0020704731
:1003100000EBC15070472DE9FE4F804681EA030093
:10032000C00F0C46009021F0004123F00045B8EBCF
:100330000200A94105D24046214690461C460B4684
:10034000024623F00040104347D0270DC7F30A00B0
:10035000C3F30A510290401A019040286BDAC3F3AC
:10036000130040F4801B0098924620B10023D2EB8A
:10037000030A63EB0B0B01985946C0F1400250464B
:10038000FFF7F2FE06460D4650465946019A00F028
:10039000D6F910EB08006141002487EA115284EA83
:1003A000E7731A4340D0009A62B3019A012A4FEAD8
:1003B000075215DC001B61EB02014FF0004202EA1C
:1003C0000752CDE90042001C41F5801132462B4610
:1003D00000F00DFA03B0BDE8F08F40462146F9E782
:1003E000001B61EB0201001C41F5801300185B410A
:1003F0002018A2F5001747EB030140EAD570B619A3
:100400006D4111E06D084FEA360645EAC0754FEAC6
:100410000752001B61EB0201001C41F580114908E5
:100420004FEA30000019514132462B4603B0BDE877
:10043000F04F00F0CDB90098012240000023D0EB2E
:10044000020263EBE073009821464FEAE074B8EBD8
:10045000000061EB0401E9E783F000435BE781F012
:10046000004158E72DE9FE4F81EA030404F00044FF
:1004700021F0004100944FF0000B23F0004350EABC
:1004800001045ED052EA03045BD0C3F30A54C1F303
:100490000A552C44A4F2F3340194A0FB0254C1F396
:1004A000130141F48011C3F3130343F4801301FBE0
:1004B000024400FB034E840A970A44EA815447EA47
:1004C0008357A4FB076802958D0A05FB07854FEA51
:1004D000932C04FB0C542705029D4FEA065847EA6B
:1004E0001637B5EB08056EEB070C870E920E47EA40
:1004F000811742EA8312A7FB0201B6EB0B0164EB02
:1005000000042B0D43EA0C335E1844EB1C50DA4612
:100510005146E7FB0201C5F313044FEA0B3343EAEC
:1005200014534FEA0432019C43EA0603A4F10C047D
:100530000294009CCDE900B400F059F903B0BDE885
:10054000F08F00200146F9E7C10F80EAE07008440F
:10055000CA079623002100F00DB996230022114608
:1005600000F008B90EB5C10F80EAE0700844CA0770
:10057000002140F233438DE80E000A460B4600F09E
:1005800036F903B000BD00F0004220F00040C10D7C
:10059000C0F3160040F400007F2901DA0020704704
:1005A000962903DCC1F19601C84001E096398840E4
:1005B000002AF4D04042704720F00040C10DC0F343
:1005C000160040F400007F2901DA002070479629C8
:1005D00003DCC1F19601C8407047963988407047E6
:1005E00070B5C1F30A5201F000450024C1F31301B4
:1005F00040F2FF3341F480119A4201DA002070BDCD
:1006000040F233439A42A2F2334203DC524200F0FA
:1006100086F800E090402C43F1D0404270BD00F0DD
:10062000004230F000400AD0C10D01F56071C0F306
:10063000160042EA0151C2084007114370470020EA
:100640000146704701F0004330B421F0004150EA08
:10065000010206D00A0DA2F56072C1F31301002A4F
:1006600002DC30BC00207047440F44EAC104C100E2
:10067000E01830BC00EBC25000F073B8002801DB7A
:10068000C0F10040002901DBC1F100418842704700
:1006900030B50B46014600202022012409E021FA52
:1006A00002F59D4205D303FA02F5491B04FA02F54F
:1006B0002844151EA2F10102F1DC30BD2DE9F05FE6
:1006C0000546002092469B468846064681464024C1
:1006D0001BE0284641464746224600F020F8534694
:1006E0005A46C01A914110D3114618462246FFF7C8
:1006F0003BFD2D1A67EB01084F46224601200021E1
:10070000FFF732FD17EB00094E41201EA4F1010452
:10071000DFDC484631462A464346BDE8F09F202AA2
:1007200004DB203A21FA02F00021704721FA02F39B
:10073000D040C2F120029140084319467047202A58
:1007400006DBCB17203A41FA02F043EAE07306E0F9
:1007500041FA02F3D040C2F1200291400843194609
:1007600070470029A8BF7047401C490008BF20F00F
:100770000100704710B4B0FA80FC00FA0CF050EAA7
:10078000010404BF10BC704749B1CCF1200421FA28
:1007900004F411FA0CF118BF012121430843A3EB23
:1007A0000C01CB1D4FEA00614FEA102042BF002030
:1007B00010BC704700EBC35010440029A4BF10BC0C
:1007C0007047401C490008BF20F0010010BC704772
:1007D00010B5141E73F1000408DA401C41F1000149
:1007E00092185B411A4301D120F0010010BD2DE9A0
:1007F000F04D92469B4611B1B1FA81F202E0B0FA97
:1008000080F220329046FFF7AFFC04460F4640EAE4
:100810000A0041EA0B0153465A46084313D01146D9
:1008200053EA010019D0C8F140025046FFF777FFA4
:1008300005460E46504659464246FFF795FC08438A
:1008400005D0012004E020463946BDE8F08D0020A7
:10085000054346EAE0762C4337430A986305E40AE9
:10086000A0EB08000022FD0A44EA47540A3002D5F2
:1008700000200146E9E7010510196941DDE9084555
:1008800000196941BDE8F04DA2E72DE9F04D81EA7C
:10089000030404F0004B21F0004514464FF0000A19
:1008A00023F0004150EA050220D054EA01021DD095
:1008B000C5F30A570246C5F31303C1F31300C1F38E
:1008C0000A5640F4801543F48013A7EB0608101B6A
:1008D000D64608F2FD3873EB050002D308F1010893
:1008E00001E092185B41B8F1000F03DA00200146E5
:1008F000BDE8F08D00204FF48011064684460EE0DE
:10090000171B73EB050705D3121B63EB05030643A7
:100910004CEA010C49084FEA300092185B4150EA5A
:100920000107EDD152EA030012D082EA040083EA03
:100930000501084305D0101BAB4106D2012200235C
:1009400006E000224FF0004302E06FF00102531076
:100950001AEB06004CEB085110EB0A0041EB0B01BF
:10096000BDE8F04DFFF734BFC1F30A52C1F31301E4
:1009700040F2FF3341F480119A4202DA002001462E
:10098000704740F233439A42A2F2334202DC5242B1
:10099000FFF7C5BEFFF7E8BB30B5041E71F10004D8
:1009A00004DB4FF00044404264EB0101141E73F17C
:1009B000000405DB1C464FF00043524263EB040386
:1009C000994208BF904230BD064C074D06E0E068F2
:1009D00040F0010394E8070098471034AC42F6D386
:1009E000FFF7AAFB348500085485000870B58C1801
:1009F00010F8015B15F0070301D110F8013B2A1133
:100A000006D110F8012B03E010F8016B01F8016B1F
:100A10005B1EF9D12B0705D40023521E0DD401F81B
:100A2000013BFAE710F8013BCB1A921C03E013F8E4
:100A3000015B01F8015B521EF9D5A142D8D3002019
:100A400070BD00000548406818B1D0F8F40000B14E
:100A5000004740F63D0000F035B800009C01002042
:100A60000346094810B54268002432B1D2F8842008
:100A70001AB118469047044603E040F6210000F002
:100A800021F8204610BD00009C010020054949685E
:100A900019B1D1F8C41001B1084740F6310000F097
:100AA00011B800009C010020054B5B681BB1D3F816
:100AB000903003B1184740F6240000F003B800005E
:100AC0009C0100200349496819B1D1F8F01001B127
:100AD0000847FEE79C0100200448406810B14069C7
:100AE00000B1004740F60500FFF7ECBF9C01002075
:100AF0000246084810B54168002429B1896B19B134
:100B000010468847044603E040F60E00FFF7DAFF80
:100B1000204610BD9C0100200449496811B1896C30
:100B200001B1084740F61200FFF7CCBF9C0100203E
:100B300070470000044B5B6813B1DB6C03B11847CE
:100B400040F61300FFF7BEBF9C0100207047000075
:100B50000346094810B54268002432B1D2F8A020FB
:100B60001AB118469047044603E040F62800FFF704
:100B7000A9FF204610BD00009C010020044A5268D5
:100B800012B1526E02B1104740F61900FFF79ABF3A
:100B90009C0100200449496811B1896F01B10847DF
:100BA00040F61E00FFF78EBF9C01002010B5A0B0DC
:100BB00000236A4606E0CC1A044414F8014CD454CD
:100BC0005B1CDBB28B42F6D30A466946FFF7DBFAC1
:100BD00020B010BDFEE700207047000010B50024D3
:100BE000FFF7F9FF00B1102400F01AF808B144F043
:100BF0000104234640F20F22024903A004F026F824
:100C0000204610BDB58300085B25733A2564235D3B
:100C1000433535204335322030782578200D0A00C1
:100C20000020704730B501784278C378114482784B
:100C30001A441144027911444279114482791144D1
:100C4000C2791144027A1144427A1144827A1144E1
:100C5000C27A1144C9B20A22B1FBF2F302FB1314A7
:100C60006423B1FBF3F503FB1515B5FBF2F2B1FB01
:100C7000F3F130343032047342733031817330BD5C
:100C800010B52D22024903A003F0E0FF002010BDA3
:100C9000B48200085B25733A2564235D796F752063
:100CA000686176652063686F6F7365204465666967
:100CB0006E6520426F617264204F4B20696E205B2D
:100CC000636F6E6669672E685D2E200D0A00000056
:100CD00030B587B0054600F01BF818220B4968466E
:100CE000FFF751FA094C103C94E80F0005F0D0FAD8
:100CF000E8B202F03FF8A4F1640002F0FDFB07B097
:100D00000020BDE83040FFF707BF00005808002072
:100D10002DE9F84F054600200C4600902821674831
:100D2000FFF758FA6549002208460D704261DFF866
:100D300090B1644E644BDFF894E1DFF89491654F15
:100D400065484FF0080C4FF07E5A0C2D71D2DFE849
:100D500005F0AE061C364856565F767684A181F8BB
:100D600004C05E4A8A60CA605D4A8A61C1E9072799
:100D70004A62002C08D0012C02D0022C03D099E04A
:100D8000C1F810B096E057487FE081F804C053489E
:100D90008860C86052488861C1E9070748625248C4
:100DA0000861012C1CD0002C1AD150488861C86100
:100DB0004862C1F808B05846C1F80CB065E00A7145
:100DC000C1F818A0C1F820A0C1F81CA0C1F824A047
:100DD0008E60C1E903626CB3012C56D0022C54D052
:100DE00068E00A718B61C1E9073A8E604B62C1E924
:100DF00003608CB3012C5DD1C1F810E05AE00A7198
:100E00008B61C1E9073A8E604B62C1E9036E51E024
:100E10000A7137488B61C1E907303648C1F808B01C
:100E2000C1E903B04B6234B1012C04D0022C04D0D0
:100E300040E03CE029E02A4827E02F4825E081F8FF
:100E400004C027488861C1E90707C1F80890C1F8C4
:100E50000C904862294818E02CE081F804C025482D
:100E60008861C1E907078E60CE60486224B1012C19
:100E70000AD0022C0BD01DE01C48194A8861C1E938
:100E8000070248621E4800E01E48086112E0C1F8EF
:100E900010900FE00A71164A8B61C1E90732104ABF
:100EA000C1F80890C1E903924B621CB194E74FF07E
:100EB000FF3000900098BDE8F88F0000480800203F
:100EC0000000FA4400409C450000A0410000484357
:100ED00000803B450000204100007A4400606A46E3
:100EE0000000C8420080BB4500007A450000F04287
:100EF0000000A040000016430000FA430080BB44FD
:100F0000000016440000964470B5284E284800247E
:100F10003168284D0129016807D021F47041016032
:100F2000016841F40041016017E021F47061016043
:100F3000016841F40061016004E0641CE4B2012036
:100F400005F07EF9D5F8080168B1C82CF5D326E084
:100F5000641CE4B2012005F073F9D5F80C0110B15E
:100F6000C82CF5D31BE0C82C19D230680024012806
:100F700005D00FE0641CE4B2012005F061F9D5F85A
:100F8000080150B9F02CF5D309E0641CE4B201204B
:100F900005F056F9D5F80C0118B1F02C04D3012056
:100FA00070BDF02CF1D3FAE7002070BDA80200203C
:100FB000001801400000234270B51649086000F097
:100FC000E1F800F0ADF8FFF79FFFCC2000F0E8F863
:100FD000BE2000F0E5F800F093F8044600F090F829
:100FE000072805D9C043E143C0B2CCB2002500E0D8
:100FF000012504EB002000B2FFF7B4FA0022064BF3
:10100000FFF730FAFFF7ECFA00B2002D01D14042B1
:1010100000B270BDA80200200000E43F0D4800B5FA
:10102000816985B041F0400181618069694600F0C5
:10103000400004900C2000900120019002900320B9
:101040000390054800F086F900F06AF8FFF75CFFAE
:1010500005B000BD00100240001801402DE9F0412C
:101060002448254C0025016801270129234E2168C9
:10107000284622D021F470412160216841F440517A
:101080002160C6F88C01022005F0DAF8C6F88C71F0
:10109000206820F470402060206840F40040206008
:1010A0000C2005F0CDF8D6F80C0100B10125322056
:1010B00005F0C6F82846BDE8F08121F47061216092
:1010C000216841F440712160C6F88801022005F0D2
:1010D000B7F8C6F88871206820F470602060206836
:1010E00040F4006020600C2005F0AAF8D6F8080152
:1010F000DBE70000A80200200018014000002342A6
:1011000070B500250124FFF7A9FFC001641C40EA67
:101110005500E4B2C5B2082CF5D9284670BD0000D0
:1011200070B515481549002203680125012B144CA0
:101130000B6840F2EE2011D023F470430B600B6873
:1011400043F440530B60C4F88C2105F079F8C4F8DF
:101150008C51BDE870400F2005F072B823F4706325
:101160000B600B6843F440730B60C4F8882105F0F2
:1011700067F8C4F88851ECE7A80200200018014085
:101180000000234210B5FFF7CBFFFFF7BDFECC20D8
:1011900000F006F8BDE81040442000F001B800005F
:1011A0002DE9F0472649054626480A68012A0268C3
:1011B0001DD022F470420260026842F44052026084
:1011C0000124214E89460027A04615F0010FD9F8C9
:1011D00000004FEA550519D001280FD0C6F88C71D0
:1011E000022005F02DF8C6F88C813C2018E022F48E
:1011F00070620260026842F44072E0E7C6F88871EB
:10120000022005F01DF8C6F88881EEE701280FD00E
:10121000C6F88C713C2005F013F8C6F88C810220CA
:1012200005F00EF8641CE4B2082CCED9BDE8F087B6
:10123000C6F888713C2005F003F8C6F88881EEE70F
:10124000A8020020001801400000234270477047A8
:101250007047042000F072B8082000F06FB800005A
:1012600010B505A003F0F2FC802000F067F8BDE89F
:101270001040402000F062B845585449395F355F4E
:1012800049525148616E646C65720D0A000000009D
:101290000148806870470000AC02002010B5044689
:1012A00003F06EFC18B9022C03D0032C03D00020ED
:1012B00010BD024810BD024810BD0000CD4400081A
:1012C0003945000810B5044603F05AFC18B9022C41
:1012D00003D0032C03D0002010BD024810BD0248EB
:1012E00010BD0000194500086D450008002070473A
:1012F00001480068704700001003002018220149CF
:10130000FEF741BF800B002000207047002070478F
:101310000020704731B500F01DF9044600F01AF9BD
:101320000099001B8842F9D338BD082803D004284F
:1013300003D1FFF7D1BBFFF785BB7047044910B558
:101340000A68024202D00860FFF7EFFF10BD0000FC
:10135000140401402DE9F84FDFF8BC91002309F196
:10136000040A0AF1040B1C464FF00F080BF1040E9F
:1013700001270A68A7403A40BA4272D1DFF89CC1FF
:101380004D68A5EB0C0665452BD00DDC032D34D044
:1013900005DC35B3012D19D0022D2FD11BE0112D05
:1013A00016D0122D2AD119E0B6F5881F19D006DC07
:1013B000B6F5803F15D0B6F5801F1FD111E0B6F508
:1013C000001F0ED0B6F5041F18D10AE0CB6815E057
:1013D000CB681B1D12E0CB6808330FE0CB680C33E1
:1013E0000CE08B682BB1012B4FF0080303D0476151
:1013F00004E0042302E0076100E00023FF2A01D893
:10140000064601E000F104064FEA840501D9A5F182
:101410002005376808FA05FC27EA0C0703FA05F5EA
:1014200047EA050737604D68ED006ED53C4DAE6963
:1014300046F00106AE61AD6924F0030605F0010532
:101440000095384D7719BE68A5072D0F08FA05FCE1
:1014500026EA0C06DFF8D0C0604503D14FF0000C3F
:1014600025E052E0DFF8C4C0604502D14FF0010C26
:101470001DE0DFF8BCC0604502D14FF0020C16E061
:10148000DFF8B0C0604502D14FF0030C0FE0DFF889
:10149000A8C0604502D14FF0040C08E0DFF89CC002
:1014A000604502D14FF0050C01E04FF0060C0CFA3C
:1014B00005FC4CEA060CC7F808C04D68D9F8006076
:1014C000ED034D4601D5164300E096432E604D686E
:1014D000DAF80060AD03554601D5164300E09643A7
:1014E0002E604D68DBF80060ED025D4601D51643C5
:1014F00000E096432E604D68DEF80060AD02754650
:1015000001D5164300E096432E60641C102CFFF4B6
:101510002FAFBDE8F88F000000040140000011105B
:10152000001002400000014000080140000C014092
:10153000001001400014014000180140001C01404F
:101540008068084000D0012070470AB101617047EF
:101550000904FBE701480068704700000400002010
:1015600010B5040008D02068C168C943C90705D177
:10157000C068C043800701D4012010BD607B20B942
:1015800000202073204600F018F8022060732168C4
:1015900045F25550086020684168626821F00701F3
:1015A0001143416020688168A2686FF30B01114309
:1015B000816001206073002010BD70472DE9F0416B
:1015C0000446007B01280AD001262673022060739E
:1015D000FFF7C0FF054600274FF47A780BE00220A2
:1015E000BDE8F081FFF7B6FF401B404503D903205B
:1015F00060732773F4E72068C068C0438007F1D5A3
:1016000021684AF6AA200860667327730020E7E77E
:10161000017B01290FD001210222427303684CF69D
:10162000CC421A6003684AF6AA221A60417300216C
:1016300001730846704702207047000002480168A5
:10164000491C01607047000004000020074810B5E5
:10165000016841F010010160052000F047F80F20FB
:1016600000F006F800F015F8002010BD0020024040
:1016700010B5044600F00CF94FF47A71B0FBF1F0AC
:1016800000F0E8FD00222146501E00F00FF8002077
:1016900010BD704700F01F020121914040098000F9
:1016A00000F1E020C0F8001170470000F0B40E4BCC
:1016B0001B68C3F30223C3F10704042C00D90424DC
:1016C0001D1D072D01D2002300E0DB1E012606FAB6
:1016D00004F56D1E0D409D409E40761E164045EA65
:1016E0000601F0BC01F08ABA0CED00E0064A00F0F9
:1016F000070110684FF6FF03184040EA0120034934
:1017000008431060704700000CED00E00000FA058F
:101710002DE9F047DFF8688104460E46D8F800004E
:1017200000F00700B0420CD2D8F8001021F00701F9
:101730003143C8F80010D8F8000000F00700B042AC
:1017400073D120784F4F800705D57868A16820F0C5
:10175000F000084378602078C00755D06068012207
:1017600001280CD0022828D0022393FAA3F1B1FA61
:1017700081F141F02001490904D0396803E04FF4B8
:101780000033F2E7796A93FAA3F3B3FA83F303F031
:101790001F039A40114248D0796821F003010143A8
:1017A0007960FFF7D7FE0546606841F2883101286D
:1017B0000CD00228894615D022E04FF00073D4E700
:1017C000FFF7C8FE411B494501D916E089467868F4
:1017D000C0F381000128F3D116E0FFF7BBFE411BE7
:1017E00049450AD87868C0F381000228F5D10BE09A
:1017F000FFF7B0FE411B494502D90320BDE8F08741
:10180000786810F00C0FF3D1D8F80010404601F0C2
:101810000701B1420BD9016821F007013143016092
:10182000006800F00700B04201D00120E6E7207810
:10183000400705D57868E16820F4E06008437860E7
:101840002078000706D57868216920F4605040EAC6
:10185000C100786000F052F87968F02292FAA2F2A2
:1018600001F0F001B2FA82F2D140074A515CC8405F
:10187000064908600F20FFF7FBFE0020BEE70000CE
:101880000020024000100240E0820008000000201A
:10189000014800687047000000000020084809491E
:1018A000006849684FF4E06292FAA2F201F4E06144
:1018B000B2FA82F2D140044A515CC840704700003D
:1018C0000000002000100240F0820008084809498A
:1018D000006849684FF4605292FAA2F201F4605134
:1018E000B2FA82F2D140044A515CC840704700000D
:1018F0000000002000100240F082000810B519A07E
:1019000085B00FC88DE80F001AA01B4B006804902B
:1019100059681A4801F00C02042A1DD0082A1BD16C
:101920004FF4701494FAA4F401F47012B4FA84F42D
:10193000E240C9031DF8022010D559684FF4003366
:1019400093FAA3F301F40031B3FA83F3D94004AB63
:10195000595CB0FBF1F0504305B010BD084850434E
:10196000FAE7000002030405060708090A0B0C0D3C
:101970000E0F1010010200000010024000127A0049
:1019800000093D002DE9F84F04460078FE4EC007DF
:101990004FF001057FD070684FF40038C0F381002C
:1019A000012807D07068C0F3810002281BD170683D
:1019B000C00318D598FAA8F0B0FA80F040F02000E3
:1019C000400901D0306800E0706A98FAA8F1B1FAD5
:1019D00081F101F01F0105FA01F108425BD0606856
:1019E000002879D057E06068B0F5803F0BD010B187
:1019F000B0F5A02F11D0306820F48030306030680E
:101A000020F4802002E0306840F48030306060686C
:101A100018B3FFF79FFD074609E0306840F48020C7
:101A20003060F0E7FFF796FDC01B642870D898FA85
:101A3000A8F0B0FA80F040F02000400901D03068F2
:101A400000E0706A98FAA8F1B1FA81F101F01F0183
:101A500005FA01F10842E5D01DE0FFF77BFD0746DE
:101A600004E0FFF777FDC01B6428DFD898FAA8F0E0
:101A7000B0FA80F040F02000400901D0306800E06A
:101A8000706A98FAA8F1B1FA81F101F01F0105FA24
:101A900001F10842E5D12078DFF8F08280074FF0AD
:101AA000000A4FF002075AD570684FF0F80B10F09B
:101AB0000C0F07D07068C0F3810002281CD1706839
:101AC000C00319D497FAA7F0B0FA80F040F02000D4
:101AD000400902D0306801E08AE0706A97FAA7F105
:101AE000B1FA81F101F01F0105FA01F108422BD092
:101AF000206901287CD127E0206988B395FAA5F0F8
:101B0000B0FA80F048F82050FFF724FD814606E047
:101B10004DE1FFF71FFDA0EB0900022886D897FAD8
:101B2000A7F0B0FA80F040F02000400901D0306802
:101B300000E0706A97FAA7F1B1FA81F101F01F0194
:101B400005FA01F10842E4D030689BFAABF220F0CC
:101B5000F8016069B2FA82F290400143316025E0F9
:101B6000FFE795FAA5F1B1FA81F148F821A0FFF756
:101B7000F1FC814605E0FFF7EDFCA0EB090002282F
:101B8000CCD897FAA7F0B0FA80F040F020004009D6
:101B900001D0306800E0706A97FAA7F1B1FA81F1DC
:101BA00001F01F0105FA01F10842E4D12078000795
:101BB0006DD5A069B8B395FAA5F0B0FA80F008EB3E
:101BC0008000C0F88054FFF7C5FC814605E0FFF7B0
:101BD000C1FCA0EB09000228A0D897FAA7F0B0FA40
:101BE00080F040F06000B5EB501F02D130680CE08F
:101BF00063E197FAA7F0B0FA80F040F06000B7EB2D
:101C0000501F01D1306A00E0706A97FAA7F1B1FA6B
:101C100081F101F01F0105FA01F21042D7D0012035
:101C2000FFF778FB33E0FFE795FAA5F1B1FA81F110
:101C300008EB8101C1F880A4FFF78CFC814605E028
:101C4000FFF788FCA0EB0900022899D897FAA7F0C3
:101C5000B0FA80F040F06000B5EB501F01D1306861
:101C60000BE097FAA7F0B0FA80F040F06000B7EB15
:101C7000501F01D1306A00E0706A97FAA7F1B1FAFB
:101C800081F101F01F0105FA01F21042D8D120784C
:101C9000400763D5F06940F08050F061F069DFF8EB
:101CA000F0B000F080500090DBF8001041F480713B
:101CB000CBF80010FFF74EFC814605E0FFF74AFC29
:101CC000A0EB0900642872D8DBF80000C005F5D548
:101CD000E06801280AD008B1052813D0306A20F046
:101CE00001003062306A20F0040002E0306A40F007
:101CF00001003062E06841F2883B80B3FFF72AFCC4
:101D000081460AE0306A40F004003062EEE7FFF7F7
:101D100021FCA0EB0901594549D897FAA7F0B0FA80
:101D200080F040F04000B5EB501F01D130680BE06F
:101D300097FAA7F0B0FA80F040F04000B7EB501FE0
:101D400001D1306A00E0706A97FAA7F1B1FA81F127
:101D500001F01F0205FA02F10842D8D033E0FFE794
:101D6000FFF7F8FB814605E0FFF7F4FBA0EB090164
:101D700059451CD897FAA7F0B0FA80F040F040001F
:101D8000B5EB501F08D105E00010024000004242B0
:101D90000070004030680CE097FAA7F0B0FA80F0CD
:101DA00040F04000B7EB501F02D1306A01E08AE0FA
:101DB000706A97FAA7F1B1FA81F101F01F0205FAF2
:101DC00002F10842D0D1E06998B37168C1F3810192
:101DD000022972D002284FF080714FF0007B5046EC
:101DE0000AD091FAA1F1B1FA81F148F82100FFF788
:101DF000B1FB04465F4669E08A4691FAA1F1B1FA67
:101E000081F1C14648F82100FFF7A4FBA846074628
:101E10005D4604E0FFF79EFBC01B022853D895FAED
:101E2000A5F0B0FA80F040F02000400902D0306800
:101E300001E060E0706A95FAA5F1B1FA81F101F074
:101E40001F0208FA02F10842E4D1206AB0F5803F8F
:101E500005D17068A16820F4003008437060D4E9AF
:101E600008010843716821F47411084370609AFAFC
:101E7000AAF0B0FA80F0474649F82080FFF76AFBE5
:101E8000044604E0FFF766FB001B02281BD895FA06
:101E9000A5F0B0FA80F040F02000400901D0306891
:101EA00000E0706A95FAA5F1B1FA81F101F01F0125
:101EB00007FA01F10842E5D01DE01EE0FFF74AFBFA
:101EC000001B022802D90320BDE8F88F97FAA7F07B
:101ED000B0FA80F040F02000400901D0306800E006
:101EE000706A97FAA7F1B1FA81F101F01F0105FAC2
:101EF00001F10842E2D10020E6E70120E4E700001A
:101F000010B5040003D094F8510010B104E0012092
:101F100010BD204600F038F8022084F851002068F7
:101F2000016821F040010160D4E901010843D4E9CE
:101F300003121143084361690843218B01F40071C6
:101F40000843E1690843216A0843A16A08432168FC
:101F50000860A069042101EA1040616A0843216811
:101F600048602168E06A08612068C16921F4006165
:101F7000C1610449002008706065012084F85100A7
:101F8000002010BD0800002070472DE9F84300260E
:101F9000DDF820800446ADF8006090F8510001287B
:101FA00003D094F8510022287DD169B162B15BB1B0
:101FB00094F85000012876D0012784F8507094F8E6
:101FC0005100012803D005E00120BDE8F88332204C
:101FD00084F851006665A263A387E3872163A38623
:101FE000E386A664E664A06A4FF40055A84209D1CE
:101FF0002068016821F4005101602068016841F403
:102000000051016020680168490603D4016841F06D
:1020100040010160E0684FF48271B0F5006F6068C4
:1020200007D0002867D088426ED1E08E012862D0A8
:102030006AE020B188420CD1E08E012809D1206BE2
:1020400021680088C860206B801C2063E08E401EE1
:10205000E086E08E80B9A06AA84244D12068016879
:1020600041F4805101603EE02068C068A16B0880A7
:10207000A06B801CA0639EE0434600220221204604
:1020800001F0ABFF002874D1206B21680088C86084
:10209000206B801C2063E08E401E0004000CE08654
:1020A00009D1A06A00E0C7E0A84204D12068016815
:1020B00041F480510160434600220121204601F095
:1020C0008CFF00286FD12068C068A16B0880A06BCE
:1020D000801CA063E08F401EE087E08E0028CBD1FB
:1020E000606800286AD1434600220121204601F0A1
:1020F00074FFF0BBB8E7206B411C216321680078B6
:10210000C860E08E401EE086E08E98B9A06AA842C2
:1021100004D12068016841F48051016043460022E7
:102120000121204601F059FF18BB2068C068A16B4F
:10213000087040E0434600220221204601F04DFF96
:10214000B8B9206B411C216321680078C860E08E1B
:10215000401E0004000CE08607D1A06AA84204D10A
:102160002068016841F4805101600022434601214A
:1021700000E018E0204601F030FFA0B92068C168F7
:10218000A06B421CA2630170E08F401EE087E08ECE
:102190000028CFD1606888B943460022012120463B
:1021A00001F01BFF08B103200FE72068C168A06B96
:1021B000421CA2630170E08F401EE087A06AA84223
:1021C00010D1434600220121204601F006FF18B13C
:1021D000606D40F002000FE02068C068ADF80000BC
:1021E000BDF80000434601228021204601F0F5FEA3
:1021F00020B1606D40F010006065D4E784F8517044
:10220000A06AA84214D120688168C943C9060FD4C6
:10221000616D41F002016165016821F400510160C6
:102220002068016841F40051016084F85060CBE6F9
:1022300084F850600020C8E60220C6E64FF0E02196
:102240000428086903D020F004000861704740F0BA
:102250000400FAE710B5401EB0F1807F01D30120E1
:1022600010BD4FF0E02460610F21601700F0C6FC44
:102270000020A06107202061002010BD10B50400DF
:1022800003D094F8390010B107E0012010BD002000
:1022900084F83800204600F00DF8022084F8390058
:1022A000211D206801F0C2FF012084F839000020C0
:1022B00010BD000008B500680B49884212D10B48D8
:1022C000C16941F00801C161C069002200F0080045
:1022D000009004213220FFF7E9F9BDE808403220E0
:1022E000FFF7D8B908BD0000000C00400010024004
:1022F0000168CA6842F00102CA600068016841F0E2
:10230000010101600020704770B5044690F8380064
:102310000D4601280DD0012684F83860022084F88B
:10232000390042B1042A18D0082A2AD00C2A4DD1EB
:1023300039E0022070BD206801F0C6FF2068816985
:1023400041F0080181612068816921F00401816107
:10235000206881692A69114311E0206801F0E4FFD7
:102360002068816941F4006181612068816921F4FC
:1023700080618161206881692A6941EA0221816165
:1023800024E0206802F006F82068C16941F00801E5
:10239000C1612068C16921F00401C1612068C1697F
:1023A0002A69114311E0206802F028F82068C16909
:1023B00041F40061C1612068C16921F48061C1619B
:1023C0002068C1692A6941EA0221C16184F8396043
:1023D000002084F8380070BD10B5040003D094F8D4
:1023E000390010B107E0012010BD002084F838004A
:1023F000204600F00DF8022084F83900211D2068E5
:1024000001F014FF012084F83900002010BD000005
:1024100000B50068144985B0884222D11348C169CB
:1024200041F00201C161C16901F00201049110494A
:102430004A6842F440624A60816941F0100181615A
:102440008069694600F0100004904FF4007000901D
:102450000220019001200290032003900548FEF71E
:1024600079FF05B000BD00000004004000100240EC
:10247000000001400010014010B504460068012230
:1024800001F016FF08482168814202D007488142C6
:1024900003D1486C40F4004048642068016841F072
:1024A00001010160002010BD002C014000340140FA
:1024B00010B50268044631B1042908D0082920D09B
:1024C0000C2908D121E0D06840F0020002E0D06879
:1024D00040F00400D0600122206801F0E9FE0D49BF
:1024E0002068884202D00C49884203D1416C41F4F3
:1024F000004141642068016841F001010160002051
:1025000010BDD06840F00800E4E7D06840F010004B
:10251000E0E70000002C01400034014010B50268E3
:10252000044631B1042908D008292FD00C2908D13C
:1025300030E0D06820F0020002E0D06820F0040013
:10254000D0600022206801F0B3FE144841F211125D
:1025500021689310814202D01148814209D1086A52
:10256000104206D1086A184203D1486C20F400409A
:1025700048642068016A114206D1016A194203D1F8
:10258000016821F001010160002010BDD06820F039
:102590000800D5E7D06820F01000D1E7002C0140FA
:1025A00000340140704790F83900704738B5044650
:1025B00000680168C268C1F3000102F4807221B1B1
:1025C0001AB1E16B41F00101E1630168C1F340021E
:1025D000416901F0010122B119B1E26B42F004023C
:1025E000E2630268C2F3800222B119B1E26B42F0E9
:1025F0000202E2630268C2F3C00222B119B1E16BC8
:1026000041F00801E1630168C068C1F3401100F0C6
:10261000200019B110B1204602F07EF82068016850
:10262000C068C1F3C01100F0800019B110B120469C
:1026300002F07EF921680868CA68C0F3801002F0D1
:102640004002012568B162B1CA68204622F040020A
:10265000CA6094F83910322910D080F8395000F04F
:10266000B1F9E06B002808D020680168406800904C
:1026700084F839502046FFF795FF38BD222180F8B5
:102680003910ECE770B5040004D094F83900002547
:1026900010B106E0012070BD84F83850204600F0EB
:1026A00021F8022084F839002068C16821F4005123
:1026B000C160204602F084F82068016921F490414D
:1026C00001612068416921F02A0141612068C168E7
:1026D00041F40051C160E563012084F83900002015
:1026E00070BD000010B500681E4986B0884236D122
:1026F0001D48816941F004018161816901F0040193
:102700000491816941F480418161816901F48041D2
:102710000491816941F0010181618069134C00F0ED
:10272000010004904FF400700090022001900120FD
:1027300002900320039069462046FEF70BFE211508
:1027400000910021019169462046FEF703FE2520F5
:10275000FEF7A0FF032211462520FEF7A7FF06B0D3
:1027600010BD000000380140001002400008014088
:102770002DE9F047044690F8390099460D460128A6
:1027800001D0122857D125B31AB394F83800012884
:1027900051D0012684F838600027E76394F83900A7
:1027A000122819D0222084F83900A285E2854FF43E
:1027B0008058E08D4B46401EE085A0684FF0000237
:1027C00040454FF02001204616D102F0E4F8B0B9A0
:1027D00004E00120BDE8F0873220E4E7206900280A
:1027E0002068406803D0C1B225F8011B12E0C0F395
:1027F000080125F8021B0DE002F0CDF808B1032016
:10280000E8E7206900282068406801D000F07F00D8
:1028100005F8010BE08D0028CBD194F8390032285F
:1028200005D084F8396084F838700020D2E712208F
:1028300084F83900F7E70220CCE790F83930012B13
:1028400001D0122B2BD131B32AB390F83830012BA1
:1028500025D0012380F8383081628285C28500212D
:10286000C16390F83920122A17D0222280F839202B
:1028700080F838100168CA6842F48072CA60016842
:102880004A6942F001024A610068C16841F02001D2
:10289000C16000207047012070473222E6E7022025
:1028A0007047000030B50068114988420CD1114AC8
:1028B0005088010408D41146440409784FF00003FD
:1028C00006D50A2901D0538030BD40F400400DE008
:1028D0000D2909D0C0F30D04074D401C80B22955C5
:1028E0005080C728EFD830BD40F48040508030BDC4
:1028F0000038014010000020480400202DE9F04776
:10290000044690F8390099460D46012801D0222846
:1029100056D125B31AB394F83800012850D00126B7
:1029200084F838600027E76394F83900222819D02A
:10293000122084F83900A284E2844FF48058E08C9D
:102940004B46401EE084A0684FF0000240454FF027
:102950008001204613D102F01EF808BB04E00120DC
:10296000BDE8F0873220E4E728882168C0F308003A
:102970004860206908B16D1C08E0AD1C06E002F05B
:102980000AF868B9216815F8010B4860E08C002846
:10299000D5D14B4600224021204601F0FCFF08B172
:1029A0000320DDE794F83900322805D084F8396037
:1029B00084F838700020D3E7222084F83900F7E744
:1029C0000220CDE77047FEE70148FEF7F7BD0000A3
:1029D000B00A0020044A034B1360C2E9010110460B
:1029E000FEF7BEBD00300040B00A00200148FEF7EF
:1029F0000FBE0000B00A00207047000010B535225D
:102A0000144915A002F022F9472140F2F31001F019
:102A1000BBFB00F091F94FF4FA7001F017FD0120B3
:102A200001F01AFD154C20680068804720680321DA
:102A300082680020904740F6C4110420FFF7CAFFC7
:102A4000FFF7D4FF3C23BDE81040682201490CA0E9
:102A500002F0FCB8CE8200085B25733A2564235D42
:102A6000737461727420496E69745F426F6172643D
:102A70005F436F6E6669672E200D0A00B802002062
:102A80005B25733A2564235D5B4D696E695D2C702F
:102A9000726F746F636F6C2073697A653A25640D89
:102AA0000A0000000020704710B500210220FEF748
:102AB000F5FB044C002120600220FEF703FC60605F
:102AC00010BD0000E40200202DE9FF470120FEF7C1
:102AD00073FA05460220FEF76FFA0446FDF742FD41
:102AE000DFF8B080DFF8B09042464B46FDF7BAFC05
:102AF00006460F462846FDF735FD42464B46FDF794
:102B0000B1FC8DE8C300AC22244925A002F09EF858
:102B10002B4E002D03DC002C0ADDB46008E0002CF5
:102B200001DCB56004E0281900EBD0704010B06003
:102B30004FF44870854205DC844203DC002D0EDC36
:102B4000002C0CDC3069401C3061032809DB4FF499
:102B50007A700321B060081F01F096FA01E00020AE
:102B60003061B06800F05CF804464FF4FA708442BB
:102B700001DB044602E0002C00DC00242346CD22C9
:102B8000064910A002F062F804B02046BDE8F04704
:102B900001F05CBC9A9999999999B93FF58300081D
:102BA0005B25733A2564235D54313A25302E316616
:102BB0002C54323A25302E31662E0D0A00000000CA
:102BC000AC0200205B25733A2564235D2064757494
:102BD000793A25640D0A000002207047024800215E
:102BE0000180817070470000B20100200020704712
:102BF00002F05AB8FEE77047704770470907090EA0
:102C0000002806DA00F00F0000F1E02080F8141D23
:102C1000704700F1E02080F80014704700207047F2
:102C2000F8B5B0F57A7F16D0344D354C84222B6838
:102C3000C4E90030E1682161A168E160191AA1606E
:102C40000090304930A002F001F8A068002105286A
:102C500004DB61634CE04FF4FA70F8BD304A0028A1
:102C600005DA6263A16AA06BFDF7BFFA3FE013D1FA
:102C70006263A06AFDF7D3FC2A4A2B4BFDF7F2FBF7
:102C800005460E46A06BFDF7CAFC2A463346FDF703
:102C900042FBFDF7D7FC2AE06A6812B1226BA263FF
:102CA0006960FDF751FC6169FDF7F7FA074620629C
:102CB000E0684042FDF748FCA169FDF7EEFA0646E0
:102CC00060622069FDF740FCE169FDF7E6FA054620
:102CD000A06231463846FDF788FA2946FDF785FAA5
:102CE000E062A26B01461046FDF7D1FA6063A06373
:102CF000606BBDE8F840FDF746BC0000AC02002068
:102D000030090020E98300085B25733A2564235DC0
:102D10007365743A2564206765743A256420000061
:102D20000000FA439A9999999999D93F00487047B8
:102D3000C4010020704700000A4800210A4A0160CF
:102D400041608160C160C0E904128261074AC0E944
:102D500007214162064A8162C0E90B12C0E90D12E7
:102D60007047000030090020CDCC4C3FCDCCCC3E8C
:102D70000000E6430548064982684A6082890A8065
:102D800002688A60808848807047000068050020DB
:102D90009001002010B5FDF7E0FBBDE810400149AF
:102DA000FDF77BBAA5D4684110B50549FDF775FA62
:102DB0004FF07C51FDF719FAFDF7FEFB80B210BD14
:102DC000CCBC8C3D01498860704700001800002091
:102DD0000149086170470000180000200149C860DF
:102DE000704700001800002010B50549FDF755FA9E
:102DF0004FF07C51FDF7F9F9FDF7DEFBC0B210BDD5
:102E000000601F4410B5FDF7A8FBBDE81040014964
:102E1000FDF743BA679ACD3A08210148FEF790BB07
:102E2000001401400248012201884068FEF78DBB72
:102E3000900100200248002201884068FEF785BB0F
:102E40009001002072B6704762B6704704210148B5
:102E5000FEF776BB0014014082B000283CD11F4829
:102E6000816941F480718161816901F4807100910F
:102E7000816941F080018161816901F080010091E7
:102E8000816941F040018161816901F04001009157
:102E9000816941F020018161816901F02001009187
:102EA000816941F010018161816901F01001009197
:102EB000816941F004018161816901F0040100919F
:102EC000816941F008018161806900F0080000908B
:102ED000052002B003F0A6B902B07047001002400E
:102EE0000248012241888068FEF72FBB9001002034
:102EF000704700000248002241888068FEF725BB29
:102F0000900100200D480C49012201602021C1617F
:102F1000426100218160022202610722C0E90A1297
:102F2000C1604FF400720162826141624FF48271AC
:102F30004160FEF7E5BF0000003001407805002049
:102F40002DE9F84390460D460646FFF773FF00242F
:102F50004FF480590CE001232A4631460848CDF849
:102F60000090FFF712F8070004D1641C6D1C761C5A
:102F70004445F0D3FFF756FF3846BDE8F88300001C
:102F80007805002010B50446FEF7B8FCA101B0FB9F
:102F9000F1F00749401E0A68D062C860096840081D
:102FA0008863BDE8104004210148FFF781BA0000A2
:102FB000D005002004210148FFF7B0BAD005002059
:102FC00010B5054CA068002804D00121617080472D
:102FD0000020607010BD00001800002010B5FFF741
:102FE0001BFF08B1002010BD012010BD10B5FFF778
:102FF0002DFF08B1002010BD012010BD2DE9F05FAC
:103000003C4A8A460024917881426FD99178DFF852
:10301000E8B0081A401EC4B20AF0FF01002041F0D7
:10302000200590460BF10C090027464688F80070F1
:1030300008B1FFF709FFB04600205E460CE03118EA
:103040003754CF708F714F7209F8007009EB00018F
:10305000401CCF708F714F7298F802108842EED3E7
:103060005046BAF1070F2AD008DCBAF1070F15D283
:10307000DFE80AF0142225222225250018281ED078
:1030800007DC08281BD00D2819D0BAF1150F05D17F
:1030900015E01A2813D0BAF11B0F10D030190127F0
:1030A0008571FFF7CFFE98F8001001200029BBD1F1
:1030B000C7F103054F460DE035550327F1E73019F9
:1030C0000227C570EDE705EB4500C119304400F05B
:1030D000EDFE6D1C042DF6D33919C8788A790004E9
:1030E00040EA0224487A0443FFF7AEFE2046BDE8DA
:1030F000F09F000018000020500500202DE9F0414D
:10310000234C0025A17881423ED9A178214F081A8D
:10311000401EC5B20020804607F10C0684F80080EE
:1031200008B1FFF791FE002012E0391807F800807F
:1031300081F8038081F8068081F8098006F8008014
:103140003118401C81F8038081F8068081F80980DD
:10315000A1788842E9D3D0207855FFF773FE217813
:1031600001200029DAD1002404EB440081193844FD
:1031700000F09CFE641C032CF6D370198179C07892
:1031800041EA0025FFF760FE2846BDE8F081000017
:1031900018000020500500200022702100F0B0BA75
:1031A0000022782100F0ACBA0A46602100F0A8BAEB
:1031B00041F0680100F0A4BA114341F082011A46BF
:1031C00000F09EBA0022A82100F09ABA0022B8218D
:1031D00000F096BA41F0400100F092BA0022114688
:1031E00000F08EBA114341F09201002200F088BA3B
:1031F0000022C02100F084BA0022D82100F080BA59
:1032000041F0500100F07CBA2DE9F05F8B4638495F
:1032100016468A78824268D98A78DFF8D8A0101AD0
:10322000401EC4B20020C6F307280BF0FF058946F4
:10323000002789F8007008B1FFF706FE002052460B
:1032400005E017541118401CCF708F714F7299F818
:1032500002108842F5D35846BBF1070F32D008DC84
:10326000BBF1070F13D2DFE80BF012252D25122D2D
:103270002D00152826D005DC082823D0BBF10D0F22
:1032800005D11FE018281DD0BBF11A0F1AD0101954
:10329000012785710AEB04004672FFF7D3FD99F808
:1032A000001001200029C3D1124EC7F10304554676
:1032B0000C3614E0310C10191555C17080F80680D9
:1032C0000327E7E710190227C57080F80680E1E7B9
:1032D00004EB44008119284400F0E8FD641C042C30
:1032E000F6D3BDE8F05FFFF7AFBDBDE8F09F00008B
:1032F00018000020500500200022A02100F000BA94
:103300000022B02100F0FCB941F05801002200F089
:10331000F7B9810204D5C043401CC0F315004042F8
:10332000704700000249096901B10847FEE7000043
:103330001800002010B5FDF710F90449FCF755FFFF
:10334000BDE810400249FCF7A8BF000077BE7F3FF0
:103350000024744110B50349FCF79FFFFDF72CF9D9
:1033600080B210BDBD37863D70B50020104D0146BE
:1033700005F10C06D0230F4C0BE02A182B54D1700A
:103380009171517231543218401CD1709171517247
:10339000C0B2A2789042F0D3002404EB440081191B
:1033A000284400F083FD641CE4B2032CF5D370BD07
:1033B000500500201800002010B5054CE0680028DA
:1033C00004D00121617080470020607010BD0000B2
:1033D0001800002070B50D4606461621FFF70EFEB8
:1033E00040F3C00429463046641CFFF707FE162D43
:1033F0003FD2DFE805F03E0B3E0B13101016192CE0
:103400002C2C2C23333535263E29291EFFF781FF2E
:10341000FDF79AF82AE0FFF7BDFC27E000F0C2FCB8
:1034200024E000F0D1F821E0C0F30B0000F0E4F854
:103430001CE0C0F30900FFF77DFF17E000F06EF815
:1034400014E000F09CF811E000F0B6FC0EE014B1BE
:1034500000F0B0F80AE000F001FD07E03CB100E048
:1034600014B1FFF7CFFC01E000F0CAFC064630467D
:1034700070BDFDF772F8F9E7084A0146002093781D
:103480008B4209D99078401A401E0549C0B20844C1
:103490008179C07841EA00207047000018000020C0
:1034A0005C050020004870470005010010B50321AD
:1034B000FFF7A4FDBDE81040FFF72BBF014880785F
:1034C000704700001800002010B50121FFF796FD9D
:1034D000BDE81040FFF71DBF064810B50079FFF7A3
:1034E000BBFCFFF70FFDFFF703FDBDE81040052013
:1034F00002F098BE1800002010B550B1014600201F
:1035000000F048FA0020FFF75DFEBDE81040FFF72D
:103510002BBF002000F076FBF4E7000010B5FDF7AC
:103520001CF8BDE810400149FCF7B7BED923743D33
:1035300010B50549FCF7B1FE4FF07C51FCF755FE84
:10354000FDF73AF880B210BDBD37864110B5FFF7E0
:10355000D5FD800701D4012010BD002010BD10B59D
:103560004FF07E51FCF793FE0521FCF7C8FE4FF0AB
:103570007C51FCF73AFEFDF71FF8C0B210BD10B544
:10358000FCF7EBFF6FF00401FCF7B9FEBDE810405B
:103590004FF07E51FCF729BE10B50549FCF77DFEC2
:1035A0004FF07C51FCF721FEFDF706F8C0B210BDCC
:1035B0000AD7234010B5FCF7D0FFBDE81040014901
:1035C000FCF76BBE0000C83E10B5FCF7C6FFBDE8B7
:1035D00010400149FCF761BE0024744110B5054953
:1035E000FCF75BFE4FF07C51FCF7FFFDFCF7E4FFBE
:1035F00080B210BDBD37863D10B5FCF7AEFFBDE80B
:1036000010400149FCF749BE0024743E10B505493D
:10361000FCF743FE4FF07C51FCF7E7FDFCF7CCFFD5
:1036200080B210BDBD378640144B10B59C788442E3
:103630001AD99B78124C181A401EC3B201F0FA0036
:10364000682812D006DC40280FD050280DD0602802
:1036500004D10AE0822808D08A2806D00022E01887
:10366000E254C2708271417210BDE154E018110C35
:10367000C170110A8171427210BD00001800002053
:103680005005002001488088704700001800002085
:1036900010B51B21FFF7B2FC80B210BDFFF720BCB4
:1036A000FFF728BC70B50546082927D2DFE801F0EE
:1036B0000406080A0C0E101200240CE001240AE093
:1036C000022408E0032406E0042404E0052402E0C8
:1036D000062400E007242846FFF774FD162128463B
:1036E000FFF78CFC00F0F802224316212846FFF772
:1036F0008BFD2846FFF780FD012070BD002070BDC6
:103700002DE9F05F0E46304914468A78824258D936
:103710008A784FF00009101A401EC5B24846CB46C1
:103720008A46D84657468AF800B008B1FFF78CFBA6
:103730004246B8460020254F05E03A543918401C4F
:10374000CA708A714A7298F802108842F5D306F05E
:10375000FA0068281CD006DC40281BD0502819D05D
:10376000602804D114E0822814D08A2812D0781955
:103770007A55C27082714672FFF764FB98F80010A8
:1037800001200029CDD1114DC9F103040C3512E0FF
:10379000C4F3150478197E55210CC170210A81717A
:1037A00044724FF00309E7E704EB44004119384441
:1037B00000F07CFB641C042CF6D3BDE8F05FFFF73F
:1037C00043BBBDE8F09F000018000020500500201A
:1037D00070B5074D0024A5F10C0604EB4400411917
:1037E000304400F063FB641CE4B2042CF5D370BDDC
:1037F0005C0500202DE9F0410E4615468046012467
:103800001621FFF7FBFB40F3C000594A401C9542CC
:1038100004D3012E02D0032E00D000245549162EC9
:1038200022D2DFE806F021290B29213D3D444B7DC2
:103830007D7D7D678B8E8E6E217777584E488542D1
:1038400012DC15F0FF4F11D016210020FFF7D6FB38
:1038500000F00700C0F1070101208840FCF774FE6A
:103860002946FCF70BFF01D2002477E02846FCF73D
:10387000A3FEC0F308026CE04FF40017954207D393
:1038800085F00040FCF798FEB842EDD8404204E0D5
:103890002846FCF791FEB842E6D2C0F3150258E084
:1038A00036488542E0DC2846FFF77EFA50E034488F
:1038B0008542D9DC2846FFF791FE49E03148854230
:1038C000D2DC31464046FFF799FB00F4805728468A
:1038D000FFF79CFE0BE02C488542C5DC3146404694
:1038E000FFF78CFB00F480672846FFF733FD47EABB
:1038F00000022EE025488542B6DC2846FFF718FE78
:1039000026E0A5F17E50B0F5701FADD82846FFF730
:1039100026FE1DE08D42A7DC284600F059FA17E08C
:1039200030B1B5F5000F9FDA2846FFF735FE0FE0FE
:103930008D4299DC284600F07DFA09E0002893D0FA
:1039400000E070B1124885428EDC2846FFF74CFA41
:1039500002461CB131464046FFF756FC2046BDE802
:10396000F081B5F1854F9DDC284600F053FAEFE772
:103970000000808000007A440080FF4300C6684752
:1039800000E87346331374440024744600207444E2
:10399000CDCCCC3E70B50C46054600220121FFF788
:1039A00033FC002202212846FFF72EFC00220321CF
:1039B0002846FFF729FC6068FFF7F6F90246052163
:1039C0002846FFF721FCA068FFF7EEF90246062122
:1039D0002846FFF719FCE068FFF700FE02460721C2
:1039E0002846FFF711FC2069FFF7F8FDA18A40EA9D
:1039F000010208212846FFF707FCA069FFF7AAFC8F
:103A0000A18B40EA010215212846FFF7FDFB206A41
:103A100000F0DEF9024613212846FFF7F5FB94F883
:103A2000252020781621024394F8240002432846DA
:103A3000FFF7EAFB94F8262017212846FFF7E4FB5E
:103A400094F8272094F82A00A18D0243208D084382
:103A5000024318212846FFF7D7FB94F82E2094F84C
:103A60002F00192102432846FFF7CEFB20780028BB
:103A70004DD054F8300F00F0DDF9024609212846F8
:103A8000FFF7C2FB606800F0D5F902460A2128461C
:103A9000FFF7BAFBA06800F0CDF902460B212846DB
:103AA000FFF7B2FBE06800F0C5F902460C2128469A
:103AB000FFF7AAFB227C607C0E2102432846FFF719
:103AC000A3FB606900F0A6F902460F212846FFF724
:103AD0009BFBA06900F09EF9024610212846FFF7E3
:103AE00093FB227F607F94F820100243A07F08435D
:103AF0000243608C0243A08C0243E08C0243208D81
:103B000002432846BDE870401A21FFF77DBB206CB8
:103B1000FFF70EFD02460D212846FFF775FB206DCD
:103B2000FFF71DFD024611212846FFF76DFB606D72
:103B300000F04EF9024614212846FFF765FB206B82
:103B4000FFF72AFD024609212846FFF75DFB606B5F
:103B5000FFF722FD02460A212846FFF755FBA06B1E
:103B6000FFF71AFD02460B212846FFF74DFBE06BDD
:103B7000FFF712FD02460C212846FFF745FB606C5B
:103B8000FFF732F902460E212846FFF73DFBA06CF5
:103B9000FFF72AF902460F212846FFF735FBE06CB4
:103BA0003C34FFF721F9024610212846FFF72CFB91
:103BB000227F607FE17F0243A07F08430243208C85
:103BC0000243608C0243A08C0243E08C98E770B5FE
:103BD0000D4604460121FFF711FA421B2046BDE8BD
:103BE00070400121FFF710BB0A460321FFF70CBB11
:103BF000032803D8024988700120704700207047CD
:103C0000180000202DE9F14F002201210098FFF754
:103C1000FBFA002202210098FFF7F6FA00220321A6
:103C20000098FFF7F1FA574E574FDFF86081DFF841
:103C30006091DFF860B1584C584D00984FF07E5AB3
:103C400018B1012801D002287ED13046FFF7ACF828
:103C5000024605210098FFF7D7FA3046FFF7A4F88F
:103C6000024606210098FFF7CFFA3846FFF7B6FC68
:103C7000024607210098FFF7C7FA0020FFF7C6FCAD
:103C8000024608210098FFF7BFFA4046FFF762FBA3
:103C9000024615210098FFF7B7FA08221321009871
:103CA000FFF7B2FA042216210098FFF7ADFAEF22CF
:103CB00017210098FFF7A8FAC32218210098FFF7F0
:103CC000A3FA402219210098FFF79EFA4846FFF711
:103CD0002FFC02460D210098FFF796FA5046FFF799
:103CE0003EFC024611210098FFF78EFA584600F07C
:103CF0006FF8024614210098FFF786FA2046FFF776
:103D00004BFC024609210098FFF77EFA2046FFF798
:103D100043FC02460A210098FFF776FA2046FFF797
:103D20003BFC02460B210098FFF76EFA2046FFF796
:103D300033FC02460C210098FFF766FA1848FFF79B
:103D400053F802460E2100E01AE00098FFF75CFAF3
:103D50002846FFF749F802460F210098FFF754FA6A
:103D60002846FFF741F8024610210098FFF74CFA69
:103D70000098BDE8F84F42F608621A21FFF744BAEE
:103D8000BDE8F88F00801144000048440000C8439B
:103D90004A0C764200D0044400002041751F803D4B
:103DA0002D431C3D10B5FCF7D8FBBDE81040014980
:103DB000FCF773BA0024743C10B5401CFCF7CDFB33
:103DC000BDE810400149FCF768BA00000000FA4164
:103DD00010B50749FCF75BFA0649FCF75EFA4FF0AD
:103DE0007C51FCF702FAFCF7E7FBC0B210BD000003
:103DF0000000FA416F12033DFFF7C4B8FFF7DAB8CD
:103E000010B5401CFCF7A9FBBDE810404FF0FF3196
:103E1000FCF775BA10B54FF07C542146FCF737FA21
:103E20000121FCF76CFA2146FCF7DFF9FCF7C4FB33
:103E3000C0B210BD10B50749FCF729FA0649FCF7D6
:103E40002CFA4FF07C51FCF7D0F9FCF7B5FBC0B26F
:103E500010BD00000000FA406F12033E10B5401C78
:103E6000FCF77BFBBDE810400149FCF716BA0000E7
:103E70000000FA4070B5084E00252C4605E02046AB
:103E8000FFF764FB0543641CE4B2B0788442F6D3C8
:103E9000002DF1D170BD00001800002010B50446BF
:103EA0002046FFF753FB0028FAD110BD10B5054C92
:103EB000A278FFF745F86078002801D00120207033
:103EC00010BD00001800002010B518210348FCF7B1
:103ED00081F903480021016010BD0000800B002023
:103EE000100300202DE9F04100252C464FF4967771
:103EF0000E4E4FF47A7801E0012514E03268B06884
:103F0000641C111A032901DC00290CD5801A03282E
:103F100001DC002807D5FEF7D7FD404602F082F904
:103F2000BC42EBDBE8E72846BDE8F081AC020020AC
:103F30002DE9F041002490460E4605460B2802D19B
:103F40000021FCF7C5FE164FE8B2FEF713FF3A4614
:103F500041460020FCF7EEFD42F21077F0B2641CFF
:103F6000FEF73AFE70B1BC420EDB012440F2532250
:103F70000C490DA000F06AFE0020FCF7CDFD0B2DD2
:103F800006D009E00024F7E7012002F04BF9E5E74D
:103F900001210B20FCF79CFE2046BDE8F0810000CB
:103FA00080841E00A08300085B4552524F5220259A
:103FB000733A2564235D6D6F746F72206E6F206697
:103FC000696E64206C69676874200D0A0000000047
:103FD000012070470020704770472DE9F0471D46CB
:103FE00090460F460446FDF7B5FA06465FEA08001C
:103FF0004FF000084FF4005A4FF0010926D034E08A
:10400000681C23D025B1FDF7A5FA801BA8421DD955
:104010002068416821F0E00141602068016821F0DA
:1040200040010160A06A504509D12068016821F46F
:10403000005101602068016841F40051016084F87A
:10404000519084F850800320BDE8F0872068806894
:1040500037EA0000D4D10DE0681C06D0002DD7D07F
:10406000FDF778FA801BA842D2D82068806837EA2A
:104070000000F1D00020E7E70020704700207047E3
:1040800070470020704700000A4910B50122C1E9BD
:104090000002A0F26310FCF765FA074A074BFCF731
:1040A000E1F90022064BFCF7DAF9FCF7CBFA0549F7
:1040B000086310BDAC0200205C8FC2F5285CEF3FA6
:1040C000000079403009002010B5094C012902D0C8
:1040D000022904D006E003F01FF8206002E003F09C
:1040E0001BF86060D4E900010844A06010BD000026
:1040F000B8010020704730B58FB001210091022532
:10410000090400240795CDE90114CDE9081068469B
:10411000FDF738FC00B1FEE70F20CDE90A054FF4AA
:104120008060CDE90C4002210AA80E94FDF7F0FA58
:10413000002800D0FEE70FB030BD7047FDF77EBA13
:104140000D48016841F00101016041680B4A1140CE
:10415000416001680A4A11400160016821F4802130
:104160000160416821F4FE0141604FF41F0181604C
:104170000449C00308607047001002400000FFF8C7
:10418000FFFFF6FE08ED00E010B5104A04460E48A9
:10419000C2E900010020C2E9020410611046FEF7E6
:1041A0001BF90A49602078310C22086060084860D9
:1041B000022088600548FEF7A7F8BDE810400C21F2
:1041C0000248FEF759B900000004004050070020E3
:1041D00010B50A4C2068C068C043C00709D1084820
:1041E0000069804721680020486221686420C86215
:1041F000E06021686FF00100086110BD980B00209D
:104200005403002008490868C268D243D20705D188
:1042100042620A6842F20F70D062C86009686FF0AB
:1042200001000861704700008C070020F0B50268AB
:104230001A4D1B4E1B4FDFF870C01C4B4FF0804EC9
:10424000A84209D0984207D0704505D0B04203D0AB
:10425000B84201D0604503D122F070044A6822437D
:10426000A84209D0984207D0704505D0B04203D08B
:10427000B84201D0604503D122F44074CA68224399
:1042800002608A68C2620A688262A84201D09842CB
:1042900001D10969016301214161F0BD002C014098
:1042A0000004004000080040000C004000340140C1
:1042B00010B50123046A8B409C430462036A8A4060
:1042C0001343036210BD0000F0B5026A22F0010240
:1042D0000262026A43688469114E24F073050C6817
:1042E000104F2C4322F002058A682A43B04201D0C5
:1042F000B84205D122F00805CA682A4322F0040218
:10430000B04201D0B84205D14D6923F440731D433A
:104310008B692B4343608461496841630262F0BD4D
:10432000002C014000340140F0B5026A22F0100276
:104330000262026A436884690D6824F4E64444EA30
:1043400005248D6822F0200242EA05120F4D104E1E
:10435000A84201D0B04206D1CF6822F0800242EAE2
:10436000071222F04002A84201D0B04207D14D69A5
:1043700023F4406343EA85038D6943EA8503436080
:104380008461496881630262F0BD0000002C014035
:1043900000340140F0B5026A22F480720262026ABF
:1043A0004368C46922F4007224F073050C68124E4D
:1043B0002C438D6842EA05220E4DA84201D0B0423E
:1043C00006D1CF6822F4006242EA072222F480621A
:1043D000A84201D0B04207D14D6923F4405343EACB
:1043E00005138D6943EA05134360C4614968C163DD
:1043F0000262F0BD002C01400034014030B5026A79
:1044000022F480520262036A4268C4690D6824F48F
:10441000E64444EA05248D6823F4005343EA053357
:10442000084DA84202D0084DA84204D14D6922F49B
:10443000804242EA85124260C461496801640362B5
:1044400030BD0000002C01400034014001490860EB
:10445000704700004004004010B5064C012805D00C
:10446000002802D1FEF762FCE06010BD0148143064
:10447000FAE70000AC02002038B5114A04460D46A8
:10448000D06940F00400D061D069032200F004003C
:10449000009011461E20FDF709F91E20FDF7FAF8DD
:1044A000094A00210748C2E902141161C2E9000566
:1044B0001046FDF7E3FEBDE838400348FDF718BF9E
:1044C0000010024000080040980B00202DE9F04742
:1044D000DFF83C8000240746D8F800500E46A1467D
:1044E0000A200C6001F09EFED8F8000085420DD134
:1044F000002D0BD0074802E0015D3955641CAC4229
:10450000FADBD8F800103160C8F80090BDE8F087F9
:10451000D0020020AC0900208AB210B50146642305
:104520000348FEF7EBF903490020086010BD0000C6
:104530006C090020D0020020F0B50A4D002216467A
:10454000AB680A60AC68A3420BD1002B09D0064CC3
:1045500002E0A75C8754521C9A42FADBA868086004
:10456000AE60F0BDA40100204C0600208AB210B558
:10457000014664230348FEF7C1F90349002088601F
:1045800010BD00000C060020A40100200E4808B554
:1045900000680068C043800614D41E2301226946C7
:1045A0000948FEF7E5F809494868802806DA064B0D
:1045B0009DF8002040331A54401C48603C2801D12B
:1045C0000120087008BD000070080020A002002033
:1045D00070B52549064686B0886940F010008861AC
:1045E000886900F010000490C86940F40020C86198
:1045F000C8691E4C00F400200490081500900220A9
:1046000001900320039069462046FCF7A3FEE014C6
:104610000025CDE900050120029069462046FCF7FF
:1046200099FE144C12482060C4E90165E5600C2035
:104630002561C4E905052046E561FEF723F82068F9
:10464000C16821F04001C1602068C16841F02001CB
:10465000C1603420FDF71EF8032211463420FDF717
:1046600025F806B070BD00000010024000100140A7
:10467000004C004070080020F0B50C4D00231E4691
:104680006C6813608C4201DA1460F0BD6F68BC4244
:10469000FBD1002CF9D0064C02E0E75CC7545B1C50
:1046A0008B42FADB686810606E60F0BDA0020020EB
:1046B000B00800208AB210B5014664230348FEF713
:1046C0001DF903490020486010BD0000700800205B
:1046D000A00200200E4808B500680068C0438006AC
:1046E00014D40A23012269460948FEF741F8094912
:1046F0000868802806DA064B9DF8002040331A54DB
:10470000401C08603C2801D10120486008BD000021
:10471000C00A00200803002010B590F839102229A3
:1047200003D0322901D0022010BD8168B1F5805F2D
:1047300011D00169002901681FD0496801F07F0389
:10474000816A4A1C82620B70C18D491E0904090CE2
:10475000C18518D02FE00269816A002A0268526878
:1047600005D0D2B20A80816A491C8162ECE7C2F3AB
:1047700008020A80816A891CF7E74A68816A4B1C33
:1047800083620A70E0E70168CA6822F02002CA600A
:1047900090F83910322910D00168CA6822F480726A
:1047A000CA6001684A6922F001024A61012180F869
:1047B0003910FEF777F8002010BD1221F7E700004E
:1047C0002DE9F041044600680169E26821F4405196
:1047D00011430161A16820690143606901432068B8
:1047E000C26841F20C639A430A43C260206841697F
:1047F000A26921F44071114341614C49206864264B
:10480000322788423CD1FDF761F800EBC00101EB93
:10481000001061688900B0FBF1F5FDF757F800EB77
:10482000C00101EB00106168B8468900B0FBF1F0EF
:10483000B0FBF6F06FF01801484305EB800107EB81
:104840000110B0FBF6F000F0F005FDF73FF800EBCB
:10485000C00101EB001061688900B0FBF1F0B0FB12
:10486000F6F005EB0015FDF731F800EBC00101EBA8
:10487000001061688900B0FBF1F7FDF727F83BE015
:10488000FDF70CF800EBC00101EB00106168890036
:10489000B0FBF1F5FDF702F800EBC00101EB0010F1
:1048A0006168B8468900B0FBF1F0B0FBF6F06FF03C
:1048B0001801484305EB800107EB0110B0FBF6F04F
:1048C00000F0F005FCF7EAFF00EBC00101EB00107F
:1048D00061688900B0FBF1F0B0FBF6F005EB001564
:1048E000FCF7DCFF00EBC00101EB00106168890000
:1048F000B0FBF1F7FCF7D2FF00EBC00101EB0010B9
:1049000061688900B0FBF1F0B0FBF6F06FF01801C0
:10491000484307EB800108EB0110B0FBF6F021687B
:1049200000F00F0028448860BDE8F08100380140A5
:1049300090F83910122903D0322901D00220704793
:104940008168B1F5805F016A0BD04A1C026202687F
:1049500009785160C18C491E0904090CC1840ED02C
:1049600017E009880268C1F3080151600169002954
:10497000016A02D0491C0162ECE7891CFBE701686F
:10498000CA6822F08002CA600068C16841F0400134
:10499000C160002070472DE9F0471D4690460F4644
:1049A0000446FCF7D7FD06465FEA08004FF0000911
:1049B0004FF0010808D030E0681C05D095B1FCF735
:1049C000C9FD801BA8420DD82068006837EA0000A6
:1049D000F2D127E0681C20D025B1FCF7BBFD801B7D
:1049E000A8421AD92068C16821F08001C1602068FE
:1049F000C16821F02001C1602068C16821F4807184
:104A0000C1602068416921F00101416184F8398069
:104A100084F838900320BDE8F0872068006837EA02
:104A20000000D7D00020F6E710B50848FDF7BEFD1E
:104A30000648FDF7B8FD0128FAD1012204490348D0
:104A4000FDF7FBFE0028F8D110BD00001005002086
:104A5000100000200C4808B500680068C0438006BC
:104A600011D401231A4669460748FDF781FE07491C
:104A70000868B0F5827F06DA034B9DF800204033CA
:104A80001A54401C086008BD6C090020D0020020A8
:104A900038B5274800680068C043800637D4012332
:104AA0001A4669462248FDF763FE224B204A986861
:104AB0004032B0F5827F04DA9DF800101154401C9A
:104AC00098600121072807DB1478FF2C04D1547863
:104AD000E41D844200D1197004280ADD024412F852
:104AE000014C0A2C1BD112F8022C0D2A17D1597037
:104AF00015E014D10E484030C078402808D05E2818
:104B000005D10B48403080785E2800D1D97038BD7F
:104B10000748403080784028F9D1997038BD0A287C
:104B2000FCD103484030407A3B28F7D1197138BD99
:104B30000C060020A40100200149002008607047F5
:104B4000D00200200149002088607047A4010020A5
:104B50000149002048607047A00200200149002060
:104B6000086070470803002010B5FFF7EBFFFFF760
:104B7000E3FFFFF7F3FFBDE81040FFF7E9BF0000D8
:104B80002DE9F0410746002501222C48931E2C4EAA
:104B90002C46022F08D0032F2AD01D46052001F0F5
:104BA00041FB2846BDE8F08137788F4223D0317031
:104BB00071B101290FD0022912D0032913D01D464B
:104BC00070680028EAD0642001F02CFB7460E5E7EF
:104BD000C0F8B84101E0C0F8B821C0F8B441EFE72F
:104BE000C0F8B84101E0C0F8B821C0F8B421E7E747
:104BF00077788F4201D10020D4E7717071B101291B
:104C00000FD0022912D0032913D01D46B068002806
:104C1000C4D00A2001F006FBB460BFE7C0F88841A9
:104C200001E0C0F88821C0F88C41EFE7C0F8884166
:104C300001E0C0F88821C0F88C21E7E70000244299
:104C4000D8020020FEE70020704700000FB4054B9B
:104C500010B503A9044A029800F046FE10BC5DF8A6
:104C600014FB0000796200081400002010B5C0B2E7
:104C700000F072F80346BDE8104040F2C932024924
:104C800002A0FFF7E3BF0000518400085B455252C9
:104C90004F522025733A2564235D5B4D696E695D33
:104CA00025730D0A0000000010B51A4881684FF402
:104CB000FA70002903DCBDE81040FFF7C7BB0022F3
:104CC000B1F57A7F01DD104617E0814201DDFA205F
:104CD00013E0B1F5967F02DD4FF4AF700DE064296B
:104CE00002DD4FF4C87008E01E2902DD4FF4F070B9
:104CF00003E0142901DD40F2EF1004460346AC2224
:104D0000054906A0FFF7A2FF002C01D02046D2E7FC
:104D100010BD0000B80100206B8300085B25733ACA
:104D20002564235D73657420647574795F637963AA
:104D30006C653A25640D0A0002E008C8121F08C11C
:104D4000002AFAD170477047002001E001C1121F0C
:104D5000002AFBD1704700005A286ED2DFE800F02D
:104D60002D2F31333537393B3D3F41434547494B83
:104D70004D6D6D6D6D6D6D6D6D6D6D6D6D6D6D6D83
:104D80006D6D6D6D6D6D6D6D6D6D6D6D6D6D6D6D53
:104D90006D6D4F51535557595B5D5F616365676931
:104DA0006B6E70727476787A7C7E80828486939241
:104DB00091908F8E8D8C8B8A898833A0704735A017
:104DC000704737A0704739A070473BA0704743A099
:104DD000704746A070474BA0704750A0704755A041
:104DE00070475BA070475EA0704761A0704766A0E7
:104DF00070476DA0704770A0704773A0704778A08F
:104E000070477DA0704783A0704788A070478BA033
:104E1000704791A070479AA07047A2A07047A8A0C1
:104E20007047AEA07047B3A07047B7A07047BCA052
:104E30007047C0A07047C4A0704733E2C7A0FBE72B
:104E4000CEA0F9E7D3A0F7E7D8A0F5E7DDA0F3E718
:104E5000E0A0F1E7E3A0EFE7E9A0EDE7ECA0EBE7E6
:104E6000F1A0E9E7F3A0E7E7F6A0E5E7FBA0E3E7B9
:104E700016E213E210E20DE20AE207E204E201E2C6
:104E8000FEE1FBE1F8E1F5E14552524F525F545922
:104E9000504500004D4F56455F54595045000000A5
:104EA000504F5745525F5459504500005245535496
:104EB0005F5459504500000053454E445F434F4DE9
:104EC0004D414E445F414E445F574149545F4E4F00
:104ED00054425553595F54595045000044454C4184
:104EE000595F54494D455F54595045004F4E455FF9
:104EF0004445564943455F4D4F56455F54595045CB
:104F0000000000004F4E455F4445564943455F57FA
:104F10004149545F54595045000000004F4E455FD1
:104F20004445564943455F4745545F504F535F548E
:104F3000595045004F4E455F4445564943455F53E0
:104F400045545F4D41524B5F54595045000000009D
:104F50004745545F504152414D5F54595045000000
:104F60005345545F504152414D5F545950450000E4
:104F700053456C4543545F535445505F4D4F444532
:104F80005F54595045000000494E49545F4D4F54FD
:104F90004F525F53504545445F54454E53494F4E21
:104FA0005F545950450000004D4F56455F4D414EEE
:104FB000595F4D4F544F5200574149545F4D414E38
:104FC000595F4D4F544F5200434F4D4D414E445F3A
:104FD0005041434B4147455F4D4F544F52000000F5
:104FE0004745545F4C494748545F4C4556454C5FD4
:104FF00054595045000000004745545F414C4C5FF8
:105000004C494748545F4C4556454C5F54595045B0
:10501000000000004348454D494E4552545F43351A
:10502000325F4335355F54595045000050554D505F
:105030005F533130305F5459504500005745494760
:1050400048545F53454E534F525F5345545F4C494C
:105050004E455F54595045005745494748545F53A2
:10506000454E534F525F4745545F53494E474C4559
:105070005F524553554C545F545950450000000051
:105080005745494748545F53454E534F525F474534
:10509000545F414C4C5F524553554C545F545950EA
:1050A0004500000054454D50455241545552455F0E
:1050B00053454E534F525F4745545F545950450036
:1050C00054454D50455241545552455F53454E53FA
:1050D0004F525F5345545F5459504500454C45432A
:1050E00054524F4D41474E455449435F54595045E2
:1050F00000000000434F4E4E4543545F5445535407
:105100005F545950450000004745545F5745494793
:1051100048545F43555252454E545F4752414D00EB
:10512000524553545F4D4F544F525F4F5247494E73
:10513000000000004D4F544F525F4D4F56455F41A8
:105140004E445F57414954005345545F50554D50AC
:10515000533130305F5052455353000042414C416F
:105160004E43455F4348524F4D41544F4752415083
:105170004849435F434F4C554D4E00004752414410
:1051800049454E545F434F4E54524F4C5F42554633
:1051900046455200475241564954595F53454E5374
:1051A0004F525F53455454494E47000047524156B1
:1051B0004954595F53454E534F525F4745545449E4
:1051C0004E4700005343414E5F424152434F4445D6
:1051D0000000000050554D505F494E544552464125
:1051E00043450000524553545F494E4A4543544994
:1051F0004F4E5F4D4F444C55455F4D4F544F5200FD
:105200004C49515549445F53454E534F520000009D
:1052100050554D50533130305F5345545F464C4FDD
:105220005753504545440000524649445F494E4952
:1052300054000000524649445F444553544F52596C
:1052400000000000524649445F53454E445F5245BA
:1052500041445F434F4D4D414E4400005246494446
:105260005F524543454956455F494E4445585F5452
:10527000414700000CA0DFE510A0DDE513A0DBE551
:1052800017A0D9E51FA0D7E527A0D5E52AA0D3E52B
:105290002DA0D1E534A0CFE53AA0CDE53FA0CBE5E8
:1052A00045A0C9E54AA0C7E5524649445F47455471
:1052B0005F4550435F535452494E4700524649445C
:1052C0005F57524954455F45504300005246494498
:1052D0005F57524954455F424C414E4B000000001D
:1052E0004D494E495F54454D5045524154555245E4
:1052F0005F53454E534F525F4745545F5459504595
:10530000000000004D494E495F54454D5045524103
:10531000545552455F53454E534F525F5345545F6A
:105320005459504500000000504F4C4C494E475FC7
:105330004441544100000000504F4C4C494E475FDF
:105340005052455353000000454C454354524F4D75
:1053500041474E455449435F5041434B4147455FA8
:1053600054595045000000004D4F544F525F4D4F6F
:1053700056455F414E445F574149545F53454C4544
:1053800043540000524553545F4D4F544F525F4FAA
:105390005247494E5F53454C454354004F4E455F7D
:1053A0004445564943455F4D4F56455F53454C452F
:1053B00043545F54595045004D4F544F525F48413C
:1053C00052445F53544F505F53454C454354000083
:1053D000554E4B4E4F5720434F4D4D414E440000CC
:1053E0002DE9FF5F82B00021DDE90430020DDDF818
:1053F00040B0034318D044F61050A2F2FF324243AB
:105400001514119801281FD0A5EB0B00401C5FEA72
:10541000000A4FF000064E4FDFF83891B046504674
:1054200015D5CAF1000413E0119801244AA30128FC
:1054300001D16FEA0B010298119AC0E90031C0E96D
:10544000024206B0BDE8F09FCBF10000DFE7044662
:105450000021404A491842EB0450CDE9001012E007
:10546000E00707D032463B4640464946FAF7FAFF86
:105470008046894632463B4610461946FAF7F2FF07
:1054800006460F466410002CEAD1DDE90401DDE98F
:105490000023BAF1000F06DAFAF7E4FF42464B4662
:1054A000FAF7E0FF05E0FBF7F0F942464B46FBF761
:1054B000ECF904460E460022284BFBF76DFA03D8A0
:1054C0004FF0FF30014607E00022254B20463146D1
:1054D000FAF721FFFBF748FA102409E0002C0ADB59
:1054E0000A220023FBF7EAF8039B30321A55641EA8
:1054F00050EA0102F2D1641C039AC4F1110314446E
:10550000119A012A03D0012208430DD10AE0084371
:1055100004D000204FF0110B119072E7A3EB0B05A4
:105520006D1E0DE05B4504DD4FF0000205F1010545
:1055300004E003DA4FF00002A5F10105002AECD0E7
:1055400002981199C0E90231C0E9004579E70000ED
:10555000000014400000F03F300000000000F04365
:105560000000E03F222856D2DFE800F011131517A3
:10557000191B1D1F21232527292B2D2F31333537AB
:10558000393B3D3F41434547494B4D4F515323A084
:10559000704725A070472CA0704731A0704738A0F5
:1055A00070473DA0704740A0704746A070474AA092
:1055B00070474CA070474EA0704750A0704752A053
:1055C000704756A0704759A070475EA0704762A010
:1055D000704765A0704768A070476CA070476FA0C7
:1055E000704774A0704778A070477DA0704782A074
:1055F000704785A0704789A0704791A0704794A01C
:10560000704798A070479DA07047A1A07047A6A0C2
:105610007047ABA07047B0A070470000534C4546A0
:105620005F5445535400000046495253545F53544D
:105630004152545F434845434B5F53454E534F528D
:105640005F424F4152440000524553545F53454E10
:10565000534F525F424F4152445F4D4F544F52009F
:1056600046495253545F53544152545F4348454353
:105670004B5F4D4F544F525F424F41524400000028
:10568000524553545F4D4F544F525F424F41524425
:105690005F4D4F544F520000524553545F433535D0
:1056A0005F43353200000000524553545F4452417D
:1056B000494E5F414E445F574153485F4D4F544FF1
:1056C00052000000524553545F53414D504C455FCA
:1056D0004D4F544F52000000434C4541525F424CE5
:1056E000414E4B00434C4541524C5F574149540099
:1056F00052454144595F4E4558540000524541447B
:10570000595F4C45465400004C4546545F4D4F563A
:10571000455F544F5F574149540000005245535470
:105720005F484947485F574845454C0052455354E8
:105730005F5452414E53504F525445525F42454C74
:105740005400000052454143485F44454752454597
:105750005F574149540000004D49585F5343414E43
:105760005F534C4F570000004D49585F424C4F4F1C
:10577000445F48494748000042454C545F4D4F56EE
:10578000455F53414D4554494D4500004D49585FD3
:10579000574F524B5F474F544F0000004E4F524DF2
:1057A000414C5F50495443485F4D4F56455F4E450D
:1057B000585400004E4F524D414C5F424C414E4BAD
:1057C0005F524553540000004E4F524D414C5F46CE
:1057D000495253545F504F5349544F4E00000000FC
:1057E0004D49585F414E445F52454143485F504FD9
:1057F000534954494F4E00004249475F494E5F4F5D
:1058000055545F534C4F57004249475F494E5F4FD5
:1058100055545F4E4F524D414C0000004E4F524D7B
:10582000414C5F50495443485F4D4F56455F4E458C
:1058300058545F5448455F4C4153545F54574F0090
:105840004335355F4335325F434F4E4E4543540039
:105850004D4F544F525F55505F444F574E5F534C1E
:105860004F5700004D4F544F525F55505F444F57B4
:105870004E5F4E4F524D414C000000004C49545475
:105880004C455F494E5F4F55545F534C4F57000096
:105890004C4954544C455F494E5F4F55545F4E4FF1
:1058A000524D414C00000000424C414E4B5F4E4572
:1058B00058545F4D4F544F525F48494748000000CD
:1058C000424C414E4B5F4E4558545F4D4F544F52E2
:1058D0005F4E4F524D414C00554E4B4E4F5720435B
:1058E0004F4D4D414E4400002DE9FF4F95B09B4672
:1058F0008946064600250FE2252877D10024274651
:10590000F84A0121059400E0044316F8013F203BCA
:1059100001FA03F01042F7D130782A2811D06FF045
:105920002F033078A0F13002092A16D8059A44F0E6
:10593000020402EB820203EB42021044761C059043
:10594000EFE759F8042B0592002A03DA504244F499
:105950000054059044F00204761C30782E2816D1AD
:1059600016F8010F44F004042A280DD06FF02F021E
:105970003078A0F13003092B09D807EB870302EB3D
:105980004303C718761CF3E759F8047B761C30787C
:105990006C280FD006DC4C2817D068280DD06A2858
:1059A00014D104E0742810D07A280FD10DE044F40B
:1059B00000140AE044F4801401E044F440147278C6
:1059C000824202D104F58014761C761C3078662859
:1059D0000BD013DC582877D009DC002875D0452877
:1059E000F6D04628F4D047281AD19DE118E0632864
:1059F00035D0642879D0652812D195E1702873D00C
:105A000008DC6728F1D069286FD06E280DD06F2888
:105A100006D1B5E073282CD0752875D0782874D0BD
:105A20005A46179990476D1C75E1C4F3025002283D
:105A300009D003280DD0D9F8001004280DD00D602E
:105A400009F1040967E1D9F80010EA17C1E9005229
:105A5000F6E7D9F800100D80F2E70D70F0E719F8BD
:105A6000041B8DF8001000208DF80100EA4601208B
:105A700003E059F804AB4FF0FF3061074FF000012D
:105A800002D40DE008F101018846B9420FDA8045E1
:105A9000F8DB1AF808100029F4D108E008F1010138
:105AA00088468142FADB1AF808100029F6D10598D9
:105AB0005B46A0EB080721463846179A00F094FA97
:105AC000284400EB080507E04DE029E10DE01AF855
:105AD000010B5A4617999047B8F10108F7D25B4677
