:020000040800F2
:10000000400F0020450100081F220008E7200008DB
:1000100019220008BB080008414300080000000046
:10002000000000000000000000000000133700087E
:10003000010C000800000000452200083B3A0008BF
:100040005F0100085F0100085F0100085F01000810
:100050005F0100085F010008050C0008110C000892
:10006000170C00081D0C00085F0100085F01000864
:100070005F0100085F0100085F0100085F010008E0
:100080005F0100085F0100085F0100085F010008D0
:100090005F0100085F0100085F010008230C0008F1
:1000A0005F0100085F0100085F0100085F010008B0
:1000B0005F0100085F0100085F0100085F010008A0
:1000C0005F0100085F0100085F0100085F01000890
:1000D0005F010008A9400008D54000081141000850
:1000E0000B0C00085F0100085F0100085F010008B9
:1000F0005F0100085F0100085F0100085F01000860
:100100005F0100085F010008893A00085F010008EC
:10011000293C00085D3D00085F0100085F01000800
:100120005F0100085F0100085F0100085F0100082F
:10013000DFF80CD000F04AFB0048004745580008A3
:10014000400F00200648804706480047FEE7FEE7CC
:10015000FEE7FEE7FEE7FEE7FEE7FEE7FEE7FEE777
:10016000413A000831010008202A04DB203A00FA55
:1001700002F1002070479140C2F1200320FA03F3FE
:1001800019439040704710B5431A934209D283181F
:10019000881803E010F8011D03F8011D521EF9D262
:1001A00010BD40EA01039B0703D009E008C9121FF4
:1001B00008C0042AFAD203E011F8013B00F8013B21
:1001C000521EF9D210BDD2B201E000F8012B491E37
:1001D000FBD270470022F6E710B513460A460446E4
:1001E0001946FFF7F0FF204610BDF0B480EA010287
:1001F000D40F4200B2EB410F02D20246084611462C
:100200004A0042D0C30DDDB2C1F3C752AD1A202D52
:1002100035DAC1F3160141F4000204B15242C5F1CE
:10022000200602FA06F12A411044B3EBD05F23D036
:10023000C4B1012DA0EBC35009DCF0BC4FF000426B
:1002400002EAC352DBB200F5000000F033BA40000E
:1002500000F1807000EBC350A0F1807040EAD170D3
:10026000490009E0490841EAC071A0EBC35000F51C
:100270000000400800EBC350F0BC00F012BA61422D
:10028000012202EB4101001BF6E7F0BC704781F050
:100290000041AAE780F00040A7E780EA010210B51C
:1002A00002F00043400022D04A001FD0010E01EBB3
:1002B0001261C0F35600C2F3560240F4000042F44B
:1002C0000002A0FB022000047F39140400D0401C6F
:1002D00050EA124001D44000491EC2B20C0604EBA1
:1002E000D010401C4008802A02D003E0002010BD3E
:1002F00020F00100002900DA0020184310BD420060
:1003000005D0C0F3C7525242914201DC0020704731
:1003100000EBC15070472DE9FE4F804681EA030093
:10032000C00F0C46009021F0004123F00045B8EBCF
:100330000200A94105D24046214690461C460B4684
:10034000024623F00040104347D0270DC7F30A00B0
:10035000C3F30A510290401A019040286BDAC3F3AC
:10036000130040F4801B0098924620B10023D2EB8A
:10037000030A63EB0B0B01985946C0F1400250464B
:10038000FFF7F2FE06460D4650465946019A00F028
:1003900076F910EB08006141002487EA115284EAE3
:1003A000E7731A4340D0009A62B3019A012A4FEAD8
:1003B000075215DC001B61EB02014FF0004202EA1C
:1003C0000752CDE90042001C41F5801132462B4610
:1003D00000F0ADF903B0BDE8F08F40462146F9E7E3
:1003E000001B61EB0201001C41F5801300185B410A
:1003F0002018A2F5001747EB030140EAD570B619A3
:100400006D4111E06D084FEA360645EAC0754FEAC6
:100410000752001B61EB0201001C41F580114908E5
:100420004FEA30000019514132462B4603B0BDE877
:10043000F04F00F06DB90098012240000023D0EB8E
:10044000020263EBE073009821464FEAE074B8EBD8
:10045000000061EB0401E9E783F000435BE781F012
:10046000004158E72DE9FE4F81EA030404F00044FF
:1004700021F0004100944FF0000B23F0004350EABC
:1004800001045ED052EA03045BD0C3F30A54C1F303
:100490000A552C44A4F2F3340194A0FB0254C1F396
:1004A000130141F48011C3F3130343F4801301FBE0
:1004B000024400FB034E840A970A44EA815447EA47
:1004C0008357A4FB076802958D0A05FB07854FEA51
:1004D000932C04FB0C542705029D4FEA065847EA6B
:1004E0001637B5EB08056EEB070C870E920E47EA40
:1004F000811742EA8312A7FB0201B6EB0B0164EB02
:1005000000042B0D43EA0C335E1844EB1C50DA4612
:100510005146E7FB0201C5F313044FEA0B3343EAEC
:1005200014534FEA0432019C43EA0603A4F10C047D
:100530000294009CCDE900B400F0F9F803B0BDE8E6
:10054000F08F00200146F9E7C10F80EAE07008440F
:10055000CA079623002100F0ADB896230022114669
:1005600000F0A8B80EB5C10F80EAE0700844CA07D1
:10057000002140F233438DE80E000A460B4600F09E
:10058000D6F803B000BD20F00040C10DC0F3160046
:1005900040F400007F2901DA00207047962903DC2F
:1005A000C1F19601C840704796398840704701F004
:1005B000004330B421F0004150EA010206D00A0D98
:1005C000A2F56072C1F31301002A02DC30BC0020E6
:1005D0007047440F44EAC104C100E01830BC00EB8E
:1005E000C25000F05EB80000002801DBC0F10040FE
:1005F000002901DBC1F10041884270472DE9F05F1D
:100600000546002092469B46884606468146402481
:100610001BE0284641464746224600F020F8534654
:100620005A46C01A914110D3114618462246FFF788
:100630009BFD2D1A67EB01084F4622460120002141
:10064000FFF792FD17EB00094E41201EA4F10104B3
:10065000DFDC484631462A464346BDE8F09F202A63
:1006600004DB203A21FA02F00021704721FA02F35C
:10067000D040C2F120029140084319467047202A19
:1006800006DBCB17203A41FA02F043EAE07306E0BA
:1006900041FA02F3D040C2F12002914008431946CA
:1006A00070470029A8BF7047401C490008BF20F0D0
:1006B0000100704710B4B0FA80FC00FA0CF050EA68
:1006C000010404BF10BC704749B1CCF1200421FAE9
:1006D00004F411FA0CF118BF012121430843A3EBE4
:1006E0000C01CB1D4FEA00614FEA102042BF0020F1
:1006F00010BC704700EBC35010440029A4BF10BCCD
:100700007047401C490008BF20F0010010BC704732
:1007100010B5141E73F1000408DA401C41F1000109
:1007200092185B411A4301D120F0010010BD2DE960
:10073000F04D92469B4611B1B1FA81F202E0B0FA57
:1007400080F220329046FFF70FFD04460F4640EA44
:100750000A0041EA0B0153465A46084313D011469A
:1007600053EA010019D0C8F140025046FFF777FF65
:1007700005460E46504659464246FFF7F5FC0843EB
:1007800005D0012004E020463946BDE8F08D002068
:10079000054346EAE0762C4337430A986305E40AAA
:1007A000A0EB08000022FD0A44EA47540A3002D5B3
:1007B00000200146E9E7010510196941DDE9084516
:1007C00000196941BDE8F04DA2E70000064C074D55
:1007D00006E0E06840F0010394E807009847103411
:1007E000AC42F6D3FFF7A8FC706A0008906A0008D4
:1007F00070B58C1810F8015B15F0070301D110F8E3
:10080000013B2A1106D110F8012B03E010F8016B0F
:1008100001F8016B5B1EF9D12B0705D40023521E92
:100820000DD401F8013BFAE710F8013BCB1A921CFA
:1008300003E013F8015B01F8015B521EF9D5A142F8
:10084000D8D3002070BD00000349496819B1D1F820
:10085000F01001B10847FEE79C01002004494968F7
:1008600011B1896C01B1084740F61200FFF7ECBFE7
:100870009C01002070470000044B5B6813B1DB6CE7
:1008800003B1184740F61300FFF7DEBF9C010020BC
:10089000704710B5A0B000236A4606E0CC1A0444A5
:1008A00014F8014CD4545B1CDBB28B42F6D30A46DD
:1008B0006946FFF768FC20B010BDFEE700207047D6
:1008C00010B50024FFF7FAFF08B1392010BD00F081
:1008D00005F808B1382010BD204610BD0020704733
:1008E00030B501784278C378114482781A441144B3
:1008F000027911444279114482791144C279114438
:10090000027A1144427A1144827A1144C27A114423
:10091000C9B20A22B1FBF2F302FB13146423B1FB48
:10092000F3F503FB1515B5FBF2F2B1FBF3F130342F
:100930003032047342733031817330BD10B53122CF
:10094000024903A003F0ECFD002010BDCD680008B3
:100950005B25733A2564235D796F75206861766540
:100960002063686F6F736520446566696E65204219
:100970006F617264204F4B20696E205B636F6E66FF
:1009800069672E685D2E200D0A00000030B587B023
:10099000054600F01BF818220B496846FFF7F3FBE9
:1009A000094C103C94E80F0004F01CFFE8B201F081
:1009B0004BFCA4F1640002F019F807B00020BDE878
:1009C0003040FFF74BBF0000C40600202DE9F84F70
:1009D000054600200C46009028216048FFF7FAFBEE
:1009E0005E490022DFF878E10D70DFF878C15E4FD4
:1009F000DFF878A15E4B5F485F4E4FF008094FF07B
:100A00007E5B4A610C2D77D2DFE805F0A20617293C
:100A1000384646515B68789681F80490574A8A6058
:100A20008E61CA60C1E907634E62002C7FD0012C41
:100A300012D0022C12D1524879E081F804904F482C
:100A400088608E61C860C1E907634E484E620861E4
:100A5000012C01D0002C7DD1C1F810E07AE00A71A0
:100A60008B61C1E9073BC1F808C04B62C1E903C211
:100A700034B3012C5BD0022C59D06BE00A718F612A
:100A8000C1E9077BC1F808C04F62C1E903C0A4B344
:100A9000012C5FD13C484AE00A718F61C1E9077BB4
:100AA0003948C1F808C04F62C1E903C052E00A7179
:100AB00036488F61C1E90770354888604F62C86069
:100AC00035E081F8049033488861C1E90703C1F833
:100AD00008A0C1F80CA048622F4828E081F80490D3
:100AE0008E61C1E907632C48C1F808A0C1E903A0E1
:100AF0002A484E62DCB1BCE72AE02BE081F8049082
:100B000027488861C1E90703C1F808C0C1F80CC0D3
:100B1000486224B1012C09D0022C0AD01AE02148E5
:100B20008861C1E9070648621F4800E01F48086164
:100B300010E0C1F810A00DE00A711D4A8F61C1E9F3
:100B40000772C1F808A04F62C1E903A614B190E78B
:100B5000012000900098BDE8F88F0000B406002046
:100B60000000FA4400409C450000A04100803B4545
:100B70000000204100007A440000C84200606A463C
:100B80000080BB4500007A450000484300007041EA
:100B90000000484200003E430080BB4400803B44CC
:100BA000000016430000F042000016440000964486
:100BB0000000A04010B504F03DFD094809A10968F6
:100BC00040F8011F09A1096841600AA10968816014
:100BD00005F01AFE08B1002010BD012010BD000074
:100BE000E408002030463036000000003030364641
:100BF000000000003030303100000000002070475D
:100C000070477047062000F0E5B9282000F0E2B9EF
:100C1000072000F0DFB9042000F09EB8082000F0A3
:100C20009BB8172000F0D6B9F0B51D4885B0816992
:100C300041F001018161816901F001010491816943
:100C400041F040018161816901F0400104918169B5
:100C500041F0080181618069124E00F008000490A3
:100C600000223C21304600F07EF90F4F4FF47C7596
:100C700000222946384600F076F901243C20CDE9CF
:100C8000000469463046039400F072F8CDE9005440
:100C900069463846039400F06BF805B0F0BD0000DB
:100CA0000010024000180140000C01400148C068DB
:100CB000704700008402002001480078704700005F
:100CC00084020020022803D0032803D000207047AC
:100CD0000148704701487047713B0008B93B000864
:100CE000022803D0032803D0002070470148704732
:100CF00001487047993B0008ED3B00080020704711
:100D00000020704710B5044602F0BAFB0248D0E953
:100D10000010C4E9001010BD2C03002010B50446DB
:100D200002F0AEFB2046BDE8104018220149FFF753
:100D30002ABA0000280B00200020704700207047CE
:100D400031B500F015F9044600F012F90099001BC6
:100D50008842F9D338BD7047044910B50A68024289
:100D600002D00860FFF7F7FF10BD00001404014037
:100D70002DE9F84FDFF8BC91002309F1040A0AF1CC
:100D8000040B1C464FF00F080BF1040E01270A68F4
:100D9000A7403A40BA4272D1DFF89CC14D68A5EB3A
:100DA0000C0665452BD00DDC032D34D005DC35B3A6
:100DB000012D19D0022D2FD11BE0112D16D0122D8F
:100DC0002AD119E0B6F5881F19D006DCB6F5803FA8
:100DD00015D0B6F5801F1FD111E0B6F5001F0ED05B
:100DE000B6F5041F18D10AE0CB6815E0CB681B1DCF
:100DF00012E0CB6808330FE0CB680C330CE08B6853
:100E00002BB1012B4FF0080303D0476104E004230A
:100E100002E0076100E00023FF2A01D8064601E056
:100E200000F104064FEA840501D9A5F120053768D1
:100E300008FA05FC27EA0C0703FA05F547EA050757
:100E400037604D68ED006ED53C4DAE6946F0010649
:100E5000AE61AD6924F0030605F001050095384D3B
:100E60007719BE68A5072D0F08FA05FC26EA0C06BF
:100E7000DFF8D0C0604503D14FF0000C25E052E010
:100E8000DFF8C4C0604502D14FF0010C1DE0DFF86F
:100E9000BCC0604502D14FF0020C16E0DFF8B0C0D4
:100EA000604502D14FF0030C0FE0DFF8A8C06045A9
:100EB00002D14FF0040C08E0DFF89CC0604502D17D
:100EC0004FF0050C01E04FF0060C0CFA05FC4CEA63
:100ED000060CC7F808C04D68D9F80060ED034D4610
:100EE00001D5164300E096432E604D68DAF80060A5
:100EF000AD03554601D5164300E096432E604D687C
:100F0000DBF80060ED025D4601D5164300E0964334
:100F10002E604D68DEF80060AD02754601D51643BF
:100F200000E096432E60641C102CFFF42FAFBDE848
:100F3000F88F000000040140000011100010024072
:100F40000000014000080140000C01400010014079
:100F50000014014000180140001C01408068084056
:100F600000D0012070470AB1016170470904FBE716
:100F70000148006870470000040000200248016832
:100F8000491C01607047000004000020074810B5AC
:100F9000016841F010010160052000F051F80F20B8
:100FA00000F006F800F015F8002010BD0020024007
:100FB00010B5044600F016F94FF47A71B0FBF1F069
:100FC00000F0F2FD00222146501E00F019F800202A
:100FD00010BD704700F01F020121914040098000C0
:100FE00000F1E020C0F88011704700F01F020121DD
:100FF00091404009800000F1E020C0F800117047E6
:10100000F0B40E4B1B68C3F30223C3F10704042C96
:1010100000D904241D1D072D01D2002300E0DB1E92
:10102000012606FA04F56D1E0D409D409E40761E79
:10103000164045EA0601F0BC01F0F2B80CED00E004
:10104000064A00F0070110684FF6FF03184040EA17
:101050000120034908431060704700000CED00E0D8
:101060000000FA052DE9F047DFF8688104460E46D6
:10107000D8F8000000F00700B0420CD2D8F80010F9
:1010800021F007013143C8F80010D8F8000000F043
:101090000700B04273D120784F4F800705D578689C
:1010A000A16820F0F000084378602078C00755D090
:1010B0006068012201280CD0022828D0022393FA6C
:1010C000A3F1B1FA81F141F02001490904D0396856
:1010D00003E04FF40033F2E7796A93FAA3F3B3FA2B
:1010E00083F303F01F039A40114248D0796821F03E
:1010F000030101437960FFF73BFF0546606841F259
:10110000883101280CD00228894615D022E04FF002
:101110000073D4E7FFF72CFF411B494501D916E0C6
:1011200089467868C0F381000128F3D116E0FFF703
:101130001FFF411B49450AD87868C0F38100022887
:10114000F5D10BE0FFF714FF411B494502D90320FD
:10115000BDE8F087786810F00C0FF3D1D8F80010D4
:10116000404601F00701B1420BD9016821F00701A7
:1011700031430160006800F00700B04201D0012057
:10118000E6E72078400705D57868E16820F4E0605C
:10119000084378602078000706D57868216920F434
:1011A000605040EAC100786000F052F87968F0229F
:1011B00092FAA2F201F0F001B2FA82F2D140074AAB
:1011C000515CC840064908600F20FFF7F1FE00207F
:1011D000BEE700000020024000100240F96800084D
:1011E0000000002001480068704700000000002057
:1011F00008480949006849684FF4E06292FAA2F28F
:1012000001F4E061B2FA82F2D140044A515CC84074
:10121000704700000000002000100240096900082B
:1012200008480949006849684FF4605292FAA2F2EE
:1012300001F46051B2FA82F2D140044A515CC840D4
:1012400070470000000000200010024009690008FB
:1012500010B519A085B00FC88DE80F001AA01B4B60
:101260000068049059681A4801F00C02042A1DD045
:10127000082A1BD14FF4701494FAA4F401F47012EC
:10128000B4FA84F4E240C9031DF8022010D559686D
:101290004FF4003393FAA3F301F40031B3FA83F36C
:1012A000D94004AB595CB0FBF1F0504305B010BD20
:1012B00008485043FAE7000002030405060708093E
:1012C0000A0B0C0D0E0F101001020000001002405E
:1012D00000127A0000093D002DE9F84F044600781D
:1012E000FE4EC0074FF001057FD070684FF4003804
:1012F000C0F38100012807D07068C0F38100022884
:101300001BD17068C00318D598FAA8F0B0FA80F025
:1013100040F02000400901D0306800E0706A98FA7F
:10132000A8F1B1FA81F101F01F0105FA01F10842BB
:101330005BD06068002879D057E06068B0F5803FE6
:101340000BD010B1B0F5A02F11D0306820F4803050
:101350003060306820F4802002E0306840F4803053
:101360003060606818B3FFF703FE074609E0306895
:1013700040F480203060F0E7FFF7FAFDC01B6428DE
:1013800070D898FAA8F0B0FA80F040F02000400938
:1013900001D0306800E0706A98FAA8F1B1FA81F1E2
:1013A00001F01F0105FA01F10842E5D01DE0FFF749
:1013B000DFFD074604E0FFF7DBFDC01B6428DFD834
:1013C00098FAA8F0B0FA80F040F02000400901D06F
:1013D000306800E0706A98FAA8F1B1FA81F101F082
:1013E0001F0105FA01F10842E5D12078DFF8F0820B
:1013F00080074FF0000A4FF002075AD570684FF08F
:10140000F80B10F00C0F07D07068C0F381000228B1
:101410001CD17068C00319D497FAA7F0B0FA80F015
:1014200040F02000400902D0306801E08AE0706A94
:1014300097FAA7F1B1FA81F101F01F0105FA01F164
:1014400008422BD0206901287CD127E0206988B38D
:1014500095FAA5F0B0FA80F048F82050FFF788FD23
:10146000814606E04DE1FFF783FDA0EB090002286D
:1014700086D897FAA7F0B0FA80F040F02000400933
:1014800001D0306800E0706A97FAA7F1B1FA81F1F3
:1014900001F01F0105FA01F10842E4D030689BFA1F
:1014A000ABF220F0F8016069B2FA82F29040014399
:1014B000316025E0FFE795FAA5F1B1FA81F148F82E
:1014C00021A0FFF755FD814605E0FFF751FDA0EB98
:1014D00009000228CCD897FAA7F0B0FA80F040F0C3
:1014E0002000400901D0306800E0706A97FAA7F147
:1014F000B1FA81F101F01F0105FA01F10842E4D1CE
:10150000207800076DD5A069B8B395FAA5F0B0FAB8
:1015100080F008EB8000C0F88054FFF729FD814679
:1015200005E0FFF725FDA0EB09000228A0D897FAF7
:10153000A7F0B0FA80F040F06000B5EB501F02D188
:1015400030680CE063E197FAA7F0B0FA80F040F061
:101550006000B7EB501F01D1306A00E0706A97FA63
:10156000A7F1B1FA81F101F01F0105FA01F2104271
:10157000D7D00120FFF7E4FB33E0FFE795FAA5F1B0
:10158000B1FA81F108EB8101C1F880A4FFF7F0FC0A
:10159000814605E0FFF7ECFCA0EB0900022899D892
:1015A00097FAA7F0B0FA80F040F06000B5EB501F5A
:1015B00001D130680BE097FAA7F0B0FA80F040F064
:1015C0006000B7EB501F01D1306A00E0706A97FAF3
:1015D000A7F1B1FA81F101F01F0105FA01F2104201
:1015E000D8D12078400763D5F06940F08050F06191
:1015F000F069DFF8F0B000F080500090DBF80010E8
:1016000041F48071CBF80010FFF7B2FC814605E091
:10161000FFF7AEFCA0EB0900642872D8DBF80000ED
:10162000C005F5D5E06801280AD008B1052813D017
:10163000306A20F001003062306A20F0040002E0DD
:10164000306A40F001003062E06841F2883B80B3CC
:10165000FFF78EFC81460AE0306A40F004003062F9
:10166000EEE7FFF785FCA0EB0901594549D897FA49
:10167000A7F0B0FA80F040F04000B5EB501F01D168
:1016800030680BE097FAA7F0B0FA80F040F0400025
:10169000B7EB501F01D1306A00E0706A97FAA7F1EA
:1016A000B1FA81F101F01F0205FA02F10842D8D027
:1016B00033E0FFE7FFF75CFC814605E0FFF758FCED
:1016C000A0EB090159451CD897FAA7F0B0FA80F0B1
:1016D00040F04000B5EB501F08D105E0001002407B
:1016E000000042420070004030680CE097FAA7F01A
:1016F000B0FA80F040F04000B7EB501F02D1306AE2
:1017000001E08AE0706A97FAA7F1B1FA81F101F07D
:101710001F0205FA02F10842D0D1E06998B371685E
:10172000C1F38101022972D002284FF080714FF07D
:10173000007B50460AD091FAA1F1B1FA81F148F844
:101740002100FFF715FC04465F4669E08A4691FADE
:10175000A1F1B1FA81F1C14648F82100FFF708FC78
:10176000A84607465D4604E0FFF702FCC01B0228BE
:1017700053D895FAA5F0B0FA80F040F02000400967
:1017800002D0306801E060E0706A95FAA5F1B1FA24
:1017900081F101F01F0208FA02F10842E4D1206A47
:1017A000B0F5803F05D17068A16820F4003008438F
:1017B0007060D4E908010843716821F4741108438A
:1017C00070609AFAAAF0B0FA80F0474649F8208093
:1017D000FFF7CEFB044604E0FFF7CAFB001B02281C
:1017E0001BD895FAA5F0B0FA80F040F0200040092F
:1017F00001D0306800E0706A95FAA5F1B1FA81F184
:1018000001F01F0107FA01F10842E5D01DE01EE0DA
:10181000FFF7AEFB001B022802D90320BDE8F88FBA
:1018200097FAA7F0B0FA80F040F02000400901D00C
:10183000306800E0706A97FAA7F1B1FA81F101F01F
:101840001F0105FA01F10842E2D10020E6E701207C
:10185000E4E7000010B5040003D094F8510010B183
:1018600004E0012010BD204600F038F8022084F882
:1018700051002068016821F040010160D4E90101B4
:101880000843D4E903121143084361690843218BDB
:1018900001F400710843E1690843216A0843A16A21
:1018A000084321680860A069042101EA1040616AC8
:1018B0000843216848602168E06A08612068C169BE
:1018C00021F40061C16104490020087060650120B5
:1018D00084F85100002010BD0800002070472DE959
:1018E000F8430026DDF820800446ADF8006090F84B
:1018F0005100012803D094F8510022287DD169B10C
:1019000062B15BB194F85000012876D0012784F8C9
:10191000507094F85100012803D005E00120BDE883
:10192000F883322084F851006665A263A387E387B9
:101930002163A386E386A664E664A06A4FF400559B
:10194000A84209D12068016821F400510160206893
:10195000016841F40051016020680168490603D420
:10196000016841F040010160E0684FF48271B0F518
:10197000006F606807D0002867D088426ED1E08E83
:10198000012862D06AE020B188420CD1E08E0128A3
:1019900009D1206B21680088C860206B801C2063FF
:1019A000E08E401EE086E08E80B9A06AA84244D155
:1019B0002068016841F4805101603EE02068C06801
:1019C000A16B0880A06B801CA0639EE043460022B0
:1019D0000221204601F04AFE002874D1206B2168C4
:1019E0000088C860206B801C2063E08E401E0004CD
:1019F000000CE08609D1A06A00E0C7E0A84204D14B
:101A00002068016841F480510160434600220121B1
:101A1000204601F02BFE00286FD12068C068A16B22
:101A20000880A06B801CA063E08F401EE087E08EE2
:101A30000028CBD1606800286AD1434600220121EA
:101A4000204601F013FEF0BBB8E7206B411C216378
:101A500021680078C860E08E401EE086E08E98B96C
:101A6000A06AA84204D12068016841F48051016055
:101A7000434600220121204601F0F8FD18BB2068F2
:101A8000C068A16B087040E0434600220221204656
:101A900001F0ECFDB8B9206B411C2163216800788E
:101AA000C860E08E401E0004000CE08607D1A06AEA
:101AB000A84204D12068016841F4805101600022ED
:101AC0004346012100E018E0204601F0CFFDA0B917
:101AD0002068C168A06B421CA2630170E08F401EA9
:101AE000E087E08E0028CFD1606888B943460022A5
:101AF0000121204601F0BAFD08B103200FE720685C
:101B0000C168A06B421CA2630170E08F401EE08799
:101B1000A06AA84210D1434600220121204601F0CC
:101B2000A5FD18B1606D40F002000FE02068C068AC
:101B3000ADF80000BDF80000434601228021204698
:101B400001F094FD20B1606D40F010006065D4E7B5
:101B500084F85170A06AA84214D120688168C943F2
:101B6000C9060FD4616D41F002016165016821F47D
:101B7000005101602068016841F40051016084F85F
:101B80005060CBE684F850600020C8E60220C6E62C
:101B90004FF0E0210428086903D020F00400086118
:101BA000704740F00400FAE710B5401EB0F1807FA6
:101BB00001D3012010BD4FF0E02460610F216017B8
:101BC00000F02EFB0020A06107202061002010BD46
:101BD00010B50268044631B1042908D0082920D084
:101BE0000C2908D121E0D06840F0020002E0D06862
:101BF00040F00400D0600122206801F059FF0D4937
:101C00002068884202D00C49884203D1416C41F4DB
:101C1000004141642068016841F001010160002039
:101C200010BDD06840F00800E4E7D06840F0100034
:101C3000E0E70000002C01400034014010B50268CC
:101C4000044631B1042908D008292FD00C2908D125
:101C500030E0D06820F0020002E0D06820F00400FC
:101C6000D0600022206801F023FF144841F21112D5
:101C700021689310814202D01148814209D1086A3B
:101C8000104206D1086A184203D1486C20F4004083
:101C900048642068016A114206D1016A194203D1E1
:101CA000016821F001010160002010BDD06820F022
:101CB0000800D5E7D06820F01000D1E7002C0140E3
:101CC00000340140704790F83900704738B5044639
:101CD00000680168C268C1F3000102F4807221B19A
:101CE0001AB1E16B41F00101E1630168C1F3400207
:101CF000416901F0010122B119B1E26B42F0040225
:101D0000E2630268C2F3800222B119B1E26B42F0D1
:101D10000202E2630268C2F3C00222B119B1E16BB0
:101D200041F00801E1630168C068C1F3401100F0AF
:101D3000200019B110B1204602F02EF82068016889
:101D4000C068C1F3C01100F0800019B110B1204685
:101D500002F02EF921680868CA68C0F3801002F00A
:101D60004002012568B162B1CA68204622F04002F3
:101D7000CA6094F83910322910D080F8395000F038
:101D8000B1F9E06B002808D0206801684068009035
:101D900084F839502046FFF795FF38BD222180F89E
:101DA0003910ECE770B5040004D094F83900002530
:101DB00010B106E0012070BD84F83850204600F0D4
:101DC00021F8022084F839002068C16821F400510C
:101DD000C160204602F034F82068016921F4904186
:101DE00001612068416921F02A0141612068C168D0
:101DF00041F40051C160E563012084F839000020FE
:101E000070BD000010B500681E4986B0884236D10A
:101E10001D48816941F004018161816901F004017B
:101E20000491816941F480418161816901F48041BB
:101E30000491816941F0010181618069134C00F0D6
:101E4000010004904FF400700090022001900120E6
:101E500002900320039069462046FEF789FF211572
:101E600000910021019169462046FEF781FF25205F
:101E7000FFF7BBF8032211462520FFF7C1F806B093
:101E800010BD000000380140001002400008014071
:101E90002DE9F047044690F8390099460D4601288F
:101EA00001D0122857D125B31AB394F8380001286D
:101EB00051D0012684F838600027E76394F8390090
:101EC000122819D0222084F83900A285E2854FF427
:101ED0008058E08D4B46401EE085A0684FF0000220
:101EE00040454FF02001204616D102F094F8B0B9D9
:101EF00004E00120BDE8F0873220E4E720690028F3
:101F00002068406803D0C1B225F8011B12E0C0F37D
:101F1000080125F8021B0DE002F07DF808B103204E
:101F2000E8E7206900282068406801D000F07F00C1
:101F300005F8010BE08D0028CBD194F83900322848
:101F400005D084F8396084F838700020D2E7122078
:101F500084F83900F7E70220CCE790F83930012BFC
:101F600001D0122B2BD131B32AB390F83830012B8A
:101F700025D0012380F8383081628285C285002116
:101F8000C16390F83920122A17D0222280F8392014
:101F900080F838100168CA6842F48072CA6001682B
:101FA0004A6942F001024A610068C16841F02001BB
:101FB000C16000207047012070473222E6E702200E
:101FC0007047000030B50068114988420CD1114AB1
:101FD0005088010408D41146440409784FF00003E6
:101FE00006D50A2901D0538030BD40F400400DE0F1
:101FF0000D2909D0C0F30D04074D401C80B22955AE
:102000005080C728EFD830BD40F48040508030BDAC
:102010000038014010000020380300202DE9F0476F
:10202000044690F8390099460D46012801D022282F
:1020300056D125B31AB394F83800012850D00126A0
:1020400084F838600027E76394F83900222819D013
:10205000122084F83900A284E2844FF48058E08C86
:102060004B46401EE084A0684FF0000240454FF010
:102070008001204613D101F0CEFF08BB04E001200F
:10208000BDE8F0873220E4E728882168C0F3080023
:102090004860206908B16D1C08E0AD1C06E001F045
:1020A000BAFF68B9216815F8010B4860E08C002878
:1020B000D5D14B4600224021204601F0ACFF08B1AB
:1020C0000320DDE794F83900322805D084F8396020
:1020D00084F838700020D3E7222084F83900F7E72D
:1020E0000220CDE77047FEE77047000010B53B22A5
:1020F000114912A002F014FA02F028F802F04CF88C
:10210000FEF792FD42220C4915A002F009FA0120C7
:1021100001F06AF918480068006880473C234622AD
:10212000054916A002F0FCF91F48416821F0E06162
:1021300041F00071416010BDE76800085B25733A0B
:102140002564235D737461727420496E69745F4203
:102150006F6172645F436F6E6669672E200D0A00BF
:102160005B25733A2564235D696E69742070756D13
:10217000702E200D0A000000B00200205B25733A8B
:102180002564235D5B48756D6D696E676269726475
:102190005D2C70726F746F636F6C2073697A653A2F
:1021A00025640D0A00000000000001400020704777
:1021B0007047000010B500210220FEF783FD064C99
:1021C000002120600220FEF78BFD60600021BDE849
:1021D0001040022002F04CB8FC020020704710B5FD
:1021E0000224012003F052FA204610BD02480021CB
:1021F0000180817070470000A80100200020704716
:10220000034A01EB011102EB41012222FDF7BBBFA2
:102210001309002000207047FEE7704770477047A1
:102220000907090E002806DA00F00F0000F1E0208F
:1022300080F8141D704700F1E02080F8001470470A
:1022400000207047704700000548064982684A60D0
:1022500082890A8002688A6080884880704700000E
:10226000580400209001002010B5FEF776F9BDE873
:1022700010400149FEF711B8A5D4684110B50549D1
:10228000FEF70BF84FF07C51FDF7AFFFFEF77BF93F
:1022900080B210BDCCBC8C3D014988607047000005
:1022A0001800002001490861704700001800002054
:1022B0000149C860704700001800002010B50549AA
:1022C000FDF7EBFF4FF07C51FDF78FFFFEF75BF959
:1022D000C0B210BD00601F4410B5FEF73EF9BDE866
:1022E00010400149FDF7D9BF679ACD3A082101484E
:1022F000FEF734BE0014014010B5012003F0D4F9FC
:102300000348012201884068BDE81040FEF72BBE5B
:1023100090010020054810B5018800224068FEF7B2
:1023200022FEBDE81040012003F0BEB9900100205C
:1023300072B6704762B6704704210148FEF70EBEC0
:102340000014014008B5002838D11D48816941F4C6
:1023500080718161816901F480710091816941F02E
:1023600080018161816901F080010091816941F002
:1023700040018161816901F040010091816941F072
:1023800020018161816901F020010091816941F0A2
:1023900010018161816901F010010091816941F0B2
:1023A00004018161816901F004010091816941F0BA
:1023B00008018161806900F00800009008BD0000FC
:1023C00000100240704700000248012241888068E6
:1023D000FEF7C9BD900100207047000002480022AE
:1023E00041888068FEF7BFBD900100207047000063
:1023F0000D480C49012201602021C1614261002188
:102400008160022202610722C0E90A12C1604FF412
:1024100000720162826141624FF482714160FFF794
:1024200019BA000000300140680400202DE9F8438B
:1024300090460D460646FFF76DFF00244FF4805985
:102440000CE001232A4631460848CDF80090FFF7FA
:1024500046FA070004D1641C6D1C761C4445F0D379
:10246000FFF74AFF3846BDE8F88300006804002003
:1024700010B50446FEF7ECFEA101B0FBF1F00749F0
:10248000401E0A68D062C860096840088863BDE8D9
:10249000104004210148FFF79BBB0000C00400204E
:1024A00004210148FFF7CABBC004002010B5054C49
:1024B000A068002804D0012161708047002060706E
:1024C00010BD00001800002010B5FFF70FFF08B185
:1024D000002010BD012010BD10B5FFF72DFF08B181
:1024E000002010BD012010BD2DE9F05F3C4A8A4656
:1024F0000024917881426FD99178DFF8E8B0081A0A
:10250000401EC4B20AF0FF01002041F020059046B1
:102510000BF10C090027464688F8007008B1FFF758
:1025200009FFB04600205E460CE031183754CF70EA
:102530008F714F7209F8007009EB0001401CCF70D9
:102540008F714F7298F802108842EED35046BAF15C
:10255000070F2AD008DCBAF1070F15D2DFE80AF01E
:10256000142225222225250018281ED007DC082841
:102570001BD00D2819D0BAF1150F05D115E01A2876
:1025800013D0BAF11B0F10D0301901278571FFF756
:10259000CFFE98F8001001200029BBD1C7F1030538
:1025A0004F460DE035550327F1E730190227C57076
:1025B000EDE705EB4500C119304400F0F1FE6D1C5C
:1025C000042DF6D33919C8788A79000440EA022428
:1025D000487A0443FFF7AEFE2046BDE8F09F0000B6
:1025E00018000020400400202DE9F041234C002574
:1025F000A17881423ED9A178214F081A401EC5B268
:102600000020804607F10C0684F8008008B1FFF72F
:1026100091FE002012E0391807F8008081F803804D
:1026200081F8068081F8098006F800803118401C86
:1026300081F8038081F8068081F80980A1788842BA
:10264000E9D3D0207855FFF773FE217801200029C7
:10265000DAD1002404EB44008119384400F0A0FED4
:10266000641C032CF6D370198179C07841EA0025E7
:10267000FFF760FE2846BDE8F0810000180000204A
:10268000400400200022702100F0B4BA002278211A
:1026900000F0B0BA0A46602100F0ACBA41F068011F
:1026A00000F0A8BA114341F082011A4600F0A2BA24
:1026B0000022A82100F09EBA0022B82100F09ABAA8
:1026C00041F0400100F096BA0022114600F092BAA3
:1026D000114341F09201002200F08CBA0022C02187
:1026E00000F088BA0022D82100F084BA41F05001ED
:1026F00000F080BA2DE9F05F8B46384916468A789B
:10270000824268D98A78DFF8D8A0101A401EC4B275
:102710000020C6F307280BF0FF058946002789F83B
:10272000007008B1FFF706FE0020524605E017547E
:102730001118401CCF708F714F7299F802108842A7
:10274000F5D35846BBF1070F32D008DCBBF1070FB9
:1027500013D2DFE80BF012252D25122D2D001528A0
:1027600026D005DC082823D0BBF10D0F05D11FE0D2
:1027700018281DD0BBF11A0F1AD010190127857126
:102780000AEB04004672FFF7D3FD99F80010012010
:102790000029C3D1124EC7F1030455460C3614E08C
:1027A000310C10191555C17080F806800327E7E732
:1027B00010190227C57080F80680E1E704EB440099
:1027C0008119284400F0ECFD641C042CF6D3BDE80C
:1027D000F05FFFF7AFBDBDE8F09F000018000020DC
:1027E000400400200022A02100F004BA0022B02101
:1027F00000F000BA41F05801002200F0FBB981025C
:1028000004D5C043401CC0F315004042704700008F
:102810000249096901B10847FEE7000018000020DD
:1028200010B5FDF79AFE0449FDF7DFFCBDE8104046
:102830000249FDF732BD000077BE7F3F002474419E
:1028400010B50349FDF729FDFDF79DFE80B210BDCF
:10285000BD37863D70B50020104D014605F10C06D0
:10286000D0230F4C0BE02A182B54D1709171517268
:1028700031543218401CD17091715172C0B2A2789B
:102880009042F0D3002404EB44008119284400F066
:1028900087FD641CE4B2032CF5D370BD4004002016
:1028A0001800002010B5054CE068002804D0012174
:1028B000617080470020607010BD0000180000208B
:1028C00070B50D4606461621FFF70EFE40F3C00414
:1028D00029463046641CFFF707FE162D3FD2DFE87D
:1028E00005F03E0B3E0B13101016192C2C2C2C232C
:1028F000333535263E29291EFFF781FFFDF724FEDB
:102900002AE0FFF7B1FC27E000F0C6FC24E000F06D
:10291000D5F821E0C0F30B0000F0E8F81CE0C0F3AC
:102920000900FFF77DFF17E000F072F814E000F0F7
:10293000A0F811E000F0BAFC0EE014B100F0B4F819
:102940000AE000F005FD07E03CB100E014B1FFF73C
:10295000C3FC01E000F0CEFC0646304670BDFDF73A
:10296000FCFDF9E7084A0146002093788B4209D91B
:102970009078401A401E0549C0B208448179C07859
:1029800041EA002070470000180000204C0400209D
:10299000004870470005010010B50321FFF7A4FDB2
:1029A000BDE81040FFF72BBF01488078704700005A
:1029B0001800002010B50121FFF796FDBDE810407A
:1029C000FFF71DBF084810B50079FFF7BBFCFFF704
:1029D0000FFDFFF7F7FCFFF709FD012002F056FE9F
:1029E000BDE81040FFF7F8BC1800002010B550B14A
:1029F0000146002000F048FA0020FFF759FEBDE82C
:102A00001040FFF727BF002000F076FBF4E700003E
:102A100010B5FDF7A2FDBDE810400149FDF73DBC32
:102A2000D923743D10B50549FDF737FC4FF07C51B3
:102A3000FDF7DBFBFDF7A7FD80B210BDBD3786417A
:102A400010B5FFF7D1FD800701D4012010BD002093
:102A500010BD10B54FF07E51FDF719FC0521FDF7B3
:102A60004EFC4FF07C51FDF7C0FBFDF78CFDC0B272
:102A700010BD10B5FDF771FD6FF00401FDF73FFCCF
:102A8000BDE810404FF07E51FDF7AFBB10B50549D2
:102A9000FDF703FC4FF07C51FDF7A7FBFDF773FD3D
:102AA000C0B210BD0AD7234010B5FDF756FDBDE8F2
:102AB00010400149FDF7F1BB0000C83E10B5FDF71D
:102AC0004CFDBDE810400149FDF7E7BB002474410F
:102AD00010B50549FDF7E1FB4FF07C51FDF785FB93
:102AE000FDF751FD80B210BDBD37863D10B5FDF735
:102AF00034FDBDE810400149FDF7CFBB0024743E12
:102B000010B50549FDF7C9FB4FF07C51FDF76DFB92
:102B1000FDF739FD80B210BDBD378640144B10B5AE
:102B20009C7884421AD99B78124C181A401EC3B262
:102B300001F0FA00682812D006DC40280FD0502897
:102B40000DD0602804D10AE0822808D08A2806D057
:102B50000022E018E254C2708271417210BDE1544B
:102B6000E018110CC170110A8171427210BD000091
:102B700018000020400400200148808870470000B1
:102B80001800002010B51B21FFF7AEFC80B210BD6D
:102B9000FFF71ABCFFF722BC70B50546082927D2FB
:102BA000DFE801F00406080A0C0E101200240CE005
:102BB00001240AE0022408E0032406E0042404E0DF
:102BC000052402E0062400E007242846FFF770FDF4
:102BD00016212846FFF788FC00F0F8022243162150
:102BE0002846FFF787FD2846FFF77CFD012070BDD2
:102BF000002070BD2DE9F05F0E46304914468A78FA
:102C0000824258D98A784FF00009101A401EC5B286
:102C10004846CB468A46D84657468AF800B008B19F
:102C2000FFF788FB4246B8460020254F05E03A549E
:102C30003918401CCA708A714A7298F8021088428A
:102C4000F5D306F0FA0068281CD006DC40281BD01B
:102C5000502819D0602804D114E0822814D08A2882
:102C600012D078197A55C27082714672FFF760FBF4
:102C700098F8001001200029CDD1114DC9F10304AD
:102C80000C3512E0C4F3150478197E55210CC1707F
:102C9000210A817144724FF00309E7E704EB440015
:102CA0004119384400F07CFB641C042CF6D3BDE8C9
:102CB000F05FFFF73FBBBDE8F09F00001800002069
:102CC0004004002070B5074D0024A5F10C0604EB6C
:102CD00044004119304400F063FB641CE4B2042C4E
:102CE000F5D370BD4C0400202DE9F0410E46154689
:102CF000804601241621FFF7F7FB40F3C000594A34
:102D0000401C954204D3012E02D0032E00D0002493
:102D10005549162E22D2DFE806F021290B29213D44
:102D20003D444B7D7D7D7D678B8E8E6E2177775800
:102D30004E48854212DC15F0FF4F11D016210020BD
:102D4000FFF7D2FB00F00700C0F107010120884027
:102D5000FDF7FAFB2946FDF747FC01D2002477E096
:102D60002846FDF710FCC0F308026CE04FF4001792
:102D7000954207D385F00040FDF705FCB842EDD839
:102D8000404204E02846FDF7FEFBB842E6D2C0F31D
:102D9000150258E036488542E0DC2846FFF76EFA17
:102DA00050E034488542D9DC2846FFF791FE49E0DF
:102DB00031488542D2DC31464046FFF795FB00F4AE
:102DC00080572846FFF79CFE0BE02C488542C5DC67
:102DD00031464046FFF788FB00F480672846FFF73E
:102DE0002FFD47EA00022EE025488542B6DC284642
:102DF000FFF718FE26E0A5F17E50B0F5701FADD8A4
:102E00002846FFF726FE1DE08D42A7DC284600F08D
:102E100059FA17E030B1B5F5000F9FDA2846FFF7F1
:102E200035FE0FE08D4299DC284600F07DFA09E07E
:102E3000002893D000E070B1124885428EDC28460D
:102E4000FFF73CFA02461CB131464046FFF752FC00
:102E50002046BDE8F081B5F1854F9DDC284600F0A5
:102E600053FAEFE70000808000007A440080FF43BF
:102E700000C6684700E87346331374440024744660
:102E800000207444CDCCCC3E70B50C4605460022E3
:102E90000121FFF72FFC002202212846FFF72AFC20
:102EA000002203212846FFF725FC6068FFF7E6F9BA
:102EB000024605212846FFF71DFCA068FFF7DEF952
:102EC000024606212846FFF715FCE068FFF700FEE2
:102ED000024607212846FFF70DFC2069FFF7F8FDA1
:102EE000A18A40EA010208212846FFF703FCA069F5
:102EF000FFF7A6FCA18B40EA010215212846FFF747
:102F0000F9FB206A00F0DEF9024613212846FFF79C
:102F1000F1FB94F8252020781621024394F8240030
:102F200002432846FFF7E6FB94F82620172128469F
:102F3000FFF7E0FB94F8272094F82A00A18D0243C4
:102F4000208D0843024318212846FFF7D3FB94F84D
:102F50002E2094F82F00192102432846FFF7CAFBC0
:102F6000207800284DD054F8300F00F0DDF90246EB
:102F700009212846FFF7BEFB606800F0D5F902463C
:102F80000A212846FFF7B6FBA06800F0CDF90246FB
:102F90000B212846FFF7AEFBE06800F0C5F90246BA
:102FA0000C212846FFF7A6FB227C607C0E21024301
:102FB0002846FFF79FFB606900F0A6F902460F2143
:102FC0002846FFF797FBA06900F09EF90246102102
:102FD0002846FFF78FFB227F607F94F82010024382
:102FE000A07F08430243608C0243A08C0243E08C24
:102FF0000243208D02432846BDE870401A21FFF7A6
:1030000079BB206CFFF70EFD02460D212846FFF725
:1030100071FB206DFFF71DFD024611212846FFF7C9
:1030200069FB606D00F04EF9024614212846FFF757
:1030300061FB206BFFF72AFD024609212846FFF7B6
:1030400059FB606BFFF722FD02460A212846FFF775
:1030500051FBA06BFFF71AFD02460B212846FFF734
:1030600049FBE06BFFF712FD02460C212846FFF7F3
:1030700041FB606CFFF722F902460E212846FFF75C
:1030800039FBA06CFFF71AF902460F212846FFF71B
:1030900031FBE06C3C34FFF711F902461021284661
:1030A000FFF728FB227F607FE17F0243A07F084378
:1030B0000243208C0243608C0243A08C0243E08CCC
:1030C00098E770B50D4604460121FFF70DFA421B43
:1030D0002046BDE870400121FFF70CBB0A460321E2
:1030E000FFF708BB032803D8024988700120704706
:1030F00000207047180000202DE9F14F0022012127
:103100000098FFF7F7FA002202210098FFF7F2FA81
:10311000002203210098FFF7EDFA574E574FDFF8D2
:103120006081DFF86091DFF860B1584C584D00982D
:103130004FF07E5A18B1012801D002287ED13046C6
:10314000FFF79CF8024605210098FFF7D3FA3046B6
:10315000FFF794F8024606210098FFF7CBFA3846AD
:10316000FFF7B6FC024607210098FFF7C3FA0020DC
:10317000FFF7C6FC024608210098FFF7BBFA40465D
:10318000FFF75EFB024615210098FFF7B3FA08220D
:1031900013210098FFF7AEFA042216210098FFF7DA
:1031A000A9FAEF2217210098FFF7A4FAC3221821E9
:1031B0000098FFF79FFA402219210098FFF79AFA2A
:1031C0004846FFF72FFC02460D210098FFF792FAC0
:1031D0005046FFF73EFC024611210098FFF78AFA9D
:1031E000584600F06FF8024614210098FFF782FA63
:1031F0002046FFF74BFC024609210098FFF77AFAB8
:103200002046FFF743FC02460A210098FFF772FAB6
:103210002046FFF73BFC02460B210098FFF76AFAB5
:103220002046FFF733FC02460C210098FFF762FAB4
:103230001848FFF743F802460E2100E01AE0009814
:10324000FFF758FA2846FFF739F802460F21009891
:10325000FFF750FA2846FFF731F802461021009890
:10326000FFF748FA0098BDE8F84F42F608621A21C5
:10327000FFF740BABDE8F88F0080114400004844D1
:103280000000C8434A0C764200D0044400002041AC
:10329000751F803D2D431C3D10B5FDF75EF9BDE85F
:1032A00010400149FCF7F9BF0024743C10B5401CE4
:1032B000FDF753F9BDE810400149FCF7EEBF0000EF
:1032C0000000FA4110B50749FCF7E1FF0649FCF799
:1032D000E4FF4FF07C51FCF788FFFDF754F9C0B2D2
:1032E00010BD00000000FA416F12033DFFF7C0B8A7
:1032F000FFF7D6B810B5401CFDF72FF9BDE8104018
:103300004FF0FF31FCF7FBBF10B54FF07C54214666
:10331000FCF7BDFF0121FCF7F2FF2146FCF765FF3A
:10332000FDF731F9C0B210BD10B50749FCF7AFFF8A
:103330000649FCF7B2FF4FF07C51FCF756FFFDF752
:1033400022F9C0B210BD00000000FA406F12033E27
:1033500010B5401CFDF701F9BDE810400149FCF72C
:103360009CBF00000000FA4070B5084E00252C46B6
:1033700005E02046FFF764FB0543641CE4B2B07827
:103380008442F6D3002DF1D170BD0000180000205A
:1033900010B504462046FFF753FB0028FAD110BDB4
:1033A00010B5084CA278FFF741F828B140F2E2725C
:1033B000054906A001F0B4F86078002801D001208A
:1033C000207010BD18000020116900085B455252A2
:1033D0004F522025733A2564235D535049204552AE
:1033E000524F52200D0A0000054928B1012802D190
:1033F00001F12800086070470148001DFAE700004D
:10340000B002002010B502F015F9154815A10968A1
:1034100040F8011F15A10968416016A10968816083
:1034200003F0F2F90C2802DA4FF0FF3010BD0C4A1D
:1034300007201132115C412901D2303900E03739BF
:103440001154401C0B28F5DB907A517A00EB0110E7
:10345000117AD279090201EB0231084410BD000053
:10346000E4080020304630340000000030303635AB
:1034700000000000303030310000000000207047B4
:10348000044810B50068406980470349086000207F
:10349000087110BDB00200202C03002010B51821C7
:1034A0000348FCF797FE034800210160416010BD0E
:1034B000280B00202C0300200020704738B50A2478
:1034C000009400F001F838BD2DE9F047054691461B
:1034D0000E460024C8B2DDF82080FEF780FE0028EA
:1034E0003DD00B2D03D100210B20FDF74FFA2846CC
:1034F00002F054F90746E8B2FEF7A6FE3A464946FE
:103500000020FDF7B9F9174FF0B2641C01F04CF838
:1035100060B1BC421ADB0020FDF7A0F9012440F2A3
:103520006522114911A000F0FBFF0CE00020FDF71F
:1035300095F90A21B8FBF1F2C82042430024E8B211
:103540004946FEF76AFE0B2D04D007E0052002F085
:10355000ABF8D9E701210B20FDF718FA2046BDE8AA
:10356000F0870000804F12007F6900085B455252CF
:103570004F522025733A2564235D6D6F746F72205E
:103580006E6F2066696E64206C69676874200D0A2E
:10359000000000000120704700207047704700B510
:1035A00087B031214FF47A70ADF8100021208DF8EA
:1035B00000008DF8051035228DF804200A208DF8C2
:1035C0000F00302020228DF80B208DF802108DF88E
:1035D0000A208DF801008DF809208DF807108DF86C
:1035E00003008DF808008DF80600684602F03CFFE5
:1035F0009DF8000007B000BD10B502F01BF80948A7
:1036000009A1096840F8011F09A1096841600AA1E0
:103610000968816003F0F8F808B1002010BD0120AE
:1036200010BD0000E40800203046303600000000E5
:1036300030313243000000003030303100000000F3
:103640000E22024902A000F06BBF0000646A00086D
:103650005B25733A2564235D696E697420533131AB
:1036600032352070756D700D0A0000002DE9F047AD
:103670001D4690460F460446FDF77AFC06465FEA73
:1036800008004FF000084FF4005A4FF0010926D00F
:1036900034E0681C23D025B1FDF76AFC801BA842EA
:1036A0001DD92068416821F0E0014160206801686F
:1036B00021F040010160A06A504509D120680168ED
:1036C00021F4005101602068016841F4005101605B
:1036D00084F8519084F850800320BDE8F08720687A
:1036E000806837EA0000D4D10DE0681C06D0002DB8
:1036F000D7D0FDF73DFC801BA842D2D82068806857
:1037000037EA0000F1D00020E7E7002070470020F2
:1037100070477047002070470A4910B50122C1E97F
:103720000102A0F26310FCF71DFF074A074BFCF7EC
:1037300099FE0022064BFCF792FEFCF738FF054984
:10374000086310BD840200205C8FC2F5285CEF3F47
:1037500000007940E80700200A2190FBF1F201FB0C
:10376000120390FBF1F292FBF1F001FB102070B517
:1037700092FBF1F292FBF1F501FB152592FBF1F2C0
:1037800092FBF1F601FB162288B04FF47A76ADF881
:10379000106021268DF8006031268DF80F10302141
:1037A0008DF805608DF804108DF802608DF8011019
:1037B0008DF8031020218DF80B1030308DF80A1091
:1037C00030328DF807008DF8092030353033002471
:1037D0008DF808508DF80630684602F045FE9DF8D9
:1037E0000200232800D0012408B0204670BD0A2121
:1037F00090FBF1F201FB120390FBF1F270B592FB2A
:10380000F1F001FB102592FBF1F292FBF1F001FBCC
:10381000102692FBF1F090FBF1F201FB120088B050
:103820004FF47A72ADF8102021228DF80020312259
:103830008DF80F108DF8022030218DF801108DF8D1
:1038400003108DF8052033218DF8041020218DF808
:103850000B108DF80A1030308DF8090030353036F5
:103860008DF80750303300248DF808608DF806304D
:10387000684602F0F9FD9DF80200232800D00124DB
:1038800008B0204670BD0A2190FBF1F201FB120343
:1038900090FBF1F270B592FBF1F001FB102592FB69
:1038A000F1F292FBF1F001FB102692FBF1F090FB9C
:1038B000F1F201FB120088B04FF47A72ADF81020DB
:1038C00021228DF8002031228DF80F108DF8022072
:1038D00030218DF801108DF803108DF8052034216A
:1038E0008DF8041020218DF80B108DF80A1030305F
:1038F0008DF80900303530368DF80750303300240C
:103900008DF808608DF80630684602F0ADFD9DF830
:103910000200232800D0012408B0204670BD70B5F5
:103920000D460024FFF7AFFF18B92846FFF75FFFE9
:1039300008B1012070BD204670BD0020704770475F
:1039400030B58FB0012100910225090400240795AC
:10395000CDE90114CDE908106846FDF7BDFC00B1C2
:10396000FEE70F20CDE90A054FF48060CDE90C4059
:1039700002210AA80E94FDF775FB002800D0FEE78F
:103980000FB030BD704700B587B031214FF47A7069
:10399000ADF8100021208DF800008DF805103622BA
:1039A0008DF804200A208DF80F00302020228DF899
:1039B0000B208DF802108DF80A208DF801008DF88B
:1039C00009208DF807108DF803008DF808008DF898
:1039D0000600684602F048FD9DF8000007B000BDF3
:1039E00010B501F027FE094809A1096840F8011F38
:1039F00009A1096841600AA10968816002F004FF19
:103A000008B1002010BD012010BD0000E408002016
:103A100030463036000000003031324400000000F3
:103A2000303030310000000010B5C0B2FEF70CFCA1
:103A3000BDE810400020FCF711BFFDF79FBA000061
:103A40000D48016841F00101016041680B4A1140D5
:103A5000416001680A4A11400160016821F4802137
:103A60000160416821F4FE0141604FF41F01816053
:103A70000449C00308607047001002400000FFF8CE
:103A8000FFFFF6FE08ED00E008490868C268D2436F
:103A9000D20705D142620A6842F20F70D062C86054
:103AA00009686FF00100086170470000F805002008
:103AB00010B50123046A8B409C430462036A8A4068
:103AC0001343036210BD000070B52549064686B059
:103AD000886940F004008861886900F0040004905F
:103AE000C86940F40030C861C8691E4C00F4003059
:103AF00004900420009002200190012002900320F5
:103B0000039069462046FDF733F908200025CDE9EA
:103B1000000569462046FDF72BF9144C1248206039
:103B2000C4E90165E5600C202561C4E9050520466E
:103B3000E561FEF737F92068C16821F04001C160F6
:103B40002068C16841F02001C1602620FDF74DFAD0
:103B5000032211462620FDF753FA06B070BD00007F
:103B600000100240000801400044004024080020EA
:103B700030B50022064C074B02E09D5C8554521C78
:103B80002568AA42F9DB00200D60206030BD0000EE
:103B9000AC020020640800208AB210B501460A2356
:103BA0000348FEF73BFA03490020086010BD0000FF
:103BB00024080020AC020020F0B50A4D0022164671
:103BC0002B680A602C68A3420BD1002B09D0064C4D
:103BD00002E0A75C8754521C9A42FADB286808600E
:103BE0002E60F0BDA40100203C0500208AB210B573
:103BF00001460A230348FEF711FA03490020086032
:103C000010BD0000FC040020A40100203420FDF7BA
:103C1000E1B910B53420FDF7E8F90322BDE8104002
:103C200011463420FDF7ECB90C4808B5006800686F
:103C3000C043800610D401231A4669460748FEF7A0
:103C400027F907490868802806DA044B9DF8002008
:103C500040331A54401C086008BD0000DC060020F8
:103C60008002002070B52249064686B0886940F07F
:103C700010008861886900F010000490C86940F461
:103C80000020C861C8691B4C00F40020049008158E
:103C90000090022001900320039069462046FDF722
:103CA00067F8E0140025CDE900050120029069467F
:103CB0002046FDF75DF8114C0F482060C4E901650E
:103CC000E5600C202561C4E905052046E561FEF7A5
:103CD00069F82068C16821F04001C1602068C168AE
:103CE00041F02001C1603420FDF774F906B070BDC9
:103CF0000010024000100140004C0040DC06002093
:103D0000F0B50C4D00231E462C6813608C4201DA7E
:103D10001460F0BD2F68BC42FBD1002CF9D0064CDA
:103D200002E0E75CC7545B1C8B42FADB286810603A
:103D30002E60F0BD800200201C0700208AB210B562
:103D400001460A230348FEF769F903490020086089
:103D500010BD0000DC060020800200200C4808B5E1
:103D600000680068C043800610D401231A466946E3
:103D70000748FEF78DF807490868802806DA044BE3
:103D80009DF8002040331A54401C086008BD000014
:103D9000680A00202803002010B590F83910222965
:103DA00003D0322901D0022010BD8168B1F5805FB7
:103DB00011D00169002901681FD0496801F07F0313
:103DC000816A4A1C82620B70C18D491E0904090C6C
:103DD000C18518D02FE00269816A002A0268526802
:103DE00005D0D2B20A80816A491C8162ECE7C2F335
:103DF00008020A80816A891CF7E74A68816A4B1CBD
:103E000083620A70E0E70168CA6822F02002CA6093
:103E100090F83910322910D00168CA6822F48072F3
:103E2000CA6001684A6922F001024A61012180F8F2
:103E30003910FEF7C7F8002010BD1221F7E7000087
:103E40002DE9F041044600680169E26821F440511F
:103E500011430161A1682069014360690143206841
:103E6000C26841F20C639A430A43C2602068416908
:103E7000A26921F44071114341614C4920686426D4
:103E8000322788423CD1FDF7CBF900EBC00101EBB2
:103E9000001061688900B0FBF1F5FDF7C1F900EB96
:103EA000C00101EB00106168B8468900B0FBF1F079
:103EB000B0FBF6F06FF01801484305EB800107EB0B
:103EC0000110B0FBF6F000F0F005FDF7A9F900EBEA
:103ED000C00101EB001061688900B0FBF1F0B0FB9C
:103EE000F6F005EB0015FDF79BF900EBC00101EBC7
:103EF000001061688900B0FBF1F7FDF791F93BE034
:103F0000FDF776F900EBC00101EB00106168890054
:103F1000B0FBF1F5FDF76CF900EBC00101EB00100F
:103F20006168B8468900B0FBF1F0B0FBF6F06FF0C5
:103F30001801484305EB800107EB0110B0FBF6F0D8
:103F400000F0F005FDF754F900EBC00101EB0010A3
:103F500061688900B0FBF1F0B0FBF6F005EB0015ED
:103F6000FDF746F900EBC00101EB00106168890024
:103F7000B0FBF1F7FDF73CF900EBC00101EB0010DD
:103F800061688900B0FBF1F0B0FBF6F06FF018014A
:103F9000484307EB800108EB0110B0FBF6F0216805
:103FA00000F00F0028448860BDE8F081003801402F
:103FB00090F83910122903D0322901D0022070471D
:103FC0008168B1F5805F016A0BD04A1C0262026809
:103FD00009785160C18C491E0904090CC1840ED0B6
:103FE00017E009880268C1F30801516001690029DE
:103FF000016A02D0491C0162ECE7891CFBE70168F9
:10400000CA6822F08002CA600068C16841F04001BD
:10401000C160002070472DE9F0471D4690460F46CD
:104020000446FCF7A5FF06465FEA08004FF00009CA
:104030004FF0010808D030E0681C05D095B1FCF7BE
:1040400097FF801BA8420DD82068006837EA00005F
:10405000F2D127E0681C20D025B1FCF789FF801B36
:10406000A8421AD92068C16821F08001C160206887
:10407000C16821F02001C1602068C16821F480710D
:10408000C1602068416921F00101416184F83980F3
:1040900084F838900320BDE8F0872068006837EA8C
:1040A0000000D7D00020F6E710B50848FDF70EFE57
:1040B0000648FDF708FE0128FAD101220449034809
:1040C000FDF74BFF0028F8D110BD000000040020D0
:1040D000100000200C4808B500680068C043800646
:1040E00010D40223012269460748FDF7D1FE074993
:1040F0000868802806DA044B9DF8002040331A54E3
:10410000401C086008BD000024080020AC0200200C
:104110000C4808B500680068C043800610D402232C
:10412000012269460748FDF7B3FE07490868802861
:1041300006DA044B9DF8002040331A54401C0860F6
:1041400008BD0000FC040020A401002010B54FF4BD
:10415000E130FFF7B9FCBDE8104000F0CFB8000037
:104160000149002008607047AC020020014900208E
:1041700008607047A40100200149002008607047D2
:104180008002002010B5FFF7F1FFFFF7E9FFBDE85F
:104190001040FFF7F1BF00002DE9F0412F4886B035
:1041A000816941F004018161816901F00401049198
:1041B000816941F008018161816901F00801049180
:1041C000816941F010018161816901F01001049160
:1041D000816941F4807181618069214D00F48070B2
:1041E0000490002280212846FCF7BDFE1D4E0022CF
:1041F00001213046FCF7B7FE1B4F00223021384624
:10420000FCF7B1FEDFF8648000224FF40041404625
:10421000FCF7A9FE01248020CDE900046946284668
:104220000394FCF7A5FD009401946946304603947D
:10423000FCF79EFD3020CDE9000469463846039422
:10424000FCF796FD6002CDE9000469464046039400
:10425000FCF78EFD06B0BDE8F081000000100240C2
:1042600000080140000C0140001001400020014006
:1042700070B5034600240122951E2046022B02D071
:10428000032B19D021E01B4B31B1012907D00229A2
:104290000AD0032918D10AE0C3F8980101E0C3F855
:1042A0009821C3F8940110E0C3F8980101E0C3F825
:1042B0009821C3F8942108E00F4B59B101290CD083
:1042C00002290FD0032910D02C46022001F0DEF97C
:1042D000204670BDC3F8880101E0C3F88821C3F807
:1042E0008C01F2E7C3F8880101E0C3F88821C3F824
:1042F0008C21EAE700002142000024420D4800B56D
:10430000816985B041F0040181618069694600F0EE
:104310000400049060200090012001900390064862
:10432000FCF726FD05480021C0F89411C0F898114B
:1043300005B000BD0010024000080140000021420D
:10434000FEE7000010B5C21700EB12721C4C22F001
:104350000F03C01A20731011C21700EB127222F063
:104360000F03C01AE0721011C21700EB127222F094
:104370000F03C01AA0721011C21700EB12720021B5
:1043800022F00F02801A60726218507A0A2801D255
:10439000303000E03730491C50720429F4DB01F062
:1043A00049F908A0006844F8010F08A0006860609F
:1043B00002F02AFA08B1002010BD012010BD000053
:1043C000E40800203046303600000000303043382A
:1043D0000000000010B5C21700EB12721D4C22F055
:1043E0000F03C01A20731011C21700EB127222F0D3
:1043F0000F03C01AE0721011C21700EB127222F004
:104400000F03C01AA0721011C21700EB1272002124
:1044100022F00F02801A60726218507A0A2801D2C4
:10442000303000E03730491C50720429F4DB01F0D1
:1044300001F909A0006844F8010F09A00068606054
:1044400002F0E2F910F0FF0F01D0002010BD0120B2
:1044500010BD0000E40800203046303600000000A7
:10446000303043410000000010B5C21700EB12725B
:104470001D4C22F00F03C01A20731011C21700EB5D
:10448000127222F00F03C01AE0721011C21700EB73
:10449000127222F00F03C01AA0721011C21700EBA3
:1044A0001272002122F00F02801A60726218507A94
:1044B0000A2801D2303000E03730491C50720429FC
:1044C000F4DB01F0B7F809A0006844F8010F09A077
:1044D0000068606009A00068A06002F095F908B16A
:1044E000002010BD012010BDE40800203046303609
:1044F0000000000030304339000000003030303020
:104500000000000010B504460846FFF763FF0028CE
:1045100004D12046BDE81040FFF7A6BF10BD000043
:104520000FB4054B10B503A9044A029800F0A2FD90
:1045300010BC5DF814FB0000855700081400002033
:104540000FB4084B10B504A902AA039800F092FD1D
:10455000044602A9002000F0BEFF204610BC5DF812
:1045600014FB0000D754000810B5C0B200F05CF88E
:104570000346BDE810404FF47E72024902A0FFF7E7
:10458000CFBF0000156A00085B4552524F522025EC
:10459000733A2564235D5B48756D6D696E6762696A
:1045A00072645D25730D0A000220704700B59BB050
:1045B0003C210BA8FBF70EFE00200C9001208DF88B
:1045C0003400FFF7DFFDAA208DF82C00DD208DF8E8
:1045D0002D000D208DF864000A208DF865002C2236
:1045E0000FA96846FBF7CFFD0DF12C0C9CE80F00DE
:1045F00000F076FF8DF86000000A8DF861003C2124
:104600000BA8FFF79BFB1BB000BD02E008C8121F00
:1046100008C1002AFAD170477047002001E001C1AB
:10462000121F002AFBD170475A286ED2DFE800F033
:104630002D2F31333537393B3D3F41434547494BBA
:104640004D6D6D6D6D6D6D6D6D6D6D6D6D6D6D6DBA
:104650006D6D6D6D6D6D6D6D6D6D6D6D6D6D6D6D8A
:104660006D6D4F51535557595B5D5F616365676968
:104670006B6E70727476787A7C7E80828486939278
:1046800091908F8E8D8C8B8A898833A0704735A04E
:10469000704737A0704739A070473BA0704743A0D0
:1046A000704746A070474BA0704750A0704755A078
:1046B00070475BA070475EA0704761A0704766A01E
:1046C00070476DA0704770A0704773A0704778A0C6
:1046D00070477DA0704783A0704788A070478BA06B
:1046E000704791A070479AA07047A2A07047A8A0F9
:1046F0007047AEA07047B3A07047B7A07047BCA08A
:104700007047C0A07047C4A0704733E2C7A0FBE762
:10471000CEA0F9E7D3A0F7E7D8A0F5E7DDA0F3E74F
:10472000E0A0F1E7E3A0EFE7E9A0EDE7ECA0EBE71D
:10473000F1A0E9E7F3A0E7E7F6A0E5E7FBA0E3E7F0
:1047400016E213E210E20DE20AE207E204E201E2FD
:10475000FEE1FBE1F8E1F5E14552524F525F545959
:10476000504500004D4F56455F54595045000000DC
:10477000504F5745525F54595045000052455354CD
:104780005F5459504500000053454E445F434F4D20
:104790004D414E445F414E445F574149545F4E4F37
:1047A00054425553595F54595045000044454C41BB
:1047B000595F54494D455F54595045004F4E455F30
:1047C0004445564943455F4D4F56455F5459504502
:1047D000000000004F4E455F4445564943455F5732
:1047E0004149545F54595045000000004F4E455F09
:1047F0004445564943455F4745545F504F535F54C6
:10480000595045004F4E455F4445564943455F5317
:1048100045545F4D41524B5F5459504500000000D4
:104820004745545F504152414D5F54595045000037
:104830005345545F504152414D5F5459504500001B
:1048400053456C4543545F535445505F4D4F444569
:104850005F54595045000000494E49545F4D4F5434
:104860004F525F53504545445F54454E53494F4E58
:104870005F545950450000004D4F56455F4D414E25
:10488000595F4D4F544F5200574149545F4D414E6F
:10489000595F4D4F544F5200434F4D4D414E445F71
:1048A0005041434B4147455F4D4F544F520000002C
:1048B0004745545F4C494748545F4C4556454C5F0B
:1048C00054595045000000004745545F414C4C5F2F
:1048D0004C494748545F4C4556454C5F54595045E8
:1048E000000000004348454D494E4552545F433552
:1048F000325F4335355F54595045000050554D5097
:104900005F533130305F5459504500005745494797
:1049100048545F53454E534F525F5345545F4C4983
:104920004E455F54595045005745494748545F53D9
:10493000454E534F525F4745545F53494E474C4590
:104940005F524553554C545F545950450000000088
:104950005745494748545F53454E534F525F47456B
:10496000545F414C4C5F524553554C545F54595021
:104970004500000054454D50455241545552455F45
:1049800053454E534F525F4745545F54595045006D
:1049900054454D50455241545552455F53454E5331
:1049A0004F525F5345545F5459504500454C454361
:1049B00054524F4D41474E455449435F5459504519
:1049C00000000000434F4E4E4543545F544553543E
:1049D0005F545950450000004745545F57454947CB
:1049E00048545F43555252454E545F4752414D0023
:1049F000524553545F4D4F544F525F4F5247494EAB
:104A0000000000004D4F544F525F4D4F56455F41DF
:104A10004E445F57414954005345545F50554D50E3
:104A2000533130305F5052455353000042414C41A6
:104A30004E43455F4348524F4D41544F47524150BA
:104A40004849435F434F4C554D4E00004752414447
:104A500049454E545F434F4E54524F4C5F4255466A
:104A600046455200475241564954595F53454E53AB
:104A70004F525F53455454494E47000047524156E8
:104A80004954595F53454E534F525F47455454491B
:104A90004E4700005343414E5F424152434F44450D
:104AA0000000000050554D505F494E54455246415C
:104AB00043450000524553545F494E4A45435449CB
:104AC0004F4E5F4D4F444C55455F4D4F544F520034
:104AD0004C49515549445F53454E534F52000000D5
:104AE00050554D50533130305F5345545F464C4F15
:104AF0005753504545440000524649445F494E498A
:104B000054000000524649445F444553544F5259A3
:104B100000000000524649445F53454E445F5245F1
:104B200041445F434F4D4D414E440000524649447D
:104B30005F524543454956455F494E4445585F5489
:104B4000414700000CA0DFE510A0DDE513A0DBE588
:104B500017A0D9E51FA0D7E527A0D5E52AA0D3E562
:104B60002DA0D1E534A0CFE53AA0CDE53FA0CBE51F
:104B700045A0C9E54AA0C7E5524649445F474554A8
:104B80005F4550435F535452494E47005246494493
:104B90005F57524954455F455043000052464944CF
:104BA0005F57524954455F424C414E4B0000000054
:104BB0004D494E495F54454D50455241545552451B
:104BC0005F53454E534F525F4745545F54595045CC
:104BD000000000004D494E495F54454D504552413B
:104BE000545552455F53454E534F525F5345545FA2
:104BF0005459504500000000504F4C4C494E475FFF
:104C00004441544100000000504F4C4C494E475F16
:104C10005052455353000000454C454354524F4DAC
:104C200041474E455449435F5041434B4147455FDF
:104C300054595045000000004D4F544F525F4D4FA6
:104C400056455F414E445F574149545F53454C457B
:104C500043540000524553545F4D4F544F525F4FE1
:104C60005247494E5F53454C454354004F4E455FB4
:104C70004445564943455F4D4F56455F53454C4566
:104C800043545F54595045004D4F544F525F484173
:104C900052445F53544F505F53454C4543540000BA
:104CA000554E4B4E4F5720434F4D4D414E44000003
:104CB00024285BD2DFE800F0121416181A1C1E20FC
:104CC000222426282A2C2E30323436383A3C3E40D4
:104CD000424446484A4C4E505254565824A07047BD
:104CE00026A070472DA0704732A0704739A07047AA
:104CF0003EA0704741A0704747A070474BA0704747
:104D00004DA070474FA0704751A0704753A0704707
:104D100057A070475AA070475FA0704763A07047C4
:104D200066A0704769A070476DA0704770A070477B
:104D300075A0704779A070477EA0704783A0704728
:104D400086A070478AA0704792A0704795A07047D0
:104D500099A070479EA07047A2A07047A7A0704777
:104D6000ACA07047B1A07047B7A07047BDA0704716
:104D7000534C45465F544553540000004649525336
:104D8000545F53544152545F434845434B5F53452E
:104D90004E534F525F424F415244000052455354CC
:104DA0005F53454E534F525F424F4152445F4D4F08
:104DB000544F520046495253545F53544152545F2A
:104DC000434845434B5F4D4F544F525F424F415212
:104DD00044000000524553545F4D4F544F525F42C0
:104DE0004F4152445F4D4F544F520000524553546F
:104DF0005F4335355F433532000000005245535460
:104E00005F445241494E5F414E445F574153485FB2
:104E10004D4F544F52000000524553545F53414D83
:104E2000504C455F4D4F544F52000000434C45419C
:104E3000525F424C414E4B00434C4541524C5F57F0
:104E40004149540052454144595F4E455854000071
:104E500052454144595F4C45465400004C45465428
:104E60005F4D4F56455F544F5F5741495400000016
:104E7000524553545F484947485F574845454C00A1
:104E8000524553545F5452414E53504F5254455221
:104E90005F42454C5400000052454143485F444541
:104EA000475245455F574149540000004D49585FFE
:104EB0005343414E5F534C4F570000004D49585FDC
:104EC000424C4F4F445F48494748000042454C54CC
:104ED0005F4D4F56455F53414D4554494D45000088
:104EE0004D49585F574F524B5F474F544F0000009A
:104EF0004E4F524D414C5F50495443485F4D4F56C1
:104F0000455F4E45585400004E4F524D414C5F4254
:104F10004C414E4B5F524553540000004E4F524D92
:104F2000414C5F46495253545F504F5349544F4E82
:104F3000000000004D49585F414E445F52454143D7
:104F4000485F504F534954494F4E00004249475F14
:104F5000494E5F4F55545F534C4F57004249475F8E
:104F6000494E5F4F55545F4E4F524D414C0000002B
:104F70004E4F524D414C5F50495443485F4D4F5640
:104F8000455F4E4558545F5448455F4C4153545F0C
:104F900054574F004335355F4335325F434F4E4ED4
:104FA000454354004D4F544F525F55505F444F5747
:104FB0004E5F534C4F5700004D4F544F525F55506A
:104FC0005F444F574E5F4E4F524D414C0000000022
:104FD0004C4954544C455F494E5F4F55545F534CB8
:104FE0004F5700004C4954544C455F494E5F4F5554
:104FF000545F4E4F524D414C00000000424C414E18
:105000004B5F4E4558545F4D4F544F525F48494790
:1050100048000000424C414E4B5F4E4558545F4D96
:105020004F544F525F4E4F524D414C0052554E4ED1
:10503000494E475F524553545F43414D454C5F4D88
:105040004F544F520000000052554E4E494E475F9C
:10505000524553545F5045434B45525F4D4F544F5B
:1050600052000000554E4B4E4F5720434F4D4D417F
:105070004E4400002DE9FF4F8DB00F460546002637
:1050800006E025280BD0DDE90F1290476D1C761C39
:1050900028780028F5D111B03046BDE8F08F002403
:1050A000A246A1460122EC4900E0044315F8013F65
:1050B000203B02FA03F00842F7D128782A2810D0C2
:1050C0006FF02F022878A0F13001092914D80AEBDB
:1050D0008A0102EB410144F0020400EB010A6D1C5D
:1050E000F0E701CF5FEA000A03D544F40054CAF1A7
:1050F000000A44F002046D1C28782E2817D115F8F8
:10510000010F44F004042A280ED06FF02F022878F3
:10511000A0F1300109290AD809EB890102EB41010C
:1051200000EB01096D1CF2E757F8049B6D1C287811
:105130006C280FD006DC4C2817D068280DD06A28C0
:1051400014D104E0742810D07A280FD10DE044F473
:1051500000140AE044F4801401E044F44014697837
:10516000814202D104F580146D1C6D1C2A786E2AD0
:105170001FD00CDC632A31D004DC002A8BD0582AE3
:1051800011D1A3E0642A68D0692A0CD165E0732AA2
:105190002ED004DC6F2A73D0702A04D19BE0752ACC
:1051A0006FD0782A6ED01046DDE90F129047761C3A
:1051B00050E1C4F30250022806D0032809D0042885
:1051C00001CF09D0066045E101CFF117C0E90061C8
:1051D00040E101CF06803DE106703BE117F8040B8A
:1051E0008DF8000000208DF80100EB46012003E05F
:1051F00057F804BB4FF0FF3061074FF0000102D4B5
:105200000DE008F10101884649450FDA8045F8DBD9
:105210001BF808100029F4D108E008F101018846C4
:105220008142FADB1BF808100029F6D1DDE90F23D3
:10523000AAEB08008146214600F036F9304400EB25
:10524000080604E0DDE90F121BF8010B9047B8F1E6
:105250000108F7D221464846F7E00A21C4F3025379
:105260004FF0000B0891022B04D001CFC117032B84
:1052700009D00AE0FF1D27F00707F7E8020108E060
:1052800032E01FE020E000B2C117042B01D140B290
:10529000C117031E71F1000307DA4FF0000CD0EBC9
:1052A0000C006CEB01012D2302E0230504D52B2318
:1052B0008DF82430012303E0E30701D02023F7E732
:1052C000984658E00A2110E010210EE010204FF01F
:1052D000000B08900CE010214FF0000B44F0040488
:1052E0004FF00809089103E008214FF0000B0891E6
:1052F000C4F30253022B04D001CF0021032B06D0AC
:1053000006E0FF1D27F00707F7E8020103E080B27F
:10531000042B00D1C0B24FF0000823072BD5702A10
:1053200007D0DDF820C08CF0100C5CEA0B0C05D027
:105330000EE040238DF82430012308E050EA0103F9
:1053400006D030238DF824308DF82520022398468E
:10535000DDF820C08CF0080C5CEA0B0C0BD150EA95
:10536000010301D1630706D530238DF824304FF0B7
:105370000108A9F10109582A04D038A20B9208AA01
:105380000A920BE03AA2F9E75B46089AFBF736F976
:105390000B9B9B5C0A9A521E0A92137050EA010200
:1053A000F2D10A98ADEB000000F1200B600702D5A6
:1053B00024F4803401E04FF00109D94502DDA9EB66
:1053C0000B0000E0002000EB0B0141440890AAEB29
:1053D000010AE00306D4DDE90F232146504600F020
:1053E00063F806444FF0000908E009A911F8090024
:1053F000DDE90F12904709F10109761CC145F4DB84
:10540000E0030CD5DDE90F232146504600F04CF8AF
:10541000064404E0DDE90F1230209047761C08991D
:10542000481E08900029F5DC08E00A980A990078DF
:10543000491C0A91DDE90F129047761CBBF100016F
:10544000ABF1010BF1DC21465046DDE90F2300F002
:1054500019F806446D1C1BE609280100303132336F
:1054600034353637383961626364656600000000A0
:10547000303132333435363738394142434445468A
:10548000000000002DE9F041044600251E461746A5
:10549000880404D405E039462020B0476D1C641E02
:1054A000F9D52846BDE8F0812DE9F04104460025F4
:1054B0001E469046C80301D5302700E02027880407
:1054C00004D505E041463846B0476D1C641EF9D549
:1054D0002846BDE8F0810A68531C0B6010707047C5
:1054E0000FB4002030B5154CA9B03C21208019A87C
:1054F000FAF770FE64216846FAF76CFE2D981A9050
:105500002C222EA91BA8FAF73EFE3C2219A96846B8
:10551000FAF739FE3C23002108466A46155C401C18
:1055200029449842FAD3C809207001F07F006070C6
:10553000208829B030BC5DF814FB00003403002043
:105540002DE9F04790B00F46DDE9195482461E461A
:1055500091464FF0000840216846FAF73BFE4CB1F7
:1055600001210220FBF7AEFB01210220FBF7B8FB73
:10557000012108E000210220FBF7A4FB002102200A
:10558000FBF7AEFB00210220FEF772FE39465046C3
:10559000FEF702FB85B1164F4FF4967505203C6867
:1055A00000F074F83868844212D18CB13146484614
:1055B000FEF7DEFA346016E04F208DF800004B2035
:1055C0008DF80100BDF80010A9F80010022009E0D4
:1055D0006D1EE3D14FF001083F22064906A0FEF7F9
:1055E0009FFF0020306010B04046BDE8F08700000B
:1055F000AC020020286900085B4552524F5220251A
:10560000733A2564235D6368656D696E6572745FC6
:105610006335325F6335355F7472616E73666572D0
:10562000206675636B2074696D656F757421200D3C
:105630000A00000010B503210220FBF743FB0B4CCE
:10564000032120600220FBF74BFB60600321022056
:10565000FEF70EFE06493A2008703F208873487313
:1056600004A00088A1F80F0010BD00000403002072
:10567000E40800200D0A000010B504460420FCF7E1
:1056800087FA0148046010BD0C00002070B5054683
:1056900000244FF47A7603E0304600F005F8641CED
:1056A000AC42F9D370BD000070B54FF0E025002189
:1056B0006C69094AAB6912685043AA699A42FCD0E6
:1056C00002D2A3EB020302E0A4EB02063344194426
:1056D00013468142F1D370BD0C00002030B4174A4C
:1056E000174B0B2824D2DFE800F02306090C0F1219
:1056F00015181B1E2100C2F8901119E0C2F8941170
:1057000016E0C2F8981113E0C2F89C1110E0C2F83C
:10571000A0110DE0C2F8A4110AE0C3F8881107E057
:10572000C3F88C1104E0C3F8901101E0C3F89411A0
:1057300030BC5C22034904A0FEF7F2BE0080214287
:1057400000002342B76900085B25733A2564235D96
:10575000646F200D0A00000070B50D460446C0F3CA
:105760000721C0B2FFF7BAFF210EC4F30740FFF7CD
:10577000B5FFC5F30721E8B2BDE87040FFF7AEBF43
:105780007047000004490A685206FCD5024AC1B2BB
:10579000121D11607047000000380140014610B52D
:1057A00000200D4A0D4B0C2908D2DFE801F0070656
:1057B00007080807070A0D0D0F12094810BD10460B
:1057C00010BD42F6F82010BD184610BD4EF6602000
:1057D00010BD4CF2503010BDB0AD0100C0D401007E
:1057E000F04902000FB400202DE9F84F14460EAA2C
:1057F0001D4692E8C00F009064211048FAF7EAFCB9
:105800000B98C0B2082806D040B14FF0FF30BDE879
:10581000F80F5DF814FB5C22094902E00849642294
:1058200064310648FAF7AFFC0448011D81E8F00036
:10583000C0E90E89C0E90CAB0098E8E750060020EB
:10584000B40100202DE9FC47FBF7A0FB4FF4E0106A
:10585000FEF776F84820FFF70FFF4FF4E1342046BB
:1058600001F000F82046FEF7FDF9FDF717FE2DA127
:1058700030A0CDE9000100242FA3B222304931A08D
:10588000FEF74EFEFBF75AF810B10020BDE8FC878A
:10589000FCF72CFC4FF4FA50FFF7F8FEFEF76CFC17
:1058A000FEF7B7F92F4FDFF8C0904FF00008012046
:1058B0003E68FFF7EBFE3D68CDB1AE420BD13C2D0B
:1058C00009D03346D8221E4928A0FEF729FEC7F882
:1058D0000080FEF76BFEAE4209D13C2D07D1FEF7EA
:1058E00095F900F039FBFEF794F9C7F8008094B100
:1058F000A4F5EA40303809D14FF48072104925A050
:10590000FEF70EFE00210A20FFF7E8FE641C4C455E
:10591000CDDB0024CBE7FC22094923A0FEF700FEE3
:105920000121F0E72D342E342E3232313031323035
:105930002E520000534800005647312D0000000051
:10594000C86800085B25733A2564235D53544D5F96
:1059500056455253494F4E3A2573257325730D0A08
:105960000000000080020020804F12005B45525270
:105970004F522025733A2564235D7278206C656E42
:10598000206973206572726F72205B25645D200D43
:105990000A0000005B25733A2564235D636C6F7316
:1059A00065200D0A000000005B25733A2564235D25
:1059B0006F70656E200D0A002DE9F04100260C463F
:1059C00007463546FFF774F9034640F2B6322749D9
:1059D00027A0FEF7A5FD272F44D2DFE807F01443E8
:1059E0004343431D43431B1B1B1B1B434320434398
:1059F0001B43434343432426432B43432E30333539
:105A00004343383E400040F2BB3218491FA0FEF726
:105A100087FD27E0256025E0FDF7BEFD01E0FDF7ED
:105A20004BFD06461EE0002100E001210820FAF7A8
:105A3000ADFF17E0FAF744FFF3E7002100E0012192
:105A40000920F4E7022100E001210420EFE700F043
:105A5000D1FE060006D0582604E0012000E0002018
:105A6000FFF78EFE3046BDE8F0810000996900081E
:105A70005B25733A2564235D7479706520636F6DCF
:105A80006D616E643A25730D0A0000005B45525249
:105A90004F522025733A2564235D4E6F7220636F49
:105AA0006D6D616E6420210D0A0000002DE9F0414A
:105AB0000646D7A0DAB000685390D6A0D0E900100F
:105AC000CDE91710D5A0D0E90010CDE91910D5A067
:105AD000D0E90010CDE91B10D4A0D0E90010CDE929
