:020000040800F2
:100000008011002045010008B32300089B2200084E
:10001000AD230008D90900086D4600080000000063
:10002000000000000000000000000000233800086D
:100030002D0D000800000000D9230008313B000806
:100040005F0100085F0100085F0100085F01000810
:100050005F0100085F0100085F0100085F01000800
:10006000330D0008390D00085F0100085F0100082A
:100070005F0100085F0100085F0100085F010008E0
:100080005F0100085F0100085F0100085F010008D0
:100090005F0100085F0100085F010008410D0008D2
:1000A0005F0100085F0100085F0100085F010008B0
:1000B0005F0100085F0100087D3B00085F01000848
:1000C0005F0100085F0100085F0100085F01000890
:1000D0005F010008CD420008F94200086D430008A6
:1000E000310D00085F0100085F0100085F01000892
:1000F0005F0100085F0100085F0100085F01000860
:100100005F0100085F010008B13B00085F010008C3
:100110004D3E0008813F00085F0100085F010008B4
:100120005F0100085F0100085F0100085F0100082F
:10013000DFF80CD000F03AFB00480047415B0008B4
:10014000801100200648804706480047FEE7FEE78A
:10015000FEE7FEE7FEE7FEE7FEE7FEE7FEE7FEE777
:10016000353B000831010008202A04DB203A00FA60
:1001700002F1002070479140C2F1200320FA03F3FE
:1001800019439040704710B5431A934209D283181F
:10019000881803E010F8011D03F8011D521EF9D262
:1001A00010BD40EA01039B0703D009E008C9121FF4
:1001B00008C0042AFAD203E011F8013B00F8013B21
:1001C000521EF9D210BDD2B201E000F8012B491E37
:1001D000FBD270470022F6E710B513460A460446E4
:1001E0001946FFF7F0FF204610BDF0B480EA010287
:1001F000D40F4200B2EB410F02D20246084611462C
:100200004A0042D0C30DDDB2C1F3C752AD1A202D52
:1002100035DAC1F3160141F4000204B15242C5F1CE
:10022000200602FA06F12A411044B3EBD05F23D036
:10023000C4B1012DA0EBC35009DCF0BC4FF000426B
:1002400002EAC352DBB200F5000000F023BA40001E
:1002500000F1807000EBC350A0F1807040EAD170D3
:10026000490009E0490841EAC071A0EBC35000F51C
:100270000000400800EBC350F0BC00F002BA61423D
:10028000012202EB4101001BF6E7F0BC704781F050
:100290000041AAE780F00040A7E780EA010210B51C
:1002A00002F00043400022D04A001FD0010E01EBB3
:1002B0001261C0F35600C2F3560240F4000042F44B
:1002C0000002A0FB022000047F39140400D0401C6F
:1002D00050EA124001D44000491EC2B20C0604EBA1
:1002E000D010401C4008802A02D003E0002010BD3E
:1002F00020F00100002900DA0020184310BD420060
:1003000005D0C0F3C7525242914201DC0020704731
:1003100000EBC15070472DE9FE4F804681EA030093
:10032000C00F0C46009021F0004123F00045B8EBCF
:100330000200A94105D24046214690461C460B4684
:10034000024623F00040104347D0270DC7F30A00B0
:10035000C3F30A510290401A019040286BDAC3F3AC
:10036000130040F4801B0098924620B10023D2EB8A
:10037000030A63EB0B0B01985946C0F1400250464B
:10038000FFF7F2FE06460D4650465946019A00F028
:1003900066F910EB08006141002487EA115284EAF3
:1003A000E7731A4340D0009A62B3019A012A4FEAD8
:1003B000075215DC001B61EB02014FF0004202EA1C
:1003C0000752CDE90042001C41F5801132462B4610
:1003D00000F09DF903B0BDE8F08F40462146F9E7F3
:1003E000001B61EB0201001C41F5801300185B410A
:1003F0002018A2F5001747EB030140EAD570B619A3
:100400006D4111E06D084FEA360645EAC0754FEAC6
:100410000752001B61EB0201001C41F580114908E5
:100420004FEA30000019514132462B4603B0BDE877
:10043000F04F00F05DB90098012240000023D0EB9E
:10044000020263EBE073009821464FEAE074B8EBD8
:10045000000061EB0401E9E783F000435BE781F012
:10046000004158E72DE9FE4F81EA030404F00044FF
:1004700021F0004100944FF0000B23F0004350EABC
:1004800001045ED052EA03045BD0C3F30A54C1F303
:100490000A552C44A4F2F3340194A0FB0254C1F396
:1004A000130141F48011C3F3130343F4801301FBE0
:1004B000024400FB034E840A970A44EA815447EA47
:1004C0008357A4FB076802958D0A05FB07854FEA51
:1004D000932C04FB0C542705029D4FEA065847EA6B
:1004E0001637B5EB08056EEB070C870E920E47EA40
:1004F000811742EA8312A7FB0201B6EB0B0164EB02
:1005000000042B0D43EA0C335E1844EB1C50DA4612
:100510005146E7FB0201C5F313044FEA0B3343EAEC
:1005200014534FEA0432019C43EA0603A4F10C047D
:100530000294009CCDE900B400F0E9F803B0BDE8F6
:10054000F08F00200146F9E7C10F80EAE07008440F
:10055000CA079623002100F09DB896230022114679
:1005600000F098B80EB5C10F80EAE0700844CA07E1
:10057000002140F233438DE80E000A460B4600F09E
:10058000C6F803B000BD20F00040C10DC0F3160056
:1005900040F400007F2901DA00207047962903DC2F
:1005A000C1F19601C840704796398840704701F004
:1005B000004330B421F0004150EA010206D00A0D98
:1005C000A2F56072C1F31301002A02DC30BC0020E6
:1005D0007047440F44EAC104C100E01830BC00EB8E
:1005E000C25000F04EB80000002801DBC0F100400E
:1005F000002901DBC1F10041884270472DE9F05F1D
:100600000546002092469B46884606468146402481
:100610001BE0284641464746224600F0D9F853469B
:100620005A46C01A914110D3114618462246FFF788
:100630009BFD2D1A67EB01084F4622460120002141
:10064000FFF792FD17EB00094E41201EA4F10104B3
:10065000DFDC484631462A464346BDE8F09F202A63
:1006600006DBCB17203A41FA02F043EAE07306E0DA
:1006700041FA02F3D040C2F12002914008431946EA
:1006800070470029A8BF7047401C490008BF20F0F0
:100690000100704710B4B0FA80FC00FA0CF050EA88
:1006A000010404BF10BC704749B1CCF1200421FA09
:1006B00004F411FA0CF118BF012121430843A3EB04
:1006C0000C01CB1D4FEA00614FEA102042BF002011
:1006D00010BC704700EBC35010440029A4BF10BCED
:1006E0007047401C490008BF20F0010010BC704753
:1006F00010B5141E73F1000408DA401C41F100012A
:1007000092185B411A4301D120F0010010BD2DE980
:10071000F04D92469B4611B1B1FA81F202E0B0FA77
:1007200080F220329046FFF71FFD04460F4640EA54
:100730000A0041EA0B0153465A46084313D01146BA
:1007400053EA010019D0C8F14002504600F040F8C9
:1007500005460E46504659464246FFF705FD0843FA
:1007600005D0012004E020463946BDE8F08D002088
:10077000054346EAE0762C4337430A986305E40ACA
:10078000A0EB08000022FD0A44EA47540A3002D5D3
:1007900000200146E9E7010510196941DDE9084536
:1007A00000196941BDE8F04DA2E70000064C074D75
:1007B00006E0E06840F0010394E807009847103431
:1007C000AC42F6D3FFF7B8FC587D0008787D0008EE
:1007D000202A04DB203A21FA02F00021704721FA96
:1007E00002F3D040C2F120029140084319467047FD
:1007F00070B58C1810F8015B15F0070301D110F8E3
:10080000013B2A1106D110F8012B03E010F8016B0F
:1008100001F8016B5B1EF9D12B0705D40023521E92
:100820000DD401F8013BFAE710F8013BCB1A921CFA
:1008300003E013F8015B01F8015B521EF9D5A142F8
:10084000D8D3002070BD00000548406818B1D0F82A
:10085000F40000B1004740F63D0000F035B800005C
:100860009C0100200346094810B54268002432B1BB
:10087000D2F884201AB118469047044603E040F6A7
:10088000210000F021F8204610BD00009C0100204E
:100890000549496819B1D1F8C41001B1084740F6BB
:1008A000310000F011B800009C010020054B5B688E
:1008B0001BB1D3F8903003B1184740F6240000F084
:1008C00003B800009C0100200349496819B1D1F820
:1008D000F01001B10847FEE79C0100200448406881
:1008E00010B1406900B1004740F60500FFF7ECBFCA
:1008F0009C0100200246084810B54168002429B137
:10090000896B19B110468847044603E040F60E0093
:10091000FFF7DAFF204610BD9C010020044949681A
:1009200011B1896C01B1084740F61200FFF7CCBF46
:100930009C01002070470000044B5B6813B1DB6C26
:1009400003B1184740F61300FFF7BEBF9C0100201B
:10095000704700000346094810B54268002432B1D0
:10096000D2F8A0201AB118469047044603E040F69A
:100970002800FFF7A9FF204610BD00009C010020C1
:10098000044A526812B1526E02B1104740F6190083
:10099000FFF79ABF9C0100200449496811B1896F93
:1009A00001B1084740F61E00FFF78EBF9C010020F2
:1009B00010B5A0B000236A4606E0CC1A044414F82F
:1009C000014CD4545B1CDBB28B42F6D30A46694619
:1009D000FFF7D9FB20B010BDFEE70020704710B52F
:1009E0000024FFF7FAFF00B1802400F005F808B1F9
:1009F00044F04004204610BD0020704730B5017817
:100A00004278C378114482781A441144027911441F
:100A10004279114482791144C2791144027A114415
:100A2000427A1144827A1144C27A1144C9B20A222C
:100A3000B1FBF2F302FB13146423B1FBF3F503FBE8
:100A40001515B5FBF2F2B1FBF3F13034303204731B
:100A500042733031817330BD10B52D22024903A09D
:100A600003F0E4FE002010BDE97A00085B25733A2C
:100A70002564235D796F7520686176652063686FF2
:100A80006F736520446566696E6520426F617264AC
:100A9000204F4B20696E205B636F6E6669672E681E
:100AA0005D2E200D0A00000030B587B0054600F02D
:100AB0001BF818220B496846FFF765FB094C103CF0
:100AC00094E80F0005F00CF8E8B201F087FCA4F1FF
:100AD000640002F045F807B00020BDE83040FFF7A1
:100AE0001DBF0000840800202DE9F84F06460020B5
:100AF0000C46009028216448FFF76CFB624D0021F2
:100B0000624F2E70624BDFF88CE1DFF88CA1DFF8CA
:100B10008CC16348634A4FF008094FF07E5B6961FE
:100B20000C2E76D2DFE806F0AA061A415361616AFC
:100B30007676829E85F804905B49A960AA61E96097
:100B4000C5E9072C6A62002C05D0012C02D0022CCA
:100B500002D095E0554880E055487EE085F8049045
:100B60005148A860AA61E860C5E9072C464E514883
:100B700028366A622861012C01D054B180E03089A6
:100B8000FFF7EBFCA8607089FFF7E7FCE860F088EE
:100B900008E07088FFF7E1FCA860B088FFF7DDFC93
:100BA000E8603088FFF7D9FC57E02971C5F818B024
:100BB000C5F820B0C5F81CB0C5F824B0AF60C5E9D1
:100BC00003712CB3012C48D0022C46D058E0297177
:100BD000AB61C5E9073BAF606B62C5E903709CB3CD
:100BE000012C4DD1C5F810E04AE02971AB61C5E98F
:100BF000073BAF606B62C5E9037E41E029712E4877
:100C0000AB61C5E907302D48A8606B62E8602C48ED
:100C100023E033E085F80490AA61C5E9072CC5F804
:100C200008A0C5F80CA027486A6216E085F8049071
:100C30002548A861C5E9070CAF60EF60686224B180
:100C4000012C09D0022C0AD01AE02048A861C5E97D
:100C5000070268621E4800E01E48286110E0C5F8DF
:100C600010A00DE029711449AB61C5E90731C5F841
:100C700008A06B62C5E903A214B1A3E701200090AC
:100C80000098BDE8F88F00007408002000409C45E3
:100C90000000A0410000484300803B450000204187
:100CA00000007A440000C84200606A460000FA442E
:100CB0000080BB4500007A450000A04000002F44A2
:100CC000000048420080BB44000016430000F04290
:100CD000000016440000964410B504F061FE0B4875
:100CE0000BA1096840F8011F0BA1096841600CA124
:100CF0000968816005F022FF04481130C079362868
:100D000001D0012010BD002010BD0000E80A002025
:100D1000304630360000000030303646000000001B
:100D200030303031000000000020704770477047BD
:100D30007047042000F0C2B8082000F0BFB80000DF
:100D400010B505A003F072FD802000F0B7F8BDE8F3
:100D50001040402000F0B2B845585449395F355F23
:100D600049525148616E646C65720D0A00000000C2
:100D7000F0B5204885B0816941F001018161816948
:100D800001F0010104911C494A6822F0E06242F03E
:100D900000724A60816941F040018161816901F01E
:100DA00040010491816941F0080181618069134E1D
:100DB00000F00800049000223C21304600F085F944
:100DC0000F4F4FF47C7500222946384600F07DF91C
:100DD00001243C20CDE9000469463046039400F02C
:100DE00079F8CDE9005469463846039400F072F86A
:100DF00005B0F0BD001002400000014000180140A5
:100E0000000C01400148C0687047000084020020C7
:100E100001480078704700008402002010B50446A5
:100E200003F0A0FB18B9022C03D0032C03D0002040
:100E300010BD024810BD024810BD0000713D000801
:100E4000DD3D000810B5044603F08CFB18B9022CF8
:100E500003D0032C03D0002010BD024810BD02486F
:100E600010BD0000BD3D0008113E00080020704785
:100E70000020704701480068704700003C030020D4
:100E800018220149FFF77FB92C0D00200020704780
:100E90000020704731B500F01DF9044600F01AF942
:100EA0000099001B8842F9D338BD082803D00428D4
:100EB00003D1FFF713BDFFF7C7BC7047044910B556
:100EC0000A68024202D00860FFF7EFFF10BD000081
:100ED000140401402DE9F84FDFF8BC91002309F11B
:100EE000040A0AF1040B1C464FF00F080BF1040E24
:100EF00001270A68A7403A40BA4272D1DFF89CC184
:100F00004D68A5EB0C0665452BD00DDC032D34D0C8
:100F100005DC35B3012D19D0022D2FD11BE0112D89
:100F200016D0122D2AD119E0B6F5881F19D006DC8B
:100F3000B6F5803F15D0B6F5801F1FD111E0B6F58C
:100F4000001F0ED0B6F5041F18D10AE0CB6815E0DB
:100F5000CB681B1D12E0CB6808330FE0CB680C3365
:100F60000CE08B682BB1012B4FF0080303D04761D5
:100F700004E0042302E0076100E00023FF2A01D817
:100F8000064601E000F104064FEA840501D9A5F107
:100F90002005376808FA05FC27EA0C0703FA05F56F
:100FA00047EA050737604D68ED006ED53C4DAE69E8
:100FB00046F00106AE61AD6924F0030605F00105B7
:100FC0000095384D7719BE68A5072D0F08FA05FC66
:100FD00026EA0C06DFF8D0C0604503D14FF0000CC4
:100FE00025E052E0DFF8C4C0604502D14FF0010CAB
:100FF0001DE0DFF8BCC0604502D14FF0020C16E0E6
:10100000DFF8B0C0604502D14FF0030C0FE0DFF80D
:10101000A8C0604502D14FF0040C08E0DFF89CC086
:10102000604502D14FF0050C01E04FF0060C0CFAC0
:1010300005FC4CEA060CC7F808C04D68D9F80060FA
:10104000ED034D4601D5164300E096432E604D68F2
:10105000DAF80060AD03554601D5164300E096432B
:101060002E604D68DBF80060ED025D4601D5164349
:1010700000E096432E604D68DEF80060AD027546D4
:1010800001D5164300E096432E60641C102CFFF43B
:101090002FAFBDE8F88F00000004014000001110E0
:1010A000001002400000014000080140000C014017
:1010B000001001400014014000180140001C0140D4
:1010C0008068084000D0012070470AB10161704774
:1010D0000904FBE701480068704700000400002095
:1010E00002480168491C01607047000004000020AC
:1010F000074810B5016841F010010160052000F0BB
:1011000051F80F2000F006F800F015F8002010BD8F
:101110000020024010B5044600F016F94FF47A7131
:10112000B0FBF1F000F0F2FD00222146501E00F06D
:1011300019F8002010BD704700F01F0201219140F6
:101140004009800000F1E020C0F88011704700F0F5
:101150001F02012191404009800000F1E020C0F809
:1011600000117047F0B40E4B1B68C3F30223C3F1A8
:101170000704042C00D904241D1D072D01D20023CF
:1011800000E0DB1E012606FA04F56D1E0D409D40B1
:101190009E40761E164045EA0601F0BC01F00AB9F1
:1011A0000CED00E0064A00F0070110684FF6FF035F
:1011B000184040EA012003490843106070470000CE
:1011C0000CED00E00000FA052DE9F047DFF868813A
:1011D00004460E46D8F8000000F00700B0420CD2DA
:1011E000D8F8001021F007013143C8F80010D8F8F2
:1011F000000000F00700B04273D120784F4F800705
:1012000005D57868A16820F0F00008437860207860
:10121000C00755D06068012201280CD0022828D0D0
:10122000022393FAA3F1B1FA81F141F020014909B7
:1012300004D0396803E04FF40033F2E7796A93FA97
:10124000A3F3B3FA83F303F01F039A40114248D08B
:10125000796821F0030101437960FFF73BFF054600
:10126000606841F2883101280CD00228894615D0E7
:1012700022E04FF00073D4E7FFF72CFF411B4945F4
:1012800001D916E089467868C0F381000128F3D1BE
:1012900016E0FFF71FFF411B49450AD87868C0F3E5
:1012A00081000228F5D10BE0FFF714FF411B4945EF
:1012B00002D90320BDE8F087786810F00C0FF3D155
:1012C000D8F80010404601F00701B1420BD901687F
:1012D00021F0070131430160006800F00700B042CF
:1012E00001D00120E6E72078400705D57868E1685D
:1012F00020F4E060084378602078000706D578681D
:10130000216920F4605040EAC100786000F052F892
:101310007968F02292FAA2F201F0F001B2FA82F2B8
:10132000D140074A515CC840064908600F20FFF7CA
:10133000F1FE0020BEE70000002002400010024045
:10134000157B00080000002001480068704700007D
:101350000000002008480949006849684FF4E0622D
:1013600092FAA2F201F4E061B2FA82F2D140044AA8
:10137000515CC8407047000000000020001002408F
:10138000257B000808480949006849684FF4605205
:1013900092FAA2F201F46051B2FA82F2D140044A08
:1013A000515CC8407047000000000020001002405F
:1013B000257B000810B519A085B00FC88DE80F0077
:1013C0001AA01B4B0068049059681A4801F00C02DF
:1013D000042A1DD0082A1BD14FF4701494FAA4F4E7
:1013E00001F47012B4FA84F4E240C9031DF802203B
:1013F00010D559684FF4003393FAA3F301F4003188
:10140000B3FA83F3D94004AB595CB0FBF1F050431D
:1014100005B010BD08485043FAE700000203040578
:10142000060708090A0B0C0D0E0F10100102000030
:101430000010024000127A0000093D002DE9F84F2B
:1014400004460078FE4EC0074FF001057FD070685B
:101450004FF40038C0F38100012807D07068C0F352
:10146000810002281BD17068C00318D598FAA8F033
:10147000B0FA80F040F02000400901D0306800E070
:10148000706A98FAA8F1B1FA81F101F01F0105FA2A
:1014900001F108425BD06068002879D057E06068AD
:1014A000B0F5803F0BD010B1B0F5A02F11D030684F
:1014B00020F480303060306820F4802002E0306812
:1014C00040F480303060606818B3FFF703FE0746D1
:1014D00009E0306840F480203060F0E7FFF7FAFD63
:1014E000C01B642870D898FAA8F0B0FA80F040F0D9
:1014F0002000400901D0306800E0706A98FAA8F135
:10150000B1FA81F101F01F0105FA01F10842E5D0BD
:101510001DE0FFF7DFFD074604E0FFF7DBFDC01B22
:101520006428DFD898FAA8F0B0FA80F040F02000E4
:10153000400901D0306800E0706A98FAA8F1B1FA69
:1015400081F101F01F0105FA01F10842E5D120788F
:10155000DFF8F08280074FF0000A4FF002075AD5FB
:1015600070684FF0F80B10F00C0F07D07068C0F3E4
:10157000810002281CD17068C00319D497FAA7F023
:10158000B0FA80F040F02000400902D0306801E05D
:101590008AE0706A97FAA7F1B1FA81F101F01F01B0
:1015A00005FA01F108422BD0206901287CD127E0FF
:1015B000206988B395FAA5F0B0FA80F048F8205079
:1015C000FFF788FD814606E04DE1FFF783FDA0EBC4
:1015D0000900022886D897FAA7F0B0FA80F040F008
:1015E0002000400901D0306800E0706A97FAA7F146
:1015F000B1FA81F101F01F0105FA01F10842E4D0CE
:1016000030689BFAABF220F0F8016069B2FA82F21E
:1016100090400143316025E0FFE795FAA5F1B1FA6A
:1016200081F148F821A0FFF755FD814605E0FFF75D
:1016300051FDA0EB09000228CCD897FAA7F0B0FA28
:1016400080F040F02000400901D0306800E0706A6E
:1016500097FAA7F1B1FA81F101F01F0105FA01F142
:101660000842E4D1207800076DD5A069B8B395FA97
:10167000A5F0B0FA80F008EB8000C0F88054FFF7C6
:1016800029FD814605E0FFF725FDA0EB09000228B2
:10169000A0D897FAA7F0B0FA80F040F06000B5EB60
:1016A000501F02D130680CE063E197FAA7F0B0FA5E
:1016B00080F040F06000B7EB501F01D1306A00E0CD
:1016C000706A97FAA7F1B1FA81F101F01F0105FAEA
:1016D00001F21042D7D00120FFF7DCFB33E0FFE737
:1016E00095FAA5F1B1FA81F108EB8101C1F880A466
:1016F000FFF7F0FC814605E0FFF7ECFCA0EB0900EA
:10170000022899D897FAA7F0B0FA80F040F060006C
:10171000B5EB501F01D130680BE097FAA7F0B0FA93
:1017200080F040F06000B7EB501F01D1306A00E05C
:10173000706A97FAA7F1B1FA81F101F01F0105FA79
:1017400001F21042D8D12078400763D5F06940F00B
:101750008050F061F069DFF8F0B000F08050009048
:10176000DBF8001041F48071CBF80010FFF7B2FCF9
:10177000814605E0FFF7AEFCA0EB0900642872D8B3
:10178000DBF80000C005F5D5E06801280AD008B1F3
:10179000052813D0306A20F001003062306A20F052
:1017A000040002E0306A40F001003062E06841F27B
:1017B000883B80B3FFF78EFC81460AE0306A40F038
:1017C00004003062EEE7FFF785FCA0EB0901594504
:1017D00049D897FAA7F0B0FA80F040F04000B5EB96
:1017E000501F01D130680BE097FAA7F0B0FA80F0F3
:1017F00040F04000B7EB501F01D1306A00E0706A42
:1018000097FAA7F1B1FA81F101F01F0205FA02F18E
:101810000842D8D033E0FFE7FFF75CFC814605E0E3
:10182000FFF758FCA0EB090159451CD897FAA7F01F
:10183000B0FA80F040F04000B5EB501F08D105E051
:1018400000100240000042420070004030680CE08E
:1018500097FAA7F0B0FA80F040F04000B7EB501FC5
:1018600002D1306A01E08AE0706A97FAA7F1B1FA12
:1018700081F101F01F0205FA02F10842D0D1E069BE
:1018800098B37168C1F38101022972D002284FF028
:1018900080714FF0007B50460AD091FAA1F1B1FA65
:1018A00081F148F82100FFF715FC04465F4669E026
:1018B0008A4691FAA1F1B1FA81F1C14648F82100B6
:1018C000FFF708FCA84607465D4604E0FFF702FC68
:1018D000C01B022853D895FAA5F0B0FA80F040F06A
:1018E0002000400902D0306801E060E0706A95FA9B
:1018F000A5F1B1FA81F101F01F0208FA02F10842E4
:10190000E4D1206AB0F5803F05D17068A16820F469
:10191000003008437060D4E908010843716821F47D
:101920007411084370609AFAAAF0B0FA80F0474642
:1019300049F82080FFF7CEFB044604E0FFF7CAFB1E
:10194000001B02281BD895FAA5F0B0FA80F040F0F1
:101950002000400901D0306800E0706A95FAA5F1D6
:10196000B1FA81F101F01F0107FA01F10842E5D057
:101970001DE01EE0FFF7AEFB001B022802D903208A
:10198000BDE8F88F97FAA7F0B0FA80F040F0200099
:10199000400901D0306800E0706A97FAA7F1B1FA07
:1019A00081F101F01F0105FA01F10842E2D10020A6
:1019B000E6E70120E4E7000010B5040003D094F846
:1019C000510010B104E0012010BD204600F038F8AD
:1019D000022084F851002068016821F04001016074
:1019E000D4E901010843D4E90312114308436169B2
:1019F0000843218B01F400710843E1690843216A1F
:101A00000843A16A084321680860A069042101EA2B
:101A10001040616A0843216848602168E06A0861F3
:101A20002068C16921F40061C16104490020087087
:101A30006065012084F85100002010BD08000020DE
:101A400070472DE9F8430026DDF820800446ADF804
:101A5000006090F85100012803D094F8510022282A
:101A60007DD169B162B15BB194F85000012876D0A4
:101A7000012784F8507094F85100012803D005E044
:101A80000120BDE8F883322084F851006665A26326
:101A9000A387E3872163A386E386A664E664A06A3E
:101AA0004FF40055A84209D12068016821F4005183
:101AB00001602068016841F40051016020680168FC
:101AC000490603D4016841F040010160E0684FF429
:101AD0008271B0F5006F606807D0002867D0884237
:101AE0006ED1E08E012862D06AE020B188420CD12C
:101AF000E08E012809D1206B21680088C860206B26
:101B0000801C2063E08E401EE086E08E80B9A06AD3
:101B1000A84244D12068016841F4805101603EE050
:101B20002068C068A16B0880A06B801CA0639EE049
:101B3000434600220221204601F020FE002874D1F5
:101B4000206B21680088C860206B801C2063E08EB9
:101B5000401E0004000CE08609D1A06A00E0C7E046
:101B6000A84204D12068016841F4805101604346D5
:101B700000220121204601F001FE00286FD12068DB
:101B8000C068A16B0880A06B801CA063E08F401E22
:101B9000E087E08E0028CBD1606800286AD14346F8
:101BA00000220121204601F0E9FDF0BBB8E7206BDF
:101BB000411C216321680078C860E08E401EE086E9
:101BC000E08E98B9A06AA84204D12068016841F467
:101BD00080510160434600220121204601F0CEFDE4
:101BE00018BB2068C068A16B087040E04346002223
:101BF0000221204601F0C2FDB8B9206B411C2163CF
:101C000021680078C860E08E401E0004000CE08669
:101C100007D1A06AA84204D12068016841F480512C
:101C2000016000224346012100E018E0204601F057
:101C3000A5FDA0B92068C168A06B421CA263017019
:101C4000E08F401EE087E08E0028CFD1606888B921
:101C5000434600220121204601F090FD08B10320F7
:101C60000FE72068C168A06B421CA2630170E08F7F
:101C7000401EE087A06AA84210D1434600220121FD
:101C8000204601F07BFD18B1606D40F002000FE0CE
:101C90002068C068ADF80000BDF80000434601228E
:101CA0008021204601F06AFD20B1606D40F01000F7
:101CB0006065D4E784F85170A06AA84214D1206806
:101CC0008168C943C9060FD4616D41F002016165A5
:101CD000016821F4005101602068016841F400515D
:101CE000016084F85060CBE684F850600020C8E6BC
:101CF0000220C6E64FF0E0210428086903D020F056
:101D000004000861704740F00400FAE710B5401E77
:101D1000B0F1807F01D3012010BD4FF0E02460615D
:101D20000F21601700F046FB0020A0610720206112
:101D3000002010BD10B5040003D094F8390010B194
:101D400007E0012010BD002084F83800204600F094
:101D50000CF8022084F83900211D206801F03CFFB6
:101D6000012084F83900002010BD70470168CA685E
:101D700042F00102CA600068016841F0010101609F
:101D80000020704710B50268044631B1042908D01C
:101D9000082920D00C2908D121E0D06840F00200A9
:101DA00002E0D06840F00400D0600122206801F019
:101DB00055FF0D492068884202D00C49884203D162
:101DC000416C41F4004141642068016841F0010127
:101DD0000160002010BDD06840F00800E4E7D06842
:101DE00040F01000E0E70000002C0140003401400A
:101DF00010B50268044631B1042908D008292FD053
:101E00000C2908D130E0D06820F0020002E0D06850
:101E100020F00400D0600022206801F01FFF144869
:101E200041F2111221689310814202D0114881427F
:101E300009D1086A104206D1086A184203D1486CD9
:101E400020F4004048642068016A114206D1016A0A
:101E5000194203D1016821F001010160002010BD89
:101E6000D06820F00800D5E7D06820F01000D1E756
:101E7000002C014000340140704790F83900704751
:101E800038B5044600680168C268C1F3000102F475
:101E9000807221B11AB1E16B41F00101E163016887
:101EA000C1F34002416901F0010122B119B1E26BB5
:101EB00042F00402E2630268C2F3800222B119B167
:101EC000E26B42F00202E2630268C2F3C00222B196
:101ED00019B1E16B41F00801E1630168C068C1F329
:101EE000401100F0200019B110B1204602F066F850
:101EF00020680168C068C1F3C01100F0800019B10A
:101F000010B1204602F066F921680868CA68C0F37B
:101F1000801002F04002012568B162B1CA68204613
:101F200022F04002CA6094F83910322910D080F8AB
:101F3000395000F0B1F9E06B002808D02068016842
:101F40004068009084F839502046FFF795FF38BD6F
:101F5000222180F83910ECE770B5040004D094F821
:101F60003900002510B106E0012070BD84F838501A
:101F7000204600F021F8022084F839002068C1686A
:101F800021F40051C160204602F06CF8206801691C
:101F900021F4904101612068416921F02A014161E9
:101FA0002068C16841F40051C160E563012084F8F4
:101FB0003900002070BD000010B500681E4986B0D1
:101FC000884236D11D48816941F0040181618169EF
:101FD00001F004010491816941F4804181618169CA
:101FE00001F480410491816941F0010181618069BE
:101FF000134C00F0010004904FF400700090022098
:102000000190012002900320039069462046FEF7CC
:1020100061FF211500910021019169462046FEF7DC
:1020200059FF2520FFF793F8032211462520FFF7DB
:1020300099F806B010BD00000038014000100240C1
:10204000000801402DE9F047044690F83900994610
:102050000D46012801D0122857D125B31AB394F8A0
:102060003800012851D0012684F838600027E76342
:1020700094F83900122819D0222084F83900A2855A
:10208000E2854FF48058E08D4B46401EE085A06805
:102090004FF0000240454FF02001204616D102F0DB
:1020A000CCF8B0B904E00120BDE8F0873220E4E7C5
:1020B000206900282068406803D0C1B225F8011BC0
:1020C00012E0C0F3080125F8021B0DE002F0B5F89C
:1020D00008B10320E8E7206900282068406801D0A3
:1020E00000F07F0005F8010BE08D0028CBD194F8BB
:1020F0003900322805D084F8396084F8387000201F
:10210000D2E7122084F83900F7E70220CCE790F8F4
:102110003930012B01D0122B2BD131B32AB390F8D7
:102120003830012B25D0012380F838308162828538
:10213000C2850021C16390F83920122A17D02222CB
:1021400080F8392080F838100168CA6842F480723B
:10215000CA6001684A6942F001024A610068C168C8
:1021600041F02001C16000207047012070473222F9
:10217000E6E702207047000030B500681149884248
:102180000CD1114A5088010408D41146440409783E
:102190004FF0000306D50A2901D0538030BD40F42A
:1021A00000400DE00D2909D0C0F30D04074D401C7F
:1021B00080B229555080C728EFD830BD40F4804008
:1021C000508030BD00380140100000207404002011
:1021D0002DE9F047044690F8390099460D4601284C
:1021E00001D0222856D125B31AB394F8380001281B
:1021F00050D0012684F838600027E76394F839004E
:10220000222819D0122084F83900A284E2844FF4E5
:102210008058E08C4B46401EE084A0684FF00002DE
:1022200040454FF08001204613D102F006F808BB6C
:1022300004E00120BDE8F0873220E4E72888216827
:10224000C0F308004860206908B16D1C08E0AD1CAF
:1022500006E001F0F2FF68B9216815F8010B48604B
:10226000E08C0028D5D14B4600224021204601F0C9
:10227000E4FF08B10320DDE794F83900322805D0E7
:1022800084F8396084F838700020D3E7222084F87D
:102290003900F7E70220CDE77047FEE770470000FE
:1022A00010B535220E490FA002F0C0FA02F0C8F8AE
:1022B00002F0ECF8FEF75CFD3C22094912A002F0A6
:1022C000B5FA012001F034F915480068006880472C
:1022D0003C23BDE810404022014912A002F0A6BAFA
:1022E000037B00085B25733A2564235D7374617278
:1022F0007420496E69745F426F6172645F436F6EF0
:102300006669672E200D0A005B25733A2564235DFC
:10231000696E69742070756D702E200D0A000000C2
:10232000C00200205B25733A2564235D5B48756D10
:102330006D696E67626972645D2C70726F746F6331
:102340006F6C2073697A653A25640D0A00000000FD
:10235000002070477047000010B500210220FEF7F2
:102360005DFD044C002120600220FEF76BFD6060E3
:1023700010BD00000C0300207047022070470000D1
:10238000024800210180817070470000B0010020E8
:1023900000207047034A01EB011102EB41012222A8
:1023A000FDF7F1BE170B002000207047FEE77047D5
:1023B000704770470907090E002806DA00F00F0081
:1023C00000F1E02080F8141D704700F1E02080F853
:1023D0000014704700207047704700000548064908
:1023E00082684A6082890A8002688A6080884880A0
:1023F00070470000940500209001002010B5FEF702
:10240000ACF8BDE810400149FDF747BFA5D46841CD
:1024100010B50549FDF741FF4FF07C51FDF7E5FE92
:10242000FEF7B1F880B210BDCCBC8C3D014988608C
:102430007047000018000020014908617047000043
:10244000180000200149C8607047000018000020F3
:1024500010B50549FDF721FF4FF07C51FDF7C5FE92
:10246000FEF791F8C0B210BD00601F4410B5FEF732
:1024700074F8BDE810400149FDF70FBF679ACD3AE7
:1024800008210148FEF71CBE001401400248012249
:1024900001884068FEF719BE900100200248002222
:1024A00001884068FEF711BE9001002072B67047A7
:1024B00062B6704704210148FEF702BE00140140D5
:1024C00082B000283CD11F48816941F4807181614C
:1024D000816901F480710091816941F0800181611D
:1024E000816901F080010091816941F040018161C1
:1024F000816901F040010091816941F02001816111
:10250000816901F020010091816941F01001816130
:10251000816901F010010091816941F0040181613C
:10252000816901F004010091816941F00801816134
:10253000806900F008000090052002B003F058BA4E
:1025400002B07047001002400248012241888068B2
:10255000FEF7BBBD9001002070470000024800223A
:1025600041888068FEF7B1BD900100200D480C49FC
:10257000012201602021C1614261002181600222AB
:1025800002610722C0E90A12C1604FF400720162C1
:10259000826141624FF482714160FFF70DBA000021
:1025A00000300140A40500202DE9F84390460D4677
:1025B0000646FFF773FF00244FF480590CE0012317
:1025C0002A4631460848CDF80090FFF73AFA07004E
:1025D00004D1641C6D1C761C4445F0D3FFF756FFF4
:1025E0003846BDE8F8830000A405002010B5044675
:1025F000FEF7E0FEA101B0FBF1F00749401E0A68BA
:10260000D062C860096840088863BDE810400421B2
:102610000148FFF7B7BB0000FC050020042101487A
:10262000FFF7E6BBFC05002010B5054CA0680028AC
:1026300004D00121617080470020607010BD00004F
:102640001800002010B5FFF71BFF08B1002010BDD7
:10265000012010BD10B5FFF72DFF08B1002010BDFF
:10266000012010BD2DE9F05F3C4A8A460024917894
:1026700081426FD99178DFF8E8B0081A401EC4B2E1
:102680000AF0FF01002041F0200590460BF10C09F3
:102690000027464688F8007008B1FFF709FFB046EA
:1026A00000205E460CE031183754CF708F714F72A6
:1026B00009F8007009EB0001401CCF708F714F7258
:1026C00098F802108842EED35046BAF1070F2AD08C
:1026D00008DCBAF1070F15D2DFE80AF01422252230
:1026E0002225250018281ED007DC08281BD00D281D
:1026F00019D0BAF1150F05D115E01A2813D0BAF187
:102700001B0F10D0301901278571FFF7CFFE98F805
:10271000001001200029BBD1C7F103054F460DE091
:1027200035550327F1E730190227C570EDE705EBB2
:102730004500C119304400F0EDFE6D1C042DF6D3A8
:102740003919C8788A79000440EA0224487A044397
:10275000FFF7AEFE2046BDE8F09F00001800002005
:102760007C0500202DE9F041234C0025A178814211
:102770003ED9A178214F081A401EC5B200208046DC
:1027800007F10C0684F8008008B1FFF791FE0020E5
:1027900012E0391807F8008081F8038081F806807C
:1027A00081F8098006F800803118401C81F8038008
:1027B00081F8068081F80980A1788842E9D3D02089
:1027C0007855FFF773FE217801200029DAD1002423
:1027D00004EB44008119384400F09CFE641C032C77
:1027E000F6D370198179C07841EA0025FFF760FEC1
:1027F0002846BDE8F0810000180000207C0500207C
:102800000022702100F0B0BA0022782100F0ACBAAA
:102810000A46602100F0A8BA41F0680100F0A4BAAD
:10282000114341F082011A4600F09EBA0022A8210D
:1028300000F09ABA0022B82100F096BA41F04001A7
:1028400000F092BA0022114600F08EBA114341F016
:102850009201002200F088BA0022C02100F084BA60
:102860000022D82100F080BA41F0500100F07CBA7B
:102870002DE9F05F8B46384916468A78824268D93E
:102880008A78DFF8D8A0101A401EC4B20020C6F320
:1028900007280BF0FF058946002789F8007008B16A
:1028A000FFF706FE0020524605E017541118401CA1
:1028B000CF708F714F7299F802108842F5D3584645
:1028C000BBF1070F32D008DCBBF1070F13D2DFE8F2
:1028D0000BF012252D25122D2D00152826D005DCF4
:1028E000082823D0BBF10D0F05D11FE018281DD0FB
:1028F000BBF11A0F1AD01019012785710AEB0400D9
:102900004672FFF7D3FD99F8001001200029C3D1CA
:10291000124EC7F1030455460C3614E0310C101961
:102920001555C17080F806800327E7E710190227C4
:10293000C57080F80680E1E704EB44008119284463
:1029400000F0E8FD641C042CF6D3BDE8F05FFFF74F
:10295000AFBDBDE8F09F0000180000207C050020FE
:102960000022A02100F000BA0022B02100F0FCB942
:1029700041F05801002200F0F7B9810204D5C043AC
:10298000401CC0F31500404270470000024909692D
:1029900001B10847FEE700001800002010B5FDF760
:1029A000DCFD0449FDF721FCBDE810400249FDF7BC
:1029B00074BC000077BE7F3F0024744110B503490A
:1029C000FDF76BFCFDF7DFFD80B210BDBD37863D26
:1029D00070B50020104D014605F10C06D0230F4CB8
:1029E0000BE02A182B54D170917151723154321866
:1029F000401CD17091715172C0B2A2789042F0D354
:102A0000002404EB44008119284400F083FD641C79
:102A1000E4B2032CF5D370BD7C0500201800002023
:102A200010B5054CE068002804D001216170804792
:102A30000020607010BD00001800002070B50D4629
:102A400006461621FFF70EFE40F3C0042946304625
:102A5000641CFFF707FE162D3FD2DFE805F03E0BA2
:102A60003E0B13101016192C2C2C2C233335352625
:102A70003E29291EFFF781FFFDF766FD2AE0FFF7DB
:102A8000BDFC27E000F0C2FC24E000F0D1F821E01A
:102A9000C0F30B0000F0E4F81CE0C0F30900FFF7FE
:102AA0007DFF17E000F06EF814E000F09CF811E0F4
:102AB00000F0B6FC0EE014B100F0B0F80AE000F04F
:102AC00001FD07E03CB100E014B1FFF7CFFC01E0ED
:102AD00000F0CAFC0646304670BDFDF73EFDF9E742
:102AE000084A0146002093788B4209D99078401A11
:102AF000401E0549C0B208448179C07841EA0020EF
:102B0000704700001800002088050020004870472A
:102B10000005010010B50321FFF7A4FDBDE810403A
:102B2000FFF72BBF01488078704700001800002095
:102B300010B50121FFF796FDBDE81040FFF71DBF5E
:102B4000064810B50079FFF7BBFCFFF70FFDFFF754
:102B500003FDBDE81040052002F04ABF1800002028
:102B600010B550B10146002000F048FA0020FFF7F0
:102B70005DFEBDE81040FFF72BBF002000F076FBA4
:102B8000F4E7000010B5FDF7E8FCBDE8104001498E
:102B9000FDF783BBD923743D10B50549FDF77DFBD7
:102BA0004FF07C51FDF721FBFDF7EDFC80B210BD2D
:102BB000BD37864110B5FFF7D5FD800701D4012050
:102BC00010BD002010BD10B54FF07E51FDF75FFB2A
:102BD0000521FDF794FB4FF07C51FDF706FBFDF757
:102BE000D2FCC0B210BD10B5FDF7B7FC6FF0040108
:102BF000FDF785FBBDE810404FF07E51FDF7F5BABB
:102C000010B50549FDF749FB4FF07C51FDF7EDFA92
:102C1000FDF7B9FCC0B210BD0AD7234010B5FDF7CF
:102C20009CFCBDE810400149FDF737BB0000C83EE1
:102C300010B5FDF792FCBDE810400149FDF72DBB32
:102C40000024744110B50549FDF727FB4FF07C5176
:102C5000FDF7CBFAFDF797FC80B210BDBD37863D7E
:102C600010B5FDF77AFCBDE810400149FDF715BB32
:102C70000024743E10B50549FDF70FFB4FF07C5161
:102C8000FDF7B3FAFDF77FFC80B210BDBD3786407B
:102C9000144B10B59C7884421AD99B78124C181AA0
:102CA000401EC3B201F0FA00682812D006DC4028AA
:102CB0000FD050280DD0602804D10AE0822808D017
:102CC0008A2806D00022E018E254C2708271417254
:102CD00010BDE154E018110CC170110A81714272EB
:102CE00010BD0000180000207C05002001488088ED
:102CF000704700001800002010B51B21FFF7B2FC40
:102D000080B210BDFFF720BCFFF728BC70B50546A8
:102D1000082927D2DFE801F00406080A0C0E101279
:102D200000240CE001240AE0022408E0032406E069
:102D3000042404E0052402E0062400E007242846D9
:102D4000FFF774FD16212846FFF78CFC00F0F8020F
:102D5000224316212846FFF78BFD2846FFF780FD0A
:102D6000012070BD002070BD2DE9F05F0E46304996
:102D700014468A78824258D98A784FF00009101A8E
:102D8000401EC5B24846CB468A46D84657468AF8C2
:102D900000B008B1FFF78CFB4246B8460020254F33
:102DA00005E03A543918401CCA708A714A7298F882
:102DB00002108842F5D306F0FA0068281CD006DC21
:102DC00040281BD0502819D0602804D114E0822854
:102DD00014D08A2812D078197A55C270827146723E
:102DE000FFF764FB98F8001001200029CDD1114DA8
:102DF000C9F103040C3512E0C4F3150478197E55AB
:102E0000210CC170210A817144724FF00309E7E778
:102E100004EB44004119384400F07CFB641C042C92
:102E2000F6D3BDE8F05FFFF743BBBDE8F09F0000BD
:102E3000180000207C05002070B5074D0024A5F186
:102E40000C0604EB44004119304400F063FB641CA1
:102E5000E4B2042CF5D370BD880500202DE9F041C3
:102E60000E461546804601241621FFF7FBFB40F372
:102E7000C000594A401C954204D3012E02D0032EB3
:102E800000D000245549162E22D2DFE806F0212971
:102E90000B29213D3D444B7D7D7D7D678B8E8E6E64
:102EA000217777584E48854212DC15F0FF4F11D03C
:102EB00016210020FFF7D6FB00F00700C0F1070144
:102EC00001208840FDF740FB2946FDF78DFB01D22C
:102ED000002477E02846FDF756FBC0F308026CE0BB
:102EE0004FF40017954207D385F00040FDF74BFBE8
:102EF000B842EDD8404204E02846FDF744FBB84212
:102F0000E6D2C0F3150258E036488542E0DC284698
:102F1000FFF77EFA50E034488542D9DC2846FFF7B7
:102F200091FE49E031488542D2DC31464046FFF708
:102F300099FB00F480572846FFF79CFE0BE02C48D5
:102F40008542C5DC31464046FFF78CFB00F48067C4
:102F50002846FFF733FD47EA00022EE02548854268
:102F6000B6DC2846FFF718FE26E0A5F17E50B0F546
:102F7000701FADD82846FFF726FE1DE08D42A7DC66
:102F8000284600F059FA17E030B1B5F5000F9FDA86
:102F90002846FFF735FE0FE08D4299DC284600F009
:102FA0007DFA09E0002893D000E070B11248854214
:102FB0008EDC2846FFF74CFA02461CB131464046EB
:102FC000FFF756FC2046BDE8F081B5F1854F9DDC4A
:102FD000284600F053FAEFE70000808000007A44B2
:102FE0000080FF4300C6684700E87346331374440B
:102FF0000024744600207444CDCCCC3E70B50C4601
:10300000054600220121FFF733FC00220221284659
:10301000FFF72EFC002203212846FFF729FC6068F9
:10302000FFF7F6F9024605212846FFF721FCA068C4
:10303000FFF7EEF9024606212846FFF719FCE06883
:10304000FFF700FE024607212846FFF711FC206922
:10305000FFF7F8FDA18A40EA010208212846FFF7A0
:1030600007FCA069FFF7AAFCA18B40EA0102152129
:103070002846FFF7FDFB206A00F0DEF90246132127
:103080002846FFF7F5FB94F8252020781621024307
:1030900094F8240002432846FFF7EAFB94F8262020
:1030A00017212846FFF7E4FB94F8272094F82A001C
:1030B000A18D0243208D0843024318212846FFF7C3
:1030C000D7FB94F82E2094F82F00192102432846AC
:1030D000FFF7CEFB207800284DD054F8300F00F0D9
:1030E000DDF9024609212846FFF7C2FB606800F0BF
:1030F000D5F902460A212846FFF7BAFBA06800F07E
:10310000CDF902460B212846FFF7B2FBE06800F03C
:10311000C5F902460C212846FFF7AAFB227C607CF9
:103120000E2102432846FFF7A3FB606900F0A6F9D1
:1031300002460F212846FFF79BFBA06900F09EF98D
:10314000024610212846FFF793FB227F607F94F808
:1031500020100243A07F08430243608C0243A08CEE
:103160000243E08C0243208D02432846BDE87040B4
:103170001A21FFF77DBB206CFFF70EFD02460D21E3
:103180002846FFF775FB206DFFF71DFD0246112154
:103190002846FFF76DFB606D00F04EF902461421E2
:1031A0002846FFF765FB206BFFF72AFD0246092141
:1031B0002846FFF75DFB606BFFF722FD02460A2100
:1031C0002846FFF755FBA06BFFF71AFD02460B21BF
:1031D0002846FFF74DFBE06BFFF712FD02460C217E
:1031E0002846FFF745FB606CFFF732F902460E21D7
:1031F0002846FFF73DFBA06CFFF72AF902460F2196
:103200002846FFF735FBE06C3C34FFF721F9024616
:1032100010212846FFF72CFB227F607FE17F0243CD
:10322000A07F08430243208C0243608C0243A08CA1
:103230000243E08C98E770B50D4604460121FFF784
:1032400011FA421B2046BDE870400121FFF710BB78
:103250000A460321FFF70CBB032803D802498870F4
:103260000120704700207047180000202DE9F14F21
:10327000002201210098FFF7FBFA002202210098AA
:10328000FFF7F6FA002203210098FFF7F1FA574EF4
:10329000574FDFF86081DFF86091DFF860B1584C7C
:1032A000584D00984FF07E5A18B1012801D00228DD
:1032B0007ED13046FFF7ACF8024605210098FFF7B3
:1032C000D7FA3046FFF7A4F8024606210098FFF728
:1032D000CFFA3846FFF7B6FC024607210098FFF701
:1032E000C7FA0020FFF7C6FC024608210098FFF746
:1032F000BFFA4046FFF762FB024615210098FFF730
:10330000B7FA082213210098FFF7B2FA0422162117
:103310000098FFF7ADFAEF2217210098FFF7A8FAFF
:10332000C32218210098FFF7A3FA40221921009820
:10333000FFF79EFA4846FFF72FFC02460D21009842
:10334000FFF796FA5046FFF73EFC0246112100981F
:10335000FFF78EFA584600F06FF8024614210098E5
:10336000FFF786FA2046FFF74BFC0246092100983A
:10337000FFF77EFA2046FFF743FC02460A21009839
:10338000FFF776FA2046FFF73BFC02460B21009838
:10339000FFF76EFA2046FFF733FC02460C21009837
:1033A000FFF766FA1848FFF753F802460E2100E0CF
:1033B0001AE00098FFF75CFA2846FFF749F8024642
:1033C0000F210098FFF754FA2846FFF741F802460C
:1033D00010210098FFF74CFA0098BDE8F84F42F62C
:1033E00008621A21FFF744BABDE8F88F0080114443
:1033F000000048440000C8434A0C764200D0044410
:1034000000002041751F803D2D431C3D10B5FDF788
:10341000A4F8BDE810400149FCF73FBF0024743C0C
:1034200010B5401CFDF799F8BDE810400149FCF7C4
:1034300034BF00000000FA4110B50749FCF727FF30
:103440000649FCF72AFF4FF07C51FCF7CEFEFDF752
:103450009AF8C0B210BD00000000FA416F12033D9F
:10346000FFF7C4B8FFF7DAB810B5401CFDF775F8E0
:10347000BDE810404FF0FF31FCF741BF10B54FF0F1
:103480007C542146FCF703FF0121FCF738FF21465D
:10349000FCF7ABFEFDF777F8C0B210BD10B50749D9
:1034A000FCF7F5FE0649FCF7F8FE4FF07C51FCF7FF
:1034B0009CFEFDF768F8C0B210BD00000000FA40A5
:1034C0006F12033E10B5401CFDF747F8BDE81040F1
:1034D0000149FCF7E2BE00000000FA4070B5084E5A
:1034E00000252C4605E02046FFF764FB0543641CDD
:1034F000E4B2B0788442F6D3002DF1D170BD000063
:103500001800002010B504462046FFF753FB0028A2
:10351000FAD110BD10B5054CA278FFF745F86078D8
:10352000002801D00120207010BD000018000020EC
:10353000054928B1012802D101F12800086070472F
:103540000148001DFAE70000C002002010B502F09B
:1035500027FA124812A1096840F8011F12A1096850
:10356000416013A10968816003F0E8FA0B4A072063
:103570001132115C412901D2303900E03739115440
:10358000401C0B28F5DB907A517A00EB0110117A80
:10359000D279090201EB0231084410BDE80A00208B
:1035A0003046303400000000303036350000000076
:1035B000303030310000000000207047034810B563
:1035C0000068406980470249086010BDC0020020C1
:1035D0003C03002010B518210348FCF7FBFD03480D
:1035E0000021016010BD00002C0D00203C030020D4
:1035F000002070472DE9F041002490460E46054614
:103600000B2802D10021FDF74FFA164FE8B2FEF762
:10361000E5FE3A4641460020FDF78EF941F658375F
:10362000F0B2641CFEF7A9FE70B1BC420EDB0124AF
:1036300040F29F220C490DA001F0F8F80020FDF7A0
:103640006DF90B2D06D009E00024F7E7012002F008
:10365000CFF9E5E701210B20FDF726FA2046BDE86A
:10366000F081000080841E00B57B00085B4552524B
:103670004F522025733A2564235D6D6F746F72205D
:103680006E6F2066696E64206C69676874200D0A2D
:10369000000000000120704700207047704700B50F
:1036A00087B031214FF47A70ADF8100021208DF8E9
:1036B00000008DF8051035228DF804200A208DF8C1
:1036C0000F00302020228DF80B208DF802108DF88D
:1036D0000A208DF801008DF809208DF807108DF86B
:1036E00003008DF808008DF80600684603F056F8D0
:1036F0009DF8000007B000BD10B502F051F90B4C69
:103700000BA0006844F8010F0BA0006860600CA0DB
:103710000068A06003F012FA0BA00068606008A0C7
:103720000068A06003F00AFA002010BDE80A00203B
:1037300030463036000000003030434300000000C7
:1037400030303031000000003031324300000000E2
:103750000E22024902A001F069B80000B87C0008FE
:103760005B25733A2564235D696E6974205331319A
:1037700032352070756D700D0A0000002DE9F0479C
:103780001D4690460F460446FDF7A4FC06465FEA38
:1037900008004FF000084FF4005A4FF0010926D0FE
:1037A00034E0681C23D025B1FDF794FC801BA842AF
:1037B0001DD92068416821F0E0014160206801685E
:1037C00021F040010160A06A504509D120680168DC
:1037D00021F4005101602068016841F4005101604A
:1037E00084F8519084F850800320BDE8F087206869
:1037F000806837EA0000D4D10DE0681C06D0002DA7
:10380000D7D0FDF767FC801BA842D2D8206880681B
:1038100037EA0000F1D00020E7E7002070470020E1
:1038200070477047002070470A4910B50122C1E96E
:103830000102A0F26310FCF795FE074A074BFCF764
:1038400011FE0022064BFCF70AFEFCF7B0FE05490C
:10385000086310BD840200205C8FC2F5285CEF3F36
:1038600000007940680900200A2190FBF1F201FB79
:10387000120390FBF1F292FBF1F001FB102070B506
:1038800092FBF1F292FBF1F501FB152592FBF1F2AF
:1038900092FBF1F601FB162288B04FF47A76ADF870
:1038A000106021268DF8006031268DF80F10302130
:1038B0008DF805608DF804108DF802608DF8011008
:1038C0008DF8031020218DF80B1030308DF80A1080
:1038D00030328DF807008DF8092030353033002460
:1038E0008DF808508DF80630684602F057FF9DF8B5
:1038F0000200232800D0012408B0204670BD0A2110
:1039000090FBF1F201FB120390FBF1F270B592FB18
:10391000F1F001FB102592FBF1F292FBF1F001FBBB
:10392000102692FBF1F090FBF1F201FB120088B03F
:103930004FF47A72ADF8102021228DF80020312248
:103940008DF80F108DF8022030218DF801108DF8C0
:1039500003108DF8052033218DF8041020218DF8F7
:103960000B108DF80A1030308DF8090030353036E4
:103970008DF80750303300248DF808608DF806303C
:10398000684602F00BFF9DF80200232800D00124B6
:1039900008B0204670BD0A2190FBF1F201FB120332
:1039A00090FBF1F270B592FBF1F001FB102592FB58
:1039B000F1F292FBF1F001FB102692FBF1F090FB8B
:1039C000F1F201FB120088B04FF47A72ADF81020CA
:1039D00021228DF8002031228DF80F108DF8022061
:1039E00030218DF801108DF803108DF80520342159
:1039F0008DF8041020218DF80B108DF80A1030304E
:103A00008DF80900303530368DF8075030330024FA
:103A10008DF808608DF80630684602F0BFFE9DF80C
:103A20000200232800D0012408B0204670BD70B5E4
:103A30000D460024FFF7AFFF18B92846FFF75FFFD8
:103A400008B1012070BD204670BD0020704770474E
:103A500030B58FB00121009102250904002407959B
:103A6000CDE90114CDE908106846FDF7E7FC00B187
:103A7000FEE70F20CDE90A054FF48060CDE90C4048
:103A800002210AA80E94FDF79FFB002800D0FEE754
:103A90000FB030BD704700B587B031214FF47A7058
:103AA000ADF8100021208DF800008DF805103622A9
:103AB0008DF804200A208DF80F00302020228DF888
:103AC0000B208DF802108DF80A208DF801008DF87A
:103AD00009208DF807108DF803008DF808008DF887
:103AE0000600684602F05AFE9DF8000007B000BDCF
:103AF00010B501F055FF074807A1096840F8011FFC
:103B000007A10968416008A10968816003F016F8FF
:103B1000002010BDE80A00203046303600000000CA
:103B200030313244000000003030303100000000FD
:103B3000FDF7D6BA0D48016841F001010160416806
:103B40000B4A1140416001680A4A11400160016856
:103B500021F480210160416821F4FE0141604FF4AD
:103B60001F0181600449C0030860704700100240D3
:103B70000000FFF8FFFFF6FE08ED00E010B50A4C6C
:103B80002068C068C043C00709D108480069804761
:103B900021680020486221686420C862E0602168D2
:103BA0006FF00100086110BD440D0020800300206B
:103BB00008490868C268D243D20705D142620A6840
:103BC00042F20F70D062C86009686FF001000861AE
:103BD00070470000B8070020F0B502681A4D1B4E70
:103BE0001B4FDFF870C01C4B4FF0804EA84209D02D
:103BF000984207D0704505D0B04203D0B84201D0FA
:103C0000604503D122F070044A682243A84209D0DB
:103C1000984207D0704505D0B04203D0B84201D0D9
:103C2000604503D122F44074CA68224302608A6866
:103C3000C2620A688262A84201D0984201D1096931
:103C4000016301214161F0BD002C014000040040EE
:103C500000080040000C00400034014010B5012372
:103C6000046A8B409C430462036A8A4013430362E4
:103C700010BD000038B5114A04460D46D06940F029
:103C80000400D061D069032200F0040000901146C6
:103C90001E20FDF767FA1E20FDF759FA094A002198
:103CA0000748C2E902141161C2E900051046FEF797
:103CB00041F8BDE838400348FEF758B8001002400C
:103CC00000080040440D002070B52549064686B026
:103CD000886940F004008861886900F0040004905D
:103CE000C86940F40030C861C8691E4C00F4003057
:103CF00004900420009002200190012002900320F3
:103D0000039069462046FDF7E5F808200025CDE937
:103D1000000569462046FDF7DDF8144C1248206086
:103D2000C4E90165E5600C202561C4E9050520466C
:103D3000E561FEF711F92068C16821F04001C1601A
:103D40002068C16841F02001C1602620FDF7FFF91D
:103D5000032211462620FDF705FA06B070BD0000CB
:103D6000001002400008014000440040A409002067
:103D70002DE9F047DFF83C8000240746D8F80050D2
:103D80000E46A1460A200C6001F032FED8F8000071
:103D900085420DD1002D0BD0074802E0015D395559
:103DA000641CAC42FADBD8F800103160C8F800900F
:103DB000BDE8F087AC020020E40900208AB210B50B
:103DC000014664230348FEF703FA03490020086014
:103DD00010BD0000A4090020AC020020F0B50A4D7F
:103DE00000221646AB680A60AC68A3420BD1002BD8
:103DF00009D0064C02E0A75C8754521C9A42FADBB9
:103E0000A8680860AE60F0BDA4010020780600201C
:103E10008AB210B5014664230348FEF7D9F9034975
:103E20000020886010BD000038060020A40100209A
:103E30003420FDF781B910B53420FDF788F903224D
:103E4000BDE8104011463420FDF78CB90C4808B588
:103E500000680068C043800610D41E230122694612
:103E60000748FEF7EFF807490868802806DA044B90
:103E70009DF8002040331A54401C086008BD000023
:103E8000A80800208002002070B52249064686B0AE
:103E9000886940F010008861886900F01000049083
:103EA000C86940F40020C861C8691B4C00F40020B8
:103EB00004900815009002200190032003906946A9
:103EC0002046FDF707F8E0140025CDE900050120A4
:103ED000029069462046FCF7FDFF114C0F48206018
:103EE000C4E90165E5600C202561C4E905052046AB
:103EF000E561FEF731F82068C16821F04001C1603A
:103F00002068C16841F02001C1603420FDF714F938
:103F100006B070BD0010024000100140004C00408F
:103F2000A8080020F0B50C4D00231E462C68136035
:103F30008C4201DA1460F0BD2F68BC42FBD1002C2A
:103F4000F9D0064C02E0E75CC7545B1C8B42FADBFD
:103F5000286810602E60F0BD80020020E808002074
:103F60008AB210B5014664230348FEF731F90349CC
:103F70000020086010BD0000A8080020800200207A
:103F80000C4808B500680068C043800610D41E23A2
:103F9000012269460748FEF755F807490868802856
:103FA00006DA044B9DF8002040331A54401C086088
:103FB00008BD00006C0C00203803002010B590F8FC
:103FC0003910222903D0322901D0022010BD816886
:103FD000B1F5805F11D00169002901681FD04968DF
:103FE00001F07F03816A4A1C82620B70C18D491EF9
:103FF0000904090CC18518D02FE00269816A002AE2
:104000000268526805D0D2B20A80816A491C816276
:10401000ECE7C2F308020A80816A891CF7E74A6864
:10402000816A4B1C83620A70E0E70168CA6822F06B
:104030002002CA6090F83910322910D00168CA688D
:1040400022F48072CA6001684A6922F001024A6162
:10405000012180F83910FEF78FF8002010BD1221E1
:10406000F7E700002DE9F041044600680169E268C5
:1040700021F4405111430161A16820690143606945
:1040800001432068C26841F20C639A430A43C2604C
:1040900020684169A26921F44071114341614C4992
:1040A00020686426322788423CD1FDF76BF900EB8B
:1040B000C00101EB001061688900B0FBF1F5FDF76C
:1040C00061F900EBC00101EB00106168B84689009E
:1040D000B0FBF1F0B0FBF6F06FF01801484305EBD0
:1040E000800107EB0110B0FBF6F000F0F005FDF7E2
:1040F00049F900EBC00101EB001061688900B0FBD9
:10410000F1F0B0FBF6F005EB0015FDF73BF900EB25
:10411000C00101EB001061688900B0FBF1F7FDF709
:1041200031F93BE0FDF716F900EBC00101EB00109F
:1041300061688900B0FBF1F5FDF70CF900EBC001F7
:1041400001EB00106168B8468900B0FBF1F0B0FBEC
:10415000F6F06FF01801484305EB800107EB011002
:10416000B0FBF6F000F0F005FDF7F4F800EBC0014D
:1041700001EB001061688900B0FBF1F0B0FBF6F0D4
:1041800005EB0015FDF7E6F800EBC00101EB0010B0
:1041900061688900B0FBF1F7FDF7DCF800EBC001C6
:1041A00001EB001061688900B0FBF1F0B0FBF6F0A4
:1041B0006FF01801484307EB800108EB0110B0FBDA
:1041C000F6F0216800F00F0028448860BDE8F08117
:1041D0000038014090F83910122903D0322901D05B
:1041E000022070478168B1F5805F016A0BD04A1CDC
:1041F0000262026809785160C18C491E0904090CE9
:10420000C1840ED017E009880268C1F3080151602B
:1042100001690029016A02D0491C0162ECE7891C8E
:10422000FBE70168CA6822F08002CA600068C168C2
:1042300041F04001C160002070472DE9F0471D4664
:1042400090460F460446FCF745FF06465FEA080025
:104250004FF000094FF0010808D030E0681C05D08D
:1042600095B1FCF737FF801BA8420DD82068006885
:1042700037EA0000F2D127E0681C20D025B1FCF716
:1042800029FF801BA8421AD92068C16821F080014B
:10429000C1602068C16821F02001C1602068C16848
:1042A00021F48071C1602068416921F00101416100
:1042B00084F8398084F838900320BDE8F0872068BE
:1042C000006837EA0000D7D00020F6E710B50848AC
:1042D000FDF7D6FD0648FDF7D0FD0128FAD10122F1
:1042E00004490348FDF713FF0028F8D110BD000072
:1042F0003C05002010000020184808B50068006840
:10430000C04380061FD401231A4669461348FDF7AF
:1043100099FE134A114910684031B0F5827F04DAE2
:104320009DF800300B54401C1060012201280BD076
:10433000022808DD084410F8010C0A2801D00D28D5
:1043400001D10848027008BD0878232803D024282A
:1043500001D02528F7D10448F4E70000A409002083
:10436000AC020020A5010020A401002038B532488D
:1043700000680068C043800630D401231A466946AD
:104380002D48FDF75FFE2D4C2B4AA0684032B0F55A
:10439000827F04DA9DF800101154401CA0600121B6
:1043A000072807DB1378FF2B04D15378DB1D8342EA
:1043B00000D1A170012809D0022811DD131813F8CB
:1043C000013C0A2B0BD00D2B09D009E010782328D3
:1043D00003D0242801D0252800D1217038BD617078
:1043E00004280ADD024412F8013C0A2B1BD112F802
:1043F000022C0D2A17D1E17015E014D10E4840307F
:10440000C078402808D05E28E8D10B48403080783A
:104410005E28E3D1617138BD07484030807840287C
:10442000F9D1217138BD0A28FCD103484030407AC7
:104430003B28F7D1A17138BD38060020A401002027
:1044400010B54FF4E130FFF73FFCBDE8104000F03D
:10445000EDB800000149002008607047AC02002060
:104460000149002088607047A40100200149002014
:10447000086070478002002010B5FFF7F1FFFFF7DA
:10448000E9FFBDE81040FFF7F1BF00002DE9F04162
:104490002F4886B0816941F004018161816901F092
:1044A00004010491816941F008018161816901F091
:1044B00008010491816941F010018161816901F075
:1044C00010010491816941F4807181618069214DFD
:1044D00000F480700490002280212846FCF7F5FD4E
:1044E0001D4E002201213046FCF7EFFD1B4F00223C
:1044F00030213846FCF7E9FDDFF8648000224FF4F4
:1045000000414046FCF7E1FD01248020CDE9000494
:10451000694628460394FCF7DDFC00940194694643
:1045200030460394FCF7D6FC3020CDE90004694600
:1045300038460394FCF7CEFC6002CDE900046946DE
:1045400040460394FCF7C6FC06B0BDE8F0810000CD
:104550000010024000080140000C01400010014022
:104560000020014070B5024600250120831E2C4E1C
:104570002C46022A07D0032A2AD01D46052001F026
:1045800037FA284670BD32788A4224D0254A3170E5
:1045900071B101290FD0022912D0032913D01D4671
:1045A00070680028EAD0642001F022FA7460E5E720
:1045B000C2F8984101E0C2F89801C2F89441EFE7CF
:1045C000C2F8984101E0C2F89801C2F89401E7E707
:1045D00072788A4201D1002070BD134A717071B1A6
:1045E00001290FD0022912D0032913D01D46B0682B
:1045F0000028C3D00A2001F0FBF9B460BEE7C2F87E
:10460000884101E0C2F88801C2F88C41EFE7C2F8A6
:10461000884101E0C2F88801C2F88C01E7E7000098
:10462000B402002000002142000024420D4810B5D1
:10463000816986B041F00401816180690A4C00F013
:1046400004000490002260212046FCF73EFD60211A
:10465000009101210191039169462046FCF73AFC43
:1046600006B010BD0010024000080140FEE7000047
:1046700010B5C21700EB12721A4C22F00F03C01AC9
:1046800020731011C21700EB127222F00F03C01A30
:10469000E0721011C21700EB127222F00F03C01A61
:1046A000A0721011C21700EB1272002122F00F024B
:1046B000801A60726218507A0A2801D2303000E005
:1046C0003730491C50720429F4DB01F069F906A067
:1046D000006844F8010F06A00068606002F02EFA3E
:1046E000002010BDE80A00203046303600000000EF
:1046F000303043380000000010B5C21700EB1272D2
:104700001A4C22F00F03C01A20731011C21700EBCD
:10471000127222F00F03C01AE0721011C21700EBE0
:10472000127222F00F03C01AA0721011C21700EB10
:104730001272002122F00F02801A60726218507A01
:104740000A2801D2303000E03730491C5072042969
:10475000F4DB01F025F906A0006844F8010F06A07B
:104760000068606002F0EAF9002010BDE80A00204D
:104770003046303600000000303043410000000079
:1047800010B5C21700EB12721C4C22F00F03C01AB6
:1047900020731011C21700EB127222F00F03C01A1F
:1047A000E0721011C21700EB127222F00F03C01A50
:1047B000A0721011C21700EB1272002122F00F023A
:1047C000801A60726218507A0A2801D2303000E0F4
:1047D0003730491C50720429F4DB01F0E1F808A0DD
:1047E000006844F8010F08A00068606008A0006835
:1047F000A06002F0A3F9002010BD0000E80A00202C
:1048000030463036000000003030433900000000F0
:10481000303030300000000010B504460846FFF785
:104820006BFF2046FFF7ACFF002010BD0FB4054B17
:1048300010B503A9044A029800F080FD10BC5DF891
:1048400014FB0000C95A0008140000200FB4084BE4
:1048500010B504A902AA039800F070FD044602A94D
:10486000002000F09CFF204610BC5DF814FB000007
:104870009F57000810B5C0B200F05AF80346BDE8D3
:10488000104040F2D932024902A0FFF7CFBF00002A
:10489000697C00085B4552524F522025733A2564CB
:1048A000235D5B48756D6D696E67626972645D2535
:1048B000730D0A0000B59BB03C210BA8FBF78AFCE6
:1048C00000200C9001208DF83400FFF7D5FDAA20C0
:1048D0008DF82C00DD208DF82D000D208DF8640062
:1048E0000A208DF865002C220FA96846FBF74BFCC7
:1048F0000DF12C0C9CE80F0000F056FF8DF86000C5
:10490000000A8DF861003C210BA8FFF729FB1BB0C2
:1049100000BD02E008C8121F08C1002AFAD1704782
:104920007047002001E001C1121F002AFBD170472F
:104930005A286ED2DFE800F02D2F31333537393B5E
:104940003D3F41434547494B4D6D6D6D6D6D6D6DFF
:104950006D6D6D6D6D6D6D6D6D6D6D6D6D6D6D6D87
:104960006D6D6D6D6D6D6D6D6D6D4F51535557590D
:104970005B5D5F61636567696B6E70727476787A90
:104980007C7E80828486939291908F8E8D8C8B8A90
:10499000898833A0704735A0704737A0704739A089
:1049A00070473BA0704743A0704746A070474BA09C
:1049B000704750A0704755A070475BA070475EA03D
:1049C000704761A0704766A070476DA0704770A0E7
:1049D000704773A0704778A070477DA0704783A090
:1049E000704788A070478BA0704791A070479AA02D
:1049F0007047A2A07047A8A07047AEA07047B3A0B0
:104A00007047B7A07047BCA07047C0A07047C4A053
:104A1000704733E2C7A0FBE7CEA0F9E7D3A0F7E7E2
:104A2000D8A0F5E7DDA0F3E7E0A0F1E7E3A0EFE72A
:104A3000E9A0EDE7ECA0EBE7F1A0E9E7F3A0E7E7F9
:104A4000F6A0E5E7FBA0E3E716E213E210E20DE2D1
:104A50000AE207E204E201E2FEE1FBE1F8E1F5E14E
:104A60004552524F525F5459504500004D4F5645E4
:104A70005F54595045000000504F5745525F5459FC
:104A800050450000524553545F54595045000000B2
:104A900053454E445F434F4D4D414E445F414E445C
:104AA0005F574149545F4E4F54425553595F5459D3
:104AB0005045000044454C41595F54494D455F54B1
:104AC000595045004F4E455F4445564943455F4D5B
:104AD0004F56455F54595045000000004F4E455F0A
:104AE0004445564943455F574149545F54595045E1
:104AF000000000004F4E455F4445564943455F471F
:104B000045545F504F535F54595045004F4E455FD9
:104B10004445564943455F5345545F4D41524B5FB1
:104B200054595045000000004745545F50415241E0
:104B30004D5F5459504500005345545F5041524118
:104B40004D5F54595045000053456C4543545F53E5
:104B50005445505F4D4F44455F5459504500000047
:104B6000494E49545F4D4F544F525F535045454451
:104B70005F54454E53494F4E5F5459504500000015
:104B80004D4F56455F4D414E595F4D4F544F52006A
:104B9000574149545F4D414E595F4D4F544F52005C
:104BA000434F4D4D414E445F5041434B4147455F5C
:104BB0004D4F544F520000004745545F4C49474801
:104BC000545F4C4556454C5F545950450000000019
:104BD0004745545F414C4C5F4C494748545F4C45F6
:104BE00056454C5F54595045000000004348454D20
:104BF000494E4552545F4335325F4335355F545912
:104C00005045000050554D505F533130305F54597E
:104C1000504500005745494748545F53454E534F50
:104C2000525F5345545F4C494E455F5459504500BF
:104C30005745494748545F53454E534F525F474588
:104C4000545F53494E474C455F524553554C545F52
:104C500054595045000000005745494748545F5398
:104C6000454E534F525F4745545F414C4C5F524550
:104C700053554C545F5459504500000054454D5015
:104C8000455241545552455F53454E534F525F472D
:104C900045545F545950450054454D504552415478
:104CA0005552455F53454E534F525F5345545F54E1
:104CB00059504500454C454354524F4D41474E4590
:104CC0005449435F5459504500000000434F4E4E35
:104CD0004543545F544553545F54595045000000B8
:104CE0004745545F5745494748545F4355525245DD
:104CF0004E545F4752414D00524553545F4D4F54FF
:104D00004F525F4F5247494E000000004D4F544FE5
:104D1000525F4D4F56455F414E445F5741495400E5
:104D20005345545F50554D50533130305F505245CC
:104D30005353000042414C414E43455F4348524F5C
:104D40004D41544F475241504849435F434F4C55A2
:104D50004D4E00004752414449454E545F434F4E2B
:104D600054524F4C5F4255464645520047524156B9
:104D70004954595F53454E534F525F53455454491C
:104D80004E470000475241564954595F53454E53D0
:104D90004F525F47455454494E4700005343414EDC
:104DA0005F424152434F44450000000050554D5072
:104DB0005F494E54455246414345000052455354C5
:104DC0005F494E4A454354494F4E5F4D4F444C5501
:104DD000455F4D4F544F52004C49515549445F5324
:104DE000454E534F5200000050554D505331303016
:104DF0005F5345545F464C4F575350454544000060
:104E0000524649445F494E495400000052464944C5
:104E10005F444553544F52590000000052464944E4
:104E20005F53454E445F524541445F434F4D4D41B2
:104E30004E440000524649445F5245434549564559
:104E40005F494E4445585F54414700000CA0DFE5E0
:104E500010A0DDE513A0DBE517A0D9E51FA0D7E57D
:104E600027A0D5E52AA0D3E52DA0D1E534A0CFE534
:104E70003AA0CDE53FA0CBE545A0C9E54AA0C7E5EE
:104E8000524649445F4745545F4550435F5354522F
:104E9000494E4700524649445F57524954455F4581
:104EA00050430000524649445F57524954455F42BF
:104EB0004C414E4B000000004D494E495F54454D5A
:104EC00050455241545552455F53454E534F525FE2
:104ED0004745545F54595045000000004D494E4924
:104EE0005F54454D50455241545552455F53454ED0
:104EF000534F525F5345545F5459504500000000D2
:104F0000504F4C4C494E475F444154410000000013
:104F1000504F4C4C494E475F505245535300000090
:104F2000454C454354524F4D41474E455449435FCC
:104F30005041434B4147455F5459504500000000E4
:104F40004D4F544F525F4D4F56455F414E445F5752
:104F50004149545F53454C45435400005245535416
:104F60005F4D4F544F525F4F5247494E5F53454C30
:104F7000454354004F4E455F4445564943455F4DB8
:104F80004F56455F53454C4543545F545950450077
:104F90004D4F544F525F484152445F53544F505FFE
:104FA00053454C4543540000554E4B4E4F572043FC
:104FB0004F4D4D414E440000222856D2DFE800F00C
:104FC00011131517191B1D1F21232527292B2D2FE1
:104FD00031333537393B3D3F41434547494B4D4FD1
:104FE000515323A0704725A070472CA0704731A0D3
:104FF000704738A070473DA0704740A0704746A05A
:1050000070474AA070474CA070474EA0704750A010
:10501000704752A0704756A0704759A070475EA0D5
:10502000704762A0704765A0704768A070476CA089
:1050300070476FA0704774A0704778A070477DA03C
:10504000704782A0704785A0704789A0704791A0E3
:10505000704794A0704798A070479DA07047A1A08A
:105060007047A6A07047ABA07047B0A07047000083
:10507000534C45465F544553540000004649525333
:10508000545F53544152545F434845434B5F53452B
:105090004E534F525F424F415244000052455354C9
:1050A0005F53454E534F525F424F4152445F4D4F05
:1050B000544F520046495253545F53544152545F27
:1050C000434845434B5F4D4F544F525F424F41520F
:1050D00044000000524553545F4D4F544F525F42BD
:1050E0004F4152445F4D4F544F520000524553546C
:1050F0005F4335355F43353200000000524553545D
:105100005F445241494E5F414E445F574153485FAF
:105110004D4F544F52000000524553545F53414D80
:10512000504C455F4D4F544F52000000434C454199
:10513000525F424C414E4B00434C4541524C5F57ED
:105140004149540052454144595F4E45585400006E
:1051500052454144595F4C45465400004C45465425
:105160005F4D4F56455F544F5F5741495400000013
:10517000524553545F484947485F574845454C009E
:10518000524553545F5452414E53504F525445521E
:105190005F42454C5400000052454143485F44453E
:1051A000475245455F574149540000004D49585FFB
:1051B0005343414E5F534C4F570000004D49585FD9
:1051C000424C4F4F445F48494748000042454C54C9
:1051D0005F4D4F56455F53414D4554494D45000085
:1051E0004D49585F574F524B5F474F544F00000097
:1051F0004E4F524D414C5F50495443485F4D4F56BE
:10520000455F4E45585400004E4F524D414C5F4251
:105210004C414E4B5F524553540000004E4F524D8F
:10522000414C5F46495253545F504F5349544F4E7F
:10523000000000004D49585F414E445F52454143D4
:10524000485F504F534954494F4E00004249475F11
:10525000494E5F4F55545F534C4F57004249475F8B
:10526000494E5F4F55545F4E4F524D414C00000028
:105270004E4F524D414C5F50495443485F4D4F563D
:10528000455F4E4558545F5448455F4C4153545F09
:1052900054574F004335355F4335325F434F4E4ED1
:1052A000454354004D4F544F525F55505F444F5744
:1052B0004E5F534C4F5700004D4F544F525F555067
:1052C0005F444F574E5F4E4F524D414C000000001F
:1052D0004C4954544C455F494E5F4F55545F534CB5
:1052E0004F5700004C4954544C455F494E5F4F5551
:1052F000545F4E4F524D414C00000000424C414E15
:105300004B5F4E4558545F4D4F544F525F4849478D
:1053100048000000424C414E4B5F4E4558545F4D93
:105320004F544F525F4E4F524D414C00554E4B4ED5
:105330004F5720434F4D4D414E4400002DE9FF4F44
:105340008DB00F460546002606E025280BD0DDE986
:105350000F1290476D1C761C28780028F5D111B0EB
:105360003046BDE8F08F0024A246A1460122EC4958
:1053700000E0044315F8013F203B02FA03F0084225
:10538000F7D128782A2810D06FF02F022878A0F1C2
:105390003001092914D80AEB8A0102EB410144F0DB
:1053A000020400EB010A6D1CF0E701CF5FEA000A7E
:1053B00003D544F40054CAF1000A44F002046D1C01
:1053C00028782E2817D115F8010F44F004042A2854
:1053D0000ED06FF02F022878A0F1300109290AD8E9
:1053E00009EB890102EB410100EB01096D1CF2E7B9
:1053F00057F8049B6D1C28786C280FD006DC4C28CD
:1054000017D068280DD06A2814D104E0742810D071
:105410007A280FD10DE044F400140AE044F480141B
:1054200001E044F440146978814202D104F580140B
:105430006D1C6D1C2A786E2A1FD00CDC632A31D0BB
:1054400004DC002A8BD0582A11D1A3E0642A68D04A
:10545000692A0CD165E0732A2ED004DC6F2A73D040
:10546000702A04D19BE0752A6FD0782A6ED010463E
:10547000DDE90F129047761C50E1C4F30250022878
:1054800006D0032809D0042801CF09D0066045E1E1
:1054900001CFF117C0E9006140E101CF06803DE195
:1054A00006703BE117F8040B8DF8000000208DF822
:1054B0000100EB46012003E057F804BB4FF0FF303A
:1054C00061074FF0000102D40DE008F101018846A8
:1054D00049450FDA8045F8DB1BF808100029F4D1A4
:1054E00008E008F1010188468142FADB1BF8081048
:1054F0000029F6D1DDE90F23AAEB080081462146F9
:1055000000F036F9304400EB080604E0DDE90F1244
:105510001BF8010B9047B8F10108F7D22146484625
:10552000F7E00A21C4F302534FF0000B0891022B5D
:1055300004D001CFC117032B09D00AE0FF1D27F0CB
:105540000707F7E8020108E032E01FE020E000B2C0
:10555000C117042B01D140B2C117031E71F1000322
:1055600007DA4FF0000CD0EB0C006CEB01012D239F
:1055700002E0230504D52B238DF82430012303E01A
:10558000E30701D02023F7E7984658E00A2110E00E
:1055900010210EE010204FF0000B08900CE01021BD
:1055A0004FF0000B44F004044FF00809089103E0A9
:1055B00008214FF0000B0891C4F30253022B04D0D2
:1055C00001CF0021032B06D006E0FF1D27F00707BF
:1055D000F7E8020103E080B2042B00D1C0B24FF023
:1055E000000823072BD5702A07D0DDF820C08CF0E7
:1055F000100C5CEA0B0C05D00EE040238DF8243033
:10560000012308E050EA010306D030238DF824304E
:105610008DF8252002239846DDF820C08CF0080C78
:105620005CEA0B0C0BD150EA010301D1630706D5EC
:1056300030238DF824304FF00108A9F10109582AD0
:1056400004D038A20B9208AA0A920BE03AA2F9E71A
:105650005B46089AFAF7D2FF0B9B9B5C0A9A521E94
:105660000A92137050EA0102F2D10A98ADEB0000E1
:1056700000F1200B600702D524F4803401E04FF0E4
:105680000109D94502DDA9EB0B0000E0002000EB89
:105690000B0141440890AAEB010AE00306D4DDE9BE
:1056A0000F232146504600F063F806444FF00009EE
:1056B00008E009A911F80900DDE90F12904709F186
:1056C0000109761CC145F4DBE0030CD5DDE90F23AD
:1056D0002146504600F04CF8064404E0DDE90F1284
:1056E00030209047761C0899481E08900029F5DC68
:1056F00008E00A980A990078491C0A91DDE90F121E
:105700009047761CBBF10001ABF1010BF1DC2146A7
:105710005046DDE90F2300F019F806446D1C1BE626
:105720000928010030313233343536373839616277
:10573000636465660000000030313233343536373B
:105740003839414243444546000000002DE9F0410C
:10575000044600251E461746880404D405E0394651
:105760002020B0476D1C641EF9D52846BDE8F081A5
:105770002DE9F041044600251E469046C80301D598
:10578000302700E02027880404D505E0414638464C
:10579000B0476D1C641EF9D52846BDE8F0810A6843
:1057A000531C0B60107070470FB4002030B5154CBF
:1057B000A9B03C21208019A8FAF70CFD64216846A5
:1057C000FAF708FD2D981A902C222EA91BA8FAF79B
:1057D000DAFC3C2219A96846FAF7D5FC3C230021E3
:1057E00008466A46155C401C29449842FAD3C80909
:1057F000207001F07F006070208829B030BC5DF817
:1058000014FB0000400300202DE9FF4F91B04FF042
:105810000009DDE91E4B1D4690464F46209E402163
:105820006846CDF84090FAF7D5FC0F22344935A0F0
:10583000FEF7FCFF5EB11122314937A0FEF7F6FFFB
:1058400001210220FBF7EAFA824601210AE0152233
:105850002B4935A0FEF7EAFF00210220FBF7DEFA14
:10586000824600210220FBF7EDFA0246DDE9110134
:105870009047BBF1000F24D02F4E94B3307800280E
:105880004FF00A0037D000F0B3F810A9684652462E
:105890009047109A72B169464046921EFAF773FC1F
:1058A00098F800303522164924A0FEF7BFFF109863
:1058B000801E287037703F22114926A0FEF7B6FFE0
:1058C0000BE04F208DF800004B208DF80100BDF853
:1058D0000010A8F800100220287015B04846BDE856
:1058E000F08FFFE74FF00109292205491DA0FEF7BF
:1058F0009DFF2F70DEE7641E00F07AF8BDE7000020
:105900002D7B00085B25733A2564235D73746172F7
:1059100074202E0D0A0000005B25733A2564235D78
:105920006335320D0A0000005B25733A2564235D60
:105930006335350D0A000000B00200205B25733A84
:105940002564235D63353520633532203A25632095
:105950000D0A00005B25733A2564235D656E6420A3
:105960002E0D0A005B4552524F522025733A256492
:10597000235D6368656D696E6572745F6335325F60
:105980006335355F7472616E736665722066756328
:105990006B2074696D656F757421200D0A0000001D
:1059A00010B503210220FBF739FA094C03212060CE
:1059B0000220FBF747FA074960603A2008703F2051
:1059C0008873487304A00088A1F80F0010BD000080
:1059D00014030020E80A00200D0A000010B5044658
:1059E0000420FCF787F90148046010BD0C0000207A
:1059F00070B5054600244FF47A7603E0304600F097
:105A000005F8641CAC42F9D370BD000070B54FF0CE
:105A1000E02500216C69094AAB6912685043AA6904
:105A20009A42FCD002D2A3EB020302E0A4EB0206EE
:105A30003344194413468142F1D370BD0C00002059
:105A400010B5154A154B0B2809D2DFE800F00806FF
:105A5000090C0F1215181B1E2100C2F8901110BD61
:105A6000C2F8941110BDC2F8981110BDC2F89C1173
:105A700010BDC2F8A01110BDC2F8A41110BDC3F82A
:105A8000881110BDC3F88C1110BDC3F8901110BD62
:105A9000C3F8941110BD0000008021420000234291
:105AA00030B50D460446C0F30721C0B2FFF7C8FF6A
:105AB000210EC4F30740FFF7C3FFC5F30721E8B287
:105AC000BDE83040FFF7BCBF04490A685206FCD568
:105AD000024AC1B2121D1160704700000038014037
