:020000040800F2
:10000000781700202D02000883230008A72100088C
:1000100081230008A50C00089D2E000800000000A8
:10002000000000000000000000000000052600089D
:10003000A70C000800000000A52300084B260008BC
:10004000470200084702000847020008470200086C
:10005000470200084702000847020008470200085C
:10006000470200084702000847020008470200084C
:10007000470200084702000847020008470200083C
:10008000470200084702000847020008470200082C
:10009000470200084702000847020008B10C0008A8
:1000A000470200084702000847020008470200080C
:1000B0004702000899260008ED26000847020008BC
:1000C00047020008470200084702000847020008EC
:1000D00047020008692D0008952D0008452E0008EC
:1000E000A90C000847020008470200084702000860
:1000F00047020008470200084702000847020008BC
:1001000047020008470200084702000847020008AB
:10011000470200084702000847020008470200089B
:10012000470200084702000847020008470200088B
:1001300000F002F800F06BF80AA090E8000C82448E
:100140008344AAF10107DA4501D100F060F8AFF26B
:10015000090EBAE80F0013F0010F18BFFB1A43F0A5
:1001600001031847DC3F0000FC3F00000A444FF049
:10017000000C10F8013B13F0070408BF10F8014B06
:100180001D1108BF10F8015B641E05D010F8016B4B
:10019000641E01F8016BF9D113F0080F1EBF10F8AF
:1001A000014BAD1C0C1B09D16D1E58BF01F801CBD2
:1001B000FAD505E014F8016B01F8016B6D1EF9D555
:1001C0009142D6D37047000000230024002500266A
:1001D000103A28BF78C1FBD8520728BF30C148BFAA
:1001E0000B607047642900F09F80752900F09C80A7
:1001F000782900F0D580632900F03483732900F05A
:100200003983002070471FB51FBD10B510BD00F029
:1002100063FB1146FFF7F7FF02F0D8FE00F081FB09
:1002200003B4FFF7F2FF03BC02F040FE0948804729
:1002300009480047FEE7FEE7FEE7FEE7FEE7FEE7C8
:10024000FEE7FEE7FEE7FEE704480549054A064BE0
:100250007047000051260008310100087811002085
:1002600078170020781300207813002070470000D2
:100270000FB4044910B503AA029800F0FFFA10BCAD
:100280005DF814FB1400002070B504468569006811
:10029000C10601D5302600E02026C00707D070BD7A
:1002A000D4E9012130469047206A401C20626D1E2F
:1002B000F6D570BD70B5044685690078C00707D1D2
:1002C00070BDD4E9012120209047206A401C2062A3
:1002D0006D1EF6D570BD70B50C460546012A05D0D9
:1002E0002878800600D5EA69002302E0012305E0B2
:1002F0005B1C934202D2E05C0028F9D1A869E618A1
:10030000C01AA861286A184428622846FFF7BCFF73
:1003100004E0D5E9012114F8010B9047B442F8D369
:100320002846FFF7C7FF70BD2DE9F04106460024BF
:1003300010687529314616A510D0AFF3008000284B
:1003400002DA404213A507E031688A0701D512A5F9
:1003500002E0490704D511A5012401E0AFF30080B4
:1003600000210A2206F1240709E0B0FBF2FCB0FBF1
:10037000F2F302FB1C00303078541846491C002868
:10038000F3D123462A463046BDE8F04100F007BAD3
:10039000000000002D0000002B00000020000000E5
:1003A00070B504460D4621461068AFF300802188E1
:1003B000090502D50F4A7A4402E00E4A7A440E3209
:1003C000002104F1240305E000F00F060009965D0A
:1003D0005E54491C0028F7D120780023000704D57B
:1003E000702D02D009B1022311322046BDE87040C1
:1003F00000F0D5B9B63C00002DE9F05F894604460F
:100400004FF0000ADFF874B1FB44C0F820A020468A
:10041000E1688847002874D0252806D0D4E9012156
:100420009047206A401C2062F1E700265F46204684
:10043000E16888472028054607DB312D05D2781969
:1004400010F8200C08B10643F1E7B00701D526F0FB
:100450000406C4F81CA00027C4F818A02A2D09D04F
:10046000284602F01CFD38B304EB8708303DC8F87D
:10047000185019E059F8041B204604EB87029161DB
:10048000E1688847012F054618D1E069002820DA85
:1004900026F020061DE0D8F8180000EB800005EBE0
:1004A00040003038C8F818002046E1688847054603
:1004B00002F0F5FC0028EED1012F0AD02E2D08D134
:1004C0002046E16888477F1C0546022F46F020063B
:1004D000C4DBA069002803DA404246F00106A061AF
:1004E000F00701D026F010066C2D0BD0682D09D036
:1004F0004C2D39D06A2D35D0742D35D07A2D33D08E
:1005000016E038E0E1682F4620468847B8420546A5
:1005100009D16C2F26D04FF48060E1680643204655
:100520008847054604E06C2F1AD04FF480700643CC
:100530000DB3A5F14100192802D8203546F4006614
:100540004A462946204626604E46FFF74BFE80B1BC
:1005500001280BD0F61D26F0070000F1080956E728
:100560004020E4E78020D8E70020D6E706F1040920
:100570004DE7284652E7206ABDE8F09F8C3C00001A
:1005800040EA010370B59B072ED14FF00136042AD3
:100590002AD308C810C99D1B9D43121F15EAC61512
:1005A00017D0D8B2E1B2401A50EA056110D198B222
:1005B000A1B2401A50EA05410AD123F07F4024F04D
:1005C0007F41401A50EA052102D1180EA0EB1460B9
:1005D00070BDA342DBD018BA21BA884201D90120EC
:1005E00070BD4FF0FF3070BD0AB9002070BD10F82B
:1005F000013B11F8014B63B1A3420AD1521E08D04E
:1006000010F8013B11F8014B1BB1A34201D1521E5E
:10061000EDD1181B70BD032A40F2308010F0030C9E
:1006200000F0158011F8013BBCF1020F624498BF45
:1006300011F801CB00F8013B38BF11F8013BA2F1E2
:10064000040298BF00F801CB38BF00F8013B11F05D
:10065000030300F02580083AC0F0088051F8043BFD
:10066000083A51F804CBA0E80810F5E7121D5CBF6A
:1006700051F8043B40F8043BAFF30080D20724BF9D
:1006800011F8013B11F801CB48BF11F8012B24BF31
:1006900000F8013B00F801CB48BF00F8012B704780
:1006A00010B5203AC0F00B80B1E81850203AA0E80D
:1006B0001850B1E81850A0E81850BFF4F5AF5FEA41
:1006C000027C24BFB1E81850A0E8185044BF18C9F4
:1006D00018C0BDE810405FEA827C24BF51F8043B9B
:1006E00040F8043B08BF7047D20728BF31F8023BEF
:1006F00048BF11F8012B28BF20F8023B48BF00F883
:10070000012B70474FF000020429C0F0128010F056
:10071000030C00F01B80CCF1040CBCF1020F18BFDD
:1007200000F8012BA8BF20F8022BA1EB0C0100F070
:100730000DB85FEAC17C24BF00F8012B00F8012B43
:1007400048BF00F8012B70474FF0000200B5134678
:1007500094469646203922BFA0E80C50A0E80C50E1
:10076000B1F12001BFF4F7AF090728BFA0E80C5092
:1007700048BF0CC05DF804EB890028BF40F8042B8B
:1007800008BF704748BF20F8022B11F0804F18BFF8
:1007900000F8012B704770477047704770472DE98C
:1007A000F0470D4699469246044600F12408016838
:1007B000880604D5E06921F01001216000E00120E5
:1007C000A84201DD471B00E00027A1697A1902EB6E
:1007D0000900081AA0612078C00602D42046FFF75D
:1007E00053FD002608E0D4E901211AF806009047DD
:1007F000206A401C761C20624E45F4DB2078C0063F
:100800000AD52046FFF740FD06E0D4E9012130205B
:100810009047206A401C2062381EA7F10107F4DCD3
:1008200007E0D4E9012118F805009047206A401C30
:100830002062281EA5F10105F3DC2046FFF73AFDF2
:100840002078000602D50220BDE8F0870120FBE7F2
:1008500010B5436913B1AFF3008001E0FFF73BFD32
:10086000012010BD127800F124010A7000224A70A4
:100870000122EDE711684FF0FF32E9E7074B70B551
:100880000D467B4400F011F80446284600F020F89D
:1008900010B14FF0FF3070BD204670BD2F27000013
:1008A00001694A1C02610878704700B58FB0CDE934
:1008B00001310021059105497944CDE90310114624
:1008C0006846FFF799FD0FB000BD0000E5FFFFFF90
:1008D000007B00F080007047754600F02BF8AE46B4
:1008E00005006946534620F00700854618B020B53C
:1008F000FFF7AAFCBDE820404FF000064FF00007CC
:100900004FF000084FF0000B21F00701AC46ACE8B7
:10091000C009ACE8C009ACE8C009ACE8C0098D4624
:10092000704710B50446AFF300802046BDE8104084
:10093000FFF776BC004870471811002010B501F091
:1009400023FE282001F044FE01F0DCFD08490120CF
:10095000C1F89001C1F894010649C1F88001C1F8BD
:100960008401C1F888010449C1F8AC0110BD000040
:100970000000224200802142008023420548406856
:1009800018B1D0F8F40000B1004740F63D0000F087
:1009900003B800001C0000200349496819B1D1F8D0
:1009A000F01001B10847FEE71C0000200448406831
:1009B00010B1406900B1004740F60500FFF7ECBFF9
:1009C0001C0000202DE9FC411C4616460F46089DE0
:1009D00000F03CF8394632461148FFF71CFE01ABE7
:1009E00032460F490F48009502F062FA019D060059
:1009F000256001D00CA00DE0094F0024803FED1EC2
:100A000005E03819C1780FA0FFF732FC641CAC4236
:100A1000F7DB0DA0FFF72CFC3046BDE8FC810000A1
:100A20001C100020340000206261627931385F744C
:100A300072616E73666572206661696C2021200D9B
:100A40000A000000256300000D0A000070B577233E
:100A50007524732572225449423839286FD2DFE851
:100A600000F01D1F2426282A2C2E303234393B3D1D
:100A70003F41434547494B4D4F51535557595B5D96
:100A80005F61636567696F71737577797F8183854E
:100A900087898B8D8F91939597999B0043A000E058
:100AA00043A0008808808A7058E042A0F9E742A07D
:100AB000F7E742A0F5E742A0F3E742A0F1E742A042
:100AC00004E042A0EDE742A0EBE742A000880880E6
:100AD0008B7043E040A0E4E740A0F7E740A0E0E7E8
:100AE00040A0F3E740A0DCE740A0EFE740A0D8E754
:100AF00040A0EBE740A0D4E740A0E7E740A0D0E764
:100B000040A0CEE740A0CCE740A0DFE740A0C8E788
:100B100040A0DBE740A0D9E740A0C2E740A0D5E76E
:100B200040A0BEE740A0BCE740A0BAE740A0B8E7BD
:100B300040A000E040A0008808808D700EE02DE00D
:100B40003EA0F8E73EA0F6E73EA0AAE73EA0A8E751
:100B50003EA000E03EA0008808808C70002070BDA0
:100B60003CA0F8E73CA0F6E73CA09AE73CA0ADE744
:100B70003CA096E73CA0A9E73CA092E73CA0A5E7F3
:100B80003CA0A3E73CA0A1E73CA09FE73CA09DE7D9
:100B90003CA09BE73CA099E73CA082E73CA0FFF784
:100BA00067FB4FF0FF3070BD3400002044547200EA
:100BB000485772004D44720053577200534E7200F2
:100BC00053547200535872004245770057527200D6
:100BD000574C7200574C77005753720057537700A9
:100BE00042577200425777004846720048467700E5
:100BF00053467200534677005443720054437700C3
:100C00004C4C720042537200414C7200414C7700D0
:100C10004C5072004C507700534777005A52720084
:100C20005A52770041427200415872004954720092
:100C3000495872004142730041587300495473008F
:100C40004958730053417200534972004142750084
:100C50004158750049547500495875004D5572004A
:100C60004D5577004350720043507700435A72004D
:100C7000435A770043497700434177004353770055
:100C8000524977005241770043487700435272003F
:100C90006E6F207468697320636F6D6D616E642080
:100CA000210D0A00FEE770474FF4806000F018B88D
:100CB000202000F015B831B500F01EF9044600F010
:100CC0001BF90099001B8842F9D338BD202804D0B5
:100CD000B0F5806F03D1FFF769BEFFF74FBE7047D5
:100CE000044910B50A68024202D00860FFF7EEFF1F
:100CF00010BD0000140401402DE9F84FDFF8BC914D
:100D0000002309F1040A0AF1040B1C464FF00F08F6
:100D10000BF1040E01270A68A7403A40BA4272D18B
:100D2000DFF89CC14D68A5EB0C0665452BD00DDCAA
:100D3000032D34D005DC35B3012D19D0022D2FD170
:100D40001BE0112D16D0122D2AD119E0B6F5881FFF
:100D500019D006DCB6F5803F15D0B6F5801F1FD13F
:100D600011E0B6F5001F0ED0B6F5041F18D10AE049
:100D7000CB6815E0CB681B1D12E0CB6808330FE091
:100D8000CB680C330CE08B682BB1012B4FF00803C0
:100D900003D0476104E0042302E0076100E0002380
:100DA000FF2A01D8064601E000F104064FEA840557
:100DB00001D9A5F12005376808FA05FC27EA0C07D8
:100DC00003FA05F547EA050737604D68ED006ED573
:100DD0003C4DAE6946F00106AE61AD6924F00306F4
:100DE00005F001050095384D7719BE68A5072D0F50
:100DF00008FA05FC26EA0C06DFF8D0C0604503D1EE
:100E00004FF0000C25E052E0DFF8C4C0604502D18D
:100E10004FF0010C1DE0DFF8BCC0604502D14FF07F
:100E2000020C16E0DFF8B0C0604502D14FF0030CB1
:100E30000FE0DFF8A8C0604502D14FF0040C08E0D5
:100E4000DFF89CC0604502D14FF0050C01E04FF087
:100E5000060C0CFA05FC4CEA060CC7F808C04D68F5
:100E6000D9F80060ED034D4601D5164300E09643E6
:100E70002E604D68DAF80060AD03554601D5164383
:100E800000E096432E604D68DBF80060ED025D46A1
:100E900001D5164300E096432E604D68DEF80060F1
:100EA000AD02754601D5164300E096432E60641CE2
:100EB000102CFFF42FAFBDE8F88F000000040140B4
:100EC0000000111000100240000001400008014025
:100ED000000C0140001001400014014000180140C6
:100EE000001C01408068084000D0012070470AB112
:100EF000016170470904FBE7014800687047000082
:100F00000400002002480168491C0160704700008D
:100F100004000020074810B5016841F0100101608D
:100F2000052000F047F80F2000F006F800F015F853
:100F3000002010BD0020024010B5044600F00CF95E
:100F40004FF47A71B0FBF1F000F006FD002221466B
:100F5000501E00F00FF8002010BD704700F01F0277
:100F6000012191404009800000F1E020C0F800110B
:100F700070470000F0B40E4B1B68C3F30223C3F1AB
:100F80000704042C00D904241D1D072D01D20023C1
:100F900000E0DB1E012606FA04F56D1E0D409D40A3
:100FA0009E40761E164045EA0601F0BC01F0EAB903
:100FB0000CED00E0064A00F0070110684FF6FF0351
:100FC000184040EA012003490843106070470000C0
:100FD0000CED00E00000FA052DE9F047DFF868812C
:100FE00004460E46D8F8000000F00700B0420CD2CC
:100FF000D8F8001021F007013143C8F80010D8F8E4
:10100000000000F00700B04273D120784F4F8007F6
:1010100005D57868A16820F0F00008437860207852
:10102000C00755D06068012201280CD0022828D0C2
:10103000022393FAA3F1B1FA81F141F020014909A9
:1010400004D0396803E04FF40033F2E7796A93FA89
:10105000A3F3B3FA83F303F01F039A40114248D07D
:10106000796821F0030101437960FFF745FF0546E8
:10107000606841F2883101280CD00228894615D0D9
:1010800022E04FF00073D4E7FFF736FF411B4945DC
:1010900001D916E089467868C0F381000128F3D1B0
:1010A00016E0FFF729FF411B49450AD87868C0F3CD
:1010B00081000228F5D10BE0FFF71EFF411B4945D7
:1010C00002D90320BDE8F087786810F00C0FF3D147
:1010D000D8F80010404601F00701B1420BD9016871
:1010E00021F0070131430160006800F00700B042C1
:1010F00001D00120E6E72078400705D57868E1684F
:1011000020F4E060084378602078000706D578680E
:10111000216920F4605040EAC100786000F052F884
:101120007968F02292FAA2F201F0F001B2FA82F2AA
:10113000D140074A515CC840064908600F20FFF7BC
:10114000FBFE0020BEE7000000200240001002402D
:101150005840000800000020014800687047000067
:101160000000002008480949006849684FF4E0621F
:1011700092FAA2F201F4E061B2FA82F2D140044A9A
:10118000515CC84070470000000000200010024081
:101190006840000808480949006849684FF46052EF
:1011A00092FAA2F201F46051B2FA82F2D140044AFA
:1011B000515CC84070470000000000200010024051
:1011C0006840000810B519A085B00FC88DE80F0061
:1011D0001AA01B4B0068049059681A4801F00C02D1
:1011E000042A1DD0082A1BD14FF4701494FAA4F4D9
:1011F00001F47012B4FA84F4E240C9031DF802202D
:1012000010D559684FF4003393FAA3F301F4003179
:10121000B3FA83F3D94004AB595CB0FBF1F050430F
:1012200005B010BD08485043FAE70000020304056A
:10123000060708090A0B0C0D0E0F10100102000022
:101240000010024000127A0000093D002DE9F84F1D
:1012500004460078FE4EC0074FF001057FD070684D
:101260004FF40038C0F38100012807D07068C0F344
:10127000810002281BD17068C00318D598FAA8F025
:10128000B0FA80F040F02000400901D0306800E062
:10129000706A98FAA8F1B1FA81F101F01F0105FA1C
:1012A00001F108425BD06068002879D057E060689F
:1012B000B0F5803F0BD010B1B0F5A02F11D0306841
:1012C00020F480303060306820F4802002E0306804
:1012D00040F480303060606818B3FFF70DFE0746B9
:1012E00009E0306840F480203060F0E7FFF704FE4A
:1012F000C01B642870D898FAA8F0B0FA80F040F0CB
:101300002000400901D0306800E0706A98FAA8F126
:10131000B1FA81F101F01F0105FA01F10842E5D0AF
:101320001DE0FFF7E9FD074604E0FFF7E5FDC01B00
:101330006428DFD898FAA8F0B0FA80F040F02000D6
:10134000400901D0306800E0706A98FAA8F1B1FA5B
:1013500081F101F01F0105FA01F10842E5D1207881
:10136000DFF8F08280074FF0000A4FF002075AD5ED
:1013700070684FF0F80B10F00C0F07D07068C0F3D6
:10138000810002281CD17068C00319D497FAA7F015
:10139000B0FA80F040F02000400902D0306801E04F
:1013A0008AE0706A97FAA7F1B1FA81F101F01F01A2
:1013B00005FA01F108422BD0206901287CD127E0F1
:1013C000206988B395FAA5F0B0FA80F048F820506B
:1013D000FFF792FD814606E04DE1FFF78DFDA0EBA2
:1013E0000900022886D897FAA7F0B0FA80F040F0FA
:1013F0002000400901D0306800E0706A97FAA7F138
:10140000B1FA81F101F01F0105FA01F10842E4D0BF
:1014100030689BFAABF220F0F8016069B2FA82F210
:1014200090400143316025E0FFE795FAA5F1B1FA5C
:1014300081F148F821A0FFF75FFD814605E0FFF745
:101440005BFDA0EB09000228CCD897FAA7F0B0FA10
:1014500080F040F02000400901D0306800E0706A60
:1014600097FAA7F1B1FA81F101F01F0105FA01F134
:101470000842E4D1207800076DD5A069B8B395FA89
:10148000A5F0B0FA80F008EB8000C0F88054FFF7B8
:1014900033FD814605E0FFF72FFDA0EB0900022890
:1014A000A0D897FAA7F0B0FA80F040F06000B5EB52
:1014B000501F02D130680CE063E197FAA7F0B0FA50
:1014C00080F040F06000B7EB501F01D1306A00E0BF
:1014D000706A97FAA7F1B1FA81F101F01F0105FADC
:1014E00001F21042D7D00120FFF7E5FB33E0FFE720
:1014F00095FAA5F1B1FA81F108EB8101C1F880A458
:10150000FFF7FAFC814605E0FFF7F6FCA0EB0900C7
:10151000022899D897FAA7F0B0FA80F040F060005E
:10152000B5EB501F01D130680BE097FAA7F0B0FA85
:1015300080F040F06000B7EB501F01D1306A00E04E
:10154000706A97FAA7F1B1FA81F101F01F0105FA6B
:1015500001F21042D8D12078400763D5F06940F0FD
:101560008050F061F069DFF8F0B000F0805000903A
:10157000DBF8001041F48071CBF80010FFF7BCFCE1
:10158000814605E0FFF7B8FCA0EB0900642872D89B
:10159000DBF80000C005F5D5E06801280AD008B1E5
:1015A000052813D0306A20F001003062306A20F044
:1015B000040002E0306A40F001003062E06841F26D
:1015C000883B80B3FFF798FC81460AE0306A40F020
:1015D00004003062EEE7FFF78FFCA0EB09015945EC
:1015E00049D897FAA7F0B0FA80F040F04000B5EB88
:1015F000501F01D130680BE097FAA7F0B0FA80F0E5
:1016000040F04000B7EB501F01D1306A00E0706A33
:1016100097FAA7F1B1FA81F101F01F0205FA02F180
:101620000842D8D033E0FFE7FFF766FC814605E0CB
:10163000FFF762FCA0EB090159451CD897FAA7F007
:10164000B0FA80F040F04000B5EB501F08D105E043
:1016500000100240000042420070004030680CE080
:1016600097FAA7F0B0FA80F040F04000B7EB501FB7
:1016700002D1306A01E08AE0706A97FAA7F1B1FA04
:1016800081F101F01F0205FA02F10842D0D1E069B0
:1016900098B37168C1F38101022972D002284FF01A
:1016A00080714FF0007B50460AD091FAA1F1B1FA57
:1016B00081F148F82100FFF71FFC04465F4669E00E
:1016C0008A4691FAA1F1B1FA81F1C14648F82100A8
:1016D000FFF712FCA84607465D4604E0FFF70CFC46
:1016E000C01B022853D895FAA5F0B0FA80F040F05C
:1016F0002000400902D0306801E060E0706A95FA8D
:10170000A5F1B1FA81F101F01F0208FA02F10842D5
:10171000E4D1206AB0F5803F05D17068A16820F45B
:10172000003008437060D4E908010843716821F46F
:101730007411084370609AFAAAF0B0FA80F0474634
:1017400049F82080FFF7D8FB044604E0FFF7D4FBFC
:10175000001B02281BD895FAA5F0B0FA80F040F0E3
:101760002000400901D0306800E0706A95FAA5F1C8
:10177000B1FA81F101F01F0107FA01F10842E5D049
:101780001DE01EE0FFF7B8FB001B022802D9032072
:10179000BDE8F88F97FAA7F0B0FA80F040F020008B
:1017A000400901D0306800E0706A97FAA7F1B1FAF9
:1017B00081F101F01F0105FA01F10842E2D1002098
:1017C000E6E70120E4E7000010B5040003D094F838
:1017D000510010B104E0012010BD204600F038F89F
:1017E000022084F851002068016821F04001016066
:1017F000D4E901010843D4E90312114308436169A4
:101800000843218B01F400710843E1690843216A10
:101810000843A16A084321680860A069042101EA1D
:101820001040616A0843216848602168E06A0861E5
:101830002068C16921F40061C16104490020087079
:101840006065012084F85100002010BD08000020D0
:1018500030B504460068214985B0884239D1204915
:10186000886940F004008861886900F004000490F1
:10187000886940F004008861886900F004000490E1
:10188000886940F004008861886900F004000490D1
:10189000886940F4805088618869124D00F4805056
:1018A000049020200090022001900020029001204E
:1018B000039069462846FFF71FFA402000906946CA
:1018C0002846FFF719FA8020009069462846FFF75E
:1018D00013FA204600F008F805B030BD0030014092
:1018E000001002400008014000B50068114985B0B1
:1018F00088421CD11048816941F0040181618169ED
:1019000001F004010491816941F480518161806991
:10191000694600F480500490E0200090022001907D
:1019200001200290032003900448FFF7E5F905B079
:1019300000BD0000003001400010024000080140DE
:101940004FF0E0210428086903D020F0040008616A
:10195000704740F00400FAE710B5401EB0F1807FF8
:1019600001D3012010BD4FF0E02460610F2160170A
:1019700000F008FD0020A06107202061002010BDBC
:101980007047704710B5040003D094F8390010B1C7
:1019900007E0012010BD002084F83800204600F048
:1019A0000DF8022084F83900211D206800F0B8FEEF
:1019B000012084F83900002010BD000008B500683F
:1019C0000B49884212D10B48C16941F00201C16143
:1019D000C069032200F00200009001211D20FFF7E2
:1019E000C9FABDE808401D20FFF7B8BA08BD0000DD
:1019F00000040040001002400168CA6842F0010281
:101A0000CA600068016841F0010101600020704770
:101A1000704770B50446006801694FF00005C9437E
:101A2000890715D4C168C943890711D4E91E01612A
:101A300001202076206880698007204602D0FFF7C9
:101A4000E7FF04E000F098F8204600F07BF92576E7
:101A500020680169C943490717D4C168C9434907C8
:101A600013D46FF0040101610220207620688069A0
:101A700010F4407F204602D0FFF7CAFF04E000F0D8
:101A80007BF8204600F05EF9257620680169C9439D
:101A9000090716D4C168C943090712D46FF00801B9
:101AA0000161042020762068C0698007204602D0AA
:101AB000FFF7AEFF04E000F05FF8204600F042F9C7
:101AC000257620680169C943C90617D4C168C9438E
:101AD000C90613D46FF01001016108202076206838
:101AE000C06910F4407F204602D0FFF791FF04E068
:101AF00000F042F8204600F025F9257620680169BB
:101B0000C943C90708D1C168C943C90704D1891E9F
:101B10000161204600F034F920680169C9430906D3
:101B200009D4C168C943090605D46FF08001016179
:101B30002046FFF725FF20680169C943490609D4FB
:101B4000C168C943490605D46FF0400101612046D0
:101B500000F017F920680169C94389060BD4C168F0
:101B6000C943890607D46FF0200101612046BDE812
:101B70007040FFF706BF70BD704770B5044690F81F
:101B800038000D4601280DD0012684F83860022067
:101B900084F8390042B1042A18D0082A2AD00C2A25
:101BA0004DD139E0022070BD206800F007FE2068AA
:101BB000816941F0080181612068816921F0040197
:101BC0008161206881692A69114311E0206800F071
:101BD00025FE2068816941F4006181612068816986
:101BE00021F480618161206881692A6941EA0221CA
:101BF000816124E0206800F047FE2068C16941F05F
:101C00000801C1612068C16921F00401C161206837
:101C1000C1692A69114311E0206800F069FE20685B
:101C2000C16941F40061C1612068C16921F480612A
:101C3000C1612068C1692A6941EA0221C16184F851
:101C40003960002084F8380070BD10B5040003D05E
:101C500094F8390010B107E0012010BD002084F88D
:101C60003800204600F00CF8022084F83900211DCD
:101C7000206800F055FD012084F83900002010BDD7
:101C800010B504460068124986B088421BD111493C
:101C9000C86940F00200C861C869022100F0020072
:101CA00004900820CDE900010020CDE90201694639
:101CB0000948FFF721F8002204211D20FFF75AF9F7
:101CC0001D20FFF74BF9204600F008F806B010BDC4
:101CD0000004004000100240000C014000B5006804
:101CE000144985B0884222D11348C16941F00201EC
:101CF000C161C16901F00201049110494A6842F4CE
:101D000040624A60816941F01001816180696946E1
:101D100000F0100004904FF4007000900220019039
:101D200001200290032003900548FEF7E5FF05B06F
:101D300000BD00000004004000100240000001400F
:101D4000001001407047000010B5044600680122F1
:101D500000F028FD08482168814202D007488142EE
:101D600003D1486C40F4004048642068016841F0A9
:101D700001010160002010BD002C01400034014031
:101D800070477047704790F83900704738B504467F
:101D900000680168C268C1F3000102F4807221B1D9
:101DA0001AB1E16B41F00101E1630168C1F3400246
:101DB000416901F0010122B119B1E26B42F0040264
:101DC000E2630268C2F3800222B119B1E26B42F011
:101DD0000202E2630268C2F3C00222B119B1E16BF0
:101DE00041F00801E1630168C068C1F3401100F0EF
:101DF000200019B110B1204600F02EFE20680168C5
:101E0000C068C1F3C01100F0800019B110B12046C4
:101E100000F02EFF21680868CA68C0F3801002F045
:101E20004002012568B162B1CA68204622F0400232
:101E3000CA6094F83910322910D080F8395000F077
:101E4000B1F9E06B002808D0206801684068009074
:101E500084F839502046FFF795FF38BD222180F8DD
:101E60003910ECE770B5040004D094F8390000256F
:101E700010B106E0012070BD84F83850204600F013
:101E800021F8022084F839002068C16821F400514B
:101E9000C160204600F034FE2068016921F49041C1
:101EA00001612068416921F02A0141612068C1680F
:101EB00041F40051C160E563012084F8390000203D
:101EC00070BD000010B500681E4986B0884236D14A
:101ED0001D48816941F004018161816901F00401BB
:101EE0000491816941F480418161816901F48041FB
:101EF0000491816941F0010181618069134C00F016
:101F0000010004904FF40070009002200190012025
:101F100002900320039069462046FEF7EDFE21154E
:101F200000910021019169462046FEF7E5FE25203B
:101F3000FFF714F8032211462520FFF71BF806B01F
:101F400010BD0000003801400010024000080140B0
:101F50002DE9F047044690F8390099460D460128CE
:101F600001D0122857D125B31AB394F838000128AC
:101F700051D0012684F838600027E76394F83900CF
:101F8000122819D0222084F83900A285E2854FF466
:101F90008058E08D4B46401EE085A0684FF000025F
:101FA00040454FF02001204616D100F094FEB0B914
:101FB00004E00120BDE8F0873220E4E72069002832
:101FC0002068406803D0C1B225F8011B12E0C0F3BD
:101FD000080125F8021B0DE000F07DFE08B103208A
:101FE000E8E7206900282068406801D000F07F0001
:101FF00005F8010BE08D0028CBD194F83900322888
:1020000005D084F8396084F838700020D2E71220B7
:1020100084F83900F7E70220CCE790F83930012B3B
:1020200001D0122B2BD131B32AB390F83830012BC9
:1020300025D0012380F8383081628285C285002155
:10204000C16390F83920122A17D0222280F8392053
:1020500080F838100168CA6842F48072CA6001686A
:102060004A6942F001024A610068C16841F02001FA
:10207000C16000207047012070473222E6E702204D
:102080007047000030B50068114988420CD1114AF0
:102090005088010408D41146440409784FF0000325
:1020A00006D50A2901D0538030BD40F400400DE030
:1020B0000D2909D0C0F30D04074D401C80B22955ED
:1020C0005080C728EFD830BD40F48040508030BDEC
:1020D0000038014010000020680100202DE9F04781
:1020E000044690F8390099460D46012801D022286F
:1020F00056D125B31AB394F83800012850D00126E0
:1021000084F838600027E76394F83900222819D052
:10211000122084F83900A284E2844FF48058E08CC5
:102120004B46401EE084A0684FF0000240454FF04F
:102130008001204613D100F0CEFD08BB04E0012051
:10214000BDE8F0873220E4E728882168C0F3080062
:102150004860206908B16D1C08E0AD1C06E000F085
:10216000BAFD68B9216815F8010B4860E08C0028B9
:10217000D5D14B4600224021204600F0ACFD08B1ED
:102180000320DDE794F83900322805D084F839605F
:1021900084F838700020D3E7222084F83900F7E76C
:1021A0000220CDE77047FEE770B5144886B081691C
:1021B00041F004018161816901F0040104918169A8
:1021C00041F0400181618069032400F040000490E7
:1021D000022001260025CDE90204CDE9006569460B
:1021E0000748FEF789FD1C2003948DE861006946CD
:1021F0000448FEF781FD06B070BD000000100240EB
:1022000000080140001801402DE9F04101262E4C44
:102210002E4F2F4D01281DD02078A0B11021284627
:10222000FEF760FEC0B108212846FEF75BFE98B1BC
:1022300004212846FEF756FE70B101213846FEF70C
:1022400051FE012808D010212846FEF74BFE012838
:1022500026D037E02670E1E70A2000F083FE002058
:10226000207010212846FEF73DFE80B10821284647
:10227000FEF738FE70B104212846FEF733FE58B150
:1022800001213846FEF72EFE012807D01AE0012072
:10229000BDE8F0810220FBE70320F9E70420F7E71F
:1022A00008212846FEF71EFE01280BD104212846EE
:1022B000FEF718FE012805D101213846FEF712FE6F
:1022C00000B926700020E3E7180000200008014054
:1022D0000018014030B5184885B0816941F0080107
:1022E0008161816901F008010491816941F0400137
:1022F00081618069202400F0400004900120CDE934
:102300000040029003200D4D039069462846FEF7D9
:10231000F3FC00940A4C69462046FEF7EDFC0122CE
:1023200020212846FEF7E3FD012220212046FEF76A
:10233000DEFD05B030BD000000100240000C014081
:10234000001801400C4800B5816985B041F040019A
:1023500081618069694600F040000490202000906F
:102360000020019002200290032003900348FEF712
:10237000C3FC05B000BD0000001002400018014081
:10238000FEE770470907090E002806DA00F00F0083
:1023900000F1E02080F8141D704700F1E02080F883
:1023A00000147047704700002DE9F04180462F4827
:1023B00086B0816941F004018161816901F0040105
:1023C0000491816941F020018161816901F020015E
:1023D0000491C16941F40031C161C06901AA00F4EE
:1023E000003004900420009002200124032682E89B
:1023F00051001F4F69463846FEF77EFC0820002535
:10240000CDE9000569463846FEF776FC8020CDE927
:102410000004CDE9024669461648FEF76DFC174CEC
:1024200015482060C4E90185E5600C202561C4E9F8
:1024300005052046E561FFF715FD2068C16821F01C
:102440004001C1602068C16841F02001C1602620C0
:10245000FEF784FD032211462620FEF78BFD084877
:10246000C0F89C5106B0BDE8F081000000100240A9
:102470000008014000140140004400400403002013
:10248000008022422DE9F047DFF83C800024074617
:10249000D8F804500E46A1460A200C6000F062FDF8
:1024A000D8F8040085420DD1002D0BD0074802E07A
:1024B000015D3955641CAC42FADBD8F80410316078
:1024C000C8F80490BDE8F0872400002044030020F1
:1024D00010B5094C0122C4F89C218AB201464FF480
:1024E0007A73064804F5CE74FFF7F8FD044900201E
:1024F0004860206010BD00000080224204030020DC
:102500002400002070B51C4C86B0A06940F010007B
:10251000A061A069012500F0100004903020CDE9F1
:1025200000050326CDE9025669461448FEF7E4FB90
:10253000A06940F00800A061A069CDE9025600F052
:10254000080004900720CDE9000569460C48FEF715
:10255000D3FBA06940F08000A061A069CDE90256DC
:1025600000F080000490E014CDE9000569460548BC
:10257000FEF7C2FB06B070BD001002400010014023
:10258000000C0140001C014010B5104C0E48022107
:1025900020604FF4827060600020A060C4E90301F5
:1025A000012161614902A1612021C4E90710606233
:1025B000A0620720E0622046FFF706F92068016864
:1025C00041F04001016010BD003001408410002046
:1025D0000B4A10B511680B6823F040030B601168BB
:1025E0000B684FF6C77423400B6011680B680343F8
:1025F0000B601068016841F04001016010BD0000EF
:1026000084100020704730B58FB001210091022561
:10261000090400240795CDE90114CDE908106846A6
:10262000FEF714FE00B1FEE70F20CDE90A054FF4D6
:102630008060CDE90C4002210AA80E94FEF7CCFC84
:10264000002800D0FEE70FB030BDFEF75BBC0000F5
:102650000D48016841F00101016041680B4A1140D9
:10266000416001680A4A11400160016821F480213B
:102670000160416821F4FE0141604FF41F01816057
:102680000449C00308607047001002400000FFF8D2
:10269000FFFFF6FE08ED00E00148FFF7BAB90000C1
:1026A000C802002010B5104A04460E48C2E90001D5
:1026B0000020C2E9020410611046FFF7C6FA0A4979
:1026C00060203C310C22086060084860022088606D
:1026D0000548FFF752FABDE810400C210248FFF709
:1026E00033BB0000000400402C10002010B50A4C41
:1026F0002068C068C043C00709D108480069804706
:1027000021680020486221686420C862E060216876
:102710006FF00100086110BDDC1000207400002083
:10272000F0B502681A4D1B4E1B4FDFF870C01C4BF2
:102730004FF0804EA84209D0984207D0704505D08E
:10274000B04203D0B84201D0604503D122F07004FA
:102750004A682243A84209D0984207D0704505D064
:10276000B04203D0B84201D0604503D122F4407496
:10277000CA68224302608A68C2620A688262A8420A
:1027800001D0984201D10969016301214161F0BD85
:10279000002C01400004004000080040000C0040F4
:1027A0000034014010B50123046A8B409C4304624D
:1027B000036A8A401343036210BD0000F0B5026A49
:1027C00022F001020262026A43688469114E24F019
:1027D00073050C68104F2C4322F002058A682A43C7
:1027E000B04201D0B84205D122F00805CA682A4398
:1027F00022F00402B04201D0B84205D14D6923F461
:1028000040731D438B692B43436084614968416376
:102810000262F0BD002C014000340140F0B5026AB4
:1028200022F010020262026A436884690D6824F48F
:10283000E64444EA05248D6822F0200242EA0512AB
:102840000F4D104EA84201D0B04206D1CF6822F001
:10285000800242EA071222F04002A84201D0B042B0
:1028600007D14D6923F4406343EA85038D6943EA48
:10287000850343608461496881630262F0BD0000A2
:10288000002C014000340140F0B5026A22F480724D
:102890000262026A4368C46922F4007224F073057C
:1028A0000C68124E2C438D6842EA05220E4DA84258
:1028B00001D0B04206D1CF6822F4006242EA07227A
:1028C00022F48062A84201D0B04207D14D6923F4BE
:1028D000405343EA05138D6943EA05134360C4611D
:1028E0004968C1630262F0BD002C01400034014020
:1028F00030B5026A22F480520262036A4268C469F7
:102900000D6824F4E64444EA05248D6823F400535A
:1029100043EA0533084DA84202D0084DA84204D12D
:102920004D6922F4804242EA85124260C4614968DE
:102930000164036230BD0000002C014000340140FE
:1029400001490860704700004004004038B5114A52
:1029500004460D46D06940F00400D061D0690322DE
:1029600000F00400009011461E20FEF703FB1E201D
:10297000FEF7F4FA094A00210748C2E9021411617E
:10298000C2E900051046FEF7FDFFBDE838400348E8
:10299000FFF732B80010024000080040DC100020B1
:1029A00070B52949064686B0886940F00100886103
:1029B000886900F001000490886940F0080088618F
:1029C000886900F008000490C86940F48020C8615C
:1029D000C8691E4C00F48020049008150090022065
:1029E00001900320039069462046FEF785F9E01424
:1029F0000025CDE900050120029069462046FEF73A
:102A00007BF9144C12482060C4E90165E5600C2094
:102A10002561C4E905052046E561FFF723FA206832
:102A2000C16821F04001C1602068C16841F0200107
:102A3000C1602720FEF792FA032211462720FEF7F5
:102A400099FA06B070BD000000100240000C014071
:102A5000004800404407002010B590F839102229A2
:102A600003D0322901D0022010BD8168B1F5805F0A
:102A700011D00169002901681FD0496801F07F0366
:102A8000816A4A1C82620B70C18D491E0904090CBF
:102A9000C18518D02FE00269816A002A0268526855
:102AA00005D0D2B20A80816A491C8162ECE7C2F388
:102AB00008020A80816A891CF7E74A68816A4B1C10
:102AC00083620A70E0E70168CA6822F02002CA60E7
:102AD00090F83910322910D00168CA6822F4807247
:102AE000CA6001684A6922F001024A61012180F846
:102AF0003910FFF7C7FA002010BD1221F7E70000D8
:102B00002DE9F041044600680169E26821F4405172
:102B100011430161A1682069014360690143206894
:102B2000C26841F20C639A430A43C260206841695B
:102B3000A26921F44071114341614C492068642627
:102B4000322788423CD1FEF725FB00EBC00101EBA8
:102B5000001061688900B0FBF1F5FEF71BFB00EB8C
:102B6000C00101EB00106168B8468900B0FBF1F0CC
:102B7000B0FBF6F06FF01801484305EB800107EB5E
:102B80000110B0FBF6F000F0F005FEF703FB00EBE0
:102B9000C00101EB001061688900B0FBF1F0B0FBEF
:102BA000F6F005EB0015FEF7F5FA00EBC00101EBBE
:102BB000001061688900B0FBF1F7FEF7EBFA3BE02B
:102BC000FEF7D0FA00EBC00101EB0010616889004C
:102BD000B0FBF1F5FEF7C6FA00EBC00101EB001007
:102BE0006168B8468900B0FBF1F0B0FBF6F06FF019
:102BF0001801484305EB800107EB0110B0FBF6F02C
:102C000000F0F005FEF7AEFA00EBC00101EB00109A
:102C100061688900B0FBF1F0B0FBF6F005EB001540
:102C2000FEF7A0FA00EBC00101EB0010616889001B
:102C3000B0FBF1F7FEF796FA00EBC00101EB0010D4
:102C400061688900B0FBF1F0B0FBF6F06FF018019D
:102C5000484307EB800108EB0110B0FBF6F0216858
:102C600000F00F0028448860BDE8F0810038014082
:102C700090F83910122903D0322901D00220704770
:102C80008168B1F5805F016A0BD04A1C026202685C
:102C900009785160C18C491E0904090CC1840ED009
:102CA00017E009880268C1F3080151600169002931
:102CB000016A02D0491C0162ECE7891CFBE701684C
:102CC000CA6822F08002CA600068C16841F0400111
:102CD000C160002070472DE9F0471D4690460F4621
:102CE0000446FEF709F906465FEA08004FF00009BE
:102CF0004FF0010808D030E0681C05D095B1FEF710
:102D0000FBF8801BA8420DD82068006837EA000055
:102D1000F2D127E0681C20D025B1FEF7EDF8801B2A
:102D2000A8421AD92068C16821F08001C1602068DA
:102D3000C16821F02001C1602068C16821F4807160
:102D4000C1602068416921F00101416184F8398046
:102D500084F838900320BDE8F0872068006837EADF
:102D60000000D7D00020F6E710B50848FFF70EF8AE
:102D70000648FFF708F80128FAD101220449034860
:102D8000FFF74BF90028F8D110BD000030020020F9
:102D90001000002038B5294800680068C04380064C
:102DA00037D44FF47A73012269462448FFF7D0F8EC
:102DB0002349224A48684032B0F5806F04DA9DF812
:102DC00000301354401C48608878012310B94868CB
:102DD0004C2808D0486802280CDB104410F8014C3D
:102DE0000A2C02D006E08B70F7E710F8020C0D28D1
:102DF00000D18B70486810280CD0012814D0052809
:102E000007DD104410F8010C0A2801D00D2800D16C
:102E10000B7038BD094C4034E47B0A2CF1D1147896
:102E2000212CEED10B70ECE71078232803D0242856
:102E300001D02528EDD14B7038BD000004030020DF
:102E400024000020134808B500680068C0438006CD
:102E50001FD44FF47A73012269460E48FFF778F8C1
:102E60000D490C4A48684032B0F5006F04DA9DF80D
:102E700000301354401C486003280ADB104410F84B
:102E8000012C0A2A05D110F8020C0D2801D10120CD
:102E9000087008BD440700202C000020FEE73038F1
:102EA0000A2801D2012070470020704770470000B7
:102EB0002DE9F84307460020894600901E46144637
:102EC000DDF8208018212148FDF71CFC1F488021D7
:102ED0001830FDF717FC1D4D2320002C2870388872
:102EE000A5F80100B878E87004DD22464946281D9F
:102EF000FDF791FB29190D200871611D1348FFF79B
:102F0000E7FA1FFA88F000F02DF8104869461830EB
:102F1000FFF7B8FA00994FF0FF3405290FDB0B4893
:102F20001830084410F8010C0D2801D00A2806D1E9
:102F300006480322691C1830FDF722FB10B1204619
:102F4000BDE8F883009830600020F9E7840F002086
:102F500010B504460420FEF7F3FC0148046010BDE0
:102F60000C00002070B5054600244FF47A7603E08B
:102F7000304600F005F8641CAC42F9D370BD000087
:102F800070B54FF0E02500216C69094AAB69126801
:102F90005043AA699A42FCD002D2A3EB020302E09A
:102FA000A4EB02063344194413468142F1D370BDA9
:102FB0000C00002004490A685206FCD5024AC1B23E
:102FC000121D11607047000000380140A2B00025BA
:102FD0002195FDF79FFF4FF4E010FFF714FB482009
:102FE000FFF7B6FF4FF4E134204600F099F82E4881
:102FF000416854208847FFF76DF9FFF7D5F8FFF7D0
:10300000A1F9472140F2F310FFF74CFBFDF796FCC6
:103010002046FFF7C9F92046FFF7C2FC23A0FDF7C1
:1030200027F94FF4FA70FFF78BFC264E0020FFF7CC
:10303000EBF8022802D0012807D011E022A0FDF70A
:1030400017F925A0FDF714F90AE027A0FDF710F9FC
:1030500064200022009021AB11464220FDF7B2FC13
:103060003078E0B124A0FDF703F90A20FFF77AFFDA
:1030700021A901A8FFF706FA24A02199FDF7F8F885
:10308000002401AF04E0395D23A0FDF7F1F8641CD2
:1030900021988442F7DB0FA0FDF7EAF835700A208B
:1030A000FFF760FFC2E7000074000020696E746FD4
:1030B00020736C61766520646576696365200D0A0E
:1030C00000000000240000207374617274206B659E
:1030D000793120210D0A0000656E64206B6579311D
:1030E00020210D0A000000007374617274206B656A
:1030F000793020210D0A00007374617274207265AA
:10310000636569766520210D0A0000006C656E3AE2
:103110002564200D0A000000256300000068704748
:103120000B4910B5094AC1E9002000208860C86039
:10313000086188610C2048610846FEF793FEBDE8EF
:103140001040012203490248FEF767BF00380140E2
:10315000300200201000002070B594B0064613AB7A
:1031600011AA694600F0DCF9002824D18DF840004E
:103170001D4C042514E0206805EBC10113AB405839
:1031800012AA08A900F0CCF9002814D1694608A8B1
:1031900000F001FC88B19DF84000401C8DF8400013
:1031A000207D9DF840108842E5D8207D9DF8401094
:1031B00088420ED1042014B070BD9DF848009DF8DF
:1031C0004410884201D90220F5E79DF84000A0751F
:1031D000EBE710A9304600F057FA0028EBD19DF834
:1031E000400060750020E6E7740000202DE9F04102
:1031F0007E4E9AB0B57D307DA8427CD904213068DE
:1032000001EBC50119AB405818AA10A900F088F9C4
:1032100010A977A0FDF72CF800240DF1180832E072
:10322000308B0121A140084217D0222172A0FDF766
:103230001FF8204600F090FA811970A02431FDF7A4
:1032400017F822216CA0FDF713F8204600F084FA4D
:103250003044243048F824000BE0204600F07CFA8B
:103260003044416A48F82410F07D00B364A0FCF7B4
:10327000FFFF9DF86000401E844202D062A0FCF770
:10328000F7FF641CE4B29DF860008442C8D35FA0DD
:10329000FCF7EEFF00F0A6FA707D0B2814D2DFE8F1
:1032A00000F0080D31384048525E6B78890058A014
:1032B000DDE7306850F83500804704E0306850F8AA
:1032C000351006988847074600F058FA9DF86400C4
:1032D00001286ED04FA0FCF7CBFF96F8EC00002839
:1032E0000DD0D6F8F0000A21B0FBF1F201FB12027A
:1032F000B0FBF1F100E002E047A0FCF7B9FF1AB023
:10330000BDE8F081306850F83520DDE906019047CE
:10331000D9E7306806AC50F8353094E80700984794
:10332000D1E7306806AF50F8354097E80F00A04766
:10333000C9E70A980090306806AF50F8354097E822
:103340000F00A047BFE7DDE90A01CDE900013068C1
:1033500006AF50F8354097E80F00A047B3E70AAB37
:1033600006AF93E807008DE80700306850F8354055
:1033700097E80F00A047A6E70AAC06AF94E80F0055
:103380008DE80F00306850F8354097E80F00A047EF
:1033900099E70BAC06AF94E80F0001AC84E80F008E
:1033A0000A980090306850F8354097E80F00A04721
:1033B00089E711E00CAC06AF94E80F0002AC84E89A
:1033C0000F00DDE90A01CDE90001306850F8354011
:1033D00097E80F00A04776E7F07D394618B116A0B0
:1033E000FCF746FF79E717A0FAE700007400002019
:1033F0000D0A2573280000002563000025730000D6
:1034000030582558000000002C0000002900000062
:10341000256C64003B0D0A0046756E6374696F6E1F
:103420002052756E2054696D653A25642E253164ED
:103430006D730D0A000000003D305825583B0D0A01
:10344000000000003D256C753B0D0A00F0B500251D
:103450002E462F462C4603782C2B03D0292B04D044
:103460001BB103E014B9012600E00CB317B1222B05
:103470002AD02AE0A3F1300CBCF1090F19D92D2B69
:1034800017D02B2B15D0A3F1610CBCF1050F10D96F
:10349000A3F1410CBCF1050F0BD9582B09D0782BA7
:1034A00007D0222B0CD0202B1ED02C2B1CD0FF277A
:1034B0000CE05EB9612B00D3203B01F8013B13E027
:1034C00026B901273C460FE0002426B100200870F1
:1034D00017702846F0BD3CB15C2B02D16D1CEDB2DB
:1034E000401C037801F8013B6D1CEDB2401CB2E7B3
:1034F00030B5002515700AE001F8014B1478401C26
:10350000641CE4B214709C4201D3012030BD0478E5
:10351000202C01D0002CEFD10D70002030BD000018
:103520002DE9FF4F002482B089469846A2462746DF
:10353000012526462246EB46029915E0202810D0A8
:1035400002F07F03052B0CD202B9802202F07F0328
:10355000042B01D12A280AD1521C0BF80300D2B245
:1035600001E0852A04D0491C08780028E6D16AB118
:1035700002F07F0200200BF8020041A1584600F043
:103580000AFA38B1012188F8001000224FF0000833
:10359000029B15E0002088F80000F6E708F1010022
:1035A00000F0FF0813F8010F202801D02A2807D1C6
:1035B000184600F07DF9282802D02A2800D0C246FB
:1035C0001878282801D00028E8D10299BAF1000F14
:1035D00001D05144491C4FF000084346087888B197
:1035E000282804D0292806D0222810D011E083B939
:1035F000641CE4B20DE063B924B1641E14F0FF044E
:1036000002D00DE04FF00108012F27D02FE04BB181
:1036100000234CB12C280CD0202816D0282814D0F8
:103620005AB110E00123F4E7202815D009F8010B66
:1036300012E00125521CD2B207E0052E03D20BF88E
:103640000600761CF6B26D1CEDB2012C04D1022DE1
:1036500002D103257F1CFFB2491CBFE700200BF8F5
:10366000060007A1684600F096F900B90027049803
:103670000770002089F8000006B04046BDE8F08FD2
:10368000766F6964000000002DE9F043002489464C
:10369000304DB5B0214622466B18491CC9B29A7606
:1036A0000A29F9D302E010F8011F99B101782829FD
:1036B000F9D1461C4FF0010833AA69463046FFF79E
:1036C000C5FE06449DF8CC0040B1012824D0FF2857
:1036D00036D10BE0012035B0BDE8F0839DF8000045
:1036E00070B334A9684600F0EBF808B10220F2E7A5
:1036F000204600F031F8284434994162298B08FAB9
:1037000004F081432983042029198876641CE4B2DB
:103710000A2C15D90320DEE7684600F051F9471C52
:10372000204600F019F841196846243100F03FF9AD
:10373000298B08FA04F00143281929838776E5E7E5
:103740003078292801D00028B6D189F8004000201F
:10375000C1E7000074000020024610B500200146B9
:10376000054B05E05C18491CA47EC9B22044C0B2D8
:103770009142F7D310BD0000740000200948006892
:103780000169C943CA070849D1F8F02004D14FF6AE
:10379000FF731A44C1F8F020406A1044C1F8F000E9
:1037A00070470000DC1000207400002000EBC00116
:1037B00001EB00104FF0FF3101EB800010B581B23A
:1037C0004FF47A70FFF7C2F801490120C87510BDA7
:1037D000740000200346012000E05843491EC9B28E
:1037E000FBD2704707486FF001010268116102685F
:1037F000090CD162C1600068002141620248C0F832
:10380000F0107047DC100020740000202DE9F0411A
:10381000164E3088010426D51549C0B2154F002533
:103820000D54B9681248884704000FD0104800F0C2
:10383000D1F8012801D0040014D0012C09D0022CA9
:1038400009D0032C09D0042C0CD108E0F86880477B
:1038500008E009A004E00BA002E00DA000E00FA02A
:10386000FCF706FD3580BDE8F08100001200002065
:103870006801002074000020BAAFCAFDB4EDCEF399
:10388000210D0A00B2CECAFDB4EDCEF3210D0A001F
:10389000B2CECAFDCCABB6E0210D0A00CEB4D5D273
:1038A000B5BDC6A5C5E4B5C4BAAFCAFD210D0A00B1
:1038B00010F8011F202901D10028F9D1C8B27047A2
:1038C0002DE9F0430E4600244FF00A082546014634
:1038D00034600A78A2F13003092B14D903782D2B18
:1038E00001D02B2B00D174B1A2F14103052B0AD9D1
:1038F000582A05D012F0FF0F17D00120BDE8F08341
:10390000012C02D0F9E7412A01D34FF010080278C8
:103910002D2A04D02B2A04D0641CE4B203E0022533
:1039200000E00125401C491CD3E70746B8F1100F01
:1039300001D084B112E0032C01D20220DEE73878F6
:10394000302802D17878582801D00320D6E7A41E69
:10395000E4B2BF1C01E00420D0E70CB1641EE4B265
:10396000387801463038092801D8814601E0A1F1B4
:10397000370921464046FFF72DFF326809FB00203A
:10398000306017F8011F0029E7D1022D01D1404214
:1039900030600020B2E702780B789A4201D0012013
:1039A000704712B1401C491CF5E7002070470278AF
:1039B0000A700278002A02D0401C491CF7E77047C1
:1039C000002102781AB1491CC9B2401CF9E7084627
:1039D00070470000F0B58DB004461E2308AA694662
:1039E000FFF786FD0990002872D19DF82000271866
:1039F00000253E4C8DF820509DF8200054F82010F2
:103A00006846FFF7C8FF38B19DF82000401CC0B2DF
:103A10008DF820000728EFD39DF820000426344CB1
:103A2000072855D2DFE800F00404395A605F5E00D1
:103A300030A0FCF71DFC30A0FCF71AFC3EA0FCF700
:103A400017FC4DA0FCF714FC5BA0FCF711FC6AA06E
:103A5000FCF70EFC78A0FCF70BFC86A0FCF708FC3A
:103A60008BA0FCF705FC93A0FCF702FC97A0FCF7E9
:103A7000FFFB9CA0FCF7FCFBA1A0FCF7F9FBA7A0B7
:103A8000FCF7F6FBB3A0FCF7F3FBC0A0FCF7F0FBE0
:103A9000CBA0FCF7EDFBD7A01BE016A0FCF7E8FBE2
:103AA000E4A0FCF7E5FB8DF820500BE0216806EB65
:103AB000C0000958EFA0FCF7DBFB9DF82000401C7C
:103AC0008DF82000217D9DF820008142EED856E23D
:103AD00057E2FCF7CDFB00200DB0F0BD05A0FCF7D0
:103AE000C7FBCBE12CE20CE2EBE100003800002048
:103AF000740000200D0A00002D2D2D2D2D2D2D2DB3
:103B00002D2D2D2D2D2D2D2D2D2D2D2D2D2D2D2DE5
:103B100055534D4152542056332E332D2D2D2D2DDE
:103B20002D2D2D2D2D2D2D2D2D2D2D2D2D2D2D2DC5
:103B30002D2D2D200D0A00002020202055534D4111
:103B40005254CAC7D3C9414C49454E54454BBFAAEC
:103B5000B7A2B5C4D2BBB8F6C1E9C7C9B5C4B4AE43
:103B6000BFDAB5F7CAD4BBA5BDBBD7E9BCFE2CCD27
:103B7000A8B9FD200D0A0000CBFC2CC4E3BFC9D2BC
:103B8000D4CDA8B9FDB4AEBFDAD6FACAD6B5F7D34C
:103B9000C3B3CCD0F2C0EFC3E6B5C4C8CEBACEBA78
:103BA000AFCAFD2CB2A2D6B4D0D02ED2F2B4CB2C58
:103BB000C4E3BFC90D0A0000D2D4CBE6D2E2B8FC00
:103BC000B8C4BAAFCAFDB5C4CAE4C8EBB2CECAFD28
:103BD00028D6A7B3D6CAFDD7D62831302F3136BD67
:103BE000F8D6C62CD6A7B3D6B8BACAFD29A1A2D793
:103BF000D6B7FBB4AE0D0A00A1A2BAAFCAFDC8EB9E
:103C0000BFDAB5D8D6B7B5C8D7F7CEAAB2CECAFDF7
:103C1000292CB5A5B8F6BAAFCAFDD7EEB6E0D6A73F
:103C2000B3D63130B8F6CAE4C8EBB2CECAFD2CB276
:103C3000A2D6A7B3D60D0A00BAAFCAFDB7B5BBD896
:103C4000D6B5CFD4CABE2ED6A7B3D6B2CECAFDCF74
:103C5000D4CABEBDF8D6C6C9E8D6C3B9A6C4DC2C42
:103C6000D6A7B3D6BDF8D6C6D7AABBBBB9A6C4DC07
:103C70002E0D0A00BCBCCAF5D6A7B3D63A77777723
:103C80002E6F70656E6564762E636F6D0D0A000091
:103C900055534D415254D3D037B8F6CFB5CDB3C3F9
:103CA000FCC1EE28B1D8D0EBD0A1D0B4293A0D0A8E
:103CB000000000003F3A202020202020BBF1C8A1B6
:103CC000B0EFD6FAD0C5CFA20D0A000068656C70BF
:103CD0003A202020BBF1C8A1B0EFD6FAD0C5CFA2C0
:103CE0000D0A00006C6973743A202020BFC9D3C349
:103CF000B5C4BAAFCAFDC1D0B1ED0D0A0A000000CB
:103D000069643A2020202020BFC9D3C3BAAFCAFDBE
:103D1000B5C44944C1D0B1ED0D0A0A006865783ACE
:103D200020202020B2CECAFD3136BDF8D6C6CFD471
:103D3000CABE2CBAF3B8FABFD5B8F12BCAFDD7D694
:103D4000BCB4D6B4D0D0BDF8D6C6D7AABBBB0D0A7A
:103D50000A0000006465633A20202020B2CECAFD2C
:103D60003130BDF8D6C6CFD4CABE2CBAF3B8FABF2C
:103D7000D5B8F12BCAFDD7D6BCB4D6B4D0D0BDF8D7
:103D8000D6C6D7AABBBB0D0A0A00000072756E74B6
:103D9000696D653A312CBFAAC6F4BAAFCAFDD4CB5F
:103DA000D0D0BCC6CAB13B302CB9D8B1D5BAAFCA95
:103DB000FDD4CBD0D0BCC6CAB13B0D0A0A0000006E
:103DC000C7EBB0B4D5D5B3CCD0F2B1E0D0B4B8F134
:103DD000CABDCAE4C8EBBAAFCAFDC3FBBCB0B2CE21
:103DE000CAFDB2A2D2D4BBD8B3B5BCFCBDE1CAF8FF
:103DF0002E0D0A002D2D2D2D2D2D2D2D2D2D2D2D62
:103E00002D2D2D2D2D2D2D2D2D2D2D2D2D2D414CAF
:103E100049454E54454B2D2D2D2D2D2D2D2D2D2D20
:103E20002D2D2D2D2D2D2D2D2D2D2D2D2D2D2D20CF
:103E30000D0A00002D2D2D2D2D2D2D2D2D2D2D2D4F
:103E40002D2D2D2D2D2D2D2D2D2D2D2D2DBAAFCAF6
:103E5000FDC7E5B5A52D2D2D2D2D2D2D2D2D2D2D70
:103E60002D2D2D2D2D2D2D2D2D2D2D2D2D2D2D2D82
:103E7000200D0A0025730D0A0000000042A0FCF787
:103E8000F7F98DF8205016E0216806EBC0000BAB67
:103E900008580AAA6946FFF743FB9DF820102068DE
:103EA00050F83120694648A0FCF7E2F99DF820005F
:103EB000401C8DF82000217D9DF820008142E3D830
:103EC0005DE0AFF2D030FCF7D3F908AA6946384676
:103ED000FFF7BCFA9DF82000002843D109A96846E5
:103EE000FFF7EEFC8DF8200010B104283AD102E073
:103EF0003AA009991CE03CA0FCF7BAF90120E07552
:103F00003DE038A0FCF7B4F908AA69463846FFF747
:103F10009DFA9DF8200028BB09A96846FFF7D0FC50
:103F20008DF8200010B104281CD104E033A00999B9
:103F3000FCF79EF923E034A0FCF79AF9E5751EE042
:103F400028A0FCF795F908AA69463846FFF77EFADB
:103F50009DF8200030B909A96846FFF7B1FC8DF83B
:103F6000200008B10220B7E5099810F0FF0084F89E
:103F7000EC0001D029A000E02FA0FCF779F919A0EE
:103F8000A7E50120A8E500002D2D2D2D2D2D2D2D8F
:103F90002D2D2D2D2D2D2D2D2D2D2D2D2D2D2D2D51
:103FA0002DBAAFCAFD204944202D2D2D2D2D2D2DAC
:103FB0002D2D2D2D2D2D2D2D2D2D2D2D2D2D2D2D31
:103FC0002D2D2D2D200D0A00257320696420697385
:103FD0003A0D0A3058253038580D0A004845583AED
:103FE000305825580D0A00003136BDF8D6C6B2CE7D
:103FF000CAFDCFD4CABE210D0A0000004445433A91
:10400000256C750D0A0000003130BDF8D6C6B2CE61
:10401000CAFDCFD4CABE210D0A00000052756E2021
:1040200054696D652043616C63756C6174696F6E72
:10403000204F4E0D0A00000052756E2054696D65C8
:104040002043616C63756C6174696F6E204F4646E6
:104050000D0A000001607047000000000000000031
:10406000010203040607080900000000010203041E
:10407000303132333435363738394142434445469E
:104080004030580030313233343536373839616298
:10409000636465664030780004000008000000009A
:1040A0000000000200010000100000003F000000BE
:1040B000646563006964000072756E74696D650003
:1040C00068656C70000000006C697374000000008B
:1040D00068657800766F69642077726974655F61DE
:1040E0006464722875333220616464722C753332D3
:1040F0002076616C2900000075333220726561649E
:104100005F616464722875333220616464722900CF
:10411000766F69642064656C61795F6D73287531B1
:1041200036206E6D73290000766F69642064656CBB
:1041300061795F757328753332206E7573290000BD
:104140006041000800000020680100006C010008C8
:10415000B44100086801002010160000C8010008E2
:10416000110414A24A04021F0113AC401B08C0042E
:104170001AC8041AB4041AD0041AB0041AB80413E2
:104180001D311B08F8081A55041AD40413652F149E
:104190000810411B0881081A280822541420AD3742
:1041A0001B0859281AED04130D381A0885091E73C7
:0441B00001BD00004D
:0400000508000131BD
:00000001FF
