:020000040800F2
:10000000F026002045010008193A0008432D000899
:1000100065390008490E000805C700080000000007
:10002000000000000000000000000000B9530008BC
:100030007112000800000000153C0008CD570008B0
:100040005F0100085F0100085F0100085F01000810
:100050005F0100085F0100085F0100085F01000800
:1000600083120008891200085F0100085F01000880
:100070005F0100085F0100085F0100085F010008E0
:100080005F0100085F0100085F0100085F010008D0
:100090005F0100085F0100085F010008911200087D
:1000A0005F0100085F0100085F0100085F010008B0
:1000B0005F0100085F010008195800085F0100088F
:1000C0005F0100085F0100085F0100085F01000890
:1000D0005F010008F5C3000821C4000809C5000835
:1000E000811200085F0100085F0100085F0100083D
:1000F0005F0100085F0100085F0100085F01000860
:100100005F0100085F0100084D5800085F0100080A
:1001100049BE000895BF00085F0100085F010008A4
:100120005F0100085F0100085F0100085F0100082F
:10013000DFF80CD000F084FC00480047C1DD000867
:10014000F02600200648804706480047FEE7FEE705
:10015000FEE7FEE7FEE7FEE7FEE7FEE7FEE7FEE777
:10016000D157000831010008202A04DB203A00FAA8
:1001700002F1002070479140C2F1200320FA03F3FE
:1001800019439040704710B5431A934209D283181F
:10019000881803E010F8011D03F8011D521EF9D262
:1001A00010BD40EA01039B0703D009E008C9121FF4
:1001B00008C0042AFAD203E011F8013B00F8013B21
:1001C000521EF9D210BDD2B201E000F8012B491E37
:1001D000FBD270470022F6E710B513460A460446E4
:1001E0001946FFF7F0FF204610BD10B5044604E0A5
:1001F0000B7800F8013B03B1491C521EF8D220468F
:1002000010BD421C10F8011B0029FBD1801A704759
:1002100010B5002200E0521C835C8C5CA34201D12B
:10022000002BF8D1D8B2E1B2401A10BD30B5054666
:100230000020034600E05B1C934205D2EC5CC85CE6
:10024000201A01D1002CF6D130BD000070B50F4D41
:1002500000B92868002412E00A4602E09E4203D05A
:10026000521C1378002BF9D1DAB2224305D02BB1FE
:1002700024B1002100F8011B04E00446401C06786C
:10028000002EE9D12860204670BD00008C040020BB
:10029000F0B480EA0102D40F4200B2EB410F02D267
:1002A0000246084611464A0042D0C30DDDB2C1F3F2
:1002B000C752AD1A202D35DAC1F3160141F4000200
:1002C00004B15242C5F1200602FA06F12A41104457
:1002D000B3EBD05F23D0C4B1012DA0EBC35009DC38
:1002E000F0BC4FF0004202EAC352DBB200F500005E
:1002F00000F0EABA400000F1807000EBC350A0F1BA
:10030000807040EAD170490009E0490841EAC071B3
:10031000A0EBC35000F50000400800EBC350F0BC58
:1003200000F0C9BA6142012202EB4101001BF6E76D
:10033000F0BC704781F00041AAE780F00040A7E7D9
:1003400080EA010210B502F00043400022D04A00CA
:100350001FD0010E01EB1261C0F35600C2F356022A
:1003600040F4000042F40002A0FB022000047F39A8
:10037000140400D0401C50EA124001D44000491E31
:10038000C2B20C0604EBD010401C4008802A02D0F8
:1003900003E0002010BD20F00100002900DA002059
:1003A000184310BD420005D0C0F3C75252429142DB
:1003B00001DC0020704700EBC15070472DE9FE4F73
:1003C000804681EA0300C00F0C46009021F00041F6
:1003D00023F00045B8EB0200A94105D24046214672
:1003E00090461C460B46024623F00040104347D07F
:1003F000270DC7F30A00C3F30A510290401A019077
:1004000040286BDAC3F3130040F4801B0098924637
:1004100020B10023D2EB030A63EB0B0B0198594682
:10042000C0F140025046FFF79FFE06460D4650467B
:100430005946019A00F02DFA10EB080061410024A2
:1004400087EA115284EAE7731A4340D0009A62B3F4
:10045000019A012A4FEA075215DC001B61EB0201E9
:100460004FF0004202EA0752CDE90042001C41F57C
:10047000801132462B4600F064FA03B0BDE8F08FDD
:1004800040462146F9E7001B61EB0201001C41F5E3
:10049000801300185B412018A2F5001747EB0301F9
:1004A00040EAD570B6196D4111E06D084FEA360685
:1004B00045EAC0754FEA0752001B61EB0201001CC0
:1004C00041F5801149084FEA300000195141324688
:1004D0002B4603B0BDE8F04F00F024BA009801228B
:1004E00040000023D0EB020263EBE073009821464A
:1004F0004FEAE074B8EB000061EB0401E9E783F038
:1005000000435BE781F0004158E72DE9FE4F81EAA7
:10051000030404F0004421F0004100944FF0000B6C
:1005200023F0004350EA01045ED052EA03045BD09A
:10053000C3F30A54C1F30A552C44A4F2F3340194D2
:10054000A0FB0254C1F3130141F48011C3F3130360
:1005500043F4801301FB024400FB034E840A970A14
:1005600044EA815447EA8357A4FB076802958D0A41
:1005700005FB07854FEA932C04FB0C542705029DCD
:100580004FEA065847EA1637B5EB08056EEB070C3D
:10059000870E920E47EA811742EA8312A7FB0201F7
:1005A000B6EB0B0164EB00042B0D43EA0C335E1831
:1005B00044EB1C50DA465146E7FB0201C5F3130435
:1005C0004FEA0B3343EA14534FEA0432019C43EAE7
:1005D0000603A4F10C040294009CCDE900B400F0E1
:1005E000B0F903B0BDE8F08F00200146F9E72DE92E
:1005F000F04D81EA030404F0004B21F0004514465D
:100600004FF0000A23F0004150EA050220D054EADE
:1006100001021DD0C5F30A570246C5F31303C1F307
:100620001300C1F30A5640F4801543F48013A7EB7E
:100630000608101BD64608F2FD3873EB050002D3FE
:1006400008F1010801E092185B41B8F1000F03DAEC
:1006500000200146BDE8F08D00204FF480110646D1
:1006600084460EE0171B73EB050705D3121B63EBE3
:10067000050306434CEA010C49084FEA3000921882
:100680005B4150EA0107EDD152EA030012D082EA41
:10069000040083EA0501084305D0101BAB4106D2D4
:1006A0000122002306E000224FF0004302E06FF039
:1006B000010253101AEB06004CEB085110EB0A0034
:1006C00041EB0B01BDE8F04D00F02CB9C10F80EA01
:1006D000E0700844CA079623002100F0F5B896237D
:1006E0000022114600F0F0B80EB5C10F80EAE070AC
:1006F0000844CA07002140F233438DE80E000A4641
:100700000B4600F01EF903B000BD20F00040C10D03
:10071000C0F3160040F400007F2901DA0020704782
:10072000962903DCC1F19601C8407047963988408C
:10073000704770B5C1F30A5201F000450024C1F3BF
:10074000130140F2FF3341F480119A4201DA002094
:1007500070BD40F233439A42A2F2334203DC52426C
:1007600000F087F800E090402C43F1D0404270BD8B
:1007700000F0004230F000400AD0C10D01F5607178
:10078000C0F3160042EA0151C20840071143704706
:1007900000200146704701F0004330B421F00041D1
:1007A00050EA010206D00A0DA2F56072C1F31301EE
:1007B000002A02DC30BC00207047440F44EAC10428
:1007C000C100E01830BC00EBC25000F074B800006B
:1007D000002801DBC0F10040002901DBC1F100412C
:1007E0008842704730B50B46014600202022012484
:1007F00009E021FA02F59D4205D303FA02F5491BEF
:1008000004FA02F52844151EA2F10102F1DC30BD04
:100810002DE9F05F0546002092469B468846064635
:10082000814640241BE0284641464746224600F0C8
:1008300020F853465A46C01A914110D31146184623
:100840002246FFF791FC2D1A67EB01084F4622461E
:1008500001200021FFF788FC17EB00094E41201E04
:10086000A4F10104DFDC484631462A464346BDE890
:10087000F09F202A04DB203A21FA02F00021704781
:1008800021FA02F3D040C2F12002914008431946F8
:100890007047202A06DBCB17203A41FA02F043EAE0
:1008A000E07306E041FA02F3D040C2F12002914029
:1008B0000843194670470029A8BF7047401C4900EB
:1008C00008BF20F00100704710B4B0FA80FC00FAB5
:1008D0000CF050EA010404BF10BC704749B1CCF1E0
:1008E000200421FA04F411FA0CF118BF012121436C
:1008F0000843A3EB0C01CB1D4FEA00614FEA102027
:1009000042BF002010BC704700EBC35010440029C8
:10091000A4BF10BC7047401C490008BF20F0010074
:1009200010BC704710B5141E73F1000408DA401CA7
:1009300041F1000192185B411A4301D120F00100FE
:1009400010BD2DE9F04D92469B4611B1B1FA81F2EE
:1009500002E0B0FA80F220329046FFF705FC044630
:100960000F4640EA0A0041EA0B0153465A46084343
:1009700013D0114653EA010019D0C8F14002504685
:10098000FFF777FF05460E46504659464246FFF7A9
:10099000EBFB084305D0012004E020463946BDE8C2
:1009A000F08D0020054346EAE0762C4337430A9851
:1009B0006305E40AA0EB08000022FD0A44EA47545C
:1009C0000A3002D500200146E9E701051019694106
:1009D000DDE9084500196941BDE8F04DA2E7C1F322
:1009E0000A52C1F3130140F2FF3341F480119A42DD
:1009F00002DA00200146704740F233439A42A2F2E5
:100A0000334202DC5242FFF734BFFFF7ADBB0000B8
:100A100030B5041E71F1000404DB4FF00044404285
:100A200064EB0101141E73F1000405DB1C464FF05A
:100A30000043524263EB0403994208BF904230BD29
:100A4000064C074D06E0E06840F0010394E807001B
:100A500098471034AC42F6D3FFF76EFB58070108F5
:100A60007807010870B58C1810F8015B15F00703C2
:100A700001D110F8013B2A1106D110F8012B03E037
:100A800010F8016B01F8016B5B1EF9D12B0705D43F
:100A90000023521E0DD401F8013BFAE710F8013B88
:100AA000CB1A921C03E013F8015B01F8015B521EA4
:100AB000F9D5A142D8D3002070BD1CB5002403464F
:100AC0000094032201A96846019404F0D1FB9DF82B
:100AD00004009DF8062044EA8010C1B29DF805008C
:100AE00041EA900144EA8010C0B240EA92024FF617
:100AF000FF7000EA012010431CBD0000054840685B
:100B000018B1D0F8F40000B1004740F63D0000F005
:100B100035B800009C0100200346094810B5426822
:100B2000002432B1D2F884201AB118469047044606
:100B300003E040F6210000F021F8204610BD00003F
:100B40009C0100200549496819B1D1F8C41001B1D0
:100B5000084740F6310000F011B800009C01002069
:100B6000054B5B681BB1D3F8903003B1184740F6D2
:100B7000240000F003B800009C01002003494968EC
:100B800019B1D1F8F01001B10847FEE79C0100202F
:100B90000448406810B1406900B1004740F60500C4
:100BA000FFF7ECBF9C0100200246084810B54168E1
:100BB000002429B1896B19B110468847044603E027
:100BC00040F60E00FFF7DAFF204610BD9C01002022
:100BD0000449496811B1896C01B1084740F6120017
:100BE000FFF7CCBF9C010020054A0846526812B1AD
:100BF000126802B110474FF40060FFF7BFBF00005A
:100C00009C010020044B5B6813B1DB6C03B11847F7
:100C100040F61300FFF7B2BF9C01002003460948CD
:100C200010B54268002432B1D2F8A0201AB118469B
:100C30009047044603E040F62800FFF79FFF204658
:100C400010BD00009C010020044A526812B1526E8F
:100C500002B1104740F61900FFF790BF9C01002039
:100C600070B5264C0E460025A0F5C85120804A39A3
:100C700021D0012825D0A0F5C0513E391ED0B0F5B5
:100C8000C25F24D0DC2825D0A0F5C85146391BD03E
:100C9000A0F5C851483917D0A0F5C85150391CD01B
:100CA000A0F5C851523918D0F02819D0FA2817D019
:100CB000002060601FE002F05FFA13E002F058FAD3
:100CC00010E003F083FC0DE00DF075F80AE002F08F
:100CD00051FA07E004F060FD04E00DF06EF801E069
:100CE00004F05CFD606030B1D0F8441119B116B168
:100CF000304688470546284670BD00009C0100200C
:100D00000449496811B1896F01B1084740F61E00D6
:100D1000FFF734BF9C0100202DE9FE430124072585
:100D200021462046FFF79CFF00210120FFF75CFFD2
:100D3000DFF8748040F22329A8F5B066012120462F
:100D400000F05EF908F16C0107460EC98DE80E004F
:100D500008F1600090E80E00D8F85C000CF0E6FEA8
:100D6000E0B202F059FFC7B1002003F051FC04EBE0
:100D7000C40000EB041006EB8000C068FFF7F8FC2D
:100D8000CDE9000123464A46084909A00BF0E6FCDC
:100D9000641CAC42D2DDBDE8FE8304EBC40000EB72
:100DA000041006EB8000E0E7B40D00203B040108CE
:100DB0005B25733A2564235D4D5B25645D2D73705F
:100DC000656564A3BA202566200D0A0070B500246D
:100DD000052002F021FF42F6F82500212A460846A8
:100DE000FFF710FF062002F017FF00212A460846F1
:100DF000FFF708FF0020FFF783FF052002F00CFF3C
:100E00000020FFF77DFF062002F0DCF900B9012485
:100E1000042002F0D7F908B944F01004204670BD50
:100E200010B5A0B000236A4606E0CC1A044414F8BA
:100E3000014CD4545B1CDBB28B42F6D30A466946A4
:100E4000FFF7A1F920B010BDFEE7002070470000B9
:100E500010B50024FFF7F9FF00B1102400F01AF8D4
:100E600008B144F0010423464FF40472024903A080
:100E70000BF074FC204610BD660401085B25733A34
:100E80002564235D4335352043353220307825787D
:100E9000200D0A000020704730B501784278C378F1
:100EA000114482781A441144027911444279114460
:100EB00082791144C2791144027A1144427A114470
:100EC000827A1144C27A1144C9B20A22B1FBF2F308
:100ED00002FB13146423B1FBF3F503FB1515B5FBFB
:100EE000F2F2B1FBF3F1303430320473427330313B
:100EF000817330BD10B52D22024903A00BF02EFCEA
:100F0000002010BD730301085B25733A2564235D3F
:100F1000796F7520686176652063686F6F736520EF
:100F2000446566696E6520426F617264204F4B2094
:100F3000696E205B636F6E6669672E685D2E200D9B
:100F40000A0000003EB5054600F05AF80C4C04F1CA
:100F50006C025C3407CA8DE8070094E80F000CF0BF
:100F6000E5FDE8B202F058FE05EBC50000EB051008
:100F7000A4F2DC5101EB8000BDE83E4003F048BB29
:100F8000B40D002070B5002440F2DC550620641C2E
:100F900002F042FE00212A460846FFF733FE0020F9
:100FA000FFF7AEFE052002F00DF9002801D1022C5A
:100FB000ECDB70BD70B5002440F2DC550520641CEC
:100FC00002F02AFE00212A460846FFF71BFE0020F9
:100FD000FFF796FE032002F0F5F8002801D1022C5D
:100FE000ECDB70BD10B540F29E210348FFF7F2F82C
:100FF00002490020087010BDA4190020F80200204A
:101000002DE9F84F0022134600920826DFF8B4C1FC
:101010006D4CDFF8B8A1DFF8B891DFF8B8B1DFF8B0
:10102000B8E16E4F6E4D6F4A0F286FD2DFE800F0C7
:10103000C4081B324050525C717D8DA0A9B0B20033
:1010400001201070167168489060D060C2E9053CBC
:10105000002969D0012902D0022902D0AFE017612E
:10106000ADE062486FE00220107061481671C2E97D
:10107000053011B1012908D087E013715D489060F7
:10108000C2E9030A5C48906199E05C489060D060D6
:101090005B4858E003201070137197604FF07E504A
:1010A000D760C2E9053000297DD001297BD009E055
:1010B0000420107013719760D760C2E9053B99B3A3
:1010C000012902D002296ED079E0C2F810A076E0A2
:1010D000052000E00620107013719760C2F818B068
:1010E000D760C2E904A36AE0072010701371454875
:1010F0009760C2E90370C2E9050B21B1012902D052
:10110000022904D05BE0C2F810C058E054E03E4829
:1011100019E01670167195603A48D560C2E905303D
:1011200081B1012945D030E03DE0092010701671F1
:101130009560D560C2E9053CB9B3012902D0022906
:1011400034D03CE03148106139E00A20107016714B
:1011500097602748D760C2E9053021B1012905D041
:10116000022903D02BE0C2F818A022E0156126E086
:101170000B20107013719560C2F818B0D56091B152
:1011800093E70C2007E0012910D0022911D016E0C6
:101190000D2000E00E20107016719560D560C2E938
:1011A000053C0029EFD1146109E0FFE7C2F810E027
:1011B00005E0C2F8109002E04FF0FF300090009878
:1011C000BDE8F88F0000C84200007A4400004843A0
:1011D0000000FA440000A0410080BB4400409C4550
:1011E00000803B45100E002000606A460080BB4531
:1011F0000000F042000011440000904100803B4696
:1012000000C05A45000016430000FA43000048445D
:1012100010B50021022000F04BFA044C00212060A0
:10122000022000F059FA606010BD0000DC020020CE
:1012300010B50121022000F03BFA044C012120608E
:10124000022000F049FA606010BD00003C0300205D
:1012500010B5044600F0B8F92CB100F0EDF9BDE886
:10126000104000F06FB900F089F8F8E700207047EF
:10127000704700000148406807F010B8F8020020ED
:101280007047042000F0FABA082000F0F7BA000016
:1012900010B505A00BF062FA802000F0EFFABDE86F
:1012A0001040402000F0EABA45585449395F355F94
:1012B00049525148616E646C65720D0A000000006D
:1012C00030B5A3B04C208DF880004F208DF8810000
:1012D00046208DF882008DF883000D208DF8840063
:1012E0000A208DF8850000202290FFF791FF124C14
:1012F000062120A86268904764200CF0ADF82268AF
:1013000022A96846904700246D4606E02B5DDF2247
:101310000A490BA00BF022FA641C22988442F5DBE8
:10132000E222064909A00BF019FAE42203490AA0B7
:101330000BF014FA23B030BDDC020020AE0501082A
:101340005B25733A2564235D256300005B25733AB2
:101350002564235D0D0A00005B25733A2564235D37
:101360005343414E20454E440D0A00004FF41650A1
:101370000AF062BC4FF416500AF05EBCF0B50FA044
:10138000A5B007C820AB002683E847000E4F4FF4F6
:10139000FA740A217A6820A890470C4D04E0287856
:1013A00020B901200CF058F8641EF8D23A6823A93D
:1013B000684690472E7025B00020F0BD233939399A
:1013C00030303034303B0000D4020020A80100202F
:1013D0000EB508A10EC98DE80E0018B908A007C8FF
:1013E0008DE80700094A0A216846526890470020A4
:1013F0000EBD00002339393930303033323B000024
:101400002339393930303033313B0000D4020020E9
:101410002DE9F0411AA0A4B007C820AB4FF0000896
:1014200083E8070019A04FF4FA7406688021684623
:10143000CDF88C80FEF7CEFE154F0A2120A87A68E1
:101440009047144D04E0287820B901200CF004F8EE
:10145000641EF8D23A6823A96846904785F8008050
:1014600023980A2808D19DF80000F1B2884203D1E0
:10147000002024B0BDE8F0814FF0FF30F9E7000014
:101480002339393930303131363B0000210000003A
:10149000D4020020A80100202DE9F043804620A0BE
:1014A000A7B007C820AB4FF0000983E807001FA0D2
:1014B00023AB07C883E807001FA04FF4FA7406683F
:1014C00080216846CDF89890FEF784FE1B4D1C4F96
:1014D000B8F1000F4FF00A0101D020A800E023A8C6
:1014E0006A68904704E0387820B901200BF0B4FF17
:1014F000641EF8D22A6826A96846904787F80090AB
:1015000026980A2808D19DF80000F1B2884203D13C
:10151000002027B0BDE8F0834FF0FF30F9E700006E
:101520002339393930303033353B000023393939EC
:1015300030303033363B000021000000D402002060
:10154000A8010020F0B517A087B00068049016A08D
:1015500000260068154F00960396019602960590A6
:101560007A684FF4FA74042104A89047104D04E0FF
:10157000287820B901200BF06FFF641EF8D23A687A
:1015800003A9684690472E700398042806D10422C8
:10159000694605A8FEF74AFE002801D04FF0FF304B
:1015A00007B0F0BD252525255E5E5E5ED4020020D5
:1015B000A701002010B500F007F8FFF729FFBDE8EC
:1015C0001040FFF7BFBF0000F0B517A087B000685C
:1015D000049016A000260068154F00960396019609
:1015E000029605907A684FF4FA74042104A8904793
:1015F000104D04E0287820B901200BF02DFF641E67
:10160000F8D23A6803A9684690472E7003980428D8
:1016100006D10422694605A8FEF708FE002801D07D
:101620004FF0FF3007B0F0BD242424244040404058
:10163000D4020020A6010020F0B50FA0A5B007C875
:1016400020AB002683E847000E4F4FF4FA740A21BE
:101650007A6820A890470C4D04E0287820B9012032
:101660000BF0FAFE641EF8D23A6823A96846904748
:101670002E7025B00020F0BD233939393030303498
:10168000313B0000D4020020A801002010B502F078
:10169000AFF803F07DFD02F0CEF8BDE8104003F096
:1016A00091BD000001488068704700009C02002046
:1016B00010B504460AF0A2FF18B9022C03D0032C7F
:1016C00003D0002010BD024810BD024810BD00002C
:1016D00089BD0008F5BD000810B504460AF08EFF6C
:1016E00018B9022C03D0032C03D0002010BD0248EF
:1016F00010BD024810BD0000D5BD000829BE00087D
:1017000010B50F2000F060F80446102000F05CF8DF
:1017100044EA4004112000F057F844EA8004122003
:1017200000F052F844EAC000C0B210BD2DE9F0410B
:10173000A0B00F460646002480216846FEF74AFD09
:1017400001F0C6FE194D184A212168680AF0F0F927
:1017500000224FF4FA71686809F0F0F98046686871
:1017600007F066F8C0B910496868383106F0AEFF76
:101770000D4C804638340C4814F83F1F6A46383008
:1017800009F050FF20784400302C00DD3024224640
:1017900069463846FEF7F7FC3470FFF7EBFD20B0E2
:1017A0004046BDE8F081000018160020F802002035
:1017B00001480068704700005803002018220149C2
:1017C000FEF7E1BC9820002070B5054600240CF01F
:1017D000B3F80B490F2D06D0102D06D0112D06D0D1
:1017E000122D0AD105E0096804E0496802E0896821
:1017F00000E0C968884200DB0124204670BD00007B
:10180000B801002010B50CF097F8FEF76DFF044A00
:10181000044BFEF7ECFEBDE81040FEF78ABF000067
:101820005C8FC2F5285CEB3F70B50C4601461D4647
:1018300016460F2003F026FF2146102003F022FF5A
:101840003146112003F01EFF2946BDE870401220EA
:1018500003F018BF31B500F01DF9044600F01AF985
:101860000099001B8842F9D338BD082803D004280A
:1018700003D1FFF78DB9FFF741B97047044910B59F
:101880000A68024202D00860FFF7EFFF10BD0000B7
:10189000140401402DE9F84FDFF8BC91002309F151
:1018A000040A0AF1040B1C464FF00F080BF1040E5A
:1018B00001270A68A7403A40BA4272D1DFF89CC1BA
:1018C0004D68A5EB0C0665452BD00DDC032D34D0FF
:1018D00005DC35B3012D19D0022D2FD11BE0112DC0
:1018E00016D0122D2AD119E0B6F5881F19D006DCC2
:1018F000B6F5803F15D0B6F5801F1FD111E0B6F5C3
:10190000001F0ED0B6F5041F18D10AE0CB6815E011
:10191000CB681B1D12E0CB6808330FE0CB680C339B
:101920000CE08B682BB1012B4FF0080303D047610B
:1019300004E0042302E0076100E00023FF2A01D84D
:10194000064601E000F104064FEA840501D9A5F13D
:101950002005376808FA05FC27EA0C0703FA05F5A5
:1019600047EA050737604D68ED006ED53C4DAE691E
:1019700046F00106AE61AD6924F0030605F00105ED
:101980000095384D7719BE68A5072D0F08FA05FC9C
:1019900026EA0C06DFF8D0C0604503D14FF0000CFA
:1019A00025E052E0DFF8C4C0604502D14FF0010CE1
:1019B0001DE0DFF8BCC0604502D14FF0020C16E01C
:1019C000DFF8B0C0604502D14FF0030C0FE0DFF844
:1019D000A8C0604502D14FF0040C08E0DFF89CC0BD
:1019E000604502D14FF0050C01E04FF0060C0CFAF7
:1019F00005FC4CEA060CC7F808C04D68D9F8006031
:101A0000ED034D4601D5164300E096432E604D6828
:101A1000DAF80060AD03554601D5164300E0964361
:101A20002E604D68DBF80060ED025D4601D516437F
:101A300000E096432E604D68DEF80060AD0275460A
:101A400001D5164300E096432E60641C102CFFF471
:101A50002FAFBDE8F88F0000000401400000111016
:101A6000001002400000014000080140000C01404D
:101A7000001001400014014000180140001C01400A
:101A80008068084000D0012070470AB101617047AA
:101A90000904FBE7014800687047000004000020CB
:101AA00002480168491C01607047000004000020E2
:101AB000074810B5016841F010010160052000F0F1
:101AC00047F80F2000F006F800F015F8002010BDD0
:101AD0000020024010B5044600F00CF94FF47A7172
:101AE000B0FBF1F000F065FE00222146501E00F030
:101AF0000FF8002010BD704700F01F020121914037
:101B00004009800000F1E020C0F80011704700009B
:101B1000F0B40E4B1B68C3F30223C3F10704042C7B
:101B200000D904241D1D072D01D2002300E0DB1E77
:101B3000012606FA04F56D1E0D409D409E40761E5E
:101B4000164045EA0601F0BC01F067BF0CED00E06D
:101B5000064A00F0070110684FF6FF03184040EAFC
:101B60000120034908431060704700000CED00E0BD
:101B70000000FA052DE9F047DFF8688104460E46BB
:101B8000D8F8000000F00700B0420CD2D8F80010DE
:101B900021F007013143C8F80010D8F8000000F028
:101BA0000700B04273D120784F4F800705D5786881
:101BB000A16820F0F000084378602078C00755D075
:101BC0006068012201280CD0022828D0022393FA51
:101BD000A3F1B1FA81F141F02001490904D039683B
:101BE00003E04FF40033F2E7796A93FAA3F3B3FA10
:101BF00083F303F01F039A40114248D0796821F023
:101C0000030101437960FFF745FF0546606841F233
:101C1000883101280CD00228894615D022E04FF0E7
:101C20000073D4E7FFF736FF411B494501D916E0A1
:101C300089467868C0F381000128F3D116E0FFF7E8
:101C400029FF411B49450AD87868C0F38100022862
:101C5000F5D10BE0FFF71EFF411B494502D90320D8
:101C6000BDE8F087786810F00C0FF3D1D8F80010B9
:101C7000404601F00701B1420BD9016821F007018C
:101C800031430160006800F00700B04201D001203C
:101C9000E6E72078400705D57868E16820F4E06041
:101CA000084378602078000706D57868216920F419
:101CB000605040EAC100786000F052F87968F02284
:101CC00092FAA2F201F0F001B2FA82F2D140074A90
:101CD000515CC840064908600F20FFF7FBFE00205A
:101CE000BEE7000000200240001002409F030108F0
:101CF000000000200148006870470000000000203C
:101D000008480949006849684FF4E06292FAA2F273
:101D100001F4E061B2FA82F2D140044A515CC84059
:101D2000704700000000002000100240AF030108CF
:101D300008480949006849684FF4605292FAA2F2D3
:101D400001F46051B2FA82F2D140044A515CC840B9
:101D5000704700000000002000100240AF0301089F
:101D600010B519A085B00FC88DE80F001AA01B4B45
:101D70000068049059681A4801F00C02042A1DD02A
:101D8000082A1BD14FF4701494FAA4F401F47012D1
:101D9000B4FA84F4E240C9031DF8022010D5596852
:101DA0004FF4003393FAA3F301F40031B3FA83F351
:101DB000D94004AB595CB0FBF1F0504305B010BD05
:101DC00008485043FAE70000020304050607080923
:101DD0000A0B0C0D0E0F1010010200000010024043
:101DE00000127A0000093D002DE9F84F0446007802
:101DF000FE4EC0074FF001057FD070684FF40038E9
:101E0000C0F38100012807D07068C0F38100022868
:101E10001BD17068C00318D598FAA8F0B0FA80F00A
:101E200040F02000400901D0306800E0706A98FA64
:101E3000A8F1B1FA81F101F01F0105FA01F10842A0
:101E40005BD06068002879D057E06068B0F5803FCB
:101E50000BD010B1B0F5A02F11D0306820F4803035
:101E60003060306820F4802002E0306840F4803038
:101E70003060606818B3FFF70DFE074609E0306870
:101E800040F480203060F0E7FFF704FEC01B6428B8
:101E900070D898FAA8F0B0FA80F040F0200040091D
:101EA00001D0306800E0706A98FAA8F1B1FA81F1C7
:101EB00001F01F0105FA01F10842E5D01DE0FFF72E
:101EC000E9FD074604E0FFF7E5FDC01B6428DFD805
:101ED00098FAA8F0B0FA80F040F02000400901D054
:101EE000306800E0706A98FAA8F1B1FA81F101F067
:101EF0001F0105FA01F10842E5D12078DFF8F082F0
:101F000080074FF0000A4FF002075AD570684FF073
:101F1000F80B10F00C0F07D07068C0F38100022896
:101F20001CD17068C00319D497FAA7F0B0FA80F0FA
:101F300040F02000400902D0306801E08AE0706A79
:101F400097FAA7F1B1FA81F101F01F0105FA01F149
:101F500008422BD0206901287CD127E0206988B372
:101F600095FAA5F0B0FA80F048F82050FFF792FDFE
:101F7000814606E04DE1FFF78DFDA0EB0900022848
:101F800086D897FAA7F0B0FA80F040F02000400918
:101F900001D0306800E0706A97FAA7F1B1FA81F1D8
:101FA00001F01F0105FA01F10842E4D030689BFA04
:101FB000ABF220F0F8016069B2FA82F2904001437E
:101FC000316025E0FFE795FAA5F1B1FA81F148F813
:101FD00021A0FFF75FFD814605E0FFF75BFDA0EB69
:101FE00009000228CCD897FAA7F0B0FA80F040F0A8
:101FF0002000400901D0306800E0706A97FAA7F12C
:10200000B1FA81F101F01F0105FA01F10842E4D1B2
:10201000207800076DD5A069B8B395FAA5F0B0FA9D
:1020200080F008EB8000C0F88054FFF733FD814654
:1020300005E0FFF72FFDA0EB09000228A0D897FAD2
:10204000A7F0B0FA80F040F06000B5EB501F02D16D
:1020500030680CE063E197FAA7F0B0FA80F040F046
:102060006000B7EB501F01D1306A00E0706A97FA48
:10207000A7F1B1FA81F101F01F0105FA01F2104256
:10208000D7D00120FFF7E6FB33E0FFE795FAA5F193
:10209000B1FA81F108EB8101C1F880A4FFF7FAFCE5
:1020A000814605E0FFF7F6FCA0EB0900022899D86D
:1020B00097FAA7F0B0FA80F040F06000B5EB501F3F
:1020C00001D130680BE097FAA7F0B0FA80F040F049
:1020D0006000B7EB501F01D1306A00E0706A97FAD8
:1020E000A7F1B1FA81F101F01F0105FA01F21042E6
:1020F000D8D12078400763D5F06940F08050F06176
:10210000F069DFF8F0B000F080500090DBF80010CC
:1021100041F48071CBF80010FFF7BCFC814605E06C
:10212000FFF7B8FCA0EB0900642872D8DBF80000C8
:10213000C005F5D5E06801280AD008B1052813D0FC
:10214000306A20F001003062306A20F0040002E0C2
:10215000306A40F001003062E06841F2883B80B3B1
:10216000FFF798FC81460AE0306A40F004003062D4
:10217000EEE7FFF78FFCA0EB0901594549D897FA24
:10218000A7F0B0FA80F040F04000B5EB501F01D14D
:1021900030680BE097FAA7F0B0FA80F040F040000A
:1021A000B7EB501F01D1306A00E0706A97FAA7F1CF
:1021B000B1FA81F101F01F0205FA02F10842D8D00C
:1021C00033E0FFE7FFF766FC814605E0FFF762FCBE
:1021D000A0EB090159451CD897FAA7F0B0FA80F096
:1021E00040F04000B5EB501F08D105E00010024060
:1021F000000042420070004030680CE097FAA7F0FF
:10220000B0FA80F040F04000B7EB501F02D1306AC6
:1022100001E08AE0706A97FAA7F1B1FA81F101F062
:102220001F0205FA02F10842D0D1E06998B3716843
:10223000C1F38101022972D002284FF080714FF062
:10224000007B50460AD091FAA1F1B1FA81F148F829
:102250002100FFF71FFC04465F4669E08A4691FAB9
:10226000A1F1B1FA81F1C14648F82100FFF712FC53
:10227000A84607465D4604E0FFF70CFCC01B022899
:1022800053D895FAA5F0B0FA80F040F0200040094C
:1022900002D0306801E060E0706A95FAA5F1B1FA09
:1022A00081F101F01F0208FA02F10842E4D1206A2C
:1022B000B0F5803F05D17068A16820F40030084374
:1022C0007060D4E908010843716821F4741108436F
:1022D00070609AFAAAF0B0FA80F0474649F8208078
:1022E000FFF7D8FB044604E0FFF7D4FB001B0228ED
:1022F0001BD895FAA5F0B0FA80F040F02000400914
:1023000001D0306800E0706A95FAA5F1B1FA81F168
:1023100001F01F0107FA01F10842E5D01DE01EE0BF
:10232000FFF7B8FB001B022802D90320BDE8F88F95
:1023300097FAA7F0B0FA80F040F02000400901D0F1
:10234000306800E0706A97FAA7F1B1FA81F101F004
:102350001F0105FA01F10842E2D10020E6E7012061
:10236000E4E7000010B5040003D094F8510010B168
:1023700004E0012010BD204600F038F8022084F867
:1023800051002068016821F040010160D4E9010199
:102390000843D4E903121143084361690843218BC0
:1023A00001F400710843E1690843216A0843A16A06
:1023B000084321680860A069042101EA1040616AAD
:1023C0000843216848602168E06A08612068C169A3
:1023D00021F40061C161044900200870606501209A
:1023E00084F85100002010BD080000202DE9F041C4
:1023F000054600683649374C0226012786B08842D8
:1024000037D1A06940F00400A061A06900F0040089
:102410000490A06940F00400A061A06900F00400ED
:102420000490A06940F00400A061A06900F00400DD
:102430000490A06940F48050A061A069DFF8988002
:1024400000F4805004902020CDE900060020CDE962
:10245000020769464046FFF71DFA40200090694692
:102460004046FFF717FA8020009069464046FFF784
:1024700011FA1A492868884227D1A06940F008005B
:10248000A061A06900F008000490E06940F40040F9
:10249000E061E06900F400400490A06940F00100B0
:1024A000A061A06900F0010004900D48416821F08E
:1024B000E06141F00071416038208DE8C1000320E7
:1024C000039069460748FFF7E5F906B0BDE8F081DB
:1024D000003001400010024000080140003C004074
:1024E00000000140000C01402DE9F8430026DDF812
:1024F00020800446ADF8006090F85100012803D018
:1025000094F8510022287DD169B162B15BB194F891
:102510005000012876D0012784F8507094F85100BB
:10252000012803D005E00120BDE8F883322084F8BB
:1025300051006665A263A387E3872163A386E386D0
:10254000A664E664A06A4FF40055A84209D1206849
:10255000016821F4005101602068016841F40051D4
:10256000016020680168490603D4016841F0400118
:102570000160E0684FF48271B0F5006F606807D0C9
:10258000002867D088426ED1E08E012862D06AE0D0
:1025900020B188420CD1E08E012809D1206B21683E
:1025A0000088C860206B801C2063E08E401EE0869F
:1025B000E08E80B9A06AA84244D12068016841F445
:1025C000805101603EE02068C068A16B0880A06B6C
:1025D000801CA0639EE0434600220221204602F0B8
:1025E00060FE002874D1206B21680088C860206BD1
:1025F000801C2063E08E401E0004000CE08609D1A0
:10260000A06A00E0C7E0A84204D12068016841F454
:1026100080510160434600220121204602F041FE24
:1026200000286FD12068C068A16B0880A06B801C57
:10263000A063E08F401EE087E08E0028CBD1606869
:1026400000286AD1434600220121204602F029FEDB
:10265000F0BBB8E7206B411C216321680078C8609B
:10266000E08E401EE086E08E98B9A06AA84204D1B0
:102670002068016841F48051016043460022012135
:10268000204602F00EFE18BB2068C068A16B0870DF
:1026900040E0434600220221204602F002FEB8B983
:1026A000206B411C216321680078C860E08E401EC9
:1026B0000004000CE08607D1A06AA84204D120687B
:1026C000016841F48051016000224346012100E08D
:1026D00018E0204602F0E5FDA0B92068C168A06BB3
:1026E000421CA2630170E08F401EE087E08E00284C
:1026F000CFD1606888B9434600220121204602F00C
:10270000D0FD08B103200FE72068C168A06B421C10
:10271000A2630170E08F401EE087A06AA84210D13A
:10272000434600220121204602F0BBFD18B1606D36
:1027300040F002000FE02068C068ADF80000BDF86E
:102740000000434601228021204602F0AAFD20B16C
:10275000606D40F010006065D4E784F85170A06AA5
:10276000A84214D120688168C943C9060FD4616D9D
:1027700041F002016165016821F4005101602068A7
:10278000016841F40051016084F85060CBE684F8A0
:1027900050600020C8E60220C6E64FF0E021042881
:1027A000086903D020F004000861704740F004007D
:1027B000FAE710B5401EB0F1807F01D3012010BDB3
:1027C0004FF0E02460610F21601701F026F900202E
:1027D000A06107202061002010BD10B5040003D0C7
:1027E00094F8390010B107E0012010BD002084F8F2
:1027F0003800204600F00CF8022084F83900211D32
:10280000206803F037F8012084F83900002010BD5B
:1028100070470168CA6842F00102CA600068016836
:1028200041F00101016000207047000010B502680E
:10283000044631B1042908D0082920D00C2908D138
:1028400021E0D06840F0020002E0D06840F00400CF
:10285000D0600122206803F04FF80D4920688842BB
:1028600002D00C49884203D1416C41F400414164DB
:102870002068016841F001010160002010BDD068AE
:1028800040F00800E4E7D06840F01000E0E7000006
:10289000002C01400034014010B50268044631B1FB
:1028A000042908D008292FD00C2908D130E0D0689D
:1028B00020F0020002E0D06820F00400D060002286
:1028C000206803F019F8144841F21112216893109E
:1028D000814202D01148814209D1086A104206D1D2
:1028E000086A184203D1486C20F40040486420680C
:1028F000016A114206D1016A194203D1016821F02F
:1029000001010160002010BDD06820F00800D5E76B
:10291000D06820F01000D1E7002C014000340140C5
:10292000704790F83900704738B504460068016870
:10293000C268C1F3000102F4807221B11AB1E16BE7
:1029400041F00101E1630168C1F34002416901F016
:10295000010122B119B1E26B42F00402E2630268A4
:10296000C2F3800222B119B1E26B42F00202E263CB
:102970000268C2F3C00222B119B1E16B41F0080153
:10298000E1630168C068C1F3401100F0200019B193
:1029900010B1204609F0A6FB20680168C068C1F3A9
:1029A000C01100F0800019B110B1204609F0A6FC5A
:1029B00021680868CA68C0F3801002F0400201254F
:1029C00068B162B1CA68204622F04002CA6094F839
:1029D0003910322910D080F8395000F0B1F9E06B8D
:1029E000002808D0206801684068009084F83950B9
:1029F0002046FFF795FF38BD222180F83910ECE71B
:102A000070B5040004D094F83900002510B106E038
:102A1000012070BD84F83850204600F021F80220D3
:102A200084F839002068C16821F40051C160204653
:102A300009F0ACFB2068016921F490410161206834
:102A4000416921F02A0141612068C16841F40051C7
:102A5000C160E563012084F83900002070BD0000EA
:102A600010B500681E4986B0884236D11D4881697C
:102A700041F004018161816901F0040104918169DF
:102A800041F480418161816901F48041049181694F
:102A900041F0010181618069134C00F00100049054
:102AA0004FF400700090022001900120029003205A
:102AB000039069462046FEF7EDFE211500910021A6
:102AC000019169462046FEF7E5FE2520FFF714F840
:102AD000032211462520FFF71BF806B010BD0000A9
:102AE0000038014000100240000801402DE9F04785
:102AF000044690F8390099460D46012801D0122865
:102B000057D125B31AB394F83800012851D00126C3
:102B100084F838600027E76394F83900122819D048
:102B2000222084F83900A285E2854FF48058E08D98
:102B30004B46401EE085A0684FF0000240454FF034
:102B40002001204616D109F00CFCB0B904E00120A8
:102B5000BDE8F0873220E4E720690028206840685B
:102B600003D0C1B225F8011B12E0C0F3080125F81B
:102B7000021B0DE009F0F5FB08B10320E8E720692E
:102B800000282068406801D000F07F0005F8010BA4
:102B9000E08D0028CBD194F83900322805D084F894
:102BA000396084F838700020D2E7122084F83900A8
:102BB000F7E70220CCE790F83930012B01D0122B37
:102BC0002BD131B32AB390F83830012B25D0012313
:102BD00080F8383081628285C2850021C16390F817
:102BE0003920122A17D0222280F8392080F8381094
:102BF0000168CA6842F48072CA6001684A6942F09A
:102C000001024A610068C16841F02001C1600020F2
:102C10007047012070473222E6E70220704700002B
:102C200030B50068114988420CD1114A508801041E
:102C300008D41146440409784FF0000306D50A2948
:102C400001D0538030BD40F400400DE00D2909D083
:102C5000C0F30D04074D401C80B229555080C72891
:102C6000EFD830BD40F48040508030BD0038014086
:102C700010000020980400202DE9F047044690F849
:102C8000390099460D46012801D0222856D125B396
:102C90001AB394F83800012850D0012684F838601F
:102CA0000027E76394F83900222819D0122084F80D
:102CB0003900A284E2844FF48058E08C4B46401ED9
:102CC000E084A0684FF0000240454FF080012046AC
:102CD00013D109F046FB08BB04E00120BDE8F087F2
:102CE0003220E4E728882168C0F3080048602069A2
:102CF00008B16D1C08E0AD1C06E009F032FB68B9B4
:102D0000216815F8010B4860E08C0028D5D14B46AE
:102D100000224021204609F024FB08B10320DDE712
:102D200094F83900322805D084F8396084F8387076
:102D30000020D3E7222084F83900F7E70220CDE70E
:102D40007047FEE710B500F0BFFBFEF761FAFEF733
:102D5000B7FABDE81040FEF709BB000010B53522F8
:102D6000134914A009F0FAFC09F022FC00F08EFBD4
:102D700009F0CAFC00F00AFBFDF7CEFF4FF4E1308A
:102D800009F02AF954220A4913A009F0E7FC0020AF
:102D900002F014FB16480068016801208847582398
:102DA000BDE810401A46024912A009F0D7BC000045
:102DB0008D0301085B25733A2564235D737461728A
:102DC0007420496E69745F426F6172645F436F6E15
:102DD0006669672E200D0A005B25733A2564235D22
:102DE000696E6974207363616E2E200D0A00000005
:102DF000E40200205B25733A2564235D5B43616D2B
:102E0000656C5D2C70726F746F636F6C2073697A80
:102E1000653A25640D0A0000F7B5464C84B01646A5
:102E200060780F4610B1002007B0F0BD0125657035
:102E300040F6FF70ADF8080000F04AFB3E486060C5
:102E400034223E493EA009F089FC42A1606808F0A6
:102E50001BFC03463822394941A009F07FFC364863
:102E60000221183805704170A060A170606805F0FB
:102E7000DFF903464122314940A009F06FFC019778
:102E800001AA2521606808F053FE01AA2521606887
:102E900008F018FE482229493FA0019B09F05EFC7A
:102EA000019601AA2621606808F042FE01AA2621A7
:102EB000606808F007FE4F22204940A0019B09F0FE
:102EC0004DFC04AA3721606808F032FE04AA3721BD
:102ED000606808F0F7FD9DF810305522174940A0B2
:102EE00009F03CFCD4E901010AF07AFE03465A22BB
:102EF000124943A009F032FC60685C220F49037854
:102F000048A009F02BFC60680178022903D102AACD
:102F1000532108F00DFE4FF47A7000900523A1783C
:102F20004648A26802F0F3FC0446FEF723FA204666
:102F30007AE70000F8020020A8100020C805010868
:102F40005B25733A2564235D73746172742E200DC2
:102F50000A000000746D723A2F2F2F636F6D3100DD
:102F60005B25733A2564235D637265617465207225
:102F700065743A2564200D0A000000005B25733A51
:102F80002564235D636F6E6E656374207265743AA9
:102F90002564200D0A0000005B25733A2564235D3B
:102FA0002A2A2A2A2A2A2A2052656164506F7765C4
:102FB0007264626D3A2564200D0A00005B25733A45
:102FC0002564235D2A2A2A2A2A2A2A20577269740C
:102FD00065506F77657264626D3A2564200D0A0052
:102FE0005B25733A2564235D2A2A2A2A2A2A2A2065
:102FF000726567696F6E3A2564200D0A0000000053
:103000005B25733A2564235D2A2A2A2A2A2A2A2044
:1030100067616E74656E6E614C6973743A256420E5
:103020000D0A00005B25733A2564235D72656164B7
:1030300020747970653A2564200D0A001816002066
:1030400070B5054600210220FEF732FB094C002135
:1030500020600220FEF740FB60600020FEF7B8F918
:10306000FEF7A8FA02F08DFB2846BDE87040FEF797
:10307000EFB80000D402002018B500F52D7490F8C8
:10308000AC12002201230520182913D0192911D0D0
:10309000202913D030291CD0FF218DF800108DF885
:1030A00001108DF802108DF80310694620460DF0CE
:1030B00045F918BD8DF8003023210DE08DF8003062
:1030C0000B208DF801008DF8022014208DF80300EC
:1030D000EBE78DF8003009218DF801108DF8022002
:1030E000F4E738B500F52D7290F8AC1201200723F3
:1030F000182919D0192917D00024022520291ED0FB
:10310000302923D0FF208DF800008DF801008DF8C4
:1031100002008DF8030000216B46505C5C5CA0420D
:103120001DD24FF0000038BD8DF800004FF0210196
:103130008DF801108DF802008DF80330EBE78DF863
:1031400000004FF009008DF8010003E08DF8000049
:103150008DF801308DF802408DF80350DBE704D87C
:1031600001F1010189B20429D7D3012038BD70478C
:1031700000207047002070470020704770B5002481
:10318000032000F049FD002145F6D8120846FDF75E
:1031900039FD4FF448750320641C00F013F808B1A2
:1031A000AC420ADB0020FDF713FD0020FDF7A8FD6F
:1031B000BDE87040032000F005B80A200AF04CF981
:1031C000E9E70000F0B4054602201F4A1F4E204BDD
:1031D0008102204C112D34D2DFE805F033090C0EAA
:1031E0001113171A151D2022252F272A2D004FF401
:1031F000004122E0012100E0022130461EE0802152
:1032000001E04FF48071184618E04FF40071FAE7BE
:103210004FF48061F7E720210F480FE0012100E023
:10322000022120460AE00421FBE74FF4805104E02C
:103230004FF4005101E04FF480411046F0BCFEF71E
:103240001FBCF0BC70470000001C01400020014082
:1032500000180140000C0140001001402DE9F04130
:10326000444C0020444D2080A0704FF4004128467B
:10327000FEF706FC2178414E0843207001213046BC
:10328000FEF7FEFB217841EA400020700221304623
:10329000FEF7F6FB21783A4F41EA8000207080214A
:1032A0003846FEF7EDFB217841EAC0002070A915F1
:1032B0003846FEF7E5FB217841EA001020706915D9
:1032C0003846FEF7DDFB217841EA401020702915D1
:1032D0003846FEF7D5FB2178EE1441EA80102070C5
:1032E00031463846FEF7CCFB217841EAC010207009
:1032F00020212448FEF7C4FB6178234F0843607007
:1033000001213846FEF7BCFB617841EA400060705D
:1033100002213846FEF7B4FB617841EA8000607014
:1033200004213846FEF7ACFB617841EAC0006070CA
:1033300031462846FEF7A4FB617841EA0010607030
:10334000A9142846FEF79CFB617841EA40106070A2
:1033500069142846FEF794FB617841EA801060709A
:10336000F1002846FEF78CFB617841EAC0106070DE
:10337000BDE8F081B2010020001C014000200140A6
:103380000018014000100140000C0140F0B5304829
:1033900085B0816941F480718161816901F4807136
:1033A0000491816941F040018161816901F040012E
:1033B0000491816941F080018161816901F080019E
:1033C0000491816941F010018161816901F010016E
:1033D0000491816941F0080181618069032400F052
:1033E0000800049007200025022603948DE8610060
:1033F00069461848FEF74EFA202003948DE86100D4
:1034000069461548FEF746FA4FF4786003948DE854
:10341000610069461148FEF73DFA4FF438400394C5
:103420008DE861000E4F69463846FEF733FA7003A7
:1034300003948DE8610069463846FEF72BFA8DE863
:103440007000694607480394FEF724FA05B0F0BD02
:1034500000100240000C0140001001400018014023
:10346000001C01400020014070B5074D0421284692
:10347000FEF706FB044608212846FEF701FB44EA56
:103480004000C0B270BD0000001801400C4800B5FB
:10349000816985B041F0400181618069694600F031
:1034A000400004900C200090002001900120029028
:1034B000032003900348FEF7EDF905B000BD0000BE
:1034C00000100240001801404FF4165008F008BCEC
:1034D0004FF4E13008F0B0BB01EB410202EB811187
:1034E000024A11444322FCF74EBE0000A4190020FA
:1034F00010B5044600F066F810B10021217010BD2F
:1035000001490978FAE70000F802002070B5F0B030
:103510000E460446FFF7DCFFADF8A4416896ADF80F
:10352000A64168AB00220321684608F054F8BDF8B4
:10353000A6010022C3B2032120A808F044F820A964
:103540006191022161F30F0560A8CDF880D1CDE92A
:1035500042056CA86A901020ADF8AC013B210848E8
:1035600000228DF80011ADF8AE216AAB40A9406889
:1035700004F032FF0446FDF7FDFE70B0204670BD3A
:10358000F802002030B5B3B00C460546FFF7A0FFA7
:103590008DF8BF402246294620A8FCF7F4FD20A95B
:1035A000684608F023F8064800231A466946406832
:1035B00004F012FF0446FDF7DDFE33B0204630BDB7
:1035C000F80200202DE9F043C1B00024FFF780FF8E
:1035D000484F474A2121786808F0AAFA03467A2220
:1035E000454946A009F0BAF87D2243494CA009F0AC
:1035F000B5F800224FF4FA71786807F09FFA034695
:1036000081223D494EA009F0A9F8786805F010F92B
:10361000814603468522384951A009F09FF8FDF7FD
:10362000E1FC334E383606F5557854E08B223249AA
:1036300055A009F093F82E497868383105F046F81E
:10364000814603468F222C4956A009F087F8284866
:1036500016F83F1F21AA383007F0E4FF30780090B9
:1036600021AB9322244957A009F078F8B6F86710E7
:10367000D6F8610001AA07F0D5FF01A80090B6F8BE
:10368000673097221C4954A009F068F804EB440005
:1036900000EB8410012208F8002016F83F29302A98
:1036A00000D9302200EB0805114985F83120681C4B
:1036B0003831FCF768FDB6F8A60058B1102800D9DB
:1036C0001020C2B285F8422005F13200D6F8A010D1
:1036D000FCF759FD641C786805F0AAF80028A5D00D
:1036E0003C70FDF747FE41B04846BDE8F08300005E
:1036F00018160020F8020020D80501085B25733A4F
:103700002564235D2A2A2A2A7265616420706C610F
:103710006E3A7265743A307825780D0A0000000020
:103720005B25733A2564235D2A2A2A2A2073746153
:10373000727420544D525F726561642E0D0A000050
:103740005B25733A2564235D2A2A2A2A2072656143
:10375000643A7265743A307825580D0A000000000A
:103760005B25733A2564235D2A2A2A2A20544D5268
:103770005F6861734D6F7265546167733A72657407
:103780003A307825580D0A005B25733A2564235D8D
:103790007374617274206E657874207461672E2072
:1037A0000D0A00005B25733A2564235D6765744E3E
:1037B0006578745461673A7265743A307825780D8B
:1037C0000A0000005B25733A2564235D4550433AA7
:1037D00025732025640000005B25733A2564235D72
:1037E000202064617461282564293A2025730A0029
:1037F00010B50220FFF7E6FC4FF4FA6420B9224628
:103800000021042000F0E0F80120FFF7DBFC20B9E4
:1038100022460021032000F0D7F80F20FFF7D2FC4A
:10382000002807D10021BDE8104042F210720120AB
:1038300000F0CAB810BD10B50720FFF7C3FC002880
:1038400007D10021BDE810404FF41672072000F0A8
:10385000BBB810BD30B597B0144600250391512276
:103860001695CDE9012016AA5821684600F024F8E3
:10387000002805D1169828B19DF80C000299216006
:1038800017B030BD01202560FAE700B597B00022DF
:10389000169203915222CDE9012016AA58216846BA
:1038A00000F00AF8002803D1169818B19DF8080016
:1038B00017B000BD0120FBE72DE9F0410F4692B0A3
:1038C0009046044600F1100100266425482268460F
:1038D000FCF759FC94E80F0009F046FC0D2184F830
:1038E00054100A2184F85510AA212170DD2161703D
:1038F00084F85000000A84F851003946204608F048
:10390000E1FB0D4F386830B14146204608F0C0FB5E
:10391000002038600BE06D1E03D0052009F09CFDEF
:10392000F0E701261E22054905A008F017FF12B096
:103930003046BDE8F0810000540300201406010861
:103940005B4552524F522025733A2564235D7472B1
:10395000616E73666572206572726F722021200D30
:103960000A000000FEE7000070B5002401210220DB
:10397000FDF7E8FA022000F04FF94EF660252A46DE
:1039800001210020FDF73EF90020FDF7B9F90021E3
:103990002A460846FDF736F90020FDF7B1F9641C08
:1039A000042CECDBBDE870400122024B0F211046D5
:1039B00001F0AEBBC027090000221021014B0120FD
:1039C00001F0A6BBC027090070B515460E46044697
:1039D00003462022084909A008F0C0FE204600F056
:1039E0001BF92A4631460020FDF70CF9BDE870406E
:1039F0000020FDF785B90000520401085B25733AE9
:103A00002564235D6D6F746F72206D6F76653A2546
:103A100064200D0A0000000070470907090E002805
:103A200006DA00F00F0000F1E02080F8141D704766
:103A300000F1E02080F800147047000004490020E5
:103A40000246086008214FF4FA53042001F060BBDD
:103A50009002002010B500210420FDF773FA4FF406
:103A6000FA5300220521042001F052FB0121BDE898
:103A700010400420FDF766BA10B54FF4966200219D
:103A80000420FFF7A1FF4FF4FA530022082104207D
:103A900001F03EFB074C2068022806D0072804D01E
:103AA000C82200210420FFF78FFF2068401C2060FF
:103AB00010BD00009002002010B54FF448720021A4
:103AC0000420FFF781FF41F28833002209210420FE
:103AD00001F01EFBC8220021BDE810400420FFF7C2
:103AE00073BF00002DE9FF4F4FF0000A89B064203A
:103AF0008B4602FB00F49946564655465146022035
:103B0000CDF820A0FDF7D4FD2C4F00213860022015
:103B1000FDF7E2FD78604FF4CD72294929A008F045
:103B20001DFE01F001FE1E212C48FCF753FB202155
:103B30006846FCF74FFBDFF8A88022E098F8000009
:103B4000E0B140F2A1121E4926A008F007FE3A6833
:103B500008A92248904788F80060B9F1000F12D0F8
:103B6000089AAA4204D11D496846FCF75FFB50B190
:103B70001A496846089AFCF706FB089D0A2009F0D6
:103B80006BFC641EDAD2089A052A06DD921E1349E0
:103B900008920998FCF7F7FA02E0089601F0F1FDA7
:103BA0000899CBF800104FF4DB72054913A008F018
:103BB000D5FD0DB05046BDE8F08F0000D4020020C6
:103BC000380501085B25733A2564235D73746172BF
:103BD00074207363616E2E200D0A00006C100020AB
:103BE000A50100205B25733A2564235D7363616E34
:103BF0006E696E67202E2E2E200D0A005B25733A0B
:103C00002564235D73746F70207363616E2E200DC5
:103C10000A00000070470000F0B5214A214B5614FD
:103C20001515214C21494FF48047082826D2DFE89A
:103C300000F025040A11161A212F1D4888608015EE
:103C400088810A6004E080208A60888110200A60F0
:103C5000888013E008208A6088810B6008E08B6010
:103C60008E810B6009E04FF400708B6088810C60DE
:103C70008F8003E08C608E810C608D800D488A6897
:103C800042608A8902800A68826089884180F0BD2A
:103C900009484FF4004288608A8108608014D7E7A1
:103CA0000020014000140140000C0140B805002034
:103CB00000100140900100200018014010B5FCF7F1
:103CC0000EFDBDE810400149FCF73ABBA5D46841A0
:103CD00010B50549FCF734FB4FF07C51FCF7D8FADE
:103CE000FCF713FD80B210BDCCBC8C3D014988604F
:103CF000704700001800002001490861704700006B
:103D0000180000200149C86070470000180000201A
:103D100010B50549FCF714FB4FF07C51FCF7B8FADD
:103D2000FCF7F3FCC0B210BD00601F4410B5FCF7F7
:103D3000D6FCBDE810400149FCF702BB679ACD3ABA
:103D400008210148FDF79CBE00140140FDF782BD2B
:103D500072B6704762B6704704210148FDF790BE05
:103D6000001401402DE9F04F85B000287DD179483D
:103D7000816941F480718161816901F480710491EC
:103D8000816941F080018161816901F080010491C4
:103D9000816941F040018161816901F04001049134
:103DA000816941F020018161816901F02001049164
:103DB000816941F010018161816901F01001049174
:103DC000816941F004018161816901F0040104917C
:103DD000816941F00801816180694FF48077012495
:103DE0000025009700F00800CDE90145CDE903402A
:103DF000594E69463046FDF74DFD012239463046A1
:103E0000FDF743FE80208DE83100DFF850B16946B0
:103E100058460394FDF73EFD012280215846FDF7E8
:103E200034FE08208DE83100694658460394FDF7BA
:103E300031FD012208215846FDF727FE4848416818
:103E400021F0E06141F000714160461402200096CB
:103E5000CDE90140DFF80CA1694650460394FDF717
:103E600019FD01223146504600E06FE0FDF70DFEDE
:103E70004FF40078CDF80080CDE901456946504601
:103E80000394FDF707FD012241465046FDF7FDFD75
:103E90000096DFF8D490CDE9014569464846039481
:103EA000FDF7F8FC012231464846FDF7EEFDE6033A
:103EB0000096DFF8B880CDE9014569464046039495
:103EC000FDF7E8FC012231464046FDF7DEFD009794
:103ED000CDE90145694658460394FDF7DBFC102007
:103EE0008DE83100694658460394FDF7D3FCA703DB
:103EF0000097CDE90145694650460394FDF7CAFC99
:103F0000A6020096CDE90145694650460394FDF7A7
:103F1000C1FC0097CDE90145694648460394FDF789
:103F2000B9FC0096CDE90145694648460394FDF782
:103F3000B1FC20038DE83100694640460394FDF74B
:103F4000A9FC00F01DF82046FDF784FC05B0BDE893
:103F5000F08F0000001002400010014000200140DE
:103F60000000014000140140000C01400018014015
:103F70000248012241888068FDF787BD900100203A
:103F800070B5154C012211022046FDF77EFD01227D
:103F900010212046FDF779FD0122104E94032146A1
:103FA0003046FDF772FD0122950229463046FDF7A5
:103FB0006CFD21460A4C01222046FDF766FD0122D8
:103FC00029462046FDF761FDBDE87040012211033E
:103FD0000448FDF75ABD00000020014000140140D4
:103FE000000C01400018014002480022418880680E
:103FF000FDF74BBD900100200D480C4901220160E6
:104000002021C161426100218160022202610722F8
:10401000C0E90A12C1604FF400720162826141621C
:104020004FF482714160FEF79DB9000000300140FD
:10403000C80500202DE9F84FDFF8509090460D4656
:1040400006460022B9F80010D9F80400FDF71DFD5E
:1040500000244FF4805A0CE001232A4631460C48D4
:10406000CDF800A0FEF740FA070004D1641C6D1CD7
:10407000761C4445F0D30122B9F80010D9F80400A9
:10408000FDF703FD3846BDE8F88F000090010020E1
:10409000C805002010B50446FDF762FEA101B0FB83
:1040A000F1F00749401E0A68D062C86009684008FC
:1040B0008863BDE8104004210148FEF7B7BB00004B
:1040C0002006002004210148FEF7E6BB2006002060
:1040D00010B5054CA068002804D00121617080470C
:1040E0000020607010BD00001800002010B5FFF720
:1040F00027FE08B1002010BD012010BD10B5FFF74C
:104100002BFE08B1002010BD012010BD2DE9F05F8D
:104110003C4A8A460024917881426FD99178DFF831
:10412000E8B0081A401EC4B20AF0FF01002041F0B6
:10413000200590460BF10C090027464688F80070D0
:1041400008B1FFF707FEB04600205E460CE03118CC
:104150003754CF708F714F7209F8007009EB00016E
:10416000401CCF708F714F7298F802108842EED3C6
:104170005046BAF1070F2AD008DCBAF1070F15D262
:10418000DFE80AF0142225222225250018281ED057
:1041900007DC08281BD00D2819D0BAF1150F05D15E
:1041A00015E01A2813D0BAF11B0F10D030190127CF
:1041B0008571FFF7CDFD98F8001001200029BBD1D3
:1041C000C7F103054F460DE035550327F1E73019D8
:1041D0000227C570EDE705EB4500C119304400F03A
:1041E000F1FE6D1C042DF6D33919C8788A790004C4
:1041F00040EA0224487A0443FFF7ACFD2046BDE8BC
:10420000F09F000018000020A00500202DE9F041DB
:10421000234C0025A17881423ED9A178214F081A6C
:10422000401EC5B20020804607F10C0684F80080CD
:1042300008B1FFF78FFD002012E0391807F8008061
:1042400081F8038081F8068081F8098006F80080F3
:104250003118401C81F8038081F8068081F80980BC
:10426000A1788842E9D3D0207855FFF771FD2178F5
:1042700001200029DAD1002404EB440081193844DC
:1042800000F0A0FE641C032CF6D370198179C0786D
:1042900041EA0025FFF75EFD2846BDE8F0810000F9
:1042A00018000020A00500200022702100F0B4BA00
:1042B0000022782100F0B0BA0A46602100F0ACBAC2
:1042C00041F0680100F0A8BA114341F082011A469A
:1042D00000F0A2BA0022A82100F09EBA0022B82164
:1042E00000F09ABA41F0400100F096BA002211465F
:1042F00000F092BA114341F09201002200F08CBA12
:104300000022C02100F088BA0022D82100F084BA2F
:1043100041F0500100F080BA2DE9F05F8B4638493A
:1043200016468A78824268D98A78DFF8D8A0101AAF
:10433000401EC4B20020C6F307280BF0FF058946D3
:10434000002789F8007008B1FFF704FD00205246ED
:1043500005E017541118401CCF708F714F7299F8F7
:1043600002108842F5D35846BBF1070F32D008DC63
:10437000BBF1070F13D2DFE80BF012252D25122D0C
:104380002D00152826D005DC082823D0BBF10D0F01
:1043900005D11FE018281DD0BBF11A0F1AD0101933
:1043A000012785710AEB04004672FFF7D1FC99F8EA
:1043B000001001200029C3D1124EC7F10304554655
:1043C0000C3614E0310C10191555C17080F80680B8
:1043D0000327E7E710190227C57080F80680E1E798
:1043E00004EB44008119284400F0ECFD641C042C0B
:1043F000F6D3BDE8F05FFFF7ADBCBDE8F09F00006D
:1044000018000020A00500200022A02100F004BA1E
:104410000022B02100F000BA41F05801002200F063
:10442000FBB9810204D5C043401CC0F315004042D3
:10443000704700000249096901B10847FEE7000022
:104440001800002010B5FCF74AF90449FBF720FFDB
:10445000BDE810400249FBF773BF000077BE7F3F05
:104460000024744110B50349FBF76AFFFCF74DF9CE
:1044700080B210BDBD37863D70B50020104D01469D
:1044800005F10C06D0230F4C0BE02A182B54D170E9
:104490009171517231543218401CD1709171517226
:1044A000C0B2A2789042F0D3002404EB44008119FA
:1044B000284400F087FD641CE4B2032CF5D370BDE2
:1044C000A00500201800002010B5054CE068002869
:1044D00004D00121617080470020607010BD000091
:1044E0001800002070B50D4606461621FFF70EFE97
:1044F00040F3C00429463046641CFFF707FE162D22
:104500003FD2DFE805F03E0B3E0B13101016192CBE
:104510002C2C2C23333535263E29291EFFF781FF0D
:10452000FCF7D4F82AE0FFF7C9FB27E000F0C6FC4F
:1045300024E000F0D5F821E0C0F30B0000F0E8F82B
:104540001CE0C0F30900FFF77DFF17E000F072F8F0
:1045500014E000F0A0F811E000F0BAFC0EE014B195
:1045600000F0B4F80AE000F005FD07E03CB100E01F
:1045700014B1FFF7DBFB01E000F0CEFC064630464D
:1045800070BDFCF7ACF8F9E7084A014600209378C3
:104590008B4209D99078401A401E0549C0B20844A0
:1045A0008179C07841EA002070470000180000209F
:1045B000AC050020004870470005010010B503213C
:1045C000FFF7A4FDBDE81040FFF72BBF0048704780
:1045D0002C0000200148807870470000180000205F
:1045E00010B50121FFF792FDBDE81040FFF719BF9C
:1045F000064810B50079FFF7B5FBFFF7FDFCFFF7A4
:10460000BFFCBDE810401420FFF7A0BB180000203D
:1046100010B550B10146002000F048FA0020FFF725
:1046200059FEBDE81040FFF727BF002000F076FBE1
:10463000F4E7000010B5FCF752F8BDE8104001495E
:10464000FBF77EBED923743D10B50549FBF778FE14
:104650004FF07C51FBF71CFEFCF757F880B210BD01
:10466000BD37864110B5FFF7D1FD800701D4012089
:1046700010BD002010BD10B54FF07E51FBF75AFE63
:104680000521FBF78FFE4FF07C51FBF701FEFCF795
:104690003CF8C0B210BD10B5FCF721F86FF0040172
:1046A000FBF780FEBDE810404FF07E51FBF7F0BDF8
:1046B00010B50549FBF744FE4FF07C51FBF7E8FDD0
:1046C000FCF723F8C0B210BD0AD7234010B5FCF7A1
:1046D00006F8BDE810400149FBF732BE0000C83EB5
:1046E00010B5FBF7FCFFBDE810400149FBF728BE01
:1046F0000024744110B50549FBF722FE4FF07C51B0
:10470000FBF7C6FDFCF701F880B210BDBD37863D52
:1047100010B5FBF7E4FFBDE810400149FBF710BE00
:104720000024743E10B50549FBF70AFE4FF07C519A
:10473000FBF7AEFDFBF7E9FF80B210BDBD37864049
:10474000144B10B59C7884421AD99B78124C181AD5
:10475000401EC3B201F0FA00682812D006DC4028DF
:104760000FD050280DD0602804D10AE0822808D04C
:104770008A2806D00022E018E254C2708271417289
:1047800010BDE154E018110CC170110A8171427220
:1047900010BD000018000020A005002001488088FE
:1047A000704700001800002010B51B21FFF7AEFC79
:1047B00080B210BDFFF7DCBBFFF716BC70B5054635
:1047C000082927D2DFE801F00406080A0C0E1012AF
:1047D00000240CE001240AE0022408E0032406E09F
:1047E000042404E0052402E0062400E0072428460F
:1047F000FFF770FD16212846FFF788FC00F0F8024D
:10480000224316212846FFF787FD2846FFF77CFD47
:10481000012070BD002070BD2DE9F05F0E463049CB
:1048200014468A78824258D98A784FF00009101AC3
:10483000401EC5B24846CB468A46D84657468AF8F7
:1048400000B008B1FFF786FA4246B8460020254F6F
:1048500005E03A543918401CCA708A714A7298F8B7
:1048600002108842F5D306F0FA0068281CD006DC56
:1048700040281BD0502819D0602804D114E0822889
:1048800014D08A2812D078197A55C2708271467273
:10489000FFF75EFA98F8001001200029CDD1114DE4
:1048A000C9F103040C3512E0C4F3150478197E55E0
:1048B000210CC170210A817144724FF00309E7E7AE
:1048C00004EB44004119384400F07CFB641C042CC8
:1048D000F6D3BDE8F05FFFF73DBABDE8F09F0000FA
:1048E00018000020A005002070B5074D0024A5F198
:1048F0000C0604EB44004119304400F063FB641CD7
:10490000E4B2042CF5D370BDAC0500202DE9F041D4
:104910000E461546804601241621FFF7F7FB40F3AB
:10492000C000594A401C954204D3012E02D0032EE8
:1049300000D000245549162E22D2DFE806F02129A6
:104940000B29213D3D444B7D7D7D7D678B8E8E6E99
:10495000217777584E48854212DC15F0FF4F11D071
:1049600016210020FFF7D2FB00F00700C0F107017D
:1049700001208840FBF7AAFE2946FBF729FF01D258
:10498000002477E02846FBF7C0FEC0F308026CE085
:104990004FF40017954207D385F00040FBF7B5FEB2
:1049A000B842EDD8404204E02846FBF7AEFEB842DC
:1049B000E6D2C0F3150258E036488542E0DC2846CE
:1049C000FFF786F950E034488542D9DC2846FFF7E6
:1049D00091FE49E031488542D2DC31464046FFF73E
:1049E00095FB00F480572846FFF79CFE0BE02C480F
:1049F0008542C5DC31464046FFF788FB00F48067FE
:104A00002846FFF72FFD47EA00022EE025488542A1
:104A1000B6DC2846FFF718FE26E0A5F17E50B0F57B
:104A2000701FADD82846FFF726FE1DE08D42A7DC9B
:104A3000284600F059FA17E030B1B5F5000F9FDABB
:104A40002846FFF735FE0FE08D4299DC284600F03E
:104A50007DFA09E0002893D000E070B11248854249
:104A60008EDC2846FFF754F902461CB13146404619
:104A7000FFF752FC2046BDE8F081B5F1854F9DDC83
:104A8000284600F053FAEFE70000808000007A44E7
:104A90000080FF4300C6684700E873463313744440
:104AA0000024744600207444CDCCCC3E70B50C4636
:104AB000054600220121FFF72FFC00220221284693
:104AC000FFF72AFC002203212846FFF725FC606837
:104AD000FFF7FEF8024605212846FFF71DFCA068F7
:104AE000FFF7F6F8024606212846FFF715FCE068B6
:104AF000FFF700FE024607212846FFF70DFC20695C
:104B0000FFF7F8FDA18A40EA010208212846FFF7D5
:104B100003FCA069FFF7A6FCA18B40EA0102152166
:104B20002846FFF7F9FB206A00F0DEF90246132160
:104B30002846FFF7F1FB94F8252020781621024340
:104B400094F8240002432846FFF7E6FB94F8262059
:104B500017212846FFF7E0FB94F8272094F82A0055
:104B6000A18D0243208D0843024318212846FFF7F8
:104B7000D3FB94F82E2094F82F00192102432846E5
:104B8000FFF7CAFB207800284DD054F8300F00F012
:104B9000DDF9024609212846FFF7BEFB606800F0F8
:104BA000D5F902460A212846FFF7B6FBA06800F0B7
:104BB000CDF902460B212846FFF7AEFBE06800F076
:104BC000C5F902460C212846FFF7A6FB227C607C33
:104BD0000E2102432846FFF79FFB606900F0A6F90B
:104BE00002460F212846FFF797FBA06900F09EF9C7
:104BF000024610212846FFF78FFB227F607F94F842
:104C000020100243A07F08430243608C0243A08C23
:104C10000243E08C0243208D02432846BDE87040E9
:104C20001A21FFF779BB206CFFF70EFD02460D211C
:104C30002846FFF771FB206DFFF71DFD024611218D
:104C40002846FFF769FB606D00F04EF9024614211B
:104C50002846FFF761FB206BFFF72AFD024609217A
:104C60002846FFF759FB606BFFF722FD02460A2139
:104C70002846FFF751FBA06BFFF71AFD02460B21F8
:104C80002846FFF749FBE06BFFF712FD02460C21B7
:104C90002846FFF741FB606CFFF73AF802460E2109
:104CA0002846FFF739FBA06CFFF732F802460F21C8
:104CB0002846FFF731FBE06C3C34FFF729F8024649
:104CC00010212846FFF728FB227F607FE17F024307
:104CD000A07F08430243208C0243608C0243A08CD7
:104CE0000243E08C98E770B50D4604460121FFF7BA
:104CF0000DFA421B2046BDE870400121FFF70CBBB6
:104D00000A460321FFF708BB032803D8024988702D
:104D10000120704700207047180000202DE9F14F56
:104D2000002201210098FFF7F7FA002202210098E3
:104D3000FFF7F2FA002203210098FFF7EDFA574E31
:104D4000574FDFF86081DFF86091DFF860B1584CB1
:104D5000584D00984FF07E5A18B1012801D0022812
:104D60007ED13046FEF7B4FF024605210098FFF7DA
:104D7000D3FA3046FEF7ACFF024606210098FFF753
:104D8000CBFA3846FFF7B6FC024607210098FFF73A
:104D9000C3FA0020FFF7C6FC024608210098FFF77F
:104DA000BBFA4046FFF75EFB024615210098FFF76D
:104DB000B3FA082213210098FFF7AEFA0422162155
:104DC0000098FFF7A9FAEF2217210098FFF7A4FA3D
:104DD000C32218210098FFF79FFA4022192100985A
:104DE000FFF79AFA4846FFF72FFC02460D2100987C
:104DF000FFF792FA5046FFF73EFC02461121009859
:104E0000FFF78AFA584600F06FF80246142100981E
:104E1000FFF782FA2046FFF74BFC02460921009873
:104E2000FFF77AFA2046FFF743FC02460A21009872
:104E3000FFF772FA2046FFF73BFC02460B21009871
:104E4000FFF76AFA2046FFF733FC02460C21009870
:104E5000FFF762FA1848FEF75BFF02460E2100E0FA
:104E60001AE00098FFF758FA2846FEF751FF02466D
:104E70000F210098FFF750FA2846FEF749FF024637
:104E800010210098FFF748FA0098BDE8F84F42F665
:104E900008621A21FFF740BABDE8F88F008011447C
:104EA000000048440000C8434A0C764200D0044445
:104EB00000002041751F803D2D431C3D10B5FBF7C0
:104EC0000EFCBDE810400149FBF73ABA0024743CDF
:104ED00010B5401CFBF703FCBDE810400149FBF78F
:104EE0002FBA00000000FA4110B50749FBF722FA7B
:104EF0000649FBF725FA4FF07C51FBF7C9F9FBF7A0
:104F000004FCC0B210BD00000000FA416F12033D66
:104F1000FFF7C0B8FFF7D6B810B5401CFBF7DFFBB2
:104F2000BDE810404FF0FF31FBF73CBA10B54FF031
:104F30007C542146FBF7FEF90121FBF733FA2146A9
:104F4000FBF7A6F9FBF7E1FBC0B210BD10B50749AE
:104F5000FBF7F0F90649FBF7F3F94FF07C51FBF74B
:104F600097F9FBF7D2FBC0B210BD00000000FA4079
:104F70006F12033E10B5401CFBF7B1FBBDE81040BB
:104F80000149FBF7DDB900000000FA4070B5084E9A
:104F900000252C4605E02046FFF764FB0543641C12
:104FA000E4B2B0788442F6D3002DF1D170BD000098
:104FB0001800002010B504462046FFF753FB0028D8
:104FC000FAD110BD10B5054CA278FFF733F8607820
:104FD000002801D00120207010BD00001800002022
:104FE00070B500240620FEF717FE002144F620626B
:104FF0000846FBF707FE4FF4E1750620641CFEF738
:10500000E1F860B1AC4214DB0020FBF7E1FD0020C9
:10501000FBF776FEBDE870400620FEF7D3B800200F
:10502000FBF7D6FD002141F288320846FBF7EAFD86
:10503000EDE70A2008F010FADFE770B5002405203C
:10504000FEF7EAFD002144F620620846FBF7DAFD90
:105050004FF4E1760420641CFEF7B4F8050009D093
:10506000B44211DB0020FBF7B3FD0020FBF748FE44
:10507000284670BD0020FBF7ABFD002141F28832CD
:105080000846FBF7BFFDF0E70A2008F0E5F9E1E785
:10509000F8B50022009203206A4600F051F900980A
:1050A000124CB0F5487F00D22060FEF7DDF9207584
:1050B0000F20FCF7A7FB07461020FCF7A3FB0646D2
:1050C0001120FCF79FFB05461220FCF79BFB41F2E9
:1050D00088318F4200D267608E4200D2A6608D4236
:1050E00000D2E560884200D22061F8BD98200020FF
:1050F00010B518210348FBF76DF803480021016043
:1051000010BD0000982000205803002000207047A8
:105110002DE9F0411E4617460D460024C0B2FEF7A9
:105120007BFD324639460020FBF76CFD42F21076DB
:10513000E8B2641CFEF746F838B1B4420DDB40F229
:10514000DB12084908A007F009FB0020FBF740FD2F
:10515000BDE8F0410020FBF7D3BD012008F07CF949
:10516000E6E700000E0401085B25733A2564235D21
:105170006D6F746F72206E6F2066696E64206C694B
:10518000676874200D0A0000002070477047000017
:1051900010B544F62063012202210420FFF7B8FF76
:1051A000012249F6404311460320FFF7B1FF0122D7
:1051B000BDE81040024B0F211046FFF7A9BF0000C9
:1051C000C0270900012207214FF4FA630846FFF7C0
:1051D0009FBF000010B5104C0E48022120604FF414
:1051E000827060600020A060C4E903010121616158
:1051F0004902A1612021C4E907106062A062072072
:10520000E0622046FDF7AEF82068016841F04001F9
:10521000016010BD003C0040801F002001B582B03D
:105220004FF47A700090012301AA02A90248FDF709
:105230005BF99DF804000EBD801F00200B4A10B5DD
:1052400011680B6823F040030B6011680B684FF680
:10525000C77423400B6011680B6803430B60106830
:10526000016841F04001016010BD0000801F002076
:105270002DE9F0410E46074615469846002118468E
:1052800000F044F9002404E0385DFFF7C7FF305513
:10529000641CAC42F8DB4046BDE8F041012100F05F
:1052A00035B92DE9F0471D4690460F460446FCF7F8
:1052B000F1FB06465FEA08004FF000084FF4005A81
:1052C0004FF0010926D034E0681C23D025B1FCF74B
:1052D000E1FB801BA8421DD92068416821F0E00154
:1052E00041602068016821F040010160A06A5045DA
:1052F00009D12068016821F400510160206801682B
:1053000041F40051016084F8519084F850800320EA
:10531000BDE8F0872068806837EA0000D4D10DE04E
:10532000681C06D0002DD7D0FCF7B4FB801BA84228
:10533000D2D82068806837EA0000F1D00020E7E783
:1053400010B50446184664F30700FEF783FA04001C
:1053500004D02222024903A007F000FA204610BD23
:105360006D0601085B4552524F522025733A256461
:10537000235D6661696C200D0A00000010B50346CC
:10538000104663F30700FEF780FA040004D01322EE
:10539000024903A007F0E2F9204610BD39060108D2
:1053A0005B4552524F522025733A2564235D666156
:1053B000696C200D0A00000070470000054928B103
:1053C000012802D101F10C008860704701481430B7
:1053D000FAE70000DC0200202DE9F0478246642055
:1053E000A2B002FB00F4002788463E46F2221F4985
:1053F0001FA0209707F0B2F9234DDFF890902E7090
:10540000C9F80060FEF760F800F05EF90BE028785C
:1054100030B11F4A2E7020A912686846904704E0F8
:105420000A2008F019F8641EF1D2209A42B16946A8
:105430005046FAF7A8FE2098401EC8F8000008E081
:105440004FF0FF37C8F80060FBF73AFF2E70C9F83D
:10545000006040F20F1205490EA007F07FF9FBF73C
:1054600085FF22B03846BDE8F0870000B805010886
:105470005B25733A2564235D7374617274207363D2
:10548000616E200D0A000000BD020020C002002055
:10549000DC0200205B25733A2564235D656E642081
:1054A0007363616E200D0A0010B500210220FBF726
:1054B00049FD0220FEF7B0FB0021BDE81040024A82
:1054C0000846FBF79FBB0000F04F01000A4910B5EA
:1054D0000122C1E90002A0F26310FBF705F9074AB7
:1054E000074BFBF712F80022064BFBF70BF8FBF714
:1054F00052F90549086310BD9C0200205C8FC2F57B
:10550000285CEF3F00007940EC0E00200A4A0A2890
:1055100008D00B2809D00C280AD00D2801D1C2F8D8
:10552000B4117047C2F8A8117047C2F8AC117047A7
:10553000C2F8B01170470000000024422DE9FE437C
:105540000446DDE90B600A9D0095CDE901608946BE
:1055500017469846204608F0E9FAE4B22046FEF7DE
:105560005BFB04EBC400224900EB041001EB80005C
:10557000FFF74EF823464FF4F7721E491EA007F0BE
:10558000EDF809F0FF0340F2EF121A4920A007F0EE
:10559000E5F82846FBF7ECF8CDE9000140F2F112FE
:1055A000144920A007F0DAF83046FBF7E1F8CDE91E
:1055B00000014FF4F9720F4920A007F0CFF83846E8
:1055C000FBF7D6F8CDE9000140F2F312094921A01A
:1055D00007F0C4F84046FBF7CBF8CDE900014FF4E3
:1055E000FA72044921A007F0B9F8BDE8FE83000073
:1055F00034080020230401085B25733A2564235DE9
:10560000646576696365733A25640D0A00000000DD
:105610005B25733A2564235D6D6F64653A25640DDF
:105620000A0000005B25733A2564235D4D415873E1
:10563000706565643A25660D0A0000005B25733AC3
:105640002564235D4D494E73706565643A25660D8A
:105650000A0000005B25733A2564235D41434373D0
:10566000706565643A25660D0A0000005B25733A93
:105670002564235D44454373706565643A25660D72
:105680000A00000010B504460846FBF72DF80B4A47
:105690000B4BFAF73AFFFBF74CF80A490F2C07D0EF
:1056A000102C07D0112C07D0122C00D1C86010BDCF
:1056B000086010BD486010BD886010BD5C8FC2F5E9
:1056C000285CEB3FB80100201CB54C208DF8000091
:1056D0004F208DF801004E208DF802000D208DF82E
:1056E00003000A208DF80400FBF792FD064A05210D
:1056F000684652689047642007F0AEFEC522034911
:1057000003A007F02BF81CBDDC020020A205010855
:105710005B25733A2564235D5343414E2053544126
:1057200052540D0A0000000010B5FBF74DFF012098
:10573000FBF7B2FEBDE81040FBF704BF30B58FB0F9
:10574000012100910225090400240795CDE90114E7
:10575000CDE908106846FCF747FB00B1FEE70F20D3
:10576000CDE90A054FF48060CDE90C4002210AA87A
:105770000E94FCF7FFF9002800D0FEE70FB030BD13
:10578000704710B5FBF720FF04460020FBF784FEAE
:10579000FBF7D8FE204610BD002070470020704760
:1057A000401EB0F1807F01D3012070474FF0E0210F
:1057B0004861054AF02082F8140D00208861072016
:1057C00008610020704700000FE000E0FCF768B9B6
:1057D0000D48016841F00101016041680B4A114028
:1057E000416001680A4A11400160016821F480218A
:1057F0000160416821F4FE0141604FF41F018160A6
:105800000449C00308607047001002400000FFF820
:10581000FFFFF6FE08ED00E010B50A4C2068C068F6
:10582000C043C00709D108480069804721680020AB
:10583000486221686420C862E06021686FF001005E
:10584000086110BDB02000209803002008490868B6
:10585000C268D243D20705D142620A6842F20F7091
:10586000D062C86009686FF00100086170470000ED
:10587000DC070020F0B502681A4D1B4E1B4FDFF805
:1058800070C01C4B4FF0804EA84209D0984207D000
:10589000704505D0B04203D0B84201D0604503D175
:1058A00022F070044A682243A84209D0984207D0E7
:1058B000704505D0B04203D0B84201D0604503D155
:1058C00022F44074CA68224302608A68C2620A688D
:1058D0008262A84201D0984201D109690163012185
:1058E0004161F0BD002C0140000400400008004070
:1058F000000C00400034014010B50123046A8B40C5
:105900009C430462036A8A401343036210BD30B5AE
:105910000125039C057001824182C260037500214C
:1059200081614460C16180F8201080F82410816298
:1059300080F82C10C186016381860172084630BD53
:1059400030B58BB00446022202703948C4F86805AD
:105950003848C4F864053848C4F860050020C4F825
:10596000C80204F52071C4F8CC02C4F8D00248651E
:105970008865C8654FF4E131C4F8241284F8C30285
:10598000FF2184F8AC1284F8C00284F8C10205211A
:1059900084F8C21241F28831C4F834124FF47A719B
:1059A000C4F8381284F83C02C4F8F80284F8FD0305
:1059B000C4F8300284F8FF2384F80104A4F8040535
:1059C000A4F80605012184F80815C4F80C0584F82C
:1059D000100584F81115042184F8121584F81305B4
:1059E00084F8140504F5A461C4F818150825A4F872
:1059F0001C55A4F81E0584F8400584F84105C4F838
:105A0000E80220220D496846FAF7BDFBADF82450A4
:105A1000CDF820D0ADF8265008AA0221204606F085
:105A200087F80BB02046BDE8304006F084B800008F
:105A300099800008AD9E000835950008F40501081E
:105A400070B50D4604464FF486710948FAF7C2FB5B
:105A50000848C4E900500848A0600848E0600848C9
:105A60002061084860610848A061002070BD000006
:105A7000441C002095ED000841EE000899ED000857
:105A80005DEE000861EE000891ED00082DE9F04F91
:105A90008FB00E461899DDE9195B09788DF818105A
:105AA0009BF800101C468DF81C100027337800F579
:105AB000E271BA464FF0010E4FF01709052B7DD069
:105AC00006DC052B0CD2DFE803F00F2C9AD1EB009B
:105AD000062B74D0072B73D01A2B48D03B2B70D0D9
